:020000040000FA
:0600000002142D02086A43
:030013000209C01F
:03002B000211E9D6
:0300330002107246
:03003B00020A15A1
:0300530002079F02
:100083000207FE010000000000F8FF07FFFF000069
:100093000504000000030001FF16102700000020E4
:1000A300FD000206FFFFFE0400000004E5C6FE0695
:1000B300001F0000AC03FE06001F00B4AC741E0357
:1000C30000770154175A170E1E00000000000000AD
:1000D300000000000000000000000000000000001D
:1000E300000000000000000000000000000000000D
:1000F3000000002C1E0000000000000000000000B3
:100103000000000101E803D0073200640000000092
:1001130000000000000000000000000000000000DC
:1001230000000000000000FF0000000000000000CD
:1001330000000104010C0002072E8202A6830104C1
:1001430000007614000000E8030000FFFFC71488D6
:10015300130000E803000064006400B801A0BB0DB5
:1001630000A0BB0D000202020304010A3C02051EAB
:10017300020A0A010108080103DC0502803E0102AC
:10018300FEFFE8030A050001FFFF020A011401E074
:100193000100B0423BAAB83F0000003F8C90633996
:1001A300AA0CA33A00941E3C8042633DCFFE753EE9
:1001B3001572313F0000803FF304353F8096184BA2
:1001C300000080BF2292D43EDD9B2A3F0400004002
:1001D300FFFF7F7FFFFF7FFF010080341872313FF5
:1001E300050301010F823000000000B82F0000005A
:1001F30000FF000000FF0012145B604612147960D8
:100203003DE9687008F618F618F618F62274806748
:10021300F712022E090909748067F7221214796014
:100223001D12145B7005191919801A121308701F17
:1002330012131CC37003E667331919194007181802
:10024300182208080874FFF618F618F618F6221292
:10025300131C60171214F9702192F01214E770192D
:10026300501720F014080808090909E7F61819E7D8
:10027300F61819E7F61819E7F6221214E760E6E80C
:1002830069701F0808E62480F608E436F618547FE0
:10029300B47F0CE654806007F6E418F618F62218CB
:1002A3001822E9C6CC08C6CD08C6CE08C6CFC0E022
:1002B300E8C0E0EAC0E0EBC0E009E9F809E7FA09C1
:1002C300E7FBE6F918E6F8C3EC98ED99EE9AEBC272
:1002D300E7F5F0EFC2E795F0500E600CEBCFFBEAC9
:1002E300CEFAE9CDF9E8CCF8EAA2E7D2E7FAEB33A4
:1002F300FB13F5F0EEA2E7D2E7FEEF33FFC5F013F1
:10030300A2E730E601B313C5F0C3C0E0C0F07F003D
:10031300C39BFB605E9418600F401D14601AD0E00D
:1003230023F9D0E0F80204008AF0E9486003D2F030
:10033300E4AFF0FAF9F8803BEB30E40D89F0EA60C2
:1003430003D2F0E4AFF0F9CAF8EB30E30D88F0EF35
:100353006002D2F0AFF0E4CAC9F8EB54076014FBB3
:10036300C3EA13FAE913F9E813F8EF135002D2E0E2
:10037300FFDBEDD0E0C0E030E739C3E49FFFF5F0E9
:10038300EC98FC42F0ED99FD42F0EE9AFE42F0D07B
:10039300E0F9D0E0F8E5F0607AE923F9EE20E742EE
:1003A300D8028067C3EF33FFEC33FCED33FDEE334C
:1003B300FE80EAEC28FCED39FDEE3AFED0E023F9AD
:1003C300D0E0F84002801BC3EE13FEED13FDEC13E7
:1003D300FCEF135002D2E0FF08B800067F7F74FFE2
:1003E300802EEF3350178CF020F00260100CBC000D
:1003F3000C0DBD00080EBE000408E860DFE933E819
:1004030013FFEE2313FE4F4D4C8008E95480FFE4A5
:10041300FEFDFCEE33EF33F47004FCFD7E80D0E090
:10042300FBD0E0FAD0E0F8D0E0CFC618CEC618CDA6
:10043300C618CCC6F922121479700418181822129F
:10044300145B700D74FFF61819F61819F61819F6DF
:1004530022E7548066F61214E7700F1214F970F055
:1004630014F608F608F608F680D11214F9700CF6A3
:1004730008F608768008E6447F80EC12131F700CA0
:1004830012130B60BFE65480F6E480BB12130B70AB
:100493000519191980A5E869700C763F187680183C
:1004A300F618F6E8F922E6CDC0E018ECC0E0E63332
:1004B300CD33CDD313F6E719FCE7191933CC33C386
:1004C300947F400ECD9D502408E65480F6E418F640
:1004D300800FF4043D14501408E6447FF618768028
:1004E300E418F618F6D0E0FCD0E0FD22CCD313CC10
:1004F300FD18E4C6CBC0E018E4C6CAC0E00808EDA6
:1005030008C633E613F618E433C675F003C3CA9777
:10051300CA09CB97CB199C40047D08802EBD0003EC
:100523000205E216B6FF050606081618C3CA33CA43
:10053300CB33CB33CA27CA09CB37CB193CC37D088E
:10054300803E187D0820E75CC633C6CA33CACB3366
:10055300CB33DDF1D5F0EB30E77BCA97CA09CB97F4
:100563004ACB199C406F4B7025E620E0218066182A
:100573007D08C3CA97CA09CB97CB199CD3C633C688
:10058300CA33CACB33CB3350C9DDE7D5F0E1D3E46B
:10059300C636C608C636C608C636C608C636C61820
:1005A30018188031C3CA97CA09CB97CB199CB3409B
:1005B30097C633C6CA33CACB33CB33DD34D5F02E1B
:1005C300C6A2E0C640C8CA27CA09CB37194A70BEBB
:1005D300CB3CB480B90808E63308E633601F18182B
:1005E30018D0E0FAD0E0FBD0E0FCD0E0FD22187D8B
:1005F30008CA27CA09CB37CB193CD3808013F61816
:10060300E4B67F11F618B6FF0EF618C60470D208CA
:1006130008768080CAF618F618F680C50012147999
:10062300604F12145B6012E7548066F61213087071
:10063300111214F9703B090909F4F618F618F618A3
:10064300F62212131C70151214E708080860EAE674
:10065300447FF618768018E4F618F6221214E76041
:10066300161214F97012E4F608F608F608E6548038
:10067300F609090918181822EAC0E0EBC0E0ECC03B
:10068300E0EDC0E0E687F0A4FBACF008E687F0A459
:100693002CFCE435F0FA1809E687F0A42C4B600231
:1006A3007401CA35F0FCE433FB09E687F0D2F7A402
:1006B3002CCB35F0FC1908E687F0A42BCC35F0FBE6
:1006C300E433FD0819E687F0D2E7A42C4ACB35F0D2
:1006D300CD3400FC09E687F0D2E7A42DCC35F0FD3C
:1006E300E433FA0918E687F0D2F7A42CCD35F0CA23
:1006F3003400FC08E687F0D2E7D2F7A42ACC35F021
:100703007A7E20E70B0ACB33CBCD33CDCC33CC333E
:10071300CB3350147004ED30E00ED2F1E4CD3DCD77
:10072300CC3CCC3B5005DA05C2F1EB547FC6330811
:10073300E63392F0FBE73309E733C39A502D2B706E
:10074300190C0D4C4D70151806E608C333700D20B7
:10075300F10AA2F013F6E418800B4024E4F630F01B
:1007630002768018F618F618F68024D33B1450103E
:1007730074FFA2F013F6187680E418F618F6800FCB
:10078300A2F013F618E63303F618ECF618EDF6D0DC
:10079300E0FDD0E0FCD0E0FBD0E0FA22C0E074F151
:1007A300120C2DA2AFE433F509D2AF85A708AFA190
:1007B300EF5508FE74105E600612182075A1EF74E1
:1007C300085E600812182675A1F78024EFA2E09254
:1007D300F0E508A2E082F05017906198E0F89007E6
:1007E30014E0C398A2D265D0335002E8F075A1FE9D
:1007F300E509A2E092AF7F02020C8CC0E074F21212
:100803000C2DA2AFE433FED2AF9061A4E0F8759B48
:1008130000E59158540860087591F7121874802305
:10082300E59158541060087591EF12187A8014E519
:1008330091A2E092F0E8A2E082F05007E0C2E0F07B
:100843001219D09061A3E0F8E5E9585404600E1240
:1008530019A675E9FB906193E0A2E640F2EEA2E0EF
:1008630092AF7F01020C8CC0E074F2120C2DA2AF88
:10087300E433FED2AF9061A5E0F8E5BF58540460BD
:100883000675BFFB1219E880D4C3E498F8E499F91C
:100893001208CD8026C3E49AFAE49BFBE920E7E93A
:1008A3001208CDE498F8E499F922C3E498F8E4999E
:1008B300F91208CDE498F8E499F9C3E49AFAE49BB1
:1008C300FB22EB20E7CFE920E7E0B90010BB0008EB
:1008D300E88AF084F8AAF022E4FBC8FA22EB70223B
:1008E3007B10C833C8C933C9335007C39AC3DBF27B
:1008F30080069A50012ADBEAC833F4C8C933F4C925
:10090300FA2275F008E4C833C8C933C933C99AC990
:100913009B5004C92AC93BD5F0ECFBC833F4C8E4A7
:10092300C9FA2212097130F0391209B6803412095A
:100933007120F01430E72B74FFFCFBFA747F8022E4
:10094300E4FCFBFA7480801AB48008BC00F2BB009C
:10095300EF800F50EBF9E4C39AFAE49BFBE49CFCB1
:10096300E499C6CC18C6CB18C6CA18C6F922E4C97E
:10097300C608CAC608CBC6D3330308CCC63392F025
:10098300C3947F402E94184019C9B90704CACBCC2D
:10099300225025C309CA33CACB33CBCC33CC33D98A
:1009A300F422F4600DC9CCC313CB13CBCA13CAD939
:1009B300F6CC22E4FCFBFA2214FCFBFA22C0E0C0D2
:1009C300D0E8C0E0E9C0E0C082C083A8C1E8C0E0CD
:1009D300900681E0F8740028F582E43406F583D0AC
:1009E300E0F0900680E0F8A3E0687006E5959006D5
:1009F30083F0900681E004F0C394804002E4F0A306
:100A030074C6F0D083D082D0E0F9D0E0F8D0D0D053
:100A1300E032C0E0C0D0E8C0E0E9C0E0C082C083FB
:100A2300900704E0F8A3E0687008539AFBA37401ED
:100A33008022C2E9900704E0F8740128F074842846
:100A4300F582E43406F583E0F5C1900704E0C3942E
:100A5300804002E4F080AC080808EAC0E0EBC0E0A4
:100A630086F0E7A4FA180986F0E7A42AFA1809869B
:100A7300F0E7A42AFA180986F0E7A42AFA1986F0FF
:100A8300E7A4FBE5F02AFA190886F0E7A42BFBE5B7
:100A9300F03AFA190886F0E7A42BFBE5F03AFA18C6
:100AA300180986F0E7A4C5F02BFBE43AFA1908E726
:100AB300C5F0C6A426F6E5F03BFBE43AFA1886F047
:100AC300E7A4F6E5F00826F6E43B08F6E43A08F670
:100AD300D0E0FBD0E0FA22080808E630E711121252
:100AE300E0120AF2080808C64480C618181822182B
:100AF3001818E9799EC608CAC608CBC608CCC6C36F
:100B030070207996CACBCC7019798ECBCC701379BF
:100B130086CC700EF9802ACA33CACB33CBCC33CC04
:100B2300331930E7F2CCCBCA3350147004EA30E007
:100B33000DE4CA3ACACB3BCBCC3CCC500209C3E947
:100B430013C6CC182313C6CB18C6CA18C6F922E499
:100B5300CFC0E0E4CEC0E0E4CDC0E0E4CCC0E075BB
:100B6300F020E626F608E633F608E633F608E63321
:100B7300F6181818EC33FCED33FDEE33FEEF33FFBC
:100B8300C3EC9709ED9709EE9709EF9719191940E7
:100B93000FFFEC97FC09ED97FD09EE97FE19190677
:100BA300D5F0BFECF709EDF709EEF709EFF71919DF
:100BB30019D0E0FCD0E0FDD0E0FED0E0FF222521FB
:100BC300C582C0E0E52234FFC583C0E0E521C395BB
:100BD3008224F810AF0885832285822180088583CB
:100BE30022858221D2AFCEF0A3E520F0A37808E6D8
:100BF30008F0A3DEFAEFF0A3E58124FAF8E608F0A3
:100C0300A3E608F0A3E608F0A30808E608F0A3E6C5
:100C130008F0A315811581D0E0FED0E0F815811509
:100C2300811581E8C0E0EEC0E022C0D02521C58255
:100C3300C0E0E52234FFC583C0E0E521C3958224EB
:100C4300F310AF088583228582218008858322855E
:100C53008221D2AFC8F0A3E9F0A3EAF0A3EBF0A39B
:100C63007908E709F0A3D8FAECF0A3EDF0A3EEF0CE
:100C7300A3EFF0A3D0E0F0A3D0E0F0A3D0E0F0A383
:100C8300E520F0A3E5F0F0A322852283852182E00D
:100C9300C0E0A3E0F9A3E0FAA3E0FBA37808E0F641
:100CA30008A3DFFAE0FCA3E0FDA3E0FEA3E0FFA3BB
:100CB300E0C0E0A3E0C0E0A3E0F5D0A3E0F520A30B
:100CC300E0A3F5F010AF0885832285822180088593
:100CD3008322858221D2AFD082D083D0E0F8D0E0C6
:100CE300321212E3181818120B521213DC191919C5
:100CF300221213DC191919080808E618181820E736
:100D0300E0120B521212E318181822090909E71905
:100D1300191920E7DC080808E618181820E7030269
:100D23000B521212E3181818120B521212E318186E
:100D3300181213DC191919221214D2B90003020D67
:100D43007AE4900501786579138002F0A3D8FCD981
:100D5300FA7A657B17900086787579028015E4939B
:100D6300A3AD82AE838A828B83F0A3AA82AB838DE9
:100D7300828E83D8E9D9E775822775839474051227
:100D830011607582C075832C740012116075F010A8
:100D93008E238F248582288583278521828522833C
:100DA300E0CEA3E0CF852882852783EBC9EAC8ED8F
:100DB300CBECCAC3E833C8E933C9EA33CAEB33CB54
:100DC300C3EA9EF526EB9FF525B35004AB25AA266F
:100DD300EC33CCED33CDD5F0DAAE23AF24221214AD
:100DE30079601C12145B60171214E770071214F970
:100DF3007001D322C0D01214F97006D0D0B322C32D
:100E03002233D0D0501430E0F6C3E7960809E796B2
:100E13000809E7960809E796B32220E0D5E6970884
:100E230009E6970809E6970809E697B322121479A9
:100E3300601B12145B60161214E770071214F9603A
:100E43000CB322C0D01214F97005D0D022C32233C0
:100E5300D0D0501330E0EBC3E7960809E7960809B2
:100E6300E7960809E7962220E0E4E6970809E69763
:100E73000809E6970809E69722D083D082ECC0E000
:100E8300EDC0E0E493A3FCE493A3FDED4C600D12ED
:100E93000F54EC24FFFCED34FFFD80EFE493A3FC3F
:100EA300E493A3FDED4C600D12101DEC24FFFCED4B
:100EB30034FFFD80EFD0E0FDD0E0FCE493A3C0E07D
:100EC300E493C0E022D083D082E9C0E0E493A3C3DB
:100ED30086F0C5F095F0F908E493A386F0C5F09584
:100EE300F0700BE493A3C3994005E9048002A3E4E3
:100EF30075F002A42582F582E5F03583F583D0E011
:100F0300F9E493A3C0E0E493C0E022852283852122
:100F130082E0A3FEE0A3F5207808E0A3F608DFFA59
:100F2300E0A3FFE0A3C0E0E0A3C0E0E0A3C0E0E0F3
:100F3300A3C0E0E0A3C0E010AF088582218583222F
:100F43008008858221858322D2AFD083D08202118B
:100F530066C0E0C3E49396087401939618400FE4C7
:100F63009366700808740193661870007019A3A340
:100F7300C3E49396087401939618A3A3400DD0E09D
:100F8300D0E0D0E0020EB8A3A3A3A3A3A3D0E02292
:100F93007404800474028000CCC0E0EDC0E0E5215D
:100FA300C39CCCAD2250011D10AF068C218D228035
:100FB300068C218D22D2AF1210E2D0E0FDD0E0FCEE
:100FC3002274028000CCC0E0EDC0E0E521C39CCCDC
:100FD300AD2250011D10AF068C218D2280068C217D
:100FE3008D22D2AF1210C0D0E0FDD0E0FC2212144B
:100FF30079602512145B60201214E770030214F960
:10100300080808E76670101819E766700A1819E7E8
:101013006670041819E76622F422C0E0C0F088F075
:10102300E4936670080874019366187000A8F0A32F
:10103300A3700BD0F0D0E0D0E0D0E0020EB8A3A3B1
:10104300D0F0D0E022D083D082CCC0E0E493A36080
:10105300061211221470FAE493A3600612126214AA
:1010630070FAD0E0FCE493A3C0E0E493C0E022C0B4
:10107300E074F2120C2DA2AFE433FED2AFE58BA2E3
:10108300E050057904121772758B00C2E8EEA2E0F6
:1010930092AF7F01020C8CC008C3E096F50808A349
:1010A300E096420808A3E096420808A3E0964208A7
:1010B300A2D265D033E5087001D3D00822CAC0E0BC
:1010C300E493A3C582CCC582C583CDC583F0A3C5F4
:1010D30082CCC582C583CDC583DAE5D0E0CA22CAF6
:1010E300C0E0E0A3C582CCC582C583CDC583F0A390
:1010F300C582CCC582C583CDC583DAE6D0E0CA22DA
:101103007009080808226016181818C6C333C608E1
:10111300C633C608C633C608C633C6D5E0EA22C0FE
:10112300E0E493A3D39C5010E493A3C39C400AD060
:10113300E0D0E0D0E0021065A3A3A3D0E022C00872
:10114300C3E096F50808A3E096420808A3E0964298
:101153000808A3E09645087001D3D00822C09FF584
:101163009FE473D09F22D083D082C09FE493C0E0DA
:10117300740193C0E0740293F59F222521F5821038
:10118300AF08F521400C15228008F52140021522F5
:10119300D2AF8522832200C0D0252110AF08F521CC
:1011A300500C05228008F52150020522D2AFD0D081
:1011B300227404800A74038006740280027401C0DE
:1011C300E0F40412117ED0E012149522BB0102E771
:1011D30022C082C08389828A83BB0003E08002E449
:1011E30093D083D08222C0E0C0D0E8C0E0A8A8D2C8
:1011F300AFC2C7E8A2E792AFD0E0F8D0D0D0E032D8
:101203006016080808C6C313C618C613C618C61343
:10121300C618C613C6D5E0EA222521F8E43522F91B
:10122300222521FAE43522FB222521FCE43522FD87
:1012330022C3E0C696F608A3E0C696F608A3E0C666
:1012430096F608A3E0C696F622252110AF08F521ED
:10125300400C15228008F52140021522D2AF22C08E
:10126300E0E493A36C7009D0E0D0E0D0E002106515
:10127300A3A3D0E022C3E7960809E7960809E796F7
:101283000809E796A2D265D03322E76670100809F1
:10129300E766700A0809E76670040809E76622C36F
:1012A300E09608A3E09608A3E09608A3E096A2D2EE
:1012B30065D03322E066701008A3E066700A08A3C5
:1012C300E066700408A3E06622C3E096F008A3E09A
:1012D30096F008A3E096F008A3E096F022181818F9
:1012E300E4C396F608E496F608E496F608E496F660
:1012F30022C3E697F60809E697F60809E697F60883
:1013030009E697F622181818E60846087009E62633
:10131300087005E633F4220822191919E709470969
:101323007009E727097005E733F4220922C3E49320
:10133300960874019396087402939608740393961F
:1013430022E026F008A3E036F008A3E036F008A375
:10135300E036F022700422600D18C6C333C608C6F7
:1013630033C6D5E0F41822E657F60809E657F6081F
:1013730009E657F60809E657F622E627F60809E6CE
:1013830037F60809E637F60809E637F622E026F6C7
:1013930008A3E036F608A3E036F608A3E036F62203
:1013A300E056F608A3E056F608A3E056F608A3E0D5
:1013B30056F622E647F60809E647F60809E647F631
:1013C3000809E647F622E056F008A3E056F008A322
:1013D300E056F008A3E056F022E4C397F709E49738
:1013E300F709E497F709E497F722600D08C6A2E727
:1013F30013C618C613C6D5E0F322C6F4C608C6F44E
:10140300C608C6F4C608C6F4C622C3E09608A3E01D
:101413009608A3E09608A3E09622C3E7960809E797
:10142300960809E7960809E7962275D00075813F6B
:1014330075210175220500020D3B600C08C6C3131C
:10144300C618C613C6D5E0F422E6F008A3E6F008F2
:10145300A3E6F008A3E6F022E7094709C313470907
:10146300336002E733F422E0F608A3E0F608A3E0D2
:10147300F608A3E0F622E6084608C31346083360DD
:1014830002E633F422800100E9F874FF28F90470BE
:10149300F622CAC0E0E6F0A308DAFAD0E0FA22E0C6
:1014A300F8A3E0F9A3E0FAA3E0FB22E8F0A3E9F054
:1014B300A3EAF0A3EBF022EAF0A3EBF0A3ECF0A392
:1014C300EDF022E0FAA3E0FBA3E0FCA3E0FD22E5BC
:1014D300C754F84401F5C77901222521F582E43583
:1014E30022F58322E62618461846184622C2AF750F
:1014F300D69F02000022E7271947194719472212EE
:101503001169E0DC021211697ADD02121169EADD68
:101513000212116919DE021211691FDF0212116929
:1015230049DF021211699DDF0212116971E0021293
:1015330011699FE2021211694DE302121169BAE5C2
:10154300021211693FE60212116942E9021211699E
:1015530076EB02121169B2EB021211690BED021262
:1015630011691EED021211695BED0212116924EF7C
:1015730002121169DBF0021211694FF102121169B3
:1015830086F102121169BAF1021211690BF2021209
:1015930011695CF4021211697BF402121169C2F43D
:1015A300021211694FF50212116999F502121169BC
:1015B30040F6021211690DF7021211696CF702125B
:1015C3001169CFF70212116944F80212116988F800
:1015D30002121169E0F80212116915F90212116978
:1015E300A3F90212116934FA021211697AFA02128A
:1015F3001169A6FA02121169E7FA021211697DFC58
:101603000212116969FD021211694BFE021211697E
:10161300A792041211693B9304121169A393041254
:101623001169C89404121169529504121169DD9568
:1016330004121169199604121169B2960412116900
:101643004797041211691A9804121169FC9904123C
:101653001169F29A04121169919B04121169E69BB4
:1016630004121169549C04121169609F04121169D8
:101673008AA1041211698BA204121169C9A304126D
:101683001169D4A304121169F9850512116925861C
:10169300051211692C8705121169A48705121169B6
:1016A300BF8705121169E487051211698C88051239
:1016B300116941A60512116946A60512116979A699
:1016C30005121169FA8F05121169D190051211697A
:1016D3009B91051211698AA1051211699BA105123B
:1016E300116939A20512116944A2051211695EA29A
:1016F30005121169FD7F00121169DFFF02121169E2
:10170300B3A305121169C3A305121169D8A3051266
:1017130011693EA405121169869E051211690A9F7B
:1017230005121169729F051211696CFD011211698D
:101733008AFD01121169BFFD01121169E4FD011255
:10174300116907FE0112116942FE011211696FFE50
:1017530001121169B6FE0112116955FF01121169D7
:101763008BA00512116912A1051211691BA10512A3
:10177300116942A10512116912A70512116955FDDC
:10178300031211699FFD0312116935FE03121169DA
:10179300BBFE03121169EDFE0312116905FF03126B
:1017A300116979FF031211698FFF03121169A2FFF7
:1017B30003121169ACFF03121169EDD80412116908
:1017C30019D90412116983DB04121169C3DB0412F2
:1017D3001169FFDB0412116913DC041211692CDC9B
:1017E300041211691EDD04121169D1DD041211699D
:1017F300E5DD041211692496051211694896051254
:1018030011696196051211699F9605121169CF96A8
:1018130005121169FC960512116962970512116987
:101823006597051211696F97051211697C97051267
:101833001169C08805121169E088051211691F89B1
:10184300051211693D89051211695889051211693B
:10185300BE8905121169CA8905121169278A051201
:101863001169368A051211695A8A051211691B8B8F
:1018730005121169288B05121169398B051211693B
:1018830087A6051211699FA605121169CBA6051239
:1018930011693BDE041211698FDF041211699DDFA8
:1018A30004121169B0DF04121169C5DF0412116952
:1018B300DADF04121169EDDF0412116969E0041221
:1018C3001169CEE00412116964E1041211693DE269
:1018D300041211694DE2041211695CE204121169E8
:1018E3001AA3051211693EA30512116966A3051215
:1018F30011698EA305121169678B051211698E8B0D
:1019030005121169AC8B051211691B8C0512116943
:1019130000800512116919800512116925800512CD
:1019230011693980051211695780051211696180A7
:10193300051211696B80051211697E800512116908
:101943000881051211697D8105121169B1810512A2
:101953001169FF81051211694C82051211696782B1
:1019630005121169718205121169978205121169B5
:10197300FC82051211692FFF0212116951FF021235
:101983001169DFFF01121169C9BE04121169F5BEA5
:101993000412116912BF0412116925BF04121169DF
:1019A30040BF041211699ABF04121169C8BF04121F
:1019B3001169DCC3041211693AC5041211696CC5BB
:1019C30004121169CFC50412116954C704121169B5
:1019D3007CC70412116991C704121169A1C70412CB
:1019E3001169E1C70412116923C80412116933C8CC
:1019F300041211691C9A05121169369A05121169AC
:101A03005E9A05121169779A051211699B9A05125C
:101A13001169B99A05121169D09A05121169FE9AD2
:101A230005121169199B05121169CEA605121169D8
:101A33001CF3041211692CF30412116931F404121A
:101A4300116963F40412116993F404121169B6F471
:101A530004121169CDF40412116907F50412116916
:101A63006CF504121169AEF504121169F5F504124F
:101A7300116922F6041211694DF604121169869751
:101A830005121169989705121169AC98051211692D
:101A9300AF9805121169809D05121169B69D051253
:101AA3001169CE9D05121169109E05121169209EC0
:101AB30005121169649E051211696E9E0512116962
:101AC300FBD1041211693ED204121169A3D204128C
:101AD3001169C2D20412116964D3041211696DD35E
:101AE30004121169BED304121169E7D304121169F8
:101AF300F4D30412116966D404121169F4D40412E4
:101B0300116939D50412116972D504121169D7D537
:101B13000412116900D60412116977D604121169EF
:101B2300C6D60412116903D70412116938D70412F7
:101B330011694AD7041211695CD7041211697BD762
:101B43000412116984D70412116940D8041211696F
:101B530083D804121169C1D8041211698AA5051228
:101B63001169DC9805121169BC8D05121169F28D9A
:101B7300051211693A8E05121169938F05121169C5
:101B830025DE031211694BDF0312116987DF03128C
:101B9300116945E10312116973E103121169DDE370
:101BA300031211691DE403121169BFE503121169E0
:101BB30055E603121169AFE6031211693FE70312F9
:101BC300116983E703121169C5E7031211692AE951
:101BD30003121169AAEA03121169EBEC03121169EA
:101BE30019ED0312116945ED031211694EED03124C
:101BF3001169ABED0312116944EE031211695BF134
:101C030003121169E1F103121169BDA405121169EF
:101C1300D3A4051211693FEB0412116955EB0412A9
:101C23001169F9EB0412116938EC0412116955ECCE
:101C33000412116986EC04121169D3EC04121169C0
:101C430007ED0412116942ED0412116937EF041212
:101C530011698B9F05121169EA9F0512116928A06A
:101C63000512116969A0051211696DA205121169A6
:101C7300D6A205121169F6A2051211696A9C051212
:101C83001169289D05121169B9C001121169C5C0F6
:101C93000112116927C10112116931C101121169C0
:101CA300BEC101121169FAC101121169EAC201121E
:101CB300116949C301121169EEC30112116938C4D4
:101CC30001121169B3C40112116980C601121169AD
:101CD30071C80112116968C901121169A3CA0112FD
:101CE3001169EACC0112116936CE01121169C1CE14
:101CF3000112116920D001121169FBD0011211697F
:101D03002ED201121169C3D601121169B6D701127D
:101D130011693FD8011211696FD80112116994D862
:101D2300011211692DD9011211694BD901121169DF
:101D330069D901121169D7D901121169F6D90112B2
:101D4300116923DA0112116931DB0112116910DC07
:101D530001121169B6DD01121169D7DD0112116992
:101D63007DDE01121169C4DE0112116922DF011245
:101D73001169B9DF011211691EE00112116987E0CF
:101D830001121169C5E0011211696FE101121169B4
:101D9300DAE10112116916E201121169ABE20112D3
:101DA3001169EDE30112116985E5011211691CE660
:101DB300011211696CE801121169B9E80112116984
:101DC300CEE80112116906E90112116953E9011202
:101DD300116992E901121169FFE901121169B7EA68
:101DE30001121169F4EF011211698DF201121169E7
:101DF30094F301121169AFF7011211696DF8011221
:101E030011697BF90112116926FB01121169008026
:101E130004121169208004121169C7820412116926
:101E2300898504121169EF8704121169238804124A
:101E330011694C8804121169728804121169B788F8
:101E430004121169538A04121169B38A04121169C5
:101E5300D18B04121169E38B04121169978C04125C
:101E63001169A88C04121169878D04121169938E6C
:101E7300041211691C8F041211699E8F04121169D7
:101E83007B9004121169B19104121169BFFF03120F
:101E93001169A5F60412116964F704121169CAF7EE
:101EA3000412116979F804121169CEC80312116979
:101EB300FDC80312116975C90312116984CA03129B
:101EC3001169E0CA031211694DCC0312116969CC7F
:101ED30003121169BBCC03121169F9CC0312116906
:101EE3000CCD0312116964CD0312116926CE0312BE
:101EF3001169A2CE03121169D9CE0312116911CF50
:101F03000312116999D00312116978D1031211696F
:101F1300C6D203121169A9D30312116935D403126E
:101F2300116975D40312116994D403121169DFD4B2
:101F330003121169FFD40312116998D503121169B1
:101F43001ED60312116979D603121169B9D6031289
:101F530011694FD90312116968DA03121169AEDAF4
:101F630003121169D8DB0312116900DC0312116932
:101F730003DC031211690DDC0312116929DC03125E
:101F83001169A3DC03121169DCDC0312116908DD9A
:101F9300031211692FDD0312116953DD0312116955
:101FA300C4DD03121169D7DD0312116906DE0312C2
:101FB300116948A40512116954A40512116988A472
:101FC30005121169FA7F00121169B6B20312116981
:101FD300D9B2031211691EB40312116967B4031253
:101FE3001169D3B40312116931B503121169B5D163
:101FF3000412116985B503121169FAB50312116947
:102003007FB60312116982B60312116903B7031273
:1020130011699CDC0212116930BB03121169DABC2D
:10202300031211692ABD03121169B9C003121169A0
:10203300ECC10312116941C303121169DEC3031218
:102043001169C9C4031211692CC70312116913A4BE
:1020530004121169BDA40412116928A5041211699F
:1020630043A504121169C8A50412116922A604121A
:10207300116969A604121169A6DA021211694FA83F
:10208300041211697EA90412116906AA04121169C6
:102093000FAC04121169BCAC0412116992AD0412A5
:1020A30011694DAF04121169E5B00412116978B1D9
:1020B300041211699EB2041211690080031211699E
:1020C300638003121169AB8003121169EF8003125D
:1020D30011694A8103121169A78103121169E2810F
:1020E30003121169648203121169BE82031211691A
:1020F3003C8403121169BC8403121169178503120E
:102103001169318503121169528503121169AC8576
:102113000312116928880312116947880312116990
:102123003789031211696A8A03121169E98A031252
:102133001169258B03121169948B03121169498C60
:1021430003121169218E03121169288F0312116979
:10215300A090031211699692031211690C95031250
:102163001169E69603121169A797031211691F9863
:10217300031211693698031211692D99031211691B
:10218300219A03121169909A0312116907830512A8
:1021930011695E84051211691D8505121169858512
:1021A30005121169EBF90412116906FA0412116997
:1021B3004AFA0412116970FA0412116997FA0412A7
:1021C3001169AFFA0412116951FB0412116966FB1C
:1021D3000412116989FC0412116992FC0412116939
:1021E3009BFC04121169A4FC04121169AEFC0412D5
:1021F30011698DE20412116999E6041211699EE6D0
:1022030004121169A0E604121169B194051211694F
:10221300DC7F0012116910FD041211694C9B051239
:10222300116929A5051211691892051211694AA7A6
:102233000512116944EF04121169E2A5051211692F
:10224300F2A50512116907E70412116935AC0212F0
:10225300116968AC02121169D4AC021211696FAD35
:10226300021211690CAE0212116951AE0212116908
:1022730073AE021211698CAE02121169B2AE021270
:102283001169D4AE0212116912AF0212116956AF6D
:102293000212116978AF02121169DAAF02121169E1
:1022A300A1B00212116958B102121169CAB1021226
:1022B300116995B202121169E8B2021211694EB3A3
:1022C3000212116988B302121169DAB30212116999
:1022D30048B402121169B3B402121169B6B40212FE
:1022E300116937B502121169CEB5021211694EB6E2
:1022F300021211696DB602121169D1B70212116986
:10230300DEB702121169EAB802121169F7B80212B4
:10231300116900B902121169D8BA02121169F2BB2C
:10232300021211696BBC02121169DDBC0212116940
:10233300FFBC0212116993BD0212116967BF021239
:1023430011693EC30212116952C30212116962C3B9
:10235300021211696CC30212116975C30212116969
:102363007EC30212116988C302121169B5C3021236
:102373001169DEC302121169E9C3021211690DC4A6
:102383000212116931C4021211699BC4021211694C
:10239300E1C402121169FEC4021211697BC5021263
:1023A3001169B2C502121169F1C5021211693EC663
:1023B30002121169C4C60212116992C8021211698C
:1023C30015C902121169F9C90212116960CC02120E
:1023D3001169B9CC0212116903CD021211695ECEE3
:1023E3000212116993CE02121169E5CE021211692C
:1023F3009ACF0212116949D00212116986D00212D2
:1024030011691BD10212116987D1021211691F339D
:10241300001211695133001211697F3300121169DF
:102423005535001211693536001211698D360012C7
:102433001169C837001211691438001211693D3B44
:1024430000121169303E00121169803F00121169B8
:102453001640001211692240001211695440001203
:102463001169D741001211698843001211691C4494
:10247300001211695F4400121169DD4400121169F1
:10248300FA44001211692A45001211695F450012CE
:1024930011692F4600121169D846001211695E496D
:1024A300001211697E4A00121169694B0012116909
:1024B300EB4B001211691F50001211695C5000129E
:1024C3001169B45000121169E7500012116951519A
:1024D3000012116987510012116912520012116919
:1024E3006A5200121169415300121169FA53001222
:1024F30011699554001211699D5700121169B95859
:10250300001211695C5C00121169505D00121169BF
:10251300535D00121169825D00121169885F001218
:102523001169616000121169A46000121169FA61F6
:1025330000121169396200121169C2620012116935
:10254300F66200121169BB6300121169D3650012B0
:1025530011694466001211698466001211691267D9
:1025630000121169346800121169F66800121169CA
:10257300FD6A00121169156B00121169296B0012B3
:102583001169616B001211698F6B001211690E6D75
:1025930000121169336E00121169906E00121169F5
:1025A300426F00121169696F0012116930700012D5
:1025B3001169C87000121169EE7200121169237358
:1025C30000121169867300121169B5740012116942
:1025D3005D75001211698E7500121169A6750012DE
:1025E3001169357600121169E97800121169C17A0F
:1025F30000121169DD7A00121169F97A001211696A
:10260300C77B00121169BA7F00121169C2830112DC
:102613001169F48301121169E387011211692F888B
:102623000112116975880112116917890112116963
:10263300738901121169B88901121169FF8A0112A4
:102643001169138C011211690290011211698690AC
:1026530001121169939101121169EF91011211692C
:10266300DF93011211695494011211695E940112EE
:1026730011696B94011211699694011211697D9588
:1026830001121169279601121169A59601121169A8
:10269300C59601121169EE96011211691097011284
:1026A3001169709901121169369A011211697B9AA5
:1026B30001121169F89A01121169A99B011211699A
:1026C300DB9B01121169219C011211695D9C0112AE
:1026D3001169AD9C01121169019D01121169579D88
:1026E30001121169A39D01121169109E0112116952
:1026F3008B9E0112116956A00112116956A1011294
:1027030011697BA201121169BAA501121169CDA841
:10271300011211698AA901121169CEA90112116965
:102723007EAB0112116992AB011211699CAB0112CC
:102733001169A6AB01121169B2AB01121169CEABDB
:102743000112116979AC01121169B8AC0112116956
:10275300C2AC01121169CCAC011211693CAD01127A
:10276300116987AD011211699CAE01121169F8AEAE
:102773000112116979AF0112116938B0011211699F
:1027830041B10112116975B20112116963B30112EA
:1027930011697BB301121169D6B301121169F4B344
:1027A300011211693CB40112116963B40112116978
:1027B300FEB401121169C4B50112116956B60112B2
:1027C3001169D0B601121169EAB70112116997B8FC
:1027D30001121169BFB9011211690FBA011211690E
:1027E30073BA01121169D5BA0112116903BB01123F
:1027F300116927BB011211695CBB011211698DBB01
:1028030001121169C0BB01121169E0BB0112116908
:1028130048BC011211693CBD0112116997BD011237
:102823001169C0BD0112116948BE01121169CBBE05
:1028330001121169F6BE01121169DBBF01121169A0
:1028430040F20312116978F20312116999F203122B
:102853001169DBF2031211693DF30312116947F3A6
:102863000312116957F30312116992F303121169E9
:1028730072F7031211695FF90312116945FB031221
:102883001169DCFB031211697EFC031211692481B7
:1028930002121169A28102121169FE8102121169E9
:1028A3004982021211696482021211698F82021233
:1028B3001169AC8202121169B882021211694F8444
:1028C30002121169688402121169ED8402121169FE
:1028D3000085021211691F8502121169C385021254
:1028E3001169448702121169F788021211698D89EF
:1028F30002121169908902121169008A0212116988
:102903001E8A02121169B58A02121169FD8A021226
:102913001169008B02121169C68B02121169338C83
:1029230002121169598C02121169E48C02121169A5
:10293300028D02121169488D02121169FC8D021277
:102943001169468E02121169758E02121169D28EB7
:1029530002121169078F02121169338F0212116972
:10296300418F021211698E8F02121169FE8F0212BA
:102973001169479002121169939002121169BF9075
:1029830002121169CA9002121169E89002121169C8
:10299300D39102121169DD91021211691892021288
:1029A30011692892021211693192021211698592FA
:1029B30002121169999202121169C89302121169E4
:1029C300DD93021211696B9402121169B094021221
:1029D30011693C9502121169479502121169899692
:1029E30002121169A49602121169F096021211697A
:1029F3005F9702121169989702121169B297021236
:102A03001169F49702121169C49A02121169719B38
:102A130002121169DE9B021211691E9E02121169D4
:102A2300369E02121169399E02121169459E0212E5
:102A33001169599E02121169619E02121169949ED5
:102A430002121169969F021211691DA002121169E7
:102A53008DA0021211690FA102121169D0A10212F5
:102A63001169EFA10212116990A202121169EDA27C
:102A730002121169F0A20212116964A30212116910
:102A8300B3A402121169B9A50212116944A6021274
:102A930011695FA70212116927A80212116958A8C8
:102AA300021211697BA80212116984A8021211692A
:102AB300B3A80212116943A902121169F9A90212FA
:102AC30011696EAA0212116915AB021211698AAB60
:102AD30002121169C1AB02121169FFAB0212116933
:102AE3004BDC0212116981D1041211692AD104123B
:102AF300116998CF04121169EACE04121169E0CE6C
:102B030004121169D6CE041211696FCE0412116931
:102B13005BCE04121169B8CD04121169B8CC04124A
:102B23001169D1CB04121169C1C9041211699ADB6D
:102B33000212116944B703121169CFC80412116953
:102B43006DC80412116976DA02121169CAD9021228
:102B53001169A2B20312116998B2031211692DB25D
:102B63000312116961B0031211691FB003121169D5
:102B730023AF03121169F7AE03121169AEAE03124C
:102B83001169EFAD03121169F2AA03121169C7A803
:102B9300031211696EA80312116901A803121169C6
:102BA300C0A703121169F9A60312116993A60312B0
:102BB300116932A603121169D2A503121169A9A4DE
:102BC300031211693DA40312116995A3031211693C
:102BD30090A30312116984A303121169B79F03120F
:102BE300116963D7021211691AD4021211696ED3E3
:102BF30002121169DCD20212116996D20212116912
:102C030061D2021211692ED202121169919F03122D
:102C130011692F9F03121169D19E031211698F9EAF
:102C23000312116919D2021211697C9E03121169F0
:102C3300719E03121169409E03121169309C0312A5
:102C4300116906DB02121169A39B03121169D0A655
:102C5300041211695F9B03121169339B03121169FB
:102C630063BE0412116936BE0412116903BE041255
:102C73001169DBBD041211697CBD041211695CBDCD
:102C83000412116927BD04121169D3B90412116921
:102C9300BBB704121169A5B50412116925B5041255
:102CA3001169D1B404121169DDB304121169EED1B3
:102CB3000212116985B40412116934B503000000CE
:102CC30080FB000022E4738F0001006E188700016F
:102CD300006C183500040035182500020039182649
:102CE3000002003B18270002003D1828000100479E
:102CF30018290001004818840004005315860001B8
:102D03000073172A00010049182B0001004A182CF0
:102D13000001004E182D0008005F152E0001004F22
:102D2300182F000100501830000100511831000124
:102D33000052183200010067153300010068153492
:102D430000010053183600010069153800010054D2
:102D530018390001004D18830002006A186300014E
:102D6300007515640001004B18650001004C186DD7
:102D7300000100761571000800571566000100690F
:102D830018430001005A18440002005B1845000173
:102D9300005D18460002005E18470008006D1548E4
:102DA30000010060184B0001006118040001006D70
:102DB30018A1000100711837000100701888000184
:102DC300006F183C0001006A153D000100551849C9
:102DD30000020062186700010077154D00020064CD
:102DE300184E00010066184F00020067183E0001EC
:102DF300005918510001006B155200010057185378
:102E03000001005818540001006C15000000000078
:102E130000000000002001BD83000001002001BC70
:102E230083000002002001BF83000003002001BED5
:102E33008300000400420148820000050042018231
:102E4300810000060042010F82000007003001C12B
:102E5300830000004042018A820000FEFF2101BA84
:102E63008303000000212348140300FEFF2101BA5D
:102E730083020400002905FF17020410022923EF2F
:102E8300170304000029050518030410002905078A
:102E9300180304140028010918030410022B23F15A
:102EA300170504000021050318050410022923F562
:102EB300170D0400003905F9170D0402021023E66B
:102EC300170D0403021023E5170D0404022123E761
:102ED300170D0405022123E9170D0411F11023F73F
:102EE300172B04000039050C182B0410022823F8B3
:102EF300172B0404022123EB172B0405022123EDD6
:102F0300170001363601010001020100010301002F
:102F13000104010606050200000701003408010050
:102F23000F090401010D0100FF0E08000017020044
:102F330000190100FF1A0100011B0100FE1C010022
:102F4300081D0200001F01000120010001210200F1
:102F5300002301000F2402000026010001270100C5
:102F630008280200FF2A0100072B0102402C010060
:102F7300002D0100012E0100012F0100FF30010B84
:102F83001D310800003A0100083B01000F3C01001D
:102F9300013D0100FF3E040000420400004604001E
:102FA300004A0400004E04000052040000560400CE
:102FB300005A04000001037103010301030103012B
:102FC30003010322030203010310030003000300B0
:102FD300030003000300030003420300032403066A
:102FE3000300030003040312032503230325032320
:102FF300030403040300030003000344030003006A
:103003000323030003650321003503810300030544
:1030130003000300030003000325032303010171DD
:1030230001010101011101010131010101010180CE
:1030330001100161013B001400630173017201621D
:103043000143010001130106013D01350004011292
:1030530001000100010001000104010401330133F7
:10306300013C014401320136000001000165010009
:103073000135008101000105018201830100010383
:103083000071003001600011007000310220035014
:1030930004800010006100000014006300730072DC
:1030A300006200430000001300060000000000045B
:1030B30000120000000000000000000400040037BC
:1030C3000037003C024400000000000000000065DF
:1030D30000000035008100000005000000830000AF
:1030E3000003027102300160021102700201020248
:1030F3000202028002100261023A0041006302737D
:10310300027202620243020002130238000002004C
:10311300020402120200020002000200020402047E
:1031230002370037003C024402000239000002006B
:103133000265020002350281020002050282028357
:1031430002000236000100060000000F000000002C
:1031530000000000000000000003FFFF0000040364
:10316300FFFF0000FFFF0FF4010005C4040320006C
:103173000100000B000000000000000003010F002D
:10318300000000000000000000000000000000003C
:10319300000000000000000000000000000000002C
:1031A30000961DDE1D9C1DA61CA21DE41DA21DF084
:1031B3001DA81DA61CA21DE41DAE1DA61C0000001B
:1031C30000B41DA61C0000000000000000BA1DA6EC
:1031D3001CC01DF61DC61DA61C000000000000003B
:1031E3000000000000CC1D081ED21DA61CCC1D082B
:1031F3001ED21DA61CC01DF61DD81DA61C00004E08
:103203002C01004E2C0200BA2C0280E81F0300F4AC
:103213001F0400FA1F048000200500062006003466
:103223002B3100242033002A2034003020FFFF00FC
:103233000007ECFDFDFDECDCDCCCBCACAC9C9C8C59
:103243007C7C6C6C5C5C5C4C4C3C3C2C2C1C1C0AED
:103253008426024E26055A260754260C36260D428E
:1032630026FF000000160F00000B150B02000222C0
:103273000F3300000E0F5A6967426565416C6C6934
:10328300616E63653039D0D1D2D3D4D5D6D7D8D9EE
:10329300DADBDCDDDEDF150AF4D4C0A595827263C8
:1032A3006155504900034D4C4651181A250502003B
:1032B3000119161816161823030030301618192092
:1032C300231A1C1E30303017181921301B1D1F30D4
:1032D300003C40423A3F3F392F47300C0E020B046B
:1032E3000B0A0708000F0204020101010109020091
:1032F300BE040AE8030000E8030100F6FB99320369
:10330300003432100004030A0C0405040A031402F7
:10331300180A1E1015FF00FF041E051EC082C0837D
:103323001215749015A27426F0A37424F09015A4BA
:10333300742CF0A37424F09015A67432F0A37424B3
:10334300F09015A87438F0A37424F002605A74F74F
:10335300120BC1901596E4F0E9901595F07C6D7D04
:10336300157A977B15121C64901860E090159FF0F6
:103373009015A07457F0A374150242E774F0120B72
:10338300C1EAFEEBFF548070030234F090159512EE
:10339300437C70030234E9EA241B125BE7707CEA86
:1033A300241F125BE764137002A3E0706E8A828BA2
:1033B3008312353E9015B0125179750A00750B00D2
:1033C300800D1241BD127259121B7AAA0EAB0FEA7D
:1033D3004B60488A828B83E0650C7004A3E0650D23
:1033E300702C8A828B83A3A3A3A3E0F50EA3E0F53D
:1033F3000FE50A450B8A828B83A3A3A3A360C312A1
:1034030044BF850A82850B83A3A3A3A380B78A0A3B
:103413008B0B8A828B8312517580B4E508242A12A0
:103423005BE7FCE5082402F8E43509F9E8FAE9FB6F
:103433009015B0123625A3A3E06402703C8A828BF8
:1034430083125179800B88828983A3A3A3A3124497
:10345300BFE849601F88828983E06A7003A3E06B39
:1034630070E488828983A3A3E06C70DA90186612F3
:103473005F17806BECF9122462850882850983E06B
:103483006401704FE50824181235271211C0126821
:1034930001120F93E50824121235271211C0E50813
:1034A3001243701211BCE508240B126805120F9722
:1034B300E508241712430DE5082402FCE43509FD51
:1034C300E5082419FAE43509FB122C96740A121143
:1034D30099800CE064027007AA08AB09122540AA80
:1034E30008AB09121AE4EEFAEF6480802DEA540265
:1034F300600C9018C57401F0EA6402FA8023EA5460
:1035030008601A12245CEA4B700B9015B21266DC49
:103513007A08123534EE6408FAEFFB80047A007BF4
:1035230000026E8BF582E43509F583E0F50A780A2B
:1035330022FB901595E0F9121C3A22A3A3E0F50CA7
:10354300A3E0F50D227B00901595E0F9121C2E7473
:10355300042274F4120BC18A088B098A828B83A319
:10356300A3A3124F7112431838F583E02409FA120A
:103573006E2370030236188A828B837402124FE61D
:10358300850882850983123625E8F0A3E9126A9D2E
:103593008A828B83A3A3A3A3A3A3A3A3F0E50824F5
:1035A30003F8E4350912361A1243183AF583E08E0C
:1035B300828B83A3A3A3A3F0EE2409FAE43FFB8E3B
:1035C300828F83A3A31261C9F5838882E0A2E58E6B
:1035D300828F83A3A3A3A3A3500474018001E4F007
:1035E300E5082403F5828983125179EA1256FA3BDE
:1035F300F583126DEA1211B81243173B1262BB8EA8
:10360300828F83A3A3127F99121199EEFAEFFB9095
:103613001595126E708016F98882F583E0FAA3E09F
:10362300CA22125316A3A32274021211997F040211
:103633000F0E74F2120BC18A088B09ECFAEDFB74BE
:103643000E1214DDE0FC1215AA8A0C8B0DAE0CAF22
:103653000DEA4F6030AC08AD09121598E96026AC4D
:1036630008AD09EEFAEFFB12159EE970148E828FF6
:10367300831244ACFAEFFB121592AA08AB09121598
:10368300C27900800279B402526574F0120BC174DE
:10369300F612124CEAFEEBFF8C088D09750FB38509
:1036A3002182852283E4F0750E008002050E90339B
:1036B3000FE493F8E50EC39840030237B4AA0E7BD8
:1036C300001215E68A0A8B0BEA4B60E08A828B8331
:1036D300A3A31237BB28F0F8C3EE98EF940050CCA5
:1036E3007C157D007900AA08AB09121ACC850A82E1
:1036F300850B83A3A3A3A3127296E0F8EEC39829C4
:1037030025E0F8E433F9E50A28F582E50B39F5837A
:10371300A3A3A3A3A3A3124322A3125D3E8A0C8BEC
:103723000DAC0CAD0DAA08AB09121C64850A828589
:103733000B83A3E06401700A12680174011243341D
:103743008044740112122C850A82850B83125177EF
:103753001215CEE9603D74091214DDE0C0E0126871
:1037630001D0E0F074091214DDE0640370137401F6
:1037730012122CE508240BFAE43509FB121C6480B1
:103783001274011214DD1244BFE508125D243509D9
:10379300127257850A82850B8312680D124334A374
:1037A300A3E0C0E0E5082414126805D0E0F0750F2B
:1037B30000A90F740A026E88A3A3A3E0F8852182EF
:1037C300852283E02274F7120BC1E9FE8A828B8380
:1037D300A3A3A3A3A3A3E0540860338A828B83A388
:1037E300A3A3A3A3A3E0540260218A828B83A3A390
:1037F300A3A3A3A3A3A3A3E06406600F74E96E606D
:103803000A74CD6E600574F06E7003122444024B8B
:103813006474F0120BC174EF12124C740F1214DDA6
:103823001265C074081214DDE9F0ECFEEDFF7405B7
:103833001214DD12492C124B50A3E0F91215B67481
:10384300061214DD1265C074061214DD12578B7054
:1038530003023ACF12435CE0FA74061214DDE0F976
:10386300122384123B2FF8A3E0F9E8497003023ACC
:10387300CFEE2403F50AE43FF50BEE2406F508E446
:103883003FF5097C00850882F583125179850A8208
:10389300850B83E0F91215BC74031214DD1265C0A5
:1038A300850A82850B83E0C0E0852182852283120D
:1038B3003B28D0E01258A0F985218285228312414A
:1038C300C41253F21237BEFAA3E0CA2407F582E406
:1038D3003AF583E8F0A3E41265CB2406F582E438D5
:1038E300F583E4127263124F651211B8EE12431896
:1038F3003F1262BB74031214DD124F712409127F4D
:103903009312119974291214DD12729012361F1238
:1039130058B33A127257742B1214DDE0C0E08521BC
:1039230082852283125752D0E0F074021214DDE430
:10393300F074251214DD780812146A023A2674030F
:103943001214DD1262838882F583123B17A3A3A3AB
:10395300125D49FB1215D4850E82850F83A3EAF00D
:10396300A3EBF074031214DD123B28A3123B1712CE
:103973005F58A2E6500F850E82850F83A3A3A3A3EE
:10398300A3E0D2E1F074051214DDE0706B850E82C2
:10399300850F83A31244BF9015F0E0687003A3E082
:1039A300697055850E82850F83A3A3A31242F77511
:1039B3000C00780C1211C078081211B47429121477
:1039C300DDE0F50C780C1211C074271214DD120F10
:1039D300979015FD120F97790074191214DD125187
:1039E30049122588740A121199850E82850F83A3C3
:1039F300A3A3A3A3E04405F074021214DDE004FCC6
:103A03008E828F831251738E828F83A3A3A3E0F9D7
:103A13001215BC74031214DD1265C074021214DD96
:103A2300E004F074031214DD12578B606774021202
:103A330014DDE0FA74061214DD1244BFC3EA98E4FD
:103A430099505174021214DD123E018521828522A0
:103A530083E028F8A3E039F9E8240FF50EE439F5FB
:103A63000F850E82F583E4F074031214DD123B22FA
:103A73006401600302394174051214DD7401126E8E
:103A830076F074031214DD12604A123E24E8F0A3A8
:103A9300E902396585218285228312517912238AAD
:103AA300852182852283120F9774261214DDE0FD8F
:103AB30074251214DDE0FC740A1214DDE0F9EEFA49
:103AC300EFFB12243E740212119980438E828F837E
:103AD300A3A3A3E0C0E0740C1214DDD0E0F0126CD9
:103AE300DFE0C0E0740D1214DDD0E0F074061214B0
:103AF300DD12578B7009740E1214DD74B9800774CC
:103B03000E1214DD7410F07409121224122582743B
:103B130011026E88E0850E82850F83A3A3A322E0A2
:103B2300125878E022E0125878A3A32285218285D7
:103B33002283EAF0A3EB1257942274F0120BC174A0
:103B4300E112124C74041214DDE9F074031214DD53
:103B5300ECF074021214DDEDF08A0E8B0F742F1249
:103B630014DD123540AA0CFB12237874011214DD04
:103B7300E9F0AA0CAB0D12237E74011214DDE07080
:103B830003023DFC852182852283E480158E828F8A
:103B930083A3A3A3A3A3E0D2E3F085218285228399
:103BA300E004126DCEF8852182852283E0C398401C
:103BB30003023DF374011214DDE07003023DF3854B
:103BC3002182852283123E01E50C28F8E50D39F99F
:103BD300E8240FFEE439FF8E82F583A3A3A3A3A3F6
:103BE300E0A2E040B5750800750A08750B00740281
:103BF3001214DDE060037508207C087D00790074F1
:103C030005121224121ACC8E828F83E0603E901626
:103C130040E06401701AE508D2E3F508750B101251
:103C23003E111214DDE8F0A3E9125C3C74FF8076C8
:103C330043080C750A0C8E828F83A3123E1C1272EA
:103C43005974051214DD74FFF0A3805A740412141E
:103C5300DDE06009E508D2E6F508750A0A8E828F71
:103C630083A3E064FE7003A3E0F4703074121214B3
:103C7300DD740412682BF8741D1214DDE8124FE68C
:103C830074121212241222A67D007C00790074158E
:103C93001214DDAA82AB83122060800B123E111234
:103CA30014DDE8F0A3E9F074071214DDE508F0125F
:103CB3004353C0E074091214DDD0E0F0740A121407
:103CC300DD7401F0740512122412254674111214C6
:103CD300DDE06003023DD1740D1214DD12589B8E9A
:103CE300828F83A3A3A3A3F0740D1214DD124FB428
:103CF300E50AF0A3E50BF074031214DDE0C0E01253
:103D03004F45D0E0125F586011901640E0C0E07458
:103D13000D1214DD124F8FD0E0F0740D1214DD126A
:103D230044BF850C82850D83A3A3A3A3A3123E0ADC
:103D3300241C1265BA127273123E0C125F0A3912F6
:103D43006CFEC0E0124F2CD0E0126DC3C0E0740DC6
:103D53001214DD124A72D0E0126AC4C0E0740D126C
:103D630014DD124A68D0E0F0740D1214DD123E1C0B
:103D7300123E0A242A1265BA850E82850F83A3A3F5
:103D8300A3A3A3A3A3A3E01265B3124342C0E0120B
:103D93004A54D0E0F0740D1214DD125179850E826D
:103DA300850F83126DD92428F582E43B12725712D2
:103DB300434B126DEA1211B81262B4EA12654C3B1E
:103DC300127F97121199740512122412254C8E82B8
:103DD3008F83A3A3A3A3A3E0D2E0F074111214DD95
:103DE300E06003023B9074011214DDE014023B9C7B
:103DF3007900AA0CAB0D12244A741F026E88E07579
:103E0300F007A4F8A9F022A3A312517DE8228E8221
:103E13008F83A31244C3740522E0123E24A3A3A3F9
:103E230022F8A3E0F9850E82850F83A32274F01292
:103E33000BC174E812124CE9852182852283F08A32
:103E43000E8B0F8A828B83A3A3A3A3A3A3A3A3E0B5
:103E5300F91223A28A088B09EA4B7003023F0DE58E
:103E63000E12570E12436B12430285218285228361
:103E7300E06003023F107C04850E82850F83A3A3B9
:103E8300A3A3A3A3A3A3E0F91223A8EE4F607B8E01
:103E9300828F83A3A3A3A31244BF74071214DD125A
:103EA30066F11244BF74091214DD125016C0E07497
:103EB300111214DDD0E0126AA2A3A3A3A3A3A3A3A8
:103EC3001244BF740F1214DD12725974121214DDEE
:103ED300E4126E7EC8241FF582E438F58312627FF4
:103EE300C413135403FC70027C048E828F83E0F9A5
:103EF30078081211BC742059FD744059F9740312E7
:103F0300122412243E7402121199026E867C0885D3
:103F13000E82850F83A3A3A3A3A3A3A3A3E0F912F4
:103F230023A88B0BEA4B7003023E8EEE4F60DB85BA
:103F33002182852283E0F50C780C1211C08508825A
:103F4300850983A3A3A3A3A3A3A3E0F50C780C1271
:103F530011C08A828B83A3A3A3E0FB8A82850B8390
:103F6300127AB68A82850B83E0FA8E828F83A3A3AB
:103F7300E0F9122C9C7402121199023E9274F7120A
:103F83000BC174FA12124CE9FE780179017F0080AB
:103F93000379000F1252F5E0FCEFC39C5026EF7536
:103FA300F007A4FC85F008AD08EA2CFCEB3DFD12FC
:103FB30048E4E0A2E050DA540C60D6E0A2E250D329
:103FC300780080CF8A828B83A3A3A3A3A3A3E070EB
:103FD3003DE9A2E0400574016E70338A828B83A3AE
:103FE300A3A3A3A3A374011242D4E0C0E0740312F9
:103FF30014DDD0E0124943E0C0E074041214DDD0B4
:10400300E0F074051214DDE812621E1225827406B4
:10401300024B61C082C083790112244A02605A7440
:10402300F4120BC1EA4B9018C56019E4F08A088BAF
:1040330009F50AF50B78081211B47A021235481201
:104043001199800A7401F07A027B00123535023629
:104053003074F0120BC174F312124C74031214DD9A
:10406300E4F0A3F09015B012430274011214DDE4DE
:10407300F0A3124FEB04F09015EAE0A2E350030221
:1040830041471242C874091214DD1214AE740912A6
:1040930014DD780812146A9015B278081212347479
:1040A300051214DD780812144C1241CB7405121456
:1040B300DD780812140D50077A017B000241B874B1
:1040C300051214DD780C12146A901865E0F509786E
:1040D3000C7908120B52A80CA90D901866E0C3982E
:1040E300E4995003E08001E8852182852283F074FE
:1040F300091214DD780812146AC008C009C00AC086
:104103000B74051214DD780C12146A1241CB780C6F
:104113007908120B52E4F50AF50BD00FD00ED00D2F
:10412300D00C780C79081212F49015B2780C121492
:104133004C80111241BD127259EEFAEFFB121B7A39
:10414300AE08AF09EE4F60658E828F831237BBC313
:1041530098502DEE2403F8E43FF9E0FA888289832E
:10416300E0C39AF0602374031214DD124625740130
:104173001214DDEEF0A3EF12670CFEA3E0FF80C480
:104183008E828F83A3A3A3E4F08E828F83127F504A
:1041930074011214DD12578B8E828F83A3A3A3A302
:1041A30060911266E51214DD1241C4808974031212
:1041B30014DD125179740D026E881244C39015B048
:1041C300221262AAA3A3A322901864127F58E4F5D3
:1041D3000AF50B2274F0120BC18A088B09890A783D
:1041E3000079009015B0124302FBEE4B601E088E5F
:1041F300828F83A3A3A3A3125143601008E8700125
:10420300098E828F831242FEEA4F70E39018671281
:104213005179C3E89AE99B40030242BB7A061242F2
:10422300BEA80CA90DEA4970030242BB8A828B83A4
:10423300E508F0A3E5091242DDE50AF090186612DD
:1042430052FD1242D4A3E4F0A3F09015B0125143EF
:10425300600D8E828F83A3A3A3A31272598017903C
:1042630015B01272599015EAE0A2E340091242C850
:104273009015B21214AE9015EAE0A2E3503A7A0810
:104283007B00901595E0F9121C40EA4B4C4D7028C9
:10429300901864E0F508A3E085080CF50DE4F50E2D
:1042A300F50F780C1211B47A087B00901595E0F99C
:1042B300121C347404121199026E8B7B00121B744E
:1042C3008A0C8B0D22121C4CEAF8EBF9ECFAEDFB8D
:1042D300221242D8221242DDA322F08A828B83A3C8
:1042E300A322E508F0024B64F08E828F83A3A3A37D
:1042F300A3A3A322125BF5A3A3F022A3A3A3A3E08A
:10430300FEA3E0FF227F05020F0EF582E43509F5D7
:1043130083E0F922EA12431C222410F582E42212DC
:10432300432AA3A3A3A3221244C785088285098332
:104333002212433822F0850A82850B83A3A322E548
:104343000E2411124368E022E50E240E1243682264
:10435300E50E2410124368E02212436022EE12435A
:104363001C3FF58322F582E4350FF58322240FF5F4
:104373000AE43509F50B780A22E0F9121AF68A08DD
:104383008B09EA4B2274F2120BC1890B8A088B0941
:104393008A828B8312517912246EEA4B600479B8B6
:1043A300806A12247AE9F8903308E493F9E8C39910
:1043B300400479B280567A151242BEAE0CAF0DEAB4
:1043C3004F7004791080458A828B83E4F0A31242F4
:1043D300DDE50BF0750A0078081211B87C127D0038
:1043E300EA2403126D951211999015B612578B702A
:1043F300089015B6800C1244BF8882898312441238
:1044030070F4EEF0A3EFF012248C790002526512DF
:10441300517DEA4B8882898322C082C0839015B67E
:1044230080048C828D83127AB7EC4D60288C828D48
:1044330083A3A3E069600574FF6970E68C828D83B2
:10444300A3A3A3E06A7003A3E06B70D6EC2403FA82
:10445300E43DFB80047A007B0002605A74F7120B80
:10446300C1E9FD74FE6D70047C0180027C0090152F
:10447300B680096D70027C018882898312578B6034
:104483001F88828983A3A3A3E06A7003A3E06B70F0
:10449300E7ECA2E088828983A3A3E050D6F98002E7
:1044A30079FE024B64EEF9800CA3A3127F58EE222F
:1044B30074021211997F02020F0EF5831244C32274
:1044C3001244C722E0F8A3E0F9221244C78E828F78
:1044D30083221211997F03020F0EC082C0837900D9
:1044E3009015B6800109E0FAA3E08A82F583E5829C
:1044F300458370F102605A74F6120BC1E4F508F5B6
:104503000978081211BC903308E49375F013A4A939
:10451300F012461A1272B7121199E9FE74096E70FD
:10452300031224860244A874F6120BC174FE1212FD
:104533004C852182852283E4F0A3F0A821A9228857
:1045430008890978081211BC7508027509007808F2
:104553001211BC126F281211990244B374F5120B95
:10456300C174EB12124C852182852283E4F0A3F0FF
:104573009015B680748E828F83A3A3E0C0E074028B
:104583001214DDD0E0125C3CA982AA8389088A094F
:10459300750A0078081211B87C127D007406121493
:1045A300DD12727C121199740212121C8808890997
:1045B30078081211BC75081375090078081211BC2C
:1045C30074041214DD12572E75F013A4F8AAF075B3
:1045D300F013E9124616126F301211998521828564
:1045E30022831246258E828F83124302EE4F7085FB
:1045F300A821A9228808890978081211BC75080224
:1046030075090078081211BC126F281211997415DC
:104613000244D5A42AF9E82402FCE439FD7A427B5A
:104623000022E02401F0A3E03400F02274F4120B22
:10463300C174EB12124C7E007F00A821A9228808C6
:10464300890978081211BC7508028E0978081211BD
:10465300BC7C007D007A421272C3121199E9706C1E
:104663008E088056740212121C880A890B780A126B
:1046730011BC750A13750B00780A1211BCE5087595
:10468300F013A4F8AAF075F013E509124616127296
:10469300C5121199E9701B74031214DDAA82AB834E
:1046A30074021214DDE0F9122468E970050EEE704D
:1046B300010F0508E508700205098521828522831B
:1046C3001244BFC3E50898E509994098EEFAEFFB59
:1046D300741502362D74F6120BC18C828D83A3A33D
:1046E300124931F0EA1265523BF583E0C0E012480B
:1046F300EED0E0F0EA241DF582E43B1244BD1248FB
:10470300D212492CF0A3F0EA241FF582E43BF5838F
:10471300124302EC1248C53DF583EEF0A3EFF0120D
:1047230048CB3BF5831248FCA3A3A3A3A3A3EEF0BA
:10473300A3EF1261ADFE8C828D8312493B74035E3D
:10474300FEC3940340030248B8EE600874026E602F
:10475300030247DD8C828D83E0540CFE740C6E7073
:104763000302481CE0A2E4400D88828983E08C8226
:104773008D83A312495174086E600302481C1248CA
:10478300DC7401F08A828B83A3A3A3A3A3125C022C
:1047930070148C828D83E0440C124943A3A3124806
:1047A300FCEEF0A3EFF08C828D83E0A2E4402B8833
:1047B3008212490A12491F500109F58212490AA3BC
:1047C300A3A3A3A3A3F0A3EF12494B8C828D83A3CE
:1047D300A3A3F0E82403F850010988828983E0C089
:1047E300E0EC2411F582E43DF583D0E012493B8CE3
:1047F300828D83E0A2E7507588828983E0FE8C82F4
:104803008D8312495174FC5E700C8C828D83A3E0FE
:1048130054036403701E0248B81248DCE4F0740CBD
:104823006E6003024787888212491012491F5001A4
:10483300090247A98C828D83A3E0540360328882E6
:104843008983E0C0E0EC1248F63DF583D0E01249DD
:10485300528C828D83E054036402701488828983AE
:10486300E0C0E01248E4D0E01249528003A3E4F030
:10487300EC1256FA3D127257EC2410FEE43DFFEAA7
:10488300241DF582E43BF583E0F5088E828F83E0F7
:10489300C3982508F508F0EA2417F8E43BF9888261
:1048A300F583E0C39508C0E01248D2D0E01261ADB1
:1048B300C39508500A1248D2E4F01248EEE4F0021D
:1048C30044B82415F582E422EA240DF582E422ECAF
:1048D300240DF582E43DF58322EC1258B33DF583B4
:1048E30022EC2414F582E43DF58322EC12431C3DB3
:1048F300F583222413F582E422E0FEA3E0FF8C82F9
:104903008D83A3A3A3A322124910A3A3228983E027
:10491300F508A3E0FFE5088C828D8322A3A3A3A35C
:10492300F0A3EFF0E82402F822124931A322E4F0C5
:104933008C828D83A3A3A322124959A882A983221F
:104943001242D8A3A3A3A322124959A3E022A3127C
:10495300495908A983221261B6A32274F4120BC128
:1049630074F312124C8A0A8B0BECFEEDFF8C82F56A
:1049730083E0540CF508E0A2E75006E508D2E7F51A
:1049830008E508D2E1F508125C027006E508D2E4F6
:10499300F508E0A2E55006E508D2E5F5087C087DB8
:1049A300007900AA21AB22121ACC74021214DDE59D
:1049B3000812725DC0E074031214DDD0E0124FEBF5
:1049C300E50AF0A3E50BF074051214DD126AC912AF
:1049D30014DDE0707774081214DD124F7112619FB9
:1049E30038126AE4C0E074081214DD124A72D0E08F
:1049F300126AC4C0E074081214DD124A68D0E0F0F1
:104A030074081214DD124A5EE0124F9912501A1202
:104A130065B3EE2411125BCEC0E0124A54D0E0F02D
:104A2300EE2414125BCEC0E074081214DD124F7131
:104A33002435F582E438F583D0E0124FBEC0E0742C
:104A4300081214DD124F75D0E012681D740D023682
:104A53002DE82432F582E439F583221244CDA3A351
:104A6300A3A3A3A322124F85126CC338F58322128A
:104A73004F852426F582E438F5832274F7120BC19F
:104A83007E008A828B83A3A3A3A3A3A3A3A3A3E0F0
:104A930064046003024B401258ABE06003024B40D6
:104AA30012570D3B1257897003024B40888289834A
:104AB300E054036003024B40E81258B339F583E036
:104AC300FA8C828D83A3A3E0FBA3E0CB2411F582B0
:104AD300E43BF583E06A706588828983A3A3A3A37B
:104AE300A3A3A3A3A3124B44E06A7003A3E06B70D8
:104AF3004C88828983A3A3124B50E0FFA3E0CF2409
:104B030006125BCE6A7003A3E06B703188828983DF
:104B1300A3A3E0F88C828D83A3A3E0F9A3E0F5833C
:104B23008982A3A3E06860138C828D83A3A3A3E08F
:104B3300F5838982E0540C640470027E01EEF980EF
:104B430020124B48221251818C828D8322A3A312FF
:104B53004B48A3A322740C1214DDE0F9740D121157
:104B6300997F01020F0E74F6120BC174FC12124CE2
:104B7300EAFEEBFFECFAEDFB8C82F583A3E0540332
:104B830060169015AC12578B60597900EEFCEFFD5F
:104B93001263AA122CC8804B852182852283EEF0F2
:104BA300A3EFF074021214DD124FE0AC21AD227AB0
:104BB300A47B241226CC8A088B09A808A909EA49F0
:104BC30060218A828B83A3A3A3A3A3A3A3A3A37418
:104BD30006F07A0088828B83124F71126573E0F9B5
:104BE30012262A74040244B574F2120BC174F31230
:104BF300124CEAFEEBFF8A82F583A3A3A3A3A3A32C
:104C0300A3A3A3A3E0F50A9018C5E0700579BA023F
:104C13004F29750801750900750C00750D007C0896
:104C23007D007900AA21AB22121ACC74051214DD7F
:104C33007401124FF35404601274021214DDE0D2B3
:104C4300E6124FF354087003750803E0541060062E
:104C530074404508F508E05408602274021214DD1C
:104C6300E044C0124FF35420600A74031214DDE0D1
:104C7300D2E0800874031214DDE0D2E1F0EE2415D3
:104C8300125BCE124F5970037401697006740845A4
:104C930008F5088E828F83A3A3A3A3A3A3A3A3E0F2
:104CA30070161227268521828522831265C074021D
:104CB3001214DDE0D2E28030640F7010740212141B
:104CC300DD124FFB74044508F508807F8E828F83C5
:104CD300A3A3A3A3A3A3A3A3E064028E828F8370E1
:104CE3000A127290E8F0A3E9F08060A3A3A3A3A340
:104CF300A3A3A3E06403700DAC21AD22EEFAEFFB96
:104D03001224DA80468E828F83A3A3A3A3A3A3A333
:104D1300A3E064017035901640E060107402121431
:104D2300DD124FFB750910750AFF80187402121407
:104D3300DDE0440C124FEB74FDF0A374FFF0740438
:104D43004508F5088E828F83123540EE2415125BD9
:104D5300CEA2E0503F74021214DDE0540C701B8E9F
:104D6300828F83125179122126E9700579BB024F94
:104D73002974021214DDE0D2E5F0EE2415125BCEA5
:104D8300A2E0501074021214DDE0540C64047004A9
:104D9300E0D2E5F0EE2411125BCEC0E074041214ED
:104DA300DDD0E0126ACB1214DDE06003024F2274FF
:104DB300081214DD124FB4E508F0A3E509F0124F11
:104DC3004FE0C0E0124F45D0E0F0124F36E0C0E0B4
:104DD30074081214DD124F711248F638F583D0E0CF
:104DE30012501A64017011901640E0C0E07408126A
:104DF30014DD124F8FD0E0F074081214DD124FAFA0
:104E0300124F40FAE8241CF582E439F583EA124F85
:104E1300E6EE2415FAE43FFB8A82F583127AB7E8BB
:104E2300125F0A39F583124FE0EE241C125BCEC0E9
:104E3300E0124F2CD0E0126050124F5970037401EE
:104E430069701374081214DD12589BFAEE241D12B4
:104E53005BCEF91223AE8E828F83A3A3A3A3A3A356
:104E6300A3A3A3E0C0E074081214DD124A72D0E0D9
:104E7300F074081214DD124A68E50AF0740812147B
:104E8300DD12572E2428F582E439F583E50CF0A3CF
:104E9300E50D124FC6124F99125C471265B3EE121D
:104EA3004F40C0E0E82433F582E439F583D0E0F0E5
:104EB300EE241B125BCEC0E074081214DD124F7592
:104EC300D0E0F0EE241A125BCEC0E074081214DDB9
:104ED300124F712432F582E438F583D0E0124FBECD
:104EE300124F651211B8126CC9127AB7740B1214EF
:104EF300DD124F71242F127F93121199EE24151294
:104F03005BCE544060129015CC12578B600AAA21D5
:104F1300AB221263AA122CC8AA21AB2212254C740D
:104F23000C1214DDE0F9025260E82420F582E43922
:104F3300F58322EE2419F582E43FF58322126CD81F
:104F4300E022E82412F582E439F58322EE2418F5F1
:104F530082E43FF583225480F8A3E05401F974807E
:104F63006822F508A3E0F509750A00780822124FB4
:104F73008522124F852434F582E438F58322A3A3D6
:104F8300A3A3124F8922E0F8A3E0C822124F85128F
:104F930048C538F58322FAA3E0FBE8242AF582E426
:104FA30039F583EAF0A3EB22A3A3A3A31244C3EE30
:104FB3002212573212571239F58322F0EE241312BC
:104FC3005C4F22F0EE240D125C4F22E0FC8A828BB0
:104FD30083E02CFCA3E03400FD8A828B83ECF0A3F6
:104FE300EDF022F0A3E4F022F085218285228322D2
:104FF300F0EE2415125C4F22E0D2E3F012500322AC
:105003008E828F831244C7852182852283E8F0A391
:10501300E9F022E8F0A3E9126706E02274F7120B25
:10502300C18A828B83A3E0640170047E6380027E65
:10503300648A828B83E06008790512505324F3FE5F
:105043009015E8E06007F912505324F2FE024B403A
:105053001225F4E9F8EEC3982274F6120BC174FE1C
:1050630012124C8521828522831265C0E9FEECFA77
:10507300EDFB9005C212578B6032A821A922880844
:10508300890978081211BC7D01740E1214DDE0FC4D
:10509300EEF99005C2126594122CC874021211998C
:1050A300EA4B60047900800679B2800279B6024443
:1050B300B374F7120BC1E9FE9015A212578B601F50
:1050C30074091214DDE0F50878081211C0EEF990A6
:1050D30015A2126594122CC87401121199800279D9
:1050E300B6024B6474F7120BC18908ECFEEDFF792D
:1050F300B5E508245E602014600624F86034803D22
:105103009005C412514360351272D4122CC88E829A
:105113008F831265C080249015A4127AB7EC4D607A
:105123001CEEFCEFFD9015A4126594122CC8E9F94E
:10513300800B9015A0125149121C647900024B6434
:1051430012517DEA4B22127ABBEEFAEFFB2274F77F
:10515300120BC1E9FE79B574AB6E700B9015A012FA
:105163005179121C647900024B648E828F83A3A34E
:10517300A3A3A3A3A3A312517D2212518122E0FA78
:10518300A3E0FB2274F1120BC1EAFEEBFF8C0A8D44
:105193000B7508019015F0E06E7003A3E06F700CBF
:1051A300125254AA0AAB0B121C64805E12272CEE17
:1051B3006A7002EF6B7009AA0AAB0B122732804A9E
:1051C300AC0AAD0BEEFAEFFB122282E9F508901858
:1051D3006CE07036122BD0E97030E508702C901516
:1051E300C0E06E7003A3E06F7020EE4F601C750C7F
:1051F300B8750D15750E00780C1211B87C087D007A
:10520300AA0AAB0B127280121199A908027BB3741C
:10521300F2120BC1EAFEEBFF8C088D09750A01122D
:105223005254EEFAEFFB121C5EE964017011901503
:10523300F01244BF850882850983127259800EAC2F
:1052430008AD09EEFAEFFB122288E9F50AA90A80F4
:10525300111227208A0C8B0DAC0CAD0D22740D128C
:1052630011997F06020F0E74F6120BC1EAFEEBFFD3
:105273007A0D7B00121B74EA4B6062EE2424126FDA
:105283005DF0EE2425126F5DA3125322126F63A308
:10529300A3126CF61252FDF0EE1252E3125312E80F
:1052A300F0A3E912533912530A127259EE1252EC57
:1052B300126DB9A3A3A3A3F0EE2433125BCEC0E017
:1052C3001252F5D0E0126AE812530AA3A3A3E8F03E
:1052D300A3E9125331C0E01258ABD0E0F00244B856
:1052E300242AF582E43FF58322242EF582E43FF558
:1052F3008322EA125D243BF5832212530122E08AC2
:10530300828B83A3A3A322126E18A3A3A3A32212A7
:105313005316221244C78A828B83A3A3A3A322F02A
:1053230012532722EE2426F582E43FF58322F0EE82
:105333002432125C4F22F0EE242C125C4F2274F4C0
:10534300120BC174FE12124CECFEEDFFEC2416128C
:105353005BCE64057010EC2406FCE43FFD1224D4FC
:10536300E970030253EDAC21AD2212701212212C0D
:1053730085218285228312578B606B8E828F83E017
:1053830064017058E875F009A4F8AAF075F009E90A
:10539300A42AF9741728F8740339F9E8FAE9FB88A1
:1053A30082F583780812146AEE12548F12140D409A
:1053B30027852182852283124FAF125BDC1253F2C1
:1053C300780812146A90832A78081213908A828BC1
:1053D30083780812144C800A79A28010EE240F12ED
:1053E30072537900800679A1800279C802362B12A4
:1053F3005010EE126CE42274F2120BC18A0C8B0D66
:10540300ECFEEDFFEC125BDCE4F0A3F09082EA78B3
:105413000812146AEC12548F1212B76067EC240E50
:10542300125BD5703478B39015E7E07028901619A5
:10543300E064017020EC2411125BCEF91225DC8BA1
:1054430009A909EE12570E3F1265BEEA49600478B6
:1054530000800278A18808802EE060046402700A4C
:105463001224E6E9F5087007801DE064037010EE6E
:10547300FCEFFDAA0CAB0D122150E9F5088008756D
:1054830008A180037508A3A908025265126CE47889
:10549300082274F0120BC174F512124CEAFEEBFFF2
:1054A300EA240AFCE43F8C82F583127F54125718D6
:1054B300740312122C8A828B831263B4E970030281
:1054C300557E740112122C740312122412212C74AF
:1054D300011214DD12578B700302557EE875F00933
:1054E300A4F8AAF075F009E9A42AF9741328FC7446
:1054F3000339FDE508240E126805E4F0041214DDF7
:105503001244BFE50812570E35091272578C828D6B
:10551300831214A2E50824121268051214AE9083B4
:105523002A780812146A8C828D8378081213448CAB
:10553300828D83780C12146A9083AE780812146AF1
:10554300780C7908120B52E5084509450A450B709A
:105553002A74011214DD12572E75F009A4F8AAF06B
:1055630075F009E9A42AF9741B28F582740339F547
:10557300837401F07A007B0812573B8E828F83A3DA
:10558300A3A3A3A3A3A3A3A3A3E02406FCA3E034A0
:1055930000FD8E828F831263B4126AD6603EEE24BE
:1055A3000A125700124FB47468124FE6E81256FA03
:1055B30039F5837402F09015D21214A28C828D8374
:1055C3001265AD12619F3CF5831214AE90832A7865
:1055D3000812146A9015D278081213441257767081
:1055E3005D9015A0125726A3A3A3A3A3A3A3A3A3CC
:1055F300A31261D5121C5EE970101261939015A07D
:105603001261A57005126AD660348E828F83A3A3BC
:10561300A3A3A3A3A3A3A3A31257261251791221D1
:1056230056E960118E828F83A3A3A3A3A3A312576A
:1056330062E4F0A3F08E828F83125748E4F012578E
:105643007660030256F58E828F83A3A3A3A3A3A33D
:10565300127F509015E7E060030256EA901619E0B6
:10566300640160030256EA750A3A750B00780A1260
:1056730011BC740212121C880A890B780A1211BC1D
:1056830012754F121199E9705BE508240E12680533
:105693007401125790C0E0E5082411126805D0E0A8
:1056A300F0E508240F126805743A124FE69015CE00
:1056B3001214A2E50824121268051214AE90832A6C
:1056C300780812146A9015CE780812134490832A2E
:1056D300780812146A9015CE78081212B77008125F
:1056E3005737800312571812577670061260967454
:1056F300A1F0740B026E88240EF582E422F8E43FD5
:10570300F9E8FCE9FD8882F58322EA125712222484
:105713000FF582E422E5081257123509F583E4F008
:10572300A3F022127ABB8E828F8322125732221267
:1057330044C7E8227A007B02901476E0F9121B201A
:10574300228A828B83A3A3A3A3A3A3A3A3A3A312AA
:10575300575622124F89240EF582E438F58322A38B
:10576300A3A3A312576A22124F89240FF582E438A8
:10577300F583228E828F83A3A3A3A3A3A3124F81B6
:10578300240FF582E438F5831257324922125794D5
:1057930022F0852182852283E02274F6120BC1EA6E
:1057A300FEEBFF7A237B00121B74EE240AF508E458
:1057B3003FF5098508821265BE7C237D00790012BE
:1057C3001ACC85088285098312578B700302585EB1
:1057D300EEFAEFFB1224F212577660748E828F83F7
:1057E30012589164018E828F83A3A3A3A3A3A370F2
:1057F30007125887740E802112578B7010126AD6C5
:10580300700B8E828F83A3A3E0A2E0500712587D12
:10581300740D800512587D7405126AE854036401FF
:1058230070071258657405800B9015E8E0C0E0120C
:105833005865D0E01258A0F5838882125BFB850877
:1058430082850983124F7112655238F583E9800E00
:10585300850882850983126637800312657AF00210
:1058630044B88E828F83A3A3A3A3A3A3A3A3A3A3B9
:1058730012587722E0126599A3228E828F83A3A305
:10588300A3A3A3A3124F8112655838F58322A3A3C0
:10589300A3A3A3A3A3A3A3A3125756E0221258A41E
:1058A30022127027F8A3E022EA1258B33BF58322B1
:1058B300240CF582E42274F1120BC174E412124C2D
:1058C3008A0C8B0D8C088D097A237B00121B748A3A
:1058D3000A8B0BAE0AAF0BEA4F7003025BB612657D
:1058E3005EE5082415125BE7687003A3E0698E8206
:1058F3008F837004740280027401F0E508240DF8AC
:10590300E43509F98882F583E0FAC3E49AFA95E06D
:10591300FB125BE32AFAA3E03BFB8E828F83A3A3F4
:10592300A3A31261BC8E828F83A3A3F0EE2420F580
:1059330082E43FF583E4F0EE2421F582E43FF5832E
:10594300E4F0EEFAEFFB1225A6850882850983129F
:105953005C0270098E828F83A3740580069015E81C
:10596300125BF0F0EE2417F50AE43FF50B8E828FFD
:1059730083125BFBE9850A82850B83F0EE2416F81C
:10598300E43FF9E508240EFAE43509FB88828983AC
:10599300124FCEE5082410FAE43509FB850A828507
:1059A3000B83E0FC88828983E0F88A828B83E0C3DF
:1059B30098C39CF8125C3CF0EEFCEFFDAA0CAB0D17
:1059C3001224ECE9F50B8E828F83E06402700612D9
:1059D3006193125BC0E50B6003025BAD750C007550
:1059E3000D0090186CE064016005E06402703F12E2
:1059F3005BD26008EE2421125BD570328E828F83D6
:105A0300A3A3A3126580125C08EE2416125BCE12C8
:105A13005C31FAE439FB1242C0EA4B6011126DE2C9
:105A23001211B8125C16AA0C127280121199EEFAB6
:105A3300EFFB1225B2E9F50B90186CE064016008E6
:105A4300E064026003025BA0E97003025BA0E50C63
:105A5300450D7003025BAD8003850E0B125BD260B4
:105A63000BEE2421125BD56003025BA6850B0E852A
:105A73000C08850D09750A0078081211B8125C1616
:105A83008E828F83A3A3A3A3127F99121199EE246D
:105A930020125BCE600D125BDB7468124FE6EE24BE
:105AA300208015EE2421125BCE6015125BDB74039C
:105AB300F0A37401F0EE2421F582E43FF583E4F0D2
:105AC300EEFAEFFB1225B2E9F50B70907C137D0023
:105AD30079007409121224121ACC741A1214DD7488
:105AE30001125C4764687002A3E0704F8E828F835B
:105AF300125762E064056003025A5C7C0879FF8EEA
:105B0300828F83A3A3A3A3E0242A1261D8121B5676
:105B1300E97003025A5C7C087D0079FF740112125C
:105B230024121ACC740112122C7A007B0079AB1266
