:020000040000FA
:060000000214A80208D260
:03001300020A28B6
:03002B0002123787
:030033000210DADE
:03003B00020A7D39
:0300530002080799
:100083000208660100F0FF0700080000FFFF000000
:100093000704000000030001FF18102700000020E0
:1000A300FD000206FFFFFE0400000004E5C6FE0695
:1000B300001F0000AC03FE06001F00B4AC741E0357
:1000C3000077011D182318771E00000000000000B0
:1000D300000000000000000000000000000000001D
:1000E300000000000000000000000000000000000D
:1000F3000000009B1E000000000000000000000044
:100103000000000101E803D00732006400DC009422
:1001130002000000000000000000000000000000DA
:100123000000000000000000000000FF00000000CD
:1001330000000000000000000000000000000104B7
:10014300010C0002067E820000000204010C000282
:1001530002E88300000001040000B115000000E87C
:10016300030000FFFF0E1688130000E8030000647D
:10017300006400B801A0BB0D00A0BB0D0002020289
:10018300070401010A1E02051E020A0A01010108F1
:1001930009080103B80B02803E0102FEFFE8030ACF
:1001A300050001FFFF010A011401E00100B0423B19
:1001B300AAB83F0000003F8C906339AA0CA33A0011
:1001C300941E3C8042633DCFFE753E1572313F0065
:1001D30000803FF304353F8096184B30313233347F
:1001E300353637383941424344454600286E756CED
:1001F3006C20706F696E746572290030313233344C
:100203003536373839616263646566003F3F3F00C6
:100213000000807FF9021550B743BA5100E7DB2E87
:100223000000A040000080BF2292D43EDD9B2A3F05
:1002330004000040FFFF7F7FFFFF7FFF010080344A
:100243001872313F01050301010F10FEFFF735005E
:10025300000000693400000000FF000000FF0012EE
:1002630014D660461214F4603DE9687008F618F677
:1002730018F618F622748067F712029609090974B2
:100283008067F7221214F4601D1214D67005191931
:1002930019801A121384701F121334C37003E66794
:1002A3003319191940071818182208080874FFF69B
:1002B30018F618F618F62212133460171215747014
:1002C3002192F01215627019501720F014080808D3
:1002D300090909E7F61819E7F61819E7F61819E7EF
:1002E300F62212156260E6E869701F0808E62480AA
:1002F300F608E436F618547FB47F0CE654806007A2
:10030300F6E418F618F622181822E9C6CC08C6CD6A
:1003130008C6CE08C6CFC0E0E8C0E0EAC0E0EBC044
:10032300E009E9F809E7FA09E7FBE6F918E6F8C393
:10033300EC98ED99EE9AEBC2E7F5F0EFC2E795F092
:10034300500E600CEBCFFBEACEFAE9CDF9E8CCF81E
:10035300EAA2E7D2E7FAEB33FB13F5F0EEA2E7D21A
:10036300E7FEEF33FFC5F013A2E730E601B313C591
:10037300F0C3C0E0C0F07F00C39BFB605E941860D5
:100383000F401D14601AD0E023F9D0E0F80204688E
:100393008AF0E9486003D2F0E4AFF0FAF9F8803B61
:1003A300EB30E40D89F0EA6003D2F0E4AFF0F9CA70
:1003B300F8EB30E30D88F0EF6002D2F0AFF0E4CA5F
:1003C300C9F8EB54076014FBC3EA13FAE913F9E81D
:1003D30013F8EF135002D2E0FFDBEDD0E0C0E030C2
:1003E300E739C3E49FFFF5F0EC98FC42F0ED99FD8B
:1003F30042F0EE9AFE42F0D0E0F9D0E0F8E5F0608A
:100403007AE923F9EE20E742D8028067C3EF33FF8E
:10041300EC33FCED33FDEE33FE80EAEC28FCED39E2
:10042300FDEE3AFED0E023F9D0E0F84002801BC392
:10043300EE13FEED13FDEC13FCEF135002D2E0FFBD
:1004430008B800067F7F74FF802EEF3350178CF0BF
:1004530020F00260100CBC000C0DBD00080EBE00A5
:100463000408E860DFE933E813FFEE2313FE4F4D82
:100473004C8008E95480FFE4FEFDFCEE33EF33F4D7
:100483007004FCFD7E80D0E0FBD0E0FAD0E0F8D031
:10049300E0CFC618CEC618CDC618CCC6F9221214A2
:1004A300F47004181818221214D6700D74FFF6187D
:1004B30019F61819F61819F622E7548066F612157C
:1004C30062700F12157470F014F608F608F608F649
:1004D30080D1121574700CF608F608768008E6448D
:1004E3007F80EC121337700C12138760BFE65480C1
:1004F300F6E480BB121387700519191980A5E86902
:10050300700C763F18768018F618F6E8F922E6CDD7
:10051300C0E018ECC0E0E633CD33CDD313F6E719D2
:10052300FCE7191933CC33C3947F400ECD9D50247F
:1005330008E65480F6E418F6800FF4043D145014D2
:1005430008E6447FF6187680E418F618F6D0E0FC47
:10055300D0E0FD22CCD313CCFD18E4C6CBC0E01809
:10056300E4C6CAC0E00808ED08C633E613F618E48B
:1005730033C675F003C3CA97CA09CB97CB199C40FE
:10058300047D08802EBD000302064A16B6FF050649
:1005930006081618C3CA33CACB33CB33CA27CA09D2
:1005A300CB37CB193CC37D08803E187D0820E75C20
:1005B300C633C6CA33CACB33CB33DDF1D5F0EB3008
:1005C300E77BCA97CA09CB974ACB199C406F4B70FC
:1005D30025E620E0218066187D08C3CA97CA09CBA7
:1005E30097CB199CD3C633C6CA33CACB33CB33504C
:1005F300C9DDE7D5F0E1D3E4C636C608C636C6087A
:10060300C636C608C636C61818188031C3CA97CA74
:1006130009CB97CB199CB34097C633C6CA33CACB11
:1006230033CB33DD34D5F02EC6A2E0C640C8CA278B
:10063300CA09CB37194A70BECB3CB480B90808E667
:100643003308E633601F181818D0E0FAD0E0FBD067
:10065300E0FCD0E0FD22187D08CA27CA09CB37CBBE
:10066300193CD3808013F618E4B67F11F618B6FF51
:100673000EF618C60470D20808768080CAF618F6FB
:1006830018F680C5001214F4604F1214D66012E7F6
:10069300548066F61213847011121574703B0909A5
:1006A30009F4F618F618F618F62212133470151218
:1006B300156208080860EAE6447FF618768018E4B5
:1006C300F618F62212156260161215747012E4F60B
:1006D30008F608F608E65480F609090918181822DE
:1006E300EAC0E0EBC0E0ECC0E0EDC0E0E687F0A4D8
:1006F300FBACF008E687F0A42CFCE435F0FA18090B
:10070300E687F0A42C4B60027401CA35F0FCE43395
:10071300FB09E687F0D2F7A42CCB35F0FC1908E6E9
:1007230087F0A42BCC35F0FBE433FD0819E687F002
:10073300D2E7A42C4ACB35F0CD3400FC09E687F090
:10074300D2E7A42DCC35F0FDE433FA0918E687F09F
:10075300D2F7A42CCD35F0CA3400FC08E687F0D2DA
:10076300E7D2F7A42ACC35F07A7E20E70B0ACB3305
:10077300CBCD33CDCC33CC33CB3350147004ED30ED
:10078300E00ED2F1E4CD3DCDCC3CCC3B5005DA05B7
:10079300C2F1EB547FC63308E63392F0FBE733092B
:1007A300E733C39A502D2B70190C0D4C4D7015184F
:1007B30006E608C333700D20F10AA2F013F6E4181D
:1007C300800B4024E4F630F002768018F618F61811
:1007D300F68024D33B14501074FFA2F013F618765E
:1007E30080E418F618F6800FA2F013F618E6330328
:1007F300F618ECF618EDF6D0E0FDD0E0FCD0E0FB07
:10080300D0E0FA22C0E074F1120C95A2AFE433F504
:1008130009D2AF85A708AFA1EF5508FE74105E603B
:10082300061218E975A1EF74085E60081218EF75D7
:10083300A1F78024EFA2E092F0E508A2E082F05055
:1008430017906198E0F8900564E0C398A2D265D050
:10085300335002E8F075A1FEE509A2E092AF7F02F2
:10086300020CF4C0E074F2120C95A2AFE433FED292
:10087300AF9061A4E0F8759B00E5915854086008B7
:100883007591F712193D8023E5915854106008754E
:1008930091EF1219438014E591A2E092F0E8A2E0EF
:1008A30082F05007E0C2E0F0121A8D9061A3E0F8E5
:1008B300E5E9585404600E121A6375E9FB906193DD
:1008C300E0A2E640F2EEA2E092AF7F01020CF4C098
:1008D300E074F2120C95A2AFE433FED2AF9061A59F
:1008E300E0F8E5BF585404600675BFFB121AA580F3
:1008F300D412093F30F039120984803412093F20A1
:10090300F01430E72B74FFFCFBFA747F8022E4FCC5
:10091300FBFA7480801AB48008BC00F2BB00EF803D
:100923000F50EBF9E4C39AFAE49BFBE49CFCE499D3
:10093300C6CC18C6CB18C6CA18C6F922E4C9C6085D
:10094300CAC608CBC6D3330308CCC63392F0C394CC
:100953007F402E94184019C9B90704CACBCC225042
:1009630025C309CA33CACB33CBCC33CC33D9F42216
:10097300F4600DC9CCC313CB13CBCA13CAD9F6CCBD
:1009830022E4FCFBFA2214FCFBFA22C3E498F8E409
:1009930099F91209CF8026C3E49AFAE49BFBE92074
:1009A300E7E91209CFE498F8E499F922C3E498F847
:1009B300E499F91209CFE498F8E499F9C3E49AFAAF
:1009C300E49BFB22EB20E7CFE920E7E0B90010BB73
:1009D3000008E88AF084F8AAF022E4FBC8FA22EBC4
:1009E30070227B10C833C8C933C9335007C39AC3B5
:1009F300DBF280069A50012ADBEAC833F4C8C93314
:100A0300F4C9FA2275F008E4C833C8C933C933C935
:100A13009AC99B5004C92AC93BD5F0ECFBC833F4EF
:100A2300C8E4C9FA22C0E0C0D0E8C0E0E9C0E0C031
:100A330082C083A8C1E8C0E09004D1E0F8745028D4
:100A4300F582E43404F583D0E0F09004D0E0F8A319
:100A5300E0687006E5959004D3F09004D1E004F0CB
:100A6300C394804002E4F0A374C6F0D083D082D054
:100A7300E0F9D0E0F8D0D0D0E032C0E0C0D0E8C098
:100A8300E0E9C0E0C082C083900554E0F8A3E068C9
:100A93007008539AFBA374018022C2E9900554E0C5
:100AA300F8740128F074D428F582E43404F583E063
:100AB300F5C1900554E0C394804002E4F080AC0893
:100AC3000808EAC0E0EBC0E086F0E7A4FA1809865C
:100AD300F0E7A42AFA180986F0E7A42AFA18098687
:100AE300F0E7A42AFA1986F0E7A4FBE5F02AFA193D
:100AF3000886F0E7A42BFBE5F03AFA190886F0E73D
:100B0300A42BFBE5F03AFA18180986F0E7A4C5F020
:100B13002BFBE43AFA1908E7C5F0C6A426F6E5F07C
:100B23003BFBE43AFA1886F0E7A4F6E5F00826F66C
:100B3300E43B08F6E43A08F6D0E0FBD0E0FA2208FA
:100B43000808E630E711121348120B5A080808C6C2
:100B53004480C618181822181818E9799EC608CABE
:100B6300C608CBC608CCC6C370207996CACBCC7056
:100B730019798ECBCC70137986CC700EF9802ACA82
:100B830033CACB33CBCC33CC331930E7F2CCCBCA1B
:100B93003350147004EA30E00DE4CA3ACACB3BCBBD
:100BA300CC3CCC500209C3E913C6CC182313C6CBE3
:100BB30018C6CA18C6F922E4CFC0E0E4CEC0E0E408
:100BC300CDC0E0E4CCC0E075F020E626F608E633BD
:100BD300F608E633F608E633F6181818EC33FCED9E
:100BE30033FDEE33FEEF33FFC3EC9709ED9709EEC8
:100BF3009709EF97191919400FFFEC97FC09ED9727
:100C0300FD09EE97FE191906D5F0BFECF709EDF7CC
:100C130009EEF709EFF7191919D0E0FCD0E0FDD080
:100C2300E0FED0E0FF222521C582C0E0E52234FFAB
:100C3300C583C0E0E521C3958224F810AF088583FE
:100C4300228582218008858322858221D2AFCEF03E
:100C5300A3E520F0A37808E608F0A3DEFAEFF0A3FB
:100C6300E58124FAF8E608F0A3E608F0A3E608F025
:100C7300A30808E608F0A3E608F0A315811581D0C0
:100C8300E0FED0E0F8158115811581E8C0E0EEC0E3
:100C9300E022C0D02521C582C0E0E52234FFC58310
:100CA300C0E0E521C3958224F310AF088583228534
:100CB30082218008858322858221D2AFC8F0A3E9EF
:100CC300F0A3EAF0A3EBF0A37908E709F0A3D8FABD
:100CD300ECF0A3EDF0A3EEF0A3EFF0A3D0E0F0A3CC
:100CE300D0E0F0A3D0E0F0A3E520F0A3E5F0F0A37B
:100CF30022852283852182E0C0E0A3E0F9A3E0FA04
:100D0300A3E0FBA37808E0F608A3DFFAE0FCA3E086
:100D1300FDA3E0FEA3E0FFA3E0C0E0A3E0C0E0A3E7
:100D2300E0F5D0A3E0F520A3E0A3F5F010AF08852C
:100D330083228582218008858322858221D2AFD0B8
:100D430082D083D0E0F8D0E03212134B1818181277
:100D53000BBA121457191919221214571919190811
:100D63000808E618181820E7E0120BBA12134B18FC
:100D7300181822090909E719191920E7DC080808D6
:100D8300E618181820E703020BBA12134B181818A9
:100D9300120BBA12134B18181812145719191922D7
:100DA30012154DB90003020DE2E490035178BA79AC
:100DB300168002F0A3D8FCD9FA7A0A7B1990008630
:100DC30078DD79028015E493A3AD82AE838A828BAA
:100DD30083F0A3AA82AB838D828E83D8E9D9E7758A
:100DE30082057583FE74041211C87582917583316F
:100DF30074001211C875F0108E238F248582288504
:100E03008327852182852283E0CEA3E0CF852882B4
:100E1300852783EBC9EAC8EDCBECCAC3E833C8E93D
:100E230033C9EA33CAEB33CBC3EA9EF526EB9FF50E
:100E330025B35004AB25AA26EC33CCED33CDD5F046
:100E4300DAAE23AF24221214F4601C1214D66017F6
:100E530012156270071215747001D322C0D01215D7
:100E6300747006D0D0B322C32233D0D0501430E0F4
:100E7300F6C3E7960809E7960809E7960809E7968F
:100E8300B32220E0D5E6970809E6970809E6970814
:100E930009E697B3221214F4601B1214D6601612DB
:100EA30015627007121574600CB322C0D01215744A
:100EB3007005D0D022C32233D0D0501330E0EBC31F
:100EC300E7960809E7960809E7960809E7962220B6
:100ED300E0E4E6970809E6970809E6970809E69724
:100EE30022D083D082ECC0E0EDC0E0E493A3FCE425
:100EF30093A3FDED4C600D120FBCEC24FFFCED340D
:100F0300FFFD80EFE493A3FCE493A3FDED4C600DA0
:100F1300121085EC24FFFCED34FFFD80EFD0E0FDE3
:100F2300D0E0FCE493A3C0E0E493C0E022852283F5
:100F3300852182E0A3FEE0A3F5207808E0A3F6086C
:100F4300DFFAE0A3FFE0A3C0E0E0A3C0E0E0A3C0BA
:100F5300E0E0A3C0E0E0A3C0E010AF0885822185F4
:100F630083228008858221858322D2AFD083D082D9
:100F73000211CED083D082E9C0E0E493A3C386F00C
:100F8300C5F095F0F908E493A386F0C5F095F070E9
:100F93000BE493A3C3994005E9048002A3E475F02D
:100FA30002A42582F582E5F03583F583D0E0F9E4E8
:100FB30093A3C0E0E493C0E022C0E0C3E4939608A7
:100FC3007401939618400FE49366700808740193B4
:100FD300661870007019A3A3C3E493960874019371
:100FE3009618A3A3400DD0E0D0E0D0E0020F20A3D9
:100FF300A3A3A3A3A3D0E0227404800474028000FB
:10100300CCC0E0EDC0E0E521C39CCCAD2250011D76
:1010130010AF068C218D2280068C218D22D2AF1237
:10102300114AD0E0FDD0E0FC2274028000CCC0E085
:10103300EDC0E0E521C39CCCAD2250011D10AF06ED
:101043008C218D2280068C218D22D2AF121128D0C3
:10105300E0FDD0E0FC221214F460251214D66020C7
:101063001215627003021574080808E766701018F9
:1010730019E766700A1819E76670041819E76622FB
:10108300F422C0E0C0F088F0E493667008087401AD
:101093009366187000A8F0A3A3700BD0F0D0E0D033
:1010A300E0D0E0020F20A3A3D0F0D0E022D083D081
:1010B30082CCC0E0E493A3600612116B1470FAE4CF
:1010C30093A360061212CA1470FAD0E0FCE493A34F
:1010D300C0E0E493C0E022C0E074F2120C95A2AF2A
:1010E300E433FED2AFE58BA2E05005790412183B3E
:1010F300758B00C2E8EEA2E092AF7F01020CF4C050
:1011030008C3E096F50808A3E096420808A3E09612
:10111300420808A3E0964208A2D265D033E50870DE
:1011230001D3D00822CAC0E0E493A3C582CCC58210
:10113300C583CDC583F0A3C582CCC582C583CDC588
:1011430083DAE5D0E0CA22CAC0E0E0A3C582CCC5F9
:1011530082C583CDC583F0A3C582CCC582C583CDAB
:10116300C583DAE6D0E0CA22C0E0E493A3D39C505F
:1011730010E493A3C39C400AD0E0D0E0D0E0021077
:10118300CDA3A3A3D0E02270090808082260161893
:101193001818C6C333C608C633C608C633C608C63E
:1011A30033C6D5E0EA22C008C3E096F50808A3E0F9
:1011B30096420808A3E096420808A3E09645087003
:1011C30001D3D00822C09FF59FE473D09F22D08320
:1011D300D082C09FE493C0E0740193C0E074029393
:1011E300F59F222521F58210AF08F521400C152229
:1011F3008008F52140021522D2AF8522832200C048
:10120300D0252110AF08F521500C05228008F521C7
:1012130050020522D2AFD0D0227404800A74038016
:1012230006740280027401C0E0F4041211E6D0E0F7
:1012330012151022C0E0C0D0E8C0E0A8A8D2AFC207
:10124300C7E8A2E792AFD0E0F8D0D0D0E032BB013C
:1012530002E722C082C08389828A83BB0003E080C5
:1012630002E493D083D082226016080808C6C31311
:10127300C618C613C618C613C618C613C6D5E0EAE1
:10128300222521F8E43522F9222521FAE43522FB2F
:10129300222521FCE43522FD22C3E0C696F608A3ED
:1012A300E0C696F608A3E0C696F608A3E0C696F64F
:1012B30022252110AF08F521400C15228008F521C5
:1012C30040021522D2AF22C0E0E493A36C7009D090
:1012D300E0D0E0D0E00210CDA3A3D0E022C3E79694
:1012E3000809E7960809E7960809E796A2D265D0A8
:1012F3003322E76670100809E766700A0809E76693
:1013030070040809E76622C3E09608A3E09608A3E1
:10131300E09608A3E096A2D265D03322E06670106F
:1013230008A3E066700A08A3E066700408A3E066F9
:1013330022191919E70947097009E727097005E711
:1013430033F4220922181818E4C396F608E496F633
:1013530008E496F608E496F622C3E096F008A3E0C4
:1013630096F008A3E096F008A3E096F022C3E69770
:10137300F60809E697F60809E697F60809E697F6E8
:1013830022181818E60846087009E626087005E6CC
:1013930033F4220822C3E4939608740193960874E5
:1013A300029396087403939622E026F608A3E03688
:1013B300F608A3E036F608A3E036F622E627F60899
:1013C30009E637F60809E637F60809E637F6227024
:1013D3000422600D18C6C333C608C633C6D5E0F46D
:1013E3001822E657F60809E657F60809E657F608FD
:1013F30009E657F622E056F608A3E056F608A3E0FE
:1014030056F608A3E056F622E026F008A3E036F0ED
:1014130008A3E036F008A3E036F022E056F008A374
:10142300E056F008A3E056F008A3E056F022E49358
:10143300F608740193F608740293F608740393F69E
:1014430022E647F60809E647F60809E647F60809DB
:10145300E647F622E4C397F709E497F709E497F719
:1014630009E497F722600D08C6A2E713C618C6134E
:10147300C6D5E0F322C6F4C608C6F4C608C6F4C649
:1014830008C6F4C622C3E09608A3E09608A3E09634
:1014930008A3E09622C3E7960809E7960809E796AA
:1014A3000809E7962275D00075813F752151752291
:1014B3000300020DA3600C08C6C313C618C613C6E7
:1014C300D5E0F422E6F008A3E6F008A3E6F008A3CB
:1014D300E6F022E7094709C3134709336002E733FC
:1014E300F422E0F608A3E0F608A3E0F608A3E0F68A
:1014F30022E6084608C3134608336002E633F422A3
:10150300800100E9F874FF28F90470F622CAC0E0EC
:10151300E6F0A308DAFAD0E0FA22E0F8A3E0F9A3B0
:10152300E0FAA3E0FB22E8F0A3E9F0A3EAF0A3EBDF
:10153300F022EAF0A3EBF0A3ECF0A3EDF022E0FA43
:10154300A3E0FBA3E0FCA3E0FD22E5C754F84401BC
:10155300F5C77901222521F582E43522F58322E6B8
:101563002618461846184622C2AF75D69F020000B9
:1015730022E727194719471947221211D15BE103C3
:101583001211D18AE1031211D190E2031211D1BADF
:10159300E2031211D10EE3031211D1E2E30312119C
:1015A300D110E6031211D1BEE6031211D12BE903C8
:1015B3001211D1B0E9031211D1B3EC031211D1E727
:1015C300EE031211D123EF031211D17CF003121198
:1015D300D18FF0031211D1CCF0031211D195F20384
:1015E3001211D161DC051211D1DDDC051211D1100C
:1015F300DD051211D13EDD051211D17CDD0512117D
:10160300D1B9DF051211D1D8DF051211D11DE005C3
:101613001211D1B3E0051211D1FFE0051211D193DC
:10162300E1051211D16CE2051211D1C8E2051211C4
:10163300D126E3051211D199E3051211D1DDE3059A
:101643001211D135E4051211D157E4051211D1E776
:10165300E4051211D178E5051211D1C4E505121183
:10166300D1F0E5051211D131E6051211D1C7E70515
:101673001211D1B3E8051211D18EE9051211D10C63
:10168300BB051211D1A0BB051211D108BC05121163
:10169300D12DBD051211D1B7BD051211D142BE0521
:1016A3001211D17EBE051211D117BF051211D1AC93
:1016B300BF051211D17FC0051211D161C2051211EC
:1016C300D157C3051211D1F6C3051211D14BC4056D
:1016D3001211D1B9C4051211D1C5C7051211D1EF29
:1016E300C9051211D1F0CA051211D12ECC05121160
:1016F300D139CC051211D1C3B1061211D1EFB10604
:101703001211D10AB2061211D12FB2061211D1CF82
:10171300B2061211D175B3061211D19FB30612117D
:10172300D106C3061211D10BC3061211D13EC30653
:101733001211D19CFB021211D138FC021211D1C13A
:10174300FC021211D162FD021211D1C7FD02121166
:10175300D1EAFD021211D12EFE021211D14BFE026B
:101763001211D190FE021211D1EEFE021211D141DB
:10177300FF021211D176FF021211D1CBFD03121118
:10178300D18AFE031211D16FFF031211D1BABE0623
:101793001211D1CBBE061211D169BF061211D17439
:1017A300BF061211D18EBF061211D1F1FF03121120
:1017B300D1EC7F001211D1E3C0061211D1F3C006A0
:1017C3001211D108C1061211D16EC1061211D1B680
:1017D300BB061211D13ABC061211D1A2BC061211DA
:1017E300D1E89B061211D1FC9B061211D1729C0603
:1017F3001211D1C19C061211D1F69C061211D11BF4
:101803009D061211D13E9D061211D1799D0612112A
:10181300D1A69D061211D1ED9D061211D1079E0688
:101823001211D1A69E061211D1BBBD061211D142CF
:10183300BE061211D14BBE061211D172BE06121191
:10184300D11DC4061211D1C6AA061211D110AB06BE
:101853001211D1A6AB061211D12CAC061211D15E16
:10186300AC061211D176AC061211D1EAAC061211F4
:10187300D100AD061211D113AD061211D11DAD0663
:101883001211D1D7FA051211D103FB051211D16D33
:10189300FD051211D1ADFD051211D1E9FD0512119E
:1018A300D1FDFD051211D116FE051211D108FF0558
:1018B3001211D1BBFF051211D1CFFF051211D1EACD
:1018C300B5061211D10EB6061211D127B6061211A2
:1018D300D165B6061211D195B6061211D1C2B6065C
:1018E3001211D128B7061211D12BB7061211D13517
:1018F300B7061211D142B7061211D11FA806121151
:10190300D13FA8061211D17EA8061211D19CA806B8
:101913001211D1B7A8061211D11DA9061211D1298E
:10192300A9061211D186A9061211D195A906121181
:10193300D1B9A9061211D17AAA061211D187AA0622
:101943001211D198AA061211D14CC3061211D164F7
:10195300C3061211D190C3061211D1FA84061211D3
:10196300D15486061211D16286061211D1758606EC
:101973001211D18A86061211D19F86061211D1B295
:1019830086061211D12E87061211D19387061211E2
:10199300D12988061211D10289061211D1128906A2
:1019A3001211D12189061211D14AC0061211D16E2A
:1019B300C0061211D196C0061211D1BEC006121173
:1019C300D130AD061211D157AD061211D175AD0646
:1019D3001211D1E4AD061211D14CA5061211D16535
:1019E300A5061211D171A5061211D185A5061211F2
:1019F300D1A3A5061211D1ADA5061211D1B7A50623
:101A03001211D1CAA5061211D150A6061211D1C5C1
:101A1300A6061211D1F4A6061211D142A70612117D
:101A2300D191A7061211D1ACA7061211D1B6A70600
:101A33001211D1C7A7061211D10AA8061211D1B5E6
:101A4300FF021211D168EA051211D194EA051211AD
:101A5300D1B1EA051211D1C4EA051211D1DFEA05A9
:101A63001211D139EB051211D167EB051211D177A0
:101A7300EF051211D1D5F0051211D107F10512119D
:101A8300D16AF1051211D1D6F2051211D1FEF20578
:101A93001211D113F3051211D123F3051211D163DE
:101AA300F3051211D1A5F3051211D1B5F3051211E6
:101AB300D14CB7061211D166B7061211D18EB706F3
:101AC3001211D1A7B7061211D1CBB7061211D1E962
:101AD300B7061211D100B8061211D12EB806121191
:101AE300D149B8061211D1D9C3061211D1149506E2
:101AF3001211D12495061211D12996061211D15B28
:101B030096061211D18B96061211D1AE96061211BA
:101B1300D1C596061211D1FF96061211D16497060C
:101B23001211D1A697061211D1ED97061211D11AEF
:101B330098061211D14598061211D167FE011211B0
:101B4300D187FE011211D19BFF011211D19EFF011A
:101B53001211D1B0BA061211D1E6BA061211D1FE92
:101B6300BA061211D140BB061211D150BB06121195
:101B7300D194BB061211D19EBB061211D1E5F30518
:101B83001211D128F4051211D18DF4051211D1AC23
:101B9300F4051211D14EF5051211D157F5051211A5
:101BA300D1A8F5051211D1D1F5051211D1DEF50534
:101BB3001211D150F6051211D1DEF6051211D123FF
:101BC300F7051211D15CF7051211D1C1F7051211F6
:101BD300D1EAF7051211D161F8051211D1B0F80558
:101BE3001211D1EDF8051211D122F9051211D134D8
:101BF300F9051211D146F9051211D165F905121132
:101C0300D16EF9051211D12AFA051211D16DFA0517
:101C13001211D1ABFA051211D14FC2061211D1AC78
:101C23007E001211D185AF061211D1BBAF0612117E
:101C3300D103B0061211D15CB1061211D17B940508
:101C43001211D1A195051211D1DD95051211D19B68
:101C530097051211D1C997051211D1339A051211A3
:101C6300D1739A051211D1159C051211D1AB9C05A4
:101C73001211D1059D051211D1959D051211D1D9CE
:101C83009D051211D11B9E051211D1809F051211C2
:101C9300D100A1051211D141A3051211D16FA305E2
:101CA3001211D19BA3051211D1A4A3051211D101C5
:101CB300A4051211D19AA4051211D1B1A7051211CD
:101CC300D137A8051211D178C1061211D18EC106E0
:101CD3001211D198C1061211D15289061211D1687D
:101CE30089061211D10C8A061211D14B8A061211E0
:101CF300D1688A061211D1998A061211D1E68A0691
:101D03001211D11A8B061211D1558B061211D14A19
:101D13008D061211D1BBBC061211D11ABD061211C8
:101D2300D158BD061211D199BD061211D19DBF061E
:101D33001211D106C0061211D126C0061211D19A72
:101D4300B9061211D158BA061211D100800412112A
:101D5300D10C80041211D16E80041211D178800449
:101D63001211D10781041211D14381041211D1350B
:101D730082041211D19282041211D1208304121110
:101D8300D17183041211D1F183041211D1B78504E7
:101D93001211D1B187041211D1B388041211D1E504
:101DA30089041211D13B8C041211D17D8D041211BF
:101DB300D1238E041211D1E192041211D1DE9304C6
:101DC3001211D17494041211D1A494041211D141AB
:101DD30095041211D15E95041211D17E950412114E
:101DE300D1EC95041211D10996041211D13796043E
:101DF3001211D1D197041211D1F297041211D19873
:101E030098041211D1E098041211D13E99041211D1
:101E1300D1DC99041211D1419A041211D1AA9A0466
:101E23001211D1E89A041211D19A9B041211D1050F
:101E33009C041211D1419C041211D1B29C041211C1
:101E4300D1FD9D041211D18D9F041211D126A0043E
:101E53001211D177A2041211D1DCA2041211D10AFA
:101E6300A3041211D150A8041211D114AB041211FE
:101E7300D114AC041211D10080051211D1208005B8
:101E83001211D15883051211D15585051211D1F2C2
:101E930087051211D13489051211D16689051211F2
:101EA300D18F89051211D1B589051211D1018A0586
:101EB3001211D19A8B051211D1FA8B051211D10689
:101EC3008D051211D1188D051211D1CC8D0512116A
:101ED300D1DD8D051211D1B88E051211D1C18F0537
:101EE3001211D13A90051211D1D390051211D1A23A
:101EF30091051211D1EE92051211D1BB9305121166
:101F0300D1CBFF011211D1309F061211D1EF9F06E1
:101F13001211D155A0061211D104A1061211D1CC70
:101F2300CB041211D1FBCB041211D17FCC041211BB
:101F3300D1E2CD041211D1CCCE041211D188D00438
:101F43001211D1ADD0041211D1FFD0041211D191CD
:101F5300D1041211D1DDD1041211D1F0D104121127
:101F6300D14DD2041211D11AD3041211D18CD3043E
:101F73001211D1C3D3041211D10CD4041211D1B450
:101F8300D5041211D193D6041211D1E1D704121141
:101F9300D1C4D8041211D150D9041211D189D90452
:101FA3001211D1A8D9041211D1F3D9041211D113EA
:101FB300DA041211D1D0DA041211D1F3DB041211B5
:101FC300D14EDC041211D194DC041211D19CDD0436
:101FD3001211D137E0041211D15DE0041211D1D8EE
:101FE300E0041211D1FDE0041211D171E1041211C8
:101FF300D14FE2041211D18DE2041211D117E3047F
:102003001211D130E4041211D133E4041211D13D81
:10201300E4041211D147E4041211D163E404121150
:10202300D1D5E4041211D10EE5041211D13AE5041D
:102033001211D161E5041211D185E5041211D1C049
:10204300E5041211D133E6041211D167E60412112B
:10205300D171E6041211D1ADE6041211D1E2E60406
:102063001211D101E7041211D193C3061211D1AB9E
:10207300C3061211D1FBFF011211D1FDAF041211DE
:10208300D120B0041211D17EB1041211D1C7B10411
:102093001211D133B2041211D191B2041211D1949D
:1020A300B2041211D1E5B2041211D15AB3041211C0
:1020B300D1EAB3041211D1EDB3041211D16EB404F9
:1020C3001211D1AFB4041211D1D4B8041211D17EBC
:1020D300BA041211D1D2BA041211D161BE04121181
:1020E300D199BF041211D16DC0041211D1D7C0040C
:1020F3001211D101C1041211D1BAC2041211D19D1E
:10210300C4041211D14CC5041211D1E9C504121132
:10211300D1D4C6041211D13CC9041211D196CA04F8
:102123001211D104CB041211D196A8051211D1407A
:10213300A9051211D1ABA9051211D1C6A905121116
:10214300D147AA051211D1A1AA051211D1E8AA05F6
:102153001211D147AB051211D159AC051211D1821D
:10216300AF051211D1B2B0051211D13AB105121156
:10217300D143B3051211D1F5B3051211D1C1B40581
:102183001211D17CB6051211D11AB8051211D1A7BB
:10219300B8051211D1CDB9051211D104D90212110A
:1021A300D167D9021211D1AFD9021211D1F3D902D9
:1021B3001211D14EDA021211D1ABDA021211D1E6A9
:1021C300DA021211D168DB021211D1C2DB02121141
:1021D300D140DD021211D1B8DD021211D1D5DE02D8
:1021E3001211D1FDDE021211D150E0021211D161A0
:1021F300E0021211D179E0021211D182E10212112F
:10220300D15FE2021211D15CE3021211D180E30229
:102213001211D197E3021211D1B8E3021211D1DAEC
:10222300E3021211D1F9E3021211D1D1E402121126
:10223300D12BE5021211D1C2E7021211D11BE80220
:102243001211D13AE8021211D12AE9021211D16016
:10225300E9021211D193EA021211D112EB02121107
:10226300D14EEB021211D188EB021211D1F7EB021E
:102273001211D1ACEC021211D184EE021211D191E0
:10228300EF021211D109F1021211D1FFF202121160
:10229300D18AD5031211D14FF7021211D110F802CE
:1022A3001211D188F8021211D19FF8021211D1969E
:1022B300F9021211D1EBE0031211D1F9FA02121152
:1022C300D19D98061211D14D9A061211D10C9B067D
:1022D3001211D1749B061211D1578D061211D175AB
:1022E3008D061211D1B98D061211D1DF8D0612118F
:1022F300D1068E061211D11E8E061211D1368E060C
:102303001211D1D88E061211D11A8F061211D13D96
:1023130090061211D14690061211D14F9006121158
:10232300D10BDF031211D16290061211D1839006F3
:102333001211D10080061211D13E84061211D14C24
:1023430084061211D15184061211D186FE04121192
:10235300D181C4061211D176A2061211D17CB8061E
:102363001211D1EEC1061211D178CC051211D18709
:10237300D1051211D1DBB3061211D155C4061211C6
:10238300D13C91061211D1A7C2061211D1B7C206D0
:102393001211D10080021211D13280021211D19E8A
:1023A30080021211D13981021211D1D88102121186
:1023B300D11D82021211D13F82021211D158820221
:1023C3001211D17E82021211D1A082021211D1DE2A
:1023D30082021211D12283021211D14483021211FB
:1023E300D1A683021211D16D84021211D124850268
:1023F3001211D19685021211D16886021211D1B23F
:1024030086021211D10587021211D16B87021211B4
:10241300D1A587021211D1F787021211D1138802B5
:102423001211D13E88021211D1458A021211D1999B
:102433008B021211D1BB8B021211D1EF8B0212113D
:10244300D1108C021211D11F8C021211D12A8C02CD
:102453001211D1DA8C021211D1438D021211D1F073
:102463008D021211D1288E021211D1EE8E02121199
:10247300D1FB8F021211D14590021211D1D49002D7
:102483001211D13891021211D17391021211D1DFBD
:1024930093021211D13395021211D16C98021211C9
:1024A300D13999021211D1C799021211D1F09902AF
:1024B3001211D1629A021211D1F69A021211D15459
:1024C3009B021211D1469C021211D1689C02121177
:1024D300D1C49D021211D1DD9D021211D1F09D02D2
:1024E3001211D15F9E021211D16B9F021211D1788A
:1024F3009F021211D1819F021211D159A10212110F
:10250300D17FA2021211D18FA2021211D191A30283
:102513001211D108A4021211D137A4021211D14C05
:10252300A5021211D118A7021211D1F0AA02121199
:10253300D1FAAA021211D10EAB021211D118AB02B9
:102543001211D122AB021211D12CAB021211D145BF
:10255300AB021211D14FAB021211D1C3AB02121154
:10256300D1CEAB021211D1F3AB021211D1FEAB02E9
:102573001211D14CAC021211D156AC021211D1611D
:10258300AC021211D185AC021211D1A9AC02121105
:10259300D105AD021211D14BAD021211D168AD02BA
:1025A3001211D1E5AD021211D11CAE021211D15B91
:1025B300AE021211D1A8AE021211D12AAF0212112A
:1025C300D1C3AF021211D193B1021211D1F1B102F1
:1025D3001211D10DB3021211D133B3021211D17200
:1025E300B4021211D198B7021211D1D9B902121142
:1025F300D1B5BB021211D14BBC021211D172BE0272
:102603001211D11EBF021211D153BF021211D1B840
:10261300BF021211D1C2BF021211D1ECC1021211B9
:10262300D113C3021211D153C3021211D1F9C30240
:102633001211D18AC5021211D113C7021211D1335B
:10264300C7021211D18CC7021211D18EC802121106
:10265300D1D8C8021211D128C9021211D112CA024B
:102663001211D187CA021211D1A1CB021211D11CAE
:10267300CC021211D121CD021211D1CCCF021211F1
:10268300D1EBCF021211D14CD1021211D10ED302D0
:102693001211D162D3021211D11AD4021211D1C96B
:1026A300D4021211D11FD5021211D1D5D5021211A4
:1026B300D16AD6021211D1D6D6021211D110D70285
:1026C3001211D141D7021211D19DD8021211D1009A
:1026D30080031211D13280031211D16980031211C8
:1026E300D15282031211D13583031211D18D830389
:1026F3001211D1C884031211D11485031211D13CD4
:1027030088031211D19E8B031211D1EB8C0312118A
:10271300D1818D031211D18D8D031211D1BF8D0380
:102723001211D1418F031211D1DC90031211D18404
:1027330091031211D1C791031211D12D92031211DA
:10274300D14A92031211D17A92031211D1AF92039B
:102753001211D17F93031211D12894031211D1AC1A
:1027630096031211D1CC97031211D1B5980312110C
:10277300D13799031211D1569D031211D1939D03A1
:102783001211D1EB9D031211D11E9E031211D19F81
:102793009E031211D1EC9E031211D1779F031211E4
:1027A300D1C99F031211D1A0A0031211D159A103C2
:1027B3001211D1F4A1031211D10DA5031211D12DC0
:1027C300A6031211D1DAA9031211D1F8AA03121127
:1027D300D1FBAA031211D12AAB031211D130AD03DD
:1027E3001211D109AE031211D13EAE031211D1461B
:1027F300AF031211D1FCAF031211D19DB10312111A
:10280300D1C2B1031211D101B2031211D173B203B8
:102813001211D157B3031211D124B4031211D15A97
:10282300B6031211D1CBB6031211D10BB703121198
:10283300D16CB7031211D12FBB031211D11EBC03EC
:102843001211D105BD031211D17DBD031211D13F68
:10285300BE031211D13DC0031211D155C003121191
:10286300D169C0031211D1A1C0031211D1CFC0038A
:102873001211D156C2031211D161C3031211D1B384
:10288300C3031211D114C4031211D1C6C40312110C
:10289300D1EDC4031211D1D1C5031211D182C603E4
:1028A3001211D171C8031211D1A6C8031211D10E8E
:1028B300C9031211D13DCA031211D1EFCA03121178
:1028C300D120CB031211D138CB031211D1C7CB03C3
:1028D3001211D17BCE031211D153D0031211D16F38
:1028E300D0031211D18BD0031211D159D10312117C
:1028F300D13DD5031211D11484011211D14C84019D
:102903001211D12A89011211D17089011211D1BD7D
:102913008A011211D1288B011211D1B18C0112112C
:10292300D1C18F011211D1DC90011211D1EE9A01A4
:102933001211D1819B011211D1D39E011211D1CF5A
:102943009F011211D12AA0011211D174A1011211F8
:10295300D162A2011211D1FEA4011211D172A601FA
:102963001211D1F5A6011211D1F8A6011211D16DE0
:10297300A7011211D177A7011211D184A701121156
:10298300D1AFA7011211D15FA8011211D158A9012A
:102993001211D103AA011211D121AA011211D13AA4
:1029A300AA011211D163AA011211D185AA01121130
:1029B300D1DAAC011211D19FAD011211D1E4AD01F5
:1029C3001211D163AE011211D10FAF011211D14116
:1029D300AF011211D195AF011211D1D0AF01121174
:1029E300D117B0011211D167B0011211D16CB0012E
:1029F3001211D1C0B0011211D1ECB0011211D1D515
:102A0300B1011211D126B2011211D186B2011211F4
:102A1300D1E0B2011211D17BB3011211D1BAB601C7
:102A23001211D1CCB7011211D146B9011211D156ED
:102A3300BC011211D1F4BC011211D1EABF01121170
:102A4300D1A9C0011211D1EDC0011211D198C20157
:102A53001211D1ACC2011211D1B6C2011211D1C0EF
:102A6300C2011211D1CCC2011211D1F1C201121152
:102A7300D1CAC4011211D11FC5011211D129C50137
:102A83001211D133C5011211D1A8C5011211D1F709
:102A9300C5011211D108C7011211D155C701121175
:102AA300D162C8011211D1A6C8011211D14CC901BA
:102AB3001211D13FCA011211D105CB011211D12834
:102AC300CC011211D146CD011211D12ECE0112111A
:102AD300D146CE011211D19DCE011211D1A7CE0143
:102AE3001211D1B2CE011211D1D0CE011211D118CF
:102AF300CF011211D17ACF011211D1A1CF0112113D
:102B0300D1B3CF011211D14ED0011211D183D00113
:102B13001211D16AD1011211D1AFD1011211D19584
:102B2300D2011211D1BCD2011211D13FD301121122
:102B3300D1B0D3011211D139D5011211D165D6010A
:102B43001211D128D7011211D1F0D7011211D17A64
:102B5300D8011211D1A2D9011211D144DA011211F3
:102B6300D1BFDA011211D17BDB011211D1C5DB0117
:102B73001211D11FDC011211D1F7DC011211D11A8C
:102B8300DD011211D1CDDD011211D1EFDD011211E1
:102B9300D158DE011211D16EE0011211D166E101AB
:102BA3001211D12AE2011211D15CE4011211D1A652
:102BB300E4011211D1F6E4011211D15AE501121107
:102BC300D1BCE5011211D1EAE5011211D10EE601E2
:102BD3001211D143E6011211D174E6011211D1A7EA
:102BE300E6011211D1F7E6011211D14AE7011211E0
:102BF300D16FE8011211D10FEA011211D16AEA0172
:102C03001211D193EA011211D120EB011211D18ECD
:102C1300EB011211D19CEB011211D1C0EB01121186
:102C2300D115EC011211D130EC011211D1E2EC01FA
:102C33001211D11AED011211D15DED011211D1C0A2
:102C4300ED011211D1C2EF011211D1ECEF011211FA
:102C5300D1E3F0011211D1EDF1011211D19DF20175
:102C63001211D19773001211D1CF73001211D1F049
:102C730073001211D13274001211D1947400121125
:102C8300D19E74001211D1AE74001211D1E97400F7
:102C93001211D1C978001211D1B67A001211D19C48
:102CA3007C001211D1337D001211D1D57D00121198
:102CB300D18839001211D1333A001211D1E13A000F
:102CC3001211D1E73B001211D1073C001211D13090
:102CD3003D001211D1EB3E001211D15E3F001211E3
:102CE300D10240001211D10E41001211D1794100DD
:102CF3001211D1B541001211D1F841001211D13393
:102D030042001211D17542001211D10A430012116F
:102D1300D18643001211D15044001211D12D450028
:102D23001211D1C545001211D1DF45001211D10F87
:102D330046001211D14046001211D106470012116C
:102D4300D11647001211D16547001211D172470005
:102D53001211D17B47001211D1F947001211D1553D
:102D630048001211D1A048001211D1BB4800121122
:102D7300D1E648001211D10349001211D10F4900C5
:102D83001211D1A64A001211D1BF4A001211D14427
:102D93004B001211D1574B001211D1764B00121177
:102DA300D11A4C001211D19B4D001211D14E4F007C
:102DB3001211D1E44F001211D1E74F001211D15774
:102DC30050001211D17550001211D10C5100121183
:102DD300D15451001211D15751001211D11D52007B
:102DE3001211D18A52001211D1B052001211D13BEB
:102DF30053001211D15953001211D19F53001211D4
:102E0300D15354001211D19D54001211D1CC54004E
:102E13001211D12955001211D15E55001211D18A18
:102E230055001211D19855001211D1E55500121118
:102E3300D15556001211D19E56001211D1EA5600F7
:102E43001211D11657001211D12157001211D13F7F
:102E530057001211D12A58001211D13458001211FF
:102E6300D16F58001211D17F58001211D1D35800DD
:102E73001211D1E758001211D1165A001211D12B99
:102E83005A001211D1B95A001211D1FE5A0012116F
:102E9300D18A5B001211D1955B001211D1D75C006E
:102EA3001211D1F25C001211D13E5D001211D1ADAD
:102EB3005D001211D1E65D001211D1005E00121106
:102EC300D1605E001211D1FF5E001211D14A5F0082
:102ED3001211D11A62001211D1CC62001211D13930
:102EE30063001211D17965001211D191650012119D
:102EF300D19465001211D1A065001211D1B46500FF
:102F03001211D1BC65001211D1EF65001211D1F27B
:102F130066001211D17F67001211D1EF6700121101
:102F2300D17168001211D13269001211D1516900B7
:102F33001211D1F269001211D14F6A001211D1524C
:102F43006A001211D1C66A001211D1156C00121158
:102F5300D11B6D001211D1A66D001211D1C16E00EB
:102F63001211D1896F001211D1BA6F001211D1DD84
:102F73006F001211D1E66F001211D11570001211FA
:102F8300D1A570001211D15B71001211D1D0710063
:102F93001211D17772001211D1EC72001211D123E8
:102FA30073001211D16173001211D151E003121198
:102FB300D15FD5031211D185FD031211D151FD0348
:102FC3001211D1FAFC031211D183FB031211D1D5D3
:102FD300FA031211D1CBFA031211D1C1FA03121160
:102FE300D15AFA031211D13FFA031211D19CF903FA
:102FF3001211D19CF8031211D10DE0031211D18AE1
:10300300FA021211D1BAF7031211D1AAF503121160
:10301300D177DE031211D117DE031211D1B8F403F5
:103023001211D156F4031211D1F1FD041211D1E79B
:10303300FD041211D17CFD041211D1B0FB04121155
:10304300D16EFB041211D17AFA041211D14EFA0493
:103053001211D105FA041211D146F9041211D13516
:10306300F6041211D1EDF3041211D19DF3041211E0
:10307300D137F3041211D1F6F2041211D128F2045C
:103083001211D1C2F1041211D161F1041211D10153
:10309300F1041211D19FEF041211D133EF04121175
:1030A300D187EE041211D182EE041211D1E7DD03B0
:1030B3001211D176EE041211D13BDD031211D1D4DA
:1030C300DA031211D18BD7031211D1DFD6031211F8
:1030D300D14DD6031211D107D6031211D141EE04FB
:1030E3001211D1D3EA041211D1D0EA041211D183FF
:1030F300EA041211D1D2D5031211D171EA041211CB
:10310300D167EA041211D136EA041211D131E8046D
:103113001211D1BCDF031211D1A4E7041211D1584B
:1031230090061211D160E7041211D134E704121191
:10313300D101FE011211D1D4FD011211D1A1FD0162
:103143001211D179FD011211D11AFD011211D1FA17
:10315300FC011211D1C5FC011211D171F901121137
:10316300D159F7011211D143F5011211D1C3F40161
:103173001211D16FF4011211D17BF3011211D19FFE
:10318300D5031211D123F4011211D175F5020000F8
:103193000080FB000022E4738F0001002E1A8700D9
:1031A30001002C1A35000400F21925000200F6195B
:1031B30026000200F81927000200FA19280001006E
:1031C300041A29000100051A840004009C168600D5
:1031D300010018192A000100061A2B000100071A22
:1031E3002C0001000C1A2D000800AA162E00010065
:1031F3000D1A2F0001000E1A300001000F1A3100C2
:103203000100101A32000100B21633000100B31698
:1032130034000100111A36000100B4163800010011
:10322300121A390001000B1A830002002A1A6300E4
:103233000100BF1664000100081A65000100091AA5
:103243006D000100C01671000800A216660001009F
:10325300291A430001001A1A440002001B1A4500F0
:1032630001001D1A460002001E1A47000800B71687
:1032730048000100201A4B000100211A040001003C
:103283002D1AA1000100311A37000100301A8800FD
:1032930001002F1A3C000100B5163D000100131A6E
:1032A30049000200221A67000100C1164D00020006
:1032B300241A4E000100261A4F000200271A3E006E
:1032C3000100191A51000100151A52000100161AC3
:1032D30053000100181A54000100B6160000000044
:1032E30000000000000020010E8400000100200106
:1032F300108400000200200112840000030020015A
:103303000F84000004004201968200000500420180
:103313008E81000006004201718200000700300127
:103323001384000000404201D8820000FEFF210107
:103333000C8403000000212383150300FEFF2101F9
:103343000C84020400002905A81902041002292391
:103353009819030400002905AE1903041000290578
:10336300B019030414002801B219030410022B231B
:103373009A19050400002105AC190504100229233C
:103383009E190D0400003905A2190D040202102331
:103393008B190D04030210238A190D04040221233F
:1033A3008C190D04050221238E190D0411F110232C
:1033B300A0190001363601010001020100010301D9
:1033C300000104010606050200000701003408019C
:1033D300000F090401010D0100FF0E080000170290
:1033E3000000190100FF1A0100011B0100FE1C016E
:1033F30000081D0200001F0100012001000121023D
:1034030000002301000F2402000026010001270110
:103413000008280200FF2A0100072B0102402C01AB
:1034230000002D0100012E0100012F0100FF3001DA
:103433000B1D310800003A0100083B01000F3C015D
:1034430000013D0100FF3E04000042040000460469
:1034530000004A0400004E04000052040000560419
:1034630000005A0400000103710301030103010377
:1034730001030103220302030103100300030003FA
:1034830000030003000300030003420300032403BB
:103493000603000300030403120325032303250388
:1034A3002303040304030003000300034403000392
:1034B3000003230300036503210035038103000395
:1034C3000503000300030003000325032303030292
:1034D3007102300160021102700201020202020253
:1034E3008002100261023A00410063027302720219
:1034F30062024302000213023800000200020402C7
:103503001202000200020002000204020402370059
:1035130037003C0244020002390000020002650247
:1035230000023502810200020502820283020002C8
:10353300030471040204600411047004020402040D
:1035430001040204100461040004140463047304FA
:103553007204620443040004130406040004000418
:103563000404120400040004000400045104640071
:1035730000040004000444040004000400040004E4
:103583006504000435048104640005040004830415
:103593000004010171010101010111010101310166
:1035A300010101018001100161013B00140063016D
:1035B30073017201620143010001130106013D0120
:1035C30035000401120100010001000100010401A2
:1035D3000401330133013C0144013201360000018F
:1035E300000165010001350081010001050182012F
:1035F30083010001030071003001600011007000BD
:103603003102200350048000100061000000140008
:1036130063007300720062004300000013000600A1
:103623000000000004001200000000000000000081
:1036330004000400370037003C024400000000008F
:103643000000000065000000350081000000050057
:1036530000008300000036000100060000000F0098
:1036630000000000000000000000000003FFFF0056
:10367300000403FFFF0000FFFF0FF4010005C40473
:103683000320000100000B00000000000000000305
:10369300010F000000000000000000000000000017
:1036A3000000000000000000000000000000000017
:1036B30000000000351E5F1E3B1E691D411E651E76
:1036C300411E711E471E691D411E651E4D1E691D4B
:1036D30000000000531E691D0000000000000000F0
:1036E300591E691D000000000000000000000000DA
:1036F30000000000000000000000000000000000C7
:1037030000000000000000000000000000000000B6
:103713001300F3201F00F9201F80FF200000592110
:103723000100592102009F20028099200300A52057
:103733000400AB200480B1200500B7200600C3209D
:103743003100D5203300DB203400E1203600E720B0
:10375300FFFF00002B0400003905B5192B041002EC
:103763002823A1192B040402212390192B040502F9
:10377300212392190C0055003905B9190C00850154
:103783003905BD190C000402212394190C0005020C
:10379300212396190A000000020000000400000023
:1037A300080000001000000020000000400000009E
:1037B300800000000001000000020000000400007F
:1037C300000800000010000000200000004000007E
:1037D300013329066329085D290B812910812602FB
:1037E3003929055129073F290C1B290D27296477FE
:1037F30024FF000007ECFDFDFDECDCDCCCBCACAC35
:103803009C9C8C7C7C6C6C5C5C5C4C4C3C3C2C2CA5
:103813001C1C03EAF5E5D5D5C5B5A5959585857534
:103823007565655555454535352525151505001629
:103833000F00000B150B020002220F3300000E0FC6
:10384300D0D1D2D3D4D5D6D7D8D9DADBDCDDDEDFFD
:103853005A6967426565416C6C69616E63653039AD
:103863000000000000000000000000000000000055
:1038730000034D4C4651181A25050230301718190C
:1038830021301B1D1F3000011916181616182303AB
:1038930000003C40423A3F3F392F47303030161842
:1038A3001920231A1C1E300C0E020B040B0A0708E6
:1038B300000F02040201010101090200BE040AE82B
:1038C3000300000000010003007F0000001A00E86D
:1038D300030A0A09100800030A0C101A08081E1E1E
:1038E3000C2800FF030215033C180A10150405E415
:1038F300F0A3F0A3F0A3221238F2F02290180A12D8
:103903004EFE122D1D2212390D22E0F508E4F509B1
:10391300F50AF50B22E824FBF582E934FFF583224F
:10392300E82411F582E439F583E022F58312393472
:1039330022E0F508A3E0F50922122F99740412126C
:10394300017F08020F307401F090057CE0640F22C0
:1039530074091212017F04020F30EA2413FAE43FC0
:10396300FB122EC7E9227905122ED3740622A3A3D4
:10397300E024F5C3941322122FA590059C126EBC6C
:103983007A147B0022C082C0839017E97411F0A3DC
:10399300742DF0A37423F0A3742DF09017ED74F934
:1039A300F0A3742CF0A374F3F0A3742CF0A3742F7E
:1039B300F0A3742DF0A37435F0A3742DF0A3742930
:1039C300F0A3742DF0A374E1F0A3742CF09017F915
:1039D3007405F0A3742DF0A3740BF0A3742DF0A35E
:1039E30074FFF0A3742CF0A3743BF0A3742DF09038
:1039F300180A1258CD600990180A124EFA121C3791
:103A03009018071252147408126569A3F09018B342
:103A1300F090180CF07C0BFDF97A0D7B18121B89C2
:103A23007C0B7D0079007A187B18121B8902506E7B
:103A330074F7120C2974F71212B4EAFEEBFF123A70
:103A4300C674051253327403F0123BDD125314246F
:103A530030FCE43FFD8C82123ABE123AD260081267
:103A630042EB74FFF0A3F0EE242EE43F1C1CFD8C0C
:103A730082F583A3E0C0E08A828B83124FC6D0E035
:103A8300123AD2888289831258012403F0EE12423B
:103A9300F51215587403F0900591120FFF7402127A
:103AA3001294123EBF121201E9F5087007EEFAEF05
:103AB300FB122DADA9087409024304F583E0888243
:103AC300898322EA123ACB22125A103FF58322123B
:103AD30067E9125320E8F0A3E9126AC0E02274F008
:103AE300120C29EAFEEBFF8C0C8D0D890B123BDDCA
:103AF300F5831253287410121558E0F508A3123AEF
:103B0300C0F0E824FFF582E9123ED1E508F0E8248D
:103B1300FEF582E9123ED1E50BF0900596E0C0E098
:103B2300E824FDF582E9123ED1D0E0F0900595E05E
:103B3300C0E0E824FCF582E9123ED1D0E0F0741233
:103B4300121558123930123918E509F0E824FAF839
:103B5300E934FFF98882F583E508F0EE2404FCE4F8
:103B63003FFD88088A828B83E0F50E8C828D83E08B
:103B7300250EC395081267E912514E850C82850DF7
:103B830083A3A3A3A3A3A3A3A3E064037009EE12D7
:103B93005302F0A3E48003123ED6123EDE7409F012
:103BA30075080D750918750A00780812122012623B
:103BB300B31212017508FF7509FF7808121224ACBD
:103BC3000CAD0D123EBF121201E9F5087007EEFAB3
:103BD300EFFB122DADA908023944EA2402FAE43FAF
:103BE300FB8A8222C082C083901829E0C3940840D4
:103BF3000474078001E08A828B83F033333354F8F3
:103C0300F902506E74F0120C298A088B09890A8C08
:103C13000E8D0F750C00A2AFE433F50BC2AF9018F5
:103C2300238045123D09503D123D2364037036E560
:103C33000824F9F508E50934FFF5098E828F83A37B
:103C4300A3E02405FCA3E03400FDAA08AB09121D80
:103C530027E50824FFF508E50934FFF50974102565
:103C63000CF50C150A1240F8127271E50A6004EEA5
:103C73004F70B0E50BA2E092AFA2AFE433F50BC2F5
:103C8300AF901823803E1257DA8882F583124A4E8A
:103C9300850882850983F08A828983123D1AA3A34A
:103CA300E0C0E0E50824FFF582E509123ED1D0E04B
:103CB300F0E50824FEF508E50934FFF509050C15C0
:103CC3000A1240F8123F4C6021123D23640270F146
:103CD300123D09EE40B0125449A2E550E4850E822C
:103CE300850F837401F0E50A70D7E50BA2E092AF6C
:103CF300850882850983E50CF0E50824FFFAE509C8
:103D030034FFFB023944123D0FA2E622EE2411F5E3
:103D130082E43FF583E022123D1E2212581FA322A4
:103D23008E828F83A3A3124FCA125EF62274F012FF
:103D33000C2974F31212B47403121558E9F07402C7
:103D4300121558EAF08B0B852182852283E4F00457
:103D530012128C122CC3E9F890057BE0292437F565
:103D630008FA7B00121B9B8A0C8B0DAE0CAF0DEA7D
:103D73004F7003023EB6EA2402F50EE43FF50FA8A6
:103D830008EA28F8E43BF9850E82850F8312484A36
:103D930090057BE0F9FAC3E49AFA95E0FB850E827D
:103DA300850F83E02AF50CA3E03BF50D900579120E
:103DB3003930750A007808121220E9FC7D00AA0C3C
:103DC300AB0D125284121201AC21AD2274011215F3
:103DD30058E0F9E50C24FFFAE50D34FFFB122CC97A
:103DE3008A828B83E4F0E50BC454F0F99018B4E0B5
:103DF300C4333354C0F8900575E0A2E0E4331313E1
:103E03004849440FC0E0EA24FFF582EB123ED1D0CB
:103E1300E0F0EA24FEF50CEB34FFF50D7403121504
:103E230058E0F87402121558E0C454F048850C8227
:103E3300850D83F0A80C850E82850F831265362AC3
:103E4300C3988E828F83A3A3A3A3F0850E82850FCD
:103E530083E8F0A3E50DF0123ED6123EDEE4F074E3
:103E63000C121558E4F07508187509187808121221
:103E7300201262B3121201852182852283E0600938
:103E8300EE240E12544B4408F0122EB5E9F9E4F572
:103E930008F50978081212247406121294123EC10E
:103EA300121201E97006EEFAEFFB800BEEFAEFFB5C
:103EB300121BA17A007B00740D0239417903EEFADB
:103EC300EFFB122ECD740222EE24FFF582EF34FFB6
:103ED300F58322EE123ACBE4F0A322F0123EE32262
:103EE300EE1261D63FF5832274F2120C298A0C8BF1
:103EF3000DA2AFE433F50AC2AF750800750900904F
:103F03001823802C1241085024850C82850D83A32D
:103F1300A31262C68E828F83A3A3124EFA122EBB04
:103F2300E9600A124103C2E6F08E088F091240F8D5
:103F3300123F4C70CFE50845096006123FE5D2E613
:103F4300F0E50AA2E092AF800DE0FEA3E0FFEE4FA2
:103F53002274021212017F06020F3074F0120C2930
:103F63008A0E8B0F8C0C8D0D750A00A2AFE433F50E
:103F73000BC2AF7E007F009018238010AE08AF09FC
:103F8300123FDD125449D2E7F0124ED8124EEC60C4
:103F930034123FE5A2E750F1850882850983A3A384
:103FA300120FFFAC0CAD0DAA0EAB0F122EC1740293
:103FB300121201E960D3EE4F60C212437F70061202
:103FC3003FF7D2E4F0E50BA2E092AFEE4F600612AA
:103FD3002DA7750A01A90A023944123D0FD2E4F054
:103FE300EE22E5081261F03509F583E022AA82ABDF
:103FF30083121D278E828F83A3A3124FCAE02274DC
:10400300F2120C2974FE1212B4750C00750D0085A2
:104013002182852283E4F0A3F0A2AF33F50AC2AF75
:10402300901823127271802BEE24FBF582EF34FF7C
:1040330012392E780C1212241240E6121201EEFCF1
:10404300EFFDAA21AB22121BBFAE08AF09901829BE
:10405300E014F0EE4F602B124108501DEE240BF8D4
:10406300E43FF98882F583E024FFF0A3E034FFF016
:10407300888289831258CD60AF8E0C8F0D1240F861
:1040830080A1E50AA2E092AF901829E0602C900588
:104093007CE0640F60069018B3E0701E7A017B1811
:1040A300122FA5908408120FFB7A017B181250F689
:1040B300121201800574F0124FD7AA21AB22121BF2
:1040C300C58A088B09AE08AF09EA4F6013122CD5D5
:1040D300124103A2E28E828F83A350D974E980D761
:1040E300023F54EEFCEFFD7A237B18121BD17402BE
:1040F300228E0A8F0BEE24FBF582EF34FFF5832229
:10410300EE123D1022123D0FA2E72274F7120C2982
:10411300EAFEEBFF122CD5124FC3123199E9640169
:10412300900598700AE02401F8A3E034008003129C
:104133004F49F912564B12514E901829E0701F90B7
:10414300057CE0640F70177A017B18122FA5908409
:1041530008120FFB7A017B181250F6121201A8A85D
:10416300C2AF901829E004F0E8A2E78004E508A2B2
:10417300E092AF02555974F7120C29EAFEEBFFEAFD
:104183001241AFF0122CD5EEFCEFFD7A237B18120F
:104193001BCBA8A8C2AF901829124A9D90057CE0BA
:1041A300640F70057908122E6D025559123D10C225
:1041B300E42274F7120C2974EA1212B4EAFEEBFF3C
:1041C300900575E0602A8521828522837401F012AF
:1041D3001558E412426A121558123FF0C0E0740AEF
:1041E300121558D0E0126556740B1215581257B6B3
:1041F300741602430474F7120C29EAFEEBFF122C27
:10420300B7E9F974DC69601E74DD69601974E469E7
:10421300601474F369600F74DE69600A74DF6960A7
:104223000574DB697007EEFAEFFB122E7302555922
:1042330074F7120C2974EB1212B4EAFEEBFF85211A
:1042430082852283740612426A121558AA82AB83AE
:10425300121D27EE2408FCE43FFD740A12155812C0
:1042630057B67415024304F0EA2413FCE43FFD74CB
:10427300022274F7120C2974F71212B4EAFEEBFF50
:10428300EA243012544B605DEA1242F51215587459
:1042930003F0900591120FFF1242EB120FFF9005EE
:1042A300A4E0F97404121294EEFAEFFB122CBD741D
:1042B30004121201E9F974DC69602374DD69601E7C
:1042C30074E469601974F369601474DE69600F74CF
:1042D300DF69600A74E869600574DB697007EEFAE8
:1042E300EFFB122E73023AB9EE242EF582E43FF56A
:1042F30083221266C7AA21AB22121D2774082274D7
:104303000312120102555974F2120C298A0C8B0DF7
:10431300750A00750B007508E7A2AFE433F509C20F
:10432300AF90182380031240F4123F4C60251241D2
:104333000850F312437F70EEEE2432124516E06804
:1043430070E4780A1212241240E61212019018291E
:10435300E014F0E509A2E092AFEE4F6013EEFAEF3E
:10436300FB122CD579F0EEFAEFFB122E73750800D1
:10437300A908AA0CAB0D122E73023F59123EE3E0BB
:1043830064012274F4120C2974F71212B4EAFEEBDE
:10439300FF8A82F583A3E064F370030244248A82D4
:1043A3008B83A3E064DF60798A828B83A3E064E874
:1043B300606F8A828B83A3E064DB6065122D17E94B
:1043C300F5087055EE240E12544B604D12442E60C6
:1043D30048740812155812443D120FFF7508FF75F3
:1043E30009FF78081212248E828F83A3A3A3A3A3A9
:1043F300A3A3A3E0F97404121294122CBD74041243
:104403001201E9F50874F369600F74DF69600A74D7
:10441300E869600574DB69700F8E828F83A3E508FA
:10442300F0EEFAEFFB122D23023953EE240FFAE4D8
:104433003FFB7909122D59EA4B227402125CBC74BA
:10444300FFF0A312444A2212580AA3A32274F112C2
:104453000C29EAFEEBFF7508008A82F583A3A3A368
:10446300A3A3A312397140037508E88A828B83A33F
:10447300A3A3A3A3A3A3A3A3A3E0C394104005757D
:1044830008E880138A828B83A3A3A3A3A3A3A3A374
:10449300A3A3E0640F600B901890E05408700375B9
:1044A30008E8EA240B124516A3A3A3A3A3A3A3A37B
:1044B300E0C398500DEA240B12544B640F6003754C
:1044C30008E8900595E0F47003A3E0F47003750821
:1044D300EC7A237B00121C318B0BA90B90180A1268
:1044E300452560278E828F83A3A3A982AA83890C83
:1044F3008A0D750E00780C1212207C237D00901813
:104503000AE0FA125284121201800375081AA908EC
:104513000262AEF582E43FF583E0F88A828B83A3DF
:10452300A322EAF0A3EBF0EA492274F5120C29EA7C
:10453300FEEBFF8A82F583A3A3A3A3A3A3A3A3E014
:1045430090057C1245BDE0900597F0EA240B1254C8
:104553004B9005771245BDA3E09018B4F0F91219FA
:10456300EB9018B4E0600BEE240412543D240612C1
:1045730045B39018B3123949600474018002740082
:1045830090180C126C011212207C0B7D007A0D7BAB
:1045930018125284121201EE2418F508E43FF509AB
:1045A30078081212207C0B7D007A187B1802527156
:1045B300FAE43FFB79E11219D322126BEBA3A3A315
:1045C300A32274F7120C29EAFEEBFF8A82F583A378
:1045D300E070031238FF12677202555974F7120C18
:1045E30029EAFEEBFF90180A1258CD601090180AC2
:1045F300124EFA90180AE4F0A3F0121C378E828F41
:10460300837408124FDE12233302555974F6120CC9
:10461300299018B3E0601090180CE0700A12462D30
:10462300EA4B6003122DAD02686C900577E0FB90B6
:104633000597E0FA90057CE0F9122CCF2274F4126E
:104643000C2974E71212B4EAFEEBFF750B018A82A0
:10465300F583A3A3A3A3A3A3A3E0A2E25069EA243F
:104663002BF582E43F1262C4EA2413FAE43FFB12FF
:104673002CDBE970529082D6E064017005750B0063
:1046830080451246FF1212207C0B7D00741112121A
:104693008C125284121201122EB5E9FA740E121200
:1046A300848808890978081212247508307509006E
:1046B3007808121224EE12651F120FFF1266B979E1
:1046C3000112396B1212018521828522837410F045
:1046D3001266B97402121558AA82AB83121D1BEE1F
:1046E300242B126EB2740B12155812514E740D1204
:1046F3001558E50B12692B7419023955EE2408126B
:104703006C0922C082C0839018B4E06003122F2783
:1047130002506EC082C0839018AB74E9F0A3741783
:10472300F0A374EDF0A37417F0A374F9F0A3741756
:10473300F0901ADC7433F0A37435F090189574B1CB
:10474300F0A3742CF090182E74E7F0A3742CF0905F
:10475300183074EDF0A3742CF0901890E04402022A
:104763004B72C082C083EAFCEBFD7903025879C027
:1047730082C08379080269ECC082C08374FE12127E
:10478300B49018367495F0A3742DF0901838748F84
:10479300F0A3742DF080077A237B181247D7901863
:1047A300231258CD70F19018251258CD60097A253F
:1047B3007B181247D780EF901823E4F0A3F09018EA
:1047C30029F0A3F0A3F090184474D1F0A3742DF052
:1047D3007402801C121BC5852182852283EAF0A303
:1047E300EB1247EB122EA322F0AA21AB2222741163
:1047F30012120102506E74F6120C29E9FF74942907
:10480300F582E43438F583E493FEFA7B00121B9BB4
:10481300EA4B6007EA2E12484780267A027B001291
:104823001B9BEA4B6017747E2FF582E43438F583C3
:10483300E4938A828B83F0A3741A124C107A007B60
:104843000002686C12513DE81267E6A3A3A3A3E438
:10485300F022E9FC740629F8EAA2E0501EE875F09C
:104863000A84E5F0F96014740A28C399F8E9C3943B
:10487300054004740A28F8740B28F8ECC394134019
:1048830004791480027906E82979002409F8500193
:10489300097A0A7B001209C7E8F90211CEC082C067
:1048A30083901890E05402600A122339E960047976
:1048B300018002790002506EC082C083901890E09C
:1048C30054026014901829E0700A1258CA60091241
:1048D30048E0500479018002790002506E123923B6
:1048E300A2E722C082C0839082D3E0F890182BE025
:1048F300C3985005121B9B80047A007B0002506E04
:10490300C082C083122EA3790002506EC082C0837E
:1049130074FE1212B4852182852283EAF0A3EB127E
:104923004A79A3A3A3A3A3E0600A14605724FE60FB
:104933005A0249E990057CE0640F6012122E79E96E
:10494300700C124EF4901832124FC6123199900522
:10495300A4E0C0E08521828522831257EDD0E012C6
:104963004A79741412620AFCA3E0FD7A257B1812BB
:104973001BBFA8A8C2AF90182B124A9D7920122EF4
:104983006D0247D3124D47741580D9124D47A3A327
:10499300A3A3E06051124D47123FFBC0E085218283
:1049A300852283E02406F582E43BF583D0E012629E
:1049B3000A2402F8A3E03400F98882F583E0240195
:1049C300FAA3E03400FB88828983EAF0A3EB126246
:1049D3000A124D878521828522836013124A4E6015
:1049E30005124A604048AA21AB22122EA3809212DC
:1049F3004A4E60F2124A605021124A6DFA852182B2
:104A0300852283A3E0C82406124D43F874B4125AD6
:104A1300023438F583E4936A601485218285228306
:104A2300124A4E640870BF124A6D640870B8124A85
:104A33006D14124A81240AC0E085218285228312E3
:104A43004FC6D0E0124A8104024967124A52221229
:104A53004F49C82406F582E438F583E02285218294
:104A6300852283124A52C3940A2285218285228396
:104A7300123D1EA3E022124A8BF583888222124A3A
:104A83008BC82406124D7122F08521828522831260
:104A93004F4922A8A8C2AF90182AE004F0E8A2E781
:104AA30092AF22C082C08390183A1258CD60081288
:104AB3004D4E1231998002790002506E74F7120C38
:104AC30029EAFEEBFFEA123EE474011250FCF8A35C
:104AD300E0F9123AC612514EEA243512544BC0E0A3
:104AE300EA2413F582E43FF583D0E0F0EA2436129A
:104AF300544BC0E0EA2414F582E43FF583D0E0F0A0
:104B0300EA243812544BC0E0EA2418F582E43FF556
:104B130083D0E0F0EA242FF582E43FF583120FFF00
:104B23001266C6EA243112544BF9123EC512120121
:104B3300E9F5087007EEFAEFFB122DADA90802554F
:104B430059C082C083122E79E960047920800279EA
:104B53000102506EC082C083EA2411124B68D2E076
:104B6300800DEA240DF582E43BF583E022F0A3F007
:104B730002506EC082C083124B6564017011124CE7
:104B83000A400C8A828B83A3E0F9122E738066128B
:104B93004BFBA2E650128A828B83A3E0F990183470
:104BA300124FC6123199804D124B656401700D127C
:104BB3004C0A50088A828B83743080368A828B83B6
:104BC300A3E0641B8A828B83700474228024A3E095
:104BD300700D124B65F8749F125A023438800B1211
:104BE3004B65F8747E125A023438F583E4938A8253
:104BF3008B83124C1002506E124BFF22EA2410F5E5
:104C030082E43BF583E022124BFFA2E322F09018EB
:104C13008BE0F9121BA72274F7120C29E9FE125834
:104C2300CA7003024D40EE6014741B6E701AE812D2
:104C330061D639F583E064057003024D1890182D91
:104C4300124D4EA3E4024D1F74E96E7068E82412FE
:104C5300F582E439F583E0700B12233FE960051216
:104C63004D91606179EE12195590182C124D689090
:104C7300182C603A124D9490182C700B124D681436
:104C8300F0121B0B024D40124D86C2E7124F2F2428
:104C93000D124D4364037009124D61124EE5D2E2C9
:104CA300F079ED121955124D791231998078124D20
:104CB3005474E9806774E16E703E12233FE96055D6
:104CC300124D91705090059EE0C0E0124D61241288
:104CD300F582E438F583D0E0F090058DE0C0E090F4
:104CE300182C124D5D124D5DD0E0F090058DE0045F
:104CF300F07901121AF38045741C6E701890182C09
:104D0300124EFA90183C124FC612319990182CE4A7
:104D1300F0A3F0802890182C124D54EEF090182C2C
:104D2300124EFA122D9B124F10E054806003126949
:104D3300DB90182CE4F0A3F07910122E6D02555974
:104D4300124D7122852182852283A3E0F583888217
:104D530022124D5822124FCEA32212581B22901812
:104D63002C1257FC221257FC2412124D7122F58289
:104D7300E438F583E02290182C124EFE901830127E
:104D83004FCA22E0F8A3E0C82410124D71229018F4
:104D93002C124F17E054042274F4120C29750A00E4
:104DA300750B00A2AFE433FEC2AF1258CA60030210
:104DB3004E8E124FC3123199E94410F89018238094
:104DC3000985080A85090B124ED8124EEC700302AE
:104DD3004E8E123FE5586870E8780A121224AC0828
:104DE300AD091240EA12120190182CE508F0A3E570
:104DF30009124F2F124EE5A2E75003024E95901869
:104E03002AE014F0EEA2E092AF90182CE0240EF802
:104E1300A3E03400F9E8FEE9FF8882F583124EFA35
:104E230090182C124A73F9122D5FE9901827126516
:104E3300698E828F83E054806018124D61241312AF
:104E43004D43F9121A0F124D612414124D43F912F6
:104E53001A03124F10A3E05401605F9018271258F1
:104E6300CD6045124F266040124F26F87900901806
:104E730027124EFA1209CFE8C0E0124F04D0E01215
:104E83004F34C3941340117402800FEEA2E092AF2B
:104E93008037901829024E047400C0E090182DE06A
:104EA300C8124ECFD0E0800D124F047401124F2F61
:104EB300124ECF7401F07903800C90182C124D869A
:104EC300A2E1B3E433F9121AF3023958241AF58232
:104ED300E438F58322E50824FBF582E50934FFF580
:104EE30083221261F0124D7422123934E508450908
:104EF30022852182852283124EFE22E0FAA3E0FB63
:104F0300221257F92419F582E438F5832290182CDC
:104F1300124F1722124F49C8124F1F22125A10382C
:104F2300F583221257F92418124D7122124F41C8EA
:104F330022124F41F5838882A3A3A3A3E022F0901A
:104F4300182C124F4922E0F8A3E02274F7120C291F
:104F5300EAFEEBFF122E9D125448A2E3400A1243CD
:104F63007F70059082D180039082D2E0F9EEFCEF4E
:104F7300FD7A237B18121BD7E96038EEFAEFFB901A
:104F83001836124FC6123199EE240E12544B5404A4
:104F93007012124A96EE123AC7A3E05401701E1221
:104FA3002DA78019EEFAEFFB90182E124FC612317F
:104FB30099800A8E828F83A374F1124FD7025559B9
:104FC300901838124FCA22124FCE22E0F8A3E0F510
:104FD30083888222124FDE122D9B22F0EEFAEFFB22
:104FE3002202506774F7120C29EAFEEBFF79009056
:104FF3001890E05402700CEA243312544B540460AA
:105003000279E8901890E05460700CEA243312544B
:105013004B5402600279E88A828B83A3A3A3A3E0A3
:10502300F89082D7E0C398500279E8EA2431125409
:105033004B700CEA242E12544B700479F5800BE963
:105043007005122D89E9F9E96007EEFAEFFB122EDC
:1050530073025559C082C0838A828B83740DF01208
:1050630023338007C082C083122DA7D083D082024E
:1050730011CE74F4120C29EAFEEBFF8A82F583E465
:10508300F0A31250FC54049082D17012E0F89018EF
:105093002AE0C398401279F1122E73023958E0F8CE
:1050A300901829E0C39850EE125102A3E054016016
:1050B30037EA243712544BC394054033EA2433129E
:1050C300544B540570297A3E7B18122FA5EE2437D2
:1050D300F582E43FF583123909780812121C7A3EEF
:1050E3007B181250F6121201EEFA125AF380AC79C1
:1050F300E880A5122F99740422F0125102E022EAEB
:105103002433F582E43FF5832274F6120C29E9FE79
:105113002451FAE43400FB121B9BEA4B6015EE8A20
:10512300828B83A3A3A3A3F0EA245112513D12510E
:105133004E80047A007B0002686CF8E43BF98A82B3
:105143008B83A3A322126EBC901908E8F0A3E9F0A5
:1051530022025067C082C08390184774FBF0A37487
:105163002DF0A3742BF0A3742EF0A37401F0A37499
:105173002EF0A37407F0A3742EF0A37425F0A37488
:105183002EF0A37419F0A3742EF0A37413F0A37478
:105193002EF0A37431F0A3742EF0A37437F0A3742C
:1051A3002EF0A3743DF0A3742EF0A37449F0A374FE
:1051B3002EF0A3740DF0A3742EF0A374F5F0A37472
:1051C3002DF0A374EFF0A3742DF0901863741FF007
:1051D300A3742EF0A37443F0A3742EF0A3745DF0B4
:1051E300A3742FF0A3744FF0A3742EF0A37455F09F
:1051F300A3742EF0901887E4F090188AF090187337
:105203001252147402F090187C1252147401024B5F
:1052130072746DF0A3742EF0A32274F5120C29742A
:10522300F11212B48521828522837402F074011273
:105233001558E9F060047AFF7BFF740212155812C7
:105243005CB175087F750918750A00780812122079
:105253007C0B7D007407121558AA82AB831252840B
:10526300121201AA21AB22122333740F80031252AC
:10527300841212017F03020F307C0B7D007A7F7B47
:1052830018121B7D74032274F7120C2974FD121279
:10529300B4852182852283740AF07401121558E9BA
:1052A300F07402121558EA12692B02430274F612C3
:1052B3000C2974F71212B4EAFEEBFFEA125302123E
:1052C30053327402F0EA2428FCE43FFDAA21AB2206
:1052D300121D1BEE2431125308243312632A1212B7
:1052E30024740212129479831A1A123EC312120101
:1052F300E9F5087007EEFAEFFB122DAD02686512AF
:105303003ACB740122F582E43FF583123934125704
:10531300D2F583125320E8F0A3E9F0EE22125328CA
:105323008A828B8322E024FFF8A3E034FFF922F082
:10533300A3E4F0EA123EE42274F0120C29126D9AEF
:105343001214E57808790C120AC2780812121C7A32
:10535300767B1802393C74F4120C2974C61212B409
:1053630090057CE0640F600D852182852283742E75
:10537300125CD080227A6D7B1812397A1209CF8899
:10538300088909E4F50AF50B780812121C7A6D7B7B
:10539300181250F6121201743A02395574F5120CB0
:1053A30029EAFEEBFF8A82F583A3E0F87078EA240A
:1053B3003012544B64026007E06403600278E8EA49
:1053C3002426F582E43FF583123973400478E8809C
:1053D30058E87052EA24261245B3EE243112543DA4
:1053E300243012544B6402700EEE2428126EB290D5
:1053F300058B12514E801790058B74FEF0A304F0B9
:10540300EE2428FCE43FFD7A827B05121D27EE245F
:105413001B12470212122012527C121201EEFAEFF3
:10542300FB122DE9E9F8E8600EE88E828F83A31260
:1054330066CE7417126778025277FAE43FFB79500D
:105443001219D3EE22EE2410F582E43FF583E02215
:1054530074F6120C2974F71212B490188AE070379C
:105463007401F0F9121ABDAA21AB22122EAF7508EE
:105473007F750918780812122475080175090078D8
:1054830008121224900591120FFF74061212947AD7
:105493000312396912120102686774F7120C291298
:1054A30056797004A374EBF090188AE0A2E25003DB
:1054B300C2E2F0E0A2E1500512568A80098E828F83
:1054C30083742A12677802555974F4120C2974FEF6
:1054D3001212B412557F1257C5EC8521828522839F
:1054E300125814E0F50B7015AA21AB227953121947
:1054F300D3EE2413FAE43FFB794A1219D31246FF81
:1055030012122012527C121201124EF4A90B122D08
:10551300DD90188AE0A2E1500312569190188AE4B4
:10552300F0740202395574F7120C29EAFEEBFF8A74
:1055330082F583A374EBF090188AE0A2E150077A16
:105543000079EB122DE3EEFAEFFB122E198007EE32
:10555300FAEFFB122F1B7F01020F3074F7120C2995
:1055630012557F901887E4F090188AF07AFF7BFF3A
:105573008E828F83A3E0F9122DDD80DA1256CA7A68
:10558300767B18122FA52274F7120C29EAFEEBFF83
:10559300122E1380BA74F7120C29125707A3A3A370
:1055A300E060047400800274EB1255D85003C2E229
:1055B300F0E0A2E150051256DB8011A2E0500D8EFF
:1055C300828F83742AF0A374EB126778EEFAEFFBF1
:1055D300122DBF80818E828F83A3F090188AE0A260
:1055E300E22274F6120C29EAFEEBFF90188AE0D24D
:1055F300E1F07901121ABD8E828F83A3E070381215
:105603002EB5E9FAEE240DF508E43FF50978081202
:105613001224750801750900780812122412564BDA
:10562300120FFFEE2402FCE43FFD1239691212014E
:10563300E98E828F83A3F08E828F83A3E060067A44
:1056430000F9122DE302686CEE240BF582E43FF5BA
:10565300832274F7120C291256797004A374EBF0A9
:1056630090188AE0A2E25003C2E2F0E0A2E1500304
:1056730012568A025559EAFEEBFF7901121AC38EBC
:10568300828F83E0642022C2E1F0125691227A00D5
:105693008E828F83A3E0F9122DE32274F7120C2973
:1056A3001256CA8E828F83A3A3A3A3E0600474005F
:1056B300800274EB1255D85003C2E2F0E0A2E1502D
:1056C300031256DB0255CFEAFEEBFF7901121AC330
:1056D3007A6D7B18122FA522C2E1126BFCE0A2E4C3
:1056E300E433FA1256932274F7120C2912570774F3
:1056F300EB1255DD5003C2E2F0E0A2E15003125673
:105703008A025559EAFEEBFF7901121AC38E828F82
:1057130083A32274F7120C2912572C02555274F7E3
:10572300120C2912572C025559EAFEEBFF7A6D7BB6
:1057330018122FA5EEFAEFFB122E3D2274F7120C6E
:105743002974EF1212B4EAFEEBFFEA1266BA7A8208
:105753007B05121D15E96056852182852283740914
:10576300F0740112155874EFF01257C57402121534
:1057730058EC125814A3A3E0C0E07404121558D0D7
:10578300E0125801640870158E828F83A3A3125709
:10579300EDE0C0E07405121558D0E08006740512E0
:1057A3001558E412655674061215581257B674113B
:1057B300024304AA82AB83122EE5AA21AB22122351
:1057C30033221257D2F5831257E4FCA3E0F922EEF9
:1057D3001257DAFB8882222402F8E43FF9E8FAE957
:1057E30022124F498882F583E0221257FC2407F5E1
:1057F30082E438F5832290182C124F49C82212589C
:10580300052212580AE022F08E828F83A3A3A3A35A
:10581300221267E612581B2212581F22E0F8A3E057
:10582300F5838882A3A322C082C083122F2702504C
:105833006EC082C0839018A77447F0A37418F0A3B6
:105843007463F0A37418F0901AD67495F0A37435AA
:10585300F0A374D1F0A37434F090189374D7F0A329
:10586300742DF0901890E04401024B72C082C08303
:10587300EAFCEBFD7902122E8B02506E74F6120CC9
:105883002974FE1212B490188C1258CD60077A8CCA
:105893007B18122EA3901892E4F0900D011258CDAC
:1058A30060208007AA21AB22122EA390188BE0F967
:1058B300121BB38B09A909852182852283124525F1
:1058C30070E2740202686990182C126EBCE84922D7
:1058D30074F7120C29E9FA7B0090188BE0F9121B7C
:1058E300DD02555974F7120C2974F01212B4EAFC54
:1058F300EBFDE9FE8A828B83E0F874AA125A023424
:1059030038F583E493C0E07401121558D0E0F064D5
:105913000B700DE98A828B83A3F0122F090259FDC4
:10592300E070030259FD640C60030259EE741A6EB1
:10593300700B7404121558E4F0A30259ED740412A9
:105943001558125CB1EA24321261BAC0E074031232
:105953001558D0E0126BE712151D74061215581274
:1059630015298C828D83A3A3A3A3A3A3A3A3A3120B
:105973006EB8740A121558E8F0A3E9125A07E054F6
:10598300106009852182852283E48013EC2412129E
:1059930061BAF890059EE0C398852182852283F041
:1059A300E0C0E0740C121558D0E0F0EC241512613D
:1059B300BAC0E0740D121558D0E0F0EC2416126151
:1059C300BAC0E0740E121558D0E0F0EC241712613F
:1059D300BAC0E0740F121558D0E0125A07A3E0546E
:1059E30001600874011215587411F07402121558ED
:1059F300EEF0740112128C12233374100243042844
:105A0300F582E422F0EC125A103DF58322240EF5C0
:105A130082E422C082C083901892E0640370047908
:105A2300018002790002506E74F7120C29901892CB
:105A3300E0125AA674D428F582741A39F583125FDA
:105A430038C2E7F0125AADA3E493FE25E0FCE43339
:105A5300FD74D42CF582741A3D1262C4EC4D6005BA
:105A6300EE901892F08A828B83E025E0FCE433FD0C
:105A7300E82CF582E93DF583E493FCC4540F25E05B
:105A8300F874A1125A023418F5831258CD70051216
:105A93002EF7800CEC540F125AAD124FC6123199E7
:105AA30002555925E0F8E433F92225E0FCE82CF50A
:105AB30082E439F5832274F2120C2974FE1212B4B3
:105AC300890B8A088B09125B58125B49601A1265AD
:105AD30063F50A7808121220125B6524021262BA77
:105AE300121201125AF18003125B77023F54AA0C7F
:105AF300EFFB90188BE0F9121BA72274F0120C290C
:105B030074FE1212B4890B8A0E8B0F125B58F508C0
:105B1300125B496027126563A808EA281248478583
:105B23000E08850F09F50A7808121220125B651218
