:020000040000FA
:06000000021460020889F1
:030013000209DF00
:03002B000211EFD0
:0300330002109226
:03003B00020A3482
:030053000207BEE3
:1000830002081D0100F0FF0700080000FFFF000049
:100093000704000000030001FF18102700000020E0
:1000A300FD000206FFFFFE0400000004E5C6FE0695
:1000B300001F0000AC03FE06001F00B4AC741E0357
:1000C300007701D517DB173B1E000000000000007E
:1000D300000000000000000000000000000000001D
:1000E300000000000000000000000000000000000D
:1000F3000000005F1E000000000000000000000080
:100103000000000101E803D00732006400DC009422
:1001130002000000000000000000000000000000DA
:100123000000000000000000000000FF00000000CD
:1001330000000000000000000000000000000104B7
:10014300010C0002067E820000000204010C000282
:1001530002E883000000010400006317000000E8C8
:10016300030000FFFFC01788130000E803000064CA
:10017300006400B801A0BB0D00A0BB0D0002020289
:10018300070401010A1E02051E020A0A01010108F1
:1001930009080103B80B02803E0102FEFFE8030ACF
:1001A300050001FFFF010A011401E00100B0423B19
:1001B300AAB83F0000003F8C906339AA0CA33A0011
:1001C300941E3C8042633DCFFE753E1572313F0065
:1001D30000803FF304353F8096184B000080BF2218
:1001E30092D43EDD9B2A3F04000040FFFF7F7FFF48
:1001F300FF7FFF010080341872313F0105030101C5
:100203000F10FEFFB535000000002734000000008A
:10021300FF000000FF0012148E60461214AC603D14
:10022300E9687008F618F618F618F622748067F76E
:1002330012024D090909748067F7221214AC601D7C
:1002430012148E7005191919801A12133C701F129B
:1002530012ECC37003E6673319191940071818180D
:100263002208080874FFF618F618F618F622121278
:10027300EC601712152C702192F012151A70195098
:100283001720F014080808090909E7F61819E7F612
:100293001819E7F61819E7F62212151A60E6E86945
:1002A300701F0808E62480F608E436F618547FB475
:1002B3007F0CE654806007F6E418F618F622181847
:1002C30022E9C6CC08C6CD08C6CE08C6CFC0E0E832
:1002D300C0E0EAC0E0EBC0E009E9F809E7FA09E7A2
:1002E300FBE6F918E6F8C3EC98ED99EE9AEBC2E752
:1002F300F5F0EFC2E795F0500E600CEBCFFBEACEC2
:10030300FAE9CDF9E8CCF8EAA2E7D2E7FAEB33FB56
:1003130013F5F0EEA2E7D2E7FEEF33FFC5F013A229
:10032300E730E601B313C5F0C3C0E0C0F07F00C3FC
:100333009BFB605E9418600F401D14601AD0E0238D
:10034300F9D0E0F802041F8AF0E9486003D2F0E430
:10035300AFF0FAF9F8803BEB30E40D89F0EA600383
:10036300D2F0E4AFF0F9CAF8EB30E30D88F0EF60B8
:1003730002D2F0AFF0E4CAC9F8EB54076014FBC330
:10038300EA13FAE913F9E813F8EF135002D2E0FF86
:10039300DBEDD0E0C0E030E739C3E49FFFF5F0ECDC
:1003A30098FC42F0ED99FD42F0EE9AFE42F0D0E067
:1003B300F9D0E0F8E5F0607AE923F9EE20E742D8D6
:1003C300028067C3EF33FFEC33FCED33FDEE33FE06
:1003D30080EAEC28FCED39FDEE3AFED0E023F9D0BB
:1003E300E0F84002801BC3EE13FEED13FDEC13FC9B
:1003F300EF135002D2E0FF08B800067F7F74FF803E
:100403002EEF3350178CF020F00260100CBC000C60
:100413000DBD00080EBE000408E860DFE933E813F1
:10042300FFEE2313FE4F4D4C8008E95480FFE4FE9A
:10043300FDFCEE33EF33F47004FCFD7E80D0E0FB73
:10044300D0E0FAD0E0F8D0E0CFC618CEC618CDC6BB
:1004530018CCC6F9221214AC7004181818221214FE
:100463008E700D74FFF61819F61819F61819F6227E
:10047300E7548066F612151A700F12152C70F014DB
:10048300F608F608F608F680D112152C700CF6085B
:10049300F608768008E6447F80EC1212EF700C12A7
:1004A300133F60BFE65480F6E480BB12133F700530
:1004B30019191980A5E869700C763F18768018F62B
:1004C30018F6E8F922E6CDC0E018ECC0E0E633CD3B
:1004D30033CDD313F6E719FCE7191933CC33C3949F
:1004E3007F400ECD9D502408E65480F6E418F68034
:1004F3000FF4043D14501408E6447FF6187680E4A4
:1005030018F618F6D0E0FCD0E0FD22CCD313CCFDD6
:1005130018E4C6CBC0E018E4C6CAC0E00808ED087A
:10052300C633E613F618E433C675F003C3CA97CA95
:1005330009CB97CB199C40047D08802EBD00030294
:10054300060116B6FF050606081618C3CA33CACB3A
:1005530033CB33CA27CA09CB37CB193CC37D0880B9
:100563003E187D0820E75CC633C6CA33CACB33CBFB
:1005730033DDF1D5F0EB30E77BCA97CA09CB974A55
:10058300CB199C406F4B7025E620E0218066187DD7
:1005930008C3CA97CA09CB97CB199CD3C633C6CA1B
:1005A30033CACB33CB3350C9DDE7D5F0E1D3E4C64F
:1005B30036C608C636C608C636C608C636C61818AE
:1005C300188031C3CA97CA09CB97CB199CB34097FC
:1005D300C633C6CA33CACB33CB33DD34D5F02EC6CC
:1005E300A2E0C640C8CA27CA09CB37194A70BECB96
:1005F3003CB480B90808E63308E633601F181818BE
:10060300D0E0FAD0E0FBD0E0FCD0E0FD22187D087A
:10061300CA27CA09CB37CB193CD3808013F618E419
:10062300B67F11F618B6FF0EF618C60470D2080886
:10063300768080CAF618F618F680C5001214AC60EE
:100643004F12148E6012E7548066F612133C701139
:1006530012152C703B090909F4F618F618F618F66A
:10066300221212EC701512151A08080860EAE64403
:100673007FF618768018E4F618F62212151A60161B
:1006830012152C7012E4F608F608F608E65480F604
:1006930009090918181822EAC0E0EBC0E0ECC0E031
:1006A300EDC0E0E687F0A4FBACF008E687F0A42CED
:1006B300FCE435F0FA1809E687F0A42C4B600274C9
:1006C30001CA35F0FCE433FB09E687F0D2F7A42C2A
:1006D300CB35F0FC1908E687F0A42BCC35F0FBE40E
:1006E30033FD0819E687F0D2E7A42C4ACB35F0CDC9
:1006F3003400FC09E687F0D2E7A42DCC35F0FDE405
:1007030033FA0918E687F0D2F7A42CCD35F0CA34B2
:1007130000FC08E687F0D2E7D2F7A42ACC35F07ABA
:100723007E20E70B0ACB33CBCD33CDCC33CC33CBCD
:100733003350147004ED30E00ED2F1E4CD3DCDCC56
:100743003CCC3B5005DA05C2F1EB547FC63308E6D7
:100753003392F0FBE73309E733C39A502D2B70191B
:100763000C0D4C4D70151806E608C333700D20F1BF
:100773000AA2F013F6E418800B4024E4F630F002EA
:10078300768018F618F618F68024D33B14501074AC
:10079300FFA2F013F6187680E418F618F6800FA27D
:1007A300F013F618E63303F618ECF618EDF6D0E07E
:1007B300FDD0E0FCD0E0FBD0E0FA22C0E074F112FF
:1007C3000C4CA2AFE433F509D2AF85A708AFA1EF74
:1007D3005508FE74105E60061218A175A1EF740827
:1007E3005E60081218A775A1F78024EFA2E092F0CB
:1007F300E508A2E082F05017906198E0F8900714A2
:10080300E0C398A2D265D0335002E8F075A1FEE5AB
:1008130009A2E092AF7F02020CABC0E074F2120CAB
:100823004CA2AFE433FED2AF9061A4E0F8759B0015
:10083300E59158540860087591F71218F58023E57F
:100843009158541060087591EF1218FB8014E591CC
:10085300A2E092F0E8A2E082F05007E0C2E0F012DA
:100863001A519061A3E0F8E5E9585404600E121A96
:100873002775E9FB906193E0A2E640F2EEA2E092D5
:10088300AF7F01020CABC0E074F2120C4CA2AFE4D8
:1008930033FED2AF9061A5E0F8E5BF58540460067B
:1008A30075BFFB121A6980D41208F630F0391209A9
:1008B3003B80341208F620F01430E72B74FFFCFB66
:1008C300FA747F8022E4FCFBFA7480801AB48008F7
:1008D300BC00F2BB00EF800F50EBF9E4C39AFAE4DB
:1008E3009BFBE49CFCE499C6CC18C6CB18C6CA187B
:1008F300C6F922E4C9C608CAC608CBC6D33303085F
:10090300CCC63392F0C3947F402E94184019C9B9D2
:100913000704CACBCC225025C309CA33CACB33CB75
:10092300CC33CC33D9F422F4600DC9CCC313CB132D
:10093300CBCA13CAD9F6CC22E4FCFBFA2214FCFB83
:10094300FA22C3E498F8E499F91209868026C3E4ED
:100953009AFAE49BFBE920E7E9120986E498F8E4B4
:1009630099F922C3E498F8E499F9120986E498F80E
:10097300E499F9C3E49AFAE49BFB22EB20E7CFE97D
:1009830020E7E0B90010BB0008E88AF084F8AAF079
:1009930022E4FBC8FA22EB70227B10C833C8C933A8
:1009A300C9335007C39AC3DBF280069A50012ADB8E
:1009B300EAC833F4C8C933F4C9FA2275F008E4C8A5
:1009C30033C8C933C933C99AC99B5004C92AC93B1F
:1009D300D5F0ECFBC833F4C8E4C9FA22C0E0C0D0B8
:1009E300E8C0E0E9C0E0C082C083A8C1E8C0E090ED
:1009F3000681E0F8740028F582E43406F583D0E03C
:100A0300F0900680E0F8A3E0687006E59590068311
:100A1300F0900681E004F0C394804002E4F0A374F4
:100A2300C6F0D083D082D0E0F9D0E0F8D0D0D0E0C7
:100A330032C0E0C0D0E8C0E0E9C0E0C082C083902B
:100A43000704E0F8A3E0687008539AFBA3740180DD
:100A530022C2E9900704E0F8740128F0748428F5B1
:100A630082E43406F583E0F5C1900704E0C3948083
:100A73004002E4F080AC080808EAC0E0EBC0E0867E
:100A8300F0E7A4FA180986F0E7A42AFA180986F011
:100A9300E7A42AFA180986F0E7A42AFA1986F0E7E8
:100AA300A4FBE5F02AFA190886F0E7A42BFBE5F08E
:100AB3003AFA190886F0E7A42BFBE5F03AFA18187E
:100AC3000986F0E7A4C5F02BFBE43AFA1908E7C559
:100AD300F0C6A426F6E5F03BFBE43AFA1886F0E705
:100AE300A4F6E5F00826F6E43B08F6E43A08F6D067
:100AF300E0FBD0E0FA22080808E630E71112130001
:100B0300120B11080808C64480C6181818221818B2
:100B130018E9799EC608CAC608CBC608CCC6C370F6
:100B2300207996CACBCC7019798ECBCC7013798689
:100B3300CC700EF9802ACA33CACB33CBCC33CC3337
:100B43001930E7F2CCCBCA3350147004EA30E00D0D
:100B5300E4CA3ACACB3BCBCC3CCC500209C3E91321
:100B6300C6CC182313C6CB18C6CA18C6F922E4CFBD
:100B7300C0E0E4CEC0E0E4CDC0E0E4CCC0E075F07A
:100B830020E626F608E633F608E633F608E633F6FB
:100B9300181818EC33FCED33FDEE33FEEF33FFC3CF
:100BA300EC9709ED9709EE9709EF97191919400F7B
:100BB300FFEC97FC09ED97FD09EE97FE191906D591
:100BC300F0BFECF709EDF709EEF709EFF71919197B
:100BD300D0E0FCD0E0FDD0E0FED0E0FF222521C52F
:100BE30082C0E0E52234FFC583C0E0E521C39582DE
:100BF30024F810AF0885832285822180088583220B
:100C0300858221D2AFCEF0A3E520F0A37808E608D1
:100C1300F0A3DEFAEFF0A3E58124FAF8E608F0A3E7
:100C2300E608F0A3E608F0A30808E608F0A3E60840
:100C3300F0A315811581D0E0FED0E0F81581158170
:100C43001581E8C0E0EEC0E022C0D02521C582C0F6
:100C5300E0E52234FFC583C0E0E521C3958224F398
:100C630010AF0885832285822180088583228582AF
:100C730021D2AFC8F0A3E9F0A3EAF0A3EBF0A37984
:100C830008E709F0A3D8FAECF0A3EDF0A3EEF0A384
:100C9300EFF0A3D0E0F0A3D0E0F0A3D0E0F0A3E521
:100CA30020F0A3E5F0F0A322852283852182E0C012
:100CB300E0A3E0F9A3E0FAA3E0FBA37808E0F608D9
:100CC300A3DFFAE0FCA3E0FDA3E0FEA3E0FFA3E0C3
:100CD300C0E0A3E0C0E0A3E0F5D0A3E0F520A3E0EB
:100CE300A3F5F010AF0885832285822180088583D0
:100CF30022858221D2AFD082D083D0E0F8D0E032F7
:100D0300121303181818120B7112140F1919192240
:100D130012140F191919080808E618181820E7E023
:100D2300120B7112130318181822090909E719196C
:100D33001920E7DC080808E618181820E703020B57
:100D430071121303181818120B71121303181818C1
:100D530012140F19191922121505B90003020D995E
:100D6300E490050178BC79168002F0A3D8FCD9FA87
:100D73007ABC7B1A900086789479028015E493A359
:100D8300AD82AE838A828B83F0A3AA82AB838D82EA
:100D93008E83D8E9D9E775827A7583AA740612110E
:100DA3008075824F75833174001211800C75F010B9
:100DB3008E238F248582288583278521828522831C
:100DC300E0CEA3E0CF852882852783EBC9EAC8ED6F
:100DD300CBECCAC3E833C8E933C9EA33CAEB33CB34
:100DE300C3EA9EF526EB9FF525B35004AB25AA264F
:100DF300EC33CCED33CDD5F0DAAE23AF242212148D
:100E0300AC601C12148E601712151A700712152C81
:100E13007001D322C0D012152C7006D0D0B322C3D8
:100E23002233D0D0501430E0F6C3E7960809E79692
:100E33000809E7960809E796B32220E0D5E6970864
:100E430009E6970809E6970809E697B3221214AC56
:100E5300601B12148E601612151A700712152C607F
:100E63000CB322C0D012152C7005D0D022C322336C
:100E7300D0D0501330E0EBC3E7960809E796080992
:100E8300E7960809E7962220E0E4E6970809E69743
:100E93000809E6970809E69722D083D082ECC0E0E0
:100EA300EDC0E0E493A3FCE493A3FDED4C600D12CD
:100EB3000F74EC24FFFCED34FFFD80EFE493A3FCFF
:100EC300E493A3FDED4C600D12103DEC24FFFCED0B
:100ED30034FFFD80EFD0E0FDD0E0FCE493A3C0E05D
:100EE300E493C0E022852283852182E0A3FEE0A370
:100EF300F5207808E0A3F608DFFAE0A3FFE0A3C03B
:100F0300E0E0A3C0E0E0A3C0E0E0A3C0E0E0A3C052
:100F1300E010AF08858221858322800885822185A0
:100F23008322D2AFD083D082021186D083D082E9CC
:100F3300C0E0E493A3C386F0C5F095F0F908E49309
:100F4300A386F0C5F095F0700BE493A3C399400515
:100F5300E9048002A3E475F002A42582F582E5F09A
:100F63003583F583D0E0F9E493A3C0E0E493C0E0D4
:100F730022C0E0C3E49396087401939618400FE4EB
:100F83009366700808740193661870007019A3A320
:100F9300C3E49396087401939618A3A3400DD0E07D
:100FA300D0E0D0E0020ED8A3A3A3A3A3A3D0E02252
:100FB3007404800474028000CCC0E0EDC0E0E5213D
:100FC300C39CCCAD2250011D10AF068C218D228015
:100FD300068C218D22D2AF121102D0E0FDD0E0FCAD
:100FE3002274028000CCC0E0EDC0E0E521C39CCCBC
:100FF300AD2250011D10AF068C218D2280068C215D
:101003008D22D2AF1210E0D0E0FDD0E0FC2212140A
:10101300AC602512148E602012151A700302152C71
:10102300080808E76670101819E766700A1819E7C8
:101033006670041819E76622F422C0E0C0F088F055
:10104300E4936670080874019366187000A8F0A30F
:10105300A3700BD0F0D0E0D0E0D0E0020ED8A3A371
:10106300D0F0D0E022D083D082CCC0E0E493A36060
:10107300061211231470FAE493A360061212821469
:1010830070FAD0E0FCE493A3C0E0E493C0E022C094
:10109300E074F2120C4CA2AFE433FED2AFE58BA2A4
:1010A300E0500579041217F3758B00C2E8EEA2E055
:1010B30092AF7F01020CABC008C3E096F50808A30A
:1010C300E096420808A3E096420808A3E096420887
:1010D300A2D265D033E5087001D3D00822CAC0E09C
:1010E300E493A3C582CCC582C583CDC583F0A3C5D4
:1010F30082CCC582C583CDC583DAE5D0E0CA22CAD6
:10110300C0E0E0A3C582CCC582C583CDC583F0A36F
:10111300C582CCC582C583CDC583DAE6D0E0CA22B9
:10112300C0E0E493A3D39C5010E493A3C39C400A70
:10113300D0E0D0E0D0E0021085A3A3A3D0E02270DA
:1011430009080808226016181818C6C333C608C64B
:1011530033C608C633C608C633C6D5E0EA22C0087C
:10116300C3E096F50808A3E096420808A3E0964278
:101173000808A3E09645087001D3D00822C09FF564
:101183009FE473D09F22D083D082C09FE493C0E0BA
:10119300740193C0E0740293F59F222521F5821018
:1011A300AF08F521400C15228008F52140021522D5
:1011B300D2AF8522832200C0D0252110AF08F521AC
:1011C300500C05228008F52150020522D2AFD0D061
:1011D300227404800A74038006740280027401C0BE
:1011E300E0F40412119ED0E01214C822C0E0C0D073
:1011F300E8C0E0A8A8D2AFC2C7E8A2E792AFD0E0A8
:10120300F8D0D0D0E032BB0102E722C082C083898C
:10121300828A83BB0003E08002E493D083D08222DE
:101223006016080808C6C313C618C613C618C61323
:10123300C618C613C6D5E0EA222521F8E43522F9FB
:10124300222521FAE43522FB222521FCE43522FD67
:1012530022C3E0C696F608A3E0C696F608A3E0C646
:1012630096F608A3E0C696F622252110AF08F521CD
:10127300400C15228008F52140021522D2AF22C06E
:10128300E0E493A36C7009D0E0D0E0D0E0021085D5
:10129300A3A3D0E022C3E7960809E7960809E796D7
:1012A3000809E796A2D265D03322E76670100809D1
:1012B300E766700A0809E76670040809E76622C34F
:1012C300E09608A3E09608A3E09608A3E096A2D2CE
:1012D30065D03322E066701008A3E066700A08A3A5
:1012E300E066700408A3E06622191919E7094709A3
:1012F3007009E727097005E733F422092218181843
:10130300E4C396F608E496F608E496F608E496F63F
:1013130022C3E096F008A3E096F008A3E096F00855
:10132300A3E096F022C3E697F60809E697F60809C4
:10133300E697F60809E697F622181818E60846080D
:101343007009E626087005E633F4220822C3E49305
:1013530096087401939608740293960874039396FF
:1013630022E026F608A3E036F608A3E036F608A343
:10137300E036F622E627F60809E637F60809E637E7
:10138300F60809E637F622700422600D18C6C33347
:10139300C608C633C6D5E0F41822E657F60809E6B0
:1013A30057F60809E657F60809E657F622E056F617
:1013B30008A3E056F608A3E056F608A3E056F62283
:1013C300E026F008A3E036F008A3E036F008A3E037
:1013D30036F022E056F008A3E056F008A3E056F0FA
:1013E30008A3E056F022E493F608740193F6087418
:1013F3000293F608740393F622E647F60809E647D4
:10140300F60809E647F60809E647F622E4C397F724
:1014130009E497F709E497F709E497F722600D08C1
:10142300C6A2E713C618C613C6D5E0F322C6F4C690
:1014330008C6F4C608C6F4C608C6F4C622C3E096B6
:1014430008A3E09608A3E09608A3E09622C3E796D4
:101453000809E7960809E7960809E7962275D00078
:1014630075813F75210175220500020D5A600C0834
:10147300C6C313C618C613C6D5E0F422E6F008A304
:10148300E6F008A3E6F008A3E6F022E7094709C35C
:10149300134709336002E733F422E0F608A3E0F6CA
:1014A30008A3E0F608A3E0F622E6084608C31346BD
:1014B30008336002E633F422800100E9F874FF2860
:1014C300F90470F622CAC0E0E6F0A308DAFAD0E025
:1014D300FA22E0F8A3E0F9A3E0FAA3E0FB22E8F0A4
:1014E300A3E9F0A3EAF0A3EBF022EAF0A3EBF0A365
:1014F300ECF0A3EDF022E0FAA3E0FBA3E0FCA3E011
:10150300FD22E5C754F84401F5C77901222521F5E9
:1015130082E43522F58322E6261846184618462229
:10152300C2AF75D69F02000022E727194719471952
:1015330047221211895BE1031211898AE103121117
:101543008990E203121189BAE2031211890EE303AF
:10155300121189E2E30312118910E603121189BE05
:10156300E6031211892BE903121189B0E903121161
:1015730089B3EC03121189E7EE0312118923EF03F8
:101583001211897CF0031211898FF003121189CC97
:10159300F00312118995F20312118978CC05121107
:1015A30089F4CC0512118927CD0512118955CD0572
:1015B30012118993CD05121189D0CF05121189EF2C
:1015C300CF0512118934D005121189CAD005121121
:1015D3008916D105121189AAD10512118983D20561
:1015E300121189DFD2051211893DD305121189B079
:1015F300D305121189F4D3051211894CD4051211A4
:10160300896ED405121189FED4051211898FD5056F
:10161300121189DBD50512118907D60512118948E4
:10162300D605121189DED705121189CAD805121100
:1016330089A5D9051211890CBB05121189A0BB0517
:1016430012118908BC051211892DBD05121189B724
:10165300BD0512118942BE051211897EBE05121104
:101663008917BF05121189ACBF051211897FC00507
:1016730012118961C20512118957C305121189F626
:10168300C3051211894BC405121189B9C40512117E
:1016930089C5C705121189EFC905121189F0CA0559
:1016A3001211892ECC0512118939CC05121189E644
:1016B300FD0312118912FE031211892DFE0312116B
:1016C3008952FE03121189F2FE0312118998FF0356
:1016D300121189C2FF0312118931B806121189361A
:1016E300B80612118969B80612118948F905121151
:1016F30089E4F9051211896DFA051211890EFB05AA
:1017030012118973FB0512118996FB05121189DAEF
:10171300FB05121189F7FB051211893CFC05121117
:10172300899AFC05121189EDFC0512118922FD0528
:1017330012118945A60612118904A706121189E917
:10174300A706121189E5B306121189F6B306121121
:101753008994B4061211899FB406121189B9B4068B
:10176300121189F9FF0112118948B9061211890E64
:10177300B6061211891EB60612118933B606121166
:101783008999B606121189E1B00612118965B1066D
:10179300121189CDB106121189969206121189AAE6
:1017A30092061211892093061211896F9306121162
:1017B30089A49306121189C99306121189EC930621
:1017C3001211892794061211895494061211899BC8
:1017D3009406121189B594061211895495061211B3
:1017E30089E6B2061211896DB30612118976B30622
:1017F3001211899DB306121189C77F0012118959ED
:10180300FD05121189A3FD0512118939FE05121177
:1018130089BFFE05121189F1FE0512118909FF0521
:101823001211897DFF0512118993FF05121189A6F3
:10183300FF05121189B0FF05121189F0EA05121193
:10184300891CEB0512118986ED05121189C6ED0578
:1018530012118902EE0512118916EE051211892F54
:10186300EE0512118921EF05121189D4EF0512112A
:1018730089E8EF0512118967FE011211898BFE01B8
:10188300121189A4FE01121189E2FE0112118912BB
:10189300FF011211893FFF01121189A5FF011211E6
:1018A30089A8FF01121189B2FF01121189BFFF013B
:1018B3001211890B9F061211892B9F061211896A37
:1018C3009F06121189889F06121189A39F06121180
:1018D3008909A00612118915A00612118972A006A2
:1018E30012118981A006121189A5A0061211896619
:1018F300A10612118973A10612118984A10612117E
:101903008977B8061211898FB806121189BBB806F8
:10191300121189F6F4051211894AF6051211895834
:10192300F6051211896BF60512118980F60512115D
:101933008995F605121189A8F60512118924F70570
:1019430012118989F7051211891FF805121189F8F7
:10195300F80512118908F90512118917F9051211F1
:101963008975B50612118999B506121189C1B50693
:10197300121189E9B506121189B2A106121189D98A
:10198300A106121189F7A10612118966A206121186
:10199300892499061211893D9906121189499906DC
:1019A3001211895D99061211897B99061211898595
:1019B30099061211898F9906121189A2990612119B
:1019C300892C9A06121189A19A06121189D59A06B1
:1019D300121189239B06121189709B061211898BA0
:1019E3009B06121189959B06121189BB9B06121146
:1019F30089209C0612118945FF0412118967FF048F
:101A0300121189E1FF051211894CF403121189782F
:101A1300F40312118995F403121189A8F403121126
:101A230089C3F4031211891DF5031211894BF503C0
:101A33001211895FF903121189BDFA03121189EF9B
:101A4300FA0312118952FB03121189D7FC031211F5
:101A530089FFFC0312118914FD0312118924FD036C
:101A630012118964FD03121189A6FD03121189B6AF
:101A7300FD0312118977AC0612118991AC0612117C
:101A830089B9AC06121189D2AC06121189F6AC06DB
:101A930012118914AD061211892BAD061211895941
:101AA300AD0612118974AD0612118904B90612111B
:101AB30089C28B06121189D28B06121189D78C0623
:101AC300121189098D06121189398D061211895C4B
:101AD3008D06121189738D06121189AD8D061211AF
:101AE30089128E06121189548E061211899B8E0655
:101AF300121189C88E06121189F38E061211896399
:101B03007E00121189837E00121189977F001211C2
:101B1300899A7F00121189DBAF0612118911B00671
:101B230012118929B0061211896BB0061211897B33
:101B3300B006121189BFB006121189C9B00612117D
:101B430089FEE30512118941E405121189A6E40512
:101B5300121189C5E40512118967E505121189700F
:101B6300E505121189C1E505121189EAE50512118E
:101B730089F7E50512118969E605121189F7E6056A
:101B83001211893CE70512118975E705121189DAEB
:101B9300E70512118903E8051211897AE805121184
:101BA30089C9E80512118906E9051211893BE9057E
:101BB3001211894DE9051211895FE9051211897E18
:101BC300E90512118987E90512118943EA05121102
:101BD3008986EA05121189C4EA051211897AB706C2
:101BE30012118905FE0412118907A4061211893DF9
:101BF300A40612118985A406121189DEA506121105
:101C0300897B9405121189A19505121189DD95052A
:101C13001211899B9705121189C9970512118933EE
:101C23009A05121189739A05121189159C051211CF
:101C330089AB9C05121189059D05121189959D0596
:101C4300121189D99D051211891B9E0512118980D4
:101C53009F0512118900A10512118941A3051211D3
:101C6300896FA3051211899BA305121189A4A305EA
:101C730012118901A4051211899AA405121189B1BF
:101C8300A70512118937A805121189A3B6061211E7
:101C930089B9B606121189C3B606121189008006E6
:101CA300121189168006121189BA8006121189F958
:101CB30080061211891681061211894781061211B5
:101CC30089948106121189C881061211890382063B
:101CD300121189F88306121189E6B106121189459A
:101CE300B20612118983B206121189C4B206121107
:101CF30089C8B40612118931B50612118951B50686
:101D0300121189C5AE0612118983AF06121189001B
:101D130080041211890C80041211896E800412113F
:101D2300897880041211890781041211894381047F
:101D330012118935820412118992820412118920A9
:101D43008304121189718304121189F1830412111E
:101D530089B78504121189B18704121189B38804E4
:101D6300121189E589041211893B8C041211897DB2
:101D73008D04121189238E04121189E19204121128
:101D830089DE9304121189749404121189A49404B2
:101D93001211894195041211895E95041211897EED
:101DA3009504121189EC95041211890996041211F4
:101DB30089379604121189D19704121189F2970475
:101DC300121189989804121189E098041211893E1E
:101DD3009904121189DC9904121189419A04121190
:101DE30089AA9A04121189E89A041211899A9B0408
:101DF300121189059C04121189419C04121189B2A4
:101E03009C04121189FD9D041211898D9F041211E6
:101E13008926A00412118977A204121189DCA20475
:101E23001211890AA30412118950A80412118914EA
:101E3300AB0412118914AC0412118900800512112C
:101E4300892080051211895883051211895585054A
:101E5300121189F2870512118934890512118966D5
:101E630089051211898F8905121189B58905121106
:101E730089018A051211899A8B05121189FA8B053A
:101E8300121189068D05121189188D05121189CC3D
:101E93008D05121189DD8D05121189B88E05121178
:101EA30089C18F051211893A9005121189D39005C2
:101EB300121189A29105121189EE9205121189BBA3
:101EC3009305121189C9FF01121189DE95061211BA
:101ED300899D9606121189039706121189B29706F6
:101EE300121189CCCB04121189FBCB041211897F07
:101EF300CC04121189E2CD04121189CCCE04121143
:101F03008988D004121189ADD004121189FFD0043D
:101F130012118991D104121189DDD104121189F0B2
:101F2300D1041211894DD2041211891AD30412114A
:101F3300898CD304121189C3D3041211890CD404DC
:101F4300121189B4D50412118993D604121189E1AF
:101F5300D704121189C4D80412118950D90412115B
:101F63008989D904121189A8D904121189F3D904D2
:101F730012118913DA04121189D0DA04121189F3C8
:101F8300DB041211894EDC0412118994DC04121152
:101F9300899CDD0412118937E0041211895DE00484
:101FA300121189D8E004121189FDE004121189711C
:101FB300E1041211894FE2041211898DE204121116
:101FC3008917E30412118930E40412118933E404FC
:101FD3001211893DE40412118947E4041211896343
:101FE300E404121189D5E4041211890EE5041211D7
:101FF300893AE50412118961E50412118985E50422
:10200300121189C0E50412118933E604121189679C
:10201300E60412118971E604121189ADE604121166
:1020230089E2E60412118901E704121189BEB80698
:10203300121189D6B806121189FCFF01121189FD0C
:10204300AF0412118920B0041211897EB104121158
:1020530089C7B10412118933B20412118991B204F0
:1020630012118994B204121189E5B2041211895A2A
:10207300B304121189EAB304121189EDB3041211E6
:10208300896EB404121189AFB404121189D4B8044F
:102093001211897EBA04121189D2BA04121189610C
:1020A300BE0412118999BF041211896DC004121163
:1020B30089D7C00412118901C104121189BAC2045B
:1020C3001211899DC4041211894CC504121189E9A6
:1020D300C504121189D4C6041211893CC904121112
:1020E3008996CA0412118904CB0412118996A80592
:1020F30012118940A905121189ABA905121189C6CC
:10210300A90512118947AA05121189A1AA0512115D
:1021130089E8AA0512118947AB0512118959AC0543
:1021230012118982AF05121189B2B0051211893AD1
:10213300B10512118943B305121189F5B3051211C3
:1021430089C1B4051211897CB6051211891AB80523
:10215300121189A7B805121189CDB9051211890485
:10216300D90212118967D902121189AFD90212114A
:1021730089F3D9021211894EDA02121189ABDA02FC
:10218300121189E6DA0212118968DB02121189C27F
:10219300DB0212118940DD02121189B8DD0212112E
:1021A30089D5DE02121189FDDE0212118950E00287
:1021B30012118961E00212118979E00212118982F8
:1021C300E1021211895FE2021211895CE30212112A
:1021D3008980E30212118997E302121189B8E3029D
:1021E300121189DAE302121189F9E302121189D17A
:1021F300E4021211892BE502121189C2E7021211BE
:10220300891BE8021211893AE8021211892AE902AC
:1022130012118960E90212118993EA0212118912DB
:10222300EB021211894EEB0212118988EB02121193
:1022330089F7EB02121189ACEC0212118984EE02C8
:1022430012118991EF021211898AD503121189FFA4
:10225300F20212118975F5021211894FF702121158
:102263008910F80212118988F802121189EBE00330
:1022730012118996F9021211898AFA02121189F947
:10228300FA021211894B8F06121189FB9006121163
:1022930089BA9106121189229206121189058406C0
:1022A3001211892384061211896784061211898DFC
:1022B3008406121189B48406121189CC8406121182
:1022C30089E48406121189868506121189C8850658
:1022D300121189EB86061211890BDF03121189FD96
:1022E30086061211890687061211891087061211B4
:1022F30089318706121189FCEF051211893AF40519
:1023030012118948F4051211894DF405121189043B
:10231300AB06121189C3FF051211892B9C061211FA
:1023230089A7AD0612118919B7061211896BA80680
:10233300121189D4FF02121189EA8706121189D278
:10234300B706121189E2B7061211899CFB0212111A
:10235300890080021211893280021211899E800243
:10236300121189398102121189D881021211891D32
:1023730082021211893F82021211895882021211BC
:10238300897E8202121189A08202121189DE8202E1
:10239300121189228302121189448302121189A620
:1023A30083021211896D840212118924850212118C
:1023B30089968502121189688602121189B28602F2
:1023C3001211890587021211896B8702121189A5DF
:1023D3008702121189F787021211891388021211D9
:1023E300893E8802121189458A02121189998B024A
:1023F300121189BB8B02121189EF8B021211891002
:102403008C021211891F8C021211892A8C0212115B
:1024130089DA8C02121189438D02121189F08D021F
:10242300121189288E02121189EE8E02121189FB74
:102433008F02121189459002121189D49002121150
:1024430089389102121189739102121189DF930263
:102453001211893395021211896C9802121189396C
:102463009902121189C79902121189F09902121166
:1024730089629A02121189F69A02121189549B02F7
:10248300121189469C02121189689C02121189C497
:102493009D02121189DD9D02121189F09D02121114
:1024A300895F9E021211896B9F02121189789F0224
:1024B300121189819F0212118959A1021211897F78
:1024C300A2021211898FA20212118991A302121181
:1024D3008908A40212118937A4021211894CA5029A
:1024E30012118918A702121189F0AA02121189FA8E
:1024F300AA021211890EAB0212118918AB02121132
:102503008922AB021211892CAB0212118945AB024D
:102513001211894FAB02121189C3AB02121189CE7A
:10252300AB02121189F3AB02121189FEAB02121135
:10253300894CAC0212118956AC0212118961AC02AA
:1025430012118985AC02121189A9AC0212118905F5
:10255300AD021211894BAD0212118968AD0212113D
:1025630089E5AD021211891CAE021211895BAE021C
:10257300121189A8AE021211892AAF02121189C35E
:10258300AF0212118993B102121189F1B102121132
:10259300890DB30212118933B30212118972B40285
:1025A30012118998B702121189D9B902121189B58A
:1025B300BB021211894BBC0212118972BE021211A5
:1025C300891EBF0212118953BF02121189B8BF02BB
:1025D300121189C2BF02121189ECC10212118913AF
:1025E300C30212118953C302121189F9C3021211D2
:1025F300898AC50212118913C70212118933C702CE
:102603001211898CC7021211898EC802121189D83E
:10261300C80212118928C90212118912CA021211A1
:102623008987CA02121189A1CB021211891CCC021B
:1026330012118921CD02121189CCCF02121189EB1B
:10264300CF021211894CD1021211890ED302121139
:102653008962D3021211891AD402121189C9D402D0
:102663001211891FD502121189D5D5021211896A57
:10267300D602121189D6D60212118910D70212116D
:102683008941D7021211899DD80212118900800352
:102693001211893280031211896980031211895240
:1026A30082031211893583031211898D8303121159
:1026B30089C884031211891485031211893C880384
:1026C3001211899E8B03121189EB8C0312118981DC
:1026D3008D031211898D8D03121189BF8D03121180
:1026E30089418F03121189DC9003121189849103AC
:1026F300121189C791031211892D92031211894A6C
:1027030092031211897A9203121189AF9203121163
:10271300897F9303121189289403121189AC9603BC
:10272300121189CC9703121189B5980312118937B5
:102733009903121189569D03121189939D03121156
:1027430089EB9D031211891E9E031211899F9E031B
:10275300121189EC9E03121189779F03121189C903
:102763009F03121189A0A00312118959A103121109
:1027730089F4A1031211890DA5031211892DA60352
:10278300121189DAA903121189F8AA03121189FB1C
:10279300AA031211892AAB0312118930AD03121156
:1027A3008909AE031211893EAE0312118946AF03A4
:1027B300121189FCAF031211899DB103121189C251
:1027C300B10312118901B20312118973B2031211F9
:1027D3008957B30312118924B4031211895AB6031A
:1027E300121189CBB6031211890BB7031211896C2D
:1027F300B7031211892FBB031211891EBC031211D7
:102803008905BD031211897DBD031211893FBE03E2
:102813001211893DC00312118955C0031211896930
:10282300C003121189A1C003121189CFC003121171
:102833008956C20312118961C303121189B3C303F9
:1028430012118914C403121189C6C403121189ED2C
:10285300C403121189D1C50312118982C60312114F
:102863008971C803121189A6C8031211890EC903FD
:102873001211893DCA03121189EFCA03121189206B
:10288300CB0312118938CB03121189C7CB03121161
:10289300897BCE0312118953D0031211896FD003A0
:1028A3001211898BD00312118959D1031211893D59
:1028B300D5031211891484011211894C8401121158
:1028C300892A8901121189708901121189BD8A012E
:1028D300121189288B01121189B18C01121189C13E
:1028E3008F01121189DC9001121189EE9A011211E4
:1028F30089819B01121189D39E01121189CF9F01F6
:102903001211892AA00112118974A101121189627D
:10291300A201121189FEA40112118972A6011211DA
:1029230089F5A601121189F8A6011211896DA70173
:1029330012118977A70112118984A701121189AF96
:10294300A7011211895FA80112118958A901121157
:102953008903AA0112118921AA011211893AAA0134
:1029630012118963AA0112118985AA01121189DA48
:10297300AC011211899FAD01121189E4AD0112114D
:102983008963AE011211890FAF0112118941AF01A1
:1029930012118995AF01121189D0AF011211891754
:1029A300B00112118967B0011211896CB0011211C3
:1029B30089C0B001121189ECB001121189D5B1019E
:1029C30012118926B20112118986B201121189E00E
:1029D300B2011211897BB301121189BAB601121126
:1029E30089CCB70112118946B90112118956BC016C
:1029F300121189F4BC01121189EABF01121189A9CC
:102A0300C001121189EDC00112118998C20112117E
:102A130089ACC201121189B6C201121189C0C20167
:102A2300121189CCC201121189F1C201121189CA92
:102A3300C4011211891FC50112118929C50112117F
:102A43008933C501121189A8C501121189F7C5017E
:102A530012118908C70112118955C7011211896220
:102A6300C801121189A6C8011211894CC90112119A
:102A7300893FCA0112118905CB0112118928CC01A2
:102A830012118946CD011211892ECE0112118946E8
:102A9300CE011211899DCE01121189A7CE01121107
:102AA30089B2CE01121189D0CE0112118918CF013A
:102AB3001211897ACF01121189A1CF01121189B3A1
:102AC300CF011211894ED00112118983D001121145
:102AD300896AD101121189AFD10112118995D201ED
:102AE300121189BCD2011211893FD301121189B08D
:102AF300D30112118939D50112118965D601121139
:102B03008928D701121189F0D7011211897AD801C6
:102B1300121189A2D90112118944DA01121189BF54
:102B2300DA011211897BDB01121189C5DB01121154
:102B3300891FDC01121189F7DC011211891ADD01E9
:102B4300121189CDDD01121189EFDD0112118958AE
:102B5300DE011211896EE00112118966E101121181
:102B6300892AE2011211895CE401121189A6E401A8
:102B7300121189F6E4011211895AE501121189BC77
:102B8300E501121189EAE5011211890EE60112111C
:102B93008943E60112118974E601121189A7E6013E
:102BA300121189F7E6011211894AE7011211896F9F
:102BB300E8011211890FEA011211896AEA0112115F
:102BC3008993EA0112118920EB011211898EEB011D
:102BD3001211899CEB01121189C0EB0112118915A5
:102BE300EC0112118930EC01121189E2EC0112118E
:102BF300891AED011211895DED01121189C0ED01F0
:102C0300121189C2EF01121189ECEF01121189E34C
:102C1300F001121189EDF1011211899DF2011211D6
:102C2300894E7300121189867300121189A77300EC
:102C3300121189E973001211894B7400121189551D
:102C43007400121189657400121189A074001211A5
:102C5300898078001211896D7A00121189537C00E2
:102C6300121189EA7C001211898C7D001211893FAF
:102C73003900121189EA3900121189983A001211A8
:102C8300899E3B00121189BE3B00121189E73C006B
:102C9300121189A23E00121189153F00121189B940
:102CA3003F00121189C540001211893041001211F1
:102CB300896C4100121189AF4100121189EA410068
:102CC3001211892C4200121189C142001211893D4F
:102CD3004300121189074400121189E444001211C0
:102CE300897C4500121189964500121189C6450059
:102CF300121189F74500121189BD4600121189CDC1
:102D030046001211891C470012118929470012112C
:102D130089324700121189B047001211890C48000B
:102D23001211895748001211897248001211899DA6
:102D33004800121189BA4800121189C648001211BD
:102D4300895D4A00121189764A00121189FB4A00F3
:102D53001211890E4B001211892D4B00121189D1CA
:102D63004B00121189524D00121189054F001211A7
:102D7300899B4F001211899E4F001211890E50003A
:102D83001211892C5000121189C350001211890BA2
:102D930051001211890E5100121189D451001211E0
:102DA30089415200121189675200121189F25200AF
:102DB3001211891053001211895653001211890AF6
:102DC30054001211895454001211898354001211B2
:102DD30089E05400121189155500121189415500DB
:102DE3001211894F55001211899C55001211890C3B
:102DF3005600121189555600121189A1560012115D
:102E030089CD5600121189D85600121189F6560041
:102E1300121189E15700121189EB5700121189260B
:102E230058001211893658001211898A580012115C
:102E3300899E5800121189CD5900121189E2590057
:102E4300121189705A00121189B55A001211894161
:102E53005B001211894C5B001211898E5C00121108
:102E630089A95C00121189F55C00121189645D0067
:102E73001211899D5D00121189B75D001211891726
:102E83005E00121189B65E00121189015F001211F2
:102E930089D16100121189836200121189F06200E5
:102EA3001211893065001211894865001211894B8E
:102EB30065001211895765001211896B65001211A3
:102EC30089736500121189A66500121189A966002C
:102ED300121189366700121189A667001211892819
:102EE3006800121189E9680012118908690012113A
:102EF30089A96900121189066A00121189096A00F9
:102F03001211897D6A00121189CC6B00121189D2CA
:102F13006C001211895D6D00121189786E00121117
:102F230089406F00121189716F00121189946F002B
:102F33001211899D6F00121189CC6F001211895CE7
:102F43007000121189127100121189877100121118
:102F5300892E7200121189A37200121189DA72008C
:102F630012118918730012118951E0031211895F3C
:102F7300D503121189B8E30512118984E3051211EF
:102F8300892DE305121189B6E10512118908E105BE
:102F9300121189FEE005121189F4E0051211898DE1
:102FA300E00512118972E005121189CFDF051211B4
:102FB30089CFDE051211890DE0031211899FF802F2
:102FC300121189EDDD05121189DDDB0512118977F7
:102FD300DE0312118917DE03121189EBDA051211D0
:102FE3008989DA05121189F1FD04121189E7FD04BB
:102FF3001211897CFD04121189B0FB041211896E30
:10300300FB041211897AFA041211894EFA0412117F
:103013008905FA0412118946F90412118935F60457
:10302300121189EDF3041211899DF30412118937EA
:10303300F304121189F6F20412118928F204121111
:1030430089C2F10412118961F10412118901F10499
:103053001211899FEF0412118933EF04121189872A
:10306300EE0412118982EE04121189E7DD031211B5
:103073008976EE041211893BDD03121189D4DA0338
:103083001211898BD703121189DFD6031211894DCF
:10309300D60312118907D60312118941EE041211C6
:1030A30089D3EA04121189D0EA0412118983EA044C
:1030B300121189D2D50312118971EA041211896799
:1030C300EA0412118936EA0412118931E804121153
:1030D30089BCDF03121189A4E704121189F486065F
:1030E30012118960E70412118934E704121189016E
:1030F300FE01121189D4FD01121189A1FD011211E2
:103103008979FD011211891AFD01121189FAFC0155
:10311300121189C5FC0112118971F9011211895922
:10312300F70112118943F501121189C3F401121138
:10313300896FF4011211897BF3011211899FD50361
:1031430012118923F40112118909F1020000008090
:10315300FB000022E4738F000100E01B87000100E5
:10316300DE1B35000400A41B25000200A81B26005B
:103173000200AA1B27000200AC1B28000100B61B9B
:1031830029000100B71B840004004E1886000100CB
:10319300CA1A2A000100B81B2B000100B91B2C001E
:1031A3000100BE1B2D0008005C182E000100BF1B90
:1031B3002F000100C01B30000100C11B31000100C2
:1031C300C21B32000100641833000100651834008B
:1031D3000100C31B36000100661838000100C41B40
:1031E30039000100BD1B83000200DC1B63000100EA
:1031F300711864000100BA1B65000100BB1B6D0060
:103203000100721871000800541866000100DB1BEE
:1032130043000100CC1B44000200CD1B450001000C
:10322300CF1B46000200D01B470008006918480066
:103233000100D21B4B000100D31B04000100DF1B64
:10324300A1000100E31B37000100E21B880001001D
:10325300E11B3C00010067183D000100C51B49004C
:103263000200D41B6700010073184D000200D61B37
:103273004E000100D81B4F000200D91B3E00010085
:10328300CB1B51000100C71B52000100C81B530098
:103293000100CA1B54000100681800000000000070
:1032A3000000000020010E840000010020011084B2
:1032B30000000200200112840000030020010F849B
:1032C30000000400420196820000050042018E8145
:1032D30000000600420171820000070030011384E0
:1032E300000000404201D8820000FEFF21010C844F
:1032F30003000000212335170300FEFF21010C8486
:103303000204000029055A1B0204100229234A1B48
:10331300030400002905601B030410002905621B38
:10332300030414002801641B030410022B234C1B09
:103333000504000021055E1B050410022923501B10
:103343000D0400003905541B0D04020210233D1B1C
:103353000D04030210233C1B0D04040221233E1B16
:103363000D0405022123401B0D0411F11023521BF0
:1033730000013636010100010201000103010001D1
:103383000401060605020000070100340801000FCE
:10339300090401010D0100FF0E08000017020000DF
:1033A300190100FF1A0100011B0100FE1C010008A6
:1033B3001D0200001F010001200100012102000085
:1033C3002301000F24020000260100012701000849
:1033D300280200FF2A0100072B0102402C010000F4
:1033E3002D0100012E0100012F0100FF30010B1DF3
:1033F300310800003A0100083B01000F3C010001C5
:103403003D0100FF3E0400004204000046040000AA
:103413004A0400004E040000520400005604000059
:103423005A040000010371030103010301030103B3
:10343300010322030203010310030003000300033B
:1034430000030003000300034203000324030603F5
:1034530000030003040312032503230325032303AB
:1034630004030403000300030003440300030003F5
:1034730023030003650321003503810300030503D0
:103483000003000300030003250323030302710267
:103493003001600211027002010202020202800284
:1034A300100261023A004100630273027202620277
:1034B3004302000213023800000200020402120257
:1034C3000002000200020002040204023700370077
:1034D3003C024402000239000002000265020002BD
:1034E3003502810200020502820283020002030404
:1034F3007104020460041104700402040204010450
:1035030002041004610400041404630473047204C9
:1035130062044304000413040604000400040404C6
:1035230012040004000400040004510464000004B5
:1035330000040004440400040004000400046504BF
:1035430000043504810464000504000483040004BA
:1035530001017101010101011101010131010101A8
:1035630001018001100161013B001400630173013B
:103573007201620143010001130106013D0135009F
:103583000401120100010001000100010401040112
:10359300330133013C0144013201360000010001D3
:1035A30065010001350081010001050182018301EC
:1035B300000103007100300160001100700031024E
:1035C3002003500480001000610000001400630019
:1035D3007300720062004300000013000600000045
:1035E30000000400120000000000000000000400BE
:1035F3000400370037003C024400000000000000D4
:103603000000650000003500810000000500000097
:103613008300000036000100060000000F000000D8
:103623000000000000000000000003FFFF00000492
:1036330003FFFF0000FFFF0FF4010005C404032094
:10364300000100000B000000000000000003010F58
:103653000000000000000000000000000000000067
:103663000000000000000000000000000000000057
:103673000000F91D231EFF1D2D1D051E291E051EFD
:10368300351E0B1E2D1D051E291E111E2D1D00008E
:103693000000171E2D1D00000000000000001D1E6D
:1036A3002D1D0000000000000000000000000000CD
:1036B3000000000000000000000000000000000007
:1036C30000000000000000000000000000001300E4
:1036D300B7201F00BD201F80C32000001D21010053
:1036E3001D210200632002805D2003006920040085
:1036F3006F200480752005007B20060087203100A1
:10370300992033009F203400A5203600AB20FFFF13
:1037130000002B0400003905671B2B04100228232B
:10372300531B2B0404022123421B2B0405022123D8
:10373300441B0C00550039056B1B0C008501390532
:103743006F1B0C0004022123461B0C0005022123DE
:10375300481B0A00000002000000040000000800EB
:103763000000100000002000000040000000800066
:103773000000000100000002000000040000000837
:10378300000000100000002000000040000001F1D4
:1037930028062129081B290B3F29103F2602F72859
:1037A300050F2907FD280CD9280DE528643524FFCA
:1037B300000007ECFDFDFDECDCDCCCBCACAC9C9C60
:1037C3008C7C7C6C6C5C5C5C4C4C3C3C2C2C1C1CE6
:1037D30000160F00000B150B020002220F3300002E
:1037E3000E0F0000000000000000000000000000B9
:1037F30000005A6967426565416C6C69616E636577
:103803003039D0D1D2D3D4D5D6D7D8D9DADBDCDD91
:10381300DEDF150AF4D4C0A5958272636155504961
:1038230000034D4C4651181A25050230301718195C
:1038330021301B1D1F3000011916181616182303FB
:1038430000003C40423A3F3F392F47303030161892
:103853001920231A1C1E300C0E020B040B0A070836
:10386300000F02040201010101090200BE040AE87B
:10387300030000F6FB010003000000E8030000B5AD
:10388300371A007F001538050A0A1E1010080A2887
:10389300FF001A0802040015033C18090A10150852
:1038A30000FF030C031EE4F0A3F0A3F0A3221238DD
:1038B300A9F0229019BC124EB5122CDB221238C487
:1038C30022E0F508E4F509F50AF50B22E824FBF5F7
:1038D30082E934FFF58322E82411F582E439F58384
:1038E300E022F5831238EB22E0F508A3E0F5092284
:1038F300122F5774041211B97F08020EE87401F0F5
:1039030090072CE0640F2274091211B97F04020E90
:10391300E8EA2413FAE43FFB122E85E92279051223
:103923002E91740622A3A3E024F5C3941322122F2D
:103933006390074C126E737A147B0022C082C0839B
:1039430090199B74CFF0A3742CF0A374E1F0A374CB
:103953002CF090199F74B7F0A3742CF0A374B1F0FA
:10396300A3742CF0A374EDF0A3742CF0A374F3F000
:10397300A3742CF0A374E7F0A3742CF0A3749FF04A
:10398300A3742CF09019AB74C3F0A3742CF0A3743C
:10399300C9F0A3742CF0A374BDF0A3742CF0A3742A
:1039A300F9F0A3742CF09019BC1258846009901993
:1039B300BC124EB1121BFB9019B91251CB740812F1
:1039C3006520A3F0901A65F09019BEF07C0BFDF909
:1039D3007ABF7B19121B4D7C0B7D0079007ACA7B61
:1039E30019121B4D02502574F7120BE074F71212D3
:1039F3006CEAFEEBFF123A7D74051252E97403F090
:103A0300123B941252CB2430FCE43FFD8C82123AD9
:103A130075123A8960081242A274FFF0A3F0EE24F3
:103A23002EE43F1C1CFD8C82F583A3E0C0E08A8258
:103A33008B83124F7DD0E0123A8988828983125793
:103A4300B82403F0EE1242AC1215107403F0900781
:103A530041120FB7740212124C123E761211B9E9D9
:103A6300F5087007EEFAEFFB122D6BA90874090233
:103A730042BBF583E08882898322EA123A822212CA
:103A830059C73FF583221267A01252D7E8F0A3E982
:103A9300126A77E02274F0120BE0EAFEEBFF8C0C63
:103AA3008D0D890B123B94F5831252DF741012159E
:103AB30010E0F508A3123A77F0E824FFF582E91243
:103AC3003E88E508F0E824FEF582E9123E88E50B1E
:103AD300F0900746E0C0E0E824FDF582E9123E8855
:103AE300D0E0F0900745E0C0E0E824FCF582E9125D
:103AF3003E88D0E0F074121215101238E71238CF56
:103B0300E509F0E824FAF8E934FFF98882F583E55A
:103B130008F0EE2404FCE43FFD88088A828B83E0EE
:103B2300F50E8C828D83E0250EC395081267A012D3
:103B33005105850C82850D83A3A3A3A3A3A3A3A3EC
:103B4300E064037009EE1252B9F0A3E48003123E5D
:103B53008D123E957409F07508BF750919750A0031
:103B630078081211D812626A1211B97508FF750923
:103B7300FF78081211DCAC0CAD0D123E761211B9B0
:103B8300E9F5087007EEFAEFFB122D6BA90802386E
:103B9300FBEA2402FAE43FFB8A8222C082C08390BC
:103BA30019DBE0C39408400474078001E08A828B28
:103BB30083F033333354F8F902502574F0120BE0D9
:103BC3008A088B09890A8C0E8D0F750C00A2AFE44D
:103BD30033F50BC2AF9019D58045123CC0503D124E
:103BE3003CDA64037036E50824F9F508E50934FF87
:103BF300F5098E828F83A3A3E02405FCA3E03400A0
:103C0300FDAA08AB09121CEBE50824FFF508E5093A
:103C130034FFF5097410250CF50C150A1240AF1288
:103C23007228E50A6004EE4F70B0E50BA2E092AF94
:103C3300A2AFE433F50BC2AF9019D5803E12579172
:103C43008882F583124A05850882850983F08A8272
:103C53008983123CD1A3A3E0C0E0E50824FFF582E9
:103C6300E509123E88D0E0F0E50824FEF508E509F1
:103C730034FFF509050C150A1240AF123F0360210A
:103C8300123CDA640270F1123CC0EE40B0125400F0
:103C9300A2E550E4850E82850F837401F0E50A7076
:103CA300D7E50BA2E092AF850882850983E50CF086
:103CB300E50824FFFAE50934FFFB0238FB123CC692
:103CC300A2E622EE2411F582E43FF583E022123CC2
:103CD300D5221257D6A3228E828F83A3A3124F819C
:103CE300125EAD2274F0120BE074F312126C7403C3
:103CF300121510E9F07402121510EAF08B0B8521EE
:103D030082852283E4F004121244122C81E9F89094
:103D1300072BE0292437F508FA7B00121B5F8A0C76
:103D23008B0DAE0CAF0DEA4F7003023E6DEA240219
:103D3300F50EE43FF50FA808EA28F8E43BF9850EF1
:103D430082850F8312480190072BE0F9FAC3E49AA6
:103D5300FA95E0FB850E82850F83E02AF50CA3E03C
:103D63003BF50D9007291238E7750A007808121100
:103D7300D8E9FC7D00AA0CAB0D12523B1211B9AC71
:103D830021AD227401121510E0F9E50C24FFFAE5C8
:103D93000D34FFFB122C878A828B83E4F0E50BC47E
:103DA30054F0F9901A66E0C4333354C0F8900725F1
:103DB300E0A2E0E43313134849440FC0E0EA24FFD0
:103DC300F582EB123E88D0E0F0EA24FEF50CEB34EA
:103DD300FFF50D7403121510E0F87402121510E0CC
:103DE300C454F048850C82850D83F0A80C850E829F
:103DF300850F831264ED2AC3988E828F83A3A3A3B6
:103E0300A3F0850E82850F83E8F0A3E50DF0123E43
:103E13008D123E95E4F0740C121510E4F07508CA87
:103E230075091978081211D812626A1211B985211D
:103E330082852283E06009EE240E1254024408F0C6
:103E4300122E73E9F9E4F508F50978081211DC7408
:103E53000612124C123E781211B9E97006EEFAEF0F
:103E6300FB800BEEFAEFFB121B657A007B00740DEF
:103E73000238F87903EEFAEFFB122E8B740222EE6E
:103E830024FFF582EF34FFF58322EE123A82E4F049
:103E9300A322F0123E9A22EE12618D3FF583227423
:103EA300F2120BE08A0C8B0DA2AFE433F50AC2AF1A
:103EB3007508007509009019D5802C1240BF502455
:103EC300850C82850D83A3A312627D8E828F83A3CB
:103ED300A3124EB1122E79E9600A1240BAC2E6F07B
:103EE3008E088F091240AF123F0370CFE5084509D2
:103EF3006006123F9CD2E6F0E50AA2E092AF800D85
:103F0300E0FEA3E0FFEE4F2274021211B97F060216
:103F13000EE874F0120BE08A0E8B0F8C0C8D0D756E
:103F23000A00A2AFE433F50BC2AF7E007F00901905
:103F3300D58010AE08AF09123F94125400D2E7F0B7
:103F4300124E8F124EA36034123F9CA2E750F185AC
:103F53000882850983A3A3120FB7AC0CAD0DAA0E7B
:103F6300AB0F122E7F74021211B9E960D3EE4F60CA
:103F7300C21243367006123FAED2E4F0E50BA2E064
:103F830092AFEE4F6006122D65750A01A90A023839
:103F9300FB123CC6D2E4F0EE22E5081261A7350914
:103FA300F583E022AA82AB83121CEB8E828F83A35C
:103FB300A3124F81E02274F2120BE074FE12126C12
:103FC300750C00750D00852182852283E4F0A3F032
:103FD300A2AF33F50AC2AF9019D5127228802BEE27
:103FE30024FBF582EF34FF1238E5780C1211DC1252
:103FF300409D1211B9EEFCEFFDAA21AB22121B83E7
:10400300AE08AF099019DBE014F0EE4F602B1240BD
:10401300BF501DEE240BF8E43FF98882F583E024BA
:10402300FFF0A3E034FFF08882898312588460AFE5
:104033008E0C8F0D1240AF80A1E50AA2E092AF90E3
:1040430019DBE0602C90072CE0640F6006901A6582
:10405300E0701E7AB37B19122F63908408120FB39A
:104063007AB37B191250AD1211B9800574F0124F57
:104073008EAA21AB22121B898A088B09AE08AF09CD
:10408300EA4F6013122C931240BAA2E28E828F83FE
:10409300A350D974E980D7023F0BEEFCEFFD7AD52C
:1040A3007B19121B957402228E0A8F0BEE24FBF5EB
:1040B30082EF34FFF58322EE123CC722123CC6A2E4
:1040C300E72274F7120BE0EAFEEBFF122C93124F78
:1040D3007A123157E96401900748700AE02401F825
:1040E300A3E034008003124F00F912560212510567
:1040F3009019DBE0701F90072CE0640F70177AB300
:104103007B19122F63908408120FB37AB37B1912B1
:1041130050AD1211B9A8A8C2AF9019DBE004F0E8C2
:10412300A2E78004E508A2E092AF02551074F712EB
:104133000BE0EAFEEBFFEA124166F0122C93EEFC71
:10414300EFFD7AD57B19121B8FA8A8C2AF9019DB9C
:10415300124A5490072CE0640F70057908122E2B35
:10416300025510123CC7C2E42274F7120BE074EA42
:1041730012126CEAFEEBFF900725E0602A8521828C
:104183008522837401F0121510E4124221121510D6
:10419300123FA7C0E0740A121510D0E012650D7427
:1041A3000B12151012576D74160242BB74F7120BE3
:1041B300E0EAFEEBFF122C75E9F974DC69601E740A
:1041C300DD69601974E469601474F369600F74DE67
:1041D30069600A74DF69600574DB697007EEFAEFE2
:1041E300FB122E3102551074F7120BE074EB12120E
:1041F3006CEAFEEBFF85218285228374061242213D
:10420300121510AA82AB83121CEBEE2408FCE43FC8
:10421300FD740A12151012576D74150242BBF0EAB1
:104223002413FCE43FFD74022274F7120BE074F7CD
:1042330012126CEAFEEBFFEA2430125402605DEACC
:104243001242AC1215107403F0900741120FB7120B
:1042530042A2120FB7900754E0F9740412124CEE05
:10426300FAEFFB122C7B74041211B9E9F974DC69BF
:10427300602374DD69601E74E469601974F3696016
:104283001474DE69600F74DF69600A74E86960059D
:1042930074DB697007EEFAEFFB122E31023A70EE0F
:1042A300242EF582E43FF5832212667EAA21AB22F7
:1042B300121CEB74082274031211B902551074F224
:1042C300120BE08A0C8B0D750A00750B007508E75D
:1042D300A2AFE433F509C2AF9019D580031240AB06
:1042E300123F0360251240BF50F312433670EEEEC7
:1042F30024321244CDE06870E4780A1211DC1240D3
:104303009D1211B99019DBE014F0E509A2E092AF18
:10431300EE4F6013EEFAEFFB122C9379F0EEFAEF07
:10432300FB122E31750800A908AA0CAB0D122E3111
:10433300023F10123E9AE064012274F4120BE074FF
:10434300F712126CEAFEEBFF8A82F583A3E064F3B3
:1043530070030243DB8A828B83A3E064DF60798A84
:10436300828B83A3E064E8606F8A828B83A3E0641B
:10437300DB6065122CD5E9F5087055EE240E125456
:1043830002604D1243E5604874081215101243F49D
:10439300120FB77508FF7509FF78081211DC8E82BA
:1043A3008F83A3A3A3A3A3A3A3A3E0F9740412126B
:1043B3004C122C7B74041211B9E9F50874F369608B
:1043C3000F74DF69600A74E869600574DB69700F54
:1043D3008E828F83A3E508F0EEFAEFFB122CE10245
:1043E300390AEE240FFAE43FFB7909122D17EA4B41
:1043F300227402125C7374FFF0A312440122125759
:10440300C1A3A32274F1120BE0EAFEEBFF750800CF
:104413008A82F583A3A3A3A3A3A312392840037518
:1044230008E88A828B83A3A3A3A3A3A3A3A3A3A321
:10443300E0C3941040057508E880138A828B83A338
:10444300A3A3A3A3A3A3A3A3A3E0640F600B901A46
:1044530042E0540870037508E8EA240B1244CDA324
:10446300A3A3A3A3A3A3A3E0C398500DEA240B1211
:104473005402640F60037508E8900745E0F4700385
:10448300A3E0F470037508EC7A237B00121BF58B11
:104493000BA90B9019BC1244DC60278E828F83A377
:1044A300A3A982AA83890C8A0D750E00780C1211B8
:1044B300D87C237D009019BCE0FA12523B1211B94B
:1044C300800375081AA908026265F582E43FF58343
:1044D300E0F88A828B83A3A322EAF0A3EBF0EA49F4
:1044E3002274F5120BE0EAFEEBFF8A82F583A3A3A5
:1044F300A3A3A3A3A3A3E090072C124574E0900702
:1045030047F0EA240B125402900727124574A3E0E4
:10451300901A66F0F91219A3901A66E0600BEE2464
:10452300041253F4240612456A901A651239006086
:10453300047401800274009019BE126BB81211D872
:104543007C0B7D007ABF7B1912523B1211B9EE240A
:1045530018F508E43FF50978081211D87C0B7D00A3
:104563007ACA7B19025228FAE43FFB79E112198BCC
:1045730022126BA2A3A3A3A32274F7120BE0EAFEF9
:10458300EBFF8A82F583A3E070031238B612672922
:1045930002551074F7120BE0EAFEEBFF9019BC1200
:1045A300588460109019BC124EB19019BCE4F0A36A
:1045B300F0121BFB8E828F837408124F951222F721
:1045C30002551074F6120BE0901A65E06010901912
:1045D300BEE0700A1245E4EA4B6003122D6B0268D9
:1045E30023900727E0FB900747E0FA90072CE0F9B8
:1045F300122C8D2274F4120BE074E712126CEAFE93
:10460300EBFF750B018A82F583A3A3A3A3A3A3A343
:10461300E0A2E25069EA242BF582E43F12627BEACE
:104623002413FAE43FFB122C99E970529082D6E0EE
:1046330064017005750B0080451246B61211D87CD3
:104643000B7D00741112124412523B1211B9122E37
:1046530073E9FA740E12123C88088909780812115A
:10466300DC75083075090078081211DCEE1264D687
:10467300120FB712667079011239221211B985210E
:10468300828522837410F01266707402121510AAC8
:1046930082AB83121CDFEE242B126E69740B12158E
:1046A30010125105740D121510E50B1268E27419FE
:1046B30002390CEE2408126BC022C082C083901A08
:1046C30066E06003122EE5025025C082C083901A73
:1046D3005D749BF0A37419F0A3749FF0A37419F095
:1046E300A374ABF0A37419F0901C4574F1F0A37498
:1046F30034F0901A47746FF0A3742CF09019E0749F
:10470300A5F0A3742CF09019E274ABF0A3742CF011
:10471300901A42E04402024B29C082C083EAFCEBB8
:10472300FD7903025830C082C08379080269A3C0AF
:1047330082C08374FE12126C9019E87453F0A37450
:104743002DF09019EA744DF0A3742DF080077AD5FB
:104753007B1912478E9019D512588470F19019D78E
:1047630012588460097AD77B1912478E80EF90190B
:10477300D5E4F0A3F09019DBF0A3F0A3F09019F6C1
:10478300748FF0A3742DF07402801C121B89852191
:1047930082852283EAF0A3EB1247A2122E6122F054
:1047A300AA21AB222274111211B902502574F612F8
:1047B3000BE0E9FF744429F582E43438F583E4938C
:1047C300FEFA7B00121B5FEA4B6007EA2E1247FEDC
:1047D30080267A027B00121B5FEA4B6017742E2F30
:1047E300F582E43438F583E4938A828B83F0A374EF
:1047F3001A124BC77A007B000268231250F4E812A6
:10480300679DA3A3A3A3E4F022E9FC740629F8EAB5
:10481300A2E0501EE875F00A84E5F0F96014740A0A
:1048230028C399F8E9C394054004740A28F8740B63
:1048330028F8ECC394134004791480027906E8291C
:1048430079002409F85001097A0A7B0012097EE8ED
:10485300F9021186C082C083901A42E05402600AB2
:104863001222FDE96004790180027900025025C01B
:1048730082C083901A42E0540260149019DBE07006
:104883000A1258816009124897500479018002790D
:10489300000250251238DAA2E722C082C083908238
:1048A300D3E0F89019DDE0C3985005121B5F800434
:1048B3007A007B00025025C082C083122E617900EA
:1048C300025025C082C08374FE12126C852182853A
:1048D3002283EAF0A3EB124A30A3A3A3A3A3E060CD
:1048E3000A14605724FE605A0249A090072CE06422
:1048F3000F6012122E37E9700C124EAB9019E412AE
:104903004F7D123157900754E0C0E0852182852204
:10491300831257A4D0E0124A3074141261C1FCA36D
:10492300E0FD7AD77B19121B83A8A8C2AF9019DDCB
:10493300124A547920122E2B02478A124CFE741508
:1049430080D9124CFEA3A3A3A3E06051124CFE1224
:104953003FB2C0E0852182852283E02406F582E40C
:104963003BF583D0E01261C12402F8A3E03400F9DF
:104973008882F583E02401FAA3E03400FB8882896E
:1049830083EAF0A3EB1261C1124D3E852182852299
:10499300836013124A056005124A174048AA21ABE7
:1049A30022122E618092124A0560F2124A17502198
:1049B300124A24FA852182852283A3E0C8240612A1
:1049C3004CFAF874641259B93438F583E4936A6085
:1049D30014852182852283124A05640870BF124A16
:1049E30024640870B8124A2414124A38240AC0E016
:1049F300852182852283124F7DD0E0124A3804023A
:104A0300491E124A0922124F00C82406F582E438CF
:104A1300F583E022852182852283124A09C3940A01
:104A230022852182852283123CD5A3E022124A42A9
:104A3300F583888222124A42C82406124D2822F0A6
:104A4300852182852283124F0022A8A8C2AF901924
:104A5300DCE004F0E8A2E792AF22C082C0839019A1
:104A6300EC1258846008124D051231578002790008
:104A730002502574F7120BE0EAFEEBFFEA123E9BAD
:104A830074011250B3F8A3E0F9123A7D125105EA0A
:104A93002435125402C0E0EA2413F582E43FF5837F
:104AA300D0E0F0EA2436125402C0E0EA2414F5827E
:104AB300E43FF583D0E0F0EA2438125402C0E0EA80
:104AC3002418F582E43FF583D0E0F0EA242FF58241
:104AD300E43FF583120FB712667DEA2431125402C4
:104AE300F9123E7C1211B9E9F5087007EEFAEFFBF3
:104AF300122D6BA908025510C082C083122E37E90C
:104B03006004792080027901025025C082C083EAC3
:104B13002411124B1FD2E0800DEA240DF582E43BF1
:104B2300F583E022F0A3F0025025C082C083124B2C
:104B33001C64017011124BC1400C8A828B83A3E069
:104B4300F9122E318066124BB2A2E650128A828B82
:104B530083A3E0F99019E6124F7D123157804D126D
:104B63004B1C6401700D124BC150088A828B8374F5
:104B73003080368A828B83A3E0641B8A828B8370A6
:104B83000474228024A3E0700D124B1CF8744F129E
:104B930059B93438800B124B1CF8742E1259B9349E
:104BA30038F583E4938A828B83124BC70250251214
:104BB3004BB622EA2410F582E43BF583E022124B44
:104BC300B6A2E322F0901A3DE0F9121B6B2274F7B0
:104BD300120BE0E9FE1258817003024CF7EE6014E9
:104BE300741B6E701AE812618D39F583E0640570E9
:104BF30003024CCF9019DF124D05A3E4024CD67487
:104C0300E96E7068E82412F582E439F583E0700BED
:104C1300122303E96005124D48606179EE12190D04
:104C23009019DE124D1F9019DE603A124D4B901908
:104C3300DE700B124D1F14F0121ACF024CF7124DF7
:104C43003DC2E7124EE6240D124CFA6403700912BA
:104C53004D18124E9CD2E2F079ED12190D124D301F
:104C63001231578078124D0B74E9806774E16E70CE
:104C73003E122303E96055124D48705090074EE0F1
:104C8300C0E0124D182412F582E438F583D0E0F029
:104C930090073DE0C0E09019DE124D14124D14D080
:104CA300E0F090073DE004F07901121AB7804574F3
:104CB3001C6E70189019DE124EB19019EE124F7DD2
:104CC3001231579019DEE4F0A3F080289019DE1218
:104CD3004D0BEEF09019DE124EB1122D59124EC744
:104CE300E0548060031269929019DEE4F0A3F07936
:104CF30010122E2B025510124D2822852182852257
:104D030083A3E0F583888222124D0F22124F85A3DD
:104D1300221257D2229019DE1257B3221257B3240C
:104D230012124D2822F582E438F583E0229019DE31
:104D3300124EB59019E2124F8122E0F8A3E0C82485
:104D430010124D28229019DE124ECEE05404227424
:104D5300F4120BE0750A00750B00A2AFE433FEC238
:104D6300AF1258816003024E45124F7A123157E950
:104D73004410F89019D5800985080A85090B124E4D
:104D83008F124EA37003024E45123F9C586870E881
:104D9300780A1211DCAC08AD091240A11211B990C6
:104DA30019DEE508F0A3E509124EE6124E9CA2E7D0
:104DB3005003024E4C9019DCE014F0EEA2E092AFE7
:104DC3009019DEE0240EF8A3E03400F9E8FEE9FFD1
:104DD3008882F583124EB19019DE124A2AF9122DF8
:104DE3001DE99019D91265208E828F83E05480606B
:104DF30018124D182413124CFAF91219C7124D1830
:104E03002414124CFAF91219BB124EC7A3E0540131
:104E1300605F9019D91258846045124EDD604012CC
:104E23004EDDF879009019D9124EB1120986E8C007
:104E3300E0124EBBD0E0124EEBC394134011740248
:104E4300800FEEA2E092AF80379019DB024DBB7466
:104E530000C0E09019DFE0C8124E86D0E0800D124A
:104E63004EBB7401124EE6124E867401F079038034
:104E73000C9019DE124D3DA2E1B3E433F9121AB7D7
:104E830002390F241AF582E438F58322E50824FB5E
:104E9300F582E50934FFF583221261A7124D2B2217
:104EA3001238EBE508450922852182852283124EBB
:104EB300B522E0FAA3E0FB221257B02419F582E4ED
:104EC30038F583229019DE124ECE22124F00C812FB
:104ED3004ED6221259C738F583221257B02418121E
:104EE3004D2822124EF8C822124EF8F5838882A369
:104EF300A3A3A3E022F09019DE124F0022E0F8A34F
:104F0300E02274F7120BE0EAFEEBFF122E5B125362
:104F1300FFA2E3400A12433670059082D1800390CA
:104F230082D2E0F9EEFCEFFD7AD57B19121B9BE9E7
:104F33006038EEFAEFFB9019E8124F7D123157EE0D
:104F4300240E12540254047012124A4DEE123A7E89
:104F5300A3E05401701E122D658019EEFAEFFB9049
:104F630019E0124F7D123157800A8E828F83A3740A
:104F7300F1124F8E0255109019EA124F8122124FEF
:104F83008522E0F8A3E0F583888222124F95122D43
:104F93005922F0EEFAEFFB2202501E74F7120BE0D7
:104FA300EAFEEBFF7900901A42E05402700CEA2407
:104FB300331254025404600279E8901A42E05460B8
:104FC300700CEA24331254025402600279E88A8294
:104FD3008B83A3A3A3A3E0F89082D7E0C3985002E6
:104FE30079E8EA2431125402700CEA242E12540296
:104FF300700479F5800BE97005122D47E9F9E96032
:1050030007EEFAEFFB122E31025510C082C0838ADD
:10501300828B83740DF01222F78007C082C0831243
:105023002D65D083D08202118674F4120BE0EAFE60
:10503300EBFF8A82F583E4F0A31250B35404908209
:10504300D17012E0F89019DCE0C398401279F112A4
:105053002E3102390FE0F89019DBE0C39850EE12BD
:1050630050B9A3E054016037EA2437125402C394C1
:10507300054033EA2433125402540570297AF07B35
:1050830019122F63EE2437F582E43FF5831238C0FB
:1050930078081211D47AF07B191250AD1211B9EEBF
:1050A300FA125AAA80AC79E880A5122F5774042209
:1050B300F01250B9E022EA2433F582E43FF583226B
:1050C30074F6120BE0E9FE2451FAE43400FB121BE0
:1050D3005FEA4B6015EE8A828B83A3A3A3A3F0EA56
:1050E30024511250F412510580047A007B000268A7
:1050F30023F8E43BF98A828B83A3A322126E739075
:105103001ABAE8F0A3E9F02202501EC082C08390CD
:1051130019F974B9F0A3742DF0A374E9F0A3742DF5
:10512300F0A374BFF0A3742DF0A374C5F0A3742D82
:10513300F0A374E3F0A3742DF0A374D7F0A3742D3C
:10514300F0A374D1F0A3742DF0A374EFF0A3742D26
:10515300F0A374F5F0A3742DF0A374FBF0A3742DE6
:10516300F0A37407F0A3742EF0A374CBF0A3742DF3
:10517300F0A374B3F0A3742DF0A374ADF0A3742D56
:10518300F0901A1574DDF0A3742DF0A37401F0A34D
:10519300742EF0A3741BF0A3742FF0A3740DF0A36B
:1051A300742EF0A37413F0A3742EF0901A39E4F064
:1051B300901A3CF0901A251251CB7402F0901A2EDB
:1051C3001251CB7401024B29742BF0A3742EF0A35C
:1051D3002274F5120BE074F112126C852182852280
:1051E300837402F07401121510E9F060047AFF7BF6
:1051F300FF7402121510125C6875083175091A756F
:105203000A0078081211D87C0B7D00740712151060
:10521300AA82AB8312523B1211B9AA21AB221222EA
:10522300F7740F800312523B1211B97F03020EE889
:105233007C0B7D007A317B1A121B4174032274F7B5
:10524300120BE074FD12126C852182852283740A8D
:10525300F07401121510E9F07402121510EA1268C5
:10526300E20242B974F6120BE074F712126CEAFE12
:10527300EBFFEA1252B91252E97402F0EA2428FC55
:10528300E43FFDAA21AB22121CDFEE24311252BFF0
:1052930024331262E11211DC740212124C79831A64
:1052A3001A123E7A1211B9E9F5087007EEFAEFFB0C
:1052B300122D6B02681C123A82740122F582E43FBC
:1052C300F5831238EB125789F5831252D7E8F0A30E
:1052D300E9F0EE221252DF8A828B8322E024FFF868
:1052E300A3E034FFF922F0A3E4F0EA123E9B227418
:1052F300F0120BE0126D5112149D7808790C120A0A
:105303007978081211D47A287B1A0238F374F412CC
:105313000BE074C612126C90072CE0640F600D85CD
:105323002182852283742E125C8780227A1F7B1A46
:1053330012393112098688088909E4F50AF50B78D0
:10534300081211D47A1F7B1A1250AD1211B9743A94
:1053530002390C74F5120BE0EAFEEBFF8A82F58347
:10536300A3E0F87078EA243012540264026007E084
:105373006403600278E8EA2426F582E43FF58312A9
:10538300392A400478E88058E87052EA2426124506
:105393006AEE24311253F424301254026402700E64
:1053A300EE2428126E6990073B125105801790076F
:1053B3003B74FEF0A304F0EE2428FCE43FFD7A32B4
:1053C3007B07121CEBEE241B1246B91211D81252A2
:1053D300331211B9EEFAEFFB122DA7E9F8E8600ECC
:1053E300E88E828F83A3126685741712672F025289
:1053F3002EFAE43FFB795012198BEE22EE2410F5BE
:1054030082E43FF583E02274F6120BE074F7121284
:105413006C901A3CE070377401F0F9121A81AA21DA
:10542300AB22122E6D75083175091A78081211DC3A
:1054330075080175090078081211DC900741120FF5
:10544300B7740612124C7A031239201211B902688A
:105453001E74F7120BE01256307004A374EBF09035
:105463001A3CE0A2E25003C2E2F0E0A2E1500512CE
:10547300564180098E828F83742A12672F0255103A
:1054830074F4120BE074FE12126C12553612577C30
:10549300EC8521828522831257CBE0F50B7015AA88
:1054A30021AB22795312198BEE2413FAE43FFB79D3
:1054B3004A12198B1246B61211D81252331211B96D
:1054C300124EABA90B122D9B901A3CE0A2E15003A4
:1054D300125648901A3CE4F0740202390C74F71225
:1054E3000BE0EAFEEBFF8A82F583A374EBF0901ADC
:1054F3003CE0A2E150077A0079EB122DA1EEFAEF1E
:10550300FB122DD78007EEFAEFFB122ED97F010293
:105513000EE874F7120BE0125536901A39E4F09046
:105523001A3CF07AFF7BFF8E828F83A3E0F9122D62
:105533009B80DA1256817A287B1A122F632274F722
:10554300120BE0EAFEEBFF122DD180BA74F7120BB7
:10555300E01256BEA3A3A3E060047400800274EBC0
:1055630012558F5003C2E2F0E0A2E15005125692A9
:105573008011A2E0500D8E828F83742AF0A374EB06
:1055830012672FEEFAEFFB122D7D80818E828F83BF
:10559300A3F0901A3CE0A2E22274F6120BE0EAFEBA
:1055A300EBFF901A3CE0D2E1F07901121A818E826E
:1055B3008F83A3E07038122E73E9FAEE240DF508F9
:1055C300E43FF50978081211DC75080175090078C4
:1055D300081211DC125602120FB7EE2402FCE43F4C
:1055E300FD1239201211B9E98E828F83A3F08E82C6
:1055F3008F83A3E060067A00F9122DA1026823EEDF
:10560300240BF582E43FF5832274F7120BE0125664
:10561300307004A374EBF0901A3CE0A2E25003C292
:10562300E2F0E0A2E15003125641025510EAFEEB0C
:10563300FF7901121A878E828F83E0642022C2E1F0
:10564300F0125648227A008E828F83A3E0F9122D3E
:10565300A12274F7120BE01256818E828F83A3A3CB
:10566300A3A3E060047400800274EB12558F50030F
:10567300C2E2F0E0A2E15003125692025586EAFE1E
:10568300EBFF7901121A877A1F7B1A122F6322C24A
:10569300E1126BB3E0A2E4E433FA12564A2274F740
:1056A300120BE01256BE74EB1255945003C2E2F093
:1056B300E0A2E15003125641025510EAFEEBFF79D6
:1056C30001121A878E828F83A32274F7120BE012C2
:1056D30056E302550974F7120BE01256E302551014
:1056E300EAFEEBFF7A1F7B1A122F63EEFAEFFB122F
:1056F3002DFB2274F7120BE074EF12126CEAFEEB2F
:10570300FFEA1266717A327B07121CD9E96056856B
:1057130021828522837409F0740112151074EFF04D
:1057230012577C7402121510EC1257CBA3A3E0C0DE
:10573300E07404121510D0E01257B8640870158E87
:10574300828F83A3A31257A4E0C0E074051215103F
:10575300D0E080067405121510E412650D7406126C
:10576300151012576D74110242BBAA82AB83122E1D
:10577300A3AA21AB221222F722125789F5831257CB
:105783009BFCA3E0F922EE125791FB8882222402AC
:10579300F8E43FF9E8FAE922124F008882F583E042
:1057A300221257B32407F582E438F583229019DED9
:1057B300124F00C8221257BC221257C1E022F08EAA
:1057C300828F83A3A3A3A32212679D1257D222120F
:1057D30057D622E0F8A3E0F5838882A3A322C082F0
:1057E300C083122EE5025025C082C083901A5974DB
:1057F300F9F0A37419F0A37415F0A3741AF0901CB4
:105803003F7453F0A37435F0A3748FF0A37434F092
:10581300901A457495F0A3742DF0901A42E0440158
:10582300024B29C082C083EAFCEBFD7902122E49A8
:1058330002502574F6120BE074FE12126C901A3E9D
:1058430012588460077A3E7B1A122E61901A44E440
:10585300F0900EB312588460208007AA21AB221265
:105863002E61901A3DE0F9121B778B09A909852156
:10587300828522831244DC70E2740202682090194C
:10588300DE126E73E8492274F7120BE0E9FA7B002B
:10589300901A3DE0F9121BA102551074F7120BE0A8
:1058A30074F012126CEAFCEBFDE9FE8A828B83E052
:1058B300F8745A1259B93438F583E493C0E074018B
:1058C300121510D0E0F0640B700DE98A828B83A36C
:1058D300F0122EC70259B4E070030259B4640C608D
:1058E300030259A5741A6E700B7404121510E4F0B8
:1058F300A30259A47404121510125C68EA2432122C
:105903006171C0E07403121510D0E0126B9E121483
:10591300D574061215101214E18C828D83A3A3A3F0
:10592300A3A3A3A3A3A3126E6F740A121510E8F026
:10593300A3E91259BEE054106009852182852283B0
:10594300E48013EC2412126171F890074EE0C398BF
:10595300852182852283F0E0C0E0740C121510D0FB
:10596300E0F0EC2415126171C0E0740D121510D033
:10597300E0F0EC2416126171C0E0740E121510D021
:10598300E0F0EC2417126171C0E0740F121510D00F
:10599300E01259BEA3E0540160087401121510749B
:1059A30011F07402121510EEF07401121244122257
:1059B300F774100242BB28F582E422F0EC1259C7B7
:1059C3003DF58322240EF582E422C082C083901A1F
:1059D30044E0640370047901800279000250257465
:1059E300F7120BE0901A44E0125A5D743D28F582D9
:1059F300741C39F583125EEFC2E7F0125A64A3E414
:105A030093FE25E0FCE433FD743D2CF582741C3DCC
:105A130012627BEC4D6005EE901A44F08A828B8310
:105A2300E025E0FCE433FDE82CF582E93DF583E471
:105A330093FCC4540F25E0F874531259B9341AF582
:105A4300831258847005122EB5800CEC540F125A31
:105A530064124F7D12315702551025E0F8E433F9F3
:105A63002225E0FCE82CF582E439F5832274F21256
:105A73000BE074FE12126C890B8A088B09125B0F00
:105A8300125B00601A12651AF50A78081211D8120F
:105A93005B1C24021262711211B9125AA8800312FC
:105AA3005B2E023F0BAA0CEFFB901A3DE0F9121B91
:105AB3006B2274F0120BE074FE12126C890B8A0EC7
:105AC3008B0F125B0FF508125B00602712651AA893
:105AD30008EA281247FE850E08850F09F50A78089B
:105AE3001211D8125B1C12626F1211B9125AA879E3
:105AF300008005125B2E791A74020238F8FA7B00D3
:105B0300121B5F8A0C8B0DAF0DEA4F22742329F50C
:105B130082E43438F583E49322A80B74391259B91B
:105B23003438F583E493FC7D00EA228521828522C3
