:020000040000FA
:0600000002145402087D09
:030013000209D30C
:03002B000211E3DC
:0300330002108632
:03003B00020A288E
:030053000207B2EF
:100083000208110100F0FF0700080000FFFF000055
:100093000704000000030001FF18102700000020E0
:1000A300FD000206FFFFFE0400000004E5C6FE0695
:1000B300001F0000AC03FE06001F00B4AC741E0357
:1000C3000077016F177517D51D00000000000000B1
:1000D300000000000000000000000000000000001D
:1000E300000000000000000000000000000000000D
:1000F300000000F31D0000000000000000000000ED
:100103000000000101E803D00732006400DC009422
:1001130002000000000000000000000000000000DA
:100123000000000000000000000000FF00000000CD
:1001330000000000000000000000000000000104B7
:10014300010C0002076F8200000001040000621727
:10015300000000E8030000FFFFBF1788130000E85A
:1001630003000064006400B801A0BB0D00A0BB0D38
:1001730000020202070401010A1E02051E020A0A06
:100183000101010809080103B80B02803E0102FEC8
:10019300FFE8030A050001FFFF010A011401E00162
:1001A30000B0423BAAB83F0000003F8C906339AADD
:1001B3000CA33A00941E3C8042633DCFFE753E156E
:1001C30072313F0000803FF304353F8096184B00A7
:1001D3000080BF2292D43EDD9B2A3F04000040FFF3
:1001E300FF7F7FFFFF7FFF010080341872313F01E3
:1001F300050301010F10FEFF3D3400000000D5335D
:1002030000000000FF000000FF001214826046128D
:1002130014A0603DE9687008F618F618F618F6227F
:10022300748067F7120241090909748067F7221283
:1002330014A0601D1214827005191919801A121363
:1002430030701F1212E0C37003E6673319191940A7
:10025300071818182208080874FFF618F618F61875
:10026300F6221212E06017121520702192F0121577
:100273000E7019501720F014080808090909E7F649
:100283001819E7F61819E7F61819E7F62212150EEA
:1002930060E6E869701F0808E62480F608E436F68D
:1002A30018547FB47F0CE654806007F6E418F61800
:1002B300F622181822E9C6CC08C6CD08C6CE08C651
:1002C300CFC0E0E8C0E0EAC0E0EBC0E009E9F8092C
:1002D300E7FA09E7FBE6F918E6F8C3EC98ED99EEBF
:1002E3009AEBC2E7F5F0EFC2E795F0500E600CEB26
:1002F300CFFBEACEFAE9CDF9E8CCF8EAA2E7D2E7F8
:10030300FAEB33FB13F5F0EEA2E7D2E7FEEF33FF90
:10031300C5F013A2E730E601B313C5F0C3C0E0C0D4
:10032300F07F00C39BFB605E9418600F401D146058
:100333001AD0E023F9D0E0F80204138AF0E9486008
:1003430003D2F0E4AFF0FAF9F8803BEB30E40D8927
:10035300F0EA6003D2F0E4AFF0F9CAF8EB30E30D52
:1003630088F0EF6002D2F0AFF0E4CAC9F8EB5407AB
:100373006014FBC3EA13FAE913F9E813F8EF135017
:1003830002D2E0FFDBEDD0E0C0E030E739C3E49F09
:10039300FFF5F0EC98FC42F0ED99FD42F0EE9AFE89
:1003A30042F0D0E0F9D0E0F8E5F0607AE923F9EE25
:1003B30020E742D8028067C3EF33FFEC33FCED3311
:1003C300FDEE33FE80EAEC28FCED39FDEE3AFED07B
:1003D300E023F9D0E0F84002801BC3EE13FEED13D7
:1003E300FDEC13FCEF135002D2E0FF08B800067FC8
:1003F3007F74FF802EEF3350178CF020F0026010D3
:100403000CBC000C0DBD00080EBE000408E860DF44
:10041300E933E813FFEE2313FE4F4D4C8008E954F4
:1004230080FFE4FEFDFCEE33EF33F47004FCFD7E4D
:1004330080D0E0FBD0E0FAD0E0F8D0E0CFC618CE11
:10044300C618CDC618CCC6F9221214A07004181809
:100453001822121482700D74FFF61819F61819F683
:100463001819F622E7548066F612150E700F12154E
:100473002070F014F608F608F608F680D11215205D
:10048300700CF608F608768008E6447F80EC1212BA
:10049300E3700C12133360BFE65480F6E480BB12A2
:1004A3001333700519191980A5E869700C763F1884
:1004B300768018F618F6E8F922E6CDC0E018ECC00D
:1004C300E0E633CD33CDD313F6E719FCE71919333F
:1004D300CC33C3947F400ECD9D502408E65480F660
:1004E300E418F6800FF4043D14501408E6447FF634
:1004F300187680E418F618F6D0E0FCD0E0FD22CCA4
:10050300D313CCFD18E4C6CBC0E018E4C6CAC0E0E0
:100513000808ED08C633E613F618E433C675F0038E
:10052300C3CA97CA09CB97CB199C40047D08802E78
:10053300BD00030205F516B6FF050606081618C327
:10054300CA33CACB33CB33CA27CA09CB37CB193CFF
:10055300C37D08803E187D0820E75CC633C6CA33D6
:10056300CACB33CB33DDF1D5F0EB30E77BCA97CA87
:1005730009CB974ACB199C406F4B7025E620E021AD
:100583008066187D08C3CA97CA09CB97CB199CD339
:10059300C633C6CA33CACB33CB3350C9DDE7D5F034
:1005A300E1D3E4C636C608C636C608C636C608C68C
:1005B30036C61818188031C3CA97CA09CB97CB1906
:1005C3009CB34097C633C6CA33CACB33CB33DD346F
:1005D300D5F02EC6A2E0C640C8CA27CA09CB371930
:1005E3004A70BECB3CB480B90808E63308E63360F2
:1005F3001F181818D0E0FAD0E0FBD0E0FCD0E0FDE3
:1006030022187D08CA27CA09CB37CB193CD380806F
:1006130013F618E4B67F11F618B6FF0EF618C604E3
:1006230070D20808768080CAF618F618F680C500DE
:100633001214A0604F1214826012E7548066F612FF
:1006430013307011121520703B090909F4F618F6DE
:1006530018F618F6221212E0701512150E08080883
:1006630060EAE6447FF618768018E4F618F622125C
:10067300150E60161215207012E4F608F608F60837
:10068300E65480F609090918181822EAC0E0EBC0FD
:10069300E0ECC0E0EDC0E0E687F0A4FBACF008E6D8
:1006A30087F0A42CFCE435F0FA1809E687F0A42CB3
:1006B3004B60027401CA35F0FCE433FB09E687F0B2
:1006C300D2F7A42CCB35F0FC1908E687F0A42BCC89
:1006D30035F0FBE433FD0819E687F0D2E7A42C4A92
:1006E300CB35F0CD3400FC09E687F0D2E7A42DCC5E
:1006F30035F0FDE433FA0918E687F0D2F7A42CCDE0
:1007030035F0CA3400FC08E687F0D2E7D2F7A42A12
:10071300CC35F07A7E20E70B0ACB33CBCD33CDCC6F
:1007230033CC33CB3350147004ED30E00ED2F1E40C
:10073300CD3DCDCC3CCC3B5005DA05C2F1EB547F2B
:10074300C63308E63392F0FBE73309E733C39A5025
:100753002D2B70190C0D4C4D70151806E608C3337C
:10076300700D20F10AA2F013F6E418800B4024E484
:10077300F630F002768018F618F618F68024D33B8C
:1007830014501074FFA2F013F6187680E418F618CC
:10079300F6800FA2F013F618E63303F618ECF618FA
:1007A300EDF6D0E0FDD0E0FCD0E0FBD0E0FA22C0D3
:1007B300E074F1120C40A2AFE433F509D2AF85A780
:1007C30008AFA1EF5508FE74105E600612183B7562
:1007D300A1EF74085E600812184175A1F78024EF39
:1007E300A2E092F0E508A2E082F05017906198E051
:1007F300F8900714E0C398A2D265D0335002E8F012
:1008030075A1FEE509A2E092AF7F02020C9FC0E052
:1008130074F2120C40A2AFE433FED2AF9061A4E0B5
:10082300F8759B00E59158540860087591F7121804
:100833008F8023E59158541060087591EF12189535
:100843008014E591A2E092F0E8A2E082F05007E084
:10085300C2E0F01219EB9061A3E0F8E5E958540403
:10086300600E1219C175E9FB906193E0A2E640F2B4
:10087300EEA2E092AF7F01020C9FC0E074F2120C73
:1008830040A2AFE433FED2AF9061A5E0F8E5BF58D4
:100893005404600675BFFB121A0380D41208EA30B1
:1008A300F03912092F80341208EA20F01430E72BB4
:1008B30074FFFCFBFA747F8022E4FCFBFA748080F3
:1008C3001AB48008BC00F2BB00EF800F50EBF9E4D0
:1008D300C39AFAE49BFBE49CFCE499C6CC18C6CB10
:1008E30018C6CA18C6F922E4C9C608CAC608CBC6C0
:1008F300D3330308CCC63392F0C3947F402E9418AD
:100903004019C9B90704CACBCC225025C309CA333D
:10091300CACB33CBCC33CC33D9F422F4600DC9CC5E
:10092300C313CB13CBCA13CAD9F6CC22E4FCFBFA0C
:100933002214FCFBFA22C3E498F8E499F912097A29
:100943008026C3E49AFAE49BFBE920E7E912097ADB
:10095300E498F8E499F922C3E498F8E499F91209C0
:100963007AE498F8E499F9C3E49AFAE49BFB22EB5E
:1009730020E7CFE920E7E0B90010BB0008E88AF0E0
:1009830084F8AAF022E4FBC8FA22EB70227B10C899
:1009930033C8C933C9335007C39AC3DBF280069AFD
:1009A30050012ADBEAC833F4C8C933F4C9FA227503
:1009B300F008E4C833C8C933C933C99AC99B500482
:1009C300C92AC93BD5F0ECFBC833F4C8E4C9FA2201
:1009D300C0E0C0D0E8C0E0E9C0E0C082C083A8C1E5
:1009E300E8C0E0900681E0F8740028F582E434065C
:1009F300F583D0E0F0900680E0F8A3E0687006E5A8
:100A030095900683F0900681E004F0C39480400241
:100A1300E4F0A374C6F0D083D082D0E0F9D0E0F83C
:100A2300D0D0D0E032C0E0C0D0E8C0E0E9C0E0C040
:100A330082C083900704E0F8A3E0687008539AFB30
:100A4300A374018022C2E9900704E0F8740128F03E
:100A5300748428F582E43406F583E0F5C190070435
:100A6300E0C394804002E4F080AC080808EAC0E0E8
:100A7300EBC0E086F0E7A4FA180986F0E7A42AFAA7
:100A8300180986F0E7A42AFA180986F0E7A42AFAD7
:100A93001986F0E7A4FBE5F02AFA190886F0E7A423
:100AA3002BFBE5F03AFA190886F0E7A42BFBE5F0F7
:100AB3003AFA18180986F0E7A4C5F02BFBE43AFAD2
:100AC3001908E7C5F0C6A426F6E5F03BFBE43AFABD
:100AD3001886F0E7A4F6E5F00826F6E43B08F6E40A
:100AE3003A08F6D0E0FBD0E0FA22080808E630E73F
:100AF300111212F4120B05080808C64480C6181810
:100B03001822181818E9799EC608CAC608CBC60861
:100B1300CCC6C370207996CACBCC7019798ECBCC56
:100B230070137986CC700EF9802ACA33CACB33CBC3
:100B3300CC33CC331930E7F2CCCBCA335014700426
:100B4300EA30E00DE4CA3ACACB3BCBCC3CCC5002F2
:100B530009C3E913C6CC182313C6CB18C6CA18C6D3
:100B6300F922E4CFC0E0E4CEC0E0E4CDC0E0E4CCC1
:100B7300C0E075F020E626F608E633F608E633F61D
:100B830008E633F6181818EC33FCED33FDEE33FEAC
:100B9300EF33FFC3EC9709ED9709EE9709EF971928
:100BA3001919400FFFEC97FC09ED97FD09EE97FE2D
:100BB300191906D5F0BFECF709EDF709EEF709EFC0
:100BC300F7191919D0E0FCD0E0FDD0E0FED0E0FF2A
:100BD300222521C582C0E0E52234FFC583C0E0E5BC
:100BE30021C3958224F810AF088583228582218052
:100BF30008858322858221D2AFCEF0A3E520F0A31E
:100C03007808E608F0A3DEFAEFF0A3E58124FAF80A
:100C1300E608F0A3E608F0A3E608F0A30808E60850
:100C2300F0A3E608F0A315811581D0E0FED0E0F82B
:100C3300158115811581E8C0E0EEC0E022C0D02502
:100C430021C582C0E0E52234FFC583C0E0E521C3AE
:100C5300958224F310AF088583228582218008853D
:100C63008322858221D2AFC8F0A3E9F0A3EAF0A3DF
:100C7300EBF0A37908E709F0A3D8FAECF0A3EDF0C1
:100C8300A3EEF0A3EFF0A3D0E0F0A3D0E0F0A3D065
:100C9300E0F0A3E520F0A3E5F0F0A322852283850D
:100CA3002182E0C0E0A3E0F9A3E0FAA3E0FBA3788C
:100CB30008E0F608A3DFFAE0FCA3E0FDA3E0FEA34F
:100CC300E0FFA3E0C0E0A3E0C0E0A3E0F5D0A3E031
:100CD300F520A3E0A3F5F010AF08858322858221D8
:100CE3008008858322858221D2AFD082D083D0E051
:100CF300F8D0E0321212F7181818120B6512140309
:100D030019191922121403191919080808E61818D1
:100D13001820E7E0120B651212F7181818220909B8
:100D230009E719191920E7DC080808E6181818203C
:100D3300E703020B651212F7181818120B6512124B
:100D4300F7181818121403191919221214F9B900F3
:100D530003020D8DE490050178BB79168002F0A3A0
:100D6300D8FCD9FA7ABB7B1A9000867888790280FE
:100D730015E493A3AD82AE838A828B83F0A3AA8208
:100D8300AB838D828E83D8E9D9E77582FF7583A102
:100D930074061211747582DD758330740012117438
:100DA3000575F0108E238F2485822885832785215E
:100DB30082852283E0CEA3E0CF852882852783EB3B
:100DC300C9EAC8EDCBECCAC3E833C8E933C9EA338F
:100DD300CAEB33CBC3EA9EF526EB9FF525B350044C
:100DE300AB25AA26EC33CCED33CDD5F0DAAE23AF69
:100DF30024221214A0601C121482601712150E70A4
:100E0300071215207001D322C0D01215207006D00E
:100E1300D0B322C32233D0D0501430E0F6C3E796C8
:100E23000809E7960809E7960809E796B32220E040
:100E3300D5E6970809E6970809E6970809E697B300
:100E4300221214A0601B121482601612150E700772
:100E5300121520600CB322C0D01215207005D0D01B
:100E630022C32233D0D0501330E0EBC3E7960809F6
:100E7300E7960809E7960809E7962220E0E4E69753
:100E83000809E6970809E6970809E69722D083D070
:100E930082ECC0E0EDC0E0E493A3FCE493A3FDED9A
:100EA3004C600D120F68EC24FFFCED34FFFD80EF66
:100EB300E493A3FCE493A3FDED4C600D121031EC1D
:100EC30024FFFCED34FFFD80EFD0E0FDD0E0FCE437
:100ED30093A3C0E0E493C0E022852283852182E0CE
:100EE300A3FEE0A3F5207808E0A3F608DFFAE0A369
:100EF300FFE0A3C0E0E0A3C0E0E0A3C0E0E0A3C044
:100F0300E0E0A3C0E010AF0885822185832280083A
:100F1300858221858322D2AFD083D08202117AD0F9
:100F230083D082E9C0E0E493A3C386F0C5F095F0D3
:100F3300F908E493A386F0C5F095F0700BE493A34E
:100F4300C3994005E9048002A3E475F002A4258255
:100F5300F582E5F03583F583D0E0F9E493A3C0E0AF
:100F6300E493C0E022C0E0C3E4939608740193962F
:100F730018400FE4936670080874019366187000B4
:100F83007019A3A3C3E49396087401939618A3A3BB
:100F9300400DD0E0D0E0D0E0020ECCA3A3A3A3A3E6
:100FA300A3D0E0227404800474028000CCC0E0ED7E
:100FB300C0E0E521C39CCCAD2250011D10AF068CCF
:100FC300218D2280068C218D22D2AF1210F6D0E023
:100FD300FDD0E0FC2274028000CCC0E0EDC0E0E56F
:100FE30021C39CCCAD2250011D10AF068C218D2254
:100FF30080068C218D22D2AF1210D4D0E0FDD0E038
:10100300FC221214A06025121482602012150E70A7
:1010130003021520080808E76670101819E76670C0
:101023000A1819E76670041819E76622F422C0E06B
:10103300C0F088F0E4936670080874019366187032
:1010430000A8F0A3A3700BD0F0D0E0D0E0D0E00272
:101053000ECCA3A3D0F0D0E022D083D082CCC0E0CA
:10106300E493A360061211171470FAE493A36006C5
:101073001212761470FAD0E0FCE493A3C0E0E49378
:10108300C0E022C0E074F2120C40A2AFE433FED2FF
:10109300AFE58BA2E05005790412178D758B00C262
:1010A300E8EEA2E092AF7F01020C9FC008C3E09676
:1010B300F50808A3E096420808A3E096420808A3AF
:1010C300E0964208A2D265D033E5087001D3D00878
:1010D30022CAC0E0E493A3C582CCC582C583CDC533
:1010E30083F0A3C582CCC582C583CDC583DAE5D0A1
:1010F300E0CA22CAC0E0E0A3C582CCC582C583CDC5
:10110300C583F0A3C582CCC582C583CDC583DAE68A
:10111300D0E0CA22C0E0E493A3D39C5010E493A38D
:10112300C39C400AD0E0D0E0D0E0021079A3A3A38F
:10113300D0E0227009080808226016181818C6C3E0
:1011430033C608C633C608C633C608C633C6D5E099
:10115300EA22C008C3E096F50808A3E0964208080F
:10116300A3E096420808A3E09645087001D3D0088F
:1011730022C09FF59FE473D09F22D083D082C09F6B
:10118300E493C0E0740193C0E0740293F59F2225B9
:1011930021F58210AF08F521400C15228008F521B6
:1011A30040021522D2AF8522832200C0D025211010
:1011B300AF08F521500C05228008F52150020522C5
:1011C300D2AFD0D0227404800A74038006740280E4
:1011D300027401C0E0F404121192D0E01214BC2294
:1011E300C0E0C0D0E8C0E0A8A8D2AFC2C7E8A2E779
:1011F30092AFD0E0F8D0D0D0E032BB0102E722C0FA
:1012030082C08389828A83BB0003E08002E493D097
:1012130083D082226016080808C6C313C618C613F3
:10122300C618C613C618C613C6D5E0EA222521F888
:10123300E43522F9222521FAE43522FB222521FC7B
:10124300E43522FD22C3E0C696F608A3E0C696F66F
:1012530008A3E0C696F608A3E0C696F62225211059
:10126300AF08F521400C15228008F5214002152214
:10127300D2AF22C0E0E493A36C7009D0E0D0E0D0F9
:10128300E0021079A3A3D0E022C3E7960809E7960A
:101293000809E7960809E796A2D265D03322E766E4
:1012A30070100809E766700A0809E7667004080900
:1012B300E76622C3E09608A3E09608A3E09608A396
:1012C300E096A2D265D03322E066701008A3E066F0
:1012D300700A08A3E066700408A3E06622191919CE
:1012E300E70947097009E727097005E733F422097D
:1012F30022181818E4C396F608E496F608E496F65E
:1013030008E496F622C3E096F008A3E096F008A35B
:10131300E096F008A3E096F022C3E697F60809E604
:1013230097F60809E697F60809E697F622181818BB
:10133300E60846087009E626087005E633F4220835
:1013430022C3E49396087401939608740293960853
:101353007403939622E026F608A3E036F608A3E08A
:1013630036F608A3E036F622E627F60809E637F64E
:101373000809E637F60809E637F622700422600DFD
:1013830018C6C333C608C633C6D5E0F41822E657D9
:10139300F60809E657F60809E657F60809E657F688
:1013A30022E056F608A3E056F608A3E056F608A393
:1013B300E056F622E026F008A3E036F008A3E03674
:1013C300F008A3E036F022E056F008A3E056F00858
:1013D300A3E056F008A3E056F022E493F608740164
:1013E30093F608740293F608740393F622E647F61D
:1013F3000809E647F60809E647F60809E647F6222C
:10140300E4C397F709E497F709E497F709E497F733
:1014130022600D08C6A2E713C618C613C6D5E0F3AB
:1014230022C6F4C608C6F4C608C6F4C608C6F4C67F
:1014330022C3E09608A3E09608A3E09608A3E096EB
:1014430022C3E7960809E7960809E7960809E7968D
:101453002275D00075813F75210175220500020DAB
:101463004E600C08C6C313C618C613C6D5E0F422D3
:10147300E6F008A3E6F008A3E6F008A3E6F022E707
:10148300094709C3134709336002E733F422E0F63F
:1014930008A3E0F608A3E0F608A3E0F622E6084670
:1014A30008C3134608336002E633F422800100E9DF
:1014B300F874FF28F90470F622CAC0E0E6F0A30826
:1014C300DAFAD0E0FA22E0F8A3E0F9A3E0FAA3E025
:1014D300FB22E8F0A3E9F0A3EAF0A3EBF022EAF0A1
:1014E300A3EBF0A3ECF0A3EDF022E0FAA3E0FBA35F
:1014F300E0FCA3E0FD22E5C754F84401F5C77901F8
:10150300222521F582E43522F58322E626184618A2
:1015130046184622C2AF75D69F02000022E727195C
:1015230047194719472212117D5BE10312117D8A86
:10153300E10312117D90E20312117DBAE20312114D
:101543007D0EE30312117DE2E30312117D10E60326
:1015530012117DBEE60312117D2BE90312117DB03A
:10156300E90312117DB3EC0312117DE7EE031211AF
:101573007D23EF0312117D7CF00312117D8FF003A5
:1015830012117DCCF00312117D95F20312117DD956
:10159300CA0512117D55CB0512117D88CB05121199
:1015A3007DB6CB0512117DF4CB0512117D31CE052D
:1015B30012117D50CE0512117D95CE0512117D2B92
:1015C300CF0512117D77CF0512117D0BD0051211B6
:1015D3007DE4D00512117D40D10512117D9ED10508
:1015E30012117D11D20512117D55D20512117DAD57
:1015F300D20512117DCFD20512117D5FD3051211D1
:101603007DF0D30512117D3CD40512117D68D405FC
:1016130012117DA9D40512117D3FD60512117D2B20
:10162300D70512117D06D80512117D6DB90512116A
:101633007D01BA0512117D69BA0512117D8EBB05B4
:1016430012117D18BC0512117DA3BC0512117DDF9B
:10165300BC0512117D78BD0512117D0DBE05121159
:101663007DE0BE0512117DC2C00512117DB8C10512
:1016730012117D57C20512117DACC20512117D1ADC
:10168300C30512117D26C60512117D50C80512111E
:101693007D51C90512117D8FCA0512117D9ACA05A4
:1016A30012117DE6FD0312117D12FE0312117D2D31
:1016B300FE0312117D52FE0312117DF2FE0312117D
:1016C3007D98FF0312117DC2FF0312117DB0B00696
:1016D30012117DB5B00612117DE8B00612117DD04E
:1016E3007D0012117D8F7E0012117D747F00121117
:1016F3007DAAAC0612117DBBAC0612117D59AD0655
:1017030012117D64AD0612117D7EAD0612117DF6B8
:101713007F0012117D2FB20612117D67FF04121193
:101723007D77FF0412117D8CFF0412117DF2FF04FB
:1017330012117DA6A90612117D2AAA0612117D9205
:10174300AA0612117D80960612117D9E960612112D
:101753007DD3960612117DF8960612117D1B97060E
:1017630012117D56970612117D83970612117DCAB9
:10177300970612117D69980612117DABAB06121103
:101783007D32AC0612117D3BAC0612117D62AC06B4
:1017930012117DC7FF0112117DF3980612117D3DD1
:1017A300990612117DD3990612117D599A061211C9
:1017B3007D8B9A0612117DA39A0612117D179B0643
:1017C30012117D2D9B0612117D409B0612117D4A3D
:1017D3009B0612117D51E90512117D7DE905121158
:1017E3007DE7EB0512117D27EC0512117D63EC05F6
:1017F30012117D77EC0512117D90EC0512117D829B
:10180300ED0512117D35EE0512117D49EE0512111C
:101813007D05FE0412117D29FE0412117D42FE0492
:1018230012117D80FE0412117DB0FE0412117DDDC4
:10183300FE0412117D43FF0412117D46FF041211B1
:101843007D50FF0412117D5DFF0412117DD99306B3
:1018530012117DF9930612117D38940612117D56EB
:10186300940612117D71940612117DD794061211FC
:101873007DE3940612117D40950612117D4F950666
:1018830012117D73950612117D34960612117D4156
:10189300960612117D52960612117DF6B0061211AC
:1018A3007D0EB10612117D3AB10612117D57F30573
:1018B30012117DABF40512117DB9F40512117DCC23
:1018C300F40512117DE1F40512117DF6F4051211F0
:1018D3007D09F50512117D85F50512117DEAF505E2
:1018E30012117D80F60512117D59F70512117D69DC
:1018F300F70512117D78F70512117DEAAE06121174
:101903007D0EAF0612117D36AF0612117D5EAF0656
:1019130012117D5D9B0612117D849B0612117DA21F
:101923009B0612117D119C0612117DF28D06121178
:101933007D0B8E0612117D178E0612117D2B8E06DE
:1019430012117D498E0612117D538E0612117D5D93
:101953008E0612117D708E0612117DFA8E061211FB
:101963007D6F8F0612117DA38F0612117DF18F06F5
:1019730012117D3E900612117D59900612117D635E
:10198300900612117D89900612117DEE90061211B8
:101993007D8DAD0612117DAFAD0612117D15B20618
:1019A30012117D4CF40312117D78F40312117D950D
:1019B300F40312117DA8F40312117DC3F403121171
:1019C3007D1DF50312117D4BF50312117D5FF903A4
:1019D30012117DBDFA0312117DEFFA0312117D522C
:1019E300FB0312117DD7FC0312117DFFFC031211BF
:1019F3007D14FD0312117D24FD0312117D64FD038B
:101A030012117DA6FD0312117DB6FD0312117D3C5B
:101A1300A50612117D56A50612117D7EA50612118B
:101A23007D97A50612117DBBA50612117DD9A506CA
:101A330012117DF0A50612117D1EA60612117D3925
:101A4300A60612117D83B10612117DD883061211E9
:101A53007DE8830612117DED840612117D1F850634
:101A630012117D4F850612117D72850612117D8933
:101A7300850612117DC3850612117D288606121173
:101A83007D6A860612117DB1860612117DDE8606F9
:101A930012117D09870612117D63FE0112117D83E8
:101AA300FE0112117D97FF0112117D9AFF011211A0
:101AB3007DA0A80612117DD6A80612117DEEA806F8
:101AC30012117D30A90612117D40A90612117D84E1
:101AD300A90612117D8EA90612117D5FE20512116E
:101AE3007DA2E20512117D07E30512117D26E305B0
:101AF30012117DC8E30512117DD1E30512117D2278
:101B0300E40512117D4BE40512117D58E405121111
:101B13007DCAE40512117D58E50512117D9DE50589
:101B230012117DD6E50512117D3BE60512117D6488
:101B3300E60512117DDBE60512117D2AE705121178
:101B43007D67E70512117D9CE70512117DAEE70560
:101B530012117DC0E70512117DDFE70512117DE843
:101B6300E70512117DA4E80512117DE7E8051211BE
:101B73007D25E90512117DF9AF0612117DFCA3063F
:101B830012117DB29D0612117DE89D0612117D3062
:101B93009E0612117D899F0612117D008005121188
:101BA3007D26810512117D62810512117D20830539
:101BB30012117D4E830512117DB8850512117DF832
:101BC300850512117D9A870512117D308805121142
:101BD3007D8A880512117D1A890512117D5E89059A
:101BE30012117DA0890512117D058B0512117D85CA
:101BF3008C0512117DC68E0512117DF48E0512110E
:101C03007D208F0512117D298F0512117D868F0589
:101C130012117D1F900512117D36930512117DBCA3
:101C2300930512117D83AF0612117D99AF06121130
:101C33007DA3AF0612117DA9F70512117DBFF7052C
:101C430012117D63F80512117DA2F80512117DBFF3
:101C5300F80512117DF0F80512117D3DF9051211F9
:101C63007D71F90512117DACF90512117DA1FB05FA
:101C730012117DABAA0612117D0AAB0612117D4823
:101C8300AB0612117D89AB0612117D3DAE06121112
:101C93007DA6AE0612117DC6AE0612117D8AA70679
:101CA30012117D48A80612117D00800412117D0CCB
:101CB300800412117D6E800412117D78800412114C
:101CC3007D07810412117D43810412117D35820445
:101CD30012117D92820412117D20830412117D71F1
:101CE300830412117DF1830412117DB7850412114F
:101CF3007DB1870412117DB3880412117DE5890437
:101D030012117D3B8C0412117D7D8D0412117D23F4
:101D13008E0412117DE1920412117DDE93041211DF
:101D23007D74940412117DA4940412117D419504D1
:101D330012117D5E950412117D7E950412117DECC6
:101D4300950412117D09960412117D379604121120
:101D53007DD1970412117DF2970412117D98980496
:101D630012117DE0980412117D3E990412117DDC5D
:101D7300990412117D419A0412117DAA9A04121139
:101D83007DE89A0412117D9A9B0412117D059C042F
:101D930012117D419C0412117DB29C0412117DFD30
:101DA3009D0412117D8D9F0412117D26A004121132
:101DB3007D77A20412117DDCA20412117D0AA30413
:101DC30012117D50A80412117D14AB0412117D145D
:101DD300AC0412117D1B940512117D3B9405121165
:101DE3007DEB960512117DA5990512117D549C0575
:101DF30012117D889C0512117DB19C0512117DD7AE
:101E03009C0512117D1C9D0512117DB89E051211B2
:101E13007D189F0512117D24A00512117D36A005A2
:101E230012117DEAA00512117DFBA00512117DDAC6
:101E3300A10512117DE6A20512117D6FA3051211F2
:101E43007DEFA30512117DCEA40512117D04A60515
:101E530012117DC7B10612117DAC8A0612117D6B7A
:101E63008B0612117DD18B0612117D808C06121107
:101E73007DCCCB0412117DFBCB0412117D7FCC04EE
:101E830012117DE2CD0412117DCCCE0412117D8896
:101E9300D00412117DADD00412117DFFD0041211B4
:101EA3007D91D10412117DDDD10412117DF0D10495
:101EB30012117D4DD20412117D1AD30412117D8C9F
:101EC300D30412117DC3D30412117D0CD404121157
:101ED3007DB4D50412117D93D60412117DE1D7048C
:101EE30012117DC4D80412117D50D90412117D89B9
:101EF300D90412117DA8D90412117DF3D90412114A
:101F03007D13DA0412117DD0DA0412117DF3DB04A0
:101F130012117D4EDC0412117D94DC0412117D9CA0
:101F2300DD0412117D37E00412117D5DE00412110E
:101F33007DD8E00412117DFDE00412117D71E104EE
:101F430012117D4FE20412117D8DE20412117D17EF
:101F5300E30412117D30E40412117D33E404121101
:101F63007D3DE40412117D47E40412117D63E40412
:101F730012117DD5E40412117D0EE50412117D3A90
:101F8300E50412117D61E50412117D85E50412114A
:101F93007DC0E50412117D33E60412117D67E6046A
:101FA30012117D71E60412117DADE60412117DE27A
:101FB300E60412117D01E70412117D3DB1061211F1
:101FC3007D55B10612117DF97F0012117DFDAF041D
:101FD30012117D20B00412117D7EB10412117DC750
:101FE300B10412117D33B20412117D91B2041211A6
:101FF3007D94B20412117DE5B20412117D5AB3042B
:1020030012117DEAB30412117DEDB30412117D6E3A
:10201300B40412117DAFB40412117DD4B8041211AB
:102023007D7EBA0412117DD2BA0412117D61BE0401
:1020330012117D99BF0412117D6DC00412117DD759
:10204300C00412117D01C10412117DBAC204121120
:102053007D9DC40412117D4CC50412117DE9C50494
:1020630012117DD4C60412117D3CC90412117D9650
:10207300CA0412117D04CB0412117DF7A6051211B7
:102083007DA1A70512117D0CA80512117D27A805B6
:1020930012117DA8A80512117D02A90512117D490F
:1020A300A90512117DA8A90512117DBAAA0512115D
:1020B3007DE3AD0512117D13AF0512117D9BAF05B5
:1020C30012117DA4B10512117D56B20512117D22A4
:1020D300B30512117DDDB40512117D7BB605121116
:1020E3007D08B70512117D2EB80512117D04D902A2
:1020F30012117D67D90212117DAFD90212117DF33E
:10210300D90212117D4EDA0212117DABDA021211DD
:102113007DE6DA0212117D68DB0212117DC2DB0259
:1021230012117D40DD0212117DB8DD0212117DD541
:10213300DE0212117DFDDE0212117D50E00212114A
:102143007D61E00212117D79E00212117D82E102CC
:1021530012117D5FE20212117D5CE30212117D8098
:10216300E30212117D97E30212117DB8E30212110B
:102173007DDAE30212117DF9E30212117DD1E4024B
:1021830012117D2BE50212117DC2E70212117D1B94
:10219300E80212117D3AE80212117D2AE9021211B6
:1021A3007D60E90212117D93EA0212117D12EB02A6
:1021B30012117D4EEB0212117D88EB0212117DF795
:1021C300EB0212117DACEC0212117D84EE021211AE
:1021D3007D91EF0212117D09F10212117DFFF202CE
:1021E30012117D75F50212117D4FF70212117D1048
:1021F300F80212117D88F80212117D9FF802121164
:102203007D96F90212117D8AFA0212117D8AD50395
:1022130012117D61870612117D11890612117DD07D
:10222300890612117D388A0612117DAEFB05121143
:102233007DEBE00312117D10FC0512117D36FC05C8
:1022430012117D5DFC0512117D75FC0512117D8D4A
:10225300FC0512117D2FFD0512117D71FD05121173
:102263007D94FE0512117D9DFE0512117DA6FE05CE
:1022730012117DAFFE0512117DB9FE0512117DDA33
:10228300FE0512117D5DEE0512117D9BF205121103
:102293007DA9F20512117DAEF20512117D0BDF034C
:1022A30012117DF7B10612117DF9900612117D6CA2
:1022B300A60612117D93FF0512117DF09F061211E0
:1022C3007DD4FF0212117D00800612117D51B006EC
:1022D30012117D61B00612117D9CFB0212117D006B
:1022E300800212117D32800212117D9E8002121132
:1022F3007D39810212117DD8810212117D1D820266
:1023030012117D3F820212117D58820212117D7ECD
:10231300820212117DA0820212117DDE820212114D
:102323007D22830212117D44830212117DA6830252
:1023330012117D6D840212117D24850212117D9686
:10234300850212117D68860212117DB28602121176
:102353007D05870212117D6B870212117DA587020D
:1023630012117DF7870212117D13880212117D3E2F
:10237300880212117D458A0212117D998B02121176
:102383007DBB8B0212117DEF8B0212117D108C022B
:1023930012117D1F8C0212117D2A8C0212117DDA1B
:1023A3008C0212117D438D0212117DF08D021211E8
:1023B3007D288E0212117DEE8E0212117DFB8F029B
:1023C30012117D45900212117DD4900212117D38B5
:1023D300910212117D73910212117DDF930212118A
:1023E3007D33950212117D6C980212117D39990289
:1023F30012117DC7990212117DF0990212117D62AB
:102403009A0212117DF69A0212117D549B02121147
:102413007D469C0212117D689C0212117DC49D02AF
:1024230012117DDD9D0212117DF09D0212117D5F5F
:102433009E0212117D6B9F0212117D789F02121171
:102443007D819F0212117D59A10212117D7FA2028B
:1024530012117D8FA20212117D91A30212117D0828
:10246300A40212117D37A40212117D4CA502121190
:102473007D18A70212117DF0AA0212117DFAAA0299
:1024830012117D0EAB0212117D18AB0212117D22C7
:10249300AB0212117D2CAB0212117D45AB0212115E
:1024A3007D4FAB0212117DC3AB0212117DCEAB0285
:1024B30012117DF3AB0212117DFEAB0212117D4CA2
:1024C300AC0212117D56AC0212117D61AC021211E5
:1024D3007D85AC0212117DA9AC0212117D05AD02FE
:1024E30012117D4BAD0212117D68AD0212117DE513
:1024F300AD0212117D1CAE0212117D5BAE021211F0
:102503007DA8AE0212117D2AAF0212117DC3AF0264
:1025130012117D93B10212117DF1B10212117D0DE1
:10252300B30212117D33B30212117D72B402121180
:102533007D98B70212117DD9B90212117DB5BB0284
:1025430012117D4BBC0212117D72BE0212117D1E4F
:10255300BF0212117D53BF0212117DB8BF021211C7
:102563007DC2BF0212117DECC10212117D13C302A1
:1025730012117D53C30212117DF9C30212117D8A18
:10258300C50212117D13C70212117D33C702121146
:102593007D8CC70212117D8EC80212117DD8C8022C
:1025A30012117D28C90212117D12CA0212117D87F0
:1025B300CA0212117DA1CB0212117D1CCC02121191
:1025C3007D21CD0212117DCCCF0212117DEBCF0202
:1025D30012117D4CD10212117D0ED30212117D62B4
:1025E300D30212117D1AD40212117DC9D402121121
:1025F3007D1FD50212117DD5D50212117D6AD60237
:1026030012117DD6D60212117D10D70212117D410F
:10261300D70212117D9DD80212117D008003121181
:102623007D32800312117D69800312117D52820372
:1026330012117D35830312117D8D830312117DC821
:10264300840312117D14850312117D3C880312113A
:102653007D9E8B0312117DEB8C0312117D818D0303
:1026630012117D8D8D0312117DBF8D0312117D41DA
:102673008F0312117DDC900312117D8491031211DB
:102683007DC7910312117D2D920312117D4A92038E
:1026930012117D7A920312117DAF920312117D7F85
:1026A300930312117D28940312117DAC960312112A
:1026B3007DCC970312117DB5980312117D379903D1
:1026C30012117D569D0312117D939D0312117DEB13
:1026D3009D0312117D1E9E0312117D9F9E031211F5
:1026E3007DEC9E0312117D779F0312117DC99F0319
:1026F30012117DA0A00312117D59A10312117DF4C3
:10270300A10312117D0DA50312117D2DA603121134
:102713007DDAA90312117DF8AA0312117DFBAA0326
:1027230012117D2AAB0312117D30AD0312117D0905
:10273300AE0312117D3EAE0312117D46AF0312119B
:102743007DFCAF0312117D9DB10312117DC2B10354
:1027530012117D01B20312117D73B20312117D5761
:10276300B30312117D24B40312117D5AB60312115F
:102773007DCBB60312117D0BB70312117D6CB7032A
:1027830012117D2FBB0312117D1EBC0312117D0597
:10279300BD0312117D7DBD0312117D3FBE031211D6
:1027A3007D3DC00312117D55C00312117D69C00325
:1027B30012117DA1C00312117DCFC00312117D56EA
:1027C300C20312117D61C30312117DB3C30312113E
:1027D3007D14C40312117DC6C40312117DEDC4031D
:1027E30012117DD1C50312117D82C60312117D71B1
:1027F300C80312117DA6C80312117D0EC90312115D
:102803007D3DCA0312117DEFCA0312117D20CB0354
:1028130012117D38CB0312117DC7CB0312117D7BBF
:10282300CE0312117D53D00312117D6FD003121109
:102833007D8BD00312117D59D10312117D3DD50338
:1028430012117D10840112117D48840112117D261D
:10285300890112117D6C890112117DB98A0112114E
:102863007D248B0112117DAD8C0112117DBD8F0171
:1028730012117DD8900112117DEA9A0112117D7D0A
:102883009B0112117DCF9E0112117DCB9F0112116D
:102893007D26A00112117D70A10112117D5EA2019E
:1028A30012117DFAA40112117D6EA60112117DF1A0
:1028B300A60112117DF4A60112117D69A70112115F
:1028C3007D73A70112117D80A70112117DABA701B2
:1028D30012117D5BA80112117D54A90112117DFF14
:1028E300A90112117D1DAA0112117D36AA0112112F
:1028F3007D5FAA0112117D81AA0112117DD6AC015F
:1029030012117D9BAD0112117DE0AD0112117D5FAE
:10291300AE0112117D0BAF0112117D3DAF011211FA
:102923007D91AF0112117DCCAF0112117D13B00166
:1029330012117D63B00112117D68B00112117DBCCB
:10294300B00112117DE8B00112117DD1B101121154
:102953007D22B20112117D82B20112117DDCB2011E
:1029630012117D77B30112117DB6B60112117DC824
:10297300B70112117D42B90112117D52BC0112112E
:102983007DF0BC0112117DE6BF0112117DA5C001CE
:1029930012117DE9C00112117D94C20112117DA8AB
:1029A300C20112117DB2C20112117DBCC20112110A
:1029B3007DC8C20112117DEDC20112117DC6C40191
:1029C30012117D1BC50112117D25C50112117D2F29
:1029D300C50112117DA4C50112117DF3C5011211A8
:1029E3007D04C70112117D51C70112117D5EC8011B
:1029F30012117DA2C80112117D48C90112117D3B3C
:102A0300CA0112117D01CB0112117D24CC011211D7
:102A13007D42CD0112117D2ACE0112117D42CE01DC
:102A230012117D99CE0112117DA3CE0112117DAE3B
:102A3300CE0112117DCCCE0112117D14CF011211E2
:102A43007D76CF0112117D9DCF0112117DAFCF0194
:102A530012117D4AD00112117D7FD00112117D66C2
:102A6300D10112117DABD10112117D91D20112114D
:102A73007DB8D20112117D3BD30112117DACD3017C
:102A830012117D35D50112117D61D60112117D24FC
:102A9300D70112117DECD70112117D76D8011211E5
:102AA3007D9ED90112117D40DA0112117DBBDA013D
:102AB30012117D77DB0112117DC1DB0112117D1B28
:102AC300DC0112117DF3DC0112117D16DD011211FF
:102AD3007DC9DD0112117DEBDD0112117D54DE0193
:102AE30012117D6AE00112117D62E10112117D264E
:102AF300E20112117D58E40112117DA2E4011211C9
:102B03007DF2E40112117D56E50112117DB8E50154
:102B130012117DE6E50112117D0AE60112117D3FD6
:102B2300E60112117D70E60112117DA3E601121177
:102B33007DF3E60112117D46E70112117D6BE80179
:102B430012117D0BEA0112117D66EA0112117D8FCC
:102B5300EA0112117D1CEB0112117D8AEB011211A6
:102B63007D98EB0112117DBCEB0112117D11EC017B
:102B730012117D2CEC0112117DDEEC0112117D1678
:102B8300ED0112117D59ED0112117DBCED01121100
:102B93007DBEEF0112117DE8EF0112117DDFF0011F
:102BA30012117DE9F10112117D99F20112117DBB20
:102BB300720012117DF3720012117D147300121151
:102BC3007D56730012117DB8730012117DC273001C
:102BD30012117DD2730012117D0D740012117DED5F
:102BE300770012117DDA790012117DC07B0012117A
:102BF3007D577C0012117DF97C0012117DAC3800E9
:102C030012117D57390012117D053A0012117D0B07
:102C13003B0012117D2B3B0012117D543C0012111D
:102C23007D0F3E0012117D823E0012117D263F0072
:102C330012117D32400012117D9D400012117DD989
:102C4300400012117D1C410012117D5741001211E9
:102C53007D99410012117D2E420012117DAA42007E
:102C630012117D74430012117D51440012117DE94C
:102C7300440012117D03450012117D3345001211EA
:102C83007D64450012117D2A460012117D3A4600EB
:102C930012117D89460012117D96460012117D9F07
:102CA300460012117D1D470012117D794700121154
:102CB3007DC4470012117DDF470012117D0A4800D1
:102CC30012117D27480012117D33480012117DCA6D
:102CD300490012117DE3490012117D684A00121167
:102CE3007D7B4A0012117D9A4A0012117D3E4B00F2
:102CF30012117DBF4C0012117D724E0012117D081E
:102D03004F0012117D0B4F0012117D7B4F001211EA
:102D13007D994F0012117D30500012117D785000C3
:102D230012117D7B500012117D41510012117DAEB5
:102D3300510012117DD4510012117D5F5200121106
:102D43007D7D520012117DC3520012117D77530015
:102D530012117DC1530012117DF0530012117D4DEC
:102D6300540012117D82540012117DAE54001211D1
:102D73007DBC540012117D09550012117D79550057
:102D830012117DC2550012117D0E560012117D3AAB
:102D9300560012117D45560012117D635600121123
:102DA3007D4E570012117D58570012117D93570025
:102DB30012117DA3570012117DF7570012117D0BDD
:102DC300580012117D3A590012117D4F590012110A
:102DD3007DDD590012117D225A0012117DAE5A0079
:102DE30012117DB95A0012117DFB5B0012117D1681
:102DF3005C0012117D625C0012117DD15C00121126
:102E03007D0A5D0012117D245D0012117D845D0039
:102E130012117D235E0012117D6E5E0012117D3E44
:102E2300610012117DF0610012117D5D62001211CB
:102E33007D9D640012117DB5640012117DB864009C
:102E430012117DC4640012117DD8640012117DE05B
:102E5300640012117D13650012117D1666001211B4
:102E63007DA3660012117D13670012117D95670023
:102E730012117D56680012117D75680012117D16BE
:102E8300690012117D73690012117D7669001211B8
:102E93007DEA690012117D396B0012117D3F6C00D0
:102EA30012117DCA6C0012117DE56D0012117DAD0A
:102EB3006E0012117DDE6E0012117D016F00121182
:102EC3007D0A6F0012117D396F0012117DC96F00E9
:102ED30012117D7F700012117DF4700012117D9B21
:102EE300710012117D10720012117D4772001211D0
:102EF3007D85720012117D51E00312117D5FD503B0
:102F030012117D19E20512117DE5E10512117D8E85
:102F1300E10512117D17E00512117D69DF0512111C
:102F23007D5FDF0512117D55DF0512117DEEDE0594
:102F330012117DD3DE0512117D30DE0512117D30B5
:102F4300DD0512117D0DE00312117DCCFB0512117D
:102F53007D4EDC0512117D3EDA0512117D77DE030D
:102F630012117D17DE0312117D4CD90512117DEA72
:102F7300D80512117DF1FD0412117DE7FD04121134
:102F83007D7CFD0412117DB0FB0412117D6EFB04E8
:102F930012117D7AFA0412117D4EFA0412117D0585
:102FA300FA0412117D46F90412117D35F60412114B
:102FB3007DEDF30412117D9DF30412117D37F304AB
:102FC30012117DF6F20412117D28F20412117DC252
:102FD300F10412117D61F10412117D01F10412114A
:102FE3007D9FEF0412117D33EF0412117D87EE04F0
:102FF30012117D82EE0412117DE7DD0312117D763D
:10300300EE0412117D3BDD0312117DD4DA0312119C
:103013007D8BD70312117DDFD60312117D4DD603AD
:1030230012117D07D60312117D41EE0412117DD3D7
:10303300EA0412117DD0EA0412117D83EA0412110D
:103043007DD2D50312117D71EA0412117D67EA0462
:1030530012117D36EA0412117D31E80412117DBC90
:10306300DF0312117DA4E70412117D89A206121158
:103073007D60E70412117D34E70412117DFDFD012B
:1030830012117DD0FD0112117D9DFD0112117D757F
:10309300FD0112117D16FD0112117DF6FC011211C5
:1030A3007DC1FC0112117D6DF90112117D55F701EE
:1030B30012117D3FF50112117DBFF40112117D6BD9
:1030C300F40112117D77F30112117D9FD5031211C3
:1030D3007D1FF40112117DF9FA0200000080FB004C
:1030E3000022E4738F000100D31B87000100D11B72
:1030F30035000400971B250002009B1B26000200DD
:103103009D1B270002009F1B28000100A91B29000B
:103113000100AA1B840004004D1886000100C91A8F
:103123002A000100AB1B2B000100AC1B2C0001008B
:10313300B11B2D0008005B182E000100B21B2F00ED
:103143000100B31B30000100B41B31000100B51BAB
:1031530032000100631833000100641834000100D9
:10316300B61B36000100651838000100B71B390093
:103173000100B01B83000200CF1B63000100701825
:1031830064000100AD1B65000100AE1B6D00010072
:10319300711871000800531866000100CE1B43002C
:1031A3000100BF1B44000200C01B45000100C21BFD
:1031B30046000200C31B47000800681848000100CE
:1031C300C51B4B000100C61B04000100D21BA1005C
:1031D3000100D61B37000100D51B88000100D41B5A
:1031E3003C00010066183D000100B81B49000200C5
:1031F300C71B6700010072184D000200C91B4E0077
:103203000100CB1B4F000200CC1B3E000100BE1B84
:1032130051000100BA1B52000100BB1B5300010007
:10322300BD1B5400010067180000000000000000EF
:10323300000020010A840000010020010C8400002A
:10324300020020010E840000030020010B84000013
:10325300040042019682000005004201C381000080
:10326300060042017D820000070030010F84000048
:1032730000404201D8820000FEFF210108840300C0
:103283000000212334170300FEFF210108840204F8
:1032930000002905591B020410022923491B0304BA
:1032A300000029055F1B030410002905611B0304AB
:1032B30014002801631B030410022B234B1B05047A
:1032C300000021055D1B0504100229234F1B0D047B
:1032D30000003905531B0D04020210233C1B0D048F
:1032E300030210233B1B0D04040221233D1B0D0489
:1032F300050221233F1B0D0411F11023511B2B0445
:1033030000003905661B2B0410022823521B2B04D3
:1033130004022123411B2B0405022123431B00012B
:10332300363601010001020100010301000104011D
:10333300060605020000070100340801000F090416
:1033430001010D0100FF0E08000017020000190122
:1033530000FF1A0100011B0100FE1C0100081D02F1
:1033630000001F01000120010001210200002301D0
:10337300000F240200002601000127010008280293
:1033830000FF2A0100072B0102402C0100002D0140
:1033930000012E0100012F0100FF30010B1D310838
:1033A30000003A0100083B01000F3C0100013D0110
:1033B30000FF3E04000042040000460400004A04EB
:1033C30000004E04000052040000560400005A049A
:1033D300000001037103010301030103010301035E
:1033E300220302030103100300030003000300038D
:1033F3000003000300034203000324030603000346
:1034030000030403120325032303250323030403F7
:103413000403000300030003440300030003230326
:103423000003650321003503810300030503000343
:10343300000300030003250323030300710030018D
:10344300600011007000310220035004800010005E
:103453006100000014006300730072006200430007
:10346300000013000600000000000400120000002A
:1034730000000000000004000400370037003C0295
:10348300440000000000000000006500000035005B
:1034930081000000050000008300000003047104A4
:1034A300020460041104700402040204010402040F
:1034B30010046104000414046304730472046204BA
:1034C3004304000413040604000400040404120467
:1034D3000004000400040004510464000004000418
:1034E3000004440400040004000400046504000410
:1034F300350481046400050400048304000403020A
:103503007102300160021102700201020202020222
:103513008002100261023A004100630273027202E8
:103523006202430200021302380000020002040296
:103533001202000200020002000204020402370029
:1035430037003C0244020002390000020002650217
:103553000002350281020002050282028302000298
:103563000101710101010101110101013101010198
:1035730001018001100161013B001400630173012B
:103583007201620143010001130106013D0135008F
:103593000401120100010001000100010401040102
:1035A300330133013C0144013201360000010001C3
:1035B30065010001350081010001050182018301DC
:1035C300000136000100060000000F0000000000AB
:1035D300000000000000000003FFFF00000403FFE1
:1035E300FF0000FFFF0FF4010005C40403200001E6
:1035F30000000B000000000000000003010F0000AA
:1036030000000000000000000000000000000000B7
:1036130000000000000000000000000000000000A7
:10362300931DBD1D991DC71C9F1DC31D9F1DCF1D30
:10363300A51DC71C9F1DC31DAB1DC71C000000009B
:10364300B11DC71C0000000000000000B71DC71C0F
:103653000000000000000000000000000000000067
:103663000000000000000000000000000000000057
:1036730000000000000000000000000013004520CF
:103683001F004B201F8051200000AB200100AB2006
:103693000200F11F0280EB1F0300F71F0400FD1F50
:1036A300048003200500092006001520310027208F
:1036B30033002D203400332036003920FFFF000073
:1036C3000A000000020000000400000008000000DF
:1036D30010000000200000004000000080000000F7
:1036E30000010000000200000004000000080000C8
:1036F300001000000020000000400000017F2806A9
:10370300AF2808A9280BCD2810CD25028528059DB3
:1037130028078B280C67280D732864C323FF000038
:1037230007ECFDFDFDECDCDCCCBCACAC9C9C8C7CE8
:103733007C6C6C5C5C5C4C4C3C3C2C2C1C1C001668
:103743000F00000B150B020002220F3300000E0FB7
:103753000000000000000000000000000000000066
:103763005A6967426565416C6C69616E636530399E
:10377300D0D1D2D3D4D5D6D7D8D9DADBDCDDDEDFCE
:10378300150AF4D4C0A595827263615550490003AC
:103793004D4C4651181A250502003C40423A3F3F22
:1037A300392F473000011916181616182303003055
:1037B3003017181921301B1D1F30303016181920EF
:1037C300231A1C1E300C0E020B040B0A0708000FF1
:1037D30002040201010101090200BE040AE8030018
:1037E30000F6FB0100030000000000E80323371A82
:1037F3000083377F00101E0A0A1E10080C280004DD
:103803001E02000915033C18080A10150300FF03E4
:103813000C0AFFE4F0A3F0A3F0A322123816F0225F
:103823009019BB124E22122C692212383122E0F574
:1038330008E4F509F50AF50B22E824FBF582E934DF
:10384300FFF58322E82411F582E439F583E022F5BC
:103853008312385822E0F508A3E0F50922122EE579
:1038630074041211AD7F08020EDC7401F090072C72
:10387300E0640F2274091211AD7F04020EDCEA2406
:1038830013FAE43FFB122E13E9227905122E1F745B
:103893000622A3A3E024F5C3941322122EF190076A
:1038A3004C126DE07A147B0022C082C08390199A77
:1038B300745DF0A3742CF0A3746FF0A3742CF090D8
:1038C300199E7445F0A3742CF0A3743FF0A3742CD9
:1038D300F0A3747BF0A3742CF0A37481F0A3742C75
:1038E300F0A37475F0A3742CF0A3742DF0A3742CBF
:1038F300F09019AA7451F0A3742CF0A37457F0A399
:10390300742CF0A3744BF0A3742CF0A37487F0A36E
:10391300742CF09019BB1257F160099019BB124E29
:103923001E121B959019B8125138740812648DA396
:10393300F0901A64F09019BDF07C0BFDF97ABE7B10
:1039430019121AE77C0B7D0079007AC97B19121AC8
:10395300E7024F9274F7120BD474F7121260EAFE67
:10396300EBFF1239EA74051252567403F0123B014D
:103973001252382430FCE43FFD8C821239E21239B2
:10398300F6600812420F74FFF0A3F0EE242EE43F1A
:103993001C1CFD8C82F583A3E0C0E08A828B83121A
:1039A3004EEAD0E01239F688828983125725240320
:1039B300F0EE1242191215047403F0900741120F2E
:1039C300AB7402121240123DE31211ADE9F5087017
:1039D30007EEFAEFFB122CF9A9087409024228F545
:1039E30083E08882898322EA1239EF221259343F15
:1039F300F5832212670D125244E8F0A3E91269E439
:103A0300E02274F0120BD4EAFEEBFF8C0C8D0D89CF
:103A13000B123B01F58312524C7410121504E0F59E
:103A230008A31239E4F0E824FFF582E9123DF5E535
:103A330008F0E824FEF582E9123DF5E50BF0900766
:103A430046E0C0E0E824FDF582E9123DF5D0E0F060
:103A5300900745E0C0E0E824FCF582E9123DF5D08B
:103A6300E0F0741212150412385412383CE509F0D0
:103A7300E824FAF8E934FFF98882F583E508F0EEE3
:103A83002404FCE43FFD88088A828B83E0F50E8CD6
:103A9300828D83E0250EC3950812670D125072853F
:103AA3000C82850D83A3A3A3A3A3A3A3A3E0640311
:103AB3007009EE125226F0A3E48003123DFA123E7F
:103AC300027409F07508BE750919750A00780812A1
:103AD30011CC1261D71211AD7508FF7509FF780873
:103AE3001211D0AC0CAD0D123DE31211ADE9F50886
:103AF3007007EEFAEFFB122CF9A908023868EA24E2
:103B030002FAE43FFB8A8222C082C0839019DAE082
:103B1300C39408400474078001E08A828B83F033E6
:103B2300333354F8F9024F9274F0120BD48A088B92
:103B330009890A8C0E8D0F750C00A2AFE433F50BC7
:103B4300C2AF9019D48045123C2D503D123C4764BE
:103B5300037036E50824F9F508E50934FFF5098E05
:103B6300828F83A3A3E02405FCA3E03400FDAA080D
:103B7300AB09121C85E50824FFF508E50934FFF5B8
:103B8300097410250CF50C150A12401C127195E5E9
:103B93000A6004EE4F70B0E50BA2E092AFA2AFE46F
:103BA30033F50BC2AF9019D4803E1256FE8882F5CE
:103BB30083124972850882850983F08A8289831278
:103BC3003C3EA3A3E0C0E0E50824FFF582E509122B
:103BD3003DF5D0E0F0E50824FEF508E50934FFF5EE
:103BE30009050C150A12401C123E706021123C4755
:103BF300640270F1123C2DEE40B012536DA2E550F9
:103C0300E4850E82850F837401F0E50A70D7E50B16
:103C1300A2E092AF850882850983E50CF0E50824CC
:103C2300FFFAE50934FFFB023868123C33A2E622AF
:103C3300EE2411F582E43FF583E022123C42221286
:103C43005743A3228E828F83A3A3124EEE125E1AD2
:103C53002274F0120BD474F312126074031215045D
:103C6300E9F07402121504EAF08B0B852182852298
:103C730083E4F004121238122C0FE9F890072BE0BA
:103C8300292437F508FA7B00121AF98A0C8B0DAE3A
:103C93000CAF0DEA4F7003023DDAEA2402F50EE49D
:103CA3003FF50FA808EA28F8E43BF9850E82850F53
:103CB3008312476E90072BE0F9FAC3E49AFA95E072
:103CC300FB850E82850F83E02AF50CA3E03BF50DFF
:103CD300900729123854750A0078081211CCE9FCB0
:103CE3007D00AA0CAB0D1251A81211ADAC21AD226F
:103CF3007401121504E0F9E50C24FFFAE50D34FF15
:103D0300FB122C158A828B83E4F0E50BC454F0F983
:103D1300901A65E0C4333354C0F8900725E0A2E05D
:103D2300E43313134849440FC0E0EA24FFF582EB60
:103D3300123DF5D0E0F0EA24FEF50CEB34FFF50D6F
:103D43007403121504E0F87402121504E0C454F06D
:103D530048850C82850D83F0A80C850E82850F8320
:103D630012645A2AC3988E828F83A3A3A3A3F085D8
:103D73000E82850F83E8F0A3E50DF0123DFA123EA3
:103D830002E4F0740C121504E4F07508C9750919FE
:103D930078081211CC1261D71211AD8521828522C8
:103DA30083E06009EE240E12536F4408F0122E01D3
:103DB300E9F9E4F508F50978081211D0740612122E
:103DC30040123DE51211ADE97006EEFAEFFB800BF0
:103DD300EEFAEFFB121AFF7A007B00740D023865CE
:103DE3007903EEFAEFFB122E19740222EE24FFF58B
:103DF30082EF34FFF58322EE1239EFE4F0A322F0D1
:103E0300123E0722EE1260FA3FF5832274F2120B80
:103E1300D48A0C8B0DA2AFE433F50AC2AF75080048
:103E23007509009019D4802C12402C5024850C82E3
:103E3300850D83A3A31261EA8E828F83A3A3124EFF
:103E43001E122E07E9600A124027C2E6F08E088F81
:103E53000912401C123E7070CFE508450960061236
:103E63003F09D2E6F0E50AA2E092AF800DE0FEA39F
:103E7300E0FFEE4F2274021211AD7F06020EDC74D6
:103E8300F0120BD48A0E8B0F8C0C8D0D750A00A2C9
:103E9300AFE433F50BC2AF7E007F009019D48010DE
:103EA300AE08AF09123F0112536DD2E7F0124DFC79
:103EB300124E106034123F09A2E750F18508828543
:103EC3000983A3A3120FABAC0CAD0DAA0EAB0F125B
:103ED3002E0D74021211ADE960D3EE4F60C212428F
:103EE300A37006123F1BD2E4F0E50BA2E092AFEE03
:103EF3004F6006122CF3750A01A90A023868123CB6
:103F030033D2E4F0EE22E5081261143509F583E0BB
:103F130022AA82AB83121C858E828F83A3A3124EA7
:103F2300EEE02274F2120BD474FE121260750C00D0
:103F3300750D00852182852283E4F0A3F0A2AF33BF
:103F4300F50AC2AF9019D4127195802BEE24FBF5BC
:103F530082EF34FF123852780C1211D012400A1239
:103F630011ADEEFCEFFDAA21AB22121B1DAE08AF73
:103F7300099019DAE014F0EE4F602B12402C501D1B
:103F8300EE240BF8E43FF98882F583E024FFF0A3E5
:103F9300E034FFF0888289831257F160AF8E0C8F73
:103FA3000D12401C80A1E50AA2E092AF9019DAE05D
:103FB300602C90072CE0640F6006901A64E0701E7A
:103FC3007AB27B19122EF1908404120FA77AB27B76
:103FD3001912501A1211AD800574F0124EFBAA216A
:103FE300AB22121B238A088B09AE08AF09EA4F6084
:103FF30013122C21124027A2E28E828F83A350D961
:1040030074E980D7023E78EEFCEFFD7AD47B191277
:104013001B2F7402228E0A8F0BEE24FBF582EF34E2
:10402300FFF58322EE123C3422123C33A2E72274C2
:10403300F7120BD4EAFEEBFF122C21124EE71230DB
:10404300E5E96401900748700AE02401F8A3E0342D
:10405300008003124E6DF912556F1250729019DAE7
:10406300E0701F90072CE0640F70177AB27B19126F
:104073002EF1908404120FA77AB27B1912501A12F0
:1040830011ADA8A8C2AF9019DAE004F0E8A2E78066
:1040930004E508A2E092AF02547D74F7120BD4EA50
:1040A300FEEBFFEA1240D3F0122C21EEFCEFFD7A77
:1040B300D47B19121B29A8A8C2AF9019DA1249C1DF
:1040C30090072CE0640F70057908122DB902547D16
:1040D300123C34C2E42274F7120BD474EA12126055
:1040E300EAFEEBFF900725E0602A85218285228383
:1040F3007401F0121504E412418E121504123F14D8
:10410300C0E0740A121504D0E012647A740B12151D
:10411300041256DA741602422874F7120BD4EAFE1C
:10412300EBFF122C03E9F974DC69601E74DD69602E
:104133001974E469601474F369600F74DE69600ACA
:1041430074DF69600574DB697007EEFAEFFB122D0B
:10415300BF02547D74F7120BD474EB121260EAFEA3
:10416300EBFF852182852283740612418E1215048A
:10417300AA82AB83121C85EE2408FCE43FFD740A7B
:104183001215041256DA7415024228F0EA2413FCBD
:10419300E43FFD74022274F7120BD474F712126019
:1041A300EAFEEBFFEA243012536F605DEA12421914
:1041B3001215047403F0900741120FAB12420F1251
:1041C3000FAB900754E0F97404121240EEFAEFFBC0
:1041D300122C0974041211ADE9F974DC69602374BB
:1041E300DD69601E74E469601974F369601474DE38
:1041F30069600F74DF69600A74E869600574DB69DC
:104203007007EEFAEFFB122DBF0239DDEE242EF517
:1042130082E43FF583221265EBAA21AB22121C85AF
:1042230074082274031211AD02547D74F2120BD47C
:104233008A0C8B0D750A00750B007508E7A2AFE4B5
:1042430033F509C2AF9019D48003124018123E709F
:10425300602512402C50F31242A370EEEE2432126A
:10426300443AE06870E4780A1211D012400A12113D
:10427300AD9019DAE014F0E509A2E092AFEE4F60D9
:1042830013EEFAEFFB122C2179F0EEFAEFFB122D6D
:10429300BF750800A908AA0CAB0D122DBF023E7D05
:1042A300123E07E064012274F4120BD474F7121265
:1042B30060EAFEEBFF8A82F583A3E064F3700302F6
:1042C30043488A828B83A3E064DF60798A828B838D
:1042D300A3E064E8606F8A828B83A3E064DB60659C
:1042E300122C63E9F5087055EE240E12536F604DDE
:1042F30012435260487408121504124361120FAB43
:104303007508FF7509FF78081211D08E828F83A379
:10431300A3A3A3A3A3A3A3E0F97404121240122C32
:104323000974041211ADE9F50874F369600F74DFC1
:1043330069600A74E869600574DB69700F8E828FA7
:1043430083A3E508F0EEFAEFFB122C6F023877EE49
:10435300240FFAE43FFB7909122CA5EA4B227402DD
:10436300125BE074FFF0A312436E2212572EA3A335
:104373002274F1120BD4EAFEEBFF7508008A82F572
:1043830083A3A3A3A3A3A312389540037508E88AC4
:10439300828B83A3A3A3A3A3A3A3A3A3A3E0C394F5
:1043A3001040057508E880138A828B83A3A3A3A317
:1043B300A3A3A3A3A3A3E0640F600B901A41E0544B
:1043C3000870037508E8EA240B12443AA3A3A3A3D5
:1043D300A3A3A3A3E0C398500DEA240B12536F6465
:1043E3000F60037508E8900745E0F47003A3E0F459
:1043F30070037508EC7A237B00121B8F8B0BA90BC0
:104403009019BB12444960278E828F83A3A3A9828C
:10441300AA83890C8A0D750E00780C1211CC7C23AB
:104423007D009019BBE0FA1251A81211AD800375FB
:10443300081AA9080261D2F582E43FF583E0F88AFD
:10444300828B83A3A322EAF0A3EBF0EA492274F55B
:10445300120BD4EAFEEBFF8A82F583A3A3A3A3A3E3
:10446300A3A3A3E090072C1244E1E0900747F0EAEE
:10447300240B12536F9007271244E1A3E0901A65AF
:10448300F0F912193D901A65E0600BEE2404125303
:104493006124061244D7901A6412386D60047401C3
:1044A300800274009019BD126B251211CC7C0B7D18
:1044B300007ABE7B191251A81211ADEE2418F5082B
:1044C300E43FF50978081211CC7C0B7D007AC97B97
:1044D30019025195FAE43FFB79E112192522126B77
:1044E3000FA3A3A3A32274F7120BD4EAFEEBFF8A54
:1044F30082F583A3E0700312382312669602547D7B
:1045030074F7120BD4EAFEEBFF9019BB1257F1605C
:10451300109019BB124E1E9019BBE4F0A3F0121BAE
:10452300958E828F837408124F0212228502547D66
:1045330074F6120BD4901A64E060109019BDE07009
:104543000A124551EA4B6003122CF9026790900757
:1045530027E0FB900747E0FA90072CE0F9122C1BA9
:104563002274F4120BD474E7121260EAFEEBFF75A7
:104573000B018A82F583A3A3A3A3A3A3A3E0A2E2CF
:104583005069EA242BF582E43F1261E8EA2413FA26
:10459300E43FFB122C27E970529082D6E06401704D
:1045A30005750B0080451246231211CC7C0B7D0050
:1045B30074111212381251A81211AD122E01E9FA18
:1045C300740E1212308808890978081211D0750800
:1045D3003075090078081211D0EE126443120FAB44
:1045E3001265DD790112388F1211AD852182852282
:1045F300837410F01265DD7402121504AA82AB8372
:10460300121C79EE242B126DD6740B121504125062
:1046130072740D121504E50B12684F741902387980
:10462300EE2408126B2D22C082C083901A65E060CD
:1046330003122E73024F92C082C083901A5C749A45
:10464300F0A37419F0A3749EF0A37419F0A374AAD1
:10465300F0A37419F0901C38749FF0A37434F09095
:104663001A4674FDF0A3742BF09019DF7433F0A392
:10467300742CF09019E17439F0A3742CF0901A4162
:10468300E04402024A96C082C083EAFCEBFD790350
:1046930002579DC082C0837908026910C082C0831B
:1046A30074FE1212609019E774E1F0A3742CF09079
:1046B30019E974DBF0A3742CF080077AD47B191208
:1046C30046FB9019D41257F170F19019D61257F195
:1046D30060097AD67B191246FB80EF9019D4E4F077
:1046E300A3F09019DAF0A3F0A3F09019F5741DF07C
:1046F300A3742DF07402801C121B23852182852252
:1047030083EAF0A3EB12470F122DEF22F0AA21AB9D
:10471300222274111211AD024F9274F6120BD4E9D6
:10472300FF749C29F582E43437F583E493FEFA7B26
:1047330000121AF9EA4B6007EA2E12476B80267AB9
:10474300027B00121AF9EA4B601774B22FF582E468
:104753003437F583E4938A828B83F0A3741A124B64
:10476300347A007B00026790125061E812670AA353
:10477300A3A3A3E4F022E9FC740629F8EAA2E0501B
:104783001EE875F00A84E5F0F96014740A28C399E9
:10479300F8E9C394054004740A28F8740B28F8EC6C
:1047A300C394134004791480027906E8297900241C
:1047B30009F85001097A0A7B00120972E8F902111B
:1047C3007AC082C083901A41E05402600A12228B9D
:1047D300E96004790180027900024F92C082C083AC
:1047E300901A41E0540260149019DAE0700A1257EB
:1047F300EE60091248045004790180027900024FE7
:1048030092123847A2E722C082C0839082D3E0F895
:104813009019DCE0C3985005121AF980047A007BE2
:1048230000024F92C082C083122DEF7900024F9293
:10483300C082C08374FE121260852182852283EABE
:10484300F0A3EB12499DA3A3A3A3A3E0600A146002
:104853005724FE605A02490D90072CE0640F601242
:10486300122DC5E9700C124E189019E3124EEA127C
:1048730030E5900754E0C0E08521828522831257FA
:1048830011D0E012499D741412612EFCA3E0FD7A4D
:10489300D67B19121B1DA8A8C2AF9019DC1249C1FF
:1048A3007920122DB90246F7124C6B741580D91278
:1048B3004C6BA3A3A3A3E06051124C6B123F1FC028
:1048C300E0852182852283E02406F582E43BF5839B
:1048D300D0E012612E2402F8A3E03400F98882F5B7
:1048E30083E02401FAA3E03400FB88828983EAF0A1
:1048F300A3EB12612E124CAB8521828522836013B8
:1049030012497260051249844048AA21AB22122D34
:10491300EF809212497260F2124984502112499138
:10492300FA852182852283A3E0C82406124C67F806
:1049330074D21259263437F583E4936A60148521BF
:1049430082852283124972640870BF1249916408F8
:1049530070B8124991141249A5240AC0E085218236
:10496300852283124EEAD0E01249A50402488B1235
:10497300497622124E6DC82406F582E438F583E0A9
:1049830022852182852283124976C3940A228521B6
:1049930082852283123C42A3E0221249AFF5838829
:1049A30082221249AFC82406124C9522F085218237
:1049B300852283124E6D22A8A8C2AF9019DBE004B2
:1049C300F0E8A2E792AF22C082C0839019EB12579E
:1049D300F16008124C721230E580027900024F92A6
:1049E30074F7120BD4EAFEEBFFEA123E08740112CD
:1049F3005020F8A3E0F91239EA125072EA24351272
:104A0300536FC0E0EA2413F582E43FF583D0E0F06E
:104A1300EA243612536FC0E0EA2414F582E43FF52A
:104A230083D0E0F0EA243812536FC0E0EA2418F58B
:104A330082E43FF583D0E0F0EA242FF582E43FF5EA
:104A430083120FAB1265EAEA243112536FF9123D58
:104A5300E91211ADE9F5087007EEFAEFFB122CF934
:104A6300A90802547DC082C083122DC5E960047970
:104A73002080027901024F92C082C083EA2411127E
:104A83004A8CD2E0800DEA240DF582E43BF583E005
:104A930022F0A3F0024F92C082C083124A896401BC
:104AA3007011124B2E400C8A828B83A3E0F9122DD6
:104AB300BF8066124B1FA2E650128A828B83A3E04B
:104AC300F99019E5124EEA1230E5804D124A8964D5
:104AD30001700D124B2E50088A828B8374308036FE
:104AE3008A828B83A3E0641B8A828B837004742283
:104AF3008024A3E0700D124A89F874BD125926343C
:104B030037800B124A89F874B21259263437F58369
:104B1300E4938A828B83124B34024F92124B2322EB
:104B2300EA2410F582E43BF583E022124B23A2E34F
:104B330022F0901A3CE0F9121B052274F7120BD4F1
:104B4300E9FE1257EE7003024C64EE6014741B6EA0
:104B5300701AE81260FA39F583E064057003024CB9
:104B63003C9019DE124C72A3E4024C4374E96E705C
:104B730068E82412F582E439F583E0700B12229180
:104B8300E96005124CB5606179EE1218A79019DD42
:104B9300124C8C9019DD603A124CB89019DD700BF1
:104BA300124C8C14F0121A69024C64124CAAC2E71C
:104BB300124E53240D124C6764037009124C851274
:104BC3004E09D2E2F079ED1218A7124C9D1230E58E
:104BD3008078124C7874E9806774E16E703E12221B
:104BE30091E96055124CB5705090074EE0C0E01249
:104BF3004C852412F582E438F583D0E0F090073D2C
:104C0300E0C0E09019DD124C81124C81D0E0F090AD
:104C1300073DE004F07901121A518045741C6E704F
:104C2300189019DD124E1E9019ED124EEA1230E55E
:104C33009019DDE4F0A3F080289019DD124C78EE92
:104C4300F09019DD124E1E122CE7124E34E0548000
:104C530060031268FF9019DDE4F0A3F07910122DC0
:104C6300B902547D124C9522852182852283A3E0CB
:104C7300F583888222124C7C22124EF2A322125711
:104C83003F229019DD125720221257202412124C72
:104C93009522F582E438F583E0229019DD124E2245
:104CA3009019E1124EEE22E0F8A3E0C82410124C52
:104CB30095229019DD124E3BE054042274F4120B3A
:104CC300D4750A00750B00A2AFE433FEC2AF1257CE
:104CD300EE6003024DB2124EE71230E5E94410F8DC
:104CE3009019D4800985080A85090B124DFC124ED0
:104CF300107003024DB2123F09586870E8780A1227
:104D030011D0AC08AD0912400E1211AD9019DDE5BA
:104D130008F0A3E509124E53124E09A2E75003020D
:104D23004DB99019DBE014F0EEA2E092AF9019DDDB
:104D3300E0240EF8A3E03400F9E8FEE9FF8882F5E9
:104D430083124E1E9019DD124997F9122CABE9908C
:104D530019D812648D8E828F83E054806018124CB0
:104D6300852413124C67F9121961124C852414120D
:104D73004C67F9121955124E34A3E05401605F9049
:104D830019D81257F16045124E4A6040124E4AF844
:104D930079009019D8124E1E12097AE8C0E0124E1B
:104DA30028D0E0124E58C3941340117402800FEEC2
:104DB300A2E092AF80379019DA024D287400C0E068
:104DC3009019DEE0C8124DF3D0E0800D124E287426
:104DD30001124E53124DF37401F07903800C9019B4
:104DE300DD124CAAA2E1B3E433F9121A5102387C62
:104DF300241AF582E438F58322E50824FBF582E5DD
:104E03000934FFF58322126114124C982212385888
:104E1300E508450922852182852283124E2222E05C
:104E2300FAA3E0FB2212571D2419F582E438F58317
:104E3300229019DD124E3B22124E6DC8124E4322B0
:104E430012593438F5832212571D2418124C952217
:104E5300124E65C822124E65F5838882A3A3A3A3CD
:104E6300E022F09019DD124E6D22E0F8A3E02274E7
:104E7300F7120BD4EAFEEBFF122DE912536CA2E3F7
:104E8300400A1242A370059082D180039082D2E03F
:104E9300F9EEFCEFFD7AD47B19121B35E96038EE8D
:104EA300FAEFFB9019E7124EEA1230E5EE240E12E8
:104EB300536F540470121249BAEE1239EBA3E05443
:104EC30001701E122CF38019EEFAEFFB9019DF121A
:104ED3004EEA1230E5800A8E828F83A374F1124E5C
:104EE300FB02547D9019E9124EEE22124EF222E09B
:104EF300F8A3E0F583888222124F02122CE722F0F6
:104F0300EEFAEFFB22024F8B74F7120BD4EAFEEB9F
:104F1300FF7900901A41E05402700CEA24331253D3
:104F23006F5404600279E8901A41E05460700CEA0F
:104F3300243312536F5402600279E88A828B83A36D
:104F4300A3A3A3E0F89082D7E0C398500279E8EADC
:104F5300243112536F700CEA242E12536F700479AC
:104F6300F5800BE97005122CD5E9F9E96007EEFA33
:104F7300EFFB122DBF02547DC082C0838A828B83D4
:104F8300740DF01222858007C082C083122CF3D0E7
:104F930083D08202117A74F4120BD4EAFEEBFF8AF7
:104FA30082F583E4F0A312502054049082D170124E
:104FB300E0F89019DBE0C398401279F1122DBF029B
:104FC300387CE0F89019DAE0C39850EE125026A32B
:104FD300E054016037EA243712536FC3940540331A
:104FE300EA243312536F540570297AEF7B19122E7A
:104FF300F1EE2437F582E43FF58312382D78081259
:1050030011C87AEF7B1912501A1211ADEEFA125A27
:105013001780AC79E880A5122EE5740422F01250B3
:1050230026E022EA2433F582E43FF5832274F61264
:105033000BD4E9FE2451FAE43400FB121AF9EA4BCB
:105043006015EE8A828B83A3A3A3A3F0EA245112F3
:10505300506112507280047A007B00026790F8E47A
:105063003BF98A828B83A3A322126DE0901AB9E8DD
:10507300F0A3E9F022024F8BC082C0839019F87429
:1050830047F0A3742DF0A37477F0A3742DF0A374E9
:105093004DF0A3742DF0A37453F0A3742DF0A374F7
:1050A30071F0A3742DF0A37465F0A3742DF0A374B1
:1050B3005FF0A3742DF0A3747DF0A3742DF0A3749B
:1050C30083F0A3742DF0A37489F0A3742DF0A3745B
:1050D30095F0A3742DF0A37459F0A3742DF0A37469
:1050E30041F0A3742DF0A3743BF0A3742DF0901A38
:1050F30014746BF0A3742DF0A3748FF0A3742DF0CC
:10510300A374A9F0A3742EF0A3749BF0A3742DF0E1
:10511300A374A1F0A3742DF0901A38E4F0901A3B15
:10512300F0901A241251387402F0901A2D1251384B
:105133007401024A9674B9F0A3742DF0A32274F596
:10514300120BD474F11212608521828522837402BA
:10515300F07401121504E9F060047AFF7BFF740216
:10516300121504125BD575083075091A750A007893
:10517300081211CC7C0B7D007407121504AA82ABB4
:10518300831251A81211ADAA21AB22122285740FEA
:1051930080031251A81211AD7F03020EDC7C0B7D3C
:1051A300007A307B1A121ADB74032274F7120BD4C1
:1051B30074FD121260852182852283740AF07401C2
:1051C300121504E9F07402121504EA12684F024240
:1051D3002674F6120BD474F7121260EAFEEBFFEAA0
:1051E3001252261252567402F0EA2428FCE43FFDC0
:1051F300AA21AB22121C79EE243112522C24331231
:10520300624E1211D0740212124079831A1A123D9F
:10521300E71211ADE9F5087007EEFAEFFB122CF96E
:105223000267891239EF740122F582E43FF5831294
:1052330038581256F6F583125244E8F0A3E9F0EE1B
:105243002212524C8A828B8322E024FFF8A3E0349B
:10525300FFF922F0A3E4F0EA123E082274F0120BE5
:10526300D4126CBE1214917808790C120A6D780866
:105273001211C87A277B1A02386074F4120BD474A3
:10528300C612126090072CE0640F600D85218285A1
:105293002283742E125BF480227A1E7B1A12389EAC
:1052A30012097A88088909E4F50AF50B78081211BE
:1052B300C87A1E7B1A12501A1211AD743A02387949
:1052C30074F5120BD4EAFEEBFF8A82F583A3E0F8B0
:1052D3007078EA243012536F64026007E06403605D
:1052E3000278E8EA2426F582E43FF58312389740F2
:1052F3000478E88058E87052EA24261244D7EE2452
:1053030031125361243012536F6402700EEE24285D
:10531300126DD690073B125072801790073B74FEB4
:10532300F0A304F0EE2428FCE43FFD7A327B07125D
:105333001C85EE241B1246261211CC1251A0121109
:10534300ADEEFAEFFB122D35E9F8E8600EE88E8238
:105353008F83A31265F2741712669C02519BFAE4C1
:105363003FFB7950121925EE22EE2410F582E43F1B
:10537300F583E02274F6120BD474F7121260901ABC
:105383003BE070377401F0F9121A1BAA21AB221209
:105393002DFB75083075091A78081211D0750801AC
:1053A30075090078081211D0900741120FAB7406EB
:1053B3001212407A0312388D1211AD02678B74F703
:1053C300120BD412559D7004A374EBF0901A3BE0BA
:1053D300A2E25003C2E2F0E0A2E150051255AE8012
:1053E300098E828F83742A12669C02547D74F41290
:1053F3000BD474FE1212601254A31256E9EC8521E9
:1054030082852283125738E0F50B7015AA21AB224F
:105413007953121925EE2413FAE43FFB794A121942
:10542300251246231211CC1251A01211AD124E189F
:10543300A90B122D29901A3BE0A2E150031255B596
:10544300901A3BE4F0740202387974F7120BD4EA31
:10545300FEEBFF8A82F583A374EBF0901A3BE0A284
:10546300E150077A0079EB122D2FEEFAEFFB122DA4
:10547300658007EEFAEFFB122E677F01020EDC74E4
:10548300F7120BD41254A3901A38E4F0901A3BF09D
:105493007AFF7BFF8E828F83A3E0F9122D2980DAB6
:1054A3001255EE7A277B1A122EF12274F7120BD4BF
:1054B300EAFEEBFF122D5F80BA74F7120BD412567B
:1054C3002BA3A3A3E060047400800274EB1254FCCA
:1054D3005003C2E2F0E0A2E150051255FF8011A291
:1054E300E0500D8E828F83742AF0A374EB12669CB6
:1054F300EEFAEFFB122D0B80818E828F83A3F09047
:105503001A3BE0A2E22274F6120BD4EAFEEBFF9000
:105513001A3BE0D2E1F07901121A1B8E828F83A32A
:10552300E07038122E01E9FAEE240DF508E43FF598
:105533000978081211D0750801750900780812114D
:10554300D012556F120FABEE2402FCE43FFD12386C
:105553008D1211ADE98E828F83A3F08E828F83A388
:10556300E060067A00F9122D2F026790EE240BF506
:1055730082E43FF5832274F7120BD412559D700415
:10558300A374EBF0901A3BE0A2E25003C2E2F0E016
:10559300A2E150031255AE02547DEAFEEBFF7901FE
:1055A300121A218E828F83E0642022C2E1F0125509
:1055B300B5227A008E828F83A3E0F9122D2F2274F5
:1055C300F7120BD41255EE8E828F83A3A3A3A3E00D
:1055D30060047400800274EB1254FC5003C2E2F0C6
:1055E300E0A2E150031255FF0254F3EAFEEBFF7908
:1055F30001121A217A1E7B1A122EF122C2E1126BBA
:1056030020E0A2E4E433FA1255B72274F7120BD464
:1056130012562B74EB1255015003C2E2F0E0A2E1E3
:1056230050031255AE02547DEAFEEBFF7901121AC4
:10563300218E828F83A32274F7120BD41256500249
:10564300547674F7120BD412565002547DEAFEEBD3
:10565300FF7A1E7B1A122EF1EEFAEFFB122D89222E
:1056630074F7120BD474EF121260EAFEEBFFEA1226
:1056730065DE7A327B07121C73E9605685218285C9
:1056830022837409F0740112150474EFF01256E9C1
:105693007402121504EC125738A3A3E0C0E074049B
:1056A300121504D0E0125725640870158E828F837B
:1056B300A3A3125711E0C0E07405121504D0E080D3
:1056C300067405121504E412647A740612150412A2
:1056D30056DA7411024228AA82AB83122E31AA2110
:1056E300AB22122285221256F6F583125708FCA329
:1056F300E0F922EE1256FEFB8882222402F8E43FF0
:10570300F9E8FAE922124E6D8882F583E0221257F6
:10571300202407F582E438F583229019DD124E6DBB
:10572300C8221257292212572EE022F08E828F832D
:10573300A3A3A3A32212670A12573F22125743229D
:10574300E0F8A3E0F5838882A3A322C082C083127A
:105753002E73024F92C082C083901A5874F8F0A33C
:105763007419F0A37414F0A3741AF0901C327463C8
:10577300F0A37435F0A37401F0A37435F0901A44C8
:105783007423F0A3742DF0901A41E04401024A9669
:10579300C082C083EAFCEBFD7902122DD7024F923F
:1057A30074F6120BD474FE121260901A3D1257F164
:1057B30060077A3D7B1A122DEF901A43E4F0900EA6
:1057C300B31257F160208007AA21AB22122DEF906C
:1057D3001A3CE0F9121B118B09A909852182852244
:1057E3008312444970E2740202678D9019DD126DD1
:1057F300E0E8492274F7120BD4E9FA7B00901A3CD3
:10580300E0F9121B3B02547D74F7120BD474F012AF
:105813001260EAFCEBFDE9FE8A828B83E0F874C830
:105823001259263437F583E493C0E074011215044A
:10583300D0E0F0640B700DE98A828B83A3F0122E03
:1058430055025921E07003025921640C6003025987
:1058530012741A6E700B7404121504E4F0A3025947
:10586300117404121504125BD5EA24321260DEC0EF
:10587300E07403121504D0E0126B0B1214C9740602
:105883001215041214D58C828D83A3A3A3A3A3A3FF
:10589300A3A3A3126DDC740A121504E8F0A3E912A2
:1058A300592BE054106009852182852283E48013FB
:1058B300EC24121260DEF890074EE0C39885218233
:1058C300852283F0E0C0E0740C121504D0E0F0EC04
:1058D30024151260DEC0E0740D121504D0E0F0EC64
:1058E30024161260DEC0E0740E121504D0E0F0EC52
:1058F30024171260DEC0E0740F121504D0E01259B1
:105903002BA3E05401600874011215047411F074A0
:1059130002121504EEF0740112123812228574106B
:1059230002422828F582E422F0EC1259343DF58333
:1059330022240EF582E422C082C083901A43E064DD
:10594300037004790180027900024F9274F7120BFD
:10595300D4901A43E01259CA743028F582741C3962
:10596300F583125E5CC2E7F01259D1A3E493FE25DE
:10597300E0FCE433FD74302CF582741C3D1261E8C5
:10598300EC4D6005EE901A43F08A828B83E025E0AC
:10599300FCE433FDE82CF582E93DF583E493FCC494
:1059A300540F25E0F87452125926341AF58312570E
:1059B300F17005122E43800CEC540F1259D1124E84
:1059C300EA1230E502547D25E0F8E433F92225E0BC
:1059D300FCE82CF582E439F5832274F2120BD474BB
:1059E300FE121260890B8A088B09125A7C125A6DB7
:1059F300601A126487F50A78081211CC125A8924A6
:105A0300021261DE1211AD125A158003125A9B0263
:105A13003E78AA0CEFFB901A3CE0F9121B052274A6
:105A2300F0120BD474FE121260890B8A0E8B0F12C4
:105A33005A7CF508125A6D6027126487A808EA2871
:105A430012476B850E08850F09F50A78081211CCE9
:105A5300125A891261DC1211AD125A1579008005B0
:105A6300125A9B791A7402023865FA7B00121AF9EA
:105A73008A0C8B0DAF0DEA4F22749129F582E43421
:105A830037F583E49322A80B74A71259263437F50C
:105A930083E493FC7D00EA22852182852283E50B42
:105AA300F0791AAA21AB22122DBF22C082C083E94A
:105AB300901A3C024A9674F6120BD474FE121260CA
:105AC300EAFEEBFFEA542070308039A8A8C2AF90F9
:105AD30019DCE0141249C38A828B83125BC2901AC9
:105AE3003F125BD5122DCB852182852283E064157D
:105AF30060077A3F7B1A122DEF7AD67B19121B238C
:105B0300EA4B70C7EF5480700C8016901A3FEAF08E
:105B1300A3EB125BE8901A3CE0F9121B11EA4B70FD
:105B2300EAEE5410600B852182852283742D125B6B
