:020000040000FA
:0600000002144802087121
:030013000209C718
:03002B000211D7E8
:0300330002107A3E
:03003B00020A1C9A
:030053000207A6FB
:10008300020805010000000000F8FF07FFFF000061
:100093000704000000030001FF16102700000020E2
:1000A300FD000206FFFFFE0400000004E5C6FE0695
:1000B300001F0000AC03FE06001F00B4AC741E0357
:1000C30000770163176917231E000000000000007A
:1000D300000000000000000000000000000000001D
:1000E300000000000000000000000000000000000D
:1000F300000000411E00000000000000000000009E
:100103000000000101E803D0073200640000000092
:1001130000000000000000000000000000000000DC
:1001230000000000000000FF0000000000000000CD
:1001330000000104010C0002077F8202EF83010427
:1001430000002016000000E8030000FFFF7D168872
:10015300130000E803000064006400B801A0BB0DB5
:1001630000A0BB0D00020202030401010A3C0205C8
:100173001E020A0A0101010809080103DC050280C5
:100183003E0102FEFFE8030A050001FFFF010A0129
:100193001401E00100B0423BAAB83F0000003F8CCD
:1001A300906339AA0CA33A00941E3C8042633DCF6E
:1001B300FE753E1572313F0000803FF304353F80EA
:1001C30096184B000080BF2292D43EDD9B2A3F0449
:1001D300000040FFFF7F7FFFFF7FFF010080341897
:1001E30072313F01050301010F10FEFF8B34000044
:1001F3000000233400000000FF000000FF00121481
:10020300766046121494603DE9687008F618F61893
:10021300F618F622748067F712023509090974800B
:1002230067F722121494601D1214767005191919B8
:10023300801A121324701F1212D4C37003E667339B
:1002430019191940071818182208080874FFF61816
:10025300F618F618F6221212D4601712151470212C
:1002630092F01215027019501720F01408080809AB
:100273000909E7F61819E7F61819E7F61819E7F662
:100283002212150260E6E869701F0808E62480F66A
:1002930008E436F618547FB47F0CE654806007F602
:1002A300E418F618F622181822E9C6CC08C6CD08B9
:1002B300C6CE08C6CFC0E0E8C0E0EAC0E0EBC0E0CD
:1002C30009E9F809E7FA09E7FBE6F918E6F8C3ECE8
:1002D30098ED99EE9AEBC2E7F5F0EFC2E795F0508F
:1002E3000E600CEBCFFBEACEFAE9CDF9E8CCF8EAE5
:1002F300A2E7D2E7FAEB33FB13F5F0EEA2E7D2E77E
:10030300FEEF33FFC5F013A2E730E601B313C5F0E8
:10031300C3C0E0C0F07F00C39BFB605E9418600F16
:10032300401D14601AD0E023F9D0E0F80204078AD4
:10033300F0E9486003D2F0E4AFF0FAF9F8803BEB60
:1003430030E40D89F0EA6003D2F0E4AFF0F9CAF8C3
:10035300EB30E30D88F0EF6002D2F0AFF0E4CAC9EE
:10036300F8EB54076014FBC3EA13FAE913F9E81333
:10037300F8EF135002D2E0FFDBEDD0E0C0E030E74E
:1003830039C3E49FFFF5F0EC98FC42F0ED99FD4290
:10039300F0EE9AFE42F0D0E0F9D0E0F8E5F0607AB2
:1003A300E923F9EE20E742D8028067C3EF33FFEC7D
:1003B30033FCED33FDEE33FE80EAEC28FCED39FD32
:1003C300EE3AFED0E023F9D0E0F84002801BC3EE02
:1003D30013FEED13FDEC13FCEF135002D2E0FF0804
:1003E300B800067F7F74FF802EEF3350178CF02008
:1003F300F00260100CBC000C0DBD00080EBE000422
:1004030008E860DFE933E813FFEE2313FE4F4D4C9A
:100413008008E95480FFE4FEFDFCEE33EF33F47013
:1004230004FCFD7E80D0E0FBD0E0FAD0E0F8D0E021
:10043300CFC618CEC618CDC618CCC6F9221214944E
:10044300700418181822121476700D74FFF6181918
:10045300F61819F61819F622E7548066F6121502F3
:10046300700F12151470F014F608F608F608F680EB
:10047300D1121514700CF608F608768008E6447F4E
:1004830080EC1212D7700C12132760BFE65480F66B
:10049300E480BB121327700519191980A5E8697048
:1004A3000C763F18768018F618F6E8F922E6CDC0E8
:1004B300E018ECC0E0E633CD33CDD313F6E719FCF7
:1004C300E7191933CC33C3947F400ECD9D502408D4
:1004D300E65480F6E418F6800FF4043D1450140833
:1004E300E6447FF6187680E418F618F6D0E0FCD0E0
:1004F300E0FD22CCD313CCFD18E4C6CBC0E018E456
:10050300C6CAC0E00808ED08C633E613F618E4339C
:10051300C675F003C3CA97CA09CB97CB199C40048D
:100523007D08802EBD00030205E916B6FF05060609
:10053300081618C3CA33CACB33CB33CA27CA09CB6D
:1005430037CB193CC37D08803E187D0820E75CC685
:1005530033C6CA33CACB33CB33DDF1D5F0EB30E747
:100563007BCA97CA09CB974ACB199C406F4B70251E
:10057300E620E0218066187D08C3CA97CA09CB9795
:10058300CB199CD3C633C6CA33CACB33CB3350C97A
:10059300DDE7D5F0E1D3E4C636C608C636C608C6DD
:1005A30036C608C636C61818188031C3CA97CA0992
:1005B300CB97CB199CB34097C633C6CA33CACB3348
:1005C300CB33DD34D5F02EC6A2E0C640C8CA27CA55
:1005D30009CB37194A70BECB3CB480B90808E6335F
:1005E30008E633601F181818D0E0FAD0E0FBD0E01B
:1005F300FCD0E0FD22187D08CA27CA09CB37CB19E6
:100603003CD3808013F618E4B67F11F618B6FF0EBC
:10061300F618C60470D20808768080CAF618F61851
:10062300F680C500121494604F1214766012E754DA
:100633008066F61213247011121514703B09090910
:10064300F4F618F618F618F6221212D470151215CD
:100653000208080860EAE6447FF618768018E4F694
:1006630018F62212150260161215147012E4F60819
:10067300F608F608E65480F609090918181822EA5C
:10068300C0E0EBC0E0ECC0E0EDC0E0E687F0A4FB27
:10069300ACF008E687F0A42CFCE435F0FA1809E680
:1006A30087F0A42C4B60027401CA35F0FCE433FBE1
:1006B30009E687F0D2F7A42CCB35F0FC1908E687BE
:1006C300F0A42BCC35F0FBE433FD0819E687F0D218
:1006D300E7A42C4ACB35F0CD3400FC09E687F0D2F1
:1006E300E7A42DCC35F0FDE433FA0918E687F0D200
:1006F300F7A42CCD35F0CA3400FC08E687F0D2E726
:10070300D2F7A42ACC35F07A7E20E70B0ACB33CB81
:10071300CD33CDCC33CC33CB3350147004ED30E038
:100723000ED2F1E4CD3DCDCC3CCC3B5005DA05C235
:10073300F1EB547FC63308E63392F0FBE73309E766
:1007430033C39A502D2B70190C0D4C4D7015180690
:10075300E608C333700D20F10AA2F013F6E4188003
:100763000B4024E4F630F002768018F618F618F6FB
:100773008024D33B14501074FFA2F013F618768034
:10078300E418F618F6800FA2F013F618E63303F612
:1007930018ECF618EDF6D0E0FDD0E0FCD0E0FBD08D
:1007A300E0FA22C0E074F1120C34A2AFE433F5098D
:1007B300D2AF85A708AFA1EF5508FE74105E60069F
:1007C30012182F75A1EF74085E600812183575A111
:1007D300F78024EFA2E092F0E508A2E082F0501740
:1007E300906198E0F8900714E0C398A2D265D033E3
:1007F3005002E8F075A1FEE509A2E092AF7F020284
:100803000C93C0E074F2120C34A2AFE433FED2AF07
:100813009061A4E0F8759B00E59158540860087551
:1008230091F71218838023E591585410600875914D
:10083300EF1218898014E591A2E092F0E8A2E08219
:10084300F05007E0C2E0F01219DF9061A3E0F8E591
:10085300E9585404600E1219B575E9FB906193E0F1
:10086300A2E640F2EEA2E092AF7F01020C93C0E059
:1008730074F2120C34A2AFE433FED2AF9061A5E060
:10088300F8E5BF585404600675BFFB1219F780D40E
:100893001208DE30F03912092380341208DE20F00A
:1008A3001430E72B74FFFCFBFA747F8022E4FCFB1B
:1008B300FA7480801AB48008BC00F2BB00EF800F8A
:1008C30050EBF9E4C39AFAE49BFBE49CFCE499C67D
:1008D300CC18C6CB18C6CA18C6F922E4C9C608CABA
:1008E300C608CBC6D3330308CCC63392F0C3947F78
:1008F300402E94184019C9B90704CACBCC225025FD
:10090300C309CA33CACB33CBCC33CC33D9F422F4A7
:10091300600DC9CCC313CB13CBCA13CAD9F6CC22EF
:10092300E4FCFBFA2214FCFBFA22C3E498F8E499F2
:10093300F912096E8026C3E49AFAE49BFBE920E7E7
:10094300E912096EE498F8E499F922C3E498F8E40B
:1009530099F912096EE498F8E499F9C3E49AFAE470
:100963009BFB22EB20E7CFE920E7E0B90010BB00B7
:1009730008E88AF084F8AAF022E4FBC8FA22EB70B4
:10098300227B10C833C8C933C9335007C39AC3DBAA
:10099300F280069A50012ADBEAC833F4C8C933F45B
:1009A300C9FA2275F008E4C833C8C933C933C99AF0
:1009B300C99B5004C92AC93BD5F0ECFBC833F4C822
:1009C300E4C9FA22C0E0C0D0E8C0E0E9C0E0C082D8
:1009D300C083A8C1E8C0E0900681E0F8740028F560
:1009E30082E43406F583D0E0F0900680E0F8A3E0DB
:1009F300687006E595900683F0900681E004F0C3E5
:100A030094804002E4F0A374C6F0D083D082D0E097
:100A1300F9D0E0F8D0D0D0E032C0E0C0D0E8C0E0F8
:100A2300E9C0E0C082C083900704E0F8A3E06870E7
:100A330008539AFBA374018022C2E9900704E0F8EB
:100A4300740128F0748428F582E43406F583E0F514
:100A5300C1900704E0C394804002E4F080AC08082E
:100A630008EAC0E0EBC0E086F0E7A4FA180986F0D4
:100A7300E7A42AFA180986F0E7A42AFA180986F0E7
:100A8300E7A42AFA1986F0E7A4FBE5F02AFA190885
:100A930086F0E7A42BFBE5F03AFA190886F0E7A401
:100AA3002BFBE5F03AFA18180986F0E7A4C5F02BFA
:100AB300FBE43AFA1908E7C5F0C6A426F6E5F03BCD
:100AC300FBE43AFA1886F0E7A4F6E5F00826F6E424
:100AD3003B08F6E43A08F6D0E0FBD0E0FA22080837
:100AE30008E630E7111212E8120AF9080808C644AA
:100AF30080C618181822181818E9799EC608CAC69D
:100B030008CBC608CCC6C370207996CACBCC701963
:100B1300798ECBCC70137986CC700EF9802ACA33C8
:100B2300CACB33CBCC33CC331930E7F2CCCBCA337B
:100B330050147004EA30E00DE4CA3ACACB3BCBCC84
:100B43003CCC500209C3E913C6CC182313C6CB18F7
:100B5300C6CA18C6F922E4CFC0E0E4CEC0E0E4CDB3
:100B6300C0E0E4CCC0E075F020E626F608E633F6F4
:100B730008E633F608E633F6181818EC33FCED33C1
:100B8300FDEE33FEEF33FFC3EC9709ED9709EE97C4
:100B930009EF97191919400FFFEC97FC09ED97FD21
:100BA30009EE97FE191906D5F0BFECF709EDF70921
:100BB300EEF709EFF7191919D0E0FCD0E0FDD0E00A
:100BC300FED0E0FF222521C582C0E0E52234FFC527
:100BD30083C0E0E521C3958224F810AF0885832202
:100BE3008582218008858322858221D2AFCEF0A31E
:100BF300E520F0A37808E608F0A3DEFAEFF0A3E51A
:100C03008124FAF8E608F0A3E608F0A3E608F0A3C7
:100C13000808E608F0A3E608F0A315811581D0E0E3
:100C2300FED0E0F8158115811581E8C0E0EEC0E043
:100C330022C0D02521C582C0E0E52234FFC583C090
:100C4300E0E521C3958224F310AF088583228582D2
:100C5300218008858322858221D2AFC8F0A3E9F0E1
:100C6300A3EAF0A3EBF0A37908E709F0A3D8FAEC21
:100C7300F0A3EDF0A3EEF0A3EFF0A3D0E0F0A3D048
:100C8300E0F0A3D0E0F0A3E520F0A3E5F0F0A32289
:100C9300852283852182E0C0E0A3E0F9A3E0FAA3E3
:100CA300E0FBA37808E0F608A3DFFAE0FCA3E0FD8D
:100CB300A3E0FEA3E0FFA3E0C0E0A3E0C0E0A3E065
:100CC300F5D0A3E0F520A3E0A3F5F010AF088583EA
:100CD300228582218008858322858221D2AFD0821A
:100CE300D083D0E0F8D0E0321212EB181818120BB0
:100CF300591213F7191919221213F7191919080898
:100D030008E618181820E7E0120B591212EB18180E
:100D13001822090909E719191920E7DC080808E668
:100D230018181820E703020B591212EB181818129F
:100D33000B591212EB1818181213F719191922125A
:100D430014EDB90003020D81E4900501787979155A
:100D53008002F0A3D8FCD9FA7A797B1990008678BF
:100D63007C79028015E493A3AD82AE838A828B8360
:100D7300F0A3AA82AB838D828E83D8E9D9E77582EB
:100D8300647583AF740612116875822B7583317491
:100D9300001211680575F0108E238F248582288533
:100DA3008327852182852283E0CEA3E0CF85288215
:100DB300852783EBC9EAC8EDCBECCAC3E833C8E99E
:100DC30033C9EA33CAEB33CBC3EA9EF526EB9FF56F
:100DD30025B35004AB25AA26EC33CCED33CDD5F0A7
:100DE300DAAE23AF2422121494601C121476601717
:100DF30012150270071215147001D322C0D01215F8
:100E0300147006D0D0B322C32233D0D0501430E0B4
:100E1300F6C3E7960809E7960809E7960809E796EF
:100E2300B32220E0D5E6970809E6970809E6970874
:100E330009E697B322121494601B121476601612FB
:100E430015027007121514600CB322C0D0121514CA
:100E53007005D0D022C32233D0D0501330E0EBC37F
:100E6300E7960809E7960809E7960809E796222016
:100E7300E0E4E6970809E6970809E6970809E69784
:100E830022D083D082ECC0E0EDC0E0E493A3FCE485
:100E930093A3FDED4C600D120F5CEC24FFFCED34CD
:100EA300FFFD80EFE493A3FCE493A3FDED4C600D01
:100EB300121025EC24FFFCED34FFFD80EFD0E0FDA4
:100EC300D0E0FCE493A3C0E0E493C0E02285228356
:100ED300852182E0A3FEE0A3F5207808E0A3F608CD
:100EE300DFFAE0A3FFE0A3C0E0E0A3C0E0E0A3C01B
:100EF300E0E0A3C0E0E0A3C0E010AF088582218555
:100F030083228008858221858322D2AFD083D08239
:100F130002116ED083D082E9C0E0E493A3C386F0CC
:100F2300C5F095F0F908E493A386F0C5F095F07049
:100F33000BE493A3C3994005E9048002A3E475F08D
:100F430002A42582F582E5F03583F583D0E0F9E448
:100F530093A3C0E0E493C0E022C0E0C3E493960807
:100F63007401939618400FE4936670080874019314
:100F7300661870007019A3A3C3E4939608740193D1
:100F83009618A3A3400DD0E0D0E0D0E0020EC0A39A
:100F9300A3A3A3A3A3D0E02274048004740280005B
:100FA300CCC0E0EDC0E0E521C39CCCAD2250011DD7
:100FB30010AF068C218D2280068C218D22D2AF1298
:100FC30010EAD0E0FDD0E0FC2274028000CCC0E047
:100FD300EDC0E0E521C39CCCAD2250011D10AF064E
:100FE3008C218D2280068C218D22D2AF1210C8D085
:100FF300E0FDD0E0FC2212149460251214766020E8
:101003001215027003021514080808E76670101819
:1010130019E766700A1819E76670041819E766225B
:10102300F422C0E0C0F088F0E4936670080874010D
:101033009366187000A8F0A3A3700BD0F0D0E0D093
:10104300E0D0E0020EC0A3A3D0F0D0E022D083D042
:1010530082CCC0E0E493A3600612110B1470FAE48F
:1010630093A3600612126A1470FAD0E0FCE493A30F
:10107300C0E0E493C0E022C0E074F2120C34A2AFEB
:10108300E433FED2AFE58BA2E05005790412178159
:10109300758B00C2E8EEA2E092AF7F01020C93C011
:1010A30008C3E096F50808A3E096420808A3E09673
:1010B300420808A3E0964208A2D265D033E508703F
:1010C30001D3D00822CAC0E0E493A3C582CCC58271
:1010D300C583CDC583F0A3C582CCC582C583CDC5E9
:1010E30083DAE5D0E0CA22CAC0E0E0A3C582CCC55A
:1010F30082C583CDC583F0A3C582CCC582C583CD0C
:10110300C583DAE6D0E0CA22C0E0E493A3D39C50BF
:1011130010E493A3C39C400AD0E0D0E0D0E00210D7
:101123006DA3A3A3D0E02270090808082260161853
:101133001818C6C333C608C633C608C633C608C69E
:1011430033C6D5E0EA22C008C3E096F50808A3E059
:1011530096420808A3E096420808A3E09645087063
:1011630001D3D00822C09FF59FE473D09F22D08380
:10117300D082C09FE493C0E0740193C0E0740293F3
:10118300F59F222521F58210AF08F521400C152289
:101193008008F52140021522D2AF8522832200C0A8
:1011A300D0252110AF08F521500C05228008F52128
:1011B30050020522D2AFD0D0227404800A74038077
:1011C30006740280027401C0E0F404121186D0E0B8
:1011D3001214B022C0E0C0D0E8C0E0A8A8D2AFC2C9
:1011E300C7E8A2E792AFD0E0F8D0D0D0E032BB019D
:1011F30002E722C082C08389828A83BB0003E08026
:1012030002E493D083D082226016080808C6C31371
:10121300C618C613C618C613C618C613C6D5E0EA41
:10122300222521F8E43522F9222521FAE43522FB8F
:10123300222521FCE43522FD22C3E0C696F608A34D
:10124300E0C696F608A3E0C696F608A3E0C696F6AF
:1012530022252110AF08F521400C15228008F52125
:1012630040021522D2AF22C0E0E493A36C7009D0F0
:10127300E0D0E0D0E002106DA3A3D0E022C3E79654
:101283000809E7960809E7960809E796A2D265D008
:101293003322E76670100809E766700A0809E766F3
:1012A30070040809E76622C3E09608A3E09608A342
:1012B300E09608A3E096A2D265D03322E0667010D0
:1012C30008A3E066700A08A3E066700408A3E0665A
:1012D30022191919E70947097009E727097005E772
:1012E30033F4220922181818E4C396F608E496F694
:1012F30008E496F608E496F622C3E096F008A3E025
:1013030096F008A3E096F008A3E096F022C3E697D0
:10131300F60809E697F60809E697F60809E697F648
:1013230022181818E60846087009E626087005E62C
:1013330033F4220822C3E493960874019396087445
:10134300029396087403939622E026F608A3E036E8
:10135300F608A3E036F608A3E036F622E627F608F9
:1013630009E637F60809E637F60809E637F6227084
:101373000422600D18C6C333C608C633C6D5E0F4CD
:101383001822E657F60809E657F60809E657F6085D
:1013930009E657F622E056F608A3E056F608A3E05E
:1013A30056F608A3E056F622E026F008A3E036F04E
:1013B30008A3E036F008A3E036F022E056F008A3D5
:1013C300E056F008A3E056F008A3E056F022E493B9
:1013D300F608740193F608740293F608740393F6FF
:1013E30022E647F60809E647F60809E647F608093C
:1013F300E647F622E4C397F709E497F709E497F77A
:1014030009E497F722600D08C6A2E713C618C613AE
:10141300C6D5E0F322C6F4C608C6F4C608C6F4C6A9
:1014230008C6F4C622C3E09608A3E09608A3E09694
:1014330008A3E09622C3E7960809E7960809E7960A
:101443000809E7962275D00075813F752101752241
:101453000500020D42600C08C6C313C618C613C6A6
:10146300D5E0F422E6F008A3E6F008A3E6F008A32B
:10147300E6F022E7094709C3134709336002E7335C
:10148300F422E0F608A3E0F608A3E0F608A3E0F6EA
:1014930022E6084608C3134608336002E633F42203
:1014A300800100E9F874FF28F90470F622CAC0E04D
:1014B300E6F0A308DAFAD0E0FA22E0F8A3E0F9A311
:1014C300E0FAA3E0FB22E8F0A3E9F0A3EAF0A3EB40
:1014D300F022EAF0A3EBF0A3ECF0A3EDF022E0FAA4
:1014E300A3E0FBA3E0FCA3E0FD22E5C754F844011D
:1014F300F5C77901222521F582E43522F58322E619
:101503002618461846184622C2AF75D69F02000019
:1015130022E727194719471947221211715BE10383
:101523001211718AE10312117190E203121171BA5F
:10153300E2031211710EE303121171E2E3031211BC
:101543007110E603121171BEE6031211712BE90348
:10155300121171B0E903121171B3EC03121171E7A7
:10156300EE0312117123EF031211717CF0031211B8
:10157300718FF003121171CCF00312117195F20304
:1015830012117175E105121171E9E1051211712052
:10159300E20512117154E205121171A5E20512114F
:1015A30071F6E40512117115E5051211715CE5057B
:1015B300121171E9E50512117133E605121171DAA1
:1015C300E605121171A7E70512117106E80512115C
:1015D3007169E805121171DEE80512117122E9053E
:1015E3001211717AE905121171AFE9051211713DFA
:1015F300EA05121171CEEA0512117114EB051211ED
:101603007140EB0512117181EB0512117117ED0594
:1016130012117103EE05121171E5EE051211710934
:10162300D0051211719DD00512117105D10512114A
:10163300712AD205121171B4D2051211713FD3056B
:101643001211717BD30512117114D405121171A9F2
:10165300D4051211717CD5051211715ED7051211D3
:101663007154D805121171F3D80512117148D905B7
:10167300121171B6D905121171C2DC05121171EC88
:10168300DE05121171EDDF051211712BE105121147
:101693007136E1051211711D9F06121171499F06E2
:1016A30012117136A006121171B5A006121171D074
:1016B300A006121171F5A0061211719DA106121157
:1016C300717DBE0612117182BE06121171B5BE067E
:1016D30012117137AB061211710EAC06121171D8CB
:1016E300AC0612117131BA0612117142BA06121107
:1016F30071E0BA06121171EBBA0612117105BB063D
:10170300121171F47F00121171E8FF031211715A63
:10171300BC061211716ABC061211717FBC0612114C
:1017230071E5BC061211712DB706121171B1B7061E
:1017330012117119B806121171C7A106121171E5C0
:10174300A1061211711AA2061211713FA2061211FB
:101753007162A2061211719DA206121171CAA2062C
:1017630012117111A306121171B0A3061211713275
:10177300B906121171B9B906121171C2B906121163
:1017830071E9B906121171D4BF061211713AA40698
:1017930012117184A4061211711AA506121171A0F7
:1017A300A506121171D2A506121171EAA50612112E
:1017B300715EA60612117174A60612117187A60630
:1017C30012117191A606121171BBF605121171E780
:1017D300F60512117151F90512117191F9051211E2
:1017E30071CDF905121171E1F905121171FAF905BB
:1017F300121171ECFA051211719FFB05121171B3ED
:10180300FB0512117161B10612117185B106121136
:10181300719EB106121171DCB1061211710CB20680
:1018230012117139B2061211719FB206121171A20F
:10183300B206121171ACB206121171B9B2061211CD
:1018430071769C06121171969C06121171D59C0635
:10185300121171F39C061211710E9D06121171740F
:101863009D06121171809D06121171DD9D061211E4
:1018730071EC9D06121171109E06121171D19E0614
:10188300121171DE9E06121171EF9E06121171C3C1
:10189300BE06121171DBBE0612117107BF061211CB
:1018A300719DFB04121171F1FC04121171FFFC0410
:1018B30012117112FD0412117127FD041211713CF2
:1018C300FD041211714FFD04121171CBFD041211AD
:1018D3007130FE04121171C6FE041211719FFF04D0
:1018E300121171AFFF04121171BEFF04121171C105
:1018F300BB06121171E5BB061211710DBC06121164
:101903007135BC06121171A4A606121171CBA6067D
:10191300121171E9A60612117158A7061211718FDF
:101923009606121171A89606121171B49606121139
:1019330071C89606121171E69606121171F0960699
:10194300121171FA96061211710D97061211719701
:1019530097061211710C9806121171409806121114
:10196300718E9806121171DB9806121171F69806A2
:101973001211710099061211712699061211718BB9
:10198300990612117138FF031211715AFF031211D4
:10199300710CC00612117117750012117143750095
:1019A3001211716075001211717375001211718E2D
:1019B3007500121171E8750012117116760012117B
:1019C300712A7A00121171887B00121171BA7B009F
:1019D3001211711D7C00121171A27D00121171CAC6
:1019E3007D00121171DF7D00121171EF7D00121164
:1019F300712F7E00121171717E00121171817E00B0
:101A0300121171C3B206121171DDB2061211710502
:101A1300B3061211711EB30612117142B3061211ED
:101A23007160B30612117177B306121171A5B30673
:101A3300121171C0B30612117150BF0612117175E4
:101A43008C06121171858C061211718A8D06121182
:101A530071BC8D06121171EC8D061211710F8E0679
:101A6300121171268E06121171608E06121171C544
:101A73008E06121171078F061211714E8F06121105
:101A8300717B8F06121171A68F0612117197FE01D9
:101A9300121171B7FE01121171CBFF01121171CE38
:101AA300FF0112117127B6061211715DB6061211EC
:101AB3007175B606121171B7B606121171C7B60663
:101AC3001211710BB70612117115B706121171C9F4
:101AD300EF051211710CF00512117171F00512115D
:101AE3007190F00512117132F1051211713BF1057C
:101AF3001211718CF105121171B5F105121171C238
:101B0300F10512117134F205121171C2F2051211AD
:101B13007107F30512117140F305121171A5F30555
:101B2300121171CEF30512117145F405121171945E
:101B3300F405121171D1F40512117106F505121194
:101B43007118F5051211712AF50512117149F50580
:101B530012117152F5051211710EF6051211715120
:101B6300F6051211718FF605121171C6BD06121119
:101B730071B17E00121171F9A8061211712FA90615
:101B830012117177A906121171D0AA06121171D11F
:101B93009605121171F797051211713398051211F9
:101BA30071F199051211711F9A05121171899C0522
:101BB300121171C99C051211716B9E0512117101ED
:101BC3009F051211715B9F05121171EB9F05121195
:101BD300712FA00512117171A005121171D6A10503
:101BE30012117156A30512117197A505121171C532
:101BF300A505121171F1A505121171FAA5051211AE
:101C03007157A605121171F0A60512117107AA05E5
:101C13001211718DAA05121171EFBC061211710513
:101C2300BD061211710FBD06121171C7FB0512110A
:101C330071DDFB0512117181FC05121171C0FC05E8
:101C4300121171DDFC051211710EFD051211715B8C
:101C5300FD051211718FFD05121171CAFD051211D7
:101C630071BFFF0512117132B80612117191B806D6
:101C7300121171CFB80612117110B9061211711435
:101C8300BB061211717DBB061211719DBB061211A9
:101C93007111B506121171CFB506121171643800B6
:101CA300121171703800121171D23800121171DCE7
:101CB3003800121171693900121171A5390012111E
:101CC30071953A00121171F43A00121171993B00A7
:101CD300121171E33B001211715E3C001211712B62
:101CE3003E001211711C40001211711341001211B8
:101CF300714E4200121171954400121171E14500B9
:101D03001211716C4600121171CB4700121171A6AA
:101D13004800121171D949001211716E4E0012114F
:101D230071614F00121171EA4F001211711A5000C4
:101D33001211713F5000121171D85000121171F637
:101D430050001211711451001211718251001211BD
:101D530071A15100121171CE5100121171DC5200A8
:101D6300121171BB5300121171615500121171826E
:101D730055001211712856001211716F560012117D
:101D830071CD5600121171645700121171C95700B9
:101D93001211713258001211717058001211711A18
:101DA3005900121171855900121171C15900121194
:101DB30071565A00121171985B00121171305D0057
:101DC300121171C75D001211711760001211716455
:101DD3006000121171796000121171B1600012116B
:101DE30071FE60001211713D6100121171AA610050
:101DF3001211716262001211719F67001211713822
:101E03006A001211713F6B001211715A6F001211A7
:101E130071187000121171267100121171D17200C4
:101E2300121171ECAA051211710CAB05121171B3E9
:101E3300AD0512117175B005121171DBB2051211E6
:101E4300710FB30512117138B3051211715EB30529
:101E5300121171A3B3051211713FB5051211719FD0
:101E6300B505121171BDB605121171CFB605121168
:101E73007183B70512117194B70512117173B80507
:101E83001211717FB90512117108BA051211718A05
:101E9300BA0512117167BB051211719DBC051211B0
:101EA3007194BF06121171499306121171089406B9
:101EB3001211716E94061211711D9506121171742F
:101EC300D604121171A3D60412117127D70412116B
:101ED300718AD80412117174D90412117130DB04A0
:101EE30012117155DB04121171A7DB041211713940
:101EF300DC0412117185DC0412117198DC041211D7
:101F030071F5DC04121171C2DD0412117134DE04A7
:101F13001211716BDE04121171B4DE041211715CC3
:101F2300E0041211713BE10412117189E2041211F0
:101F3300716CE304121171F8E30412117131E404BA
:101F430012117150E4041211719BE404121171BB5C
:101F5300E40412117178E5041211719BE604121165
:101F630071F6E6041211713CE70412117144E8049E
:101F7300121171DFEA0412117105EB041211718061
:101F8300EB04121171A5EB0412117119EC04121177
:101F930071F7EC0412117135ED04121171BFED04E8
:101FA300121171D8EE04121171DBEE04121171E5F6
:101FB300EE04121171EFEE041211710BEF04121102
:101FC300717DEF04121171B6EF04121171E2EF0487
:101FD30012117109F0041211712DF00412117168BC
:101FE300F004121171DBF0041211710FF1041211DC
:101FF3007119F10412117155F1041211718AF1046E
:10200300121171A9F1041211710ABF061211712282
:10201300BF06121171F17F00121171A5BA041211DA
:1020230071C8BA0412117126BC041211716FBC0479
:10203300121171DBBC0412117139BD041211713C10
:10204300BD041211718DBD0412117102BE0412116F
:102053007192BE0412117195BE0412117116BF0460
:1020630012117157BF041211717CC304121171262E
:10207300C5041211717AC50412117109C904121130
:102083007141CA0412117115CB041211717FCB0473
:10209300121171A9CB0412117162CD041211714591
:1020A300CF04121171F4CF0412117191D0041211E3
:1020B300717CD104121171E4D3041211713ED50461
:1020C300121171ACD50412117193BD051211713D3A
:1020D300BE05121171A8BE05121171C3BE051211FE
:1020E3007144BF051211719EBF05121171E5BF0541
:1020F30012117144C00512117156C1051211717F7D
:10210300C405121171AFC50512117137C60512113D
:102113007140C805121171F2C805121171BEC905CB
:1021230012117179CB0512117117CD05121171A41A
:10213300CD05121171CACE0512117104D902121103
:102143007167D902121171AFD902121171F3D90259
:102153001211714EDA02121171ABDA02121171E629
:10216300DA0212117168DB02121171C2DB02121161
:102173007140DD02121171B8DD02121171D5DE0258
:10218300121171FDDE0212117150E0021211716120
:10219300E00212117179E00212117182E10212114F
:1021A300715FE2021211715CE30212117180E302AA
:1021B30012117197E302121171B8E302121171DA6D
:1021C300E302121171F9E302121171D1E402121147
:1021D300712BE502121171C2E7021211711BE802A1
:1021E3001211713AE8021211712AE9021211716097
:1021F300E90212117193EA0212117112EB02121128
:10220300714EEB0212117188EB02121171F7EB029E
:10221300121171ACEC0212117184EE021211719160
:10222300EF0212117109F1021211718AD503121111
:102233007175F5021211714FF70212117110F80244
:1022430012117188F8021211719FF802121171EBC9
:10225300E0031211718AFA02121171F9FA021211D2
:1022630071FE8F06121171AE91061211716D9206F5
:10227300121171D59206121171B88406121171D61A
:1022830084061211711A8506121171408506121106
:10229300716785061211717F850612117197850684
:1022A3001211713986061211717B86061211719E05
:1022B3008706121171A787061211710BDF03121122
:1022C30071B98706121171C38706121171E487066B
:1022D3001211710080061211713E84061211714CA5
:1022E3008406121171518406121171EEAF06121198
:1022F30071CCFF05121171969906121171F3B30691
:1023030012117165BD0612117155AD06121171D40A
:10231300FF021211719D88061211711EBE06121161
:10232300712EBE061211719CFB0212117100800204
:102333001211713280021211719E800212117139D1
:102343008102121171D881021211711D82021211C0
:10235300713F82021211715882021211717E820240
:10236300121171A08202121171DE82021211712206
:102373008302121171448302121171A68302121196
:10238300716D8402121171248502121171968502F6
:10239300121171688602121171B28602121171054F
:1023A30087021211716B8702121171A58702121134
:1023B30071F787021211711388021211713E88029C
:1023C300121171458A02121171998B02121171BB9C
:1023D3008B02121171EF8B02121171108C02121108
:1023E300711F8C021211712A8C02121171DA8C0284
:1023F300121171438D02121171F08D0212117128A5
:102403008E02121171EE8E02121171FB8F021211E4
:1024130071459002121171D4900212117138910218
:10242300121171739102121171DF93021211713340
:1024330095021211716C98021211713999021211DD
:1024430071C79902121171F09902121171629A0205
:10245300121171F69A02121171549B0212117146F4
:102463009C02121171689C02121171C49D02121117
:1024730071DD9D02121171F09D021211715F9E02B6
:102483001211716B9F02121171789F0212117181E7
:102493009F0212117159A1021211717FA20212112E
:1024A300718FA20212117191A30212117108A40279
:1024B30012117137A4021211714CA5021211711875
:1024C300A702121171F0AA02121171FAAA021211D3
:1024D300710EAB0212117118AB0212117122AB0211
:1024E3001211712CAB0212117145AB021211714F13
:1024F300AB02121171C3AB02121171CEAB021211F6
:1025030071F3AB02121171FEAB021211714CAC02EA
:1025130012117156AC0212117161AC021211718564
:10252300AC02121171A9AC0212117105AD021211A4
:10253300714BAD0212117168AD02121171E5AD025A
:102543001211711CAE021211715BAE02121171A84D
:10255300AE021211712AAF02121171C3AF0212112E
:102563007193B102121171F1B1021211710DB30223
:1025730012117133B30212117172B40212117198F4
:10258300B702121171D9B902121171B5BB0212113E
:10259300714BBC0212117172BE021211711EBF0285
:1025A30012117153BF02121171B8BF02121171C21D
:1025B300BF02121171ECC10212117113C302121185
:1025C3007153C302121171F9C3021211718AC50248
:1025D30012117113C70212117133C7021211718CD8
:1025E300C7021211718EC802121171D8C8021211DA
:1025F3007128C90212117112CA0212117187CA021B
:10260300121171A1CB021211711CCC021211712192
:10261300CD02121171CCCF02121171EBCF02121144
:10262300714CD1021211710ED30212117162D302D5
:102633001211711AD402121171C9D4021211711F2D
:10264300D502121171D5D5021211716AD602121177
:1026530071D6D60212117110D70212117141D7022D
:102663001211719DD802121171008003121171327F
:1026730080031211716980031211715282031211C6
:10268300713583031211718D8303121171C8840391
:102693001211711485031211713C88031211719E7A
:1026A3008B03121171EB8C03121171818D031211C3
:1026B300718D8D03121171BF8D03121171418F033F
:1026C300121171DC9003121171849103121171C7FD
:1026D30091031211712D92031211714A9203121177
:1026E300717A9203121171AF92031211717F9303E6
:1026F300121171289403121171AC9603121171CC4B
:102703009703121171B598031211713799031211BE
:1027130071569D03121171939D03121171EB9D0369
:102723001211711E9E031211719F9E03121171ECFF
:102733009E03121171779F03121171C99F03121126
:1027430071A0A00312117159A103121171F4A10315
:102753001211710DA5031211712DA603121171DA55
:10276300A903121171F8AA03121171FBAA03121122
:10277300712AAB0312117130AD0312117109AE034B
:102783001211713EAE0312117146AF03121171FCA7
:10279300AF031211719DB103121171C2B103121172
:1027A3007101B20312117173B20312117157B303A2
:1027B30012117124B4031211715AB603121171CBA1
:1027C300B6031211710BB7031211716CB703121117
:1027D300712FBB031211711EBC0312117105BD03CE
:1027E3001211717DBD031211713FBE031211713DB0
:1027F300C00312117155C00312117169C003121184
:1028030071A1C003121171CFC00312117156C2031B
:1028130012117161C303121171B3C3031211711445
:10282300C403121171C6C403121171EDC403121152
:1028330071D1C50312117182C60312117171C803DC
:10284300121171A6C8031211710EC9031211713D41
:10285300CA03121171EFCA0312117120CB031211B3
:102863007138CB03121171C7CB031211717BCE03E5
:1028730012117153D0031211716FD0031211718BA6
:10288300D00312117159D1031211713DD5031211E5
:10289300711B840112117153840112117131890169
:1028A300121171778901121171C48A011211712FEA
:1028B3008B01121171B88C01121171C88F011211A1
:1028C30071E39001121171F59A01121171889B0144
:1028D300121171DA9E01121171D69F011211713119
:1028E300A0011211717BA10112117169A2011211D0
:1028F3007105A50112117179A601121171FCA601CE
:10290300121171FFA60112117174A7011211717EC8
:10291300A7011211718BA701121171B6A701121130
:102923007166A8011211715FA9011211710AAA013E
:1029330012117128AA0112117141AA011211716AAF
:10294300AA011211718CAA01121171E1AC011211C9
:1029530071A6AD01121171EBAD011211716AAE01D5
:1029630012117116AF0112117148AF011211719C4E
:10297300AF01121171D7AF011211711EB001121103
:10298300716EB00112117173B001121171C7B001F0
:10299300121171F3B001121171DCB1011211712D19
:1029A300B2011211718DB201121171E7B20112114C
:1029B3007182B301121171C1B601121171D3B70142
:1029C3001211714DB9011211715DBC01121171FB2C
:1029D300BC01121171F1BF01121171B0C0011211CA
:1029E30071F4C0011211719FC201121171B3C201BE
:1029F300121171BDC201121171C7C201121171D33B
:102A0300C201121171F8C201121171D1C401121164
:102A13007126C50112117130C5011211713AC50138
:102A2300121171AFC501121171FEC5011211710F9F
:102A3300C7011211715CC70112117169C80112112A
:102A430071ADC80112117153C90112117146CA0146
:102A53001211710CCB011211712FCC011211714D96
:102A6300CD0112117135CE011211714DCE0112112A
:102A730071A4CE01121171AECE01121171B9CE0142
:102A8300121171D7CE011211711FCF011211718171
:102A9300CF01121171A8CF01121171BACF01121116
:102AA3007155D0011211718AD00112117171D101C6
:102AB300121171B6D1011211719CD201121171C39D
:102AC300D20112117146D301121171B7D301121140
:102AD3007140D5011211716CD6011211712FD701FA
:102AE300121171F7D70112117181D801121171A955
:102AF300D9011211714BDA01121171C6DA011211E7
:102B03007182DB01121171CCDB0112117126DC0120
:102B1300121171FEDC0112117121DD01121171D448
:102B2300DD01121171F6DD011211715FDE01121167
:102B33007175E0011211716DE10112117131E20140
:102B430012117163E401121171ADE401121171FDEF
:102B5300E40112117161E501121171C3E501121152
:102B630071F1E50112117115E6011211714AE601C5
:102B73001211717BE601121171AEE601121171FEA1
:102B8300E60112117151E70112117176E801121178
:102B93007116EA0112117171EA011211719AEA01B7
:102BA30012117127EB0112117195EB01121171A32F
:102BB300EB01121171C7EB011211711CEC0112111F
:102BC3007137EC01121171E9EC0112117121ED0160
:102BD30012117164ED01121171C7ED01121171C966
:102BE300EF01121171F3EF01121171EAF0011211E9
:102BF30071F4F101121171A4F20112117182F30146
:102C0300121171BAF301121171DBF3011211711D6B
:102C1300F4011211717FF40112117189F40112117F
:102C23007199F401121171D4F401121171B4F80104
:102C3300121171A1FA0112117187FC011211711E97
:102C4300FD01121171C0FD01121171968004121160
:102C530071418104121171EF8104121171F5820423
:102C63001211711583041211713E8404121171F94A
:102C730085041211716C86041211711087041211EC
:102C8300711C8804121171878804121171C388049E
:102C93001211710689041211714189041211718391
:102CA3008904121171188A04121171948A04121181
:102CB300715E8B041211713B8C04121171D38C045D
:102CC300121171ED8C041211711D8D041211714ECC
:102CD3008D04121171148E04121171248E041211B9
:102CE30071738E04121171808E04121171898E0416
:102CF300121171078F04121171638F04121171AED7
:102D03008F04121171C98F04121171F48F041211FF
:102D1300711190041211711D9004121171B4910478
:102D2300121171CD91041211715292041211716535
:102D330092041211718492041211712893041211D6
:102D430071A994041211715C9604121171F2960424
:102D5300121171F5960412117165970412117183A2
:102D630097041211711A98041211716298041211C6
:102D7300716598041211712B9904121171989904B9
:102D8300121171BE9904121171499A0412117167DB
:102D93009A04121171AD9A04121171619B041211FC
:102DA30071AB9B04121171DA9B04121171379C04ED
:102DB3001211716C9C04121171989C04121171A66A
:102DC3009C04121171F39C04121171639D0412117E
:102DD30071AC9D04121171F89D04121171249E04AB
:102DE3001211712F9E041211714D9E04121171382C
:102DF3009F04121171429F041211717D9F041211DD
:102E0300718D9F04121171E19F04121171F59F04DA
:102E130012117124A10412117139A104121171C785
:102E2300A1041211710CA20412117198A2041211BF
:102E330071A3A204121171E5A30412117100A40479
:102E43001211714CA404121171BBA404121171F478
:102E5300A4041211710EA5041211716EA5041211AE
:102E6300710DA60412117158A60412117128A90438
:102E7300121171DAA90412117147AA041211718790
:102E8300AC041211719FAC04121171A2AC041211A3
:102E930071AEAC04121171C2AC04121171CAAC044C
:102EA300121171FDAC0412117100AE041211718D77
:102EB300AE04121171FDAE041211717FAF04121131
:102EC3007140B0041211715FB00412117100B104AA
:102ED3001211715DB10412117160B104121171D438
:102EE300B10412117123B30412117129B404121124
:102EF30071B4B404121171CFB50412117197B604F1
:102F0300121171C8B604121171EBB604121171F4E7
:102F1300B60412117123B704121171B3B70412115D
:102F23007169B804121171DEB80412117185B90404
:102F3300121171FAB90412117131BA041211716FBD
:102F4300BA0412117151E0031211715FD50312110A
:102F53007115FB04121171E1FA041211718AFA045A
:102F630012117113F90412117165F8041211715BD6
:102F7300F80412117151F804121171EAF7041211D5
:102F830071CFF7041211712CF7041211712CF6048E
:102F93001211710DE00312117196F9021211714AA7
:102FA300F5041211713AF30412117177DE03121151
:102FB3007117DE0312117148F204121171E6F10464
:102FC300121171BD9605121171B396051211714854
:102FD30096051211717C94051211713A9405121120
:102FE300714693051211711A9305121171D192054D
:102FF300121171129205121171018F05121171B91B
:103003008C05121171698C05121171038C05121153
:1030130071C28B05121171F48A051211718E8A0522
:103023001211712D8A05121171CD89051211716B5F
:103033008805121171FF870512117153870512114B
:10304300714E8705121171E7DD0312117142870575
:103053001211713BDD03121171D4DA031211718B5A
:10306300D703121171DFD6031211714DD60312115A
:103073007107D6031211710D87051211719F830514
:103083001211719C83051211714F8305121171D2B4
:10309300D5031211713D830512117133830512118A
:1030A30071028305121171FD8005121171BCDF03DA
:1030B300121171708005121171B087061211712CF3
:1030C3008005121171008005121171D2FE031211D5
:1030D30071A5FE0312117172FE031211714AFE03F0
:1030E300121171EBFD03121171CBFD0312117196D5
:1030F300FD0312117142FA031211712AF80312111E
:103103007114F60312117194F50312117140F50352
:103113001211714CF4031211719FD503121171F442
:10312300F403121171FFF20200000080FB00002281
:10313300E4738F000100851A87000100831A3500AC
:103143000400491A250002004D1A260002004F1AF6
:1031530027000200511A280001005B1A2900010010
:103163005C1A840004000B178600010087192A00EB
:1031730001005D1A2B0001005E1A2C000100631A86
:103183002D00080019172E000100641A2F000100FA
:10319300651A30000100661A31000100671A320017
:1031A3000100211733000100221734000100681ABF
:1031B30036000100231738000100691A39000100A5
:1031C300621A83000200811A630001002E17640053
:1031D30001005F1A65000100601A6D0001002F17DE
:1031E30071000800111766000100801A43000100F6
:1031F300711A44000200721A45000100741A460055
:103203000200751A47000800261748000100771AC4
:103213004B000100781A04000100841AA100010088
:10322300881A37000100871A88000100861A3C00BB
:10323300010024173D0001006A1A49000200791AAF
:103243006700010030174D0002007B1A4E00010099
:103253007D1A4F0002007E1A3E000100701A5100D1
:1032630001006C1A520001006D1A530001006F1A1D
:1032730054000100251700000000000000000000BA
:1032830020011584000001002001178400000200C2
:1032930020011984000003002001168400000400AB
:1032A30042019982000005004201C381000006002B
:1032B300420160820000070030011A8400000040D0
:1032C3004201DB820000FEFF2101138403000000A2
:1032D3002123F2150300FEFF2101138402040000E1
:1032E3002905131A020410022923031A03040000F8
:1032F3002905191A0304100029051B1A03041400D5
:1033030028011D1A030410022B23051A05040000CB
:103313002105171A050410022923091A0D040000B8
:1033230039050D1A0D0402021023FA190D040302C4
:103333001023F9190D0404022123FB190D040502BE
:103343002123FD190D0411F110230B1A2B04000086
:103353003905201A2B04100228230C1A2B0404020B
:103363002123FF192B0405022123011A00013636FC
:10337300010100010201000103010001040106062D
:1033830005020000070100340801000F09040101D0
:103393000D0100FF0E08000017020000190100FFD5
:1033A3001A0100011B0100FE1C0100081D020000A0
:1033B3001F01000120010001210200002301000F71
:1033C300240200002601000127010008280200FF53
:1033D3002A0100072B0102402C0100002D010001EE
:1033E3002E0100012F0100FF30010B1D31080000E9
:1033F3003A0100083B01000F3C0100013D0100FFC1
:103403003E04000042040000460400004A04000099
:103413004E04000052040000560400005A04000049
:1034230001037103010301030103010301032203E8
:10343300020301031003000300030003000300035E
:1034430000030003420300032403060300030003F5
:1034530004031203250323032503230304030403A3
:1034630000030003000344030003000323030003DA
:1034730065032100350381030003050300030003F3
:1034830000030003250323030300710030016000E0
:10349300110070003102200350048000100061000D
:1034A3000000140063007300720062004300000018
:1034B30013000600000000000400120000000000DA
:1034C3000000000004000400370037003C02440001
:1034D30000000000000000006500000035008100CE
:1034E30000000500000083000000030471040204CF
:1034F30060041104700402040204010402041004B1
:103503006104000414046304730472046204430436
:103513000004130406040004000404041204000459
:1035230000040004000451046400000400040004C7
:10353300440400040004000400046504000435048A
:10354300810464000504000483040004030271027F
:1035530030016002110270020102020202028002C3
:10356300100261023A0041006302730272026202B6
:103573004302000213023800000200020402120296
:1035830000020002000200020402040237003700B6
:103593003C024402000239000002000265020002FC
:1035A3003502810200020502820283020002010148
:1035B3007101010101011101010131010101010148
:1035C3008001100161013B0014006301730172016A
:1035D300620143010001130106013D0135000401AD
:1035E3001201000100010001000104010401330183
:1035F30033013C0144013201360000010001650141
:1036030000013500810100010501820183010001F0
:1036130036000100060000000F000000000000005B
:1036230000000000000003FFFF00000403FFFF0091
:1036330000FFFF0FF4010005C40403200001000094
:103643000B000000000000000003010F0000000059
:103653000000000000000000000000000000000067
:103663000000000000000000000000000000AB1D8F
:10367300F31DB11DBB1CB71DF91DB71D051EBD1DD7
:10368300BB1CB71DF91DC31DBB1C00000000C91DD9
:10369300BB1C0000000000000000CF1DBB1CD51D9B
:1036A3000B1EDB1DBB1C000000000000000000001F
:1036B3000000E11D1D1EE71DBB1CE11D1D1EE71DB6
:1036C300BB1CD51D0B1EED1DBB1C130093201F003F
:1036D30099201F809F200000F9200100F92002009B
:1036E3003F20028039200300452004004B20048042
:1036F3005120050057200600632031007520330058
:103703007B203400812036008720FFFF00000A0061
:103713000000020000000400000008000000100088
:1037230000002000000040000000800000000001B5
:103733000000000200000004000000080000001068
:103743000000002000000040000001CD2806FD28F5
:1037530008F7280B1B29101B2602D32805EB280783
:10376300D9280CB5280DC128641124FF000007ECEB
:10377300FDFDFDECDCDCCCBCACAC9C9C8C7C7C6CA3
:103783006C5C5C5C4C4C3C3C2C2C1C1C00160F00F1
:10379300000B150B020002220F3300000E0F000076
:1037A30000000000000000000000000000005A6953
:1037B30067426565416C6C69616E63653039D0D170
:1037C300D2D3D4D5D6D7D8D9DADBDCDDDEDF150A00
:1037D300F4D4C0A5958272636155504900034D4CE2
:1037E3004651181A250502003C40423A3F3F392F03
:1037F3004730000119161816161823030030301726
:10380300181921301B1D1F30303016181920231AA8
:103813001C1E300C0E020B040B0A0708000F0204D7
:103823000201010101090200BE040AE8030000F6D7
:10383300FB0100030000000000E80371371000D112
:10384300377F00101E0A051E04040C1400041E0218
:10385300000515033C18080A10150300FF030C0AA2
:10386300FFC082C083E99015B2F0023B9274F41258
:103873000BC88A088B09EB5480604D800EEEFAEF7B
:10388300FB121D15EEFAEFFB121AF39015B2E0F9D5
:10389300121B058A0A8B0BAE0AAF0BEE4F60208E0C
:1038A300828F83E0641A60D5EEFAEFFB121CB5E950
:1038B300F974FF6960CEEEFAEFFB121AF980CCAA15
:1038C30008E5096480FB80047A007B00023B8D7469
:1038D300F7120BC87AFF024FE274F6120BC8E9FE27
:1038E300EAFF7A047B00121B83EA4B6035EF8A827E
:1038F3008B83A3A3A3F0EE8A828B83A3A3123962E3
:10390300F09015C012575570099015C0EAF0A3EB5B
:103913008047E0F988828983A3A3A3E06F7007122D
:103923001B8979008036E8FCE9FD88828983125778
:103933005570E174FF6F700D8C828D83EAF0A3EBF9
:1039430012396280149015C01266BB9015C0126FB5
:10395300428A828B83E8F0A3E9F0790102519C1239
:103963004FC4E4F0A322C082C083EA1266863BF50B
:1039730083E0FA9015C080048882898312575560CA
:103983001C88828983A3A3A3E0FBEA6B600574FF11
:103993006B70E588828983A3A3E0F9800279FF0233
:1039A3003B9274F2120BC88A088B098A828B8312AA
:1039B3006B29121CB5E9F50A74FF650A7003023A14
:1039C300907A197B00121AED8A0C8B0DAE0CAF0D99
:1039D300EE4F7003023A908E828F8374341270120A
:1039E300EE2402FCE43FFD74061210EA850882858A
:1039F30009831247B5A3A3A3A31258F8A3A3A3A3B0
:103A0300EAF0A3EB123BD3A3EE240AFCE43FFD74DC
:103A13000C1210EA850882850983E0F8A3E0C81236
:103A2300668638F583E0C0E0EE2416F582E43FF5C0
:103A330083D0E0F0E508240CF8E43509F98882899D
:103A430083126B29EE2417F582E43FF583EAF0A392
:103A5300EB123E14A3A3A3E0FA74066A7009EEFA0C
:103A6300EFFB12305F800C74086A7010EEFAEFFB04
:103A7300123059EEFAEFFB121AF380118882898310
:103A8300E4F0A3F0EEFAEFFBA90A121AF9790102A6
:103A9300586B74F4120BC88A088B09ECFEEDFF7A9D
:103AA300087B00121B838A0A8B0BA80AA90BE8491F
:103AB300700479108038123B67123B7E740C121429
:103AC300F8126B2988828983A3A3A3A3126F409062
:103AD30015B61250149015B66011123B798003EAA3
:103AE300FCEB12500F70F88C828D83123B5B023B10
:103AF3008D74F4120BC889088A09ECFEEDFF7A0A6B
:103B03007B00121B838A0A8B0BA80AA90BE8497056
:103B1300047910803A123B6788828983A3A3A3E4C4
:103B2300F0A3123B55E509123B55A3EEF0A3EFF0CA
:103B33009015BA1250149015BA6011123B79800394
:103B4300EAFCEB12500F70F88C828D83123B5B0200
:103B53003B8D123BD7A3A322123B61790022E8F0ED
:103B6300A3E9F022123B6B2288828983E4F0A3123B
:103B730047C6E508F022E0FCA3E022A3E509123BD7
:103B8300DCEEF0A3EFF0221211A17F04020ED0D0DD
:103B930083D08202116E74F2120BC8EAFEEBFF8C23
:103BA300088D09121D2D8A0C8B0DA80CA90DE8494F
:103BB300601988828983A3A3A3EEF0A3EF123BD3FA
:103BC300E508F0A3E509F079008002790102586B5A
:103BD300123BD722123BDCA32212423DA3A3A32212
:103BE30074F4120BC874F7121254E9FEECFF85212A
:103BF300828522837401F0EF7006EDC39406405072
:103C030074036A4B604A7401121224880A890B7880
:103C13000A1211C47C127D007A007B00EEF9121D9A
:103C23003374021211A1E9601CE4F50AF50B780A5A
:103C33001211C47403121234740212122C121D7B5B
:103C430074021211A1852182852283E0640170042C
:103C53007901800279007409023B8A74E8120BC867
:103C630074FA12125489088A0A8B0B8C0E8D0F1268
:103C730030E98A0C8B0DAE0CAF0DEE4F7005790257
:103C8300023E00AA0EAB0FA908121D4BE9F509A2CB
:103C9300E6401C9015BE1257556014E82419F582AE
:103CA300E439F583E064017006E509D2E6F5097CA1
:103CB300067D007900AA21AB22121ADB741F1214AD
:103CC300F8123E086009E054FCF0E044018003E090
:103CD30054FC123E14125755602C741E1214F8E053
:103CE300F50C88828983A3120F9FAD0C7402121402
:103CF300F8E05403FCAA0EAB0FA908121CD37402FC
:103D03001211A1E970057901023E0074221214F820
:103D13001257556012852182852283E04404F07492
:103D2300021214F812673F74201214F8123E08604E
:103D330005E044088003E054F7F074211214F812EC
:103D43003E086005E044108003E054EFF074241251
:103D530014F8E0C0E074041214F8D0E0F074051213
:103D630014F8E50CF07803852182852283E054045E
:103D73006002780574251214F812582AE8250CF508
:103D830016E4350DF517AA16FB121B838A148B153F
:103D9300EA45156064AC14AD15AA21AB22121D21AE
:103DA30074271214F8126B1B1211C0AC0CAD0D1258
:103DB3001ACF74031211A19019B4E0F50C780C1208
:103DC30011C8750C56750D17780C1211C47814129E
:103DD30011C478161211C4780E1211C4A909EEFC8D
:103DE300EFFDAA0AAB0B1230F574091211A1E9FE1B
:103DF300AA14AB15121B8980027E10EEF974061209
:103E030011A102489B123E0C22E085218285228368
:103E130022126138A3A3A322EEF9026B3AE50C2820
:103E2300F582E50D1245912274EA120BC874FE1255
:103E3300125489098A0C8B0DECFEEDFF7510007589
:103E4300110075080074181214F8126B2D801512E6
:103E5300400D121D878B0FE5102AF510E511350F64
:103E6300F51105081240005046E50875F006A4F860
:103E7300A9F0E50A28F582E50B123E27E510240395
:103E8300F510E43511F511A3A3E070D60510E51084
:103E93007002051188828983A3A3A3A312501488F7
:103EA30082898360AAA3A3A3E0F9121D7580A6AA41
:103EB30010AB11121B838A0E8B0F8A128B13EA45E8
:103EC300137003023FE37508008036A821A92288F6
:103ED30014891578141211C4780E1211C48A828BB6
:103EE3008312400D121D8D74041211A18521828548
:103EF30022831266BBE50E28F50EE50F39F50F0593
:103F0300081240005078E50875F006A4F8A9F0E51A
:103F13000A28F582E50B126665123FF38A828B83CA
:103F2300A3123FEAF0124FCA123FEAA3F0E50E24B0
:103F330003F50E5002050F88828983E070C1EA24DD
:103F43000308E43BF9881489158882F583123FF34B
:103F5300A385820E85830F8A828B83A3A312575373
:103F63007003023ECEAC0EAD0FE8FAE9FB85148276
:103F7300851583E0F9121D638A0E8B0F80817812F9
:103F83001211C478101211C474201214F81248A02C
:103F93001211C8E4F50AF50B780A1211C47422123F
:103FA30014F81248A01211C874221214F81248A06F
:103FB3001211C875080078081211C875080178082D
:103FC3001211C8EEFCEFFDAA0CAB0DA909121CD906
:103FD300740B1211A1E9FEAA12AB13121B89800202
:103FE3007E10EEF9024244123FEE22123FF8A32262
:103FF300123FF8F022E0850E82850F8322850A8224
:10400300850B83E0F8E508C39822126F20EEFAEFE0
:10401300FBA90922EEF902424974EC120BC8890E7E
:10402300EAFEEBFF8C088D0974141214F812410A8E
:1040330075F003A4F512E5F0F513AA12FB121B8326
:104043008A0A8B0B8A108B11EA4511700302410512
:104053007A008030EA75F003A4F8A9F0E50C28F89B
:10406300E50D3912421DF0E82402F8500109888257
:10407300898312422312422BF0E50A2403F50A50E6
:1040830002050B0A850C82850D83E0F8EAC398408C
:10409300C3740168700AA3E07006751201751300FA
:1040A30078101211C478121211C4741C1214F8126D
:1040B300671E1211C8E4F50AF50B780A1211C474CD
:1040C3001E1214F812671E1211C8741E1214F8126D
:1040D300671E1211C8750A00780A1211C8750A04FE
:1040E300780A1211C8AC08AD09EEFAEFFBA90E125B
:1040F3001CD9740B1211A1E9FEAA10AB11121B8972
:1041030080027E10023E1B1266C38882F583E02282
:1041130074EA120BC8890EEAFEEBFF8C088D097452
:10412300161214F812410AF50A750B007402780A84
:10413300121372850A12850B13AA12AB13121B8377
:104143008A0A8B0B8A108B11EA45117003024218FD
:104153007A008043EAF5147515007402781412137B
:1041630072E50C2514F8E50D351512421D1247C1F1
:10417300850A82850B83A3F0E82403F8500109889C
:10418300828983124223A312422BA3F0E50A24045B
:10419300F50A5002050B0A850C82850D83E0F8EAC7
:1041A300C39840B0740168700AA3E07006751201E9
:1041B30075130078101211C478121211C4741E12F0
:1041C30014F812671E1211C8E4F50AF50B780A12E7
:1041D30011C474201214F812671E1211C87420122D
:1041E30014F812671E1211C8750A00780A1211C852
:1041F300750A07780A1211C8AC08AD09EEFAEFFB8D
:10420300A90E121CD9740B1211A1E9FEAA10AB114D
:10421300121B8980027E10024017F988828983A3CA
:10422300E0850A82850B8322124237850A82850B39
:1042330083A3A322A312423DE022F088828983A3B1
:104243002274021211A17F0E020ED074E6120BC863
:10425300890B8A128B138C0E8D0F7E007F00750ADB
:1042630000741A1214F812582A8009EE2402FEE48C
:104273003FFF050A850C82850D83E0F8E50AC398A4
:104283005046E50A75F00DA4F8A9F0123E20EE247D
:1042930004FEE43FFFE070DAA3E070CFEE2405FEF6
:1042A300E43FFFE82404F508E439F509850882F5BD
:1042B30083E0F9121D69E960B9850882850983E005
:1042C300F9121D6FEE2980A6EEFAEFFB121B838A0B
:1042D300088B09EA450970030244658A168B177532
:1042E3000A00801DE5142409FCE43515FD8C828D3C
:1042F300831244788C828D83125541881689170561
:104303000A850C82850D83E0F8E50AC39840030211
:1043130043FFE50A75F00DA4F8A9F0E50C28F58232
:10432300E50D12667C124478851482851583A3AC4F
:1043330082AD8312446BF0E5142402F8E43515F9D9
:104343008882898312447012447DF0E5162404F5B3
:104353001650020517851482851583E070A1E516B2
:104363002402F8E43517F9851682851783A3AA82F8
:10437300AB838C828D83E060030242E7E51424045F
:10438300F510E43515F511851082F583124478E5AF
:10439300142405FCE43515FD8C828D831255428C63
:1043A300828D83A31270FFF0E5142407F8E435151A
:1043B300F98882898312446B12447DA3F0E51624A5
:1043C30005F51650020517851082851183E0F91251
:1043D3001D69E97003024302AC16AD17E514240B03
:1043E300F582E43515F583126B29851082851183D7
:1043F300E0F9121D638A168B170243027808121123
:10440300C48E0C8F0D780C1211C474221214F8127E
:10441300671E1211C8E4F50CF50D780C1211C47463
:10442300241214F812671E1211C874241214F812FD
:10443300671E1211C8750A00780A1211C8750A0995
:10444300780A1211C8AC0EAD0FAA12AB13A90B1246
:104453001CD9740B1211A1E9FEAA08AB09121B891E
:1044630080027E10EEF98025124470A322E08516A7
:104473008285178322124470F022A31242378516D5
:1044830082851783A3A3A322740A1211A17F1202A8
:104493000ED074EA120BC8890CEAFEEBFF8C0A8D6E
:1044A3000B751200751300750D0074161214F812B3
:1044B3005D198009124573121D7512455612456622
:1044C30040F2AA12AB13121B838A0E8B0F8A148B32
:1044D30015EA45156078750D00800C124599121D7B
:1044E300638A0E8B0F050D12456640EF7814121187
:1044F300C478121211C4741E1214F81248A01211B7
:10450300C8E4F508F50978081211C474201214F8E8
:104513001248A01211C874201214F81248A01211E4
:10452300C875080078081211C875080A78081211AE
:10453300C8AC0AAD0BEEFAEFFBA90C121CD9740B35
:104543001211A1E9FEAA14AB15121B8980027E1079
:104553000240178B0FEA2403F8E4350FF9126E803B
:10456300050D22850882850983E0F8E50DC39822AD
:10457300124581A3A3A3126F48A3A3E0F922E50D7B
:1045830075F005A4F8A9F0E50828F582E509126E8F
:10459300A7A882A98322124581123FF812423885C7
:1045A3000E82850F83A3F0E82402FAE439FB8A1014
:1045B3008B118A82F583123FEEA3F0E50E2403FCF0
:1045C300E4350FFD888289831245D88510828511D1
:1045D30083E0F922A3A3A3A3E0FAA3E0FB2274F6EA
:1045E300120BC874FE121254E9FE740C1214F81262
:1045F3004662C0E074011214F8D0E0F0A821A922A9
:104603008808890978081211C475080275090078A9
:10461300081211C474161214F81248A01211C874A7
:10462300151214F8120F9F74161214F81248A012E0
:1046330011C874161214F81248A01211C875080094
:1046430078081211C875080B78081211C8EEF91210
:104653001CD9740B1211A174021211A102519C12E4
:1046630047B9123E0C1242382274EA120BC8890D64
:10467300EAFEEBFF8C088D0974161214F8124993A5
:10468300E82402F8E4350FF9881089118882F5834C
:10469300E004750C00F514751500FAAB15121B83B5
:1046A3008A128B13EA451370030247A4850E828591
:1046B3000F8312553D1247AC7800801DE8FA850E32
:1046C30082850F83A3A3A3E02AF9A3E034008982A0
:1046D300F5831242231247AC08851082851183E0CB
:1046E300F9E8C39940D6850E82850F83A3E0F87459
:1046F300181214F8E0FA74191214F8E0F9741A1283
:1047030014F8E0FB741168703978121211C478142C
:104713001211C4EBF50A780A1211C8E4F50AF50B75
:10472300780A1211C4E9F50A780A1211C8EAF50ADF
:10473300780A1211C8750A00780A1211C8750A128C
:10474300803C741368705178121211C478141211DA
:10475300C4EBF50A780A1211C8E4F50AF50B780AD6
:104763001211C4E9F50A780A1211C8EAF50A780A9F
:104773001211C8750A00780A1211C8750A14780A4A
:104783001211C8AC08AD09EEFAEFFBA90D121CD942
:10479300740B1211A1E9F50CAA12AB13121B898039
:1047A30003750C10A90C024249F0A385820A858384
:1047B3000B221247B9221267128882898322124779
:1047C300C6E02212423DA32274E8120BC8890EEA06
:1047D300FEEBFF8C0A8D0B74181214F81266BF8857
:1047E30082F583A3858210858311126ED3F514E4B9
:1047F30039F515AA14FB121B838A128B13EA45138E
:104803007003024897850C82850D8312499B801D96
:10481300EC75F003A4F8A9F0E50C28F8E50D3912BE
:1048230049A8E5082403F508500205090C125A3774
:1048330040DE78121211C478141211C474201214B9
:10484300F81248A01211C8E4F508F5097808121106
:10485300C474221214F81248A01211C8742212143C
:10486300F81248A01211C875080078081211C8750B
:10487300080D78081211C8AC0AAD0BEEFAEFFBA9CC
:104883000E121CD9740B1211A1E9FEAA12AB13125A
:104893001B8980027E10EEF97F10020ED0E0F5082E
:1048A30078082274E8120BC8890CEAFEEBFF8C0A25
:1048B3008D0B74181214F81249938882F583A3851B
:1048C3008210858311124E1B121372E5082401F521
:1048D30014E43509F515AA14FB121B838A128B13F2
:1048E300EA4513700302498E850E82850F831249B0
:1048F3009B8031ECF516751700740278161213724B
:10490300E50E2516F8E50F35171249A88882898325
:10491300A3A3A3A3A3124F3EF0E5082404F5085074
:104923000205090C125A3740CA78121211C47814BE
:104933001211C474201214F81248A01211C8E4F51D
:1049430008F50978081211C474221214F81248A049
:104953001211C874221214F81248A01211C8750853
:104963000078081211C875081678081211C8AC0A25
:10497300AD0BEEFAEFFBA90C121CD9740B1211A1AB
:10498300E9FEAA12AB13121B8980027E100248991A
:1049930012670E880E890F22125546A38582088559
:1049A30083097C0022F9E82402FAE439FB8A828B2A
:1049B30083E0850882850983124FC41249CB1247CD
:1049C300C6A31249CBA3F022A31249D022E0850843
:1049D30082850983A32274F1120BC874EB1212545B
:1049E300EAFEEBFFC200EE2420F8E43FF9880889D1
:1049F300098882F583C3E09403A3E094005005790A
:104A030001024E139015BEEEF0A3EFF074021214E0
:104A1300F8EEF0A3EFF0740E1214F8E4F0A3F074C0
:104A23000A1214F8E4F0A3F0740C1214F8E4F0A3DF
:104A3300F0EE2422F8E43FF9880A890B8882F58393
:104A4300126EC774041214F8AA82AB83121D1B8A58
:104A53000C8B0DA80CA90D740A1214F8E8125D2131
:104A6300126B29EAC398F8EB99F9850A82850B83BF
:104A7300E028F8A3E039F9740C1214F812673F74B4
:104A8300081214F8E09015B5F0EE2414F508E43F8D
:104A9300F509850882F583E0F91230E98A828B8370
:104AA300E5824583700C9015BEE4F0A3F079020211
:104AB3004E13124E62602BEE2404F50AE43FF50B0D
:104AC300A3120F9F740B1214F8E0FD74061214F86E
:104AD300E05403FC124E50121CD374021211A1E9CC
:104AE300700C9015BEE4F0A3F07903024E13124E3E
:104AF30050121D4BE9F50E850A82850B83126B2933
:104B0300EAFCEBFD9015B680048882898312575521
:104B13007003024C0788828983125828C3EC950CD2
:104B2300ED950D40E488828983A3A3A3A3C3E09CEE
:104B3300A3E09D40D4E8FCE9FD74041214F8E054AA
:104B430007700D74091214F8E0640B7003024C0B28
:104B5300E50EA2E64003024C0BEE2419F582E43F76
:104B6300F583E06003024C0B74021214F8124E3802
:104B73006003024BFB74021214F812575070797CD5
:104B830000850882850983E0F9121D51740112140E
:104B9300F87401F074091214F8124E261214F8E096
:104BA300F50C780C1211C874071214F8120F9F75C4
:104BB3000C01780C1211C874081214F8126F2EF538
:104BC3000C780C1211C87405121224880C890D7804
:104BD3000C1211C474091214F8124E471214F8126D
:104BE3004E2C1214F8126A13121CFD74071211A131
:104BF3007C01124E50121D519015BEE4F0A3F079C2
:104C030005024E137C007D0074041214F8E0F8547E
:104C1300036003024D2AE8540460057E84024D6854
:104C230074091214F8E0F8C394174003024D26E800
:104C3300F50A750B007402780A1213727471250A4F
:104C4300F5827436350BF5831252C6E849700302B8
:104C53004D26850882850983E0C0E074101214F89C
:104C6300D0E0F0740C1214F8126B2974111214F8BA
:104C7300126F42740A1214F8126B2974131214F887
:104C8300126F42741012122C888289831231338A74
:104C9300088B09A808A909740E1214F812673FE8D3
:104CA30049604174091214F8124E1B121372747383
:104CB3002508F58274363509F5831252C688828930
:104CC30083E58245836012740212122C123133740D
:104CD3000E1214F8125755600B740E1214F8126B5F
:104CE30029121B8974091214F8E0F86058740268D9
:104CF3006053740368604E740568604974066860A5
:104D030044740868603F740C68603A7411686035D5
:104D13007413686030741568602B740B6860267EAA
:104D23000080427E82803EEC4D602A8C828D83A37C
:104D3300A3124E62601F740212122C123133E9FE69
:104D430074FF6E700B9015BEE4F0A3F0F9024E13DE
:104D530074016E701074041214F8E0540460047E3D
:104D63008380027E8174021214F8124E38707A74B2
:104D7300021214F8125750707074041214F8E0FA07
:104D83005410706574011214F8EEF074091214F8DB
:104D9300124E261214F81248A01211C874071214E6
:104DA300F8120F9F75080178081211C8EA1313133C
:104DB300541F64015401F50878081211C8740512D0
:104DC30012248808890978081211C474091214F886
:104DD300124E471214F8124E2C1214F8126A1312C0
:104DE3001CFD74071211A1D2009015BEE4F0A3F0CC
:104DF300EE70047900801974846EA200700A500466
:104E03007907800C790680085004790980027908B3
:104E130074151211A1025823E0F5087509007402F4
:104E23007808221274D0740822E02406FAA3E0342E
:104E330000FB740922E0F8A3E0C82415F582E438E6
:104E4300F583E02212575B126F1C740922850A82D4
:104E5300850B831245DB850882850983E0F922A34C
:104E6300A3A3A31247B9E58245832274F4120BC8A6
:104E73008A088B09ECFEEDFF7C067D007900121A8F
:104E8300DB850882850983E054FCF8A3E0F98E8270
:104E93008F83E05403FAE84A850882850983F0A3E7
:104EA300E9127512A2E25004D2F08002C2F0850822
:104EB30082850983E054FBF0A2F0E433F50A750B15
:104EC300007402780A121372E0450A127512A2E303
:104ED300850882850983E050044408800254F71250
:104EE3007512A2E45004D2F08002C2F085088285D4
:104EF3000983E054EFF0A2F0E433F50A7404780A6E
:104F0300121372E0450A125B8B850882850983E0E0
:104F130054046009124F44124F5750010F8E828F71
:104F230083124F39125557A3124F39A3F0EE126271
:104F3300223FFB023B8D124F3EA3221249D0A3A373
:104F4300228E828F83E0FAA3E0F9EA85088285093D
:104F53008322A3A3A3A3123B62EE2402FE2274F7CF
:104F6300120BC88A828B83E054038C828D83124F89
:104F7300DD5404124FD65408124FD65410F88C82C5
:104F83008D83E048F0A3AC82AD838A828B83E054A7
:104F9300046016124FCA1255511246688C828D83D3
:104FA300A3F0EC2402FC50010D8A828B8312554D31
:104FB300124FC4A312554DA3F0EC1262223DFB80A5
:104FC30021F08A828B8322EA2402F8E43BF9888267
:104FD300898322F88C828D83E048124FC4E0221229
:104FE3001CAF7F01020ED0C082C0839015B880042D
:104FF3008A828B83125014600C8A828B83A3A3E072
:105003006970ED80047A007B00023B92FD8C828DF7
:10501300831245DBEA4B22C082C0839015BA800419
:105023008A828B83125014600C8A828B83A3A3E041
:105033006970ED80047A007B00023B9274F0120BDE
:10504300C88A088B09ECFEEDFF121D2D8A0C8B0D0F
:10505300EA450D60627C0080010C850C82850D831E
:10506300A3A3A3A3A3A3A3125A3D504BECF50E7520
:105073000F007403780E121372850C82850D83A3BF
:10508300A3A3A31252CE88828983E493FA74019373
:10509300FBE5086A7003E5096B70BEA3A31250BE5B
:1050A3007002EF6B70B374101214F81250C87408C6
:1050B3001210C87901800279008015E493FA740113
:1050C30093FBEE6A22126F2089838882221211A138
:1050D3007F08020ED074F6120BC8121D2D8A828B24
:1050E30083E58245836005126B2680047A007B008A
:1050F30002519C74F6120BC8121D2D8A828B83E514
:105103008245836005126B2480047A007B00025180
:105113009C74F7120BC89015BCE0FEA3E0800A8EC6
:10512300828F83126EC7ECFEEDFFEE4F604A8E82D4
:105133008F83A3A3E06970E778008001088E828FD4
:1051430083A3A3A3E0FCE8C39C50D4E875F003A4B5
:10515300FC85F008AD088E828F83A3A3A3A3E02C64
:10516300FCA3E03DFD8C828D83E06A7003A3E06BBA
:1051730070CAECFAEDFB80047A007B00024FE57401
:10518300F6120BC8121D458A828B83E58245836024
:1051930006A3A3E0F9800279007F02020ED074F621
:1051A300120BC8ECFF121D458A088B09A808A90930
:1051B300E8496015E82402F582E439F583EF6005D8
:1051C300E0D2E68003E0C2E6F080CE74F0120BC8B2
:1051D3008A088B098C0A8D0B121D278A0C8B0DEA0A
:1051E300450D70030252B97E0074101214F8126652
:1051F300BBE8FAE9FB80118C828D83A3A3A3E4931C
:10520300A2E350030252A00E850C82850D83A3A353
:10521300A31266AF40030252B9EEF50E750F007488
:1052230002780E121372850C82850D831252CE12F0
:1052330052BEE508687003E5096970CB8A828B83E7
:10524300E0F88C828D83A3A3E493C39840B97411CF
:10525300650A70197401650B609DE50B70A98C825A
:105263008D83A3A3A3E493A2E24032809A741365CF
:105273000A7043E50B700D8C828D83A3A3A3E49383
:10528300A2E080E57401650B600302520A8C828DF3
:1052930083A3A3A3E493A2E1400302520A7412126C
:1052A30014F81253AF74041210C888828983A312AE
:1052B30055417901800279000250D3E8FCE9FD8C65
:1052C300828D83E493F8740193F922A3A3A3A3E04B
:1052D300250EF8A3E0350FF92274F0120BC88A0AE1
:1052E3008B0B8C0D121D2D8A0E8B0FEA450F70034D
:1052F3000253AA7A007B0074101214F8125A4A80DF
:10530300050AEA70010B850E82850F83A3A3A3A36D
:10531300A3A3A3E0F8C3EA98EB940040030253AAC3
:105323008A088B0974037808121372850E82850F1D
:1053330083A3A3A3A3A3A3A3A3E02508F8A3E03512
:1053430009F91252BEE50A687003E50B6970B2A34E
:10535300A3E493F508740193F5098E828F83126693
:10536300BBC3E50898E509994097EC2405F582E469
:105373003DF583E493A2E7E433650D6009E493A26A
:10538300E6400302530474121214F81253AF740864
:105393001210C888828983A3A31266BB8E828F836F
:1053A30012673F7901800279000250D312670E8C95
:1053B300828D83E8FCE9FD2274F0120BC8EAFEEB50
:1053C300FFECFAEDFBEE4F7003025536EA2402F5CB
:1053D30008E43BF5098A828B83A3AC82AD838E0CF0
:1053E3008F0D750E00E912105004414201554344DC
:1053F3001355E0E2CC54E8E97D5425086F54097D48
:10540300540A8E540BCC54106F54186F54197D5496
:105413001A8E541BCC541CDD541DE6541EEF541F2E
:10542300F854206F54217D54228E5423CC5424DD10
:105433005425E65426EF5427F854286F54297D54F5
:105443002A8E542BCC542CDD542DE6542EEF542F9E
:10545300F854306F54317D54387D5439CC543AF874
:1054630054EACC54F0F854F1255536558E828F8387
:10547300125542ECFAEDFB025536125539125557C7
:10548300125550F00A0AAB090255368E828F837883
:105493000C1214858A828B83E50C125557780C12F3
:1054A3001485E50D8C828D83125557780C12148563
:1054B3007410780C12120B850882850983E50CF0B1
:1054C300EA2403FA506D0B806A8E828F83120F9B3E
:1054D300121B5974041211A18059780C1211C07C4B
:1054E300058046780C1211C07C06803D780C1211A1
:1054F300C07C078034780C1211C07C08802B780C98
:105503001211C08E828F83E02401FCE43400800FEB
:10551300780C1211C08E828F83125667FCE439FD1A
:105523008009780C1211C07C107D00121ACF74030D
:105533001211A10250D38E828F8312613222A312E1
:10554300554622E08A828B83F022A3A3A3A3E08C97
:10555300828D832212555B22F08E828F8322C0823A
:10556300C083E912105003202F7955383A7955E05A
:10557300E27955007D55790180027900023B92E979
:1055830024F8607814607914607A14607B24FB60DB
:105593006B24F8606714606814606914606A24FB04
:1055A300605A14605B14605C14605D14605E146088
:1055B3005F146060146061146042146043146044BB
:1055C300146045146046146047146048146049141D
:1055D300602A14602B24F9602714602C146039248A
:1055E3005A602514602214601F24FA60131460109B
:1055F30014601524FA60211460228024790180222A
:105603007902801E7903801A790480167905801245
:105613007906800E7907800A79088006791080025E
:10562300790002116E74F7120BC8E9FE74446E60C0
:105633000574436E700C8A828B83125667FAE439C1
:10564300801574426E600574416E700E8A828B837E
:10565300E02401FAE43400FB8007121D6FE9FA7BB2
:1056630000024FE5123B79F9EC24022274F1120B8C
:10567300C8EAFEEBFFEC2406F8E43DF98808890943
:105683008882F58312501470047901803A8C828DDC
:1056930083A3A3A3A3E0F9121D758A0A8B0B1259E6
:1056A300041211C0AC0AAD0BEEFAEFFB121ACF7461
:1056B300031211A1740F1214F8124E666007E50A63
:1056C300F0A3E50BF0790002582374F0120BC874B1
:1056D300F8121254890C8A088B09ECFEEDFFA821FD
:1056E300A922880A890B780A1211C4A90C121D3346
:1056F30074021211A1E970047901804C7418121418
:10570300F81266D6741A1214F8126B2D740612145A
:10571300F8125755780A60161211C4740212123423
:10572300AA0EAB0F121D7B74021211A1801A121163
:10573300C4780E1211C4EEFCEFFDAA08AB09A90C44
:10574300121D8D74041211A174080250D012575BFC
:10575300A3A312670EE84922E0F8A3E0F583888249
:105763002274F0120BC874FE1212548A0A8B0BECCB
:10577300FEEDFF852182852283E4F0A3F0121D391B
:105783008A088B09EA4509602FA821A922880E8976
:105793000F780E1211C4E4F50EF50F780E1211C432
:1057A3007900EEFCEFFDAA0AAB0B8508828509831D
:1057B30012313374041211A1852182852283126B65
:1057C3002974020250D074F1120BC88A088B09ECB9
:1057D300FEEDFF121D398A0A8B0B74111214F81295
:1057E300582AE50C450D600A850C82850D83E4F08B
:1057F300A3F0EA450B6027780C1211C4741112143C
:10580300F8120F9F7901EEFCEFFDAA08AB09850A98
:1058130082850B8312313374041211A1800279C182
:105823007F07020ED0A3A3E0F50CA3E0F50D2274CD
:10583300F2120BC8EAFEEBFF8C088D098C828D8374
:10584300A3A3A3A3A3E0A2E4501C121D3F8A828B4F
:1058530083E5824583600F7901AC08AD09EEFAEF69
:10586300FB123133800279007F06020ED074F112ED
:105873000BC8ECFEEDFF8E828F83A3A3A3A3A3E04B
:10588300A2E15069121DA5E9F50A7064740F1214A0
:10589300F8125D199015B31257556013AC08AD0992
:1058A300EEFAEFFBE0F5838882123133E96039E5E4
:1058B300082403F8E43509F9880889098882F583FF
:1058C3001258F8E0F9121D758A0C8B0DAC0CAD0D56
:1058D3001259041211C08E828F83A3126B24121AE1
:1058E300CF74031211A18008750A878003750A8893
:1058F300A90A0258231245DB8E828F83A3A3A3A395
:1059030022850882850983E0F508A3E085080CF564
:105913000D750E00780C2274F2120BC88908ECFE88
:10592300EDFF8E828F83A3A3A3A3A3E0A2E1504D37
:10593300121DA5E9F97048A908121D398A0A8B0BB3
:10594300EA450B6034E4F50CF50D780C1211C474C0
:10595300101214F8120F9F79028E828F83126EC574
:105963008E828F83126B29850A82850B83123133D2
:1059730074041211A1E9F9800679C18002798802C1
:10598300586B74F2120BC8EAFEEBFF8C088D098C7E
:10599300828D83A3A3A3A3A3E0A2E5501C121D3F02
:1059A3008A828B83E5824583600F7902AC08AD0957
:1059B300EEFAEFFB1231338002790002586B74F474
:1059C300120BC8125A438A828B83A385820885836C
:1059D30009125DA3121B83EA4B604F850882850978
:1059E30083E0F8A3E0C313E8138A828B83F07C007F
:1059F300802F8E828F83E0F508A3E0F8E4C8F9E5F1
:105A03000828E439F509EC125A30EA28F582EB123A
:105A13006EA7E508F0A3E509F0EE2402FE50010F9E
:105A23000C8A828B83125A3D40C8023B8D25E0F8D5
:105A3300E433F922851082851183E0F8ECC39822C0
:105A43008A828B83A3A3A3125A4E22126712E8FE03
:105A5300E9FF2274EB120BC8125CBB126A0B7513BD
:105A630000750E00750F00804905138E828F83A386
:105A7300A3E0F8EE2403FE50010FE870358E828F09
:105A830083E0F9A3AE82AF83EEFAEFFB121D758AB2
:105A9300088B09EE2AFEEF3509FFEAA2E05007055D
:105AA300080470020509E50E2508F50EE50F350912
:105AB300F50F125D00EE98EF9940AE75F006E51311
:105AC300A404F508125CB3121B838A0A8B0BEA4504
:105AD3000B7003025B82850C82850D83126A0DA80D
:105AE30008EA28125CD7025B78E51475F006125CAD
:105AF300CD8E828F83125CF31260A6F8850E8285A9
:105B03000F83A3A3F0EE2403FE50010FE870648E0D
:105B1300828F83125CE8A3125B8BEEFAEFFB121DFC
:105B2300758A088B098E108F117512007810121167
