:020000040000FA
:0600000002144502088213
:030013000209D807
:03002B00021201BD
:0300330002108A2E
:03003B00020A2D89
:030053000207B7EA
:100083000208160100F0FF0700080000FFFF000050
:100093000504000000030001FF18102700000020E2
:1000A300FD000206FFFFFE0400000004E5C6FE0695
:1000B300001F0000AC03FE06001F00B4AC741E0357
:1000C300007701C617CC17261E00000000000000B1
:1000D300000000000000000000000000000000001D
:1000E300000000000000000000000000000000000D
:1000F3000000004A1E000000000000000000000095
:100103000000000101E803D00732006400DC009422
:1001130002000000000000000000000000000000DA
:100123000000000000000000000000FF00000000CD
:1001330000000000000000000000000000000104B7
:10014300010C00020639820000000204010C0002C7
:10015300029F83000000010400008915000000E8ED
:10016300030000FFFFDA1588130000E803000064B2
:10017300006400B801A0BB0D00A0BB0D0002020289
:100183000704010A1E02051E020A0A0101080801EA
:1001930003B80B02803E0102FEFFE8030A050001DB
:1001A300FFFF020A011401E00100B0423BAAB83F7D
:1001B3000000003F8C906339AA0CA33A00941E3CC4
:1001C3008042633DCFFE753E1572313F0000803F94
:1001D300F304353F8096184B000080BF2292D43E33
:1001E300DD9B2A3F04000040FFFF7F7FFFFF7FFF6F
:1001F300010080341872313F050301010FE830001C
:10020300000000BC2F00000000FF000000FF0012F0
:1002130014736046121491603DE9687008F618F68D
:1002230018F618F622748067F71202460909097452
:100233008067F722121491601D1214737005191947
:1002430019801A121320701F121334C37003E66748
:100253003319191940071818182208080874FFF6EB
:1002630018F618F618F622121334601712151170C7
:100273002192F01214FF7019501720F01408080887
:10028300090909E7F61819E7F61819E7F61819E73F
:10029300F6221214FF60E6E869701F0808E624805E
:1002A300F608E436F618547FB47F0CE654806007F2
:1002B300F6E418F618F622181822E9C6CC08C6CDBB
:1002C30008C6CE08C6CFC0E0E8C0E0EAC0E0EBC095
:1002D300E009E9F809E7FA09E7FBE6F918E6F8C3E4
:1002E300EC98ED99EE9AEBC2E7F5F0EFC2E795F0E3
:1002F300500E600CEBCFFBEACEFAE9CDF9E8CCF86F
:10030300EAA2E7D2E7FAEB33FB13F5F0EEA2E7D26A
:10031300E7FEEF33FFC5F013A2E730E601B313C5E1
:10032300F0C3C0E0C0F07F00C39BFB605E94186025
:100333000F401D14601AD0E023F9D0E0F80204182E
:100343008AF0E9486003D2F0E4AFF0FAF9F8803BB1
:10035300EB30E40D89F0EA6003D2F0E4AFF0F9CAC0
:10036300F8EB30E30D88F0EF6002D2F0AFF0E4CAAF
:10037300C9F8EB54076014FBC3EA13FAE913F9E86D
:1003830013F8EF135002D2E0FFDBEDD0E0C0E03012
:10039300E739C3E49FFFF5F0EC98FC42F0ED99FDDB
:1003A30042F0EE9AFE42F0D0E0F9D0E0F8E5F060DA
:1003B3007AE923F9EE20E742D8028067C3EF33FFDF
:1003C300EC33FCED33FDEE33FE80EAEC28FCED3933
:1003D300FDEE3AFED0E023F9D0E0F84002801BC3E3
:1003E300EE13FEED13FDEC13FCEF135002D2E0FF0E
:1003F30008B800067F7F74FF802EEF3350178CF010
:1004030020F00260100CBC000C0DBD00080EBE00F5
:100413000408E860DFE933E813FFEE2313FE4F4DD2
:100423004C8008E95480FFE4FEFDFCEE33EF33F427
:100433007004FCFD7E80D0E0FBD0E0FAD0E0F8D081
:10044300E0CFC618CEC618CDC618CCC6F9221214F2
:1004530091700418181822121473700D74FFF61893
:1004630019F61819F61819F622E7548066F61214CD
:10047300FF700F12151170F014F608F608F608F65F
:1004830080D1121511700CF608F608768008E64440
:100493007F80EC121337700C12132360BFE6548075
:1004A300F6E480BB121323700519191980A5E869B6
:1004B300700C763F18768018F618F6E8F922E6CD28
:1004C300C0E018ECC0E0E633CD33CDD313F6E71923
:1004D300FCE7191933CC33C3947F400ECD9D5024D0
:1004E30008E65480F6E418F6800FF4043D14501423
:1004F30008E6447FF6187680E418F618F6D0E0FC98
:10050300D0E0FD22CCD313CCFD18E4C6CBC0E01859
:10051300E4C6CAC0E00808ED08C633E613F618E4DB
:1005230033C675F003C3CA97CA09CB97CB199C404E
:10053300047D08802EBD00030205FA16B6FF0506EA
:1005430006081618C3CA33CACB33CB33CA27CA0922
:10055300CB37CB193CC37D08803E187D0820E75C70
:10056300C633C6CA33CACB33CB33DDF1D5F0EB3058
:10057300E77BCA97CA09CB974ACB199C406F4B704C
:1005830025E620E0218066187D08C3CA97CA09CBF7
:1005930097CB199CD3C633C6CA33CACB33CB33509C
:1005A300C9DDE7D5F0E1D3E4C636C608C636C608CA
:1005B300C636C608C636C61818188031C3CA97CAC5
:1005C30009CB97CB199CB34097C633C6CA33CACB62
:1005D30033CB33DD34D5F02EC6A2E0C640C8CA27DC
:1005E300CA09CB37194A70BECB3CB480B90808E6B8
:1005F3003308E633601F181818D0E0FAD0E0FBD0B8
:10060300E0FCD0E0FD22187D08CA27CA09CB37CB0E
:10061300193CD3808013F618E4B67F11F618B6FFA1
:100623000EF618C60470D20808768080CAF618F64B
:1006330018F680C500121491604F1214736012E70C
:10064300548066F61213207011121511703B0909BC
:1006530009F4F618F618F618F62212133470151268
:1006630014FF08080860EAE6447FF618768018E469
:10067300F618F6221214FF60161215117012E4F622
:1006830008F608F608E65480F6090909181818222E
:10069300EAC0E0EBC0E0ECC0E0EDC0E0E687F0A428
:1006A300FBACF008E687F0A42CFCE435F0FA18095B
:1006B300E687F0A42C4B60027401CA35F0FCE433E6
:1006C300FB09E687F0D2F7A42CCB35F0FC1908E63A
:1006D30087F0A42BCC35F0FBE433FD0819E687F053
:1006E300D2E7A42C4ACB35F0CD3400FC09E687F0E1
:1006F300D2E7A42DCC35F0FDE433FA0918E687F0F0
:10070300D2F7A42CCD35F0CA3400FC08E687F0D22A
:10071300E7D2F7A42ACC35F07A7E20E70B0ACB3355
:10072300CBCD33CDCC33CC33CB3350147004ED303D
:10073300E00ED2F1E4CD3DCDCC3CCC3B5005DA0507
:10074300C2F1EB547FC63308E63392F0FBE733097B
:10075300E733C39A502D2B70190C0D4C4D7015189F
:1007630006E608C333700D20F10AA2F013F6E4186D
:10077300800B4024E4F630F002768018F618F61861
:10078300F68024D33B14501074FFA2F013F61876AE
:1007930080E418F618F6800FA2F013F618E6330378
:1007A300F618ECF618EDF6D0E0FDD0E0FCD0E0FB57
:1007B300D0E0FA22C0E074F1120C45A2AFE433F5A5
:1007C30009D2AF85A708AFA1EF5508FE74105E608C
:1007D3000612189275A1EF74085E600812189875D6
:1007E300A1F78024EFA2E092F0E508A2E082F050A6
:1007F30017906198E0F8900714E0C398A2D265D0EF
:10080300335002E8F075A1FEE509A2E092AF7F0242
:10081300020CA4C0E074F2120C45A2AFE433FED282
:10082300AF9061A4E0F8759B00E591585408600807
:100833007591F71218E68023E591585410600875F6
:1008430091EF1218EC8014E591A2E092F0E8A2E097
:1008530082F05007E0C2E0F0121A429061A3E0F880
:10086300E5E9585404600E121A1875E9FB90619378
:10087300E0A2E640F2EEA2E092AF7F01020CA4C038
:10088300E074F2120C45A2AFE433FED2AF9061A53F
:10089300E0F8E5BF585404600675BFFB121A5A808E
:1008A300D4C3E498F8E499F91208E58026C3E49ADE
:1008B300FAE49BFBE920E7E91208E5E498F8E499F8
:1008C300F922C3E498F8E499F91208E5E498F8E406
:1008D30099F9C3E49AFAE49BFB22EB20E7CFE920E2
:1008E300E7E0B90010BB0008E88AF084F8AAF02218
:1008F300E4FBC8FA22EB70227B10C833C8C933C9A2
:10090300335007C39AC3DBF280069A50012ADBEA0D
:10091300C833F4C8C933F4C9FA2275F008E4C833FC
:10092300C8C933C933C99AC99B5004C92AC93BD51D
:10093300F0ECFBC833F4C8E4C9FA2212098930F099
:10094300391209CE803412098920F01430E72B7450
:10095300FFFCFBFA747F8022E4FCFBFA7480801AAC
:10096300B48008BC00F2BB00EF800F50EBF9E4C386
:100973009AFAE49BFBE49CFCE499C6CC18C6CB181A
:10098300C6CA18C6F922E4C9C608CAC608CBC6D364
:10099300330308CCC63392F0C3947F402E9418409F
:1009A30019C9B90704CACBCC225025C309CA33CA13
:1009B300CB33CBCC33CC33D9F422F4600DC9CCC3C5
:1009C30013CB13CBCA13CAD9F6CC22E4FCFBFA220D
:1009D30014FCFBFA22C0E0C0D0E8C0E0E9C0E0C0EC
:1009E30082C083A8C1E8C0E0900681E0F8740028C3
:1009F300F582E43406F583D0E0F0900680E0F8A3B6
:100A0300E0687006E595900683F0900681E004F0B7
:100A1300C394804002E4F0A374C6F0D083D082D0A4
:100A2300E0F9D0E0F8D0D0D0E032C0E0C0D0E8C0E8
:100A3300E0E9C0E0C082C083900704E0F8A3E06867
:100A43007008539AFBA374018022C2E9900704E063
:100A5300F8740128F0748428F582E43406F583E001
:100A6300F5C1900704E0C394804002E4F080AC0831
:100A73000808EAC0E0EBC0E086F0E7A4FA180986AC
:100A8300F0E7A42AFA180986F0E7A42AFA180986D7
:100A9300F0E7A42AFA1986F0E7A4FBE5F02AFA198D
:100AA3000886F0E7A42BFBE5F03AFA190886F0E78D
:100AB300A42BFBE5F03AFA18180986F0E7A4C5F071
:100AC3002BFBE43AFA1908E7C5F0C6A426F6E5F0CD
:100AD3003BFBE43AFA1886F0E7A4F6E5F00826F6BD
:100AE300E43B08F6E43A08F6D0E0FBD0E0FA22084B
:100AF3000808E630E7111212F8120B0A080808C6B4
:100B03004480C618181822181818E9799EC608CA0E
:100B1300C608CBC608CCC6C370207996CACBCC70A6
:100B230019798ECBCC70137986CC700EF9802ACAD2
:100B330033CACB33CBCC33CC331930E7F2CCCBCA6B
:100B43003350147004EA30E00DE4CA3ACACB3BCB0D
:100B5300CC3CCC500209C3E913C6CC182313C6CB33
:100B630018C6CA18C6F922E4CFC0E0E4CEC0E0E458
:100B7300CDC0E0E4CCC0E075F020E626F608E6330D
:100B8300F608E633F608E633F6181818EC33FCEDEE
:100B930033FDEE33FEEF33FFC3EC9709ED9709EE18
:100BA3009709EF97191919400FFFEC97FC09ED9777
:100BB300FD09EE97FE191906D5F0BFECF709EDF71D
:100BC30009EEF709EFF7191919D0E0FCD0E0FDD0D1
:100BD300E0FED0E0FF222521C582C0E0E52234FFFC
:100BE300C583C0E0E521C3958224F810AF0885834F
:100BF300228582218008858322858221D2AFCEF08F
:100C0300A3E520F0A37808E608F0A3DEFAEFF0A34B
:100C1300E58124FAF8E608F0A3E608F0A3E608F075
:100C2300A30808E608F0A3E608F0A315811581D010
:100C3300E0FED0E0F8158115811581E8C0E0EEC033
:100C4300E022C0D02521C582C0E0E52234FFC58360
:100C5300C0E0E521C3958224F310AF088583228584
:100C630082218008858322858221D2AFC8F0A3E93F
:100C7300F0A3EAF0A3EBF0A37908E709F0A3D8FA0D
:100C8300ECF0A3EDF0A3EEF0A3EFF0A3D0E0F0A31C
:100C9300D0E0F0A3D0E0F0A3E520F0A3E5F0F0A3CB
:100CA30022852283852182E0C0E0A3E0F9A3E0FA54
:100CB300A3E0FBA37808E0F608A3DFFAE0FCA3E0D7
:100CC300FDA3E0FEA3E0FFA3E0C0E0A3E0C0E0A338
:100CD300E0F5D0A3E0F520A3E0A3F5F010AF08857D
:100CE30083228582218008858322858221D2AFD009
:100CF30082D083D0E0F8D0E0321212FB1818181219
:100D03000B6A1213F4191919221213F41919190879
:100D13000808E618181820E7E0120B6A1212FB18ED
:100D2300181822090909E719191920E7DC08080826
:100D3300E618181820E703020B6A1212FB1818189A
:100D4300120B6A1212FB1818181213F4191919222C
:100D53001214EAB90003020D92E490050178787940
:100D6300148002F0A3D8FCD9FA7A787B1890008615
:100D7300788D79028015E493A3AD82AE838A828B4A
:100D830083F0A3AA82AB838D828E83D8E9D9E775DA
:100D9300823C75838E74051211787582E475832CF9
:100DA300740012117875F0108E238F2485822885A4
:100DB3008327852182852283E0CEA3E0CF85288205
:100DC300852783EBC9EAC8EDCBECCAC3E833C8E98E
:100DD30033C9EA33CAEB33CBC3EA9EF526EB9FF55F
:100DE30025B35004AB25AA26EC33CCED33CDD5F097
:100DF300DAAE23AF2422121491601C12147360170D
:100E03001214FF70071215117001D322C0D01215EE
:100E1300117006D0D0B322C32233D0D0501430E0A7
:100E2300F6C3E7960809E7960809E7960809E796DF
:100E3300B32220E0D5E6970809E6970809E6970864
:100E430009E697B322121491601B121473601612F1
:100E530014FF7007121511600CB322C0D0121511C4
:100E63007005D0D022C32233D0D0501330E0EBC36F
:100E7300E7960809E7960809E7960809E796222006
:100E8300E0E4E6970809E6970809E6970809E69774
:100E930022D083D082ECC0E0EDC0E0E493A3FCE475
:100EA30093A3FDED4C600D120F6CEC24FFFCED34AD
:100EB300FFFD80EFE493A3FCE493A3FDED4C600DF1
:100EC300121035EC24FFFCED34FFFD80EFD0E0FD84
:100ED300D0E0FCE493A3C0E0E493C0E022D083D04D
:100EE30082E9C0E0E493A3C386F0C5F095F0F90866
:100EF300E493A386F0C5F095F0700BE493A3C39934
:100F03004005E9048002A3E475F002A42582F5827A
:100F1300E5F03583F583D0E0F9E493A3C0E0E493EF
:100F2300C0E022852283852182E0A3FEE0A3F52091
:100F33007808E0A3F608DFFAE0A3FFE0A3C0E0E04F
:100F4300A3C0E0E0A3C0E0E0A3C0E0E0A3C0E010E2
:100F5300AF088582218583228008858221858322AB
:100F6300D2AFD083D08202117EC0E0C3E49396084F
:100F73007401939618400FE4936670080874019304
:100F8300661870007019A3A3C3E4939608740193C1
:100F93009618A3A3400DD0E0D0E0D0E0020ED0A37A
:100FA300A3A3A3A3A3D0E02274048004740280004B
:100FB300CCC0E0EDC0E0E521C39CCCAD2250011DC7
:100FC30010AF068C218D2280068C218D22D2AF1288
:100FD30010FAD0E0FDD0E0FC2274028000CCC0E027
:100FE300EDC0E0E521C39CCCAD2250011D10AF063E
:100FF3008C218D2280068C218D22D2AF1210D8D065
:10100300E0FDD0E0FC2212149160251214736020DD
:101013001214FF7003021511080808E76670101810
:1010230019E766700A1819E76670041819E766224B
:10103300F422C0E0C0F088F0E493667008087401FD
:101043009366187000A8F0A3A3700BD0F0D0E0D083
:10105300E0D0E0020ED0A3A3D0F0D0E022D083D022
:1010630082CCC0E0E493A3600612113A1470FAE450
:1010730093A3600612127A1470FAD0E0FCE493A3EF
:10108300C0E0E493C0E022C0E074F2120C45A2AFCA
:10109300E433FED2AFE58BA2E0500579041217E4E6
:1010A300758B00C2E8EEA2E092AF7F01020CA4C0F0
:1010B30008C3E096F50808A3E096420808A3E09663
:1010C300420808A3E0964208A2D265D033E508702F
:1010D30001D3D00822CAC0E0E493A3C582CCC58261
:1010E300C583CDC583F0A3C582CCC582C583CDC5D9
:1010F30083DAE5D0E0CA22CAC0E0E0A3C582CCC54A
:1011030082C583CDC583F0A3C582CCC582C583CDFB
:10111300C583DAE6D0E0CA227009080808226016FF
:10112300181818C6C333C608C633C608C633C6085C
:10113300C633C6D5E0EA22C0E0E493A3D39C5010A3
:10114300E493A3C39C400AD0E0D0E0D0E002107D3A
:10115300A3A3A3D0E022C008C3E096F50808A3E048
:1011630096420808A3E096420808A3E09645087053
:1011730001D3D00822C09FF59FE473D09F22D08370
:10118300D082C09FE493C0E0740193C0E0740293E3
:10119300F59F222521F58210AF08F521400C152279
:1011A3008008F52140021522D2AF8522832200C098
:1011B300D0252110AF08F521500C05228008F52118
:1011C30050020522D2AFD0D0227404800A74038067
:1011D30006740280027401C0E0F404121196D0E098
:1011E3001214AD22BB0102E722C082C08389828A26
:1011F30083BB0003E08002E493D083D08222C0E06B
:10120300C0D0E8C0E0A8A8D2AFC2C7E8A2E792AFB7
:10121300D0E0F8D0D0D0E0326016080808C6C31377
:10122300C618C613C618C613C618C613C6D5E0EA31
:10123300222521F8E43522F9222521FAE43522FB7F
:10124300222521FCE43522FD22C3E0C696F608A33D
:10125300E0C696F608A3E0C696F608A3E0C696F69F
:1012630022252110AF08F521400C15228008F52115
:1012730040021522D2AF22C0E0E493A36C7009D0E0
:10128300E0D0E0D0E002107DA3A3D0E022C3E79634
:101293000809E7960809E7960809E796A2D265D0F8
:1012A3003322E76670100809E766700A0809E766E3
:1012B30070040809E76622C3E09608A3E09608A332
:1012C300E09608A3E096A2D265D03322E0667010C0
:1012D30008A3E066700A08A3E066700408A3E0664A
:1012E30022C3E096F008A3E096F008A3E096F00886
:1012F300A3E096F022181818E4C396F608E496F6CD
:1013030008E496F608E496F622C3E697F60809E69B
:1013130097F60809E697F60809E697F622181818CB
:10132300E60846087009E626087005E633F4220845
:1013330022191919E70947097009E727097005E711
:1013430033F4220922C3E493960874019396087434
:10135300029396087403939622E026F008A3E036DE
:10136300F008A3E036F008A3E036F0227004226010
:101373000D18C6C333C608C633C6D5E0F41822E633
:1013830057F60809E657F60809E657F60809E65737
:10139300F622E627F60809E637F60809E637F608DF
:1013A30009E637F622E026F608A3E036F608A3E0BE
:1013B30036F608A3E036F622E056F608A3E056F622
:1013C30008A3E056F608A3E056F622E647F6080916
:1013D300E647F60809E647F60809E647F622E05627
:1013E300F008A3E056F008A3E056F008A3E056F097
:1013F30022E4C397F709E497F709E497F709E49719
:10140300F722600D08C6A2E713C618C613C6D5E0B7
:10141300F322C6F4C608C6F4C608C6F4C608C6F462
:10142300C622C3E09608A3E09608A3E09608A3E0CB
:101433009622C3E7960809E7960809E7960809E79D
:10144300962275D00075813F752101752205000232
:101453000D53600C08C6C313C618C613C6D5E0F4F3
:1014630022E6F008A3E6F008A3E6F008A3E6F022DC
:10147300E7094709C3134709336002E733F422E05E
:10148300F608A3E0F608A3E0F608A3E0F622E608D0
:101493004608C3134608336002E633F42280010092
:1014A300E9F874FF28F90470F622CAC0E0E6F0A355
:1014B30008DAFAD0E0FA22E0F8A3E0F9A3E0FAA30D
:1014C300E0FB22E8F0A3E9F0A3EAF0A3EBF022EAC1
:1014D300F0A3EBF0A3ECF0A3EDF022E0FAA3E0FB22
:1014E300A3E0FCA3E0FD22E5C754F84401F5C77966
:1014F30001222521F582E43522F58322E6261846CA
:101503001846184622C2AF75D69F02000022E7276D
:1015130019471947194722121181A8E002121181B4
:1015230042E102121181B2E102121181E1E10212E0
:101533001181E7E20212118111E30212118165E3C5
:101543000212118139E40212118167E6021211813C
:1015530015E70212118182E90212118107EA0212D0
:1015630011810AED021211813EEF021211817AEF0D
:1015730002121181D3F002121181E6F002121181DD
:1015830023F102121181ECF2021211815B7000123D
:101593001181D770001211810A7100121181387103
:1015A30000121181767100121181B373001211813F
:1015B300D27300121181177400121181AD740012DD
:1015C3001181F974001211818D75001211816676F3
:1015D30000121181C276001211812077001211814D
:1015E300937700121181D777001211812F7800129F
:1015F3001181517800121181E17800121181727901
:1016030000121181BE7900121181EA790012118151
:101613002B7A00121181C17B00121181AD7C001263
:101623001181887D001211811B9404121181AF94E2
:10163300041211811795041211813C960412118131
:10164300C696041211815197041211818D970412C9
:101653001181269804121181BB98041211818E996D
:1016630004121181709B04121181669C0412118172
:10167300059D041211815A9D04121181C89D041203
:101683001181D4A004121181FEA204121181FFA3BF
:10169300041211813DA50412118148A50412118180
:1016A300878505121181B38505121181CE85051237
:1016B3001181F385051211819386051211815287D9
:1016C300051211817C8705121181A49F05121181D6
:1016D300A99F05121181DC9F05121181C7E1041234
:1016E300118163E204121181ECE2041211818DE392
:1016F30004121181F2E30412118115E40412118121
:1017030059E40412118176E404121181BBE404123A
:10171300118119E5041211816CE504121181A1E50F
:1017230004121181078A05121181C68A05121181DB
:10173300AB8B051211813D9A051211814E9A051248
:101743001181EC9A05121181F79A05121181119BEF
:1017530005121181FC7F00121181C2A005121181B3
:10176300169D05121181269D051211813B9D0512BF
:101773001181A19D05121181399705121181BD9720
:1017830005121181259805121181ADFC01121181F9
:10179300C1FC0112118137FD0112118186FD011275
:1017A3001181BBFD01121181E0FD0112118103FEC4
:1017B300011211813EFE011211816BFE0112118192
:1017C300B2FE01121181CCFE011211816BFF0112D5
:1017D30011813E9905121181C59905121181CE9986
:1017E30005121181F59905121181C47F001211812F
:1017F3008CFD03121181D6FD031211816CFE0312BD
:101803001181F2FE0312118124FF031211813CFFA7
:1018130003121181B0FF03121181C6FF031211815C
:10182300D9FF03121181E3FF0312118175CF041253
:101833001181A1CF041211810BD2041211814BD259
:101843000412118187D2041211819BD204121181D7
:10185300B4D204121181A6D30412118159D40412F3
:1018630011816DD404121181627E00121181867E72
:10187300001211819F7E00121181DD7E0012118101
:101883000D7F001211813A7F00121181A07F001297
:101893001181A37F00121181AD7F00121181BA7FE4
:1018A30000121181E082051211810083051211815A
:1018B3003F83051211815D8305121181788305121F
:1018C3001181DE8305121181EA8305121181478498
:1018D300051211815684051211817A840512118132
:1018E3003B85051211814885051211815985051221
:1018F3001181B8FF02121181D0FF02121181FCFF86
:1019030002121181C3D40412118117D6041211815A
:1019130025D60412118138D6041211814DD6041232
:10192300118162D60412118175D604121181F1D688
:101933000412118156D704121181ECD704121181BC
:10194300C5D804121181D5D804121181E4D8041228
:1019530011817D9C05121181A19C05121181C99CE5
:1019630005121181F19C05121181A2FD041211814E
:10197300C9FD04121181E7FD0412118156FE041200
:101983001181A9F704121181C2F704121181CEF754
:1019930004121181E2F70412118100F8041211817B
:1019A3000AF80412118114F80412118127F80412A1
:1019B3001181B1F80412118126F9041211815AF927
:1019C30004121181A8F904121181F5F9041211818D
:1019D30010FA041211811AFA0412118140FA041246
:1019E3001181A5FA04121181209B05121181429BDA
:1019F30005121181A8A00512118151B5041211819C
:101A03007DB5041211819AB504121181ADB504128A
:101A13001181C8B50412118122B60412118150B686
:101A23000412118164BA04121181C2BB0412118120
:101A3300F4BB0412118157BC04121181DCBD0412E2
:101A4300118104BE0412118119BE0412118129BE31
:101A53000412118169BE04121181ABBE04121181FB
:101A6300BBBE04121181CF9205121181E9920512B6
:101A730011811193051211812A93051211814E933D
:101A8300051211816C930512118183930512118143
:101A9300B19305121181CC9305121181EA9F0512AE
:101AA3001181B5ED04121181C5ED04121181CAEE45
:101AB30004121181FCEE041211812CEF0412118126
:101AC3004FEF0412118166EF04121181A0EF04128B
:101AD300118105F00412118147F0041211818EF077
:101AE30004121181BBF004121181E6F0041211817A
:101AF3003990051211814B90051211815F910512E6
:101B03001181629105121181339605121181699633
:101B130005121181819605121181C3960512118157
:101B2300D39605121181179705121181219705127A
:101B3300118183C804121181C6C8041211812BC9F3
:101B4300041211814AC904121181ECC904121181D2
:101B5300F5C90412118146CA041211816FCA041215
:101B630011817CCA04121181EECA041211817CCB4B
:101B730004121181C1CB04121181FACB0412118119
:101B83005FCC0412118188CC04121181FFCC0412A2
:101B930011814ECD041211818BCD04121181C0CD60
:101BA30004121181D2CD04121181E4CD04121181EA
:101BB30003CE041211810CCE04121181C8CE04127B
:101BC30011810BCF0412118149CF04121181ED9EB3
:101BD300051211818F9105121181C9870512118197
:101BE300FF8705121181478805121181A08905120B
:101BF30011810080041211812681041211816281F6
:101C0300041211812083041211814E830412118165
:101C1300B88504121181F885041211819A87041280
:101C230011813088041211818A88041211811A8962
:101C3300041211815E8904121181A0890412118199
:101C4300058B04121181858C04121181C68E041236
:101C53001181F48E04121181208F04121181298FB6
:101C630004121181868F041211811F9004121181B5
:101C7300369304121181BC9304121181209E051224
:101C83001181369E05121181D8E504121181EEE50A
:101C93000412118192E604121181D1E6041211811A
:101CA300EEE6041211811FE7041211816CE704129E
:101CB3001181A0E704121181DBE704121181D0E93D
:101CC300041211813E98051211819D98051211810C
:101CD300DB98051211811C9905121181D09B051205
:101CE3001181399C05121181599C051211811D9591
:101CF30005121181DB9505121181008002121181F9
:101D03000C80021211816E800212118178800212FE
:101D130011810781021211814381021211813582DF
:101D23000212118192820212118120830212118107
:101D3300718302121181F18302121181B78502129C
:101D43001181B18702121181B38802121181E589D1
:101D5300021211813B8C021211817D8D02121181BD
:101D6300238E02121181E19202121181DE9302127B
:101D73001181749402121181A4940212118141956C
:101D8300021211815E95021211817E950212118158
:101D9300EC950212118109960212118137960212F3
:101DA3001181D19702121181F29702121181989831
:101DB30002121181E098021211813E9902121181DF
:101DC300DC9902121181419A02121181AA9A02121C
:101DD3001181E89A021211819A9B02121181059CCA
:101DE30002121181419C02121181B29C02121181D3
:101DF300FD9D021211818D9F0212118126A00212F4
:101E0300118177A202121181DCA2021211810AA3AD
:101E13000212118150A80212118114AB0212118116
:101E230014AC0212118125DE0312118145DE031267
:101E330011817DE1031211817AE30312118117E607
:101E43000312118159E7031211818BE703121181E8
:101E5300B4E703121181DAE70312118126E80312B2
:101E63001181BFE9031211811FEA031211812BEBC8
:101E7300031211813DEB03121181F1EB0312118166
:101E830002EC03121181DDEC03121181E6ED031262
:101E930011815FEE03121181F8EE03121181C7EF76
:101EA3000312118113F103121181E0F10312118165
:101EB3002EA0051211813EF104121181FDF10412CD
:101EC300118163F20412118112F304121181CEC83D
:101ED30003121181FDC80312118175C90312118107
:101EE30084CA03121181E0CA031211814DCC03127B
:101EF300118169CC03121181BBCC03121181F9CC7E
:101F0300031211810CCD0312118164CD03121181CF
:101F130026CE03121181A2CE03121181D9CE031250
:101F2300118111CF0312118199D00312118178D13C
:101F330003121181C6D203121181A9D30312118195
:101F430035D40312118175D40312118194D4031271
:101F53001181DFD403121181FFD40312118198D5AB
:101F6300031211811ED60312118179D60312118136
:101F7300B9D6031211814FD90312118168DA031202
:101F83001181AEDA03121181D8DB0312118100DC57
:101F93000312118103DC031211810DDC0312118181
:101FA30029DC03121181A3DC03121181DCDC03128F
:101FB300118108DD031211812FDD0312118153DD1D
:101FC30003121181C4DD03121181D7DD03121181C4
:101FD30006DE03121181AB9D05121181B79D051217
:101FE3001181EB9D05121181F5FF01121181B6B22A
:101FF30003121181D9B2031211811EB4031211818C
:1020030067B403121181D3B4031211813DC80412C2
:10201300118134B50312118185B503121181FAB50B
:10202300031211817FB60312118182B6031211814B
:1020330064E00212118144B70312118130BB031211
:102043001181DABC031211812ABD03121181B9C0B7
:1020530003121181ECC10312118141C303121181D7
:10206300DEC303121181C9C4031211812CC70312E9
:10207300118187A50412118131A6041211819CA636
:1020830004121181B7A6041211813CA70412118115
:1020930096A7041211816EDE0212118144A8041264
:1020A3001181C3A904121181F2AA041211817AAB1E
:1020B3000412118183AD0412118130AE0412118117
:1020C30006AF04121181C1B00412118159B2041276
:1020D3001181ECB20412118112B404121181008037
:1020E30003121181638003121181AB8003121181EA
:1020F300EF80031211814A8103121181A781031218
:102103001181E28103121181648203121181BE8263
:10211300031211813C8403121181BC8403121181C7
:102123001785031211813185031211815285031220
:102133001181AC850312118128880312118147880C
:10214300031211813789031211816A8A03121181E3
:10215300E98A03121181258B03121181948B0312D7
:102163001181498C03121181218E03121181288F51
:1021730003121181A090031211819692031211810F
:102183000C9503121181E69603121181A79703128E
:1021930011811F98031211813698031211812D9911
:1021A30003121181219A03121181909A0312118152
:1021B300B0FA0412118107FC04121181C6FC041247
:1021C30011812EFD0412118184F4041211819FF4F4
:1021D30004121181E3F40412118109F5041211812F
:1021E30030F50412118148F504121181EAF5041245
:1021F3001181FFF50412118122F7041211812BF7CB
:102203000412118134F7041211813DF70412118174
:1022130047F70412118115D90412118121DD04122B
:10222300118126DD0412118128DD04121181C68E6D
:10223300051211818AA005121181008005121181F6
:10224300FF93051211818C9E051211812D8C0512AD
:1022530011815EA005121181DDE904121181459FF0
:1022630005121181559F051211818FDD0412118111
:10227300FDAF0212118130B0021211819CB0021223
:10228300118137B102121181D4B10212118119B235
:10229300021211813BB20212118154B20212118156
:1022A3007AB2021211819CB202121181DAB20212C5
:1022B30011811EB30212118140B302121181A2B324
:1022C3000212118169B40212118120B50212118127
:1022D30092B5021211815DB602121181B0B60212DB
:1022E300118116B70212118150B702121181A2B7E0
:1022F3000212118110B8021211817BB802121181EE
:102303007EB802121181FFB80212118196B902122E
:10231300118116BA0212118135BA0212118199BBC9
:1023230002121181A6BB02121181B2BC02121181E9
:10233300BFBC02121181C8BC02121181A0BE0212DD
:102343001181BABF0212118133C002121181A5C0DB
:1023530002121181C7C0021211815BC102121181E5
:102363002FC30212118106C7021211811AC702126A
:1023730011812AC70212118134C7021211813DC78C
:102383000212118146C70212118150C70212118134
:102393007DC702121181A6C702121181B1C70212B1
:1023A3001181D5C702121181F9C70212118163C8C5
:1023B30002121181A9C802121181C6C80212118129
:1023C30043C9021211817AC902121181B9C90212D9
:1023D300118106CA021211818CCA021211815ACCD0
:1023E30002121181DDCC02121181C1CD02121181C1
:1023F30028D00212118181D002121181CBD0021296
:10240300118126D2021211815BD202121181ADD247
:102413000212118162D30212118111D402121181AD
:102423004ED402121181E3D4021211814FD502124C
:102433001181BB8301121181ED83011211811B8470
:1024430001121181F18501121181D18601121181CD
:10245300298701121181648801121181B088011248
:102463001181D98B01121181CC8E011211811C9023
:1024730001121181B29001121181BE9001121181DA
:10248300F0900112118173920112118124940112AF
:102493001181B89401121181FB9401121181799574
:1024A30001121181969501121181C69501121181B4
:1024B300FB9501121181CB960112118174970112C0
:1024C3001181FA99011211811A9B01121181059C44
:1024D30001121181879C01121181BBA0011211818C
:1024E300F8A00112118150A10112118183A10112DF
:1024F3001181EDA10112118123A201121181AEA25A
:102503000112118106A301121181DDA301121181B0
:1025130096A40112118131A50112118139A801126A
:10252300118155A901121181F8AC01121181ECAD91
:1025330001121181EFAD011211811EAE0112118141
:1025430024B001121181FDB00112118140B10112B9
:10255300118196B201121181D5B2011211815EB3BC
:102563000112118192B30112118157B40112118129
:102573006FB601121181E0B60112118120B7011269
:102583001181AEB701121181D0B80112118192B934
:102593000112118199BB01121181B1BB0112118189
:1025A300C5BB01121181FDBB011211812BBC0112AC
:1025B3001181AABD01121181CFBE011211812CBF5D
:1025C30001121181DEBF0112118105C001121181B7
:1025D300CCC00112118164C1011211818AC301129D
:1025E3001181BFC30112118122C40112118151C58E
:1025F30001121181F9C5011211812AC6011211813B
:1026030042C601121181D1C60112118185C901127D
:1026130011815DCB0112118179CB0112118195CB0F
:102623000112118163CC0112118156D00112118163
:102633006433001211819633001211818537001221
:102643001181D13700121181173800121181B93865
:10265300001211811539001211815A3900121181AA
:10266300A13A00121181B53B00121181A43F00125F
:1026730011812840001211813541001211819141CD
:1026830000121181814300121181F643001211815E
:102693000044001211810D440012118138440012CC
:1026A30011811F4500121181C9450012118147464E
:1026B30000121181674600121181904600121181A8
:1026C300B24600121181124900121181D849001239
:1026D30011811D4A001211819A4A001211814B4B3C
:1026E300001211817D4B00121181C34B0012118125
:1026F300FF4B001211814F4C00121181A34C0012A9
:102703001181F94C00121181454D00121181B24D16
:10271300001211812D4E00121181F84F0012118108
:10272300F850001211811D52001211815C550012E4
:1027330011816F58001211812C59001211817059A7
:1027430000121181205B00121181345B0012118190
:102753003E5B00121181485B00121181545B001231
:102763001181705B001211811B5C001211815A5C94
:1027730000121181645C001211816E5C00121181E0
:10278300DE5C00121181295D001211813E5E001290
:1027930011819A5E001211811B5F00121181DA5FB1
:1027A30000121181E360001211811762001211817E
:1027B3000563001211811D630012118178630012F9
:1027C3001181966300121181DE6300121181056489
:1027D30000121181A064001211816665001211813B
:1027E300F865001211817266001211818C67001264
:1027F3001181396800121181616900121181B16977
:1028030000121181156A00121181776A0012118179
:10281300A56A00121181C96A00121181FE6A0012B1
:1028230011812F6B00121181626B00121181826B77
:1028330000121181EA6B00121181DE6C001211810A
:10284300396D00121181626D00121181EA6D00125F
:1028530011816D6E00121181986E001211817D6FCE
:1028630000121181A3F402121181DBF4021211810F
:10287300FCF4021211813EF502121181A0F502123D
:102883001181AAF502121181BAF502121181F5F52F
:1028930002121181D5F902121181C2FB02121181B8
:1028A300A8FD021211813FFE02121181E1FE021204
:1028B30011819CD1011211811AD20112118176D298
:1028C30001121181C1D201121181DCD201121181D5
:1028D30007D30112118124D30112118130D30112C4
:1028E3001181C7D401121181E0D40112118165D580
:1028F3000112118178D50112118197D5011211812D
:102903003BD601121181BCD7011211816FD901127B
:10291300118105DA0112118108DA0112118178DAC5
:102923000112118196DA011211812DDB011211813D
:1029330075DB0112118178DB011211813EDC01127A
:102943001181ABDC01121181D1DC011211815CDD3B
:10295300011211817ADD01121181C0DD0112118191
:1029630074DE01121181BEDE01121181EDDE01124E
:1029730011814ADF011211817FDF01121181ABDF67
:1029830001121181B9DF0112118106E001121181D7
:1029930076E001121181BFE0011211810BE10112F6
:1029A300118137E10112118142E10112118160E1CC
:1029B300011211814BE20112118155E201121181C1
:1029C30090E201121181A0E201121181A9E2011228
:1029D3001181FDE20112118111E30112118140E421
:1029E3000112118155E401121181E3E401121181F5
:1029F30028E501121181B4E501121181BFE501122D
:102A0300118101E7011211811CE70112118168E7AD
:102A130001121181D7E70112118110E8011211810E
:102A23002AE8011211816CE8011211813CEB0112B9
:102A33001181E9EB0112118156EC0112118196EE1D
:102A430001121181AEEE01121181B1EE0112118159
:102A5300BDEE01121181D1EE01121181D9EE0112E5
:102A630011810CEF011211810EF00112118195F009
:102A73000112118105F10112118187F101121181F6
:102A830048F20112118167F20112118108F3011258
:102A9300118165F30112118168F301121181DCF3D5
:102AA300011211812BF50112118131F601121181ED
:102AB300BCF601121181D7F7011211819FF801129F
:102AC3001181D0F801121181F3F801121181FCF880
:102AD300011211812BF901121181BBF9011211812C
:102AE30071FA01121181E6FA011211818DFB0112B3
:102AF300118102FC0112118139FC0112118177FC51
:102B03000112118113E00212118109C8041211810B
:102B1300B2C70412118120C60412118172C50412B6
:102B2300118168C5041211815EC504121181F7C4B5
:102B330004121181E3C40412118140C404121181EF
:102B430040C30412118159C20412118149C00412F5
:102B5300118162DF0212118103B70312118157BF82
:102B630004121181F5BE041211813EDE021211819D
:102B730092DD02121181A2B20312118198B20312E3
:102B830011812DB20312118161B0031211811FB0A3
:102B93000312118123AF03121181F7AE03121181C6
:102BA300AEAE03121181EFAD03121181F2AA03122B
:102BB3001181C7A8031211816EA80312118101A804
:102BC30003121181C0A703121181F9A60312118107
:102BD30093A60312118132A603121181D2A5031207
:102BE3001181A9A4031211813DA40312118195A39C
:102BF3000312118190A30312118184A30312118183
:102C0300B79F031211812BDB02121181E2D702124B
:102C1300118136D702121181A4D6021211815ED618
:102C23000212118129D602121181F6D502121181E5
:102C3300919F031211812F9F03121181D19E0312C1
:102C430011818F9E03121181E1D5021211817C9EA5
:102C530003121181719E03121181409E031211818F
:102C6300309C03121181CEDE02121181A39B031249
:102C73001181DDA7041211815F9B03121181339B24
:102C83000312118126FD03121181F9FC0312118134
:102C9300C6FC031211819EFC031211813FFC031237
:102CA30011811FFC03121181EAFB0312118196F8B3
:102CB300031211817EF60312118168F4031211814C
:102CC300E8F30312118194F303121181A0F20312AA
:102CD3001181B6D50212118148F30312118131B566
:102CE3000300000080FB000022E4738F00010099C1
:102CF30019870001009719350004006019250002A7
:102D030000641926000200661927000200681928CA
:102D13000001007219290001007319840004006680
:102D2300168600010086182A00010074192B000181
:102D33000075192C00010079192D00080072162E58
:102D43000001007A192F0001007B19300001007C7B
:102D530019310001007D19320001007A1633000198
:102D6300007B16340001007E19360001007C163802
:102D73000001007F193900010078198300020095D2
:102D830019630001008816640001007619650001CB
:102D93000077196D0001008916710008006A166634
:102DA30000010094194300010085194400020086C4
:102DB30019450001008819460002008919470008D7
:102DC300008016480001008B194B0001008C190488
:102DD3000001009819A10001009C19370001009B14
:102DE30019880001009A193C0001007D163D00017D
:102DF300008019490002008D19670001008A164DF1
:102E03000002008F194E00010091194F0002009239
:102E1300193E0001008419510001007E1652000181
:102E2300008219530001008319540001007F16002A
:102E33000000000000000000002001B58300000135
:102E4300002001B783000002002001B983000003C2
:102E5300002001B683000004004201458200000502
:102E63000042016881000006004201208200000741
:102E7300003001BA830000004042018D820000FE51
:102E8300FF2101B3830300000021235B150300FE30
:102E9300FF2101B38302040000290516190204105F
:102EA30002292306190304000029051C1903041031
:102EB3000029051E19030414002801201903041016
:102EC300022B2308190504000021051A1905041013
:102ED3000229230C190D040000390510190D0402F1
:102EE300021023F9180D0403021023F8180D04042B
:102EF300022123FA180D0405022123FC180D0411E5
:102F0300F110230E19000136360101000102010000
:102F13000103010001040106060502000007010088
:102F2300340801000F090401010D0100FF0E080020
:102F33000017020000190100FF1A0100011B010024
:102F4300FE1C0100081D0200001F010001200100FA
:102F530001210200002301000F24020000260100CA
:102F63000127010008280200FF2A0100072B0102A4
:102F7300402C0100002D0100012E0100012F010052
:102F8300FF30010B1D310800003A0100083B01002E
:102F93000F3C0100013D0100FF3E0400004204001C
:102FA30000460400004A0400004E040000520400DE
:102FB30000560400005A04000001037103010301D9
:102FC30003010301030103220302030103100300AE
:102FD3000300030003000300030003000342030094
:102FE300032403060300030003040312032503233E
:102FF3000325032303040304030003000300034422
:103003000300030003230300036503210035038149
:103013000300030503000300030003000325032348
:103023000303027102300160021102700201020205
:103033000202028002100261023A0041006302733D
:10304300027202620243020002130238000002000D
:10305300020402120200020002000200020402043F
:1030630002370037003C024402000239000002002C
:103073000265020002350281020002050282028318
:10308300020002010171010101010111010101317C
:1030930001010101018001100161013B0014006382
:1030A3000173017201620143010001130106013D35
:1030B30001350004011201000100010001000104B7
:1030C300010401330133013C0144013201360000A4
:1030D3000100016501000135008101000105018244
:1030E30001830100010300710030016000110070D1
:1030F300003102200350048000100061000000141E
:1031030000630073007200620043000000130006B6
:103113000000000000040012000000000000000096
:103123000004000400370037003C024400000000A4
:10313300000000000065000000350081000000056C
:103143000000008300000036000100060000000FAD
:103153000000000000000000000000000003FFFF6B
:1031630000000403FFFF0000FFFF0FF4010005C48C
:10317300040320000100000B000000000000000019
:1031830003010F0000000000000000000000000029
:10319300000000000000000000000000000000002C
:1031A3000000000000E41D0E1EEA1D181DF01D1492
:1031B3001EF01D201EF61D181DF01D141EFC1D18EB
:1031C3001D00000000021E181D000000000000008A
:1031D30000081E181D000000000000000000000091
:1031E30000000000000000000000000000000000DC
:1031F30000000000000000000000000000000000CC
:10320300002B040000390523192B04100228230F77
:10321300192B0404022123FE182B04050221230089
:10322300190C005500390527190C00850139052BA8
:10323300190C000402212302190C000502212304A6
:103243001900009C2001009C20020012200280DE55
:103253002C0300182004001E200480242005002ACB
:1032630020060036203100482033004E203400541D
:1032730020FFFF000007ECFDFDFDECDCDCCCBCAC6B
:10328300AC9C9C8C7C7C6C6C5C5C5C4C4C3C3C2CAB
:103293002C1C1C0AA826027226057E260778260CFB
:1032A3005A260D6626FF000000160F00000B150BB3
:1032B300020002220F3300000E0FD0D1D2D3D4D597
:1032C300D6D7D8D9DADBDCDDDEDF5A69674265653C
:1032D300416C6C69616E63653039150AF4D4C0A51D
:1032E300958272636155504900034D4C4651181A3B
:1032F300250502000119161816161823030030308D
:1033030017181921301B1D1F3030301618192023B0
:103313001A1C1E30003C40423A3F3F392F47300CC5
:103323000E020B040B0A0708000F0204020101013D
:1033330001090200BE040AE8030000F6FB7832E844
:1033430003010003001A00DD3203030A0C041A1000
:10335300080A0A2802180A0910151E00FF1EFF0892
:103363000474F7120BD9E990175DF0901712E4F08B
:10337300121AF0901775E4F0A3F090175EF0A3F023
:103383001227F8121AF690169AE4F0A3F01221F815
:10339300024CCA74F0120BD974D31212641267264A
:1033A3005480606690175DE0F9121B688A088B09E8
:1033B300AF09EA4F604C7C0080010CEC75F003A46C
:1033C300F8A9F0749628F582743239F583E493F4FE
:1033D3006029E493F88A828B83E06870DDEC75F0F2
:1033E30003A4F8749728F582743239F583E493C003
:1033F300E0740193F583D082122CECAA08EFFB1240
:103403001B56126E5864800237658521828522839C
:10341300A3E05420601F12270E8A088B09AF09EA24
:103423004F600A122666AA08EFFB121B56126E584B
:103433006420023765852182852283E0A2E0504221
:10344300901717E0640F702E9009F2126E639009C3
:10345300F2C3E094E9A3E09403400A7A007B8090EE
:103463001589124DAC790012263CE9600990196068
:103473001214DE122654852182852283E064010220
:10348300374A5420700302374F7A207B0090175D30
:10349300E0F9121CB2EA4B4C4D701A9017711214DA
:1034A300BAE8494A4B700E750801750900750A00A0
:1034B300750B00806D750C00750D00750E00750F92
:1034C30000121CBE8A088B098C0A8D0B901771128F
:1034D30014BAE8494A4B60319017717808121159B0
:1034E300400E750CFF750DFF750EFF750F7F80196C
:1034F30085080C85090D8C0E8D0F901771780C12B1
:10350300124C7401780C12121B850C08850D098569
:103513000E0A850F0BE5084509450A450B700302A2
:1035230036A97C0079047A007B001226E48A0C8B8E
:103533000DAE0CAF0D0235ED74021214F574FFF0ED
:1035430074031214F574FFF074041214F574FF126B
:103553004E1F1265E07407121244126896E9640163
:10356300706A1237714480F8A3E0F974281214F5D5
:10357300E8F0A3E9126B2AE0C0E0742A1214F5D034
:10358300E0124E0C5408601674281214F5A3E0449C
:103593000112377EC0E0742C1214F5D0E0F01267EC
:1035A300696011E8240B123F64F874161214F5E8ED
:1035B300F0A3E4F0908333120FAB74061212447439
:1035C3000B12123C12236074041211B18E828F838A
:1035D300A3A3A3A3A3A3A3A3A3740612377EF912E1
:1035E30026C674051214F51268EDEE4F7003023609
:1035F300A97C007904EEFAEFFB1226E47405121499
:10360300F5EAF0A3EB124B36E0F50CA3E0F50DE47D
:10361300F50EF50F7808790C1214354023EE2404C7
:10362300F8E43FF985080C85090D8882F583C3E02A
:10363300950CF0A3E0950D126F4DE84970A4800C32
:103643008E828F83A3A3A3A3E4F0A3F08E828F8340
:10365300A3A3A3A3A3A3A3A3A3A3E064018E828F25
:1036630083A3A3A3A3A3A37020E0540460030235A0
:103673003B8E828F83A3A3A3A3A3A3A3A3A37406B5
:10368300F07AB71238A40235E5A3A3A3A3E060033D
:1036930002353B8E828F83A3A3A3A3A3A3A3A3A3D8
:1036A3007401F00235E51226B47C0079017A007BBF
:1036B300001226E4EA4B6003124DA57C0079047ADC
:1036C300007B001226E4EA4B701380448A828B83CA
:1036D300A3A3A3A3126905EE98EF99400B8A828BEB
:1036E30083A3A3A3A31268ED7C0079041226E48BC1
:1036F3000BA90BEA4970D5C3E5089EE5099F500D58
:10370300C3EE9508FEEF9509FFEE4F700D124DA520
:10371300901771123777A3F08024EE2EFEEF338ECD
:1037230008F509E4F50AF50B78081211CC7A201292
:10373300394D1211B1121CBE9017711214D285218A
:1037430082852283E06420FAA3E08016A3E0540478
:103753006013125FBD122C3C790112412B126E587B
:103763006404FB80047A007B00742D026745EE122B
:103773006753E022E4F0A3F0A3F022124E11A3A3B7
:10378300E022C082C08374EA1212647C167D007941
:1037930000AA21AB22121B3E74081214F57402F026
:1037A3009017061261F91237C574091214F51262E3
:1037B3001174131214F5E4125E901221EC741602C4
:1037C30050DBE8F0A3E9F09017101268D52274F7E4
:1037D300120BD974DA121264EAFEEBFFEA4F602D82
:1037E300AC21AD2212272C74061214F5E0601E746E
:1037F300171214F5E0FD74011214F5E0FCEEFAEF74
:10380300FB7900122612E9600479A480027900741E
:1038130026024CC774F7120BD9EAFEEBFF8A82F536
:1038230083A3A3A3A3A3A3E0544060178A828B833B
:10383300126706124FEA60067AFF7BFF8015126754
:103843000280039017061265E074FE6A700374FF2A
:103853006B604112670212672C1227C2E98E828FB6
:1038630083600B1262EF126F18E4F0A38003126FF0
:1038730007F07C427D268E828F83124660E9F5082D
:103883007015EE4F60097901EEFAEFFB1226C0A91D
:1038930008024CCA7508CDAA081238A4E960E3806F
:1038A300EE8E828F831262F3240CF582E438F58363
:1038B300E0F912264E2274F6120BD9E9FEEAFF7ADA
:1038C3000F7B00121B50EA4B601A8A828B83740CA5
:1038D300F0EEA3A3F0EF8A828B83124A85125EEE89
:1038E3007900802BEEF91226EA8B09A909EA4960CF
:1038F3001C8A828B83A3A3A3A3A3A3A3A3A374065A
:10390300124A8EE0F9122402EEF91226C679100249
:103913005CD974F4120BD98A088B098C0A8D0B902D
:103923001717E0640F701EEA4B4C4D601890171286
:10393300E064086005E06404700B78081211CC128F
:10394300394B1211B1023BB07A017B0090175DE055
:10395300F9121CA074042274F4120BD974FC121211
:1039630064EAFEEBFF8A82F583A3A3E0F91226EA59
:103973008A088B09EA4B7003023A938E828F83A3E2
:10398300A882A983E0C0E0EA125EE4D0E01248F422
:1039930064F160288E828F83A3E064CD601E8E82E3
:1039A3008F83A3E0641A60148E828F83A3E064E99B
:1039B300600A8E828F83A3E064E17033790012265C
:1039C300C0E9602BE5082404F50AE43509F50B8505
:1039D3000882850983A3A3A3A3A3A31249CA1248F8
:1039E300D2121B02850A82850B8312672C80708E8C
:1039F300828F83A3E0C0E074021214F5D0E012506A
:103A0300E912520C12437AC0E074031214F5D0E0A9
:103A1300F0E508126BD5124023E0AA21AB22700512
:103A230012235A80031227AA74021214F5E064E9E0
:103A3300702D850882850983124189750A01780AE8
:103A43001211D8750AE9780A1211D81248A612433E
:103A530047FCA3E0FD8A828B831243711211B18567
:103A63000882850983A3A3A3A3A3A3A3A3A3E064B9
:103A7300027012850882850983A3A3A3A3A3A3A32A
:103A8300A3A37406F08E828F83A3A3E0F91226C644
:103A93001226B4901966123F957404023BAD74F478
:103AA300120BD9EAFEEBFF7508008A82F583A3A304
:103AB300A3A3A3E060387508081265D379FF122425
:103AC30092EA4B601075082C8E828F83A3A3A3A365
:103AD300A3E0D2E0F08E828F83A3A3A3A3A3E05439
:103AE3000364016003023B9C430811023B9CEA24EC
:103AF300181254D26036EA241A1254D26003F470B6
:103B0300131268B57003A3E0696003023B9C750858
:103B130022023B9CEA241B123BA0241A1254D2FA21
:103B2300EE24191254D2F91223F0806D8A828B830A
:103B3300A3A3A3A3A3A3A3A3A3123F807003750806
:103B4300018E828F831268B97003A3E0697006E562
:103B530008D2E1F508E50860158E828F83A3A3E000
:103B63007006E508D2E58004E508D2E6F508124FB1
:103B7300DD64017006E508D2E0F5088E828F83A329
:103B8300A3E06015EE241D1257F1F91227B0E96482
:103B9300016006E508C2E0F508A9088010F582E493
:103BA3003FF583126F70EA2274091211B17F040288
:103BB3000F2674F0120BD974D7121264EAFEEBFFCE
:103BC3008A82F583A3A3A3A3E0600E90196412670E
:103BD300706006901964123F9574031212448E822A
:103BE3008F83A3A3A31260BC1265DE12272CE97096
:103BF30003023D46780174051214F5E0C3940240B4
:103C030002780074071214F5E0C3940240027800AE
:103C1300740C1214F5E064F87003A3E0F47003026B
:103C23003D46740C1214F5E064F97003A3E0F470DC
:103C330003023D46740C1214F5E064FA7003A3E02A
:103C4300F47003023D46740C1214F5E064FB700338
:103C5300A3E0F47003023D4674061214F5E0F990F4
:103C63001700E0696003023D46E8A2E04003023D1D
:103C73004674271214F5E06003023D46EE24131246
:103C830068CB74221214F51260C6241C1268CB741C
:103C9300101214F512621174091214F5E0601D7408
:103CA3001A1214F5E0FD74041214F5E0FC8E828FF1
:103CB300831265DE7901122612E9703B7403121236
:103CC3003C122660E9F50C74091214F5E0702C908F
:103CD30016FAE060267422596422601F7442596404
:103CE30042701474201214F5123F7A600E7420127D
:103CF30014F5123F7360047ACF804AE9A2E6504D6F
:103D030074201214F51257F724FD600F14600C246D
:103D1300FD600824FD600424FE702874201214F54D
:103D2300123F6C700E74201214F5125E1DA3E06432
:103D33000D601A740312123C1227DAE96401700D44
:103D4300023F5C7AD37B00121FE8023F5CEE242D16
:103D5300F582E43FF5831241807003A3E069701D8F
:103D630075080078081211D878081211D8EE242F9C
:103D73001254D2F9123F861243711211B17409120F
:103D830014F5E07003023E24123F861265E0122808
:103D9300288A0E8B0FEA4B7003023EB5740412148B
:103DA300F5E0F88E828F83A3A3E028F8A3E0340024
:103DB300F9E8240D123F64F88A828B83A3A3A3E05E
:103DC30068600EE88A828B83A3A3A3124A7E12370C
:103DD300787904E91214F51254F1A3E02AF8A3E068
:103DE30034008882F583A3AA82AB83121B448A081A
:103DF3008B098C0A8D0B850E82850F83A3A3A3A346
:103E030078081211594003023F5C9083137808121B
:103E130013A8850E82850F83A3A3126F76A3125274
:103E230015901712E064046008E064096003023F20
:103E33005CE50CA2E54003023EEFEE242F1254DAB8
:103E4300F0EE24301254D2C0E074011214F5D0E025
:103E5300F0EE24311254D2C0E074021214F5D0E013
:103E6300F074141214F5E064017026740E1214F544
:103E73001248CD24131254D2687003A3E069701161
:103E8300740C1214F5123F80700774141214F5E4C5
:103E9300F0EE2425F582E43FF583120FAB74041290
:103EA3001244740712123C12236074041211B102FB
:103EB3003F5C901757E064016003023E24742012B4
:103EC30014F5123F7A7009E50CA2E65003023E2472
:103ED30074101214F5E0F47003A3E0F4607BEEFCBD
:103EE300EFFD740312123C12266C806DA2E650693A
:103EF30074201214F51262FF7016741A1214F5E08E
:103F030064027055740312123C79001227A480498D
:103F130074201214F5123F737014741A1214F5E01E
:103F230064047035740312123C122798802B74209A
:103F33001214F5123F6C700C7900740312123C12C8
:103F430027E6801574201214F5125E1DE0640C70D0
:103F530008740312123C1227F27429026745E824FD
:103F630006F582E439F583E02212670CE06403224C
:103F730012670CE06407221257FB640622124FEE0D
:103F8300640222EE242BF582E43F126F6EEE124F91
:103F9300C322E0F508A3E0AA08FBE4FCFD122654C3
:103FA3002274F4120BD9EAFEEBFF8C088D099016EC
:103FB3007AE0600F1268B57003A3E06970051223FD
:103FC300DE805379001265D312240E8A828B83E537
:103FD300824583602CA3A3A3A3A3A3E05418602169
:103FE300E508241C124020120FAF12401C120FAF21
:103FF300EE2418124358125AB812688D1211B18068
:104003001579008E828F83A3A3A31262E5125AB897
:104013001265E01223E4023BB0E5082413F582E4C1
:104023003509F5832274F7120BD974F7121264EA77
:10403300FEEBFF901712E06403600DE0640160087B
:10404300E0640960030241268A828B83A3E0600354
:104053000240F47C007D007A027B00121AFC126994
:10406300328A821268CF9017031262117953122198
:10407300DA901712E0640960099017101265E012D4
:1040830028228521828522837401125E35901712BE
:104093007404F0740112123C794A1221D47401128F
:1040A30012447A087B17121CD690158CE0640B70AF
:1040B300057406F08005790012412B9017031262F4
:1040C300EB7A037B00121AFC9017061262EB7A0458
:1040D3007B00121AFC9016FDE0A2E35004D2F0809C
:1040E30002C2F0125E229019601214DE122654806E
:1040F3002FFC7D007A037B10121AFC90158CE06470
:104103000B7003740AF090167EE4F0FA7B40125CA5
:10411300128E828F83A3E0F912412B901712E4F0E1
:104123001226967409024CC79017101265E41223E5
:104133007222C082C08390169A126770701790170C
:1041430012E024FB6005146007800A9016A0801F0C
:104153009016A2801AE8496007123F616401700C4F
:104163008A828B83A3E0F9122366800E90178C1248
:1041730067706006125E1E122CEC0259691268D534
:10418300901710E068221268D5E8FAE9FB2274F56B
:10419300120BD974D81212648A088B098A828B8312
:1041A300A3A3A3A3A3A3A3A3E0C3940F5003024316
:1041B300428A828B83A3A3A31268ED74151212445F
:1041C3008A828B83A3A3A3A3A3A3A3A3124347FA24
:1041D300A3E0FB1226A274151214F5E0702E8508D5
:1041E30082850983A3A3A3A3A3A3A3A3E0C3940BDF
:1041F300401A8E828F83A3A3A3A3A3A3A3A3E064E4
:10420300027009EE240B1254D2F460030243427489
:10421300171214F5E060076402600302434290172B
:1042230012E06402601CE06406601790169A12673D
:10423300707003024342123F616401600302434210
:10424300802590169A126770701D75080078081201
:1042530011D878081211D8EE24101243588E828F89
:10426300831243711211B18E828F83126F451248EC
:10427300FD1268D174021214F51260C6123772C0AF
:10428300E074041214F5D0E012437AF508A3E0F5C4
:1042930009740F780812145574051214F5E508F023
:1042A30074191214F5E0C0E074061214F5D0E0F0AE
:1042B300741B1214F5E0C0E074071214F5D0E0F09B
:1042C30074161214F5E0C0E074091214F5D0E0F08E
:1042D30074171214F5E0C0E074081214F5D0E0F07E
:1042E300EE24101254D2C0E0740A1214F5D0E0F098
:1042F300741A1214F5E0C0E0740B1214F5D0E0F058
:1043030074271214F5E0C0E0740C1214F5D0E0F039
:10431300741C1214F5A982AA8389088A09750A00F4
:1043230078081211D07C087D0074101214F5AA824B
:10433300AB831254C91211B1AA21AB2212236C749C
:1043430028024E25E0F98A828B83A3A3A3A3A3A308
:10435300A3A3A3E022F582E43FF583E0F98E828FE5
:1043630083A3A3A3A3A3A3A3A3A3126F7022126582
:10437300E4122762740222F0EE125ABDE02274F2B4
:10438300120BD974F81212648A0A8B0B8C0C8D0DE4
:104393008908908258AC21AD2274081210FAC20029
:1043A300AC0AAD0BAA21AB221265617002D2009058
:1043B300175E8013AC0AAD0BEE240BFAE43FFB123D
:1043C3006561701B124FB4124C47601EA20040E49B
:1043D3008E828F83E0650C7004A3E0650D70E58E1B
:1043E300828F83A3A3E0650870DAEEFAEFFB74080B
:1043F30002490AC082C08390175E025966C082C018
:104403008390175EE4F0A302465C74F7120BD99015
:10441300175E126E5E800FEA2414F582E41268EAD6
:10442300121BECEEFAEFFBEA4B70EC90175EE4F034
:10443300A3F0024CCA74F2120BD98A0C8B0DEDFF58
:10444300890B8A828B83E08C828D83F0A3A882A957
:10445300838A828B83124501124A78E0C454F0FAAE
:1044630088828983E04AF0EC2402F8E43FF9850C62
:10447300828B83A3A3124501124514E0333354FC0A
:10448300124508E033333354F8124508A3E0A2E0A1
:10449300E4331313FA88828983E04AF0EC2403FEA1
:1044A30050010FE50C2407F508E4350DF509750AED
:1044B3000078081211D07C087D00EEFAEF1254C880
:1044C3001211B1EE2408FE50010FE50C240FF5087C
:1044D300E4350DF50978081211D07C037D00EEFA5E
:1044E300EF1254C81211B1E50BC3940F400DE50C44
:1044F3002412F582E4350D125ACCF002490DA3E0E3
:104503008882898322FA88828983E04A124514A328
:1045130022F0850C828B83A3A3A3A32274F2120B34
:10452300D9EBFF8C0C8D0D8A82F583E08C828D8311
:10453300126F2FA3A882A983E01259111248F3C462
:1045430012590BF0EA126F391259181248F1A2E20C
:10455300E4338C828D831248F0131313541F1259C2
:1045630011A31248F0A2E7E4338C828D83A3A3A3A3
:10457300A3A3A3F0EA2403FE50010FF5088F0975E6
:104583000A0078081211D07C087D00E50C2407127C
:1045930054C41211B1EE2408FE50010FF5088F091F
:1045A30078081211D07C037D00E50C240F1254C44B
:1045B3001211B18E828F83A3A3A3E0C0E0126F55C3
:1045C300D0E0F002490D74F6120BD9EAFEEBFF8A34
:1045D30082F583A3858208858309E0F912238A85FE
:1045E3000882850983E064EB601E8E828F83A3E0DB
:1045F30064E160148E828F83A3E064F1600A8E828B
:104603008F83A3E0641A70078E828F83A3E4F090F4
:1046130019601214DE12265475080178081211D895
:104623008E828F83A3E0F50878081211D879009061
:1046330017101262EB9017061243711211B1122672
:10464300B4025CD9C082C083E99017707003E48020
:104653000274018004EAF0A3EBF00259691265E4E5
:104663001221F22274F6120BD9901770E0701B7CA2
:104673000079017A007B001226E4EA4B600C8A82FF
:104683008B831267706003122648025CD9C082C014
:1046930083124B27401079FF1226DEE9F890335836
:1046A300E493C39850047901800279000259697434
:1046B300F2120BD98A0A8B0B8909C2008A828B8377
:1046C300A3A3A3A3A3A3A3A3E0F91226EA8A0C8BB3
:1046D3000DAE0CAF0D750801EA4F600302479385D9
:1046E3000A82850B831262E5850A82850B83A3A365
:1046F300A3A3A3A3A31248D21226D28A0C8B0DAE76
:104703000CAF0DEA4F700302489F8A828B83A3A3E9
:10471300A3A3E4F0A3F0E50A240CFAE4350BFB8A27
:1047230082F583E0C0E01248A6D0E0F0E50A240D4C
:104733001248C6240D12620B1227C8124FCC1267FF
:104743002CE50A24111248C6241112620BE50A242F
:10475300131268FCC0E0124FBED0E0F0D200EE248A
:1047630006F8E43FF91248B91248F454046003020E
:104773004805901972E0F50A750B007407780A1260
:10478300136F8E828F83A3A3A3A3A3A31248B0F0B6
:104793008E828F83A3A3A3A3A3A3E0F50AA3E0F5CB
:1047A3000B7407780A121455E50A5407FCE50960EF
:1047B300618E828F83A3A3A3A3A3A3A3A3A3740242
:1047C300124E1F124BBC600B9016FE125552A3A340
:1047D300126211EC7003024876EE2406F8E43FF906
:1047E300E8FAE91248B9F0EC24FFF50AE434FFF5DE
:1047F3000B7407780A12136F8A8289831248B0F008
:1048030080718E828F83A3A3A3A3A3A3E04480021A
:104813004792EC700575080080598E828F83A3A39D
:10482300A3A3A3A3E05420600C121B4AEA547F798C
:1048330000245F80198E828F83A3A3A3A3A3A3E085
:104843005410601A121B4AEA540F7900240A5001CB
:10485300098E828F83A3A3A3A3F0A3E9800D8E8285
:104863008F83A3A3A3A37401F0A3E41248FD7404EC
:10487300124B3DA20050288E828F83A3A3A3A312C1
:1048830065EAF9EEFAEFFB1226D8E96012126769BE
:1048930060031248DFEEFAEFFB121BEC750800A968
:1048A300088067EE240CF582E43FF58322E0450A95
:1048B300F0A3E0450B228882F583E0547FF0A3E068
:1048C30054FC22F582E4350BF5831268D5EE22A35E
:1048D300E0F9850A82850B831265E4221248E61209
:1048E3004D3C22EE240FF582E43FF58322A3A3A3DC
:1048F300A31248F822126918E02212490122124E2B
:1049030015A3A3A32274031211B17F06020F267409
:10491300F4120BD974F71212647E001226EAEA4BE2
:1049230070030249C58A828B83A3A3A3A3A3A3A372
:10493300A3A3E0640660030249C58A828B83A3A311
:10494300A3A3A3A3A3E0FF8A828B83126EF7E0C025
:10495300E074081214F5D0E0124CED1261FE1262FD
:10496300111226FCEF540860578521828522831299
:1049730062EB7A007B001226CCEA4B7043126F6025
:104983007C007D007A007B0080228E828F83125709
:10499300F7F47003A3E0F460279017101249CA12CA
:1049A3004CCF601C7C007D00EEFAEFFB1226CC8A14
:1049B3000A8B0BAE0AAF0BEE4F70CF790012220AAF
:1049C3007E01EEF9023BAB1249CE22E0FCA3E0FDEF
:1049D3008E828F8322C082C0838A828B83E5824545
:1049E30083700990177580068A828B83A3A3124B69
:1049F300F060208A828B83A3A3A3A3A3A3A3E05481
:104A03000860E5EC4D6010124BF67003A3E06D7087
:104A1300D780047A007B0002596974F2120BD98A99
:104A2300088B09890AECFEEDFF7A147B00121BE662
:104A3300EA4B60378A828B83A3A3A3A3A3A3A3A375
:104A4300A3E4124A8EE50A124CD9EEF0A3EF124A00
:104A53007E124CF4124A858A828B83126F78124A33
:104A630071126667A3124A78F0A3F002490DEA2493
:104A73000FF582E422126F33A3A322124CDFE4F07A
:104A8300A322A3F0126EF012666722124A92221238
:104A93004CE3A3A3A3A32274F5120BD9EAFEEBFF05
:104AA300890A8C088D09EA4F60757401697012795F
:104AB300011226DEE9F890335BE493C39850158026
:104AC3000A7404697009124B2750097911805274D2
:104AD3000269704B8E828F83A3A3A3A3A3A3A3A373
:104AE300A3E50A124B3612520C1267F1A3E4F0A3AA
:104AF300F0901775126770601880031268D188826E
:104B03008983A3A3124BF088828983A3A370EC80CB
:104B130003901775EEF0A3EF124B3D7900800279F5
:104B2300C1024E2879041226DEE9F8903359E49342
:104B3300C398221267F5A3A3A322F07A207B0090E7
:104B4300175DE0F9121B9222C082C083E9F8790055
:104B5300901775801D8A828B83A3A3A3A3A3A3A30A
:104B6300A3A3E068600574FF687001098A828B83E0
:104B7300A3A3124BF070DE02596974F7120BD9EA42
:104B83004B700590177580068A828B83A3A3124B03
:104B9300F0601F8A828B83A3A3A3A3A3A3A3A3A3CE
:104BA300E06970E4EC600F8A828B83124BBC70D88F
:104BB30080047A007B00024CCA126F10E054042276
:104BC300C082C08390177580068A828B83A3A31249
:104BD3004BF060128A828B83A3A3A3A3A3A3A3A3F3
:104BE300E06970E580047A007B000259691265E48C
:104BF300EA4B228A828B831257FB6C2274F2120BCC
:104C0300D98A0A8B0B8C0C8D0D750800750900EA87
:104C13004B602A90177580068E828F83A3A3124C54
:104C230047601AAC0CAD0DEEFAEFFB850A82850BDB
:104C330083122CECE9640170DF8E088F09AA08AB9C
:104C43000902490DE0FEA3E0FFEE4F2274F7120BB9
:104C5300D99017751268D17C007D00800DE8FCE9BE
:104C6300FD88828983A3A31268D1E8496030EA688A
:104C73007002EB6970E79017751265E0E86A7002DD
:104C8300E96B88828983A3A370081268D190177592
:104C930080091268D18C828D83A3A31262118027AD
:104CA30074F7120BD9EAFEEBFFEA4F60151226F6F2
:104CB300124D2812676960031248DFEEFAEFFB1208
:104CC3001BEC80031211B17F01020F261265E4125F
:104CD30021FEE9641A22124CDFA3A322124CE32221
:104CE300F08A828B83A3A3A3A322126F331257FBF1
:104CF30022124A92A32274F6120BD99017751268E6
:104D0300ED801412690A124D281248DFEEFAEFFB08
:104D1300121BECAE08AF09EE4F70E8901775E4F084
:104D2300A3F0025CD98E828F83126EE4F583124D59
:104D33003C8E828F83124D3C22E0FAA3E0FB121BD0
:104D4300EC22C082C083EAFCEBFDEA4D6017EA2443
:104D5300FBF582EB34FF12676E7007124D9AE0F495
:104D63006007121B567905802B90175DE0C0E01297
:104D73004D9AD0E0F090334EE493F97A777B171293
:104D83001B8CE96401700B7A007B20124DA979001A
:104D930080027904025969EA24FFF582EB34FFF5B6
:104DA30083227A207B0090175DE0F9121B92227414
:104DB300F4120BD9A2AFE433F508C2AF9017771200
:104DC3004C476038EE24FBF582EF34FF12676E7AAE
:104DD300007B2090175D6005124DAC8005E0F91251
:104DE3001B98E4F50AF50B780A1211D4EEFCEFFDDB
:104DF3007A777B17121B8674021211B1E508A2E0C1
:104E030092AFEEFAEFFB023BB0124E11E022124ECC
:104E13001522124E1FA3A3A3A3A3A322F08E828F56
:104E230083221211B17F03020F2674F2120BD9747D
:104E3300FA121264EAFEEBFF7508FE7509FF1226EB
:104E4300BAE960057911024FAF1254CF603C901953
:104E53008CE0C43354E0F8E0333354FC48C0E0EE54
:104E6300125EDE3FF583D0E012692CFAA3E0FB79F2
:104E7300FF122492EA4B60127508FFEE240F1254BE
:104E8300D24404F01254CFD2E0F08E828F83124FBB
:104E9300E86006EE2412126944EE24131254D27011
:104EA3000D90335DE493C0E0124FBED0E0F08E82EC
:104EB3008F83E0A2E7500454038019EE24141254A4
:104EC300D270129016EFE0C0E0124FB4D0E0F09031
:104ED30016EFE004F0EE24111254D2640170169020
:104EE3001976E0600D9016FAE0700A8E828F83E0E7
:104EF30070031269418E828F83E064017013EE2484
:104F03000B1257F164027009EE240F1254D244407D
:104F1300F0AC21AD22EEFAEFFB1227268A0A8B0BA7
:104F230074FE6508700374FFF4700312690AEA4B98
:104F330060768E828F83E0C0E074011214F5D0E0B6
:104F4300F074041214F5EEF0A3EFF0EE241E1268D1
:104F5300CB74021214F51262117401121234880C0C
:104F6300890D780C1211D4EE2420124FD11211D8CE
:104F7300124FCC120FAFEE240E124FD11211D89054
:104F83001703120FAF74081214F5E0F9AC08AD095A
:104F930012272074081211B1E9FE74106E700BAA67
:104FA3000AAB0B121BEC80027E10EEF97406024969
:104FB3000AEE2414F582E43FF58322EE124FC32256
:104FC3002413F582E43FF58322EE1248E722F582AB
:104FD300E43FF583E0F50C780C228E828F83A3A344
:104FE300A3A3A3A3A3A3A3124FEE22E0FAA3E0FB80
:104FF3001227C2E922C082C08374D7121264908040
:10500300E3740312124474261210FA8A828B83A368
:10501300A3A3A31268D1740E1214F5126776126853
:10502300D1740C1214F51250F1240D1250E1C0E0AA
:10503300741A1214F5D0E0F012666D1268CF742062
:105043001214F51250F124151250E1C0E074081245
:1050530014F5D0E0F0EA241CF582E43B1268CF7427
:10506300121214F51250F124111250E1C0E0740928
:105073001214F5D0E0F0EA24121250E1C0E07407F4
:105083001214F5D0E0F0EA241EF582E43B1268CF57
:1050930074241214F51250F124201250E1C0E0746C
:1050A300261214F5D0E01250E974FFF074011214C3
:1050B300F574FFF074021214F574FFF09083331249
:1050C3000FAB7404121244740712123C122360745F
:1050D300041211B1790074291211B1025969F582D0
:1050E300E43BF583E022F085218285228322E8F0E8
:1050F300A3E9F0EA2274F4120BD974EC1212648A55
:105103000A8B0B8C088D09E9FF7E107A217B001234
:105113001BE6852182852283EAF0A3EB126780E8F0
:105123004970030252057C217D0079008521828527
:105133002283E0FA121B3E9017101265E08521824C
:105143008522831262EF2409F582E438F58312671E
:105153002C74201214F51268D174111214F5E8128C
:10516300586012673238F5837402125863126EFE68
:10517300740212584D12520C125863126EDBEFF088
:1051830074221214F512580EF9A3E0C9126BD53923
:10519300F583E8125523A3E0C9241FF582E43912ED
:1051A300521374231214F51265E074061214F512E7
:1051B300672C74081214F5E8F074261214F51267BC
:1051C30006C082C083740C1214F5AC82AD83D08305
:1051D300D08274051210FA74251214F5E0C0E0743D
:1051E300131214F5D0E0F07900AA21AB221226C0E5
:1051F300E9640170047E008009852182852283127F
:1052030048E2EEF97414023BADE508F0A3E5092288
:10521300F583E50AF0A3E50BF02274F0120BD974C1
:10522300FF121264EAFEEBFF8C088D098A82F58374
:10523300A37408F0EA24161254D260088A828B837E
:10524300A37410F0EA24171254D260098A828B8364
:10525300A3E02408F0EA1254D060088A828B83A367
:10526300E004F08A828B83A3A3A3A3A3A3E0601922
:105273008A828B83A3A3A3A3A3A3A3E0C3332402A0
:10528300F88A828B83A3E028F0EA24111254DA60AF
:1052930004740E8001E4F0901984E0640170168AAE
:1052A300828B83E06401600D90167EE060071254E8
:1052B300BA740180041254BAE41255238A828B8390
:1052C300A3E0F8EA12377228298C828D83F0EA244E
:1052D300111254D26005125AFB29F0850882850900
:1052E30083E0C394754009750C00750D000254B139
:1052F300E0FA7B00121BE68A0C8B0DEA4B7003026B
:1053030054B18E828F83E0FA90170012551C7402F9
:10531300780812136FEA4508FAAB09EE2412125506
:10532300167406780812136FA808EA48FCEBFD12FE
:1053330054CF6004780180027800EE2416FAE43F2B
:10534300FBE4C8F9ED49FDEE24111254D2F50888A7
:10535300097409780812136FED4509FD8A828B835E
:1053630012551C740B780812136FED4509FDEE24DA
:1053730017125516740C780812136FED4509FD8E3C
:10538300828F83A3A3A3A3A3A312551C740A780833
:1053930012136FED4509FDEE2423125516740D7893
:1053A3000812136FED4509F9EC850C82850D83F026
:1053B300E9A3F0EE24021254F9125538F0EE240456
:1053C3001254F9A3A3125538A3A3F0EE24131255D4
:1053D30009F0EE2414125509A3F0750B088A828B89
:1053E30083E060151267E21262EBE50C2408FAE42D
:1053F300350DFB121CD6750B10EE24171254D26018
:105403001912636E1262EBA80BE50C28FAE4350D52
:10541300FB121CD67408250BF50B8E828F83A3A376
:10542300A3A3A3A3E0604EEE2407F50EE43FF50F1C
:10543300850E82F583E0C0E01254E8D0E0125528CF
:10544300E0C0E0081254EAD0E0125528A312675CCA
:105453001211D0850E82850F83E01257C2A80BE587
:105463000C281254C41211B1850E82850F83E0C338
:1054730033250BF50B1254CF6008C0E01254E8D06B
:10548300E0F0125AB812675C1211D0123771FC7D2A
:105493000074031214F51254F1E0F8E50C28F8E453
:1054A300350DF9E82AFAE4391254C81211B1AA0CDD
:1054B300AB0D7401026745EA2423F582E43FF583CB
:1054C30022FAE4350DFB121B32740322EE2415F588
:1054D30082E43FF583E022F582E43FF583E0852112
:1054E3008285228322A80BE50C281257D522E0FAE5
:1054F3008E828F83A322F8E43FF98882F583E085C7
:105503000C82850D8322F582E43FF583125542A375
:10551300A3A322F582E43FF583E0F5087509002291
:10552300126F21F922F0050B8E828F83A3A3A3A30D
:10553300A3A3A3A322A3A3126918A312554222E093
:10554300850C82850D83A3A3A3227403023BAD12B2
:1055530068D58E828F83A3A32274F0120BD974FDB6
:1055630012126412672674021214F5E9F08C0C8D82
:105573000D750B017C267D007900AA0CAB0D121B67
:105583003E74021214F5E0C39408500302574B1201
:105593005501F0AC0CAD0D8521828522831257F79E
:1055A300FA852182852283125E1D125AF4E9600373
:1055B300750B00852182852283126706125818E035
:1055C300F9EA850C82850D83A3A3A3A3A3A3A3A3B5
:1055D300A3F0A3E912584DA3A3125818A3A3E0F90B
:1055E300E50C126785EA1258601262DBC0E0E50C35
:1055F3002411126F59D0E01258632407F582E4385E
:10560300F583E0C0E0126F55D0E0126719740812F9
:105613005844A3E06026852182852283E02408F88C
:10562300A3E03400F9E50C2413F582E4350D12628E
:105633000F850C82850D83A3E02408F0850C8285F9
:105643000D83A3A3A3A3A3A3A3A3E0602A850C8232
:10565300850D83A385820E85830F125805F8A3E079
:105663003400F9E50C125EDE350D12620F850E82F1
:10567300850F83E02408F01257C9E4F01257DDE4E4
:10568300F0A3126719A3A3A3A3E0601112582985FD
:105693000C82850D83A3A3A3A3A3125855E50C1273
:1056A30057EAE07003025737125829FA1257C9EA2A
:1056B300125855F8852182852283E028FBA3E03424
:1056C300008B82F583E0F8E50C241A126F59E81277
:1056D3005855E8C39AE50C50561257E5F890334FE6
:1056E300E493C39850047E0C8006E50C1257E5FE44
:1056F300850C82850D83125804F508A3E03400F568
:1057030009750A0078081211D0EE1257C27A687B25
:105713000B1254C91211B11257DD7468F0A3740B44
:10572300F0EEC333F8850E82850F83E028800412E0
:1057330057EAE4F0850C82850D83A3E0F8850C829B
:10574300850D83E0C398500479008070125804FAE1
:10575300A3E03400FBE50C12693B126F5C12672C6B
:10576300850C82850D83E0C398C0E0E50C241712F5
:105773006F59D0E0125844E06040E50C2417FEE472
:10578300350DFF8E82F583E024F2F0E50C241DF83D
:10579300E4350DF98882F583E0240EFAA3E03400A2
:1057A300FB8882898312672C9016FBE0F912261876
:1057B300E9F88E828F83E0C398F0A90B0267432533
:1057C300E0FCE433FD22E50C1257CF2224191257D3
:1057D300D522F582E4350DF58322E50C241B1257FF
:1057E300D5221257CFE0221267131257D822F5821F
:1057F300E43FF5831257FB221268DAF5838882E0CF
:1058030022A31258092212580E2822E0F885218279
:10581300852283E022A3A3E0FA85218285228312D5
:10582300670CA3A3A322850C82850D83A385820E17
:1058330085830F125809FAA3E034008A82F583E0C6
:105843002212671DA3A3A3A3A322125868F583887A
:105853008222F0850E82850F83E004F022F0A3E913
:10586300125868C822126F25F8A3E02274F4120BB1
:10587300D98A088B09EA125918A3A3F0EA1313541F
:105883003F12590BA3F0EAC41313125918125922E9
:105893007409780A121455125902A3A3A3A3A3A34C
:1058A300F0EB125904125921740A780A121455E5BF
:1058B3000A5401C0E0EC1267133DF583D0E012599E
:1058C30026740B780A12145512590212591F740CBC
:1058D300780A121455125902A312591F740D780A2B
:1058E300121455E50A5401C0E0EC2424F582E43D8A
:1058F300F583D0E0F0740E7808121455023B9CE552
:105903000A54018C828D8322125911A3A322540FAE
:105913008C828D832254038C828D8322A3A3A3A321
:10592300A3A3A3F08A0A8B0B22C082C08379008AC7
:10593300828B83A3A3A3A3A3A3E09016FA600EE034
:10594300701F8A828B83A3A3E070168012E060111C
:105953001265D3901703E06A7003A3E06B600279CA
:105963000180031265E0D083D08202117E74F212AB
:105973000BD98A0A8B0B890CECFEEDFF8A828B8391
:10598300E0FA125AF4850A82850B83A3A3125AE81C
:10599300E0F9EA8E828F83A3A3A3A3A3A3A3A3A364
:1059A300125B0D125AE8A3A3E0F9125AB8EA125B8C
:1059B3000DA3A3E0C0E0EE2411F582E43FF583D00C
:1059C300E0125B14A3A3A3E0C0E0EE2412F582E48B
:1059D3003FF583D0E01267F17408124B36A3A3A3FB
:1059E300E06017E50A2408F8E4350BF9124FBEE826
:1059F300F0A3E91267F1E02408F08E828F83A3A35A
:105A0300A3A3A3A3A3A3E060188E828F83A3125A38
:105A1300D7EE241512620B850882850983E02408DA
:105A2300F08E828F83A3A3A3A3A3E060248E828F2F
:105A330083A3858208858309E0F8E50A28F582E4D3
:105A4300350B125ACCA3A3F0850882850983E004A1
:105A5300F0EEFAEFFB122738E9F50D70498E828FCD
:105A630083A3A3A3A3A3A3125AC6A37014E0F8E5C8
:105A73000A28FAE4350BFB125AAE12672CE50C80A8
:105A83001A125AD7E8240EF8500109EE241D1262A7
:105A93000B125AFBF9E50CC39924F2C398C0E0EE4C
:105AA300126365D0E0F0A90D02490DEE241DF582C5
:105AB300E43FF58322EE125ABD22240BF582E43F24
:105AC300F58322E08E828F8322F583E08E828F839B
:105AD300A3A3A322858208858309E0F8E50A28F8B1
:105AE300E4350BF922E0FA850A82850B83A3A3A38D
:105AF3002212694D122732229016FBE0F912261862
:105B0300E9F8850882850983E022F0A3E9125B1492
:105B130022F0850A82850B83A3A3A3A322C082C09C
:105B2300837A837B1779E21221D47A837B17025914
