:020000040000FA
:060000000214390208762B
:030013000209CC13
:03002B000211F5CA
:0300330002107E3A
:03003B00020A2195
:030053000207ABF6
:1000830002080A0100F0FF0700080000FFFF00005C
:100093000504000000030001FF18102700000020E2
:1000A300FD000206FFFFFE0400000004E5C6FE0695
:1000B300001F0000AC03FE06001F00B4AC741E0357
:1000C30000770160176617C01D00000000000000E4
:1000D300000000000000000000000000000000001D
:1000E300000000000000000000000000000000000D
:1000F300000000DE1D000000000000000000000002
:100103000000000101E803D00732006400DC009422
:1001130002000000000000000000000000000000DA
:100123000000000000000000000000FF00000000CD
:1001330000000000000000000000000000000104B7
:10014300010C0002071E8200000001040000881554
:10015300000000E8030000FFFFD91588130000E842
:1001630003000064006400B801A0BB0D00A0BB0D38
:10017300000202020704010A1E02051E020A0A0106
:100183000108080103B80B02803E0102FEFFE803E9
:100193000A050001FFFF020A011401E00100B04259
:1001A3003BAAB83F0000003F8C906339AA0CA33AE6
:1001B30000941E3C8042633DCFFE753E1572313F75
:1001C3000000803FF304353F8096184B000080BF4A
:1001D3002292D43EDD9B2A3F04000040FFFF7F7F35
:1001E300FFFF7FFF010080341872313F05030101D7
:1001F3000F3430000000006A2F00000000FF0000F1
:1002030000FF001214676046121485603DE96870B0
:1002130008F618F618F618F622748067F712023AF1
:10022300090909748067F722121485601D12146787
:100233007005191919801A121314701F121328C389
:100243007003E667331919194007181818220808AC
:100253000874FFF618F618F618F62212132860171A
:10026300121505702192F01214F37019501720F033
:1002730014080808090909E7F61819E7F61819E731
:10028300F61819E7F6221214F360E6E869701F08FE
:1002930008E62480F608E436F618547FB47F0CE6AB
:1002A30054806007F6E418F618F622181822E9C6F7
:1002B300CC08C6CD08C6CE08C6CFC0E0E8C0E0EA89
:1002C300C0E0EBC0E009E9F809E7FA09E7FBE6F962
:1002D30018E6F8C3EC98ED99EE9AEBC2E7F5F0EF68
:1002E300C2E795F0500E600CEBCFFBEACEFAE9CDF6
:1002F300F9E8CCF8EAA2E7D2E7FAEB33FB13F5F01F
:10030300EEA2E7D2E7FEEF33FFC5F013A2E730E634
:1003130001B313C5F0C3C0E0C0F07F00C39BFB6013
:100323005E9418600F401D14601AD0E023F9D0E0EA
:10033300F802040C8AF0E9486003D2F0E4AFF0FA63
:10034300F9F8803BEB30E40D89F0EA6003D2F0E486
:10035300AFF0F9CAF8EB30E30D88F0EF6002D2F0AA
:10036300AFF0E4CAC9F8EB54076014FBC3EA13FA0D
:10037300E913F9E813F8EF135002D2E0FFDBEDD0F5
:10038300E0C0E030E739C3E49FFFF5F0EC98FC42AE
:10039300F0ED99FD42F0EE9AFE42F0D0E0F9D0E0A4
:1003A300F8E5F0607AE923F9EE20E742D8028067A6
:1003B300C3EF33FFEC33FCED33FDEE33FE80EAECA9
:1003C30028FCED39FDEE3AFED0E023F9D0E0F84009
:1003D30002801BC3EE13FEED13FDEC13FCEF135071
:1003E30002D2E0FF08B800067F7F74FF802EEF3350
:1003F30050178CF020F00260100CBC000C0DBD00F7
:10040300080EBE000408E860DFE933E813FFEE23BB
:1004130013FE4F4D4C8008E95480FFE4FEFDFCEED3
:1004230033EF33F47004FCFD7E80D0E0FBD0E0FAC0
:10043300D0E0F8D0E0CFC618CEC618CDC618CCC6CB
:10044300F922121485700418181822121467700DFB
:1004530074FFF61819F61819F61819F622E75480DE
:1004630066F61214F3700F12150570F014F608F601
:1004730008F608F680D1121505700CF608F6087612
:100483008008E6447F80EC12132B700C1213176064
:10049300BFE65480F6E480BB1213177005191919CF
:1004A30080A5E869700C763F18768018F618F6E890
:1004B300F922E6CDC0E018ECC0E0E633CD33CDD36E
:1004C30013F6E719FCE7191933CC33C3947F400EB5
:1004D300CD9D502408E65480F6E418F6800FF4040A
:1004E3003D14501408E6447FF6187680E418F61895
:1004F300F6D0E0FCD0E0FD22CCD313CCFD18E4C64B
:10050300CBC0E018E4C6CAC0E00808ED08C633E66D
:1005130013F618E433C675F003C3CA97CA09CB9719
:10052300CB199C40047D08802EBD00030205EE1606
:10053300B6FF050606081618C3CA33CACB33CB3336
:10054300CA27CA09CB37CB193CC37D08803E187D27
:100553000820E75CC633C6CA33CACB33CB33DDF1DD
:10056300D5F0EB30E77BCA97CA09CB974ACB199CE6
:10057300406F4B7025E620E0218066187D08C3CAD2
:1005830097CA09CB97CB199CD3C633C6CA33CACBF8
:1005930033CB3350C9DDE7D5F0E1D3E4C636C60823
:1005A300C636C608C636C608C636C61818188031F9
:1005B300C3CA97CA09CB97CB199CB34097C633C616
:1005C300CA33CACB33CB33DD34D5F02EC6A2E0C653
:1005D30040C8CA27CA09CB37194A70BECB3CB4807E
:1005E300B90808E63308E633601F181818D0E0FA94
:1005F300D0E0FBD0E0FCD0E0FD22187D08CA27CA7A
:1006030009CB37CB193CD3808013F618E4B67F119E
:10061300F618B6FF0EF618C60470D2080876808066
:10062300CAF618F618F680C500121485604F121426
:10063300676012E7548066F61213147011121505E1
:10064300703B090909F4F618F618F618F622121386
:100653002870151214F308080860EAE6447FF618B8
:10066300768018E4F618F6221214F36016121505B4
:100673007012E4F608F608F608E65480F60909094C
:1006830018181822EAC0E0EBC0E0ECC0E0EDC0E0CF
:10069300E687F0A4FBACF008E687F0A42CFCE43575
:1006A300F0FA1809E687F0A42C4B60027401CA35EE
:1006B300F0FCE433FB09E687F0D2F7A42CCB35F04A
:1006C300FC1908E687F0A42BCC35F0FBE433FD08D6
:1006D30019E687F0D2E7A42C4ACB35F0CD3400FCE1
:1006E30009E687F0D2E7A42DCC35F0FDE433FA090F
:1006F30018E687F0D2F7A42CCD35F0CA3400FC08F5
:10070300E687F0D2E7D2F7A42ACC35F07A7E20E749
:100713000B0ACB33CBCD33CDCC33CC33CB335014CB
:100723007004ED30E00ED2F1E4CD3DCDCC3CCC3BBA
:100733005005DA05C2F1EB547FC63308E63392F075
:10074300FBE73309E733C39A502D2B70190C0D4C7B
:100753004D70151806E608C333700D20F10AA2F098
:1007630013F6E418800B4024E4F630F00276801888
:10077300F618F618F68024D33B14501074FFA2F039
:1007830013F6187680E418F618F6800FA2F013F625
:1007930018E63303F618ECF618EDF6D0E0FDD0E0DA
:1007A300FCD0E0FBD0E0FA22C0E074F1120C39A2D5
:1007B300AFE433F509D2AF85A708AFA1EF5508FE23
:1007C30074105E600612182C75A1EF74085E600841
:1007D30012183275A1F78024EFA2E092F0E508A287
:1007E300E082F05017906198E0F8900714E0C39806
:1007F300A2D265D0335002E8F075A1FEE509A2E06C
:1008030092AF7F02020C98C0E074F2120C39A2AFCF
:10081300E433FED2AF9061A4E0F8759B00E59158F4
:10082300540860087591F71218808023E591585495
:100833001060087591EF1218868014E591A2E0927A
:10084300F0E8A2E082F05007E0C2E0F01219DC9079
:1008530061A3E0F8E5E9585404600E1219B275E992
:10086300FB906193E0A2E640F2EEA2E092AF7F013B
:10087300020C98C0E074F2120C39A2AFE433FED23A
:10088300AF9061A5E0F8E5BF585404600675BFFB5F
:100893001219F480D4C3E498F8E499F91208D980C2
:1008A30026C3E49AFAE49BFBE920E7E91208D9E4BA
:1008B30098F8E499F922C3E498F8E499F91208D96D
:1008C300E498F8E499F9C3E49AFAE49BFB22EB2059
:1008D300E7CFE920E7E0B90010BB0008E88AF0841D
:1008E300F8AAF022E4FBC8FA22EB70227B10C8338B
:1008F300C8C933C9335007C39AC3DBF280069A5081
:10090300012ADBEAC833F4C8C933F4C9FA2275F003
:1009130008E4C833C8C933C933C99AC99B5004C949
:100923002AC93BD5F0ECFBC833F4C8E4C9FA221258
:10093300097D30F0391209C2803412097D20F01488
:1009430030E72B74FFFCFBFA747F8022E4FCFBFA94
:100953007480801AB48008BC00F2BB00EF800F5093
:10096300EBF9E4C39AFAE49BFBE49CFCE499C6CC60
:1009730018C6CB18C6CA18C6F922E4C9C608CAC61F
:1009830008CBC6D3330308CCC63392F0C3947F405D
:100993002E94184019C9B90704CACBCC225025C3D9
:1009A30009CA33CACB33CBCC33CC33D9F422F4606A
:1009B3000DC9CCC313CB13CBCA13CAD9F6CC22E4CB
:1009C300FCFBFA2214FCFBFA22C0E0C0D0E8C0E032
:1009D300E9C0E0C082C083A8C1E8C0E0900681E01E
:1009E300F8740028F582E43406F583D0E0F090062D
:1009F30080E0F8A3E0687006E595900683F0900622
:100A030081E004F0C394804002E4F0A374C6F0D004
:100A130083D082D0E0F9D0E0F8D0D0D0E032C0E08B
:100A2300C0D0E8C0E0E9C0E0C082C083900704E022
:100A3300F8A3E0687008539AFBA374018022C2E90B
:100A4300900704E0F8740128F0748428F582E434F4
:100A530006F583E0F5C1900704E0C394804002E407
:100A6300F080AC080808EAC0E0EBC0E086F0E7A439
:100A7300FA180986F0E7A42AFA180986F0E7A42AE7
:100A8300FA180986F0E7A42AFA1986F0E7A4FBE529
:100A9300F02AFA190886F0E7A42BFBE5F03AFA19D5
:100AA3000886F0E7A42BFBE5F03AFA18180986F05C
:100AB300E7A4C5F02BFBE43AFA1908E7C5F0C6A48E
:100AC30026F6E5F03BFBE43AFA1886F0E7A4F6E5F0
:100AD300F00826F6E43B08F6E43A08F6D0E0FBD04B
:100AE300E0FA22080808E630E7111212EC120AFEB7
:100AF300080808C64480C618181822181818E97977
:100B03009EC608CAC608CBC608CCC6C37020799651
:100B1300CACBCC7019798ECBCC70137986CC700E7E
:100B2300F9802ACA33CACB33CBCC33CC331930E761
:100B3300F2CCCBCA3350147004EA30E00DE4CA3A65
:100B4300CACB3BCBCC3CCC500209C3E913C6CC186F
:100B53002313C6CB18C6CA18C6F922E4CFC0E0E4F3
:100B6300CEC0E0E4CDC0E0E4CCC0E075F020E626E2
:100B7300F608E633F608E633F608E633F6181818EF
:100B8300EC33FCED33FDEE33FEEF33FFC3EC97099B
:100B9300ED9709EE9709EF97191919400FFFEC9795
:100BA300FC09ED97FD09EE97FE191906D5F0BFEC88
:100BB300F709EDF709EEF709EFF7191919D0E0FC7A
:100BC300D0E0FDD0E0FED0E0FF222521C582C0E0C9
:100BD300E52234FFC583C0E0E521C3958224F810E4
:100BE300AF0885832285822180088583228582211F
:100BF300D2AFCEF0A3E520F0A37808E608F0A3DE99
:100C0300FAEFF0A3E58124FAF8E608F0A3E608F08A
:100C1300A3E608F0A30808E608F0A3E608F0A31586
:100C2300811581D0E0FED0E0F8158115811581E8AA
:100C3300C0E0EEC0E022C0D02521C582C0E0E5229D
:100C430034FFC583C0E0E521C3958224F310AF08C8
:100C53008583228582218008858322858221D2AFE4
:100C6300C8F0A3E9F0A3EAF0A3EBF0A37908E7093E
:100C7300F0A3D8FAECF0A3EDF0A3EEF0A3EFF0A30A
:100C8300D0E0F0A3D0E0F0A3D0E0F0A3E520F0A300
:100C9300E5F0F0A322852283852182E0C0E0A3E072
:100CA300F9A3E0FAA3E0FBA37808E0F608A3DFFAD0
:100CB300E0FCA3E0FDA3E0FEA3E0FFA3E0C0E0A30C
:100CC300E0C0E0A3E0F5D0A3E0F520A3E0A3F5F0B6
:100CD30010AF08858322858221800885832285823F
:100CE30021D2AFD082D083D0E0F8D0E0321212EF1D
:100CF300181818120B5E1213E8191919221213E8A7
:100D0300191919080808E618181820E7E0120B5EED
:100D13001212EF18181822090909E719191920E7FF
:100D2300DC080808E618181820E703020B5E121205
:100D3300EF181818120B5E1212EF1818181213E896
:100D4300191919221214DEB90003020D86E4900565
:100D530001787779148002F0A3D8FCD9FA7A777BEB
:100D630018900086788179028015E493A3AD82AE52
:100D7300838A828B83F0A3AA82AB838D828E83D8EE
:100D8300E9D9E77582B5758388740512116C75828C
:100D93007275832C740012116C75F0108E238F24DE
:100DA300858228858327852182852283E0CEA3E05F
:100DB300CF852882852783EBC9EAC8EDCBECCAC36C
:100DC300E833C8E933C9EA33CAEB33CBC3EA9EF548
:100DD30026EB9FF525B35004AB25AA26EC33CCEDC7
:100DE30033CDD5F0DAAE23AF2422121485601C1262
:100DF300146760171214F370071215057001D322DC
:100E0300C0D01215057006D0D0B322C32233D0D080
:100E1300501430E0F6C3E7960809E7960809E79609
:100E23000809E796B32220E0D5E6970809E6970874
:100E330009E6970809E697B322121485601B12147A
:100E43006760161214F37007121505600CB322C005
:100E5300D01215057005D0D022C32233D0D0501341
:100E630030E0EBC3E7960809E7960809E796080917
:100E7300E7962220E0E4E6970809E6970809E69753
:100E83000809E69722D083D082ECC0E0EDC0E0E40D
:100E930093A3FCE493A3FDED4C600D120F60EC24CF
:100EA300FFFCED34FFFD80EFE493A3FCE493A3FD8B
:100EB300ED4C600D121029EC24FFFCED34FFFD8096
:100EC300EFD0E0FDD0E0FCE493A3C0E0E493C0E006
:100ED30022D083D082E9C0E0E493A3C386F0C5F0B7
:100EE30095F0F908E493A386F0C5F095F0700BE450
:100EF30093A3C3994005E9048002A3E475F002A417
:100F03002582F582E5F03583F583D0E0F9E493A3F8
:100F1300C0E0E493C0E022852283852182E0A3FE22
:100F2300E0A3F5207808E0A3F608DFFAE0A3FFE0EA
:100F3300A3C0E0E0A3C0E0E0A3C0E0E0A3C0E0E022
:100F4300A3C0E010AF0885822185832280088582B3
:100F530021858322D2AFD083D082021172C0E0C335
:100F6300E49396087401939618400FE4936670080F
:100F730008740193661870007019A3A3C3E49396D1
:100F8300087401939618A3A3400DD0E0D0E0D0E0FD
:100F9300020EC4A3A3A3A3A3A3D0E02274048004DA
:100FA30074028000CCC0E0EDC0E0E521C39CCCAD71
:100FB3002250011D10AF068C218D2280068C218DBD
:100FC30022D2AF1210EED0E0FDD0E0FC22740280FA
:100FD30000CCC0E0EDC0E0E521C39CCCAD225001C4
:100FE3001D10AF068C218D2280068C218D22D2AF5D
:100FF3001210CCD0E0FDD0E0FC2212148560251243
:10100300146760201214F37003021505080808E73B
:101013006670101819E766700A1819E766700418E5
:1010230019E76622F422C0E0C0F088F0E49366700A
:10103300080874019366187000A8F0A3A3700BD07E
:10104300F0D0E0D0E0D0E0020EC4A3A3D0F0D0E013
:1010530022D083D082CCC0E0E493A3600612112E89
:101063001470FAE493A3600612126E1470FAD0E0BF
:10107300FCE493A3C0E0E493C0E022C0E074F21266
:101083000C39A2AFE433FED2AFE58BA2E050057971
:101093000412177E758B00C2E8EEA2E092AF7F01C7
:1010A300020C98C008C3E096F50808A3E09642082E
:1010B30008A3E096420808A3E0964208A2D265D0AE
:1010C30033E5087001D3D00822CAC0E0E493A3C576
:1010D30082CCC582C583CDC583F0A3C582CCC5822E
:1010E300C583CDC583DAE5D0E0CA22CAC0E0E0A358
:1010F300C582CCC582C583CDC583F0A3C582CCC5CB
:1011030082C583CDC583DAE6D0E0CA227009080818
:1011130008226016181818C6C333C608C633C60893
:10112300C633C608C633C6D5E0EA22C0E0E493A3BB
:10113300D39C5010E493A3C39C400AD0E0D0E0D0EA
:10114300E0021071A3A3A3D0E022C008C3E096F588
:101153000808A3E096420808A3E096420808A3E023
:101163009645087001D3D00822C09FF59FE473D041
:101173009F22D083D082C09FE493C0E0740193C0C8
:10118300E0740293F59F222521F58210AF08F52123
:10119300400C15228008F52140021522D2AF85228A
:1011A300832200C0D0252110AF08F521500C052261
:1011B3008008F52150020522D2AFD0D022740480DA
:1011C3000A74038006740280027401C0E0F40412FE
:1011D300118AD0E01214A122BB0102E722C082C00F
:1011E3008389828A83BB0003E08002E493D083D0A7
:1011F3008222C0E0C0D0E8C0E0A8A8D2AFC2C7E84E
:10120300A2E792AFD0E0F8D0D0D0E0326016080861
:1012130008C6C313C618C613C618C613C618C61302
:10122300C6D5E0EA222521F8E43522F9222521FA60
:10123300E43522FB222521FCE43522FD22C3E0C64E
:1012430096F608A3E0C696F608A3E0C696F608A3AA
:10125300E0C696F622252110AF08F521400C152291
:101263008008F52140021522D2AF22C0E0E493A307
:101273006C7009D0E0D0E0D0E0021071A3A3D0E0FD
:1012830022C3E7960809E7960809E7960809E7964F
:10129300A2D265D03322E76670100809E766700AA8
:1012A3000809E76670040809E76622C3E09608A305
:1012B300E09608A3E09608A3E096A2D265D0332275
:1012C300E066701008A3E066700A08A3E066700485
:1012D30008A3E06622C3E096F008A3E096F008A313
:1012E300E096F008A3E096F022181818E4C396F6E7
:1012F30008E496F608E496F608E496F622C3E69721
:10130300F60809E697F60809E697F60809E697F658
:1013130022181818E60846087009E626087005E63C
:1013230033F4220822191919E70947097009E72735
:10133300097005E733F4220922C3E4939608740184
:1013430093960874029396087403939622E026F00A
:1013530008A3E036F008A3E036F008A3E036F02255
:10136300700422600D18C6C333C608C633C6D5E061
:10137300F41822E657F60809E657F60809E657F681
:101383000809E657F622E627F60809E637F60809BC
:10139300E637F60809E637F622E026F608A3E03634
:1013A300F608A3E036F608A3E036F622E056F60880
:1013B300A3E056F608A3E056F608A3E056F622E6A5
:1013C30047F60809E647F60809E647F60809E64737
:1013D300F622E056F008A3E056F008A3E056F00822
:1013E300A3E056F022E4C397F709E497F709E497DB
:1013F300F709E497F722600D08C6A2E713C618C6DB
:1014030013C6D5E0F322C6F4C608C6F4C608C6F46C
:10141300C608C6F4C622C3E09608A3E09608A3E074
:101423009608A3E09622C3E7960809E7960809E71A
:10143300960809E7962275D00075813F75210175DD
:10144300220500020D47600C08C6C313C618C61355
:10145300C6D5E0F422E6F008A3E6F008A3E6F00818
:10146300A3E6F022E7094709C3134709336002E7FC
:1014730033F422E0F608A3E0F608A3E0F608A3E0BD
:10148300F622E6084608C3134608336002E633F43F
:1014930022800100E9F874FF28F90470F622CAC01B
:1014A300E0E6F0A308DAFAD0E0FA22E0F8A3E0F9E4
:1014B300A3E0FAA3E0FB22E8F0A3E9F0A3EAF0A398
:1014C300EBF022EAF0A3EBF0A3ECF0A3EDF022E0C3
:1014D300FAA3E0FBA3E0FCA3E0FD22E5C754F84434
:1014E30001F5C77901222521F582E43522F583220E
:1014F300E62618461846184622C2AF75D69F020044
:101503000022E72719471947194722121175E0DC12
:10151300021211757ADD02121175EADD02121175DC
:1015230019DE021211751FDF0212117549DF021253
:1015330011759DDF0212117571E0021211759FE2A0
:10154300021211754DE302121175BAE502121175FB
:101553003FE60212117542E90212117576EB02128F
:101563001175B2EB021211750BED021211751EED1E
:10157300021211755BED0212117524EF021211753F
:10158300ABF00112117527F1011211755AF1011215
:10159300117588F101121175C6F10112117503F469
:1015A3000112117522F40112117567F401121175FC
:1015B300FDF40112117549F501121175DDF50112E2
:1015C3001175B6F60112117512F70112117570F744
:1015D30001121175E3F70112117527F80112117544
:1015E3007FF801121175A1F80112117531F9011279
:1015F3001175C2F9011211750EFA011211753AFA39
:10160300011211757BFA0112117511FC011211758A
:10161300FDFC01121175D8FD01121175DC92041243
:101623001175709304121175D89304121175FD94FA
:10163300041211758795041211751296041211750F
:101643004E9604121175E796041211757C970412D5
:1016530011754F9804121175319A04121175279B55
:1016630004121175C69B041211751B9C041211758B
:10167300899C04121175959F04121175BFA1041260
:101683001175C0A204121175FEA30412117509A4E9
:10169300041211750080051211752C800512117545
:1016A3004780051211756C80051211750C810512A6
:1016B3001175CB8105121175F5810512117571989C
:1016C30005121175769805121175A99805121175F1
:1016D3008084051211753F85051211752486051244
:1016E300117576930512117587930512117525945B
:1016F300051211753094051211754A94051211756E
:10170300FA7F00121175A999051211754F960512EA
:1017130011755F9605121175749605121175DA9697
:1017230005121175729005121175F6900512117557
:101733005E910512117523F70412117541F7041216
:10174300117576F7041211759BF704121175BEF724
:1017530004121175F9F70412117526F804121175A4
:101763006DF8041211750CF90412117577920512B4
:101773001175FE92051211750793051211752E93BB
:1017830005121175FB980512117596F9041211755E
:10179300E0F90412117576FA04121175FCFA0412B9
:1017A30011752EFB0412117546FB04121175BAFB59
:1017B30004121175D0FB04121175E3FB04121175A9
:1017C300EDFB0412117536CE0412117562CE0412AC
:1017D3001175CCD0041211750CD10412117548D1B6
:1017E300041211755CD10412117575D104121175AF
:1017F30067D2041211751AD3041211752ED3041271
:10180300117555FE0412117579FE0412117592FEBD
:1018130004121175D0FE0412117500FF0412117524
:101823002DFF0412117593FF0412117596FF041214
:101833001175A0FF04121175ADFF0412117536FD69
:101843000312117556FD0312117595FD03121175DF
:10185300B3FD03121175CEFD0312117534FE03128D
:10186300117540FE031211759DFE03121175ACFE36
:1018730003121175D0FE0312117591FF0312117536
:101883009EFF03121175AFFF03121175B7FF041208
:101893001175CFFF04121175FBFF0412117584D368
:1018A30004121175D8D404121175E6D404121175FB
:1018B300F9D4041211750ED50412117523D504122F
:1018C300117536D504121175B2D50412117517D6D8
:1018D30004121175ADD60412117586D70412117551
:1018E30096D704121175A5D704121175B695051272
:1018F3001175DA95051211750296051211752A965E
:101903000512117500FC0412117527FC04121175E0
:1019130045FC04121175B4FC0412117554EE041243
:1019230011756DEE0412117579EE041211758DEEB9
:1019330004121175ABEE04121175B5EE0412117594
:10194300BFEE04121175D2EE041211755CEF04128E
:101953001175D1EF0412117505F00412117553F0CE
:1019630004121175A0F004121175BBF00412117565
:10197300C5F004121175EBF00412117550F1041245
:1019830011755994051211757B94051211758F9970
:101993000512117512B4041211753EB404121175B7
:1019A3005BB4041211756EB40412117589B4041278
:1019B3001175E3B40412117511B50412117525B92B
:1019C3000412117583BA04121175B5BA0412117594
:1019D30018BB041211759DBC04121175C5BC041209
:1019E3001175DABC04121175EABC041211752ABD13
:1019F300041211756CBD041211757CBD04121175AE
:101A0300088C05121175228C051211754A8C05126A
:101A13001175638C05121175878C05121175A58CD0
:101A230005121175BC8C05121175EA8C051211751E
:101A3300058D05121175B7980512117560E404122E
:101A4300117570E40412117575E504121175A7E59B
:101A530004121175D7E504121175FAE50412117514
:101A630011E6041211754BE604121175B0E6041267
:101A73001175F2E60412117539E70412117566E760
:101A83000412117591E704121175B28A05121175CA
:101A9300C48A05121175D88B05121175DB8B0512DB
:101AA30011756C8F05121175A28F05121175BA8FFE
:101AB30005121175FC8F051211750C900512117525
:101AC3005090051211755A900512117544C70412EE
:101AD300117587C704121175ECC7041211750BC871
:101AE30004121175ADC804121175B6C8041211752C
:101AF30007C90412117530C9041211753DC90412C6
:101B03001175AFC9041211753DCA0412117582CA49
:101B130004121175BBCA0412117520CB041211757E
:101B230049CB04121175C0CB041211750FCC0412EA
:101B330011754CCC0412117581CC0412117593CC20
:101B430004121175A5CC04121175C4CC04121175BD
:101B5300CDCC0412117589CD04121175CCCD0412AC
:101B630011750ACE04121175BA9705121175B2FEDA
:101B730001121175428205121175788205121175D1
:101B8300C0820512117519840512117525DE031221
:101B930011754BDF0312117587DF0312117545E1D0
:101BA3000312117573E103121175DDE3031211754D
:101BB3001DE403121175BFE50312117555E60312F7
:101BC3001175AFE6031211753FE70312117583E731
:101BD30003121175C5E7031211752AE90312117572
:101BE300AAEA03121175EBEC0312117519ED031236
:101BF300117545ED031211754EED03121175ABED21
:101C03000312117544EE031211755BF10312117582
:101C1300E1F1031211758E7F00121175A47F00127A
:101C23001175F0FB0212117506FC02121175AAFC64
:101C330002121175E9FC0212117506FD02121175EB
:101C430037FD0212117584FD02121175B8FD0212DF
:101C53001175F3FD02121175E8FF021211757791E8
:101C630005121175D691051211751492051211758D
:101C73005592051211750995051211757295051284
:101C83001175929505121175568E05121175148FE3
:101C930005121175AEC001121175BAC0011211758A
:101CA3001CC10112117526C101121175B5C10112B2
:101CB3001175F1C101121175E3C20112117540C30F
:101CC30001121175CEC3011211751FC401121175D2
:101CD3009FC40112117565C6011211755FC8011207
:101CE300117561C90112117593CA01121175E9CCFD
:101CF300011211752BCE01121175D1CE011211757E
:101D03008FD3011211758CD40112117522D50112D2
:101D1300117552D501121175EFD5011211750CD63B
:101D2300011211752CD6011211759AD60112117573
:101D3300B7D601121175E5D6011211757FD80112BC
:101D43001175A0D80112117546D9011211758ED9DA
:101D530001121175ECD9011211758ADA011211758C
:101D6300EFDA0112117558DB0112117596DB0112BE
:101D7300117548DC01121175B3DC01121175EFDC2A
:101D83000112117560DD01121175ABDE01121175BF
:101D93003BE001121175D4E00112117525E3011224
:101DA30011758AE301121175B8E301121175FEE88A
:101DB30001121175C2EB01121175C2EC01121175FA
:101DC300008004121175208004121175D082041250
:101DD30011758A85041211753988041211756D887D
:101DE30004121175968804121175BC8804121175BA
:101DF3000189041211759D8A04121175FD8A04125A
:101E03001175098C041211751B8C04121175CF8C7A
:101E130004121175E08C04121175BF8D0412117533
:101E2300CB8E04121175548F04121175D48F0412C2
:101E33001175B39004121175E99104121175339958
:101E430005121175E9E704121175A8E8041211755A
:101E53000EE904121175BDE904121175CEC80312FF
:101E63001175FDC80312117575C90312117584CA62
:101E730003121175E0CA031211754DCC03121175CB
:101E830069CC03121175BBCC03121175F9CC031283
:101E930011750CCD0312117564CD0312117526CE85
:101EA30003121175A2CE03121175D9CE0312117547
:101EB30011CF0312117599D00312117578D1031242
:101EC3001175C6D203121175A9D30312117535D436
:101ED3000312117575D40312117594D4031211757D
:101EE300DFD403121175FFD40312117598D50312B1
:101EF30011751ED60312117579D603121175B9D651
:101F0300031211754FD90312117568DA0312117593
:101F1300AEDA03121175D8DB0312117500DC03125C
:101F2300117503DC031211750DDC0312117529DC25
:101F330003121175A3DC03121175DCDC0312117596
:101F430008DD031211752FDD0312117553DD031222
:101F53001175C4DD03121175D7DD0312117506DE89
:101F630003121175E49605121175F0960512117599
:101F7300249705121175FD7F00121175B6B2031275
:101F83001175D9B2031211751EB40312117567B41A
:101F930003121175D3B40312117531B50312117500
:101FA30034B50312117585B503121175FAB5031211
:101FB30011757FB60312117582B60312117503B73B
:101FC3000312117544B703121175FEC6041211757D
:101FD300DABC031211752ABD03121175B9C00312BD
:101FE3001175ECC10312117541C3031211759CDC09
:101FF30002121175C9C4031211752CC7031211758E
:1020030048A404121175F2A4041211755DA50412FB
:10201300117578A504121175FDA50412117557A643
:10202300041211759EA60412117505A704121175E9
:1020330084A804121175B3A9041211753BAA0412E2
:10204300117544AC04121175F1AC04121175C7ADCE
:102053000412117582AF04121175A6DA02121175FA
:10206300ADB104121175D3B20412117500800312BD
:102073001175638003121175AB8003121175EF8024
:10208300031211754A8103121175A7810312117589
:10209300E28103121175648203121175BE82031269
:1020A30011753C8403121175BC84031211751785D5
:1020B30003121175318503121175528503121175BF
:1020C300AC85031211752888031211754788031212
:1020D30011753789031211756A8A03121175E98A1A
:1020E30003121175258B03121175948B031211754D
:1020F300498C03121175218E03121175288F031257
:102103001175A090031211759692031211750C9517
:1021130003121175E69603121175A7970312117531
:102123001F98031211753698031211752D99031216
:102133001175219A03121175909A031211755BF1AF
:1021430004121175B2F20412117571F304121175B0
:10215300D9F3041211752FEB041211754AEB041213
:1021630011758EEB04121175B4EB04121175DBEBD0
:1021730004121175F3EB0412117595EC0412117529
:10218300AAEC04121175CDED04121175D6ED0412EB
:102193001175DFED04121175E8ED04121175F2EDFE
:1021A30004121175D6D704121175E2DB04121175EE
:1021B300E7DB04121175E9DB041211753F8905127F
:1021C3001175DDFF031211754DF404121175388D6D
:1021D30005121175599705121175A6860512117509
:1021E30063990512117588E004121175129805128E
:1021F300117522980512117550DC0412117535AC56
:102203000212117568AC02121175D4AC0212117569
:102213006FAD021211750CAE0212117551AE02129E
:10222300117573AE021211758CAE02121175B2AE36
:1022330002121175D4AE0212117512AF021211758A
:1022430056AF0212117578AF02121175DAAF02128E
:102253001175A1B00212117558B102121175CAB1EC
:102263000212117595B202121175E8B202121175BC
:102273004EB30212117588B302121175DAB302124A
:10228300117548B402121175B3B402121175B6B4C4
:102293000212117537B502121175CEB502121175FE
:1022A3004EB6021211756DB602121175D1B7021234
:1022B3001175DEB702121175EAB802121175F7B87B
:1022C3000212117500B902121175D8BA02121175F2
:1022D300F2BB021211756BBC02121175DDBC021246
:1022E3001175FFBC0212117593BD0212117567BF00
:1022F300021211753EC30212117552C302121175F7
:1023030062C3021211756CC30212117575C30212F6
:1023130011757EC30212117588C302121175B5C3FC
:1023230002121175DEC302121175E9C3021211758F
:102333000DC40212117531C4021211759BC402122D
:102343001175E1C402121175FEC4021211757BC529
:1023530002121175B2C502121175F1C5021211757F
:102363003EC602121175C4C60212117592C802123A
:10237300117515C902121175F9C90212117560CCD4
:1023830002121175B9CC0212117503CD0212117527
:102393005ECE0212117593CE02121175E5CE0212B2
:1023A30011759ACF0212117549D00212117586D098
:1023B300021211751BD10212117587D10212117508
:1023C300D13200121175033300121175313300122B
:1023D3001175073500121175E735001211753F3677
:1023E300001211757A3700121175C6370012117574
:1023F300EF3A00121175E23D00121175323F0012DF
:102403001175C83F00121175D43F001211750640B3
:10241300001211758941001211753A4300121175AA
:10242300CE43001211751144001211758F4400122E
:102433001175AC4400121175DC440012117511457D
:1024430000121175E145001211758A4600121175CB
:10245300104900121175304A001211751B4B0012FE
:1024630011759D4B00121175D14F001211750E504D
:1024730000121175665000121175995000121175F2
:10248300035100121175395100121175C451001214
:1024930011751C5200121175F35200121175AC53D1
:1024A300001211754754001211754F570012117520
:1024B3006B58001211750E5C00121175025D00124B
:1024C3001175055D00121175345D001211753A5FC7
:1024D3000012117513600012117556600012117508
:1024E300AC6100121175EB61001211757462001278
:1024F3001175A862001211756D630012117585655F
:1025030000121175F6650012117536660012117509
:10251300C46600121175E66700121175A8680012EF
:102523001175AF6A00121175C76A00121175DB6A63
:1025330000121175136B00121175416B00121175A6
:10254300C06C00121175E56D00121175426E001218
:102553001175F46E001211751B6F00121175E26F85
:10256300001211757A7000121175A07200121175A4
:10257300D572001211753873001211756774001249
:1025830011750F750012117540750012117558758C
:1025930000121175E775001211759B780012117501
:1025A300737A001211758F7A00121175AB7A0012CB
:1025B3001175797B001211756C7F00121175B78349
:1025C30001121175E98301121175D8870112117572
:1025D3002488011211756A88011211750C89011280
:1025E3001175688901121175AD8901121175F48A8B
:1025F30001121175088C01121175F78F01121175F3
:102603007B9001121175889101121175E4910112E9
:102613001175D493011211754994011211755394D4
:10262300011211756094011211758B9401121175C9
:102633007295011211751C96011211759A96011269
:102643001175BA9601121175E3960112117505976A
:10265300011211756599011211752B9A01121175E9
:10266300709A01121175ED9A011211759E9B011258
:102673001175D09B01121175169C01121175529C94
:1026830001121175A29C01121175F69C01121175AC
:102693004C9D01121175989D01121175059E011231
:1026A3001175809E011211754BA0011211754BA17A
:1026B3000112117570A201121175AFA501121175E6
:1026C300C2A8011211757FA901121175C3A90112C4
:1026D300117573AB0112117587AB0112117591ABB3
:1026E300011211759BAB01121175A7AB0112117584
:1026F300C3AB011211756EAC01121175ADAC0112B1
:102703001175B7AC01121175C1AC0112117531AD60
:10271300011211757CAD0112117591AE0112117583
:10272300EDAE011211756EAF011211752DB00112CC
:10273300117536B1011211756AB20112117558B3D0
:102743000112117570B301121175CBB3011211751A
:10275300E9B30112117531B40112117558B40112A4
:102763001175F3B401121175B9B5011211754BB698
:1027730001121175C5B601121175DFB7011211757A
:102783008CB801121175B4B90112117504BA011292
:10279300117568BA01121175CABA01121175F8BA26
:1027A300011211751CBB0112117551BB0112117578
:1027B30082BB01121175B5BB01121175D5BB011294
:1027C30011753DBC0112117531BD011211758CBD1E
:1027D30001121175B5BD011211753DBE01121175BE
:1027E300C0BE01121175EBBE01121175D0BF0112EB
:1027F3001175DBF00212117513F10212117534F128
:102803000212117576F102121175D8F102121175C7
:10281300E2F102121175F2F1021211752DF2021298
:1028230011750DF602121175FAF702121175E0F91E
:102833000212117577FA0212117519FB0212117542
:10284300248102121175A28102121175FE810212F6
:1028530011754982021211756482021211758F82F9
:1028630002121175AC8202121175B882021211752F
:102873004F8402121175688402121175ED840212DD
:1028830011750085021211751F8502121175C3851A
:1028930002121175448702121175F788021211751D
:1028A3008D8902121175908902121175008A021224
:1028B30011751E8A02121175B58A02121175FD8AED
:1028C30002121175008B02121175C68B021211755B
:1028D300338C02121175598C02121175E48C021299
:1028E3001175028D02121175488D02121175FC8D3E
:1028F30002121175468E02121175758E0212117530
:10290300D28E02121175078F02121175338F0212C4
:102913001175418F021211758E8F02121175FE8F80
:1029230002121175479002121175939002121175DC
:10293300BF9002121175CA9002121175E89002122B
:102943001175D39102121175DD910212117518924E
:102953000212117528920212117531920212117529
:10296300859202121175999202121175C89302127F
:102973001175DD93021211756B9402121175B094E7
:10298300021211753C9502121175479502121175C9
:10299300899602121175A49602121175F09602120D
:1029A30011755F9702121175989702121175B297FC
:1029B30002121175F49702121175C49A021211755D
:1029C300719B02121175DE9B021211751E9E02127B
:1029D3001175369E02121175399E02121175459EAC
:1029E30002121175599E02121175619E0212117520
:1029F300949E02121175969F021211751DA0021268
:102A030011758DA0021211750FA102121175D0A1BB
:102A130002121175EFA10212117590A20212117523
:102A2300EDA202121175F0A20212117564A3021233
:102A33001175B3A402121175B9A50212117544A63A
:102A4300021211755FA70212117527A802121175E0
:102A530058A8021211757BA80212117584A80212DC
:102A63001175B3A80212117543A902121175F9A9C0
:102A7300021211756EAA0212117515AB02121175AD
:102A83008AAB02121175C1AB02121175FFAB0212B0
:102A930011754BDC02121175CAC60412117573C687
:102AA30004121175E1C40412117533C404121175B3
:102AB30029C4041211751FC404121175B8C304127A
:102AC3001175A4C30412117501C30412117501C257
:102AD300041211751AC1041211750ABF041211757B
:102AE3009ADB02121175DEC30312117518BE0412AC
:102AF3001175B6BD0412117576DA02121175CAD9B1
:102B030002121175A2B20312117598B20312117554
:102B13002DB20312117561B0031211751FB00312A8
:102B2300117523AF03121175F7AE03121175AEAE13
:102B330003121175EFAD03121175F2AA0312117589
:102B4300C7A8031211756EA80312117501A8031209
:102B53001175C0A703121175F9A60312117593A677
:102B63000312117532A603121175D2A50312117542
:102B7300A9A4031211753DA40312117595A30312A1
:102B8300117590A30312117584A303121175B79FD6
:102B93000312117563D7021211751AD4021211753B
:102BA3006ED302121175DCD20212117596D2021283
:102BB300117561D2021211752ED202121175919FF5
:102BC300031211752F9F03121175D19E03121175F4
:102BD3008F9E0312117519D2021211757C9E031276
:102BE3001175719E03121175409E03121175309C6D
:102BF3000312117506DB02121175A39B03121175E3
:102C03001AB1041211755F9B03121175339B0312E2
:102C13001175C6FC0312117599FC0312117566FC3C
:102C2300031211753EFC03121175DFFB03121175BC
:102C3300BFFB031211758AFB0312117536F80312D9
:102C430011751EF60312117508F40312117588F33A
:102C53000312117534F30312117540F20312117547
:102C6300EED102121175E8F20312117530BB0300A5
:102C7300000080FB000022E4738F0001008C1987A1
:102C83000001008A1935000400531925000200577A
:102C930019260002005919270002005B19280001B8
:102CA3000065192900010066198400040065168671
:102CB30000010085182A00010067192B0001006834
:102CC300192C0001006C192D00080071162E00014B
:102CD300006D192F0001006E19300001006F1931CA
:102CE3000001007019320001007916330001007AE7
:102CF30016340001007119360001007B16380001FB
:102D0300007219390001006B1983000200881963EE
:102D13000001008716640001006919650001006A5B
:102D2300196D00010088167100080069166600011C
:102D330000871943000100781944000200791945FE
:102D43000001007B19460002007C19470008007F40
:102D530016480001007E194B0001007F1904000191
:102D6300008B19A10001008F19370001008E19880B
:102D73000001008D193C0001007C163D0001007329
:102D8300194900020080196700010089164D0002ED
:102D93000082194E00010084194F00020085193E7C
:102DA3000001007719510001007D165200010075E2
:102DB30019530001007619540001007E160000002B
:102DC300000000000000002001B18300000100208A
:102DD30001B383000002002001B58300000300203B
:102DE30001B2830000040042014582000005004255
:102DF3000182810000060042012C8200000700309E
:102E030001B68300000040420187820000FEFF21DB
:102E130001AF830300000021235A150300FEFF21A5
:102E230001AF8302040000290515190204100229C9
:102E33002305190304000029051B190304100029A5
:102E4300051D190304140028011F19030410022B84
:102E53002307190504000021051919050410022987
:102E6300230B190D04000039050F190D040202107C
:102E730023F8180D0403021023F7180D040402218C
:102E830023F9180D0405022123FB180D0411F11079
:102E9300230D192B040000390522192B04100228D5
:102EA300230E192B0404022123FD182B04050221F0
:102EB30023FF18000136360101000102010001035E
:102EC30001000104010606050200000701003408A1
:102ED30001000F090401010D0100FF0E0800001796
:102EE300020000190100FF1A0100011B0100FE1C72
:102EF3000100081D0200001F010001200100012143
:102F03000200002301000F24020000260100012714
:102F1300010008280200FF2A0100072B0102402CB0
:102F23000100002D0100012E0100012F0100FF30DF
:102F3300010B1D310800003A0100083B01000F3C62
:102F43000100013D0100FF3E040000420400004671
:102F53000400004A0400004E04000052040000561E
:102F63000400005A0400000103710301030103017B
:102F730003010301032203020301031003000300FF
:102F830003000300030003000300034203000324C0
:102F9300030603000300030403120325032303258D
:102FA3000323030403040300030003000344030097
:102FB300030003230300036503210035038103009A
:102FC3000305030003000300030003250323030198
:102FD300017101010101011101010131010101012E
:102FE300018001100161013B001400630173017250
:102FF30001620143010001130106013D0135000493
:103003000112010001000100010001040104013368
:103013000133013C01440132013600000100016526
:1030230001000135008101000105018201830100D6
:1030330001030071003001600011007000310220B3
:10304300035004800010006100000014006300734B
:10305300007200620043000000130006000000003D
:10306300000400120000000000000000000400043F
:1030730000370037003C024400000000000000005D
:10308300006500000035008100000005000000839A
:10309300000000030271023001600211027002019C
:1030A30002020202028002100261023A004100633E
:1030B300027302720262024302000213023800002A
:1030C30002000204021202000200020002000204D3
:1030D300020402370037003C0244020002390000B8
:1030E300020002650200023502810200020502822B
:1030F300028302000236000100060000000F0000F8
:10310300000000000000000000000003FFFF0000BB
:103113000403FFFF0000FFFF0FF4010005C40403D5
:1031230020000100000B000000000000000003016C
:103133000F0000000000000000000000000000007D
:10314300000000000000000000000000000000007C
:103153000000007E1DA81D841DB21C8A1DAE1D8AA1
:103163001DBA1D901DB21C8A1DAE1D961DB21C00FA
:103173000000009C1DB21C0000000000000000A223
:103183001DB21C0000000000000000000000000051
:10319300000000000000000000000000000000002C
:1031A300000000000000000000000000000000001C
:1031B300002A2001002A200200A01F02809A1F0378
:1031C30000A61F0400AC1F0480B21F0500B81F0631
:1031D30000C41F3100D61F3300DC1F3400E21FFF81
:1031E300FF000007ECFDFDFDECDCDCCCBCACAC9CD3
:1031F3009C8C7C7C6C6C5C5C5C4C4C3C3C2C2C1C3C
:103203001C0A3626020026050C260706260CE8258E
:103213000DF425FF000000160F00000B150B020034
:1032230002220F3300000E0F5A6967426565416C35
:103233006C69616E63653039D0D1D2D3D4D5D6D71A
:10324300D8D9DADBDCDDDEDF150AF4D4C0A595823C
:1032530072636155504900034D4C4651181A2505B8
:103263000200011916181616182303003030161819
:103273001920231A1C1E30303017181921301B1D3A
:103283001F30003C40423A3F3F392F47300C0E027B
:103293000B040B0A0708000F0204020101010109D4
:1032A3000200BE040AE8030000E8030100F6FB4B3A
:1032B300320300E6311A0010030A0C040A080A0359
:1032C3002802180A1E1015FF00FF041E091EC082E3
:1032D300C0831215809016B474D8F0A37423F090B1
:1032E30016B674DEF0A37423F09016B874E4F0A35A
:1032F3007423F09016BA74EAF0A37423F002600CFE
:1033030074F7120BCD9016A8E4F0E99016A7F07CA1
:103313007F7D167AA97B16121C7090197EE0901699
:10332300B1F09016B27469F0A3741602429974F066
:10333300120BCDEAFEEBFF548070030234A2901609
:10334300A712432E700302349BEA241B125B99706D
:103353007CEA241F125B9964137002A3E0706E8AE7
:10336300828B831234F09016C212512B750A0075AA
:103373000B00800D12416F12720B121B86AA0EAB4B
:103383000FEA4B60488A828B83E0650C7004A3E0EC
:10339300650D702C8A828B83A3A3A3A3E0F50EA3F0
:1033A300E0F50FE50A450B8A828B83A3A3A3A360F1
:1033B300C3124471850A82850B83A3A3A3A380B799
:1033C3008A0A8B0B8A828B8312512780B4E50824E7
:1033D3002A125B99FCE5082402F8E43509F9E8FAB6
:1033E300E9FB9016C21235D7A3A3E06402703C8AAE
:1033F300828B8312512B800B88828983A3A3A3A37F
:10340300124471E849601F88828983E06A7003A3CC
:10341300E06B70E488828983A3A3E06C70DA90196F
:1034230084125EC9806BECF9122414850882850925
:1034330083E06401704FE50824181234D91211CCCB
:103443001267B3120F9FE50824121234D91211CC5C
:10345300E5081243221211C8E508240B1267B712BC
:103463000FA3E50824171242BFE5082402FCE43544
:1034730009FDE5082419FAE43509FB122C48740AFE
:103483001211A5800CE064027007AA08AB0912248C
:10349300F2AA08AB09121AF0EEFAEF6480802DEA63
:1034A3005402600C9019E37401F0EA6402FA802379
:1034B300EA5408601A12240EEA4B700B9016C412D9
:1034C300668E7A081234E6EE6408FAEFFB80047A1B
:1034D300007B00026E3DF582E43509F583E0F50AD1
:1034E300780A22FB9016A7E0F9121C4622A3A3E058
:1034F300F50CA3E0F50D227B009016A7E0F9121C52
:103503003A74042274F4120BCD8A088B098A828BD5
:1035130083A3A3A3124F231242CA38F583E02409DD
:10352300FA126DD570030235CA8A828B8374021234
:103533004F988508828509831235D7E8F0A3E912ED
:103543006A4F8A828B83A3A3A3A3A3A3A3A3F0E5B8
:10355300082403F8E435091235CC1242CA3AF5833C
:10356300E08E828B83A3A3A3A3F0EE2409FAE43FA6
:10357300FB8E828F83A3A312617BF5838882E0A2F3
:10358300E58E828F83A3A3A3A3A3500474018001B8
:10359300E4F0E5082403F582898312512BEA1256DD
:1035A300AC3BF583126D9C1211C41242C93B1262EB
:1035B3006D8E828F83A3A3127F4B1211A5EEFAEFB8
:1035C300FB9016A7126E228016F98882F583E0FA23
:1035D300A3E0CA221252C8A3A32274021211A57F28
:1035E30004020F1A74F2120BCD8A088B09ECFAED60
:1035F300FB740E1214E9E0FC1215B68A0C8B0DAEA7
:103603000CAF0DEA4F6030AC08AD091215A4E960A8
:1036130026AC08AD09EEFAEFFB1215AAE970148E79
:10362300828F8312445EFAEFFB12159EAA08AB0940
:103633001215CE7900800279B402521774F0120B7E
:10364300CD74F6121258EAFEEBFF8C088D09750F44
:10365300B3852182852283E4F0750E008002050E76
:103663009032C1E493F8E50EC3984003023766AA8B
:103673000E7B001215F28A0A8B0BEA4B60E08A82FA
:103683008B83A3A312376D28F0F8C3EE98EF940051
:1036930050CC7C157D007900AA08AB09121AD88595
:1036A3000A82850B83A3A3A3A3127248E0F8EEC397
:1036B300982925E0F8E433F9E50A28F582E50B3982
:1036C300F583A3A3A3A3A3A31242D4A3125CF08AFA
:1036D3000C8B0DAC0CAD0DAA08AB09121C70850A3E
:1036E30082850B83A3E06401700A1267B37401122D
:1036F30042E680447401121238850A82850B8312D4
:1037030051291215DAE9603D74091214E9E0C0E0A9
:103713001267B3D0E0F074091214E9E06403701384
:103723007401121238E508240BFAE43509FB121C64
:1037330070801274011214E9124471E508125CD608
:103743003509127209850A82850B831267BF1242FB
:10375300E6A3A3E0C0E0E50824141267B7D0E0F0C5
:10376300750F00A90F740A026E3AA3A3A3E0F885AC
:103773002182852283E02274F7120BCDE9FE8A822F
:103783008B83A3A3A3A3A3A3E0540860338A828BF0
:1037930083A3A3A3A3A3A3E0540260218A828B8300
:1037A300A3A3A3A3A3A3A3A3A3E06406600F74E945
:1037B3006E600A74CD6E600574F06E70031223F6AA
:1037C300024B1674F0120BCD74EF121258740F12D1
:1037D30014E912657274081214E9E9F0ECFEEDFFC6
:1037E30074051214E91248DE124B02A3E0F9121514
:1037F300C274061214E912657274061214E91257A0
:103803003D7003023A8112430EE0FA74061214E982
:10381300E0F9122336123AE1F8A3E0F9E84970031C
:10382300023A81EE2403F50AE43FF50BEE2406F594
:1038330008E43FF5097C00850882F58312512B8546
:103843000A82850B83E0F91215C874031214E91276
:103853006572850A82850B83E0C0E085218285221B
:1038630083123ADAD0E0125852F9852182852283F5
:103873001241761253A4123770FAA3E0CA2407F553
:1038830082E43AF583E8F0A3E412657D2406F58229
:10389300E438F583E4127215124F171211C4EE12B5
:1038A30042CA3F12626D74031214E9124F232409B2
:1038B300127F451211A574291214E91272421235AE
:1038C300D11258653A127209742B1214E9E0C0E060
:1038D300852182852283125704D0E0F074021214EA
:1038E300E9E4F074251214E978081214760239D841
:1038F30074031214E91262358882F583123AC9A35C
:10390300A3A3125CFBFB1215E0850E82850F83A334
:10391300EAF0A3EBF074031214E9123ADAA3123AB1
:10392300C9125F0AA2E6500F850E82850F83A3A3F7
:10393300A3A3A3E0D2E1F074051214E9E0706B8550
:103943000E82850F83A3124471901702E0687003FF
:10395300A3E0697055850E82850F83A3A3A312424A
:10396300A9750C00780C1211CC78081211C07429B7
:103973001214E9E0F50C780C1211CC74271214E937
:10398300120FA390170F120FA3790074191214E9E1
:103993001250FB12253A740A1211A5850E82850F67
:1039A30083A3A3A3A3A3E04405F074021214E9E0E4
:1039B30004FC8E828F831251258E828F83A3A3A34F
:1039C300E0F91215C874031214E912657274021235
:1039D30014E9E004F074031214E912573D606774AC
:1039E300021214E9E0FA74061214E9124471C3EAEC
:1039F30098E499505174021214E9123DB38521825F
:103A0300852283E028F8A3E039F9E8240FF50EE4D2
:103A130039F50F850E82F583E4F074031214E9126D
:103A23003AD4640160030238F374051214E9740193
:103A3300126E28F074031214E9125FFC123DD6E8EB
:103A4300F0A3E902391785218285228312512B12B3
:103A5300233C852182852283120FA374261214E945
:103A6300E0FD74251214E9E0FC740A1214E9E0F98C
:103A7300EEFAEFFB1223F074021211A580438E823B
:103A83008F83A3A3A3E0C0E0740C1214E9D0E0F089
:103A9300126C91E0C0E0740D1214E9D0E0F07406EA
:103AA3001214E912573D7009740E1214E974B980A7
:103AB30007740E1214E97410F074091212301225EF
:103AC300347411026E3AE0850E82850F83A3A3A39B
:103AD30022E012582AE022E012582AA3A3228521C9
:103AE30082852283EAF0A3EB1257462274F0120B6D
:103AF300CD74E112125874041214E9E9F07403123C
:103B030014E9ECF074021214E9EDF08A0E8B0F74D1
:103B13002F1214E91234F2AA0CFB12232A74011295
:103B230014E9E9F0AA0CAB0D12233074011214E965
:103B3300E07003023DAE852182852283E480158EE9
:103B4300828F83A3A3A3A3A3E0D2E3F0852182857D
:103B53002283E004126D80F8852182852283E0C3ED
:103B6300984003023DA574011214E9E07003023D7D
:103B7300A5852182852283123DB3E50C28F8E50D46
:103B830039F9E8240FFEE439FF8E82F583A3A3A35A
:103B9300A3A3E0A2E040B5750800750A08750B0001
:103BA30074021214E9E060037508207C087D007933
:103BB300007405121230121AD88E828F83E0603E91
:103BC300901752E06401701AE508D2E3F508750B0B
:103BD30010123DC31214E9E8F0A3E9125BEE74FF7F
:103BE300807643080C750A0C8E828F83A3123DCE18
:103BF30012720B74051214E974FFF0A3805A740453
:103C03001214E9E06009E508D2E6F508750A0A8EA0
:103C1300828F83A3E064FE7003A3E0F47030741218
:103C23001214E974041267DDF8741D1214E9E81222
:103C33004F9874121212301222587D007C007900C2
:103C430074151214E9AA82AB83122012800B123D61
:103C5300C31214E9E8F0A3E9F074071214E9E508C4
:103C6300F0124305C0E074091214E9D0E0F0740ABD
:103C73001214E97401F074051212301224F874114D
:103C83001214E9E06003023D83740D1214E9125823
:103C93004D8E828F83A3A3A3A3F0740D1214E91294
:103CA3004F66E50AF0A3E50BF074031214E9E0C0D4
:103CB300E0124EF7D0E0125F0A6011901752E0C095
:103CC300E0740D1214E9124F41D0E0F0740D121498
:103CD300E9124471850C82850D83A3A3A3A3A312C8
:103CE3003DBC241C12656C127225123DBE125EBCD3
:103CF30039126CB0C0E0124EDED0E0126D75C0E038
:103D0300740D1214E9124A24D0E0126A76C0E074EA
:103D13000D1214E9124A1AD0E0F0740D1214E912CC
:103D23003DCE123DBC242A12656C850E82850F831D
:103D3300A3A3A3A3A3A3A3A3E01265651242F4C0A4
:103D4300E0124A06D0E0F0740D1214E912512B85EB
:103D53000E82850F83126D8B2428F582E43B127249
:103D6300091242FD126D9C1211C4126266EA1264BA
:103D7300FE3B127F491211A574051212301224FE64
:103D83008E828F83A3A3A3A3A3E0D2E0F0741112C6
:103D930014E9E06003023B4274011214E9E01402E7
:103DA3003B4E7900AA0CAB0D1223FC741F026E3A32
:103DB300E075F007A4F8A9F022A3A312512FE8227B
:103DC3008E828F83A3124475740522E0123DD6A31D
:103DD300A3A322F8A3E0F9850E82850F83A322749F
:103DE300F0120BCD74E8121258E9852182852283E3
:103DF300F08A0E8B0F8A828B83A3A3A3A3A3A3A30F
:103E0300A3E0F91223548A088B09EA4B7003023E9C
:103E1300BFE50E1256C012431D1242B4852182859E
:103E23002283E06003023EC27C04850E82850F83F9
:103E3300A3A3A3A3A3A3A3A3E0F912235AEE4F6062
:103E43007B8E828F83A3A3A3A312447174071214DE
:103E5300E91266A312447174091214E9124FC8C01F
:103E6300E074111214E9D0E0126A54A3A3A3A3A32C
:103E7300A3A3124471740F1214E912720B74121279
:103E830014E9E4126E30C8241FF582E438F5831276
:103E93006231C413135403FC70027C048E828F833B
:103EA300E0F978081211C8742059FD744059F97467
:103EB300031212301223F074021211A5026E387C21
:103EC30008850E82850F83A3A3A3A3A3A3A3A3E0C3
:103ED300F912235A8B0BEA4B7003023E40EE4F60FC
:103EE300DB852182852283E0F50C780C1211CC85C9
:103EF3000882850983A3A3A3A3A3A3A3E0F50C7856
:103F03000C1211CC8A828B83A3A3A3E0FB8A828544
:103F13000B83127A688A82850B83E0FA8E828F8301
:103F2300A3A3E0F9122C4E74021211A5023E4474AD
:103F3300F7120BCD74FA121258E9FE780179017F5A
:103F430000800379000F1252A7E0FCEFC39C5026B8
:103F5300EF75F007A4FC85F008AD08EA2CFCEB3DF7
:103F6300FD124896E0A2E050DA540C60D6E0A2E2DB
:103F730050D3780080CF8A828B83A3A3A3A3A3A368
:103F8300E0703DE9A2E0400574016E70338A828BD4
:103F930083A3A3A3A3A3A37401124286E0C0E07486
:103FA300031214E9D0E01248F5E0C0E074041214DF
:103FB300E9D0E0F074051214E9E81261D012253457
:103FC3007406024B13C082C08379011223FC026082
:103FD3000C74F4120BCDEA4B9019E36019E4F08AE8
:103FE300088B09F50AF50B78081211C07A0212340E
:103FF300FA1211A5800A7401F07A027B001234E7E9
:104003000235E274F0120BCD74F3121258740312DA
:1040130014E9E4F0A3F09016C21242B4740112142E
:10402300E9E4F0A3124F9D04F09016FCE0A2E350E4
:10403300030240F912427A74091214E91214BA7491
:10404300091214E978081214769016C4780812122B
:104053004074051214E9780812145812417D74054E
:104063001214E9780812141950077A017B000241EF
:104073006A74051214E9780C121476901983E0F52A
:1040830009780C7908120B5EA80CA90D901984E02D
:10409300C398E4995003E08001E885218285228357
:1040A300F074091214E97808121476C008C009C024
:1040B3000AC00B74051214E9780C12147612417DB0
:1040C300780C7908120B5EE4F50AF50BD00FD00ECD
:1040D300D00DD00C780C79081213009016C4780C0C
:1040E300121458801112416F12720BEEFAEFFB1289
:1040F3001B86AE08AF09EE4F60658E828F83123741
:104103006DC398502DEE2403F8E43FF9E0FA88825A
:104113008983E0C39AF0602374031214E91245D72C
:1041230074011214E9EEF0A3EF1266BEFEA3E0FFE2
:1041330080C48E828F83A3A3A3E4F08E828F831225
:104143007F0274011214E912573D8E828F83A3A359
:10415300A3A360911266971214E9124176808974C1
:10416300031214E912512B740D026E3A1244759026
:1041730016C22212625CA3A3A322901982127F0AA1
:10418300E4F50AF50B2274F0120BCD8A088B09892A
:104193000A780079009016C21242B4FBEE4B601EFF
:1041A300088E828F83A3A3A3A31250F5601008E89F
:1041B3007001098E828F831242B0EA4F70E3901927
:1041C3008512512BC3E89AE99B400302426D7A069C
:1041D300124270A80CA90DEA49700302426D8A824B
:1041E3008B83E508F0A3E50912428FE50AF09019E5
:1041F300841252AF124286A3E4F0A3F09016C212C7
:1042030050F5600D8E828F83A3A3A3A312720B803C
:10421300179016C212720B9016FCE0A2E34009122B
:10422300427A9016C41214BA9016FCE0A2E3503AF4
:104233007A087B009016A7E0F9121C4CEA4B4C4D10
:104243007028901982E0F508A3E085080CF50DE4C9
:10425300F50EF50F780C1211C07A087B009016A7A3
:10426300E0F9121C4074041211A5026E3D7B00128A
:104273001B808A0C8B0D22121C58EAF8EBF9ECFA1E
:10428300EDFB2212428A2212428FA322F08A828BF2
:1042930083A3A322E508F0024B16F08E828F83A33B
:1042A300A3A3A3A3A322125BA7A3A3F022A3A3A365
:1042B300A3E0FEA3E0FF227F05020F1AF582E43597
:1042C30009F583E0F922EA1242CE222410F582E4B2
:1042D300221242DCA3A3A3A3221244798508828578
:1042E3000983221242EA22F0850A82850B83A3A363
:1042F30022E50E241112431AE022E50E240E124386
:104303001A22E50E241012431AE02212431222EE5F
:104313001242CE3FF58322F582E4350FF583222442
:104323000FF50AE43509F50B780A22E0F9121B02AE
:104333008A088B09EA4B2274F2120BCD890B8A0887
:104343008B098A828B8312512B122420EA4B60043F
:1043530079B8806A12242CE9F89032BAE493F9E828
:10436300C399400479B280567A15124270AE0CAFED
:104373000DEA4F7004791080458A828B83E4F0A3A1
:1043830012428FE50BF0750A0078081211C47C12F3
:104393007D00EA2403126D471211A59016C8125727
:1043A3003D70089016C8800C12447188828983126C
:1043B30043C470F4EEF0A3EFF012243E79000252EE
:1043C3001712512FEA4B8882898322C082C08390BF
:1043D30016C880048C828D83127A69EC4D60288C18
:1043E300828D83A3A3E069600574FF6970E68C8204
:1043F3008D83A3A3A3E06A7003A3E06B70D6EC24C0
:1044030003FAE43DFB80047A007B0002600C74F73E
:10441300120BCDE9FD74FE6D70047C0180027C00FB
:104423009016C880096D70027C01888289831257B7
:104433003D601F88828983A3A3A3E06A7003A3E07E
:104443006B70E7ECA2E088828983A3A3E050D6F9DE
:10445300800279FE024B16EEF9800CA3A3127F0AA9
:10446300EE2274021211A57F02020F1AF583124481
:10447300752212447922E0F8A3E0F9221244798EDE
:10448300828F83221211A57F03020F1AC082C08379
:1044930079009016C8800109E0FAA3E08A82F583C7
:1044A300E582458370F102600C74F6120BCDE4F5DE
:1044B30008F50978081211C89032BAE49375F0131D
:1044C300A4A9F01245CC1272691211A5E9FE740970
:1044D3006E700312243802445A74F6120BCD74FE24
:1044E300121258852182852283E4F0A3F0A821A922
:1044F300228808890978081211C87508027509000D
:1045030078081211C8126EDA1211A502446574F507
:10451300120BCD74EB121258852182852283E4F0AD
:10452300A3F09016C880748E828F83A3A3E0C0E0AB
:1045330074021214E9D0E0125BEEA982AA838908FF
:104543008A09750A0078081211C47C127D0074066A
:104553001214E912722E1211A5740212122888087D
:10456300890978081211C8750813750900780812AB
:1045730011C874041214E91256E075F013A4F8AAD2
:10458300F075F013E91245C8126EE21211A58521E8
:10459300828522831245D78E828F831242B4EE4FD7
:1045A3007085A821A9228808890978081211C8757D
:1045B300080275090078081211C8126EDA1211A5E3
:1045C3007415024487A42AF9E82402FCE439FD7A2D
:1045D300427B0022E02401F0A3E03400F02274F4D3
:1045E300120BCD74EB1212587E007F00A821A92272
:1045F3008808890978081211C87508028E09780895
:104603001211C87C007D007A421272751211A5E95D
:10461300706C8E0880567402121228880A890B78EF
:104623000A1211C8750A13750B00780A1211C8E52E
:104633000875F013A4F8AAF075F013E5091245C83C
:104643001272771211A5E9701B74031214E9AA827E
:10465300AB8374021214E9E0F912241AE970050E0F
:10466300EE70010F0508E5087002050985218285B2
:104673002283124471C3E50898E509994098EEFA3C
:10468300EFFB74150235DF74F6120BCD8C828D832C
:10469300A3A31248E3F0EA1265043BF583E0C0E00C
:1046A3001248A0D0E0F0EA241DF582E43B12446FE7
:1046B3001248841248DEF0A3F0EA241FF582E43B9B
:1046C300F5831242B4EC1248773DF583EEF0A3EF85
:1046D300F012487D3BF5831248AEA3A3A3A3A3A383
:1046E300EEF0A3EF12615FFE8C828D831248ED74AE
:1046F300035EFEC39403400302486AEE600874023B
:104703006E600302478F8C828D83E0540CFE740C21
:104713006E70030247CEE0A2E4400D88828983E0F5
:104723008C828D83A312490374086E60030247CE03
:1047330012488E7401F08A828B83A3A3A3A3A312CE
:104743005BB470148C828D83E0440C1248F5A3A3F0
:104753001248AEEEF0A3EFF08C828D83E0A2E4402A
:104763002B88821248BC1248D1500109F5821248A5
:10477300BCA3A3A3A3A3A3F0A3EF1248FD8C828D34
:1047830083A3A3A3F0E82403F85001098882898353
:10479300E0C0E0EC2411F582E43DF583D0E012485B
:1047A300ED8C828D83E0A2E7507588828983E0FED9
:1047B3008C828D8312490374FC5E700C8C828D8312
:1047C300A3E054036403701E02486A12488EE4F0A7
:1047D300740C6E600302473988821248C21248D1B2
:1047E30050010902475B8C828D83A3E0540360323E
:1047F30088828983E0C0E0EC1248A83DF583D0E0CD
:104803001249048C828D83E05403640270148882FD
:104813008983E0C0E0124896D0E01249048003A3E4
:10482300E4F0EC1256AC3D127209EC2410FEE43DA8
:10483300FFEA241DF582E43BF583E0F5088E828FC1
:1048430083E0C3982508F508F0EA2417F8E43BF958
:104853008882F583E0C39508C0E0124884D0E01253
:10486300615FC39508500A124884E4F01248A0E43B
:10487300F002446A2415F582E422EA240DF582E469
:1048830022EC240DF582E43DF58322EC1258653DBC
:10489300F58322EC2414F582E43DF58322EC1242E5
:1048A300CE3DF583222413F582E422E0FEA3E0FF4C
:1048B3008C828D83A3A3A3A3221248C2A3A322891C
:1048C30083E0F508A3E0FFE5088C828D8322A3A390
:1048D300A3A3F0A3EFF0E82402F8221248E3A322F3
:1048E300E4F08C828D83A3A3A32212490BA882A98F
:1048F300832212428AA3A3A3A32212490BA3E02279
:10490300A312490B08A98322126168A32274F4122B
:104913000BCD74F31212588A0A8B0BECFEEDFF8C4D
:1049230082F583E0540CF508E0A2E75006E508D2CF
:10493300E7F508E508D2E1F508125BB47006E5086F
:10494300D2E4F508E0A2E55006E508D2E5F5087CD7
:10495300087D007900AA21AB22121AD8740212141E
:10496300E9E50812720FC0E074031214E9D0E012F3
:104973004F9DE50AF0A3E50BF074051214E9126AE2
:104983007B1214E9E0707774081214E9124F2312B2
:10499300615138126A96C0E074081214E9124A246D
:1049A300D0E0126A76C0E074081214E9124A1AD0F1
:1049B300E0F074081214E9124A10E0124F4B124F40
:1049C300CC126565EE2411125B80C0E0124A06D05A
:1049D300E0F0EE2414125B80C0E074081214E912B4
:1049E3004F232435F582E438F583D0E0124F70C0AD
:1049F300E074081214E9124F27D0E01267CF740D48
:104A03000235DFE82432F582E439F5832212447F4C
:104A1300A3A3A3A3A3A322124F37126C7538F58364
:104A230022124F372426F582E438F5832274F712D5
:104A33000BCD7E008A828B83A3A3A3A3A3A3A3A3EB
:104A4300A3E064046003024AF212585DE0600302CB
:104A53004AF21256BF3B12573B7003024AF2888256
:104A63008983E054036003024AF2E812586539F57A
:104A730083E0FA8C828D83A3A3E0FBA3E0CB241114
:104A8300F582E43BF583E06A706588828983A3A39A
:104A9300A3A3A3A3A3A3A3124AF6E06A7003A3E00C
:104AA3006B704C88828983A3A3124B02E0FFA3E0BF
:104AB300CF2406125B806A7003A3E06B7031888297
:104AC3008983A3A3E0F88C828D83A3A3E0F9A3E0F9
:104AD300F5838982A3A3E06860138C828D83A3A3EB
:104AE300A3E0F5838982E0540C640470027E01EE36
:104AF300F98020124AFA221251338C828D8322A329
:104B0300A3124AFAA3A322740C1214E9E0F9740D58
:104B13001211A57F01020F1A74F6120BCD74FC1249
:104B23001258EAFEEBFFECFAEDFB8C82F583A3E06F
:104B3300540360169016BE12573D60597900EEFC7F
:104B4300EFFD12635C122C7A804B852182852283D0
:104B5300EEF0A3EFF074021214E9124F92AC21AD00
:104B6300227A567B2412267E8A088B09A808A90973
:104B7300EA4960218A828B83A3A3A3A3A3A3A3A34C
:104B8300A37406F07A0088828B83124F2312652563
:104B9300E0F91225DC740402446774F2120BCD743D
:104BA300F3121258EAFEEBFF8A82F583A3A3A3A3B1
:104BB300A3A3A3A3A3A3E0F50A9019E3E0700579E7
:104BC300BA024EDB750801750900750C00750D00FE
:104BD3007C087D007900AA21AB22121AD874051231
:104BE30014E97401124FA55404601274021214E9FB
:104BF300E0D2E6124FA554087003750803E0541081
:104C0300600674404508F508E054086022740212F7
:104C130014E9E044C0124FA55420600A740312142F
:104C2300E9E0D2E0800874031214E9E0D2E1F0EE87
:104C33002415125B80124F0B7003740169700674A4
:104C4300084508F5088E828F83A3A3A3A3A3A3A378
:104C5300A3E070161226D8852182852283126572FD
:104C630074021214E9E0D2E28030640F701074020F
:104C73001214E9124FAD74044508F508807F8E8243
:104C83008F83A3A3A3A3A3A3A3A3E064028E828F12
:104C930083700A127242E8F0A3E9F08060A3A3A331
:104CA300A3A3A3A3A3E06403700DAC21AD22EEFA8A
:104CB300EFFB12248C80468E828F83A3A3A3A3A32E
:104CC300A3A3A3E064017035901752E0601074024F
:104CD3001214E9124FAD750910750AFF801874029A
:104CE3001214E9E0440C124F9D74FDF0A374FFF01D
:104CF30074044508F5088E828F831234F2EE24156E
:104D0300125B80A2E0503F74021214E9E0540C706D
:104D13001B8E828F8312512B1220D8E9700579BB29
:104D2300024EDB74021214E9E0D2E5F0EE24151210
:104D33005B80A2E0501074021214E9E0540C640486
:104D43007004E0D2E5F0EE2411125B80C0E074043D
:104D53001214E9D0E0126A7D1214E9E06003024EF6
:104D6300D474081214E9124F66E508F0A3E509F0BC
:104D7300124F01E0C0E0124EF7D0E0F0124EE8E02F
:104D8300C0E074081214E9124F231248A838F583BF
:104D9300D0E0124FCC64017011901752E0C0E07460
:104DA300081214E9124F41D0E0F074081214E9120A
:104DB3004F61124EF2FAE8241CF582E439F583EAD6
:104DC300124F98EE2415FAE43FFB8A82F583127A98
:104DD30069E8125EBC39F583124F92EE241C125B14
:104DE30080C0E0124EDED0E0126002124F0B70035F
:104DF300740169701374081214E912584DFAEE2401
:104E03001D125B80F91223608E828F83A3A3A3A359
:104E1300A3A3A3A3A3E0C0E074081214E9124A24D5
:104E2300D0E0F074081214E9124A1AE50AF0740883
:104E33001214E91256E02428F582E439F583E50CCF
:104E4300F0A3E50D124F78124F4B125BF912656513
:104E5300EE124EF2C0E0E82433F582E439F583D054
:104E6300E0F0EE241B125B80C0E074081214E91218
:104E73004F27D0E0F0EE241A125B80C0E0740812D2
:104E830014E9124F232432F582E438F583D0E0127B
:104E93004F70124F171211C4126C7B127A69740B84
:104EA3001214E9124F23242F127F451211A5EE2469
:104EB30015125B80544060129016DE12573D600A53
:104EC300AA21AB2212635C122C7AAA21AB221224F0
:104ED300FE740C1214E9E0F9025212E82420F58260
:104EE300E439F58322EE2419F582E43FF583221297
:104EF3006C8AE022E82412F582E439F58322EE2459
:104F030018F582E43FF583225480F8A3E05401F9B5
:104F130074806822F508A3E0F509750A0078082271
:104F2300124F3722124F372434F582E438F58322A7
:104F3300A3A3A3A3124F3B22E0F8A3E0C822124F7E
:104F43003712487738F58322FAA3E0FBE8242AF5E1
:104F530082E439F583EAF0A3EB22A3A3A3A31244CB
:104F630075EE221256E41256C439F58322F0EE246C
:104F730013125C0122F0EE240D125C0122E0FC8A84
:104F8300828B83E02CFCA3E03400FD8A828B83ECCC
:104F9300F0A3EDF022F0A3E4F022F0852182852234
:104FA3008322F0EE2415125C0122E0D2E3F0124FCB
:104FB300B5228E828F83124479852182852283E8EC
:104FC300F0A3E9F022E8F0A3E91266B8E02274F74F
:104FD300120BCD8A828B83A3E0640170047E63800D
:104FE300027E648A828B83E060087905125005246F
:104FF300F3FE9016FAE06007F912500524F2FE0260
:105003004AF21225A6E9F8EEC3982274F6120BCDE4
:1050130074FE121258852182852283126572E9FE7D
:10502300ECFAEDFB9005C212573D6032A821A9228C
:105033008808890978081211C87D01740E1214E9D1
:10504300E0FCEEF99005C2126546122C7A74021246
:1050530011A5EA4B60047900800679B2800279B623
:1050630002446574F7120BCDE9FE9016B412573D56
:10507300601F74091214E9E0F50878081211CCEEE8
:10508300F99016B4126546122C7A74011211A58098
:105093000279B6024B1674F7120BCD8908ECFEEDBC
:1050A300FF79B5E508245E602014600624F86034B7
:1050B300803D9005C41250F56035127286122C7A29
:1050C3008E828F8312657280249016B6127A69ECF1
:1050D3004D601CEEFCEFFD9016B6126546122C7A5D
:1050E300E9F9800B9016B21250FB121C7079000282
:1050F3004B1612512FEA4B22127A6DEEFAEFFB2276
:1051030074F7120BCDE9FE79B574AB6E700B901684
:10511300B212512B121C707900024B168E828F83B0
:10512300A3A3A3A3A3A3A3A312512F2212513322F8
:10513300E0FAA3E0FB2274F1120BCDEAFEEBFF8C45
:105143000A8D0B750801901702E06E7003A3E06FE0
:10515300700C125206AA0AAB0B121C70805E122648
:10516300DEEE6A7002EF6B7009AA0AAB0B1226E43B
:10517300804AAC0AAD0BEEFAEFFB122234E9F508D4
:1051830090198AE07036122B82E97030E508702C92
:105193009016D2E06E7003A3E06F7020EE4F601C98
:1051A300750CCA750D16750E00780C1211C47C08A7
:1051B3007D00AA0AAB0B1272321211A5A908027B59
:1051C3006574F2120BCDEAFEEBFF8C088D09750AAC
:1051D30001125206EEFAEFFB121C6AE96401701128
:1051E30090170212447185088285098312720B801D
:1051F3000EAC08AD09EEFAEFFB12223AE9F50AA963
:105203000A80111226D28A0C8B0DAC0CAD0D2274C0
:105213000D1211A57F06020F1A74F6120BCDEAFECA
:10522300EBFF7A0D7B00121B80EA4B6062EE2424B5
:10523300126F0FF0EE2425126F0FA31252D4126FC8
:1052430015A3A3126CA81252AFF0EE12529512528C
:10525300C4E8F0A3E91252EB1252BC12720BEE1225
:10526300529E126D6BA3A3A3A3F0EE2433125B80B3
:10527300C0E01252A7D0E0126A9A1252BCA3A3A3B1
:10528300E8F0A3E91252E3C0E012585DD0E0F00267
:10529300446A242AF582E43FF58322242EF582E42E
:1052A3003FF58322EA125CD63BF583221252B322E6
:1052B300E08A828B83A3A3A322126DCAA3A3A3A311
:1052C300221252C8221244798A828B83A3A3A3A3F6
:1052D30022F01252D922EE2426F582E43FF58322EE
:1052E300F0EE2432125C0122F0EE242C125C012237
:1052F30074F4120BCD74FE121258ECFEEDFFEC2485
:1053030016125B8064057010EC2406FCE43FFD126A
:105313002486E9700302539FAC21AD22126FC4129D
:1053230020DE85218285228312573D606B8E828F1A
:1053330083E064017058E875F009A4F8AAF075F0E9
:1053430009E9A42AF9742928F8740439F9E8FAE96F
:10535300FB8882F5837808121476EE1254411214F6
:10536300194027852182852283124F61125B8E1299
:1053730053A478081214769082F7780812139C8A43
:10538300828B837808121458800A79A28010EE2445
:105393000F1272057900800679A1800279C802355F
:1053A300DD124FC2EE126C962274F2120BCD8A0CF0
:1053B3008B0DECFEEDFFEC125B8EE4F0A3F090821C
:1053C300D37808121476EC1254411212C36067ECBE
:1053D300240E125B87703478B39016F9E07028902E
:1053E300172BE064017020EC2411125B80F9122565
:1053F3008E8B09A909EE1256C03F126570EA496007
:10540300047800800278A18808802EE0600464029A
:10541300700A122498E9F5087007801DE064037090
:1054230010EEFCEFFDAA0CAB0D122102E9F508808A
:10543300087508A180037508A3A908025217126C06
:105443009678082274F0120BCD74F5121258EAFE06
:10545300EBFFEA240AFCE43F8C82F583127F0612F9
:1054630056CA74031212388A828B83126366E970F8
:1054730003025530740112123874031212301220D1
:10548300DE74011214E912573D7003025530E875BA
:10549300F009A4F8AAF075F009E9A42AF9742528FB
:1054A300FC740439FDE508240E1267B7E4F0041216
:1054B30014E9124471E5081256C035091272098CB9
:1054C300828D831214AEE50824121267B71214BA40
:1054D3009082F778081214768C828D8378081213E1
:1054E300508C828D83780C1214769083A3780812E3
:1054F3001476780C7908120B5EE5084509450A45D0
:105503000B702A74011214E91256E075F009A4F81D
:10551300AAF075F009E9A42AF9742D28F582740418
:1055230039F5837401F07A007B081256ED8E828F71
:1055330083A3A3A3A3A3A3A3A3A3A3E02406FCA3DE
:10554300E03400FD8E828F83126366126A88603EA8
:10555300EE240A1256B2124F667468124F98E8127C
:1055630056AC39F5837402F09016E41214AE8C82B3
:105573008D8312655F1261513CF5831214BA9082D8
:10558300F778081214769016E4780812135012571D
:1055930028705D9016B21256D8A3A3A3A3A3A3A306
:1055A300A3A3A3126187121C6AE9701012614590CC
:1055B30016B21261577005126A8860348E828F8327
:1055C300A3A3A3A3A3A3A3A3A3A31256D812512BAC
:1055D300122108E960118E828F83A3A3A3A3A3A33F
:1055E300125714E4F0A3F08E828F831256FAE4F07C
:1055F30012572860030256A78E828F83A3A3A3A307
:10560300A3A3127F029016F9E0600302569C901741
:105613002BE06401600302569C750A3A750B00780F
:105623000A1211C87402121228880A890B780A1206
:1056330011C81275011211A5E9705BE508240E1259
:1056430067B77401125742C0E0E50824111267B727
:10565300D0E0F0E508240F1267B7743A124F989020
:1056630016E01214AEE50824121267B71214BA90AA
:1056730082F778081214769016E078081213509087
:1056830082F778081214769016E078081212C37025
:10569300081256E980031256CA1257287006126080
:1056A3004874A1F0740B026E3A240EF582E422F8DA
:1056B300E43FF9E8FCE9FD8882F58322EA1256C447
:1056C30022240FF582E422E5081256C43509F58336
:1056D300E4F0A3F022127A6D8E828F83221256E4B5
:1056E30022124479E8227A007B02901588E0F912AD
:1056F3001B2C228A828B83A3A3A3A3A3A3A3A3A369
:10570300A312570822124F3B240EF582E438F58387
:1057130022A3A3A3A312571C22124F3B240FF582EB
:10572300E438F583228E828F83A3A3A3A3A3A312BA
:105733004F33240FF582E438F5831256E4492212DD
:10574300574622F0852182852283E02274F6120BCC
:10575300CDEAFEEBFF7A237B00121B80EE240AF5D1
:1057630008E43FF5098508821265707C237D007982
:1057730000121AD885088285098312573D700302E7
:105783005810EEFAEFFB1224A412572860748E828D
:105793008F8312584364018E828F83A3A3A3A3A391
:1057A300A37007125839740E802112573D701012DE
:1057B3006A88700B8E828F83A3A3E0A2E050071246
:1057C300582F740D800512582F7405126A9A5403CA
:1057D300640170071258177405800B9016FAE0C025
:1057E300E0125817D0E0125852F5838882125BAD4D
:1057F300850882850983124F2312650438F583E9EE
:10580300800E8508828509831265E9800312652C61
:10581300F002446A8E828F83A3A3A3A3A3A3A3A3AB
:10582300A3A312582922E012654BA3228E828F83F1
:10583300A3A3A3A3A3A3124F3312650A38F58322AC
:10584300A3A3A3A3A3A3A3A3A3A3125708E0221272
:10585300585622126FD9F8A3E022EA1258653BF595
:105863008322240CF582E42274F1120BCD74E4122A
:1058730012588A0C8B0D8C088D097A237B00121B1E
:10588300808A0A8B0BAE0AAF0BEA4F7003025B6888
:10589300126510E5082415125B99687003A3E0698B
:1058A3008E828F837004740280027401F0E50824F1
:1058B3000DF8E43509F98882F583E0FAC3E49AFA2E
:1058C30095E0FB125B952AFAA3E03BFB8E828F8364
:1058D300A3A3A3A312616E8E828F83A3A3F0EE24EE
:1058E30020F582E43FF583E4F0EE2421F582E43FE2
:1058F300F583E4F0EEFAEFFB12255885088285095B
:1059030083125BB470098E828F83A3740580069023
:1059130016FA125BA2F0EE2417F50AE43FF50B8E9C
:10592300828F83125BADE9850A82850B83F0EE24B7
:1059330016F8E43FF9E508240EFAE43509FB8882FA
:105943008983124F80E5082410FAE43509FB850AA0
:1059530082850B83E0FC88828983E0F88A828B83CB
:10596300E0C398C39CF8125BEEF0EEFCEFFDAA0CCB
:10597300AB0D12249EE9F50B8E828F83E0640270D7
:1059830006126145125B72E50B6003025B5F750CE7
:1059930000750D0090198AE064016005E0640270EF
:1059A3003F125B846008EE2421125B8770328E8283
:1059B3008F83A3A3A3126532125BBAEE2416125B84
:1059C30080125BE3FAE439FB124272EA4B60111274
:1059D3006D941211C4125BC8AA0C1272321211A573
:1059E300EEFAEFFB122564E9F50B90198AE06401E6
:1059F3006008E064026003025B52E97003025B52D9
:105A0300E50C450D7003025B5F8003850E0B125B93
:105A130084600BEE2421125B876003025B58850BC5
:105A23000E850C08850D09750A0078081211C41239
:105A33005BC88E828F83A3A3A3A3127F4B1211A5EE
:105A4300EE2420125B80600D125B8D7468124F98F8
:105A5300EE24208015EE2421125B806015125B8DED
:105A63007403F0A37401F0EE2421F582E43FF5837F
:105A7300E4F0EEFAEFFB122564E9F50B70907C136A
:105A83007D0079007409121230121AD8741A121494
:105A9300E97401125BF964687002A3E0704F8E82AF
:105AA3008F83125714E064056003025A0E7C087951
:105AB300FF8E828F83A3A3A3A3E0242A12618A12F9
:105AC3001B62E97003025A0E7C087D0079FF7401A2
:105AD300121230121AD874011212387A007B00792C
:105AE300AB12248074191214E974FC8015125B8DB7
:105AF300E064037004A3E06401700874191214E9EC
:105B030074FFF0E4F508F50978081211C87402125D
:105B1300123874131214E9AA82AB8312666F12113E
:105B2300A5852182852283E0602B740912122888BF
