:020000040000FA
:060000000214900208BA90
:03001300020A10CE
:03002B0002121F9F
:030033000210C2F6
:03003B00020A6551
:030053000207EFB2
:1000830002084E0100F0FF0700080000FFFF000018
:100093000704000000030001FF16102700000020E2
:1000A300FD000206FFFFFE0400000004E5C6FE0695
:1000B300001F0000AC03FE06001F00B4AC741E0357
:1000C300007701AB17B117051E0000000000000008
:1000D300000000000000000000000000000000001D
:1000E300000000000000000000000000000000000D
:1000F300000000231E0000000000000000000000BC
:100103000000000101E803D0073200640000000092
:1001130000000000000000000000000000000000DC
:1001230000000000000000FF0000000000000000CD
:1001330000000104010C0002077F8202EF83010427
:100143000000B015000000E8030000FFFF0D168853
:10015300130000E803000064006400B801A0BB0DB5
:1001630000A0BB0D00020202070401010A1E0205E2
:100173001E020A0A0101010809080103B80B0280E3
:100183003E0102FEFFE8030A050001FFFF010A0129
:100193001401E00100B0423BAAB83F0000003F8CCD
:1001A300906339AA0CA33A00941E3C8042633DCF6E
:1001B300FE753E1572313F0000803FF304353F80EA
:1001C30096184B3031323334353637383941424360
:1001D30044454600286E756C6C20706F696E7465BB
:1001E300722900303132333435363738396162633E
:1001F300646566003F3F3F000000807FF9021550B1
:10020300B743BA5100E7DB2E0000A040000080BFD7
:100213002292D43EDD9B2A3F04000040FFFF7F7FF4
:10022300FFFF7FFF010080341872313F0105030196
:10023300010F10FEFF7334000000000B34000000B8
:1002430000FF000000FF001214BE60461214DC60C1
:100253003DE9687008F618F618F618F622748067F8
:10026300F712027E090909748067F7221214DC6011
:100273001D1214BE7005191919801A12136C701F00
:1002830012131CC37003E6673319191940071818B2
:10029300182208080874FFF618F618F618F6221242
:1002A300131C601712155C702192F012154A701915
:1002B300501720F014080808090909E7F61819E788
:1002C300F61819E7F61819E7F62212154A60E6E858
:1002D30069701F0808E62480F608E436F618547F90
:1002E300B47F0CE654806007F6E418F618F622187B
:1002F3001822E9C6CC08C6CD08C6CE08C6CFC0E0D2
:10030300E8C0E0EAC0E0EBC0E009E9F809E7FA0970
:10031300E7FBE6F918E6F8C3EC98ED99EE9AEBC221
:10032300E7F5F0EFC2E795F0500E600CEBCFFBEA78
:10033300CEFAE9CDF9E8CCF8EAA2E7D2E7FAEB3353
:10034300FB13F5F0EEA2E7D2E7FEEF33FFC5F013A0
:10035300A2E730E601B313C5F0C3C0E0C0F07F00ED
:10036300C39BFB605E9418600F401D14601AD0E0BD
:1003730023F9D0E0F80204508AF0E9486003D2F090
:10038300E4AFF0FAF9F8803BEB30E40D89F0EA6072
:1003930003D2F0E4AFF0F9CAF8EB30E30D88F0EFE5
:1003A3006002D2F0AFF0E4CAC9F8EB54076014FB63
:1003B300C3EA13FAE913F9E813F8EF135002D2E092
:1003C300FFDBEDD0E0C0E030E739C3E49FFFF5F099
:1003D300EC98FC42F0ED99FD42F0EE9AFE42F0D02B
:1003E300E0F9D0E0F8E5F0607AE923F9EE20E7429E
:1003F300D8028067C3EF33FFEC33FCED33FDEE33FC
:10040300FE80EAEC28FCED39FDEE3AFED0E023F95C
:10041300D0E0F84002801BC3EE13FEED13FDEC1396
:10042300FCEF135002D2E0FF08B800067F7F74FF91
:10043300802EEF3350178CF020F00260100CBC00BC
:100443000C0DBD00080EBE000408E860DFE933E8C8
:1004530013FFEE2313FE4F4D4C8008E95480FFE455
:10046300FEFDFCEE33EF33F47004FCFD7E80D0E040
:10047300FBD0E0FAD0E0F8D0E0CFC618CEC618CD56
:10048300C618CCC6F9221214DC70041818182212EC
:1004930014BE700D74FFF61819F61819F61819F62C
:1004A30022E7548066F612154A700F12155C70F03D
:1004B30014F608F608F608F680D112155C700CF6EF
:1004C30008F608768008E6447F80EC12131F700C50
:1004D30012136F60BFE65480F6E480BB12136F7093
:1004E3000519191980A5E869700C763F18768018EC
:1004F300F618F6E8F922E6CDC0E018ECC0E0E633E2
:10050300CD33CDD313F6E719FCE7191933CC33C335
:10051300947F400ECD9D502408E65480F6E418F6EF
:10052300800FF4043D14501408E6447FF6187680D7
:10053300E418F618F6D0E0FCD0E0FD22CCD313CCBF
:10054300FD18E4C6CBC0E018E4C6CAC0E00808ED55
:1005530008C633E613F618E433C675F003C3CA9727
:10056300CA09CB97CB199C40047D08802EBD00039C
:1005730002063216B6FF050606081618C3CA33CAA2
:10058300CB33CB33CA27CA09CB37CB193CC37D083E
:10059300803E187D0820E75CC633C6CA33CACB3316
:1005A300CB33DDF1D5F0EB30E77BCA97CA09CB97A4
:1005B3004ACB199C406F4B7025E620E021806618DA
:1005C3007D08C3CA97CA09CB97CB199CD3C633C638
:1005D300CA33CACB33CB3350C9DDE7D5F0E1D3E41B
:1005E300C636C608C636C608C636C608C636C618D0
:1005F30018188031C3CA97CA09CB97CB199CB3404B
:1006030097C633C6CA33CACB33CB33DD34D5F02ECA
:10061300C6A2E0C640C8CA27CA09CB37194A70BE6A
:10062300CB3CB480B90808E63308E633601F1818DA
:1006330018D0E0FAD0E0FBD0E0FCD0E0FD22187D3A
:1006430008CA27CA09CB37CB193CD3808013F618C5
:10065300E4B67F11F618B6FF0EF618C60470D2087A
:1006630008768080CAF618F618F680C5001214DCE6
:10067300604F1214BE6012E7548066F612136C705A
:100683001112155C703B090909F4F618F618F618EF
:10069300F62212131C701512154A08080860EAE6C0
:1006A300447FF618768018E4F618F62212154A608D
:1006B3001612155C7012E4F608F608F608E6548084
:1006C300F609090918181822EAC0E0EBC0E0ECC0EB
:1006D300E0EDC0E0E687F0A4FBACF008E687F0A409
:1006E3002CFCE435F0FA1809E687F0A42C4B6002E1
:1006F3007401CA35F0FCE433FB09E687F0D2F7A4B2
:100703002CCB35F0FC1908E687F0A42BCC35F0FB95
:10071300E433FD0819E687F0D2E7A42C4ACB35F081
:10072300CD3400FC09E687F0D2E7A42DCC35F0FDEB
:10073300E433FA0918E687F0D2F7A42CCD35F0CAD2
:100743003400FC08E687F0D2E7D2F7A42ACC35F0D0
:100753007A7E20E70B0ACB33CBCD33CDCC33CC33EE
:10076300CB3350147004ED30E00ED2F1E4CD3DCD27
:10077300CC3CCC3B5005DA05C2F1EB547FC63308C1
:10078300E63392F0FBE73309E733C39A502D2B701E
:10079300190C0D4C4D70151806E608C333700D2067
:1007A300F10AA2F013F6E418800B4024E4F630F0CB
:1007B30002768018F618F618F68024D33B145010EE
:1007C30074FFA2F013F6187680E418F618F6800F7B
:1007D300A2F013F618E63303F618ECF618EDF6D08C
:1007E300E0FDD0E0FCD0E0FBD0E0FA22C0E074F101
:1007F300120C7DA2AFE433F509D2AF85A708AFA1F0
:10080300EF5508FE74105E600612187775A1EF7439
:10081300085E600812187D75A1F78024EFA2E092AC
:10082300F0E508A2E082F05017906198E0F8900597
:1008330064E0C398A2D265D0335002E8F075A1FEFC
:10084300E509A2E092AF7F02020CDCC0E074F21271
:100853000C7DA2AFE433FED2AF9061A4E0F8759BA8
:1008630000E59158540860087591F71218CB80235E
:10087300E59158541060087591EF1218D18014E572
:1008830091A2E092F0E8A2E082F05007E0C2E0F02B
:10089300121A1B9061A3E0F8E5E9585404600E12A4
:1008A30019F175E9FB906193E0A2E640F2EEA2E054
:1008B30092AF7F01020CDCC0E074F2120C7DA2AF98
:1008C300E433FED2AF9061A5E0F8E5BF585404606D
:1008D3000675BFFB121A3380D412092730F0391280
:1008E300096C803412092720F01430E72B74FFFCC5
:1008F300FBFA747F8022E4FCFBFA7480801AB480D4
:1009030008BC00F2BB00EF800F50EBF9E4C39AFA86
:10091300E49BFBE49CFCE499C6CC18C6CB18C6CA7E
:1009230018C6F922E4C9C608CAC608CBC6D333031E
:1009330008CCC63392F0C3947F402E94184019C953
:10094300B90704CACBCC225025C309CA33CACB3357
:10095300CBCC33CC33D9F422F4600DC9CCC313CB45
:1009630013CBCA13CAD9F6CC22E4FCFBFA2214FC3B
:10097300FBFA22C3E498F8E499F91209B78026C375
:10098300E49AFAE49BFBE920E7E91209B7E498F853
:10099300E499F922C3E498F8E499F91209B7E498C1
:1009A300F8E499F9C3E49AFAE49BFB22EB20E7CF3E
:1009B300E920E7E0B90010BB0008E88AF084F8AA50
:1009C300F022E4FBC8FA22EB70227B10C833C8C9BB
:1009D30033C9335007C39AC3DBF280069A50012A06
:1009E300DBEAC833F4C8C933F4C9FA2275F008E462
:1009F300C833C8C933C933C99AC99B5004C92AC962
:100A03003BD5F0ECFBC833F4C8E4C9FA22C0E0C01C
:100A1300D0E8C0E0E9C0E0C082C083A8C1E8C0E07C
:100A23009004D1E0F8745028F582E43404F583D0BF
:100A3300E0F09004D0E0F8A3E0687006E595900438
:100A4300D3F09004D1E004F0C394804002E4F0A317
:100A530074C6F0D083D082D0E0F9D0E0F8D0D0D003
:100A6300E032C0E0C0D0E8C0E0E9C0E0C082C083AB
:100A7300900554E0F8A3E0687008539AFBA374014F
:100A83008022C2E9900554E0F8740128F074D42858
:100A9300F582E43404F583E0F5C1900554E0C39492
:100AA300804002E4F080AC080808EAC0E0EBC0E054
:100AB30086F0E7A4FA180986F0E7A42AFA1809864B
:100AC300F0E7A42AFA180986F0E7A42AFA1986F0AF
:100AD300E7A4FBE5F02AFA190886F0E7A42BFBE567
:100AE300F03AFA190886F0E7A42BFBE5F03AFA1876
:100AF300180986F0E7A4C5F02BFBE43AFA1908E7D6
:100B0300C5F0C6A426F6E5F03BFBE43AFA1886F0F6
:100B1300E7A4F6E5F00826F6E43B08F6E43A08F61F
:100B2300D0E0FBD0E0FA22080808E630E711121300
:100B330030120B42080808C64480C6181818221839
:100B43001818E9799EC608CAC608CBC608CCC6C31E
:100B530070207996CACBCC7019798ECBCC7013796F
:100B630086CC700EF9802ACA33CACB33CBCC33CCB4
:100B7300331930E7F2CCCBCA3350147004EA30E0B7
:100B83000DE4CA3ACACB3BCBCC3CCC500209C3E9F7
:100B930013C6CC182313C6CB18C6CA18C6F922E449
:100BA300CFC0E0E4CEC0E0E4CDC0E0E4CCC0E0756B
:100BB300F020E626F608E633F608E633F608E633D1
:100BC300F6181818EC33FCED33FDEE33FEEF33FF6C
:100BD300C3EC9709ED9709EE9709EF971919194097
:100BE3000FFFEC97FC09ED97FD09EE97FE19190627
:100BF300D5F0BFECF709EDF709EEF709EFF719198F
:100C030019D0E0FCD0E0FDD0E0FED0E0FF222521AA
:100C1300C582C0E0E52234FFC583C0E0E521C3956A
:100C23008224F810AF08858322858221800885837A
:100C330022858221D2AFCEF0A3E520F0A37808E687
:100C430008F0A3DEFAEFF0A3E58124FAF8E608F052
:100C5300A3E608F0A3E608F0A30808E608F0A3E675
:100C630008F0A315811581D0E0FED0E0F8158115B9
:100C7300811581E8C0E0EEC0E022C0D02521C58205
:100C8300C0E0E52234FFC583C0E0E521C39582249B
:100C9300F310AF088583228582218008858322850E
:100CA3008221D2AFC8F0A3E9F0A3EAF0A3EBF0A34B
:100CB3007908E709F0A3D8FAECF0A3EDF0A3EEF07E
:100CC300A3EFF0A3D0E0F0A3D0E0F0A3D0E0F0A333
:100CD300E520F0A3E5F0F0A322852283852182E0BD
:100CE300C0E0A3E0F9A3E0FAA3E0FBA37808E0F6F1
:100CF30008A3DFFAE0FCA3E0FDA3E0FEA3E0FFA36B
:100D0300E0C0E0A3E0C0E0A3E0F5D0A3E0F520A3BA
:100D1300E0A3F5F010AF0885832285822180088542
:100D23008322858221D2AFD082D083D0E0F8D0E075
:100D330032121333181818120BA212143F1919196F
:100D43002212143F191919080808E618181820E781
:100D5300E0120BA212133318181822090909E71914
:100D6300191920E7DC080808E618181820E7030219
:100D73000BA2121333181818120BA21213331818DC
:100D83001812143F19191922121535B90003020D4F
:100D9300CAE490035178B979168002F0A3D8FCD93C
:100DA300FA7A097B1990008678C579028015E49355
:100DB300A3AD82AE838A828B83F0A3AA82AB838D99
:100DC300828E83D8E9D9E77582057583FE74041290
:100DD30011B075821375833174001211B075F01060
:100DE3008E238F24858228858327852182852283EC
:100DF300E0CEA3E0CF852882852783EBC9EAC8ED3F
:100E0300CBECCAC3E833C8E933C9EA33CAEB33CB03
:100E1300C3EA9EF526EB9FF525B35004AB25AA261E
:100E2300EC33CCED33CDD5F0DAAE23AF242212145C
:100E3300DC601C1214BE601712154A700712155C91
:100E43007001D322C0D012155C7006D0D0B322C378
:100E53002233D0D0501430E0F6C3E7960809E79662
:100E63000809E7960809E796B32220E0D5E6970834
:100E730009E6970809E6970809E697B3221214DCF6
:100E8300601B1214BE601612154A700712155C60BF
:100E93000CB322C0D012155C7005D0D022C322330C
:100EA300D0D0501330E0EBC3E7960809E796080962
:100EB300E7960809E7962220E0E4E6970809E69713
:100EC3000809E6970809E69722D083D082ECC0E0B0
:100ED300EDC0E0E493A3FCE493A3FDED4C600D129D
:100EE3000FA4EC24FFFCED34FFFD80EFE493A3FC9F
:100EF300E493A3FDED4C600D12106DEC24FFFCEDAB
:100F030034FFFD80EFD0E0FDD0E0FCE493A3C0E02C
:100F1300E493C0E022852283852182E0A3FEE0A33F
:100F2300F5207808E0A3F608DFFAE0A3FFE0A3C00A
:100F3300E0E0A3C0E0E0A3C0E0E0A3C0E0E0A3C022
:100F4300E010AF0885822185832280088582218570
:100F53008322D2AFD083D0820211B6D083D082E96C
:100F6300C0E0E493A3C386F0C5F095F0F908E493D9
:100F7300A386F0C5F095F0700BE493A3C3994005E5
:100F8300E9048002A3E475F002A42582F582E5F06A
:100F93003583F583D0E0F9E493A3C0E0E493C0E0A4
:100FA30022C0E0C3E49396087401939618400FE4BB
:100FB3009366700808740193661870007019A3A3F0
:100FC300C3E49396087401939618A3A3400DD0E04D
:100FD300D0E0D0E0020F08A3A3A3A3A3A3D0E022F1
:100FE3007404800474028000CCC0E0EDC0E0E5210D
:100FF300C39CCCAD2250011D10AF068C218D2280E5
:10100300068C218D22D2AF121132D0E0FDD0E0FC4C
:101013002274028000CCC0E0EDC0E0E521C39CCC8B
:10102300AD2250011D10AF068C218D2280068C212C
:101033008D22D2AF121110D0E0FDD0E0FC221214A9
:10104300DC60251214BE602012154A700302155C81
:10105300080808E76670101819E766700A1819E798
:101063006670041819E76622F422C0E0C0F088F025
:10107300E4936670080874019366187000A8F0A3DF
:10108300A3700BD0F0D0E0D0E0D0E0020F08A3A310
:10109300D0F0D0E022D083D082CCC0E0E493A36030
:1010A300061211531470FAE493A360061212B214D9
:1010B30070FAD0E0FCE493A3C0E0E493C0E022C064
:1010C300E074F2120C7DA2AFE433FED2AFE58BA243
:1010D300E0500579041217C9758B00C2E8EEA2E04F
:1010E30092AF7F01020CDCC008C3E096F50808A3A9
:1010F300E096420808A3E096420808A3E096420857
:10110300A2D265D033E5087001D3D00822CAC0E06B
:10111300E493A3C582CCC582C583CDC583F0A3C5A3
:1011230082CCC582C583CDC583DAE5D0E0CA22CAA5
:10113300C0E0E0A3C582CCC582C583CDC583F0A33F
:10114300C582CCC582C583CDC583DAE6D0E0CA2289
:10115300C0E0E493A3D39C5010E493A3C39C400A40
:10116300D0E0D0E0D0E00210B5A3A3A3D0E022707A
:1011730009080808226016181818C6C333C608C61B
:1011830033C608C633C608C633C6D5E0EA22C0084C
:10119300C3E096F50808A3E096420808A3E0964248
:1011A3000808A3E09645087001D3D00822C09FF534
:1011B3009FE473D09F22D083D082C09FE493C0E08A
:1011C300740193C0E0740293F59F222521F58210E8
:1011D300AF08F521400C15228008F52140021522A5
:1011E300D2AF8522832200C0D0252110AF08F5217C
:1011F300500C05228008F52150020522D2AFD0D031
:10120300227404800A74038006740280027401C08D
:10121300E0F4041211CED0E01214F822C0E0C0D0E2
:10122300E8C0E0A8A8D2AFC2C7E8A2E792AFD0E077
:10123300F8D0D0D0E032BB0102E722C082C083895C
:10124300828A83BB0003E08002E493D083D08222AE
:101253006016080808C6C313C618C613C618C613F3
:10126300C618C613C6D5E0EA222521F8E43522F9CB
:10127300222521FAE43522FB222521FCE43522FD37
:1012830022C3E0C696F608A3E0C696F608A3E0C616
:1012930096F608A3E0C696F622252110AF08F5219D
:1012A300400C15228008F52140021522D2AF22C03E
:1012B300E0E493A36C7009D0E0D0E0D0E00210B575
:1012C300A3A3D0E022C3E7960809E7960809E796A7
:1012D3000809E796A2D265D03322E76670100809A1
:1012E300E766700A0809E76670040809E76622C31F
:1012F300E09608A3E09608A3E09608A3E096A2D29E
:1013030065D03322E066701008A3E066700A08A374
:10131300E066700408A3E06622191919E709470972
:101323007009E727097005E733F422092218181812
:10133300E4C396F608E496F608E496F608E496F60F
:1013430022C3E096F008A3E096F008A3E096F00825
:10135300A3E096F022C3E697F60809E697F6080994
:10136300E697F60809E697F622181818E6084608DD
:101373007009E626087005E633F4220822C3E493D5
:1013830096087401939608740293960874039396CF
:1013930022E026F608A3E036F608A3E036F608A313
:1013A300E036F622E627F60809E637F60809E637B7
:1013B300F60809E637F622700422600D18C6C33317
:1013C300C608C633C6D5E0F41822E657F60809E680
:1013D30057F60809E657F60809E657F622E056F6E7
:1013E30008A3E056F608A3E056F608A3E056F62253
:1013F300E026F008A3E036F008A3E036F008A3E007
:1014030036F022E056F008A3E056F008A3E056F0C9
:1014130008A3E056F022E493F608740193F60874E7
:101423000293F608740393F622E647F60809E647A3
:10143300F60809E647F60809E647F622E4C397F7F4
:1014430009E497F709E497F709E497F722600D0891
:10145300C6A2E713C618C613C6D5E0F322C6F4C660
:1014630008C6F4C608C6F4C608C6F4C622C3E09686
:1014730008A3E09608A3E09608A3E09622C3E796A4
:101483000809E7960809E7960809E7962275D00048
:1014930075813F75215175220300020D8B600C0885
:1014A300C6C313C618C613C6D5E0F422E6F008A3D4
:1014B300E6F008A3E6F008A3E6F022E7094709C32C
:1014C300134709336002E733F422E0F608A3E0F69A
:1014D30008A3E0F608A3E0F622E6084608C313468D
:1014E30008336002E633F422800100E9F874FF2830
:1014F300F90470F622CAC0E0E6F0A308DAFAD0E0F5
:10150300FA22E0F8A3E0F9A3E0FAA3E0FB22E8F073
:10151300A3E9F0A3EAF0A3EBF022EAF0A3EBF0A334
:10152300ECF0A3EDF022E0FAA3E0FBA3E0FCA3E0E0
:10153300FD22E5C754F84401F5C77901222521F5B9
:1015430082E43522F58322E62618461846184622F9
:10155300C2AF75D69F02000022E727194719471922
:1015630047221211B95BE1031211B98AE103121187
:10157300B990E2031211B9BAE2031211B90EE303EF
:101583001211B9E2E3031211B910E6031211B9BE45
:10159300E6031211B92BE9031211B9B0E9031211D1
:1015A300B9B3EC031211B9E7EE031211B923EF0338
:1015B3001211B97CF0031211B98FF0031211B9CCD7
:1015C300F0031211B995F2031211B98DDA05121154
:1015D300B909DB051211B93CDB051211B96ADB0548
:1015E3001211B9A8DB051211B9E5DD051211B90411
:1015F300DE051211B949DE051211B9DFDE0512113C
:10160300B92BDF051211B9BFDF051211B998E00537
:101613001211B9F4E0051211B952E1051211B9C55D
:10162300E1051211B909E2051211B961E2051211BE
:10163300B983E2051211B913E3051211B9A4E30545
:101643001211B9F0E3051211B91CE4051211B95DC9
:10165300E4051211B9F3E5051211B9DFE60512111C
:10166300B9BAE7051211B938B9051211B9CCB905E0
:101673001211B934BA051211B959BB051211B9E3E4
:10168300BB051211B96EBC051211B9AABC05121122
:10169300B943BD051211B9D8BD051211B9ABBE05C9
:1016A3001211B98DC0051211B983C1051211B922E6
:1016B300C2051211B977C2051211B9E5C20512119B
:1016C300B9F1C5051211B91BC8051211B91CC90519
:1016D3001211B95ACA051211B965CA051211B9799D
:1016E300A3061211B9A5A3061211B992A4061211E9
:1016F300B911A5061211B92CA5061211B951A506E7
:101703001211B9F9A5061211B93BBC061211B94061
:10171300BC061211B973BC061211B9CBFD03121129
:10172300B9A2FE031211B96CFF031211B910B90665
:101733001211B921B9061211B9BFB9061211B9CAEA
:10174300B9061211B9E4B9061211B9FD7F001211DD
:10175300B9E77F001211B993BA061211B9A3BA06F9
:101763001211B9B8BA061211B91EBB061211B90C7F
:10177300B6061211B990B6061211B9F8B6061211CF
:10178300B923A6061211B941A6061211B976A60607
:101793001211B99BA6061211B9BEA6061211B9F908
:1017A300A6061211B926A7061211B96DA7061211C2
:1017B300B90CA8061211B911B8061211B998B806D6
:1017C3001211B9A1B8061211B9C8B8061211B9920B
:1017D300BD061211B996A8061211B9E0A806121196
:1017E300B976A9061211B9FCA9061211B92EAA06D7
:1017F3001211B946AA061211B9BAAA061211B9D022
:10180300AA061211B9E3AA061211B9EDAA0612111A
:10181300B903F9051211B92FF9051211B999FB058D
:101823001211B9D9FB051211B915FC051211B92909
:10183300FC051211B942FC051211B934FD05121150
:10184300B9E7FD051211B9FBFD051211B96EFE01D1
:101853001211B992FE011211B9ABFE011211B9E9CD
:10186300FE011211B919FF011211B946FF0112113C
:10187300B9ACFF011211B9AFFF011211B9B9FF01E0
:101883001211B9C6FF011211B9D2A0061211B9F291
:10189300A0061211B931A1061211B94FA1061211F6
:1018A300B96AA1061211B9D0A1061211B9DCA106B9
:1018B3001211B939A2061211B948A2061211B96C54
:1018C300A2061211B92DA3061211B93AA3061211D9
:1018D300B94BA3061211B981BC061211B999BC0602
:1018E3001211B9C5BC061211B9FA84061211B95402
:1018F30086061211B96286061211B975860612118F
:10190300B98A86061211B99F86061211B9B28606E4
:101913001211B92E87061211B99387061211B9292C
:1019230088061211B90289061211B9128906121119
:10193300B92189061211B9FAB9061211B91EBA06EC
:101943001211B946BA061211B96EBA061211B900CC
:10195300AB061211B927AB061211B945AB0612112A
:10196300B9B4AB061211B9FF9D061211B9189E0640
:101973001211B9249E061211B9389E061211B956D6
:101983009E061211B9609E061211B96A9E061211C3
:10199300B97D9E061211B9039F061211B9789F06ED
:1019A3001211B9A79F061211B9F59F061211B94476
:1019B300A0061211B95FA0061211B969A00612118F
:1019C300B97AA0061211B9BDA0061211B9E8BB0677
:1019D3001211B994E8051211B9C0E8051211B9DD65
:1019E300E8051211B9F0E8051211B90BE905121156
:1019F300B965E9051211B993E9051211B9A3ED050A
:101A03001211B901EF051211B933EF051211B9968D
:101A1300EF051211B902F1051211B92AF1051211DC
:101A2300B93FF1051211B94FF1051211B98FF10543
:101A33001211B9D1F1051211B9E1F1051211B9A2CF
:101A4300B1061211B9BCB1061211B9E4B1061211F3
:101A5300B9FDB1061211B921B2061211B93FB2068E
:101A63001211B956B2061211B984B2061211B99FF6
:101A7300B2061211B90EBD061211B90F9106121159
:101A8300B91F91061211B92492061211B956920682
:101A93001211B98692061211B9A992061211B9C090
:101AA30092061211B9FA92061211B95F9306121136
:101AB300B9A193061211B9E893061211B915940648
:101AC3001211B94094061211B90D7E001211B92DED
:101AD3007E001211B9417F001211B9447F00121127
:101AE300B906B5061211B93CB5061211B954B506BB
:101AF3001211B996B5061211B9A6B5061211B9EAB3
:101B0300B5061211B9F4B5061211B911F205121185
:101B1300B954F2051211B9B9F2051211B9D8F20587
:101B23001211B97AF3051211B983F3051211B9D45D
:101B3300F3051211B9FDF3051211B90AF4051211D7
:101B4300B97CF4051211B90AF5051211B94FF5055F
:101B53001211B988F5051211B9EDF5051211B9166F
:101B6300F6051211B98DF6051211B9DCF60512113D
:101B7300B919F7051211B94EF7051211B960F70536
:101B83001211B972F7051211B991F7051211B99A29
:101B9300F7051211B956F8051211B999F805121182
:101BA300B9D7F8051211B9A1FF021211B90FFE0539
:101BB3001211B955AD061211B98BAD061211B9D375
:101BC300AD061211B92CAF061211B900800512111E
:101BD300B92681051211B96281051211B920830555
:101BE3001211B94E83051211B9B885051211B9F84E
:101BF30085051211B99A87051211B930880512119A
:101C0300B98A88051211B91A89051211B95E8905B5
:101C13001211B9A089051211B9058B051211B985E5
:101C23008C051211B9C68E051211B9F48E05121165
:101C3300B9208F051211B9298F051211B9868F05A5
:101C43001211B91F90051211B93693051211B9BCBF
:101C530093051211B9717F001211B9877F00121118
:101C6300B9917F001211B99CFB021211B9B2FB02A8
:101C73001211B956FC021211B995FC021211B9B234
:101C8300FC021211B9E3FC021211B930FD02121168
:101C9300B964FD021211B99FFD021211B994FF023A
:101CA3001211B911B7061211B970B7061211B9AEF4
:101CB300B7061211B9EFB7061211B94FFF0512118A
:101CC300B9B8FF051211B9D8FF051211B9F0B3065F
:101CD3001211B9AEB4061211B90080041211B90C75
:101CE30080041211B96E80041211B97880041211A4
:101CF300B90781041211B94381041211B935820461
:101D03001211B99282041211B92083041211B9710C
:101D130083041211B9F183041211B9B785041211A6
:101D2300B9B187041211B9B388041211B9E5890452
:101D33001211B93B8C041211B97D8D041211B92310
:101D43008E041211B9E192041211B9DE9304121137
:101D5300B97494041211B9A494041211B9419504ED
:101D63001211B95E95041211B97E95041211B9ECE2
:101D730095041211B90996041211B9379604121178
:101D8300B9D197041211B9F297041211B9989804B2
:101D93001211B9E098041211B93E99041211B9DC79
:101DA30099041211B9419A041211B9AA9A04121191
:101DB300B9E89A041211B99A9B041211B9059C044B
:101DC3001211B9419C041211B9B29C041211B9FD4C
:101DD3009D041211B98D9F041211B926A00412118A
:101DE300B977A2041211B9DCA2041211B90AA3042F
:101DF3001211B950A8041211B914AB041211B91479
:101E0300AC041211B91B94051211B93B94051211BC
:101E1300B9E296051211B9A499051211B90A9C05E4
:101E23001211B93E9C051211B9679C051211B98DA7
:101E33009C051211B9D29C051211B96E9E0512119F
:101E4300B9CE9E051211B9EC9F051211B9FE9F057B
:101E53001211B9B2A0051211B9C3A0051211B9A28A
:101E6300A1051211B9AEA2051211B937A3051211BA
:101E7300B9B9A3051211B996A4051211B9CCA505D8
:101E83001211B952BD061211B9E397061211B9A284
:101E930098061211B90899061211B9B799061211C9
:101EA300B9CCCB041211B9FBCB041211B97FCC040A
:101EB3001211B9E2CD041211B9CCCE041211B988B2
:101EC300D0041211B9ADD0041211B9FFD00412110C
:101ED300B991D1041211B9DDD1041211B9F0D104B1
:101EE3001211B94DD2041211B91AD3041211B98CBB
:101EF300D3041211B9C3D3041211B90CD4041211AF
:101F0300B9B4D5041211B993D6041211B9E1D704A7
:101F13001211B9C4D8041211B950D9041211B989D4
:101F2300D9041211B9A8D9041211B9F3D9041211A1
:101F3300B913DA041211B9D0DA041211B9F3DB04BC
:101F43001211B94EDC041211B994DC041211B99CBC
:101F5300DD041211B937E0041211B95DE004121166
:101F6300B9D8E0041211B9FDE0041211B971E1040A
:101F73001211B94FE2041211B98DE2041211B9170B
:101F8300E3041211B930E4041211B933E404121159
:101F9300B93DE4041211B947E4041211B963E4042E
:101FA3001211B9D5E4041211B90EE5041211B93AAC
:101FB300E5041211B961E5041211B985E5041211A2
:101FC300B9C0E5041211B933E6041211B967E60486
:101FD3001211B971E6041211B9ADE6041211B9E296
:101FE300E6041211B901E7041211B9C8BC061211B3
:101FF300B9E0BC061211B9FA7F001211B9FDAF04A2
:102003001211B920B0041211B97EB1041211B9C76B
:10201300B1041211B933B2041211B991B2041211FD
:10202300B994B2041211B9E5B2041211B95AB30446
:102033001211B9EAB3041211B9EDB3041211B96E56
:10204300B4041211B9AFB4041211B9D4B804121103
:10205300B97EBA041211B9D2BA041211B961BE041D
:102063001211B999BF041211B96DC0041211B9D775
:10207300C0041211B901C1041211B9BAC204121178
:10208300B99DC4041211B94CC5041211B9E9C504B0
:102093001211B9D4C6041211B93CC9041211B9966C
:1020A300CA041211B904CB041211B9C2A605121144
:1020B300B96CA7051211B9D7A7051211B9F2A70573
:1020C3001211B973A8051211B9CDA8051211B914CB
:1020D300A9051211B973A9051211B985AA0512111F
:1020E300B9AEAD051211B9DEAE051211B966AF0571
:1020F3001211B96FB1051211B921B2051211B9ED5F
:10210300B2051211B9A8B4051211B946B6051211D8
:10211300B9D3B6051211B9F9B7051211B904D90229
:102123001211B967D9021211B9AFD9021211B9F359
:10213300D9021211B94EDA021211B9ABDA02121135
:10214300B9E6DA021211B968DB021211B9C2DB0275
:102153001211B940DD021211B9B8DD021211B9D55D
:10216300DE021211B9FDDE021211B950E0021211A2
:10217300B961E0021211B979E0021211B982E102E8
:102183001211B95FE2021211B95CE3021211B980B4
:10219300E3021211B997E3021211B9B8E302121163
:1021A300B9DAE3021211B9F9E3021211B9D1E40267
:1021B3001211B92BE5021211B9C2E7021211B91BB0
:1021C300E8021211B93AE8021211B92AE90212110E
:1021D300B960E9021211B993EA021211B912EB02C2
:1021E3001211B94EEB021211B988EB021211B9F7B1
:1021F300EB021211B9ACEC021211B984EE02121106
:10220300B991EF021211B909F1021211B9FFF202E9
:102213001211B975F5021211B94FF7021211B91063
:10222300F8021211B988F8021211B99FF8021211BB
:10223300B996F9021211B98AFA021211B9F9FA021E
:102243001211B98AD5031211B94896061211B907AA
:1022530097061211B96F97061211B9528906121116
:10226300B97089061211B9EBE0031211B9DA8906C4
:102273001211B9018A061211B9198A061211B9315C
:102283008A061211B9D38A061211B9158B061211D7
:10229300B9388C061211B9418C061211B94A8C0651
:1022A3001211B9538C061211B95D8C061211B97E45
:1022B3008C061211B90080061211B93E8406121160
:1022C300B94C84061211B95184061211B986FE0461
:1022D3001211B90BDF031211B9299B061211B9D2DE
:1022E300B2061211B928BB061211B9A4CA051211FC
:1022F300B9B3CF051211B993AF061211B9D0FF01CB
:102303001211B9378D061211B989BB061211B99989
:10231300BB061211B90080021211B93280021211E8
:10232300B99E80021211B93981021211B9D8810202
:102333001211B91D82021211B93F82021211B9584A
:1023430082021211B97E82021211B9A08202121105
:10235300B9DE82021211B92283021211B944830237
:102363001211B9A683021211B96D84021211B92494
:1023730085021211B99685021211B96886021211EB
:10238300B9B286021211B90587021211B96B87021D
:102393001211B9A587021211B9F787021211B913E5
:1023A30088021211B93E88021211B9458A0212112C
:1023B300B9998B021211B9BB8B021211B9EF8B02BF
:1023C3001211B9108C021211B91F8C021211B92A01
:1023D3008C021211B9DA8C021211B9438D02121157
:1023E300B9F08D021211B9288E021211B9EE8E02C4
:1023F3001211B9FB8F021211B94590021211B9D40F
:1024030090021211B93891021211B973910212118B
:10241300B9DF93021211B93395021211B96C980204
:102423001211B93999021211B9C799021211B9F0EF
:1024330099021211B9629A021211B9F69A02121193
:10244300B9549B021211B9469C021211B9689C023D
:102453001211B9C49D021211B9DD9D021211B9F016
:102463009D021211B95F9E021211B96B9F021211E4
:10247300B9789F021211B9819F021211B959A102B1
:102483001211B97FA2021211B98FA2021211B991CE
:10249300A3021211B908A4021211B937A40212112E
:1024A300B94CA5021211B918A7021211B9F0AA0268
:1024B3001211B9FAAA021211B90EAB021211B9180C
:1024C300AB021211B922AB021211B92CAB021211D9
:1024D300B945AB021211B94FAB021211B9C3AB022A
:1024E3001211B9CEAB021211B9F3AB021211B9FE3C
:1024F300AB021211B94CAC021211B956AC02121153
:10250300B961AC021211B985AC021211B9A9AC02BE
:102513001211B905AD021211B94BAD021211B9680E
:10252300AD021211B9E5AD021211B91CAE021211BE
:10253300B95BAE021211B9A8AE021211B92AAF02E9
:102543001211B9C3AF021211B993B1021211B9F149
:10255300B1021211B90DB3021211B933B302121140
:10256300B972B4021211B998B7021211B9D9B902EA
:102573001211B9B5BB021211B94BBC021211B972D7
:10258300BE021211B91EBF021211B953BF021211BA
:10259300B9B8BF021211B9C2BF021211B9ECC1021C
:1025A3001211B913C3021211B953C3021211B9F9AB
:1025B300C3021211B98AC5021211B913C70212114B
:1025C300B933C7021211B98CC7021211B98EC802EE
:1025D3001211B9D8C8021211B928C9021211B912BD
:1025E300CA021211B987CA021211B9A1CB02121180
:1025F300B91CCC021211B921CD021211B9CCCF02F0
:102603001211B9EBCF021211B94CD1021211B90E4A
:10261300D3021211B962D3021211B91AD4021211E0
:10262300B9C9D4021211B91FD5021211B9D5D502F5
:102633001211B96AD6021211B9D6D6021211B91003
:10264300D7021211B941D7021211B99DD802121142
:10265300B90080031211B93280031211B9698003E2
:102663001211B95282031211B93583031211B98DB4
:1026730083031211B9C884031211B914850312110B
:10268300B93C88031211B99E8B031211B9EB8C0369
:102693001211B9818D031211B98D8D031211B9BFB6
:1026A3008D031211B9418F031211B9DC900312117A
:1026B300B98491031211B9C791031211B92D920371
:1026C3001211B94A92031211B97A92031211B9AFD6
:1026D30092031211B97F93031211B92894031211B3
:1026E300B9AC96031211B9CC97031211B9B598037B
:1026F3001211B93799031211B9569D031211B993E7
:102703009D031211B9EB9D031211B91E9E03121101
:10271300B99F9E031211B9EC9E031211B9779F035F
:102723001211B9C99F031211B9A0A0031211B9590B
:10273300A1031211B9F4A1031211B90DA5031211CA
:10274300B92DA6031211B9DAA9031211B9F8AA0314
:102753001211B9FBAA031211B92AAB031211B93032
:10276300AD031211B909AE031211B93EAE03121132
:10277300B946AF031211B9FCAF031211B99DB103EE
:102783001211B9C2B1031211B901B2031211B97313
:10279300B2031211B957B3031211B924B4031211BE
:1027A300B95AB6031211B9CBB6031211B90BB70359
:1027B3001211B96CB7031211B92FBB031211B91E51
:1027C300BC031211B905BD031211B97DBD0312116A
:1027D300B93FBE031211B93DC0031211B955C0036D
:1027E3001211B969C0031211B9A1C0031211B9CFF3
:1027F300C0031211B956C2031211B961C3031211F6
:10280300B9B3C3031211B914C4031211B9C6C40373
:102813001211B9EDC4031211B9D1C5031211B98252
:10282300C6031211B971C8031211B9A6C803121154
:10283300B90EC9031211B93DCA031211B9EFCA0384
:102843001211B920CB031211B938CB031211B9C736
:10285300CB031211B97BCE031211B953D00312115A
:10286300B96FD0031211B98BD0031211B959D10327
:102873001211B93DD5031211B91B84011211B953B9
:1028830084011211B93189011211B9778901121129
:10289300B9C48A011211B92F8B011211B9B88C0175
:1028A3001211B9C88F011211B9E390011211B9F5D0
:1028B3009A011211B9889B011211B9DA9E01121102
:1028C300B9D69F011211B931A0011211B97BA1012F
:1028D3001211B969A2011211B905A5011211B97931
:1028E300A6011211B9FCA6011211B9FFA60112111A
:1028F300B974A7011211B97EA7011211B98BA701EF
:102903001211B9B6A7011211B966A8011211B95F64
:10291300A9011211B90AAA011211B928AA011211A7
:10292300B941AA011211B96AAA011211B98CAA01FB
:102933001211B9E1AC011211B9A6AD011211B9EB33
:10294300AD011211B96AAE011211B916AF0112111C
:10295300B948AF011211B99CAF011211B9D7AF0138
:102963001211B91EB0011211B96EB0011211B9736F
:10297300B0011211B9C7B0011211B9F3B0011211AC
:10298300B9DCB1011211B92DB2011211B98DB20125
:102993001211B9E7B2011211B982B3011211B9C10F
:1029A300B6011211B9D3B7011211B94DB901121100
:1029B300B95DBC011211B9FBBC011211B9F1BF0120
:1029C3001211B9B0C0011211B9F4C0011211B99FAB
:1029D300C2011211B9B3C2011211B9BDC201121160
:1029E300B9C7C2011211B9D3C2011211B9F8C20198
:1029F3001211B9D1C4011211B926C5011211B9308E
:102A0300C5011211B93AC5011211B9AFC5011211AD
:102A1300B9FEC5011211B90FC7011211B95CC70183
:102A23001211B969C8011211B9ADC8011211B95314
:102A3300C9011211B946CA011211B90CCB01121105
:102A4300B92FCC011211B94DCD011211B935CE01F7
:102A53001211B94DCE011211B9A4CE011211B9AEA2
:102A6300CE011211B9B9CE011211B9D7CE0112118B
:102A7300B91FCF011211B981CF011211B9A8CF012A
:102A83001211B9BACF011211B955D0011211B98A75
:102A9300D0011211B971D1011211B9B6D1011211BC
:102AA300B99CD2011211B9C3D2011211B946D30193
:102AB3001211B9B7D3011211B940D5011211B96C72
:102AC300D6011211B92FD7011211B9F7D70112117B
:102AD300B981D8011211B9A9D9011211B94BDA017F
:102AE3001211B9C6DA011211B982DB011211B9CC84
:102AF300DB011211B926DC011211B9FEDC0112113E
:102B0300B921DD011211B9D4DD011211B9F6DD01CC
:102B13001211B95FDE011211B975E0011211B96D1D
:102B2300E1011211B931E2011211B963E401121189
:102B3300B9ADE4011211B9FDE4011211B961E50166
:102B43001211B9C3E5011211B9F1E5011211B91559
:102B5300E6011211B94AE6011211B97BE60112111D
:102B6300B9AEE6011211B9FEE6011211B951E7013E
:102B73001211B976E8011211B916EA011211B971ED
:102B8300EA011211B99AEA011211B927EB011211E4
:102B9300B995EB011211B9A3EB011211B9C7EB01FE
:102BA3001211B91CEC011211B937EC011211B9E978
:102BB300EC011211B921ED011211B964ED011211E9
:102BC300B9C7ED011211B9C9EF011211B9F3EF0140
:102BD3001211B9EAF0011211B9F4F1011211B9A4F9
:102BE300F2011211B9F872001211B9307300121107
:102BF300B95173001211B99373001211B9F573002F
:102C03001211B9FF73001211B90F74001211B94AEE
:102C130074001211B92A78001211B9177A0012112F
:102C2300B9FD7B001211B9947C001211B9367D00F5
:102C33001211B9E938001211B99439001211B942CD
:102C43003A001211B9483B001211B9683B00121146
:102C5300B9913C001211B94C3E001211B9BF3E00AC
:102C63001211B9633F001211B96F40001211B9DAA2
:102C730040001211B91641001211B9594100121145
:102C8300B99441001211B9D641001211B96B420037
:102C93001211B9E742001211B9B143001211B98EF2
:102CA30044001211B92645001211B9404500121112
:102CB300B97045001211B9A145001211B967460058
:102CC3001211B97746001211B9C646001211B9D3D1
:102CD30046001211B9DC46001211B95A470012110D
:102CE300B9B647001211B90148001211B91C4800C6
:102CF3001211B94748001211B96448001211B97092
:102D030048001211B9074A001211B9204A001211E2
:102D1300B9A54A001211B9B84A001211B9D74A002D
:102D23001211B97B4B001211B9FC4C001211B9AF4F
:102D33004E001211B9454F001211B9484F0012113C
:102D4300B9B84F001211B9D64F001211B96D500026
:102D53001211B9B550001211B9B850001211B97E51
:102D630051001211B9EB51001211B9115200121195
:102D7300B99C52001211B9BA52001211B900530092
:102D83001211B9B453001211B9FE53001211B92D27
:102D930054001211B98A54001211B9BF5400121110
:102DA300B9EB54001211B9F954001211B946550088
:102DB3001211B9B655001211B9FF55001211B94BD2
:102DC30056001211B97756001211B982560012112A
:102DD300B9A056001211B98B57001211B9955700BB
:102DE3001211B9D057001211B9E057001211B934BA
:102DF30058001211B94858001211B977590012112D
:102E0300B98C59001211B91A5A001211B95F5A003C
:102E13001211B9EB5A001211B9F65A001211B9384E
:102E23005C001211B9535C001211B99F5C001211BE
:102E3300B90E5D001211B9475D001211B9615D0051
:102E43001211B9C15D001211B9605E001211B9AB64
:102E53005E001211B97B61001211B92D62001211CB
:102E6300B99A62001211B9DA64001211B9F264005E
:102E73001211B9F564001211B90165001211B915E7
:102E830065001211B91D65001211B95065001211C8
:102E9300B95366001211B9E066001211B950670008
:102EA3001211B9D267001211B99368001211B9B2A5
:102EB30068001211B95369001211B9B069001211F7
:102EC300B9B369001211B9276A001211B9766B0000
:102ED3001211B97C6C001211B9076D001211B922DD
:102EE3006E001211B9EA6E001211B91B6F001211B4
:102EF300B93E6F001211B9476F001211B9766F0016
:102F03001211B90670001211B9BC70001211B93157
:102F130071001211B9D871001211B94D720012115A
:102F2300B98472001211B9C272001211B951E003CF
:102F33001211B95FD5031211B985FD031211B951ED
:102F4300FD031211B9FAFC031211B983FB03121129
:102F5300B9D5FA031211B9CBFA031211B9C1FA03A5
:102F63001211B95AFA031211B93FFA031211B99C9B
:102F7300F9031211B99CF8031211B90DE0031211F0
:102F8300B9B489061211B9BAF7031211B9AAF50334
:102F93001211B977DE031211B917DE031211B9B892
:102FA300F4031211B956F4031211B9F1FD0412110D
:102FB300B9E7FD041211B97CFD041211B9B0FB0489
:102FC3001211B96EFB041211B97AFA041211B94E37
:102FD300FA041211B905FA041211B946F9041211CF
:102FE300B935F6041211B9EDF3041211B99DF304C6
:102FF3001211B937F3041211B9F6F2041211B928F8
:10300300F2041211B9C2F1041211B961F1041211DF
:10301300B901F1041211B99FEF041211B933EF048E
:103023001211B987EE041211B982EE041211B9E735
:10303300DD031211B976EE041211B93BDD0312114F
:10304300B9D4DA031211B98BD7031211B9DFD6033E
:103053001211B94DD6031211B907D6031211B94192
:10306300EE041211B9D3EA041211B9D0EA04121111
:10307300B983EA041211B9D2D5031211B971EA0462
:103083001211B967EA041211B936EA041211B931FF
:10309300E8041211B9BCDF031211B9A4E704121139
:1030A300B9CABD061211B960E7041211B934E704B5
:1030B3001211B908FE011211B9DBFD011211B9A8F1
:1030C300FD011211B980FD011211B921FD01121187
:1030D300B901FD011211B9CCFC011211B978F90142
:1030E3001211B960F7011211B94AF5011211B9CAE7
:1030F300F4011211B976F4011211B982F30112111C
:10310300B99FD5031211B92AF4011211B998940683
:1031130000000080FB000022E4738F000100151AF9
:1031230087000100131A35000400D9192500020095
:10313300DD1926000200DF1927000200E11928002B
:103143000100EB1929000100EC19840004009B160F
:103153008600010017192A000100ED192B00010058
:10316300EE192C000100F3192D000800A9162E00FA
:103173000100F4192F000100F51930000100F619C0
:1031830031000100F71932000100B11633000100CC
:10319300B21634000100F81936000100B3163800E6
:1031A3000100F91939000100F21983000200111A14
:1031B30063000100BE1664000100EF196500010001
:1031C300F0196D000100BF1671000800A11666001A
:1031D3000100101A43000100011A44000200021A00
:1031E30045000100041A46000200051A47000800C2
:1031F300B61648000100071A4B000100081A040024
:103203000100141AA1000100181A37000100171A4F
:1032130088000100161A3C000100B4163D000100AD
:10322300FA1949000200091A67000100C0164D008F
:1032330002000B1A4E0001000D1A4F0002000E1A75
:103243003E000100001A51000100FC195200010068
:10325300FD1953000100FF1954000100B5160000C9
:1032630000000000000000002001158400000100A0
:1032730020011784000002002001198400000300CC
:103283002001168400000400420199820000050019
:103293004201C38100000600420160820000070072
:1032A30030011A84000000404201DB820000FEFF6F
:1032B3002101138403000000212382150300FEFF74
:1032C30021011384020400002905A319020410023A
:1032D30029239319030400002905A91903041000E5
:1032E3002905AB19030414002801AD1903041002C6
:1032F3002B239519050400002105A71905041002C5
:10330300292399190D04000039059D190D040202A2
:1033130010238A190D040302102389190D040402D2
:1033230021238B190D04050221238D190D0411F19D
:1033330010239B192B0400003905B0192B0410022C
:1033430028239C192B04040221238F192B04050223
:103353002123911900013636010100010201000108
:103363000301000104010606050200000701003401
:103373000801000F090401010D0100FF0E08000000
:1033830017020000190100FF1A0100011B0100FED2
:103393001C0100081D0200001F01000120010001A3
:1033A300210200002301000F240200002601000176
:1033B30027010008280200FF2A0100072B01024011
:1033C3002C0100002D0100012E0100012F0100FF3F
:1033D30030010B1D310800003A0100083B01000FCA
:1033E3003C0100013D0100FF3E04000042040000D7
:1033F300460400004A0400004E040000520400008A
:10340300560400005A040000010371030103010381
:103413000103010301032203020301031003000359
:10342300000300030003000300030003420300033F
:1034330024030603000300030403120325032303E9
:1034430025032303040304030003000300034403CD
:1034530000030003230300036503210035038103F5
:1034630000030503000300030003000325032303F4
:10347300030071003001600011007000310220036D
:10348300500480001000610000001400630073000A
:1034930072006200430000001300060000000000F9
:1034A30004001200000000000000000004000400FB
:1034B300370037003C024400000000000000000019
:1034C3006500000035008100000005000000830056
:1034D3000000030471040204600411047004020474
:1034E30002040104020410046104000414046304CC
:1034F3007304720462044304000413040604000406
:103503000004040412040004000400040004510431
:1035130064000004000400044404000400040004E4
:1035230000046504000435048104640005040004F8
:10353300830400040302710230016002110270026D
:103543000102020202028002100261023A004100FB
:103553006302730272026202430200021302380022
:103563000002000204021202000200020002000232
:1035730004020402370037003C024402000239000F
:103583000002000265020002350281020002050208
:103593008202830200020101710101010101110193
:1035A30001013101010101018001100161013B00B1
:1035B30014006301730172016201430100011301ED
:1035C30006013D0135000401120100010001000163
:1035D300000104010401330133013C0144013201C0
:1035E3003600000100016501000135008101000181
:1035F300050182018301000136000100060000007D
:103603000F0000000000000000000000000003FFA6
:10361300FF00000403FFFF0000FFFF0FF40100059C
:10362300C4040320000100000B00000000000000A0
:103633000003010F00000000000000000000000074
:103643000000000000000000000000000000000077
:10365300000000000000C31DED1DC91DF71CCF1D98
:10366300F31DCF1DFF1DD51DF71CCF1DF31DDB1D46
:10367300F71C00000000E11DF71C00000000000023
:103683000000E71DF71C0000000000000000000020
:103693000000000000000000000000000000000027
:1036A3000000000000000000000000000000000017
:1036B3000000130075201F007B201F808120000065
:1036C300DB200100DB200200212002801B200300FD
:1036D300272004002D200480332005003920060014
:1036E30045203100572033005D203400632036002D
:1036F3006920FFFF00000A00000002000000040030
:10370300000008000000100000002000000040003E
:10371300000080000000000100000002000000041F
:10372300000000080000001000000020000000401E
:10373300000001B52806E52808DF280B032910033C
:103743002602BB2805D32807C1280C9D280DA928CC
:1037530064F923FF000007ECFDFDFDECDCDCCCBCD1
:10376300ACAC9C9C8C7C7C6C6C5C5C5C4C4C3C3C46
:103773002C2C1C1C03EAF5E5D5D5C5B5A595958577
:1037830085757565655555454535352525151505E6
:1037930000160F00000B150B020002220F3300006E
:1037A3000E0FD0D1D2D3D4D5D6D7D8D9DADBDCDD3E
:1037B300DEDF5A6967426565416C6C69616E6365FA
:1037C300303900000000000000000000000000008D
:1037D300000000034D4C4651181A250502003C40D9
:1037E300423A3F3F392F4730000119161816161871
:1037F300230300303017181921301B1D1F303030C0
:1038030016181920231A1C1E300C0E020B040B0A67
:103813000708000F02040201010101090200BE04AE
:103823000AE80300000000000003007F001A000103
:1038330000E803080A0A051003030A0C091E081E00
:103843001E0C28FF00040215033C180A1015100073
:10385300E4F0A3F0A3F0A322123853F02290180946
:10386300124E5F122C9F2212386E22E0F508E4F507
:1038730009F50AF50B22E824FBF582E934FFF58309
:1038830022E82411F582E439F583E022F583123826
:103893009522E0F508A3E0F50922122F1B74041208
:1038A30011E97F08020F187401F090057CE0640FA2
:1038B3002274091211E97F04020F18EA2413FAE4AF
:1038C3003FFB122E49E9227905122E55740622A3D5
:1038D300A3E024F5C3941322122F2790059C126EA4
:1038E3001D7A147B0022C082C0839017E87493F082
:1038F300A3742CF0A374A5F0A3742CF09017EC74AC
:103903007BF0A3742CF0A37475F0A3742CF0A37450
:10391300B1F0A3742CF0A374B7F0A3742CF0A374C8
:10392300ABF0A3742CF0A37463F0A3742CF0901782
:10393300F87487F0A3742CF0A3748DF0A3742CF0A7
:10394300A37481F0A3742CF0A374BDF0A3742CF0C2
:1039530090180912582E6009901809124E5B121B19
:10396300C590180612517574081264CAA3F0901812
:10397300B2F090180BF07C0BFDF97A0C7B18121B3C
:10398300177C0B7D0079007A177B18121B17024FE7
:10399300CF74F7120C1174F712129CEAFEEBFF12AC
:1039A3003A2774051252937403F0123B3E12527578
:1039B3002430FCE43FFD8C82123A1F123A33600834
:1039C30012424C74FFF0A3F0EE242EE43F1C1CFDC6
:1039D3008C82F583A3E0C0E08A828B83124F27D0C9
:1039E300E0123A33888289831257622403F0EE127D
:1039F30042561215407403F0900591120FE77402BA
:103A030012127C123E201211E9E9F5087007EEFA52
:103A1300EFFB122D2FA9087409024265F583E08894
:103A230082898322EA123A2C221259713FF58322AA
:103A330012674A125281E8F0A3E9126A21E0227464
:103A4300F0120C11EAFEEBFF8C0C8D0D890B123B6F
:103A53003EF5831252897410121540E0F508A31243
:103A63003A21F0E824FFF582E9123E32E508F0E856
:103A730024FEF582E9123E32E50BF0900596E0C094
:103A8300E0E824FDF582E9123E32D0E0F09005959E
:103A9300E0C0E0E824FCF582E9123E32D0E0F074A5
:103AA30012121540123891123879E509F0E824FA18
:103AB300F8E934FFF98882F583E508F0EE2404FC85
:103AC300E43FFD88088A828B83E0F50E8C828D8328
:103AD300E0250EC3950812674A1250AF850C828504
:103AE3000D83A3A3A3A3A3A3A3A3E064037009EE7D
:103AF300125263F0A3E48003123E37123E3F74096F
:103B0300F075080C750918750A0078081212081266
:103B130062141211E97508FF7509FF780812120C77
:103B2300AC0CAD0D123E201211E9E9F5087007EE59
:103B3300FAEFFB122D2FA9080238A5EA2402FAE4B2
:103B43003FFB8A8222C082C083901828E0C3940876
:103B5300400474078001E08A828B83F0333333544B
:103B6300F8F9024FCF74F0120C118A088B09890AF5
:103B73008C0E8D0F750C00A2AFE433F50BC2AF9022
:103B830018228045123C6A503D123C84640370360F
:103B9300E50824F9F508E50934FFF5098E828F83DA
:103BA300A3A3E02405FCA3E03400FDAA08AB09129B
:103BB3001CB5E50824FFF508E50934FFF509741081
:103BC300250CF50C150A1240591271D2E50A60044E
:103BD300EE4F70B0E50BA2E092AFA2AFE433F50B6A
:103BE300C2AF901822803E12573B8882F583124958
:103BF300AF850882850983F08A828983123C7BA37F
:103C0300A3E0C0E0E50824FFF582E509123E32D0C7
:103C1300E0F0E50824FEF508E50934FFF509050C95
:103C2300150A124059123EAD6021123C84640270A1
:103C3300F1123C6AEE40B01253AAA2E550E4850E9D
:103C430082850F837401F0E50A70D7E50BA2E09239
:103C5300AF850882850983E50CF0E50824FFFAE5C2
:103C63000934FFFB0238A5123C70A2E622EE2411B0
:103C7300F582E43FF583E022123C7F22125780A3B2
:103C8300228E828F83A3A3124F2B125E572274F0CE
:103C9300120C1174F312129C7403121540E9F074A0
:103CA30002121540EAF08B0B852182852283E4F012
:103CB30004121274122C45E9F890057BE02924378D
:103CC300F508FA7B00121B298A0C8B0DAE0CAF0D85
:103CD300EA4F7003023E17EA2402F50EE43FF50FA4
:103CE300A808EA28F8E43BF9850E82850F8312477A
:103CF300AB90057BE0F9FAC3E49AFA95E0FB850EF5
:103D030082850F83E02AF50CA3E03BF50D9005793E
:103D1300123891750A007808121208E9FC7D00AA8E
:103D23000CAB0D1251E51211E9AC21AD2274011255
:103D33001540E0F9E50C24FFFAE50D34FFFB122CE6
:103D43004B8A828B83E4F0E50BC454F0F99018B3EB
:103D5300E0C4333354C0F8900575E0A2E0E43313B4
:103D6300134849440FC0E0EA24FFF582EB123E32C8
:103D7300D0E0F0EA24FEF50CEB34FFF50D740312EA
:103D83001540E0F87402121540E0C454F048850C65
:103D930082850D83F0A80C850E82850F83126497AC
:103DA3002AC3988E828F83A3A3A3A3F0850E828553
:103DB3000F83E8F0A3E50DF0123E37123E3FE4F027
:103DC300740C121540E4F075081775091878081279
:103DD30012081262141211E9852182852283E060A0
:103DE30009EE240E1253AC4408F0122E37E9F9E41D
:103DF300F508F509780812120C740612127C123EAB
:103E0300221211E9E97006EEFAEFFB800BEEFAEFEE
:103E1300FB121B2F7A007B00740D0238A27903EE8C
:103E2300FAEFFB122E4F740222EE24FFF582EF34D9
:103E3300FFF58322EE123A2CE4F0A322F0123E4463
:103E430022EE1261373FF5832274F2120C118A0CB1
:103E53008B0DA2AFE433F50AC2AF750800750900F4
:103E6300901822802C1240695024850C82850D8382
:103E7300A3A31262278E828F83A3A3124E5B122EFB
:103E83003DE9600A124064C2E6F08E088F091240D1
:103E930059123EAD70CFE50845096006123F46D280
:103EA300E6F0E50AA2E092AF800DE0FEA3E0FFEEAC
:103EB3004F2274021211E97F06020F1874F0120CDC
:103EC300118A0E8B0F8C0C8D0D750A00A2AFE43393
:103ED300F50BC2AF7E007F009018228010AE08AFB2
:103EE30009123F3E1253AAD2E7F0124E39124E4D39
:103EF3006034123F46A2E750F1850882850983A307
:103F0300A3120FE7AC0CAD0DAA0EAB0F122E437428
:103F1300021211E9E960D3EE4F60C21242E070066B
:103F2300123F58D2E4F0E50BA2E092AFEE4F6006E9
:103F3300122D29750A01A90A0238A5123C70D2E490
:103F4300F0EE22E5081261513509F583E022AA82D9
:103F5300AB83121CB58E828F83A3A3124F2BE02257
:103F630074F2120C1174FE12129C750C00750D0084
:103F7300852182852283E4F0A3F0A2AF33F50AC240
:103F8300AF9018221271D2802BEE24FBF582EF340E
:103F9300FF12388F780C12120C1240471211E9EEFF
:103FA300FCEFFDAA21AB22121B4DAE08AF099018FE
:103FB30028E014F0EE4F602B124069501DEE240BE5
:103FC300F8E43FF98882F583E024FFF0A3E034FFAF
:103FD300F08882898312582E60AF8E0C8F0D1240A9
:103FE3005980A1E50AA2E092AF901828E0602C90D6
:103FF300057CE0640F60069018B2E0701E7A007BC7
:1040030018122F2790840F120FE37A007B18125097
:10401300571211E9800574F0124F38AA21AB22120E
:104023001B538A088B09AE08AF09EA4F6013122CA1
:1040330057124064A2E28E828F83A350D974E98021
:10404300D7023EB5EEFCEFFD7A227B18121B5F749C
:1040530002228E0A8F0BEE24FBF582EF34FFF583E9
:1040630022EE123C7122123C70A2E72274F7120C6A
:1040730011EAFEEBFF122C57124F2412311BE96495
:1040830001900598700AE02401F8A3E0340080034E
:10409300124EAAF91255AC1250AF901828E0701FB7
:1040A30090057CE0640F70177A007B18122F27901D
:1040B300840F120FE37A007B181250571211E9A8EC
:1040C300A8C2AF901828E004F0E8A2E78004E5084E
:1040D300A2E092AF0254BA74F7120C11EAFEEBFF9E
:1040E300EA124110F0122C57EEFCEFFD7A227B18F6
:1040F300121B59A8A8C2AF9018281249FE90057C3C
:10410300E0640F70057908122DEF0254BA123C7166
:10411300C2E42274F7120C1174EA12129CEAFEEB49
:10412300FF900575E0602A8521828522837401F062
:10413300121540E41241CB121540123F51C0E074F6
:104143000A121540D0E01264B7740B1215401257CF
:1041530017741602426574F7120C11EAFEEBFF1294
:104163002C39E9F974DC69601E74DD69601974E443
:1041730069601474F369600F74DE69600A74DF693F
:10418300600574DB697007EEFAEFFB122DF502543C
:10419300BA74F7120C1174EB12129CEAFEEBFF8552
:1041A300218285228374061241CB121540AA82AB69
:1041B30083121CB5EE2408FCE43FFD740A1215407B
:1041C3001257177415024265F0EA2413FCE43FFD0D
:1041D30074022274F7120C1174F712129CEAFEEBAC
:1041E300FFEA24301253AC605DEA124256121540C6
:1041F3007403F0900591120FE712424C120FE790EF
:1042030005A4E0F9740412127CEEFAEFFB122C3FC2
:1042130074041211E9E9F974DC69602374DD6960DF
:104223001E74E469601974F369601474DE69600FC5
:1042330074DF69600A74E869600574DB697007EE0E
:10424300FAEFFB122DF5023A1AEE242EF582E43F23
:10425300F58322126628AA21AB22121CB574082208
:1042630074031211E90254BA74F2120C118A0C8B02
:104273000D750A00750B007508E7A2AFE433F50965
:10428300C2AF9018228003124055123EAD60251232
:10429300406950F31242E070EEEE2432124477E0AC
:1042A3006870E4780A12120C1240471211E9901850
:1042B30028E014F0E509A2E092AFEE4F6013EEFAA6
:1042C300EFFB122C5779F0EEFAEFFB122DF5750880
:1042D30000A908AA0CAB0D122DF5023EBA123E44FA
:1042E300E064012274F4120C1174F712129CEAFEBA
:1042F300EBFF8A82F583A3E064F370030243858AAC
:10430300828B83A3E064DF60798A828B83A3E0647A
:10431300E8606F8A828B83A3E064DB6065122C996B
:10432300E9F5087055EE240E1253AC604D12438F1D
:104333006048740812154012439E120FE77508FF78
:104343007509FF780812120C8E828F83A3A3A3A38F
:10435300A3A3A3A3E0F9740412127C122C3F7404E8
:104363001211E9E9F50874F369600F74DF69600AF3
:1043730074E869600574DB69700F8E828F83A3E52F
:1043830008F0EEFAEFFB122CA50238B4EE240FFA74
:10439300E43FFB7909122CDBEA4B227402125C1D09
:1043A30074FFF0A31243AB2212576BA3A32274F141
:1043B300120C11EAFEEBFF7508008A82F583A3A3B2
:1043C300A3A3A3A31238D240037508E88A828B8380
:1043D300A3A3A3A3A3A3A3A3A3A3E0C394104005F0
:1043E3007508E880138A828B83A3A3A3A3A3A3A343
:1043F300A3A3A3E0640F600B90188FE0540870032D
:104403007508E8EA240B124477A3A3A3A3A3A3A3E9
:10441300A3E0C398500DEA240B1253AC640F60035E
:104423007508E8900595E0F47003A3E0F470037554
:1044330008EC7A237B00121BBF8B0BA90B90180986
:1044430012448660278E828F83A3A3A982AA8389BD
:104453000C8A0D750E00780C1212087C237D0090D7
:104463001809E0FA1251E51211E9800375081AA937
:104473000802620FF582E43FF583E0F88A828B83BA
:10448300A3A322EAF0A3EBF0EA492274F5120C117C
:10449300EAFEEBFF8A82F583A3A3A3A3A3A3A3A3AB
:1044A300E090057C12451EE0900597F0EA240B127C
:1044B30053AC90057712451EA3E09018B3F0F912A0
:1044C30019799018B3E0600BEE240412539E24066E
:1044D3001245149018B21238AA6004740180027451
:1044E3000090180B126B621212087C0B7D007A0C81
:1044F3007B181251E51211E9EE2418F508E43FF593
:104503000978081212087C0B7D007A177B18025178
:10451300D2FAE43FFB79E112196122126B4CA3A397
:10452300A3A32274F7120C11EAFEEBFF8A82F58330
:10453300A3E070031238601266D30254BA74F71200
:104543000C11EAFEEBFF90180912582E6010901818
:1045530009124E5B901809E4F0A3F0121BC58E827A
:104563008F837408124F3F1222B50254BA74F612A5
:104573000C119018B2E0601090180BE0700A12450D
:104583008EEA4B6003122D2F0267CD900577E0FB77
:10459300900597E0FA90057CE0F9122C512274F40F
:1045A300120C1174E712129CEAFEEBFF750B018AE1
:1045B30082F583A3A3A3A3A3A3A3E0A2E25069EA82
:1045C300242BF582E43F126225EA2413FAE43FFB2D
:1045D300122C5DE970529082D9E064017005750B6D
:1045E3000080451246601212087C0B7D0074111284
:1045F30012741251E51211E9122E37E9FA740E12F0
:10460300126C88088909780812120C75083075092C
:1046130000780812120CEE126480120FE712661A69
:1046230079011238CC1211E9852182852283741015
:10463300F012661A7402121540AA82AB83121CA9E7
:10464300EE242B126E13740B1215401250AF740D1F
:10465300121540E50B12688C74190238B6EE240863
:10466300126B6A22C082C0839018B3E06003122EDB
:10467300A9024FCFC082C0839018AA74E8F0A37434
:1046830017F0A374ECF0A37417F0A374F8F0A374F9
:1046930017F0901AC374D5F0A37434F0901894747F
:1046A30033F0A3742CF090182D7469F0A3742CF0DC
:1046B30090182F746FF0A3742CF090188FE04402BD
:1046C300024AD3C082C083EAFCEBFD79030257DAC6
:1046D300C082C083790802694DC082C08374FE1210
:1046E300129C9018357417F0A3742DF0901837743A
:1046F30011F0A3742DF080077A227B1812473890AB
:10470300182212582E70F190182412582E60097A2C
:10471300247B1812473880EF901822E4F0A3F0901E
:104723001828F0A3F0A3F09018437453F0A3742D4A
:10473300F07402801C121B53852182852283EAF0C8
:10474300A3EB12474C122E2522F0AA21AB2222748E
:10475300111211E9024FCF74F6120C11E9FF74E044
:1047630029F582E43437F583E493FEFA7B00121BC8
:1047730029EA4B6007EA2E1247A880267A027B00BB
:10478300121B29EA4B601774F62FF582E43437F5D0
:1047930083E4938A828B83F0A3741A124B717A0099
:1047A3007B000267CD12509EE8126747A3A3A3A321
:1047B300E4F022E9FC740629F8EAA2E0501EE87549
:1047C300F00A84E5F0F96014740A28C399F8E9C380
:1047D30094054004740A28F8740B28F8ECC3941366
:1047E3004004791480027906E82979002409F850F5
:1047F30001097A0A7B001209AFE8F90211B6C082F7
:10480300C08390188FE05402600A1222BBE960044F
:10481300790180027900024FCFC082C08390188F44
:10482300E054026014901828E0700A12582B6009B3
:104833001248415004790180027900024FCF1238A7
:1048430084A2E722C082C0839082D6E0F890182A1F
:10485300E0C3985005121B2980047A007B00024FA5
:10486300CFC082C083122E257900024FCFC082C0F1
:104873008374FE12129C852182852283EAF0A3EBC6
:104883001249DAA3A3A3A3A3E0600A14605724FE8A
:10489300605A02494A90057CE0640F6012122DFBB6
:1048A300E9700C124E55901831124F2712311B909C
:1048B30005A4E0C0E085218285228312574ED0E013
:1048C3001249DA741412616BFCA3E0FD7A247B189D
:1048D300121B4DA8A8C2AF90182A1249FE792012C4
:1048E3002DEF024734124CA8741580D9124CA8A39B
:1048F300A3A3A3E06051124CA8123F5CC0E0852142
:1049030082852283E02406F582E43BF583D0E0121E
:10491300616B2402F8A3E03400F98882F583E02474
:1049230001FAA3E03400FB88828983EAF0A3EB1247
:10493300616B124CE885218285228360131249AF93
:1049430060051249C14048AA21AB22122E2580924C
:104953001249AF60F21249C150211249CEFA8521A2
:1049630082852283A3E0C82406124CA4F87416128D
:1049730059633438F583E4936A6014852182852270
:10498300831249AF640870BF1249CE640870B8122D
:1049930049CE141249E2240AC0E08521828522838C
:1049A300124F27D0E01249E2040248C81249B32249
:1049B300124EAAC82406F582E438F583E022852145
:1049C300828522831249B3C3940A228521828522D8
:1049D30083123C7FA3E0221249ECF58388822212E2
:1049E30049ECC82406124CD222F085218285228309
:1049F300124EAA22A8A8C2AF901829E004F0E8A298
:104A0300E792AF22C082C08390183912582E6008F3
:104A1300124CAF12311B80027900024FCF74F71290
:104A23000C11EAFEEBFFEA123E45740112505DF8E9
:104A3300A3E0F9123A271250AFEA24351253ACC05F
:104A4300E0EA2413F582E43FF583D0E0F0EA24366C
:104A53001253ACC0E0EA2414F582E43FF583D0E0BE
:104A6300F0EA24381253ACC0E0EA2418F582E43F9C
:104A7300F583D0E0F0EA242FF582E43FF583120FAB
:104A8300E7126627EA24311253ACF9123E261211BB
:104A9300E9E9F5087007EEFAEFFB122D2FA90802DA
:104AA30054BAC082C083122DFBE9600479208002CE
:104AB3007901024FCFC082C083EA2411124AC9D2BE
:104AC300E0800DEA240DF582E43BF583E022F0A3B8
:104AD300F0024FCFC082C083124AC6640170111224
:104AE3004B6B400C8A828B83A3E0F9122DF5806611
:104AF300124B5CA2E650128A828B83A3E0F99018D2
:104B030033124F2712311B804D124AC66401700DB8
:104B1300124B6B50088A828B83743080368A828B67
:104B230083A3E0641B8A828B83700474228024A392
:104B3300E0700D124AC6F874011259633438800BC1
:104B4300124AC6F874F61259633437F583E4938A2C
:104B5300828B83124B71024FCF124B6022EA2410D7
:104B6300F582E43BF583E022124B60A2E322F0904E
:104B7300188AE0F9121B352274F7120C11E9FE12A0
:104B8300582B7003024CA1EE6014741B6E701AE86C
:104B930012613739F583E064057003024C7990188C
:104BA3002C124CAFA3E4024C8074E96E7068E824C5
:104BB30012F582E439F583E0700B1222C1E9600536
:104BC300124CF2606179EE1218E390182B124CC963
:104BD30090182B603A124CF590182B700B124CC99D
:104BE30014F0121A99024CA1124CE7C2E7124E902C
:104BF300240D124CA464037009124CC2124E46D207
:104C0300E2F079ED1218E3124CDA12311B807812BC
:104C13004CB574E9806774E16E703E1222C1E9609D
:104C230055124CF2705090059EE0C0E0124CC22425
:104C330012F582E438F583D0E0F090058DE0C0E012
:104C430090182B124CBE124CBED0E0F090058DE0B4
:104C530004F07901121A818045741C6E7018901843
:104C63002B124E5B90183B124F2712311B90182BBF
:104C7300E4F0A3F0802890182B124CB5EEF09018B6
:104C83002B124E5B122D1D124E71E05480600312E5
:104C9300693C90182BE4F0A3F07910122DEF025425
:104CA300BA124CD222852182852283A3E0F5838820
:104CB3008222124CB922124F2FA32212577C229028
:104CC300182B12575D2212575D2412124CD222F573
:104CD30082E438F583E02290182B124E5F90182F50
:104CE300124F2B22E0F8A3E0C82410124CD22290DA
:104CF300182B124E78E054042274F4120C11750A26
:104D030000750B00A2AFE433FEC2AF12582B600351
:104D1300024DEF124F2412311BE94410F890182270
:104D2300800985080A85090B124E39124E4D70030E
:104D3300024DEF123F46586870E8780A12120CAC25
:104D430008AD0912404B1211E990182BE508F0A3A6
:104D5300E509124E90124E46A2E75003024DF6901B
:104D63001829E014F0EEA2E092AF90182BE0240E85
:104D7300F8A3E03400F9E8FEE9FF8882F583124ED8
:104D83005B90182B1249D4F9122CE1E990182612E2
:104D930064CA8E828F83E054806018124CC224133D
:104DA300124CA4F912199D124CC22414124CA4F9EA
:104DB300121991124E71A3E05401605F90182612EC
:104DC300582E6045124E876040124E87F879009046
:104DD3001826124E5B1209B7E8C0E0124E65D0E008
:104DE300124E95C3941340117402800FEEA2E09209
:104DF300AF8037901828024D657400C0E090182CDE
:104E0300E0C8124E30D0E0800D124E657401124E90
:104E130090124E307401F07903800C90182B124CD1
:104E2300E7A2E1B3E433F9121A810238B9241AF57F
:104E330082E438F58322E50824FBF582E50934FF93
:104E4300F58322126151124CD522123895E508459B
:104E53000922852182852283124E5F22E0FAA3E094
:104E6300FB2212575A2419F582E438F5832290184D
:104E73002B124E7822124EAAC8124E80221259715A
:104E830038F5832212575A2418124CD222124EA2FA
:104E9300C822124EA2F5838882A3A3A3A3E022F023
:104EA30090182B124EAA22E0F8A3E02274F7120CFA
:104EB30011EAFEEBFF122E1F1253A9A2E3400A12BE
:104EC30042E070059082D480039082D5E0F9EEFC35
:104ED300EFFD7A227B18121B65E96038EEFAEFFBCF
:104EE300901835124F2712311BEE240E1253AC5477
:104EF3000470121249F7EE123A28A3E05401701E0F
:104F0300122D298019EEFAEFFB90182D124F27125C
:104F1300311B800A8E828F83A374F1124F3802549F
:104F2300BA901837124F2B22124F2F22E0F8A3E02A
:104F3300F583888222124F3F122D1D22F0EEFAEFE5
:104F4300FB22024FC874F7120C11EAFEEBFF790043
:104F530090188FE05402700CEA24331253AC5404BB
:104F6300600279E890188FE05460700CEA243312E1
:104F730053AC5402600279E88A828B83A3A3A3A370
:104F8300E0F89082DAE0C398500279E8EA2431121B
:104F930053AC700CEA242E1253AC700479F5800BD9
:104FA300E97005122D0BE9F9E96007EEFAEFFB1240
:104FB3002DF50254BAC082C0838A828B83740DF0AC
:104FC3001222B58007C082C083122D29D083D082DC
:104FD3000211B674F4120C11EAFEEBFF8A82F58318
:104FE300E4F0A312505D54049082D47012E0F89060
:104FF3001829E0C398401279F1122DF50238B9E06F
:10500300F8901828E0C39850EE125063A3E05401BF
:105013006037EA24371253ACC394054033EA243390
:105023001253AC540570297A3D7B18122F27EE24B6
:1050330037F582E43FF58312386A78081212047A4E
:105043003D7B181250571211E9EEFA125A5480ACF4
:1050530079E880A5122F1B740422F0125063E0221A
:10506300EA2433F582E43FF5832274F6120C11E946
:10507300FE2451FAE43400FB121B29EA4B6015EEBF
:105083008A828B83A3A3A3A3F0EA245112509E1216
:1050930050AF80047A007B000267CDF8E43BF98AC5
:1050A300828B83A3A322126E1D901907E8F0A3E954
:1050B300F022024FC8C082C083901846747DF0A3CB
:1050C300742DF0A374ADF0A3742DF0A37483F0A337
:1050D300742DF0A37489F0A3742DF0A374A7F0A327
:1050E300742DF0A3749BF0A3742DF0A37495F0A317
:1050F300742DF0A374B3F0A3742DF0A374B9F0A3CB
:10510300742DF0A374BFF0A3742DF0A374CBF0A39C
:10511300742DF0A3748FF0A3742DF0A37477F0A310
:10512300742DF0A37471F0A3742DF090186274A120
:10513300F0A3742DF0A374C5F0A3742DF0A374DF52
:10514300F0A3742EF0A374D1F0A3742DF0A374D73D
:10515300F0A3742DF0901886E4F0901889F090185D
:10516300721251757402F090187B1251757401021A
:105173004AD374EFF0A3742DF0A32274F5120C112B
:1051830074F112129C8521828522837402F07401CA
:10519300121540E9F060047AFF7BFF740212154098
:1051A300125C1275087E750918750A0078081212C8
:1051B300087C0B7D007407121540AA82AB83125141
:1051C300E51211E9AA21AB221222B5740F80031252
:1051D30051E51211E97F03020F187C0B7D007A7EE3
:1051E3007B18121B0B74032274F7120C1174FD123B
:1051F300129C852182852283740AF0740112154062
:10520300E9F07402121540EA12688C02426374F6E4
:10521300120C1174F712129CEAFEEBFFEA125263AE
:105223001252937402F0EA2428FCE43FFDAA21AB56
:1052330022121CA9EE2431125269243312628B12FA
:10524300120C740212127C79831A1A123E24121160
:10525300E9E9F5087007EEFAEFFB122D2F0267C696
:10526300123A2C740122F582E43FF5831238951229
:105273005733F583125281E8F0A3E9F0EE2212527C
:10528300898A828B8322E024FFF8A3E034FFF9228A
:10529300F0A3E4F0EA123E452274F0120C11126CF2
:1052A300FB1214CD7808790C120AAA78081212049A
:1052B3007A757B1802389D74F4120C1174C612129D
:1052C3009C90057CE0640F600D85218285228374A8
:1052D3002E125C3180227A6C7B181238DB1209B7EC
:1052E30088088909E4F50AF50B78081212047A6C28
:1052F3007B181250571211E9743A0238B674F5123A
:105303000C11EAFEEBFF8A82F583A3E0F87078EADA
:1053130024301253AC64026007E06403600278E84F
:10532300EA2426F582E43FF5831238D4400478E872
:105333008058E87052EA2426124514EE24311253A1
:105343009E24301253AC6402700EEE2428126E13A6
:1053530090058B1250AF801790058B74FEF0A30459
:10536300F0EE2428FCE43FFD7A827B05121CB5EEA7
:10537300241B1246631212081251DD1211E9EEFAD0
:10538300EFFB122D6BE9F8E8600EE88E828F83A3A2
:1053930012662F74171266D90251D8FAE43FFB79CB
:1053A30050121961EE22EE2410F582E43FF583E0FA
:1053B3002274F6120C1174F712129C901889E07083
:1053C300377401F0F9121A4BAA21AB22122E317550
:1053D300087E750918780812120C75080175090002
:1053E300780812120C900591120FE7740612127CC2
:1053F3007A031238CA1211E90267C874F7120C1142
:105403001255DA7004A374EBF0901889E0A2E2500D
:1054130003C2E2F0E0A2E150051255EB80098E824F
:105423008F83742A1266D90254BA74F4120C11745D
:10543300FE12129C1254E0125726EC85218285221B
:1054430083125775E0F50B7015AA21AB227953121D
:105453001961EE2413FAE43FFB794A1219611246EB
:10546300601212081251DD1211E9124E55A90B12E6
:105473002D5F901889E0A2E150031255F29018892C
:10548300E4F074020238B674F7120C11EAFEEBFF73
:105493008A82F583A374EBF0901889E0A2E15007A8
:1054A3007A0079EB122D65EEFAEFFB122D9B800744
:1054B300EEFAEFFB122E9D7F01020F1874F7120C08
:1054C300111254E0901886E4F0901889F07AFF7B6B
:1054D300FF8E828F83A3E0F9122D5F80DA12562BA1
:1054E3007A757B18122F272274F7120C11EAFEEB40
:1054F300FF122D9580BA74F7120C11125668A3A3EC
:10550300A3E060047400800274EB1255395003C2A7
:10551300E2F0E0A2E1500512563C8011A2E0500DEA
:105523008E828F83742AF0A374EB1266D9EEFAEF9E
:10553300FB122D4180818E828F83A3F0901889E026
:10554300A2E22274F6120C11EAFEEBFF901889E036
:10555300D2E1F07901121A4B8E828F83A3E0703867
:10556300122E37E9FAEE240DF508E43FF509780821
:1055730012120C750801750900780812120C1255E5
:10558300AC120FE7EE2402FCE43FFD1238CA1211FD
:10559300E9E98E828F83A3F08E828F83A3E0600676
:1055A3007A00F9122D650267CDEE240BF582E43FF4
:1055B300F5832274F7120C111255DA7004A374EBFD
:1055C300F0901889E0A2E25003C2E2F0E0A2E150B9
:1055D300031255EB0254BAEAFEEBFF7901121A519A
:1055E3008E828F83E0642022C2E1F01255F2227A88
:1055F300008E828F83A3E0F9122D652274F7120CBB
:105603001112562B8E828F83A3A3A3A3E06004748D
:1056130000800274EB1255395003C2E2F0E0A2E1BC
:10562300500312563C025530EAFEEBFF7901121A81
:10563300517A6C7B18122F2722C2E1126B5DE0A214
:10564300E4E433FA1255F42274F7120C111256687B
:1056530074EB12553E5003C2E2F0E0A2E150031294
:1056630055EB0254BAEAFEEBFF7901121A518E820E
:105673008F83A32274F7120C1112568D0254B37444
:10568300F7120C1112568D0254BAEAFEEBFF7A6C34
:105693007B18122F27EEFAEFFB122DBF2274F7129D
:1056A3000C1174EF12129CEAFEEBFFEA12661B7AEE
:1056B300827B05121CA3E9605685218285228374AF
:1056C30009F0740112154074EFF012572674021298
:1056D3001540EC125775A3A3E0C0E0740412154003
:1056E300D0E0125762640870158E828F83A3A312D1
:1056F300574EE0C0E07405121540D0E080067405F3
:10570300121540E41264B774061215401257177449
:1057130011024265AA82AB83122E67AA21AB221221
:1057230022B522125733F583125745FCA3E0F92221
:10573300EE12573BFB8882222402F8E43FF9E8FA91
:10574300E922124EAA8882F583E02212575D2407CC
:10575300F582E438F5832290182B124EAAC8221240
:1057630057662212576BE022F08E828F83A3A3A386
:10577300A32212674712577C2212578022E0F8A314
:10578300E0F5838882A3A322C082C083122EA902DC
:105793004FCFC082C0839018A67446F0A37418F04C
:1057A300A37462F0A37418F0901ABD7499F0A374F3
:1057B30035F0A37437F0A37435F09018927459F050
:1057C300A3742DF090188FE04401024AD3C082C025
:1057D30083EAFCEBFD7902122E0D024FCF74F61211
:1057E3000C1174FE12129C90188B12582E60077ABB
:1057F3008B7B18122E25901891E4F0900D0112580E
:105803002E60208007AA21AB22122E2590188AE051
:10581300F9121B418B09A909852182852283124430
:105823008670E274020267CA90182B126E1DE84953
:105833002274F7120C11E9FA7B0090188AE0F9122E
:105843001B6B0254BA74F7120C1174F012129CEA17
:10585300FCEBFDE9FE8A828B83E0F8740C1259633A
:105863003438F583E493C0E07401121540D0E0F0BE
:10587300640B700DE98A828B83A3F0122E8B02597D
:105883005EE0700302595E640C600302594F741AA0
:105893006E700B7404121540E4F0A302594E7404A5
:1058A300121540125C12EA243212611BC0E0740329
:1058B300121540D0E0126B481215057406121540FC
:1058C3001215118C828D83A3A3A3A3A3A3A3A3A3C4
:1058D300126E19740A121540E8F0A3E9125968E030
:1058E30054106009852182852283E48013EC2412FD
:1058F30012611BF890059EE0C3988521828522835F
:10590300F0E0C0E0740C121540D0E0F0EC24151266
:10591300611BC0E0740D121540D0E0F0EC241612A8
:10592300611BC0E0740E121540D0E0F0EC24171296
:10593300611BC0E0740F121540D0E0125968A3E058
:105943005401600874011215407411F074021215A9
:1059530040EEF074011212741222B5741002426503
:1059630028F582E422F0EC1259713DF58322240ECE
:10597300F582E422C082C083901891E0640370042E
:10598300790180027900024FCF74F7120C1190183D
:1059930091E0125A0774BB28F582741A39F5831201
:1059A3005E99C2E7F0125A0EA3E493FE25E0FCE4ED
:1059B30033FD74BB2CF582741A3D126225EC4D60E5
:1059C30005EE901891F08A828B83E025E0FCE433A6
:1059D300FDE82CF582E93DF583E493FCC4540F25DF
:1059E300E0F874A01259633418F58312582E700529
:1059F300122E79800CEC540F125A0E124F271231CB
:105A03001B0254BA25E0F8E433F92225E0FCE82C24
:105A1300F582E439F5832274F2120C1174FE12122A
:105A23009C890B8A088B09125AB9125AAA601A1256
:105A330064C4F50A7808121208125AC624021262C4
:105A43001B1211E9125A528003125AD8023EB5AA08
:105A53000CEFFB90188AE0F9121B352274F0120C3C
:105A63001174FE12129C890B8A0E8B0F125AB9F510
:105A730008125AAA60271264C4A808EA281247A881
:105A8300850E08850F09F50A7808121208125AC6FE
:105A93001262191211E9125A5279008005125AD86A
:105AA300791A74020238A2FA7B00121B298A0C8B22
:105AB3000DAF0DEA4F2274D529F582E43437F5830F
:105AC300E49322A80B74EB1259633437F583E49300
:105AD300FC7D00EA22852182852283E50BF0791A79
:105AE300AA21AB22122DF522C082C083E990188A25
:105AF300024AD374F6120C1174FE12129CEAFEEBE6
:105B0300FFEA542070308039A8A8C2AF90182AE069
:105B130014124A008A828B83125BFF90188D125CE9
:105B230012122E01852182852283E0641560077A93
