:020000040000FA
:0600000002142D02086A43
:030013000209C01F
:03002B000211E9D6
:0300330002107246
:03003B00020A15A1
:0300530002079F02
:100083000207FE010000000000F8FF07FFFF000069
:100093000504000000030001FF16102700000020E4
:1000A300FD000206FFFFFE0400000004E5C6FE0695
:1000B300001F0000AC03FE06001F00B4AC741E0357
:1000C30000770154175A17021E00000000000000B9
:1000D300000000000000000000000000000000001D
:1000E300000000000000000000000000000000000D
:1000F300000000201E0000000000000000000000BF
:100103000000000101E803D0073200640000000092
:1001130000000000000000000000000000000000DC
:1001230000000000000000FF0000000000000000CD
:1001330000000104010C0002072E8202A6830104C1
:1001430000007414000000E8030000FFFFC51488DA
:10015300130000E803000064006400B801A0BB0DB5
:1001630000A0BB0D000202020304010A3C02051EAB
:10017300020A0A010108080103DC0502803E0102AC
:10018300FEFFE8030A050001FFFF020A011401E074
:100193000100B0423BAAB83F0000003F8C90633996
:1001A300AA0CA33A00941E3C8042633DCFFE753EE9
:1001B3001572313F0000803FF304353F8096184BA2
:1001C300000080BF2292D43EDD9B2A3F0400004002
:1001D300FFFF7F7FFFFF7FFF010080341872313FF5
:1001E300050301010FD83000000000AC2F00000010
:1001F30000FF000000FF0012145B604612147960D8
:100203003DE9687008F618F618F618F62274806748
:10021300F712022E090909748067F7221214796014
:100223001D12145B7005191919801A121308701F17
:1002330012131CC37003E667331919194007181802
:10024300182208080874FFF618F618F618F6221292
:10025300131C60171214F9702192F01214E770192D
:10026300501720F014080808090909E7F61819E7D8
:10027300F61819E7F61819E7F6221214E760E6E80C
:1002830069701F0808E62480F608E436F618547FE0
:10029300B47F0CE654806007F6E418F618F62218CB
:1002A3001822E9C6CC08C6CD08C6CE08C6CFC0E022
:1002B300E8C0E0EAC0E0EBC0E009E9F809E7FA09C1
:1002C300E7FBE6F918E6F8C3EC98ED99EE9AEBC272
:1002D300E7F5F0EFC2E795F0500E600CEBCFFBEAC9
:1002E300CEFAE9CDF9E8CCF8EAA2E7D2E7FAEB33A4
:1002F300FB13F5F0EEA2E7D2E7FEEF33FFC5F013F1
:10030300A2E730E601B313C5F0C3C0E0C0F07F003D
:10031300C39BFB605E9418600F401D14601AD0E00D
:1003230023F9D0E0F80204008AF0E9486003D2F030
:10033300E4AFF0FAF9F8803BEB30E40D89F0EA60C2
:1003430003D2F0E4AFF0F9CAF8EB30E30D88F0EF35
:100353006002D2F0AFF0E4CAC9F8EB54076014FBB3
:10036300C3EA13FAE913F9E813F8EF135002D2E0E2
:10037300FFDBEDD0E0C0E030E739C3E49FFFF5F0E9
:10038300EC98FC42F0ED99FD42F0EE9AFE42F0D07B
:10039300E0F9D0E0F8E5F0607AE923F9EE20E742EE
:1003A300D8028067C3EF33FFEC33FCED33FDEE334C
:1003B300FE80EAEC28FCED39FDEE3AFED0E023F9AD
:1003C300D0E0F84002801BC3EE13FEED13FDEC13E7
:1003D300FCEF135002D2E0FF08B800067F7F74FFE2
:1003E300802EEF3350178CF020F00260100CBC000D
:1003F3000C0DBD00080EBE000408E860DFE933E819
:1004030013FFEE2313FE4F4D4C8008E95480FFE4A5
:10041300FEFDFCEE33EF33F47004FCFD7E80D0E090
:10042300FBD0E0FAD0E0F8D0E0CFC618CEC618CDA6
:10043300C618CCC6F922121479700418181822129F
:10044300145B700D74FFF61819F61819F61819F6DF
:1004530022E7548066F61214E7700F1214F970F055
:1004630014F608F608F608F680D11214F9700CF6A3
:1004730008F608768008E6447F80EC12131F700CA0
:1004830012130B60BFE65480F6E480BB12130B70AB
:100493000519191980A5E869700C763F187680183C
:1004A300F618F6E8F922E6CDC0E018ECC0E0E63332
:1004B300CD33CDD313F6E719FCE7191933CC33C386
:1004C300947F400ECD9D502408E65480F6E418F640
:1004D300800FF4043D14501408E6447FF618768028
:1004E300E418F618F6D0E0FCD0E0FD22CCD313CC10
:1004F300FD18E4C6CBC0E018E4C6CAC0E00808EDA6
:1005030008C633E613F618E433C675F003C3CA9777
:10051300CA09CB97CB199C40047D08802EBD0003EC
:100523000205E216B6FF050606081618C3CA33CA43
:10053300CB33CB33CA27CA09CB37CB193CC37D088E
:10054300803E187D0820E75CC633C6CA33CACB3366
:10055300CB33DDF1D5F0EB30E77BCA97CA09CB97F4
:100563004ACB199C406F4B7025E620E0218066182A
:100573007D08C3CA97CA09CB97CB199CD3C633C688
:10058300CA33CACB33CB3350C9DDE7D5F0E1D3E46B
:10059300C636C608C636C608C636C608C636C61820
:1005A30018188031C3CA97CA09CB97CB199CB3409B
:1005B30097C633C6CA33CACB33CB33DD34D5F02E1B
:1005C300C6A2E0C640C8CA27CA09CB37194A70BEBB
:1005D300CB3CB480B90808E63308E633601F18182B
:1005E30018D0E0FAD0E0FBD0E0FCD0E0FD22187D8B
:1005F30008CA27CA09CB37CB193CD3808013F61816
:10060300E4B67F11F618B6FF0EF618C60470D208CA
:1006130008768080CAF618F618F680C50012147999
:10062300604F12145B6012E7548066F61213087071
:10063300111214F9703B090909F4F618F618F618A3
:10064300F62212131C70151214E708080860EAE674
:10065300447FF618768018E4F618F6221214E76041
:10066300161214F97012E4F608F608F608E6548038
:10067300F609090918181822EAC0E0EBC0E0ECC03B
:10068300E0EDC0E0E687F0A4FBACF008E687F0A459
:100693002CFCE435F0FA1809E687F0A42C4B600231
:1006A3007401CA35F0FCE433FB09E687F0D2F7A402
:1006B3002CCB35F0FC1908E687F0A42BCC35F0FBE6
:1006C300E433FD0819E687F0D2E7A42C4ACB35F0D2
:1006D300CD3400FC09E687F0D2E7A42DCC35F0FD3C
:1006E300E433FA0918E687F0D2F7A42CCD35F0CA23
:1006F3003400FC08E687F0D2E7D2F7A42ACC35F021
:100703007A7E20E70B0ACB33CBCD33CDCC33CC333E
:10071300CB3350147004ED30E00ED2F1E4CD3DCD77
:10072300CC3CCC3B5005DA05C2F1EB547FC6330811
:10073300E63392F0FBE73309E733C39A502D2B706E
:10074300190C0D4C4D70151806E608C333700D20B7
:10075300F10AA2F013F6E418800B4024E4F630F01B
:1007630002768018F618F618F68024D33B1450103E
:1007730074FFA2F013F6187680E418F618F6800FCB
:10078300A2F013F618E63303F618ECF618EDF6D0DC
:10079300E0FDD0E0FCD0E0FBD0E0FA22C0E074F151
:1007A300120C2DA2AFE433F509D2AF85A708AFA190
:1007B300EF5508FE74105E600612182075A1EF74E1
:1007C300085E600812182675A1F78024EFA2E09254
:1007D300F0E508A2E082F05017906198E0F89007E6
:1007E30014E0C398A2D265D0335002E8F075A1FE9D
:1007F300E509A2E092AF7F02020C8CC0E074F21212
:100803000C2DA2AFE433FED2AF9061A4E0F8759B48
:1008130000E59158540860087591F7121874802305
:10082300E59158541060087591EF12187A8014E519
:1008330091A2E092F0E8A2E082F05007E0C2E0F07B
:100843001219C49061A3E0F8E5E9585404600E124C
:10085300199A75E9FB906193E0A2E640F2EEA2E0FB
:1008630092AF7F01020C8CC0E074F2120C2DA2AF88
:10087300E433FED2AF9061A5E0F8E5BF58540460BD
:100883000675BFFB1219DC80D4C3E498F8E499F928
:100893001208CD8026C3E49AFAE49BFBE920E7E93A
:1008A3001208CDE498F8E499F922C3E498F8E4999E
:1008B300F91208CDE498F8E499F9C3E49AFAE49BB1
:1008C300FB22EB20E7CFE920E7E0B90010BB0008EB
:1008D300E88AF084F8AAF022E4FBC8FA22EB70223B
:1008E3007B10C833C8C933C9335007C39AC3DBF27B
:1008F30080069A50012ADBEAC833F4C8C933F4C925
:10090300FA2275F008E4C833C8C933C933C99AC990
:100913009B5004C92AC93BD5F0ECFBC833F4C8E4A7
:10092300C9FA2212097130F0391209B6803412095A
:100933007120F01430E72B74FFFCFBFA747F8022E4
:10094300E4FCFBFA7480801AB48008BC00F2BB009C
:10095300EF800F50EBF9E4C39AFAE49BFBE49CFCB1
:10096300E499C6CC18C6CB18C6CA18C6F922E4C97E
:10097300C608CAC608CBC6D3330308CCC63392F025
:10098300C3947F402E94184019C9B90704CACBCC2D
:10099300225025C309CA33CACB33CBCC33CC33D98A
:1009A300F422F4600DC9CCC313CB13CBCA13CAD939
:1009B300F6CC22E4FCFBFA2214FCFBFA22C0E0C0D2
:1009C300D0E8C0E0E9C0E0C082C083A8C1E8C0E0CD
:1009D300900681E0F8740028F582E43406F583D0AC
:1009E300E0F0900680E0F8A3E0687006E5959006D5
:1009F30083F0900681E004F0C394804002E4F0A306
:100A030074C6F0D083D082D0E0F9D0E0F8D0D0D053
:100A1300E032C0E0C0D0E8C0E0E9C0E0C082C083FB
:100A2300900704E0F8A3E0687008539AFBA37401ED
:100A33008022C2E9900704E0F8740128F074842846
:100A4300F582E43406F583E0F5C1900704E0C3942E
:100A5300804002E4F080AC080808EAC0E0EBC0E0A4
:100A630086F0E7A4FA180986F0E7A42AFA1809869B
:100A7300F0E7A42AFA180986F0E7A42AFA1986F0FF
:100A8300E7A4FBE5F02AFA190886F0E7A42BFBE5B7
:100A9300F03AFA190886F0E7A42BFBE5F03AFA18C6
:100AA300180986F0E7A4C5F02BFBE43AFA1908E726
:100AB300C5F0C6A426F6E5F03BFBE43AFA1886F047
:100AC300E7A4F6E5F00826F6E43B08F6E43A08F670
:100AD300D0E0FBD0E0FA22080808E630E711121252
:100AE300E0120AF2080808C64480C618181822182B
:100AF3001818E9799EC608CAC608CBC608CCC6C36F
:100B030070207996CACBCC7019798ECBCC701379BF
:100B130086CC700EF9802ACA33CACB33CBCC33CC04
:100B2300331930E7F2CCCBCA3350147004EA30E007
:100B33000DE4CA3ACACB3BCBCC3CCC500209C3E947
:100B430013C6CC182313C6CB18C6CA18C6F922E499
:100B5300CFC0E0E4CEC0E0E4CDC0E0E4CCC0E075BB
:100B6300F020E626F608E633F608E633F608E63321
:100B7300F6181818EC33FCED33FDEE33FEEF33FFBC
:100B8300C3EC9709ED9709EE9709EF9719191940E7
:100B93000FFFEC97FC09ED97FD09EE97FE19190677
:100BA300D5F0BFECF709EDF709EEF709EFF71919DF
:100BB30019D0E0FCD0E0FDD0E0FED0E0FF222521FB
:100BC300C582C0E0E52234FFC583C0E0E521C395BB
:100BD3008224F810AF0885832285822180088583CB
:100BE30022858221D2AFCEF0A3E520F0A37808E6D8
:100BF30008F0A3DEFAEFF0A3E58124FAF8E608F0A3
:100C0300A3E608F0A3E608F0A30808E608F0A3E6C5
:100C130008F0A315811581D0E0FED0E0F815811509
:100C2300811581E8C0E0EEC0E022C0D02521C58255
:100C3300C0E0E52234FFC583C0E0E521C3958224EB
:100C4300F310AF088583228582218008858322855E
:100C53008221D2AFC8F0A3E9F0A3EAF0A3EBF0A39B
:100C63007908E709F0A3D8FAECF0A3EDF0A3EEF0CE
:100C7300A3EFF0A3D0E0F0A3D0E0F0A3D0E0F0A383
:100C8300E520F0A3E5F0F0A322852283852182E00D
:100C9300C0E0A3E0F9A3E0FAA3E0FBA37808E0F641
:100CA30008A3DFFAE0FCA3E0FDA3E0FEA3E0FFA3BB
:100CB300E0C0E0A3E0C0E0A3E0F5D0A3E0F520A30B
:100CC300E0A3F5F010AF0885832285822180088593
:100CD3008322858221D2AFD082D083D0E0F8D0E0C6
:100CE300321212E3181818120B521213DC191919C5
:100CF300221213DC191919080808E618181820E736
:100D0300E0120B521212E318181822090909E71905
:100D1300191920E7DC080808E618181820E7030269
:100D23000B521212E3181818120B521212E318186E
:100D3300181213DC191919221214D2B90003020D67
:100D43007AE4900501786379138002F0A3D8FCD983
:100D5300FA7A637B17900086787579028015E4939D
:100D6300A3AD82AE838A828B83F0A3AA82AB838DE9
:100D7300828E83D8E9D9E77582CD75839374051282
:100D830011607582B475832C740012116075F010B4
:100D93008E238F248582288583278521828522833C
:100DA300E0CEA3E0CF852882852783EBC9EAC8ED8F
:100DB300CBECCAC3E833C8E933C9EA33CAEB33CB54
:100DC300C3EA9EF526EB9FF525B35004AB25AA266F
:100DD300EC33CCED33CDD5F0DAAE23AF24221214AD
:100DE30079601C12145B60171214E770071214F970
:100DF3007001D322C0D01214F97006D0D0B322C32D
:100E03002233D0D0501430E0F6C3E7960809E796B2
:100E13000809E7960809E796B32220E0D5E6970884
:100E230009E6970809E6970809E697B322121479A9
:100E3300601B12145B60161214E770071214F9603A
:100E43000CB322C0D01214F97005D0D022C32233C0
:100E5300D0D0501330E0EBC3E7960809E7960809B2
:100E6300E7960809E7962220E0E4E6970809E69763
:100E73000809E6970809E69722D083D082ECC0E000
:100E8300EDC0E0E493A3FCE493A3FDED4C600D12ED
:100E93000F54EC24FFFCED34FFFD80EFE493A3FC3F
:100EA300E493A3FDED4C600D12101DEC24FFFCED4B
:100EB30034FFFD80EFD0E0FDD0E0FCE493A3C0E07D
:100EC300E493C0E022D083D082E9C0E0E493A3C3DB
:100ED30086F0C5F095F0F908E493A386F0C5F09584
:100EE300F0700BE493A3C3994005E9048002A3E4E3
:100EF30075F002A42582F582E5F03583F583D0E011
:100F0300F9E493A3C0E0E493C0E022852283852122
:100F130082E0A3FEE0A3F5207808E0A3F608DFFA59
:100F2300E0A3FFE0A3C0E0E0A3C0E0E0A3C0E0E0F3
:100F3300A3C0E0E0A3C0E010AF088582218583222F
:100F43008008858221858322D2AFD083D08202118B
:100F530066C0E0C3E49396087401939618400FE4C7
:100F63009366700808740193661870007019A3A340
:100F7300C3E49396087401939618A3A3400DD0E09D
:100F8300D0E0D0E0020EB8A3A3A3A3A3A3D0E02292
:100F93007404800474028000CCC0E0EDC0E0E5215D
:100FA300C39CCCAD2250011D10AF068C218D228035
:100FB300068C218D22D2AF1210E2D0E0FDD0E0FCEE
:100FC3002274028000CCC0E0EDC0E0E521C39CCCDC
:100FD300AD2250011D10AF068C218D2280068C217D
:100FE3008D22D2AF1210C0D0E0FDD0E0FC2212144B
:100FF30079602512145B60201214E770030214F960
:10100300080808E76670101819E766700A1819E7E8
:101013006670041819E76622F422C0E0C0F088F075
:10102300E4936670080874019366187000A8F0A32F
:10103300A3700BD0F0D0E0D0E0D0E0020EB8A3A3B1
:10104300D0F0D0E022D083D082CCC0E0E493A36080
:10105300061211221470FAE493A3600612126214AA
:1010630070FAD0E0FCE493A3C0E0E493C0E022C0B4
:10107300E074F2120C2DA2AFE433FED2AFE58BA2E3
:10108300E050057904121772758B00C2E8EEA2E0F6
:1010930092AF7F01020C8CC008C3E096F50808A349
:1010A300E096420808A3E096420808A3E0964208A7
:1010B300A2D265D033E5087001D3D00822CAC0E0BC
:1010C300E493A3C582CCC582C583CDC583F0A3C5F4
:1010D30082CCC582C583CDC583DAE5D0E0CA22CAF6
:1010E300C0E0E0A3C582CCC582C583CDC583F0A390
:1010F300C582CCC582C583CDC583DAE6D0E0CA22DA
:101103007009080808226016181818C6C333C608E1
:10111300C633C608C633C608C633C6D5E0EA22C0FE
:10112300E0E493A3D39C5010E493A3C39C400AD060
:10113300E0D0E0D0E0021065A3A3A3D0E022C00872
:10114300C3E096F50808A3E096420808A3E0964298
:101153000808A3E09645087001D3D00822C09FF584
:101163009FE473D09F22D083D082C09FE493C0E0DA
:10117300740193C0E0740293F59F222521F5821038
:10118300AF08F521400C15228008F52140021522F5
:10119300D2AF8522832200C0D0252110AF08F521CC
:1011A300500C05228008F52150020522D2AFD0D081
:1011B300227404800A74038006740280027401C0DE
:1011C300E0F40412117ED0E012149522BB0102E771
:1011D30022C082C08389828A83BB0003E08002E449
:1011E30093D083D08222C0E0C0D0E8C0E0A8A8D2C8
:1011F300AFC2C7E8A2E792AFD0E0F8D0D0D0E032D8
:101203006016080808C6C313C618C613C618C61343
:10121300C618C613C6D5E0EA222521F8E43522F91B
:10122300222521FAE43522FB222521FCE43522FD87
:1012330022C3E0C696F608A3E0C696F608A3E0C666
:1012430096F608A3E0C696F622252110AF08F521ED
:10125300400C15228008F52140021522D2AF22C08E
:10126300E0E493A36C7009D0E0D0E0D0E002106515
:10127300A3A3D0E022C3E7960809E7960809E796F7
:101283000809E796A2D265D03322E76670100809F1
:10129300E766700A0809E76670040809E76622C36F
:1012A300E09608A3E09608A3E09608A3E096A2D2EE
:1012B30065D03322E066701008A3E066700A08A3C5
:1012C300E066700408A3E06622C3E096F008A3E09A
:1012D30096F008A3E096F008A3E096F022181818F9
:1012E300E4C396F608E496F608E496F608E496F660
:1012F30022C3E697F60809E697F60809E697F60883
:1013030009E697F622181818E60846087009E62633
:10131300087005E633F4220822191919E709470969
:101323007009E727097005E733F4220922C3E49320
:10133300960874019396087402939608740393961F
:1013430022E026F008A3E036F008A3E036F008A375
:10135300E036F022700422600D18C6C333C608C6F7
:1013630033C6D5E0F41822E657F60809E657F6081F
:1013730009E657F60809E657F622E627F60809E6CE
:1013830037F60809E637F60809E637F622E026F6C7
:1013930008A3E036F608A3E036F608A3E036F62203
:1013A300E056F608A3E056F608A3E056F608A3E0D5
:1013B30056F622E647F60809E647F60809E647F631
:1013C3000809E647F622E056F008A3E056F008A322
:1013D300E056F008A3E056F022E4C397F709E49738
:1013E300F709E497F709E497F722600D08C6A2E727
:1013F30013C618C613C6D5E0F322C6F4C608C6F44E
:10140300C608C6F4C608C6F4C622C3E09608A3E01D
:101413009608A3E09608A3E09622C3E7960809E797
:10142300960809E7960809E7962275D00075813F6B
:1014330075210175220500020D3B600C08C6C3131C
:10144300C618C613C6D5E0F422E6F008A3E6F008F2
:10145300A3E6F008A3E6F022E7094709C313470907
:10146300336002E733F422E0F608A3E0F608A3E0D2
:10147300F608A3E0F622E6084608C31346083360DD
:1014830002E633F422800100E9F874FF28F90470BE
:10149300F622CAC0E0E6F0A308DAFAD0E0FA22E0C6
:1014A300F8A3E0F9A3E0FAA3E0FB22E8F0A3E9F054
:1014B300A3EAF0A3EBF022EAF0A3EBF0A3ECF0A392
:1014C300EDF022E0FAA3E0FBA3E0FCA3E0FD22E5BC
:1014D300C754F84401F5C77901222521F582E43583
:1014E30022F58322E62618461846184622C2AF750F
:1014F300D69F02000022E7271947194719472212EE
:101503001169E0DC021211697ADD02121169EADD68
:101513000212116919DE021211691FDF0212116929
:1015230049DF021211699DDF0212116971E0021293
:1015330011699FE2021211694DE302121169BAE5C2
:10154300021211693FE60212116942E9021211699E
:1015530076EB02121169B2EB021211690BED021262
:1015630011691EED021211695BED0212116924EF7C
:1015730002121169DBF0021211694FF102121169B3
:1015830086F102121169BAF1021211690BF2021209
:1015930011695CF4021211697BF402121169C2F43D
:1015A300021211694FF50212116999F502121169BC
:1015B30040F6021211690DF7021211696CF702125B
:1015C3001169CFF70212116944F80212116988F800
:1015D30002121169E0F80212116915F90212116978
:1015E300A3F90212116934FA021211697AFA02128A
:1015F3001169A6FA02121169E7FA021211697DFC58
:101603000212116969FD021211694BFE021211697E
:10161300A792041211693B9304121169A393041254
:101623001169C89404121169529504121169DD9568
:1016330004121169199604121169B2960412116900
:101643004797041211691A9804121169FC9904123C
:101653001169F29A04121169919B04121169E69BB4
:1016630004121169549C04121169609F04121169D8
:101673008AA1041211698BA204121169C9A304126D
:101683001169D4A3041211699F8505121169CB85D1
:1016930005121169D286051211694A87051211696B
:1016A3006587051211698A87051211693288051247
:1016B30011698BA50512116990A505121169C3A5BE
:1016C30005121169A08F051211697790051211692E
:1016D30041910512116927A10512116938A105125B
:1016E3001169D6A105121169E1A105121169FBA1C6
:1016F30005121169F77F00121169DFFF01121169E9
:10170300AAA205121169BAA205121169CFA2051284
:10171300116935A305121169239E05121169A79E4C
:10172300051211690F9F051211696CFD01121169F0
:101733008AFD01121169BFFD01121169E4FD011255
:10174300116907FE0112116942FE011211696FFE50
:1017530001121169B6FE0112116955FF01121169D7
:1017630028A005121169AFA005121169B8A00512CE
:101773001169DFA0051211695CA60512116955FDF7
:10178300031211699FFD0312116935FE03121169DA
:10179300BBFE03121169EDFE0312116905FF03126B
:1017A300116979FF031211698FFF03121169A2FFF7
:1017B30003121169ACFF03121169D0D80412116925
:1017C300FCD80412116966DB04121169A6DB04124A
:1017D3001169E2DB04121169F6DB041211690FDCF3
:1017E3000412116901DD04121169B4DD04121169D7
:1017F300C8DD04121169C19505121169E595051239
:101803001169FE95051211693C96051211696C96D2
:1018130005121169999605121169FF96051211694E
:101823000297051211690C97051211691997051290
:101833001169668805121169868805121169C588C0
:1018430005121169E38805121169FE8805121169F1
:10185300648905121169708905121169CD89051210
:101863001169DC8905121169008A05121169C18A9F
:1018730005121169CE8A05121169DF8A05121169F1
:10188300D1A505121169E9A50512116915A605125D
:1018930011691EDE0412116978DF0412116986DFF3
:1018A3000412116999DF04121169AEDF0412116980
:1018B300C3DF04121169D6DF0412116952E0041266
:1018C3001169B7E0041211694DE10412116926E2AE
:1018D3000412116936E20412116945E20412116916
:1018E30011A20512116935A2051211695DA2051233
:1018F300116985A2051211690D8B05121169348BCB
:1019030005121169528B05121169C18B05121169F8
:10191300D68205121169EF8205121169FB82051245
:1019230011690F83051211692D830512116937831C
:101933000512116941830512116954830512116956
:10194300DA83051211694F84051211697E84051229
:101953001169CC84051211691B850512116936853D
:101963000512116940850512116951850512116926
:1019730094850512116938A50512116961C804120D
:1019830011698DC804121169AAC804121169BDC86E
:1019930004121169D8C80412116932C904121169F9
:1019A30060C90412116970CD04121169CECE0412FC
:1019B300116900CF0412116963CF04121169CFD0EA
:1019C30004121169F7D0041211690CD104121169C0
:1019D3001CD1041211695CD1041211699ED1041245
:1019E3001169AED104121169B99905121169D3991C
:1019F30005121169FB9905121169149A05121169EF
:101A0300389A05121169569A051211696D9A0512D1
:101A130011699B9A05121169B69A0512116918A6E4
:101A23000512116905F30412116915F30412116902
:101A33001AF4041211694CF4041211697CF40412AF
:101A430011699FF404121169B6F404121169F0F4D8
:101A53000412116955F50412116997F504121169FD
:101A6300DEF5041211690BF60412116936F604123D
:101A73001169239705121169359705121169499860
:101A8300051211694C98051211691D9D0512116902
:101A9300539D051211696B9D05121169AD9D0512C8
:101AA3001169BD9D05121169019E051211690B9EF5
:101AB30005121169DED10412116921D204121169D0
:101AC30086D204121169A5D20412116947D30412F4
:101AD300116950D304121169A1D304121169CAD335
:101AE30004121169D7D30412116949D4041211697C
:101AF300D7D4041211691CD50412116955D50412E7
:101B03001169BAD504121169E3D5041211695AD6C1
:101B130004121169A9D604121169E6D604121169D7
:101B23001BD7041211692DD7041211693FD7041270
:101B330011695ED70412116967D70412116923D89A
:101B43000412116966D804121169A4D80412116928
:101B530081A405121169799805121169628D051224
:101B63001169988D05121169E08D05121169398F7C
:101B73000512116925DE031211694BDF0312116986
:101B830087DF0312116945E10312116973E103123F
:101B93001169DDE3031211691DE403121169BFE545
:101BA3000312116955E603121169AFE603121169B5
:101BB3003FE70312116983E703121169C5E70312B3
:101BC30011692AE903121169AAEA03121169EBECFC
:101BD3000312116919ED0312116945ED031211691D
:101BE3004EED03121169ABED0312116944EE0312BA
:101BF30011695BF103121169E1F103121169B4A3D5
:101C030005121169CAA30512116928EB041211699F
:101C13003EEB04121169E2EB0412116921EC041288
:101C230011693EEC041211696FEC04121169BCECEA
:101C330004121169F0EC041211692BED04121169FD
:101C430020EF04121169289F05121169879F05125D
:101C53001169C59F0512116906A0051211692FFFAD
:101C63000212116998FF02121169B8FF0212116979
:101C7300079C05121169C59C05121169B9C00112AF
:101C83001169C5C00112116927C10112116931C15E
:101C930001121169BEC101121169FAC10112116960
:101CA300EAC20112116949C301121169EEC301129B
:101CB300116938C401121169B3C40112116980C6D4
:101CC3000112116971C80112116968C90112116900
:101CD300A3CA01121169EACC0112116936CE0112AD
:101CE3001169C1CE0112116920D001121169FBD013
:101CF300011211692ED201121169C3D601121169A1
:101D0300B6D7011211693FD8011211696FD80112B8
:101D1300116994D8011211692DD9011211694BD996
:101D23000112116969D901121169D7D90112116917
:101D3300F6D90112116923DA0112116931DB01129B
:101D4300116910DC01121169B6DD01121169D7DDC9
:101D5300011211697DDE01121169C4DE01121169DC
:101D630022DF01121169B9DF011211691EE00112AC
:101D7300116987E001121169C5E0011211696FE170
:101D830001121169DAE10112116916E201121169F6
:101D9300ABE201121169EDE30112116985E501124C
:101DA30011691CE6011211696CE801121169B9E8A5
:101DB30001121169CEE80112116906E901121169D4
:101DC30053E90112116992E901121169FFE9011244
:101DD3001169B7EA01121169F4EF011211698DF269
:101DE3000112116994F301121169AFF7011211691C
:101DF3006DF8011211697BF90112116926FB0112B9
:101E03001169008004121169208004121169C782CC
:101E130004121169898504121169EF87041211698B
:101E23002388041211694C88041211697288041200
:101E33001169B78804121169538A04121169B38AAC
:101E430004121169D18B04121169E38B0412116915
:101E5300978C04121169A88C04121169878D0412DE
:101E63001169938E041211691C8F041211699E8FDC
:101E7300041211697B9004121169B1910412116962
:101E8300BFFF031211698EF6041211694DF7041294
:101E93001169B3F70412116962F804121169CEC80B
:101EA30003121169FDC80312116975C9031211697F
:101EB30084CA03121169E0CA031211694DCC0312DB
:101EC300116969CC03121169BBCC03121169F9CCF6
:101ED300031211690CCD0312116964CD0312116948
:101EE30026CE03121169A2CE03121169D9CE0312B1
:101EF300116911CF0312116999D00312116978D1B5
:101F030003121169C6D203121169A9D3031211690D
:101F130035D40312116975D40312116994D40312D1
:101F23001169DFD403121169FFD40312116998D523
:101F3300031211691ED60312116979D603121169AE
:101F4300B9D6031211694FD90312116968DA031262
:101F53001169AEDA03121169D8DB0312116900DCCF
:101F63000312116903DC031211690DDC03121169F9
:101F730029DC03121169A3DC03121169DCDC0312EF
:101F8300116908DD031211692FDD0312116953DD95
:101F930003121169C4DD03121169D7DD031211693C
:101FA30006DE031211693FA3051211694BA3051243
:101FB30011697FA305121169F47F00121169B6B28A
:101FC30003121169D9B2031211691EB40312116904
:101FD30067B403121169D3B40312116931B5031243
:101FE300116934B5031211691BC804121169FAB5DA
:101FF300031211697FB60312116982B603121169C4
:1020030003B70312116944B7031211699CDC02126E
:102013001169DABC031211692ABD03121169B9C02F
:1020230003121169ECC10312116941C3031211694F
:10203300DEC303121169C9C4031211692CC7031249
:10204300116913A404121169BDA40412116928A50E
:102053000412116943A504121169C8A50412116978
:1020630022A60412116969A604121169D0A60412EA
:102073001169A6DA021211697EA90412116906AA6E
:10208300041211690FAC04121169BCAC041211697A
:1020930092AD041211694DAF04121169E5B0041237
:1020A300116978B1041211699EB20412116900809A
:1020B30003121169638003121169AB800312116962
:1020C300EF80031211694A8103121169A781031278
:1020D3001169E28103121169648203121169BE82DC
:1020E300031211693C8403121169BC840312116940
:1020F3001785031211693185031211695285031281
:102103001169AC8503121169288803121169478884
:10211300031211693789031211696A8A031211695B
:10212300E98A03121169258B03121169948B031237
:102133001169498C03121169218E03121169288FC9
:1021430003121169A0900312116996920312116987
:102153000C9503121169E69603121169A7970312EE
:1021630011691F98031211693698031211692D9989
:1021730003121169219A03121169909A03121169CA
:10218300F9FC0412116950FE041211690FFF0412C5
:10219300116977FF04121169D4F904121169EFF977
:1021A3000412116933FA0412116959FA04121169FC
:1021B30080FA0412116998FA041211693AFB0412A5
:1021C30011694FFB0412116972FC041211697BFC43
:1021D3000412116984FC041211698DFC0412116943
:1021E30097FC0412116976E20412116982E6041263
:1021F300116987E60412116989E6041211694E9484
:1022030005121169D67F0012116900800512116948
:10221300E99A0512116920A405121169BE910512EC
:10222300116994A6051211692DEF04121169D9A43D
:1022330005121169E9A405121169F0E60412116986
:1022430035AC0212116968AC02121169D4AC0212E6
:1022530011696FAD021211690CAE0212116951AE10
:102263000212116973AE021211698CAE0212116966
:10227300B2AE02121169D4AE0212116912AF021288
:10228300116956AF0212116978AF02121169DAAF00
:1022930002121169A1B00212116958B10212116937
:1022A300CAB10212116995B202121169E8B202129F
:1022B30011694EB30212116988B302121169DAB3BC
:1022C3000212116948B402121169B3B402121169FE
:1022D300B6B40212116937B502121169CEB50212F2
:1022E30011694EB6021211696DB602121169D1B7A6
:1022F30002121169DEB702121169EAB802121169FA
:10230300F7B80212116900B902121169D8BA0212A0
:102313001169F2BB021211696BBC02121169DDBCB7
:1023230002121169FFBC0212116993BD02121169F5
:1023330067BF021211693EC30212116952C302122E
:10234300116962C3021211696CC30212116975C368
:10235300021211697EC30212116988C30212116944
:10236300B5C302121169DEC302121169E9C3021275
:1023730011690DC40212116931C4021211699BC49F
:1023830002121169E1C402121169FEC40212116939
:102393007BC502121169B2C502121169F1C502129D
:1023A30011693EC602121169C4C60212116992C8AC
:1023B3000212116915C902121169F9C902121169D0
:1023C30060CC02121169B9CC0212116903CD021259
:1023D30011695ECE0212116993CE02121169E5CE24
:1023E300021211699ACF0212116949D002121169BE
:1023F30086D0021211691BD10212116987D1021210
:1024030011691933001211694B33001211697933C1
:10241300001211694F35001211692F36001211692C
:10242300873600121169C237001211690E38001283
:102433001169373B001211692A3E001211697A3F74
:10244300001211691040001211691C400012116939
:102453004E4000121169D1410012116982430012EA
:102463001169164400121169594400121169D744C5
:1024730000121169F4440012116924450012116914
:10248300594500121169294600121169D2460012FA
:102493001169584900121169784A00121169634B96
:1024A30000121169E54B00121169195000121169EC
:1024B300565000121169AE5000121169E15000121A
:1024C30011694B51001211698151001211690C52AB
:1024D300001211696452001211693B530012116911
:1024E300F453001211698F540012116997570012A7
:1024F3001169B35800121169565C001211694A5DE3
:10250300001211694D5D001211697C5D00121169A1
:10251300825F001211695B60001211699E600012F4
:102523001169F46100121169336200121169BC620E
:1025330000121169F06200121169B563001211698A
:10254300CD65001211693E66001211697E660012A4
:1025530011690C67001211692E6800121169F06885
:1025630000121169F76A001211690F6B00121169E9
:10257300236B001211695B6B00121169896B0012E6
:102583001169086D001211692D6E001211698A6EAE
:10259300001211693C6F00121169636F0012116917
:1025A3002A7000121169C27000121169E8720012D8
:1025B30011691D7300121169807300121169AF74E0
:1025C300001211695775001211698875001211699B
:1025D300A075001211692F7600121169E3780012B9
:1025E3001169BB7A00121169D77A00121169F37A63
:1025F30000121169C17B00121169B47F00121169C5
:10260300C28301121169F48301121169E387011274
:1026130011692F88011211697588011211691789CF
:1026230001121169738901121169B88901121169C3
:10263300FF8A01121169138C0112116902900112B0
:102643001169869001121169939101121169EF9139
:1026530001121169DF930112116954940112116976
:102663005E94011211696B9401121169969401121F
:1026730011697D9501121169279601121169A596B9
:1026830001121169C59601121169EE9601121169C1
:10269300109701121169709901121169369A01128A
:1026A30011697B9A01121169F89A01121169A99BA8
:1026B30001121169DB9B01121169219C011211693D
:1026C3005D9C01121169AD9C01121169019D0112FA
:1026D3001169579D01121169A39D01121169109E81
:1026E300011211698B9E0112116956A00112116921
:1026F30056A1011211697BA201121169BAA5011237
:102703001169CDA8011211698AA901121169CEA913
:10271300011211697EAB0112116992AB01121169A9
:102723009CAB01121169A6AB01121169B2AB011284
:102733001169CEAB0112116979AC01121169B8AC00
:1027430001121169C2AC01121169CCAC01121169F9
:102753003CAD0112116987AD011211699CAE0112E2
:102763001169F8AE0112116979AF0112116938B01C
:102773000112116941B10112116975B20112116996
:1027830063B3011211697BB301121169D6B301124C
:102793001169F4B3011211693CB40112116963B4F4
:1027A30001121169FEB401121169C4B50112116954
:1027B30056B601121169D0B601121169EAB70112B6
:1027C300116997B801121169BFB9011211690FBAE2
:1027D3000112116973BA01121169D5BA0112116993
:1027E30003BB0112116927BB011211695CBB011202
:1027F30011698DBB01121169C0BB01121169E0BBE4
:102803000112116948BC011211693CBD0112116921
:1028130097BD01121169C0BD0112116948BE0112B1
:102823001169CBBE01121169F6BE01121169DBBF3A
:102833000112116940F20312116978F2031211694E
:1028430099F203121169DBF2031211693DF30312CA
:10285300116947F30312116957F30312116992F3D4
:102863000312116972F7031211695FF903121169F7
:1028730045FB03121169DCFB031211697EFC031291
:102883001169248102121169A28102121169FE8168
:1028930002121169498202121169648202121169DA
:1028A3008F8202121169AC8202121169B88202127C
:1028B30011694F8402121169688402121169ED844F
:1028C300021211690085021211691F850212116932
:1028D300C38502121169448702121169F788021233
:1028E30011698D8902121169908902121169008A96
:1028F300021211691E8A02121169B58A0212116944
:10290300FD8A02121169008B02121169C68B021231
:102913001169338C02121169598C02121169E48C0A
:1029230002121169028D02121169488D0212116996
:10293300FC8D02121169468E02121169758E021204
:102943001169D28E02121169078F02121169338F36
:1029530002121169418F021211698E8F02121169DD
:10296300FE8F0212116947900212116993900212AD
:102973001169BF9002121169CA9002121169E8909D
:1029830002121169D39102121169DD9102121169C8
:1029930018920212116928920212116931920212DD
:1029A3001169859202121169999202121169C893F1
:1029B30002121169DD93021211696B9402121169FB
:1029C300B094021211693C950212116947950212E3
:1029D3001169899602121169A49602121169F0967F
:1029E300021211695F970212116998970212116915
:1029F300B29702121169F49702121169C49A021272
:102A03001169719B02121169DE9B021211691E9EEC
:102A130002121169369E02121169399E021211695E
:102A2300459E02121169599E02121169619E02129A
:102A33001169949E02121169969F021211691DA0D9
:102A4300021211698DA0021211690FA102121169FC
:102A5300D0A102121169EFA10212116990A2021210
:102A63001169EDA202121169F0A20212116964A3A5
:102A730002121169B3A402121169B9A502121169F4
:102A830044A6021211695FA70212116927A8021254
:102A9300116958A8021211697BA80212116984A84E
:102AA30002121169B3A80212116943A90212116932
:102AB300F9A9021211696EAA0212116915AB021269
:102AC30011698AAB02121169C1AB02121169FFAB22
:102AD300021211694BDC02121169E7C70412116972
:102AE30090C704121169FEC50412116950C504127E
:102AF300116946C5041211693CC504121169D5C494
:102B030004121169C1C4041211691EC404121169AB
:102B13001EC30412116937C20412116927C00412BB
:102B230011699ADB0212116930BB0312116935BFB7
:102B330004121169D3BE0412116976DA0212116903
:102B4300CAD902121169A2B20312116998B203120F
:102B530011692DB20312116961B0031211691FB01B
:102B63000312116923AF03121169F7AE031211693E
:102B7300AEAE03121169EFAD03121169F2AA03128B
:102B83001169C7A8031211696EA80312116901A87C
:102B930003121169C0A703121169F9A6031211697F
:102BA30093A60312116932A603121169D2A5031267
:102BB3001169A9A4031211693DA40312116995A314
:102BC3000312116990A30312116984A303121169FB
:102BD300B79F0312116963D7021211691AD4021243
:102BE30011696ED302121169DCD20212116996D2F5
:102BF3000212116961D2021211692ED202121169F5
:102C0300919F031211692F9F03121169D19E031221
:102C130011698F9E0312116919D2021211697C9EE8
:102C230003121169719E03121169409E0312116907
:102C3300309C0312116906DB02121169A39B031274
:102C430011694FA8041211695F9B03121169339B29
:102C53000312116963BE0412116936BE04121169AD
:102C630003BE04121169DBBD041211697CBD041299
:102C730011695CBD0412116927BD04121169D3B92E
:102C830004121169BBB704121169A5B504121169C5
:102C930025B504121169D1B404121169DDB304120C
:102CA3001169EED10212116985B40412116985B557
:102CB3000300000080FB000022E4738F0001006C1E
:102CC30018870001006A1835000400331825000234
:102CD300003718260002003918270002003B182885
:102CE3000001004518290001004618840004005122
:102CF300158600010071172A00010047182B0001F7
:102D03000048182C0001004C182D0008005D152EFA
:102D13000001004D182F0001004E18300001004F34
:102D2300183100010050183200010065153300010D
:102D3300006615340001005118360001006715388C
:102D43000001005218390001004B1883000200688B
:102D53001863000100731564000100491865000140
:102D6300004A186D000100741571000800551566BE
:102D7300000100671843000100581844000200597D
:102D830018450001005B18460002005C1847000864
:102D9300006B15480001005E184B0001005F18042A
:102DA3000001006B18A10001006F18370001006ECD
:102DB30018880001006D183C00010068153D0001F2
:102DC3000053184900020060186700010075154D93
:102DD30000020062184E00010064184F00020065F3
:102DE300183E0001005718510001006915520001F7
:102DF300005518530001005618540001006A1500CD
:102E03000000000000000000002001BD830000015D
:102E1300002001BC83000002002001BF83000003E7
:102E2300002001BE83000004004201488200000527
:102E330000420182810000060042010F8200000768
:102E4300003001C1830000004042018A820000FE7D
:102E5300FF2101BA8303000000212346140300FE6F
:102E6300FF2101BA83020400002905FD17020410A3
:102E7300022923ED17030400002905031803041096
:102E8300002905051803041400280107180304107A
:102E9300022B23EF17050400002105011805041078
:102EA300022923F3170D0400003905F7170D040257
:102EB300021023E4170D0403021023E3170D040487
:102EC300022123E5170D0405022123E7170D041141
:102ED300F11023F5172B04000039050A182B0410F1
:102EE300022823F6172B0404022123E9172B0405D8
:102EF300022123EB17000136360101000102010014
:102F03000103010001040106060502000007010098
:102F1300340801000F090401010D0100FF0E080030
:102F23000017020000190100FF1A0100011B010034
:102F3300FE1C0100081D0200001F0100012001000A
:102F430001210200002301000F24020000260100DA
:102F53000127010008280200FF2A0100072B0102B4
:102F6300402C0100002D0100012E0100012F010062
:102F7300FF30010B1D310800003A0100083B01003E
:102F83000F3C0100013D0100FF3E0400004204002C
:102F930000460400004A0400004E040000520400EE
:102FA30000560400005A04000001037103010301E9
:102FB30003010301030103220302030103100300BE
:102FC30003000300030003000300030003420300A4
:102FD300032403060300030003040312032503234E
:102FE3000325032303040304030003000300034432
:102FF300030003000323030003650321003503815A
:103003000300030503000300030003000325032358
:103013000303027102300160021102700201020215
:103023000202028002100261023A0041006302734D
:10303300027202620243020002130238000002001D
:10304300020402120200020002000200020402044F
:1030530002370037003C024402000239000002003C
:103063000265020002350281020002050282028328
:10307300020002010171010101010111010101318C
:1030830001010101018001100161013B0014006392
:103093000173017201620143010001130106013D45
:1030A30001350004011201000100010001000104C7
:1030B300010401330133013C0144013201360000B4
:1030C3000100016501000135008101000105018254
:1030D30001830100010300710030016000110070E1
:1030E300003102200350048000100061000000142E
:1030F30000630073007200620043000000130006C7
:1031030000000000000400120000000000000000A6
:103113000004000400370037003C024400000000B4
:10312300000000000065000000350081000000057C
:103133000000008300000036000100060000000FBD
:103143000000000000000000000000000003FFFF7B
:1031530000000403FFFF0000FFFF0FF4010005C49C
:10316300040320000100000B000000000000000029
:1031730003010F0000000000000000000000000039
:10318300000000000000000000000000000000003C
:1031930000000000008A1DD21D901D9A1C961DD8A8
:1031A3001D961DE41D9C1D9A1C961DD81DA21D9ADB
:1031B3001C00000000A81D9A1C0000000000000075
:1031C30000AE1D9A1CB41DEA1DBA1D9A1C00000016
:1031D300000000000000000000C01DFC1DC61D9A79
:1031E3001CC01DFC1DC61D9A1CB41DEA1DCC1D9AD6
:1031F3001C00006C2001006C200200E21F0280DC36
:103203001F0300AE2C0400EE1F0480F41F0500FA18
:103213001F060006203100182033001E203400242E
:1032230020FFFF000007ECFDFDFDECDCDCCCBCACBB
:10323300AC9C9C8C7C7C6C6C5C5C5C4C4C3C3C2CFB
:103243002C1C1C03EAF5E5D5D5C5B5A59595858553
:103253007575656555554545353525251515050A96
:103263007826024226054E260748260C2A260D36C6
:1032730026FF000000160F00000B150B02000222B0
:103283000F3300000E0F5A6967426565416C6C6924
:10329300616E63653039D0D1D2D3D4D5D6D7D8D9DE
:1032A300DADBDCDDDEDF303016181920231A1C1EB2
:1032B3003000034D4C4651181A250502000119161A
:1032C30018161618230300303017181921301B1D48
:1032D3001F30003C40423A3F3F392F47300C0E022B
:1032E3000B040B0A0708000F020402010101010984
:1032F30002E803000000BE040A010010000300E816
:1033030003FF04051E03041E030A0C040A0414022B
:10331300180A10151E05C082C0831215749015A0DB
:10332300741AF0A37424F09015A27420F0A37424EB
:10333300F09015A47426F0A37424F09015A6742CB1
:10334300F0A37424F002605474F7120BC190159427
:10335300E4F0E9901593F07C6B7D157A957B15125B
:103363001C5890185EE090159DF090159E7455F0D2
:10337300A374150242E174F0120BC1EAFEEBFF5491
:103383008070030234EA901593124376700302347B
:10339300E3EA241B125BE1707CEA241F125BE16405
:1033A300137002A3E0706E8A828B831235389015F6
:1033B300AE125173750A00750B00800D1241B712DE
:1033C3007253121B6EAA0EAB0FEA4B60488A828BB4
:1033D30083E0650C7004A3E0650D702C8A828B83F7
:1033E300A3A3A3A3E0F50EA3E0F50FE50A450B8A1B
:1033F300828B83A3A3A3A360C31244B9850A8285E6
:103403000B83A3A3A3A380B78A0A8B0B8A828B8324
:1034130012516F80B4E508242A125BE1FCE508240D
:1034230002F8E43509F9E8FAE9FB9015AE12361F04
:10343300A3A3E06402703C8A828B83125173800BD6
:1034430088828983A3A3A3A31244B9E849601F8890
:10345300828983E06A7003A3E06B70E488828983C6
:10346300A3A3E06C70DA901864125F11806BECF91F
:10347300122456850882850983E06401704FE508AC
:1034830024181235211211C01267FB120F93E5089D
:1034930024121235211211C0E50812436A1211BC1D
:1034A300E508240B1267FF120F97E5082417124350
:1034B30007E5082402FCE43509FDE5082419FAE4CC
:1034C3003509FB122C8A740A121199800CE06402EC
:1034D3007007AA08AB09122534AA08AB09121AD837
:1034E300EEFAEF6480802DEA5402600C9018C374E6
:1034F30001F0EA6402FA8023EA5408601A122450A5
:10350300EA4B700B9015B01266D67A0812352EEE80
:103513006408FAEFFB80047A007B00026E85F58273
:10352300E43509F583E0F50A780A22FB901593E068
:10353300F9121C2E22A3A3E0F50CA3E0F50D227BC8
:1035430000901593E0F9121C2274042274F4120BF8
:10355300C18A088B098A828B83A3A3A3124F6B12A0
:10356300431238F583E02409FA126E1D7003023604
:10357300128A828B837402124FE085088285098345
:1035830012361FE8F0A3E9126A978A828B83A3A3FA
:10359300A3A3A3A3A3A3F0E5082403F8E435091226
:1035A30036141243123AF583E08E828B83A3A3A3CE
:1035B300A3F0EE2409FAE43FFB8E828F83A3A312C8
:1035C30061C3F5838882E0A2E58E828F83A3A3A3E0
:1035D300A3A3500474018001E4F0E5082403F582F9
:1035E3008983125173EA1256F43BF583126DE41288
:1035F30011B81243113B1262B58E828F83A3A312BB
:103603007F93121199EEFAEFFB901593126E6A8075
:1036130016F98882F583E0FAA3E0CA22125310A3B5
:10362300A32274021211997F04020F0E74F2120B7B
:10363300C18A088B09ECFAEDFB740E1214DDE0FC71
:103643001215AA8A0C8B0DAE0CAF0DEA4F6030AC8D
:1036530008AD09121598E96026AC08AD09EEFAEF3A
:10366300FB12159EE970148E828F831244A6FAEF23
:10367300FB121592AA08AB091215C27900800279D0
:10368300B402525F74F0120BC174F612124CEAFECC
:10369300EBFF8C088D09750FB3852182852283E4A6
:1036A300F0750E008002050E90330FE493F8E50EDB
:1036B300C39840030237AEAA0E7B001215E68A0AAE
:1036C3008B0BEA4B60E08A828B83A3A31237B52866
:1036D300F0F8C3EE98EF940050CC7C157D00790090
:1036E300AA08AB09121AC0850A82850B83A3A3A378
:1036F300A3127290E0F8EEC3982925E0F8E433F9B9
:10370300E50A28F582E50B39F583A3A3A3A3A3A3B5
:1037130012431CA3125D388A0C8B0DAC0CAD0DAAA1
:1037230008AB09121C58850A82850B83A3E0640148
:10373300700A1267FB740112432E80447401121243
:103743002C850A82850B831251711215CEE9603DD7
:1037530074091214DDE0C0E01267FBD0E0F07409D5
:103763001214DDE064037013740112122CE50824B3
:103773000BFAE43509FB121C58801274011214DD94
:103783001244B9E508125D1E3509127251850A8289
:10379300850B8312680712432EA3A3E0C0E0E5085C
:1037A30024141267FFD0E0F0750F00A90F740A020A
:1037B3006E82A3A3A3E0F8852182852283E022748D
:1037C300F7120BC1E9FE8A828B83A3A3A3A3A3A34E
:1037D300E0540860338A828B83A3A3A3A3A3A3E04B
:1037E300540260218A828B83A3A3A3A3A3A3A3A3CD
:1037F300A3E06406600F74E96E600A74CD6E600521
:1038030074F06E7003122438024B5E74F0120BC115
:1038130074EF12124C740F1214DD1265BA7408128D
:1038230014DDE9F0ECFEEDFF74051214DD124926F8
:10383300124B4AA3E0F91215B674061214DD126591
:10384300BA74061214DD1257857003023AC9124383
:1038530056E0FA74061214DDE0F9122378123B29BC
:10386300F8A3E0F9E8497003023AC9EE2403F50A24
:10387300E43FF50BEE2406F508E43FF5097C0085EB
:103883000882F583125173850A82850B83E0F9124E
:1038930015BC74031214DD1265BA850A82850B8385
:1038A300E0C0E0852182852283123B22D0E01258BA
:1038B3009AF98521828522831241BE1253EC123775
:1038C300B8FAA3E0CA2407F582E43AF583E8F0A343
:1038D300E41265C52406F582E438F583E412725DCB
:1038E300124F5F1211B8EE1243123F1262B5740306
:1038F3001214DD124F6B2409127F8D121199742952
:103903001214DD12728A1236191258AD3A1272511C
:10391300742B1214DDE0C0E08521828522831257C7
:103923004CD0E0F074021214DDE4F074251214DDBF
:10393300780812146A023A2074031214DD12627DAD
:103943008882F583123B11A3A3A3125D43FB1215D7
:10395300D4850E82850F83A3EAF0A3EBF0740312E0
:1039630014DD123B22A3123B11125F52A2E6500F49
:10397300850E82850F83A3A3A3A3A3E0D2E1F074F2
:10398300051214DDE0706B850E82850F83A312444C
:10399300B99015EEE0687003A3E0697055850E8257
:1039A300850F83A3A3A31242F1750C00780C1211A7
:1039B300C078081211B474291214DDE0F50C780CE8
:1039C3001211C074271214DD120F979015FB120FFA
:1039D30097790074191214DD12514312257C740A6D
:1039E300121199850E82850F83A3A3A3A3A3E04499
:1039F30005F074021214DDE004FC8E828F831251F1
:103A03006D8E828F83A3A3A3E0F91215BC740312F6
:103A130014DD1265BA74021214DDE004F0740312AB
:103A230014DD125785606774021214DDE0FA740620
:103A33001214DD1244B9C3EA98E499505174021286
:103A430014DD123DFB852182852283E028F8A3E063
:103A530039F9E8240FF50EE439F50F850E82F58365
:103A6300E4F074031214DD123B1C64016003023999
:103A73003B74051214DD7401126E70F0740312149A
:103A8300DD126044123E1EE8F0A3E902395F85218E
:103A93008285228312517312237E8521828522839C
:103AA300120F9774261214DDE0FD74251214DDE065
:103AB300FC740A1214DDE0F9EEFAEFFB12243274FF
:103AC3000212119980438E828F83A3A3A3E0C0E0E7
:103AD300740C1214DDD0E0F0126CD9E0C0E0740D68
:103AE3001214DDD0E0F074061214DD12578570094C
:103AF300740E1214DD74B98007740E1214DD741081
:103B0300F074091212241225767411026E82E08574
:103B13000E82850F83A3A3A322E0125872E022E052
:103B2300125872A3A322852182852283EAF0A3EB94
:103B330012578E2274F0120BC174E112124C7404EA
:103B43001214DDE9F074031214DDECF074021214A4
:103B5300DDEDF08A0E8B0F742F1214DD12353AAAA5
:103B63000CFB12236C74011214DDE9F0AA0CAB0DEB
:103B730012237274011214DDE07003023DF68521F5
:103B830082852283E480158E828F83A3A3A3A3A3BC
:103B9300E0D2E3F0852182852283E004126DC8F828
:103BA300852182852283E0C3984003023DED7401A1
:103BB3001214DDE07003023DED852182852283121C
:103BC3003DFBE50C28F8E50D39F9E8240FFEE4394F
:103BD300FF8E82F583A3A3A3A3A3E0A2E040B57560
:103BE3000800750A08750B0074021214DDE0600307
:103BF3007508207C087D0079007405121224121ABE
:103C0300C08E828F83E0603E90163EE06401701A9E
:103C1300E508D2E3F508750B10123E0B1214DDE82C
:103C2300F0A3E9125C3674FF807643080C750A0C26
:103C33008E828F83A3123E1612725374051214DD03
:103C430074FFF0A3805A74041214DDE06009E508E0
:103C5300D2E6F508750A0A8E828F83A3E064FE70AC
:103C630003A3E0F4703074121214DD740412682597
:103C7300F8741D1214DDE8124FE0741212122412AC
:103C8300229A7D007C00790074151214DDAA82ABA0
:103C930083122054800B123E0B1214DDE8F0A3E9CB
:103CA300F074071214DDE508F012434DC0E0740907
:103CB3001214DDD0E0F0740A1214DD7401F07405FF
:103CC30012122412253A74111214DDE06003023D2E
:103CD300CB740D1214DD1258958E828F83A3A3A388
:103CE300A3F0740D1214DD124FAEE50AF0A3E50B39
:103CF300F074031214DDE0C0E0124F3FD0E0125F16
:103D030052601190163EE0C0E0740D1214DD124FA4
:103D130089D0E0F0740D1214DD1244B9850C82854C
:103D23000D83A3A3A3A3A3123E04241C1265B41200
:103D3300726D123E06125F0439126CF8C0E0124F26
:103D430026D0E0126DBDC0E0740D1214DD124A6C72
:103D5300D0E0126ABEC0E0740D1214DD124A62D0C4
:103D6300E0F0740D1214DD123E16123E04242A12E2
:103D730065B4850E82850F83A3A3A3A3A3A3A3A3E3
:103D8300E01265AD12433CC0E0124A4ED0E0F0743D
:103D93000D1214DD125173850E82850F83126DD3BC
:103DA3002428F582E43B127251124345126DE4124A
:103DB30011B81262AEEA1265463B127F9112119955
:103DC30074051212241225408E828F83A3A3A3A30A
:103DD300A3E0D2E0F074111214DDE06003023B8A29
:103DE30074011214DDE014023B967900AA0CAB0DAA
:103DF30012243E741F026E82E075F007A4F8A9F046
:103E030022A3A3125177E8228E828F83A31244BD8B
:103E1300740522E0123E1EA3A3A322F8A3E0F985B2
:103E23000E82850F83A32274F0120BC174E8121261
:103E33004CE9852182852283F08A0E8B0F8A828B3F
:103E430083A3A3A3A3A3A3A3A3E0F91223968A089E
:103E53008B09EA4B7003023F07E50E125708124322
:103E6300651242FC852182852283E06003023F0ABA
:103E73007C04850E82850F83A3A3A3A3A3A3A3A37B
:103E8300E0F912239CEE4F607B8E828F83A3A3A362
:103E9300A31244B974071214DD1266EB1244B97409
:103EA300091214DD125010C0E074111214DDD0E0B9
:103EB300126A9CA3A3A3A3A3A3A31244B9740F12CE
:103EC30014DD12725374121214DDE4126E78C824D6
:103ED3001FF582E438F583126279C413135403FC8B
:103EE30070027C048E828F83E0F978081211BC740F
:103EF3002059FD744059F9740312122412243274A8
:103F030002121199026E807C08850E82850F83A3AD
:103F1300A3A3A3A3A3A3A3E0F912239C8B0BEA4BB4
:103F23007003023E88EE4F60DB852182852283E0A9
:103F3300F50C780C1211C0850882850983A3A3A30D
:103F4300A3A3A3A3E0F50C780C1211C08A828B8380
:103F5300A3A3A3E0FB8A82850B83127AB08A8285AE
:103F63000B83E0FA8E828F83A3A3E0F9122C907463
:103F730002121199023E8C74F7120BC174FA1212D9
:103F83004CE9FE780179017F00800379000F12521A
:103F9300EFE0FCEFC39C5026EF75F007A4FC85F01F
:103FA30008AD08EA2CFCEB3DFD1248DEE0A2E05030
:103FB300DA540C60D6E0A2E250D3780080CF8A8234
:103FC3008B83A3A3A3A3A3A3E0703DE9A2E04005D1
:103FD30074016E70338A828B83A3A3A3A3A3A374F8
:103FE300011242CEE0C0E074031214DDD0E01249A6
:103FF3003DE0C0E074041214DDD0E0F07405121447
:10400300DDE81262181225767406024B5BC082C08B
:1040130083790112243E02605474F4120BC1EA4BFB
:104023009018C36019E4F08A088B09F50AF50B7838
:10403300081211B47A02123542121199800A7401DE
:10404300F07A027B0012352F02362A74F0120BC16C
:1040530074F312124C74031214DDE4F0A3F0901500
:10406300AE1242FC74011214DDE4F0A3124FE50416
:10407300F09015E8E0A2E350030241411242C274FA
:10408300091214DD1214AE74091214DD7808121427
:104093006A9015B0780812123474051214DD78088A
:1040A30012144C1241C574051214DD780812140D54
:1040B30050077A017B000241B274051214DD780CBB
:1040C30012146A901863E0F509780C7908120B5200
:1040D300A80CA90D901864E0C398E4995003E080FC
:1040E30001E8852182852283F074091214DD7808A2
:1040F30012146AC008C009C00AC00B74051214DD8B
:10410300780C12146A1241C5780C7908120B52E428
:10411300F50AF50BD00FD00ED00DD00C780C790822
:104123001212F49015B0780C12144C80111241B78E
:10413300127253EEFAEFFB121B6EAE08AF09EE4F8D
:1041430060658E828F831237B5C398502DEE24039A
:10415300F8E43FF9E0FA88828983E0C39AF06023A8
:1041630074031214DD12461F74011214DDEEF0A362
:10417300EF126706FEA3E0FF80C48E828F83A3A3A2
:10418300A3E4F08E828F83127F4A74011214DD122E
:1041930057858E828F83A3A3A3A360911266DF1238
:1041A30014DD1241BE808974031214DD125173743D
:1041B3000D026E821244BD9015AE221262A4A3A317
:1041C300A322901862127F52E4F50AF50B2274F0D1
:1041D300120BC18A088B09890A780079009015AE01
:1041E3001242FCFBEE4B601E088E828F83A3A3A3B7
:1041F300A312513D601008E87001098E828F83126B
:1042030042F8EA4F70E3901865125173C3E89AE9D4
:104213009B40030242B57A061242B8A80CA90DEAE4
:104223004970030242B58A828B83E508F0A3E5094E
:104233001242D7E50AF09018641252F71242CEA345
:10424300E4F0A3F09015AE12513D600D8E828F8382
:10425300A3A3A3A312725380179015AE12725390A7
:1042630015E8E0A2E340091242C29015B01214AE61
:104273009015E8E0A2E3503A7A087B00901593E0AA
:10428300F9121C34EA4B4C4D7028901862E0F50883
:10429300A3E085080CF50DE4F50EF50F780C12116B
:1042A300B47A087B00901593E0F9121C2874041269
:1042B3001199026E857B00121B688A0C8B0D2212EA
:1042C3001C40EAF8EBF9ECFAEDFB221242D222127F
:1042D30042D7A322F08A828B83A3A322E508F002AC
:1042E3004B5EF08E828F83A3A3A3A3A3A322125BAF
:1042F300EFA3A3F022A3A3A3A3E0FEA3E0FF227FE7
:1043030005020F0EF582E43509F583E0F922EA127E
:104313004316222410F582E422124324A3A3A3A369
:10432300221244C18508828509832212433222F076
:10433300850A82850B83A3A322E50E24111243620F
:10434300E022E50E240E12436222E50E24101243EE
:1043530062E02212435A22EE1243163FF58322F5FE
:1043630082E4350FF58322240FF50AE43509F50BB2
:10437300780A22E0F9121AEA8A088B09EA4B2274B6
:10438300F2120BC1890B8A088B098A828B83125123
:1043930073122462EA4B600479B8806A12246EE9CE
:1043A300F8903309E493F9E8C399400479B280564D
:1043B3007A151242B8AE0CAF0DEA4F700479108033
:1043C300458A828B83E4F0A31242D7E50BF0750A8A
:1043D3000078081211B87C127D00EA2403126D8F55
:1043E3001211999015B412578570089015B4800C6A
:1043F3001244B98882898312440C70F4EEF0A3EF5F
:10440300F0122480790002525F125177EA4B8882BE
:10441300898322C082C0839015B480048C828D83EB
:10442300127AB1EC4D60288C828D83A3A3E069607E
:104433000574FF6970E68C828D83A3A3A3E06A7081
:1044430003A3E06B70D6EC2403FAE43DFB80047A0B
:10445300007B0002605474F7120BC1E9FD74FE6D1A
:1044630070047C0180027C009015B480096D700299
:104473007C0188828983125785601F88828983A380
:10448300A3A3E06A7003A3E06B70E7ECA2E0888269
:104493008983A3A3E050D6F9800279FE024B5EEE36
:1044A300F9800CA3A3127F52EE2274021211997F9A
:1044B30002020F0EF5831244BD221244C122E0F81A
:1044C300A3E0F9221244C18E828F83221211997FB5
:1044D30003020F0EC082C08379009015B4800109D6
:1044E300E0FAA3E08A82F583E582458370F10260F6
:1044F3005474F6120BC1E4F508F50978081211BCDF
:10450300903309E49375F013A4A9F01246141272C0
:10451300B1121199E9FE74096E700312247A0244F0
:10452300A274F6120BC174FE12124C8521828522ED
:1045330083E4F0A3F0A821A9228808890978081246
:1045430011BC75080275090078081211BC126F229C
:104553001211990244AD74F5120BC174EB12124C93
:10456300852182852283E4F0A3F09015B480748EB4
:10457300828F83A3A3E0C0E074021214DDD0E012A3
:104583005C36A982AA8389088A09750A0078081209
:1045930011B87C127D0074061214DD1272761211AA
:1045A30099740212121C8808890978081211BC75C3
:1045B300081375090078081211BC74041214DD1273
:1045C300572875F013A4F8AAF075F013E9124610F2
:1045D300126F2A12119985218285228312461F8E1A
:1045E300828F831242FCEE4F7085A821A92288088E
:1045F300890978081211BC75080275090078081238
:1046030011BC126F2212119974150244CFA42AF916
:10461300E82402FCE439FD7A427B0022E02401F025
:10462300A3E03400F02274F4120BC174EB12124CA9
:104633007E007F00A821A922880889097808121121
:10464300BC7508028E0978081211BC7C007D007AC3
:10465300421272BD121199E9706C8E088056740271
:1046630012121C880A890B780A1211BC750A137579
:104673000B00780A1211BCE50875F013A4F8AAF030
:1046830075F013E5091246101272BF121199E97001
:104693001B74031214DDAA82AB8374021214DDE0CF
:1046A300F912245CE970050EEE70010F0508E508A8
:1046B300700205098521828522831244B9C3E50866
:1046C30098E509994098EEFAEFFB741502362774C2
:1046D300F6120BC18C828D83A3A312492BF0EA122D
:1046E300654C3BF583E0C0E01248E8D0E0F0EA24F3
:1046F3001DF582E43B1244B71248CC124926F0A3BD
:10470300F0EA241FF582E43BF5831242FCEC1248E5
:10471300BF3DF583EEF0A3EFF01248C53BF58312DE
:1047230048F6A3A3A3A3A3A3EEF0A3EF1261A7FEEE
:104733008C828D8312493574035EFEC39403400358
:104743000248B2EE600874026E60030247D78C829F
:104753008D83E0540CFE740C6E7003024816E0A2C5
:10476300E4400D88828983E08C828D83A312494BB8
:1047730074086E60030248161248D67401F08A82E8
:104783008B83A3A3A3A3A3125BFC70148C828D83DE
:10479300E0440C12493DA3A31248F6EEF0A3EFF058
:1047A3008C828D83E0A2E4402B8882124904124953
:1047B30019500109F582124904A3A3A3A3A3A3F0EB
:1047C300A3EF1249458C828D83A3A3A3F0E82403AE
:1047D300F850010988828983E0C0E0EC2411F58256
:1047E300E43DF583D0E01249358C828D83E0A2E766
:1047F300507588828983E0FE8C828D8312494B74C5
:10480300FC5E700C8C828D83A3E054036403701EE2
:104813000248B21248D6E4F0740C6E60030247817A
:10482300888212490A1249195001090247A38C824E
:104833008D83A3E05403603288828983E0C0E0EC77
:104843001248F03DF583D0E012494C8C828D83E011
:1048530054036402701488828983E0C0E01248DE46
:10486300D0E012494C8003A3E4F0EC1256F43D125D
:104873007251EC2410FEE43DFFEA241DF582E43B73
:10488300F583E0F5088E828F83E0C3982508F50849
:10489300F0EA2417F8E43BF98882F583E0C395082E
:1048A300C0E01248CCD0E01261A7C39508500A12A9
:1048B30048CCE4F01248E8E4F00244B22415F5824F
:1048C300E422EA240DF582E422EC240DF582E43D92
:1048D300F58322EC1258AD3DF58322EC2414F582C6
:1048E300E43DF58322EC1243163DF583222413F5B0
:1048F30082E422E0FEA3E0FF8C828D83A3A3A3A323
:104903002212490AA3A3228983E0F508A3E0FFE565
:10491300088C828D8322A3A3A3A3F0A3EFF0E82442
:1049230002F82212492BA322E4F08C828D83A3A3E5
:10493300A322124953A882A983221242D2A3A3A37A
:10494300A322124953A3E022A312495308A98322A5
:104953001261B0A32274F4120BC174F312124C8AC5
:104963000A8B0BECFEEDFF8C82F583E0540CF5080B
:10497300E0A2E75006E508D2E7F508E508D2E1F53D
:1049830008125BFC7006E508D2E4F508E0A2E550E6
:1049930006E508D2E5F5087C087D007900AA21AB7D
:1049A30022121AC074021214DDE508127257C0E015
:1049B30074031214DDD0E0124FE5E50AF0A3E50B12
:1049C300F074051214DD126AC31214DDE0707774FB
:1049D300081214DD124F6B12619938126ADEC0E0BF
:1049E30074081214DD124A6CD0E0126ABEC0E0747F
:1049F300081214DD124A62D0E0F074081214DD12BA
:104A03004A58E0124F931250141265ADEE2411125E
:104A13005BC8C0E0124A4ED0E0F0EE2414125BC82B
:104A2300C0E074081214DD124F6B2435F582E438AC
:104A3300F583D0E0124FB8C0E074081214DD124FB2
:104A43006FD0E0126817740D023627E82432F5821E
:104A5300E439F583221244C7A3A3A3A3A3A3221279
:104A63004F7F126CBD38F58322124F7F2426F582C7
:104A7300E438F5832274F7120BC17E008A828B839C
:104A8300A3A3A3A3A3A3A3A3A3E064046003024B70
:104A93003A1258A5E06003024B3A1257073B1257EC
:104AA300837003024B3A88828983E05403600302D4
:104AB3004B3AE81258AD39F583E0FA8C828D83A323
:104AC300A3E0FBA3E0CB2411F582E43BF583E06A8A
:104AD300706588828983A3A3A3A3A3A3A3A3A3121B
:104AE3004B3EE06A7003A3E06B704C88828983A31A
:104AF300A3124B4AE0FFA3E0CF2406125BC86A70FF
:104B030003A3E06B703188828983A3A3E0F88C82CE
:104B13008D83A3A3E0F9A3E0F5838982A3A3E068CF
:104B230060138C828D83A3A3A3E0F5838982E05471
:104B33000C640470027E01EEF98020124B422212B3
:104B4300517B8C828D8322A3A3124B42A3A3227495
:104B53000C1214DDE0F9740D1211997F01020F0E8E
:104B630074F6120BC174FC12124CEAFEEBFFECFA62
:104B7300EDFB8C82F583A3E0540360169015AA1213
:104B8300578560597900EEFCEFFD1263A4122CBC2B
:104B9300804B852182852283EEF0A3EFF07402120D
:104BA30014DD124FDAAC21AD227A987B241226C091
:104BB3008A088B09A808A909EA4960218A828B839C
:104BC300A3A3A3A3A3A3A3A3A37406F07A00888239
:104BD3008B83124F6B12656DE0F912261E7404026B
:104BE30044AF74F2120BC174F312124CEAFEEBFFE2
:104BF3008A82F583A3A3A3A3A3A3A3A3A3A3E0F5FB
:104C03000A9018C3E0700579BA024F23750801753D
:104C13000900750C00750D007C087D007900AA2140
:104C2300AB22121AC074051214DD7401124FED5435
:104C330004601274021214DDE0D2E6124FED540840
:104C43007003750803E05410600674404508F508C6
:104C5300E05408602274021214DDE044C0124FEDE8
:104C63005420600A74031214DDE0D2E08008740358
:104C73001214DDE0D2E1F0EE2415125BC8124F539B
:104C83007003740169700674084508F5088E828FF5
:104C930083A3A3A3A3A3A3A3A3E0701612271A8538
:104CA30021828522831265BA74021214DDE0D2E2F6
:104CB3008030640F701074021214DD124FF5740407
:104CC3004508F508807F8E828F83A3A3A3A3A3A3A4
:104CD300A3A3E064028E828F83700A12728AE8F0C3
:104CE300A3E9F08060A3A3A3A3A3A3A3A3E0640306
:104CF300700DAC21AD22EEFAEFFB1224CE80468E6E
:104D0300828F83A3A3A3A3A3A3A3A3E0640170350A
:104D130090163EE0601074021214DD124FF575090F
:104D230010750AFF801874021214DDE0440C124F50
:104D3300E574FDF0A374FFF074044508F5088E8252
:104D43008F8312353AEE2415125BC8A2E0503F74EC
:104D5300021214DDE0540C701B8E828F8312517388
:104D630012211AE9700579BB024F2374021214DD74
:104D7300E0D2E5F0EE2415125BC8A2E050107402F5
:104D83001214DDE0540C64047004E0D2E5F0EE2468
:104D930011125BC8C0E074041214DDD0E0126AC5BE
:104DA3001214DDE06003024F1C74081214DD124F6D
:104DB300AEE508F0A3E509F0124F49E0C0E0124F59
:104DC3003FD0E0F0124F30E0C0E074081214DD125F
:104DD3004F6B1248F038F583D0E012501464017021
:104DE3001190163EE0C0E074081214DD124F89D012
:104DF300E0F074081214DD124FA9124F3AFAE824B6
:104E03001CF582E439F583EA124FE0EE2415FAE447
:104E13003FFB8A82F583127AB1E8125F0439F58386
:104E2300124FDAEE241C125BC8C0E0124F26D0E00A
:104E330012604A124F53700374016970137408129D
:104E430014DD125895FAEE241D125BC8F91223A241
:104E53008E828F83A3A3A3A3A3A3A3A3A3E0C0E0F2
:104E630074081214DD124A6CD0E0F074081214DDD9
:104E7300124A62E50AF074081214DD125728242836
:104E8300F582E439F583E50CF0A3E50D124FC0126A
:104E93004F93125C411265ADEE124F3AC0E0E82425
:104EA30033F582E439F583D0E0F0EE241B125BC8BE
:104EB300C0E074081214DD124F6FD0E0F0EE241A34
:104EC300125BC8C0E074081214DD124F6B2432F574
:104ED30082E438F583D0E0124FB8124F5F1211B855
:104EE300126CC3127AB1740B1214DD124F6B242FA0
:104EF300127F8D121199EE2415125BC85440601273
:104F03009015CA125785600AAA21AB221263A41214
:104F13002CBCAA21AB22122540740C1214DDE0F93B
:104F230002525AE82420F582E439F58322EE24194B
:104F3300F582E43FF58322126CD2E022E82412F5D5
:104F430082E439F58322EE2418F582E43FF58322C7
:104F53005480F8A3E05401F974806822F508A3E0B3
:104F6300F509750A00780822124F7F22124F7F2419
:104F730034F582E438F58322A3A3A3A3124F83223B
:104F8300E0F8A3E0C822124F7F1248BF38F583220E
:104F9300FAA3E0FBE8242AF582E439F583EAF0A3D7
:104FA300EB22A3A3A3A31244BDEE2212572C125744
:104FB3000C39F58322F0EE2413125C4922F0EE241F
:104FC3000D125C4922E0FC8A828B83E02CFCA3E077
:104FD3003400FD8A828B83ECF0A3EDF022F0A3E48E
:104FE300F022F085218285228322F0EE2415125CC3
:104FF3004922E0D2E3F0124FFD228E828F831244C6
:10500300C1852182852283E8F0A3E9F022E8F0A399
:10501300E9126700E02274F7120BC18A828B83A323
:10502300E0640170047E6380027E648A828B83E085
:105033006008790512504D24F3FE9015E6E06007F1
:10504300F912504D24F2FE024B3A1225E8E9F8EE2C
:10505300C3982274F6120BC174FE12124C8521827E
:105063008522831265BAE9FEECFAEDFB9005C212C4
:1050730057856032A821A922880889097808121166
:10508300BC7D01740E1214DDE0FCEEF99005C21232
:10509300658E122CBC7402121199EA4B60047900DC
:1050A300800679B2800279B60244AD74F7120BC15F
:1050B300E9FE9015A0125785601F74091214DDE0F4
:1050C300F50878081211C0EEF99015A012658E123A
:1050D3002CBC7401121199800279B6024B5E74F7ED
:1050E300120BC18908ECFEEDFF79B5E508245E607B
:1050F3002014600624F86034803D9005C412513DAD
:1051030060351272CE122CBC8E828F831265BA80E8
:10511300249015A2127AB1EC4D601CEEFCEFFD90C9
:1051230015A212658E122CBCE9F9800B90159E1204
:105133005143121C587900024B5E125177EA4B22FD
:10514300127AB5EEFAEFFB2274F7120BC1E9FE797E
:10515300B574AB6E700B90159E125173121C587977
:1051630000024B5E8E828F83A3A3A3A3A3A3A3A357
:105173001251772212517B22E0FAA3E0FB2274F151
:10518300120BC1EAFEEBFF8C0A8D0B75080190151B
:10519300EEE06E7003A3E06F700C12524EAA0AABDE
:1051A3000B121C58805E122720EE6A7002EF6B70A0
:1051B30009AA0AAB0B122726804AAC0AAD0BEEFAFA
:1051C300EFFB122276E9F50890186AE07036122B8D
:1051D300C4E97030E508702C9015BEE06E7003A32F
:1051E300E06F7020EE4F601C750CB6750D15750ED3
:1051F30000780C1211B87C087D00AA0AAB0B12725E
:105203007A121199A908027BAD74F2120BC1EAFE5E
:10521300EBFF8C088D09750A0112524EEEFAEFFB73
:10522300121C52E9640170119015EE1244B98508FD
:1052330082850983127253800EAC08AD09EEFAEF32
:10524300FB12227CE9F50AA90A80111227148A0CA1
:105253008B0DAC0CAD0D22740D1211997F06020F4C
:105263000E74F6120BC1EAFEEBFF7A0D7B00121BE4
:1052730068EA4B6062EE2424126F57F0EE24251285
:105283006F57A312531C126F5DA3A3126CF012523B
:10529300F7F0EE1252DD12530CE8F0A3E912533388
:1052A300125304127253EE1252E6126DB3A3A3A368
:1052B300A3F0EE2433125BC8C0E01252EFD0E01229
:1052C3006AE2125304A3A3A3E8F0A3E912532BC089
:1052D300E01258A5D0E0F00244B2242AF582E43F5C
:1052E300F58322242EF582E43FF58322EA125D1E24
:1052F3003BF583221252FB22E08A828B83A3A3A372
:1053030022126E12A3A3A3A322125310221244C18A
:105313008A828B83A3A3A3A322F012532122EE2418
:1053230026F582E43FF58322F0EE2432125C492213
:10533300F0EE242C125C492274F4120BC174FE1299
:10534300124CECFEEDFFEC2416125BC864057010E2
:10535300EC2406FCE43FFD1224C8E970030253E782
:10536300AC21AD2212700C1221208521828522836B
:10537300125785606B8E828F83E064017058E875E5
:10538300F009A4F8AAF075F009E9A42AF97415281C
:10539300F8740339F9E8FAE9FB8882F5837808128F
:1053A300146AEE12548912140D4027852182852236
:1053B30083124FA9125BD61253EC780812146A9029
:1053C300832A78081213908A828B83780812144CEC
:1053D300800A79A28010EE240F12724D79008006A4
:1053E30079A1800279C802362512500AEE126CDECA
:1053F3002274F2120BC18A0C8B0DECFEEDFFEC1242
:105403005BD6E4F0A3F09082EA780812146AEC12F7
:1054130054891212B76067EC240E125BCF70347894
:10542300B39015E5E07028901617E064017020EC46
:105433002411125BC8F91225D08B09A909EE125762
:10544300083F1265B8EA4960047800800278A188B1
:1054530008802EE060046402700A1224DAE9F50879
:105463007007801DE064037010EEFCEFFDAA0CAB27
:105473000D122144E9F50880087508A18003750819
:10548300A3A90802525F126CDE78082274F0120B93
:10549300C174F512124CEAFEEBFFEA240AFCE43F66
:1054A3008C82F583127F4E125712740312122C8AC8
:1054B300828B831263AEE970030255787401121272
:1054C3002C740312122412212074011214DD1257BA
:1054D300857003025578E875F009A4F8AAF075F011
:1054E30009E9A42AF9741128FC740339FDE5082499
:1054F3000E1267FFE4F0041214DD1244B9E508123A
:10550300570835091272518C828D831214A2E50853
:1055130024121267FF1214AE90832A780812146AB9
:105523008C828D8378081213448C828D83780C12BD
:10553300146A9083AE780812146A780C7908120BF7
:1055430052E5084509450A450B702A74011214DD1A
:1055530012572875F009A4F8AAF075F009E9A42AEE
:10556300F9741928F582740339F5837401F07A000C
:105573007B081257358E828F83A3A3A3A3A3A3A370
:10558300A3A3A3E02406FCA3E03400FD8E828F8353
:105593001263AE126AD0603EEE240A1256FA124F1C
:1055A300AE7468124FE0E81256F439F5837402F0D2
:1055B3009015D01214A28C828D831265A712619963
:1055C3003CF5831214AE90832A780812146A90155E
:1055D300D07808121344125770705D90159E1257BD
:1055E30020A3A3A3A3A3A3A3A3A3A31261CF121CCA
:1055F30052E9701012618D90159E12619F70051211
:105603006AD060348E828F83A3A3A3A3A3A3A3A38F
:10561300A3A312572012517312214AE960118E82FB
:105623008F83A3A3A3A3A3A312575CE4F0A3F08ED9
:10563300828F83125742E4F012577060030256EFD1
:105643008E828F83A3A3A3A3A3A3127F4A9015E5FE
:10565300E060030256E4901617E06401600302560B
:10566300E4750A3A750B00780A1211BC740212121F
:105673001C880A890B780A1211BC127549121199F8
:10568300E9705BE508240E1267FF740112578AC0A4
:10569300E0E50824111267FFD0E0F0E508240F12BB
:1056A30067FF743A124FE09015CC1214A2E5082458
:1056B300121267FF1214AE90832A780812146A90AC
:1056C30015CC780812134490832A780812146A9030
:1056D30015CC78081212B77008125731800312578D
:1056E30012125770700612609074A1F0740B026E60
:1056F30082240EF582E422F8E43FF9E8FCE9FD8810
:1057030082F58322EA12570C22240FF582E422E564
:105713000812570C3509F583E4F0A3F022127AB589
:105723008E828F832212572C221244C1E8227A00E0
:105733007B02901474E0F9121B14228A828B83A3D8
:10574300A3A3A3A3A3A3A3A3A312575022124F83DC
:10575300240EF582E438F58322A3A3A3A31257648E
:1057630022124F83240FF582E438F583228E828F31
:1057730083A3A3A3A3A3A3124F7B240FF582E4382F
:10578300F58312572C492212578E22F085218285E8
:105793002283E02274F6120BC1EAFEEBFF7A237B2D
:1057A30000121B68EE240AF508E43FF50985088218
:1057B3001265B87C237D007900121AC085088285A2
:1057C30009831257857003025858EEFAEFFB12242F
:1057D300E612577060748E828F8312588B64018E29
:1057E300828F83A3A3A3A3A3A37007125881740E6C
:1057F30080211257857010126AD0700B8E828F83AE
:10580300A3A3E0A2E05007125877740D8005125845
:10581300777405126AE254036401700712585F74C7
:1058230005800B9015E6E0C0E012585FD0E01258F7
:105833009AF5838882125BF5850882850983124F66
:105843006B12654C38F583E9800E850882850983E0
:105853001266318003126574F00244B28E828F8324
:10586300A3A3A3A3A3A3A3A3A3A312587122E012E8
:105873006593A3228E828F83A3A3A3A3A3A3124F13
:105883007B12655238F58322A3A3A3A3A3A3A3A3E7
:10589300A3A3125750E02212589E22127021F8A39C
:1058A300E022EA1258AD3BF58322240CF582E42270
:1058B30074F1120BC174E412124C8A0C8B0D8C0818
:1058C3008D097A237B00121B688A0A8B0BAE0AAF01
:1058D3000BEA4F7003025BB0126558E508241512FA
:1058E3005BE1687003A3E0698E828F8370047402A6
:1058F30080027401F0E508240DF8E43509F9888283
:10590300F583E0FAC3E49AFA95E0FB125BDD2AFA29
:10591300A3E03BFB8E828F83A3A3A3A31261B68E66
:10592300828F83A3A3F0EE2420F582E43FF583E482
:10593300F0EE2421F582E43FF583E4F0EEFAEFFB89
:1059430012259A850882850983125BFC70098E8271
:105953008F83A3740580069015E6125BEAF0EE24AC
:1059630017F50AE43FF50B8E828F83125BF5E98509
:105973000A82850B83F0EE2416F8E43FF9E5082448
:105983000EFAE43509FB88828983124FC8E508249F
:1059930010FAE43509FB850A82850B83E0FC8882D3
:1059A3008983E0F88A828B83E0C398C39CF8125CF6
:1059B30036F0EEFCEFFDAA0CAB0D1224E0E9F50B7B
:1059C3008E828F83E06402700612618D125BBAE5EA
:1059D3000B6003025BA7750C00750D0090186AE05D
:1059E30064016005E06402703F125BCC6008EE2442
:1059F30021125BCF70328E828F83A3A3A312657AA9
:105A0300125C02EE2416125BC8125C2BFAE439FB1B
:105A13001242BAEA4B6011126DDC1211B8125C101B
:105A2300AA0C12727A121199EEFAEFFB1225A6E96B
:105A3300F50B90186AE064016008E06402600302F9
:105A43005B9AE97003025B9AE50C450D7003025BF8
:105A5300A78003850E0B125BCC600BEE2421125B37
:105A6300CF6003025BA0850B0E850C08850D0975BD
:105A73000A0078081211B8125C108E828F83A3A3D8
:105A8300A3A3127F93121199EE2420125BC8600D19
:105A9300125BD57468124FE0EE24208015EE2421AA
:105AA300125BC86015125BD57403F0A37401F0EEAA
:105AB3002421F582E43FF583E4F0EEFAEFFB1225AF
:105AC300A6E9F50B70907C137D007900740912121E
:105AD30024121AC0741A1214DD7401125C41646832
:105AE3007002A3E0704F8E828F8312575CE06405CF
:105AF3006003025A567C0879FF8E828F83A3A3A387
:105B0300A3E0242A1261D2121B4AE97003025A56F7
:105B13007C087D0079FF7401121224121AC07401EB
:105B230012122C7A007B0079AB1224C2741912145E
