:020000040000FA
:0600000002149C0208C678
:03001300020A1CC2
:03002B0002122B93
:030033000210CEEA
:03003B00020A7145
:030053000207FBA6
:1000830002085A0100F0FF0700080000FFFF00000C
:100093000704000000030001FF18102700000020E0
:1000A300FD000206FFFFFE0400000004E5C6FE0695
:1000B300001F0000AC03FE06001F00B4AC741E0357
:1000C300007701B717BD17111E00000000000000E4
:1000D300000000000000000000000000000000001D
:1000E300000000000000000000000000000000000D
:1000F3000000002F1E0000000000000000000000B0
:100103000000000101E803D00732006400DC009422
:1001130002000000000000000000000000000000DA
:100123000000000000000000000000FF00000000CD
:1001330000000000000000000000000000000104B7
:10014300010C0002076F8200000001040000B015DB
:10015300000000E8030000FFFF0D1688130000E80D
:1001630003000064006400B801A0BB0D00A0BB0D38
:1001730000020202070401010A1E02051E020A0A06
:100183000101010809080103B80B02803E0102FEC8
:10019300FFE8030A050001FFFF010A011401E00162
:1001A30000B0423BAAB83F0000003F8C906339AADD
:1001B3000CA33A00941E3C8042633DCFFE753E156E
:1001C30072313F0000803FF304353F8096184B3077
:1001D30031323334353637383941424344454600AA
:1001E300286E756C6C20706F696E746572290030AF
:1001F30031323334353637383961626364656600CA
:100203003F3F3F000000807FF9021550B743BA51CA
:1002130000E7DB2E0000A040000080BF2292D43E06
:10022300DD9B2A3F04000040FFFF7F7FFFFF7FFF2E
:10023300010080341872313F01050301010F10FEE4
:10024300FF7F3400000000173400000000FF0000AF
:1002530000FF001214CA60461214E8603DE968709A
:1002630008F618F618F618F622748067F712028A51
:10027300090909748067F7221214E8601D1214CA71
:100283007005191919801A121378701F121328C3D5
:100293007003E6673319191940071818182208085C
:1002A3000874FFF618F618F618F6221213286017CA
:1002B300121568702192F01215567019501720F01C
:1002C30014080808090909E7F61819E7F61819E7E1
:1002D300F61819E7F62212155660E6E869701F084A
:1002E30008E62480F608E436F618547FB47F0CE65B
:1002F30054806007F6E418F618F622181822E9C6A7
:10030300CC08C6CD08C6CE08C6CFC0E0E8C0E0EA38
:10031300C0E0EBC0E009E9F809E7FA09E7FBE6F911
:1003230018E6F8C3EC98ED99EE9AEBC2E7F5F0EF17
:10033300C2E795F0500E600CEBCFFBEACEFAE9CDA5
:10034300F9E8CCF8EAA2E7D2E7FAEB33FB13F5F0CE
:10035300EEA2E7D2E7FEEF33FFC5F013A2E730E6E4
:1003630001B313C5F0C3C0E0C0F07F00C39BFB60C3
:100373005E9418600F401D14601AD0E023F9D0E09A
:10038300F802045C8AF0E9486003D2F0E4AFF0FAC3
:10039300F9F8803BEB30E40D89F0EA6003D2F0E436
:1003A300AFF0F9CAF8EB30E30D88F0EF6002D2F05A
:1003B300AFF0E4CAC9F8EB54076014FBC3EA13FABD
:1003C300E913F9E813F8EF135002D2E0FFDBEDD0A5
:1003D300E0C0E030E739C3E49FFFF5F0EC98FC425E
:1003E300F0ED99FD42F0EE9AFE42F0D0E0F9D0E054
:1003F300F8E5F0607AE923F9EE20E742D802806756
:10040300C3EF33FFEC33FCED33FDEE33FE80EAEC58
:1004130028FCED39FDEE3AFED0E023F9D0E0F840B8
:1004230002801BC3EE13FEED13FDEC13FCEF135020
:1004330002D2E0FF08B800067F7F74FF802EEF33FF
:1004430050178CF020F00260100CBC000C0DBD00A6
:10045300080EBE000408E860DFE933E813FFEE236B
:1004630013FE4F4D4C8008E95480FFE4FEFDFCEE83
:1004730033EF33F47004FCFD7E80D0E0FBD0E0FA70
:10048300D0E0F8D0E0CFC618CEC618CDC618CCC67B
:10049300F9221214E87004181818221214CA700DE5
:1004A30074FFF61819F61819F61819F622E754808E
:1004B30066F6121556700F12156870F014F608F6EA
:1004C30008F608F680D1121568700CF608F608765F
:1004D3008008E6447F80EC12132B700C12137B60B0
:1004E300BFE65480F6E480BB12137B70051919191B
:1004F30080A5E869700C763F18768018F618F6E840
:10050300F922E6CDC0E018ECC0E0E633CD33CDD31D
:1005130013F6E719FCE7191933CC33C3947F400E64
:10052300CD9D502408E65480F6E418F6800FF404B9
:100533003D14501408E6447FF6187680E418F61844
:10054300F6D0E0FCD0E0FD22CCD313CCFD18E4C6FA
:10055300CBC0E018E4C6CAC0E00808ED08C633E61D
:1005630013F618E433C675F003C3CA97CA09CB97C9
:10057300CB199C40047D08802EBD000302063E1665
:10058300B6FF050606081618C3CA33CACB33CB33E6
:10059300CA27CA09CB37CB193CC37D08803E187DD7
:1005A3000820E75CC633C6CA33CACB33CB33DDF18D
:1005B300D5F0EB30E77BCA97CA09CB974ACB199C96
:1005C300406F4B7025E620E0218066187D08C3CA82
:1005D30097CA09CB97CB199CD3C633C6CA33CACBA8
:1005E30033CB3350C9DDE7D5F0E1D3E4C636C608D3
:1005F300C636C608C636C608C636C61818188031A9
:10060300C3CA97CA09CB97CB199CB34097C633C6C5
:10061300CA33CACB33CB33DD34D5F02EC6A2E0C602
:1006230040C8CA27CA09CB37194A70BECB3CB4802D
:10063300B90808E63308E633601F181818D0E0FA43
:10064300D0E0FBD0E0FCD0E0FD22187D08CA27CA29
:1006530009CB37CB193CD3808013F618E4B67F114E
:10066300F618B6FF0EF618C60470D2080876808016
:10067300CAF618F618F680C5001214E8604F121473
:10068300CA6012E7548066F6121378701112156867
:10069300703B090909F4F618F618F618F622121336
:1006A30028701512155608080860EAE6447FF61804
:1006B300768018E4F618F62212155660161215689D
:1006C3007012E4F608F608F608E65480F6090909FC
:1006D30018181822EAC0E0EBC0E0ECC0E0EDC0E07F
:1006E300E687F0A4FBACF008E687F0A42CFCE43525
:1006F300F0FA1809E687F0A42C4B60027401CA359E
:10070300F0FCE433FB09E687F0D2F7A42CCB35F0F9
:10071300FC1908E687F0A42BCC35F0FBE433FD0885
:1007230019E687F0D2E7A42C4ACB35F0CD3400FC90
:1007330009E687F0D2E7A42DCC35F0FDE433FA09BE
:1007430018E687F0D2F7A42CCD35F0CA3400FC08A4
:10075300E687F0D2E7D2F7A42ACC35F07A7E20E7F9
:100763000B0ACB33CBCD33CDCC33CC33CB3350147B
:100773007004ED30E00ED2F1E4CD3DCDCC3CCC3B6A
:100783005005DA05C2F1EB547FC63308E63392F025
:10079300FBE73309E733C39A502D2B70190C0D4C2B
:1007A3004D70151806E608C333700D20F10AA2F048
:1007B30013F6E418800B4024E4F630F00276801838
:1007C300F618F618F68024D33B14501074FFA2F0E9
:1007D30013F6187680E418F618F6800FA2F013F6D5
:1007E30018E63303F618ECF618EDF6D0E0FDD0E08A
:1007F300FCD0E0FBD0E0FA22C0E074F1120C89A235
:10080300AFE433F509D2AF85A708AFA1EF5508FED2
:1008130074105E600612188375A1EF74085E600899
:1008230012188975A1F78024EFA2E092F0E508A2DF
:10083300E082F05017906198E0F8900564E0C39867
:10084300A2D265D0335002E8F075A1FEE509A2E01B
:1008530092AF7F02020CE8C0E074F2120C89A2AFDF
:10086300E433FED2AF9061A4E0F8759B00E59158A4
:10087300540860087591F71218D78023E5915854EE
:100883001060087591EF1218DD8014E591A2E092D3
:10089300F0E8A2E082F05007E0C2E0F0121A2790DD
:1008A30061A3E0F8E5E9585404600E1219FD75E9F7
:1008B300FB906193E0A2E640F2EEA2E092AF7F01EB
:1008C300020CE8C0E074F2120C89A2AFE433FED24A
:1008D300AF9061A5E0F8E5BF585404600675BFFB0F
:1008E300121A3F80D412093330F039120978803458
:1008F30012093320F01430E72B74FFFCFBFA747FEA
:100903008022E4FCFBFA7480801AB48008BC00F2F5
:10091300BB00EF800F50EBF9E4C39AFAE49BFBE4CE
:100923009CFCE499C6CC18C6CB18C6CA18C6F922D3
:10093300E4C9C608CAC608CBC6D3330308CCC6333A
:1009430092F0C3947F402E94184019C9B90704CA82
:10095300CBCC225025C309CA33CACB33CBCC33CC3F
:1009630033D9F422F4600DC9CCC313CB13CBCA1310
:10097300CAD9F6CC22E4FCFBFA2214FCFBFA22C30C
:10098300E498F8E499F91209C38026C3E49AFAE4D7
:100993009BFBE920E7E91209C3E498F8E499F922FB
:1009A300C3E498F8E499F91209C3E498F8E499F9CF
:1009B300C3E49AFAE49BFB22EB20E7CFE920E7E0CC
:1009C300B90010BB0008E88AF084F8AAF022E4FB1F
:1009D300C8FA22EB70227B10C833C8C933C933501D
:1009E30007C39AC3DBF280069A50012ADBEAC833B5
:1009F300F4C8C933F4C9FA2275F008E4C833C8C986
:100A030033C933C99AC99B5004C92AC93BD5F0ECF1
:100A1300FBC833F4C8E4C9FA22C0E0C0D0E8C0E0A0
:100A2300E9C0E0C082C083A8C1E8C0E09004D1E07F
:100A3300F8745028F582E43404F583D0E0F0900490
:100A4300D0E0F8A3E0687006E5959004D3F0900435
:100A5300D1E004F0C394804002E4F0A374C6F0D064
:100A630083D082D0E0F9D0E0F8D0D0D0E032C0E03B
:100A7300C0D0E8C0E0E9C0E0C082C083900554E084
:100A8300F8A3E0687008539AFBA374018022C2E9BB
:100A9300900554E0F8740128F074D428F582E43406
:100AA30004F583E0F5C1900554E0C394804002E46B
:100AB300F080AC080808EAC0E0EBC0E086F0E7A4E9
:100AC300FA180986F0E7A42AFA180986F0E7A42A97
:100AD300FA180986F0E7A42AFA1986F0E7A4FBE5D9
:100AE300F02AFA190886F0E7A42BFBE5F03AFA1985
:100AF3000886F0E7A42BFBE5F03AFA18180986F00C
:100B0300E7A4C5F02BFBE43AFA1908E7C5F0C6A43D
:100B130026F6E5F03BFBE43AFA1886F0E7A4F6E59F
:100B2300F00826F6E43B08F6E43A08F6D0E0FBD0FA
:100B3300E0FA22080808E630E71112133C120B4EC4
:100B4300080808C64480C618181822181818E97926
:100B53009EC608CAC608CBC608CCC6C37020799601
:100B6300CACBCC7019798ECBCC70137986CC700E2E
:100B7300F9802ACA33CACB33CBCC33CC331930E711
:100B8300F2CCCBCA3350147004EA30E00DE4CA3A15
:100B9300CACB3BCBCC3CCC500209C3E913C6CC181F
:100BA3002313C6CB18C6CA18C6F922E4CFC0E0E4A3
:100BB300CEC0E0E4CDC0E0E4CCC0E075F020E62692
:100BC300F608E633F608E633F608E633F61818189F
:100BD300EC33FCED33FDEE33FEEF33FFC3EC97094B
:100BE300ED9709EE9709EF97191919400FFFEC9745
:100BF300FC09ED97FD09EE97FE191906D5F0BFEC38
:100C0300F709EDF709EEF709EFF7191919D0E0FC29
:100C1300D0E0FDD0E0FED0E0FF222521C582C0E078
:100C2300E52234FFC583C0E0E521C3958224F81093
:100C3300AF088583228582218008858322858221CE
:100C4300D2AFCEF0A3E520F0A37808E608F0A3DE48
:100C5300FAEFF0A3E58124FAF8E608F0A3E608F03A
:100C6300A3E608F0A30808E608F0A3E608F0A31536
:100C7300811581D0E0FED0E0F8158115811581E85A
:100C8300C0E0EEC0E022C0D02521C582C0E0E5224D
:100C930034FFC583C0E0E521C3958224F310AF0878
:100CA3008583228582218008858322858221D2AF94
:100CB300C8F0A3E9F0A3EAF0A3EBF0A37908E709EE
:100CC300F0A3D8FAECF0A3EDF0A3EEF0A3EFF0A3BA
:100CD300D0E0F0A3D0E0F0A3D0E0F0A3E520F0A3B0
:100CE300E5F0F0A322852283852182E0C0E0A3E022
:100CF300F9A3E0FAA3E0FBA37808E0F608A3DFFA80
:100D0300E0FCA3E0FDA3E0FEA3E0FFA3E0C0E0A3BB
:100D1300E0C0E0A3E0F5D0A3E0F520A3E0A3F5F065
:100D230010AF0885832285822180088583228582EE
:100D330021D2AFD082D083D0E0F8D0E03212133F7B
:100D4300181818120BAE12144B1919192212144B3E
:100D5300191919080808E618181820E7E0120BAE4D
:100D630012133F18181822090909E719191920E75E
:100D7300DC080808E618181820E703020BAE121364
:100D83003F181818120BAE12133F18181812144BF1
:100D930019191922121541B90003020DD6E4900363
:100DA3005178B979168002F0A3D8FCD9FA7A097B75
:100DB3001990008678D179028015E493A3AD82AEB1
:100DC300838A828B83F0A3AA82AB838D828E83D89E
:100DD300E9D9E77582057583FE74041211BC758227
:100DE3001F75833174001211BC75F0108E238F248C
:100DF300858228858327852182852283E0CEA3E00F
:100E0300CF852882852783EBC9EAC8EDCBECCAC31B
:100E1300E833C8E933C9EA33CAEB33CBC3EA9EF5F7
:100E230026EB9FF525B35004AB25AA26EC33CCED76
:100E330033CDD5F0DAAE23AF24221214E8601C12AE
:100E430014CA601712155670071215687001D32261
:100E5300C0D01215687006D0D0B322C32233D0D0CD
:100E6300501430E0F6C3E7960809E7960809E796B9
:100E73000809E796B32220E0D5E6970809E6970824
:100E830009E6970809E697B3221214E8601B1214C7
:100E9300CA60161215567007121568600CB322C08B
:100EA300D01215687005D0D022C32233D0D050138E
:100EB30030E0EBC3E7960809E7960809E7960809C7
:100EC300E7962220E0E4E6970809E6970809E69703
:100ED3000809E69722D083D082ECC0E0EDC0E0E4BD
:100EE30093A3FCE493A3FDED4C600D120FB0EC242F
:100EF300FFFCED34FFFD80EFE493A3FCE493A3FD3B
:100F0300ED4C600D121079EC24FFFCED34FFFD80F5
:100F1300EFD0E0FDD0E0FCE493A3C0E0E493C0E0B5
:100F230022852283852182E0A3FEE0A3F5207808B1
:100F3300E0A3F608DFFAE0A3FFE0A3C0E0E0A3C06C
:100F4300E0E0A3C0E0E0A3C0E0E0A3C0E010AF088E
:100F53008582218583228008858221858322D2AFE1
:100F6300D083D0820211C2D083D082E9C0E0E4935F
:100F7300A3C386F0C5F095F0F908E493A386F0C502
:100F8300F095F0700BE493A3C3994005E904800244
:100F9300A3E475F002A42582F582E5F03583F58399
:100FA300D0E0F9E493A3C0E0E493C0E022C0E0C33F
:100FB300E49396087401939618400FE493667008BF
:100FC30008740193661870007019A3A3C3E4939681
:100FD300087401939618A3A3400DD0E0D0E0D0E0AD
:100FE300020F14A3A3A3A3A3A3D0E0227404800439
:100FF30074028000CCC0E0EDC0E0E521C39CCCAD21
:101003002250011D10AF068C218D2280068C218D6C
:1010130022D2AF12113ED0E0FDD0E0FC2274028058
:1010230000CCC0E0EDC0E0E521C39CCCAD22500173
:101033001D10AF068C218D2280068C218D22D2AF0C
:1010430012111CD0E0FDD0E0FC221214E86025123E
:1010530014CA60201215567003021568080808E7C1
:101063006670101819E766700A1819E76670041895
:1010730019E76622F422C0E0C0F088F0E4936670BA
:10108300080874019366187000A8F0A3A3700BD02E
:10109300F0D0E0D0E0D0E0020F14A3A3D0F0D0E072
:1010A30022D083D082CCC0E0E493A3600612115F08
:1010B3001470FAE493A360061212BE1470FAD0E01F
:1010C300FCE493A3C0E0E493C0E022C0E074F21216
:1010D3000C89A2AFE433FED2AFE58BA2E0500579D1
:1010E300041217D5758B00C2E8EEA2E092AF7F0120
:1010F300020CE8C008C3E096F50808A3E09642088E
:1011030008A3E096420808A3E0964208A2D265D05D
:1011130033E5087001D3D00822CAC0E0E493A3C525
:1011230082CCC582C583CDC583F0A3C582CCC582DD
:10113300C583CDC583DAE5D0E0CA22CAC0E0E0A307
:10114300C582CCC582C583CDC583F0A3C582CCC57A
:1011530082C583CDC583DAE6D0E0CA22C0E0E4933A
:10116300A3D39C5010E493A3C39C400AD0E0D0E0E7
:10117300D0E00210C1A3A3A3D0E02270090808089D
:10118300226016181818C6C333C608C633C608C665
:1011930033C608C633C6D5E0EA22C008C3E096F5D5
:1011A3000808A3E096420808A3E096420808A3E0D3
:1011B3009645087001D3D00822C09FF59FE473D0F1
:1011C3009F22D083D082C09FE493C0E0740193C078
:1011D300E0740293F59F222521F58210AF08F521D3
:1011E300400C15228008F52140021522D2AF85223A
:1011F300832200C0D0252110AF08F521500C052211
:101203008008F52150020522D2AFD0D02274048089
:101213000A74038006740280027401C0E0F40412AD
:1012230011DAD0E012150422C0E0C0D0E8C0E0A873
:10123300A8D2AFC2C7E8A2E792AFD0E0F8D0D0D02F
:10124300E032BB0102E722C082C08389828A83BB6A
:101253000003E08002E493D083D082226016080862
:1012630008C6C313C618C613C618C613C618C613B2
:10127300C6D5E0EA222521F8E43522F9222521FA10
:10128300E43522FB222521FCE43522FD22C3E0C6FE
:1012930096F608A3E0C696F608A3E0C696F608A35A
:1012A300E0C696F622252110AF08F521400C152241
:1012B3008008F52140021522D2AF22C0E0E493A3B7
:1012C3006C7009D0E0D0E0D0E00210C1A3A3D0E05D
:1012D30022C3E7960809E7960809E7960809E796FF
:1012E300A2D265D03322E76670100809E766700A58
:1012F3000809E76670040809E76622C3E09608A3B5
:10130300E09608A3E09608A3E096A2D265D0332224
:10131300E066701008A3E066700A08A3E066700434
:1013230008A3E06622191919E70947097009E72795
:10133300097005E733F4220922181818E4C396F656
:1013430008E496F608E496F608E496F622C3E096D7
:10135300F008A3E096F008A3E096F008A3E096F067
:1013630022C3E697F60809E697F60809E697F60812
:1013730009E697F622181818E60846087009E626C3
:10138300087005E633F4220822C3E4939608740137
:1013930093960874029396087403939622E026F6B4
:1013A30008A3E036F608A3E036F608A3E036F622F3
:1013B300E627F60809E637F60809E637F60809E6E8
:1013C30037F622700422600D18C6C333C608C6332D
:1013D300C6D5E0F41822E657F60809E657F60809D9
:1013E300E657F60809E657F622E056F608A3E05654
:1013F300F608A3E056F608A3E056F622E026F00826
:10140300A3E036F008A3E036F008A3E036F022E0CC
:1014130056F008A3E056F008A3E056F008A3E05600
:10142300F022E493F608740193F608740293F60825
:10143300740393F622E647F60809E647F60809E639
:1014430047F60809E647F622E4C397F709E497F756
:1014530009E497F709E497F722600D08C6A2E7139A
:10146300C618C613C6D5E0F322C6F4C608C6F4C62A
:1014730008C6F4C608C6F4C622C3E09608A3E096DD
:1014830008A3E09608A3E09622C3E7960809E79627
:101493000809E7960809E7962275D00075813F751C
:1014A300215175220300020D97600C08C6C313C6B1
:1014B30018C613C6D5E0F422E6F008A3E6F008A3A5
:1014C300E6F008A3E6F022E7094709C31347093307
:1014D3006002E733F422E0F608A3E0F608A3E0F69F
:1014E30008A3E0F622E6084608C313460833600261
:1014F300E633F422800100E9F874FF28F90470F65A
:1015030022CAC0E0E6F0A308DAFAD0E0FA22E0F853
:10151300A3E0F9A3E0FAA3E0FB22E8F0A3E9F0A338
:10152300EAF0A3EBF022EAF0A3EBF0A3ECF0A3EDD7
:10153300F022E0FAA3E0FBA3E0FCA3E0FD22E5C771
:1015430054F84401F5C77901222521F582E43522B7
:10155300F58322E62618461846184622C2AF75D6EA
:101563009F02000022E72719471947194722121142
:10157300C55BE1031211C58AE1031211C590E203B1
:101583001211C5BAE2031211C50EE3031211C5E22B
:10159300E3031211C510E6031211C5BEE6031211CF
:1015A300C52BE9031211C5B0E9031211C5B3EC034E
:1015B3001211C5E7EE031211C523EF031211C57C07
:1015C300F0031211C58FF0031211C5CCF0031211F1
:1015D300C595F2031211C5C2DA051211C53EDB052A
:1015E3001211C571DB051211C59FDB051211C5DD93
:1015F300DB051211C51ADE051211C539DE051211FC
:10160300C57EDE051211C514DF051211C560DF05A5
:101613001211C5F4DF051211C5CDE0051211C5295C
:10162300E1051211C587E1051211C5FAE105121191
:10163300C53EE2051211C596E2051211C5B8E205D1
:101643001211C548E3051211C5D9E3051211C525C9
:10165300E4051211C551E4051211C592E4051211F6
:10166300C528E6051211C514E7051211C5EFE705F4
:101673001211C56DB9051211C501BA051211C5695B
:10168300BA051211C58EBB051211C518BC0512117E
:10169300C5A3BC051211C5DFBC051211C578BD0574
:1016A3001211C50DBE051211C5E0BE051211C5C24A
:1016B300C0051211C5B8C1051211C557C2051211D3
:1016C300C5ACC2051211C51AC3051211C526C6053C
:1016D3001211C550C8051211C551C9051211C58F84
:1016E300CA051211C59ACA051211C5E9AC06121131
:1016F300C515AD061211C530AD061211C555AD069F
:101703001211C5F5AD061211C59BAE061211C5C562
:10171300AE061211C5EEBB061211C5F3BB061211BC
:10172300C526BC061211C5CBFD031211C58AFE03E3
:101733001211C56FFF031211C57EB8061211C58FB2
:10174300B8061211C52DB9061211C538B906121102
:10175300C552B9061211C5F37F001211C5E5FF0585
:101763001211C5A7BA061211C5B7BA061211C5CC14
:10177300BA061211C532BB061211C57AB50612118B
:10178300C5FEB5061211C566B6061211C579A306C4
:101793001211C597A3061211C5CCA3061211C5F1E8
:1017A300A3061211C514A4061211C54FA4061211E3
:1017B300C57CA4061211C5C3A4061211C562A506F1
:1017C3001211C57FB7061211C506B8061211C50F4F
:1017D300B8061211C536B8061211C5C5FF0112119C
:1017E300C5ECA5061211C536A6061211C5CCA60670
:1017F3001211C552A7061211C584A7061211C59C62
:10180300A7061211C510A8061211C526A8061211A3
:10181300C539A8061211C543A8061211C538F90522
:101823001211C564F9051211C5CEFB051211C50EBF
:10183300FC051211C54AFC051211C55EFC05121107
:10184300C577FC051211C569FD051211C51CFE05FE
:101853001211C530FE051211C563FE011211C587B1
:10186300FE011211C5A0FE011211C5DEFE01121107
:10187300C50EFF011211C53BFF011211C5A1FF01E6
:101883001211C5A4FF011211C5AEFF011211C5BB90
:10189300FF011211C5D2A0061211C5F2A006121142
:1018A300C531A1061211C54FA1061211C56AA106C1
:1018B3001211C5D0A1061211C5DCA1061211C5393A
:1018C300A2061211C548A2061211C56CA206121176
:1018D300C52DA3061211C53AA3061211C54BA306C3
:1018E3001211C534BC061211C54CBC061211C578C1
:1018F300BC061211C5FA84061211C55486061211CC
:10190300C56286061211C57586061211C58A86063A
:101913001211C59F86061211C5B286061211C52E75
:1019230087061211C59387061211C529880612115D
:10193300C50289061211C51289061211C52189062D
:101943001211C50EBA061211C532BA061211C55AC2
:10195300BA061211C582BA061211C556A80612118B
:10196300C57DA8061211C59BA8061211C50AA906B2
:101973001211C5FF9D061211C5189E061211C5242A
:101983009E061211C5389E061211C5569E061211E7
:10199300C5609E061211C56A9E061211C57D9E067C
:1019A3001211C5039F061211C5789F061211C5A710
:1019B3009F061211C5F59F061211C544A006121108
:1019C300C55FA0061211C569A0061211C57AA0064B
:1019D3001211C5BDA0061211C59BBB061211C5C9C4
:1019E300E8051211C5F5E8051211C512E905121132
:1019F300C525E9051211C540E9051211C59AE90586
:101A03001211C5C8E9051211C5D8ED051211C53665
:101A1300EF051211C568EF051211C5CBEF051211C1
:101A2300C537F1051211C55FF1051211C574F10532
:101A33001211C584F1051211C5C4F1051211C506B1
:101A4300F2051211C516F2051211C510B1061211D5
:101A5300C52AB1061211C552B1061211C56BB106E2
:101A63001211C58FB1061211C5ADB1061211C5C44D
:101A7300B1061211C5F2B1061211C50DB20612114B
:101A8300C5C1BC061211C50F91061211C51F9106DF
:101A93001211C52492061211C55692061211C5865B
:101AA30092061211C5A992061211C5C0920612110F
:101AB300C5FA92061211C55F93061211C5A19306CA
:101AC3001211C5E893061211C51594061211C540EB
:101AD30094061211C5197E001211C5397E00121128
:101AE300C54D7F001211C5507F001211C574B40695
:101AF3001211C5AAB4061211C5C2B4061211C50447
:101B0300B5061211C514B5061211C558B506121142
:101B1300C562B5061211C546F2051211C589F20553
:101B23001211C5EEF2051211C50DF3051211C5AF61
:101B3300F3051211C5B8F3051211C509F405121105
:101B4300C532F4051211C53FF4051211C5B1F405F0
:101B53001211C53FF5051211C584F5051211C5BD56
:101B6300F5051211C522F6051211C54BF605121122
:101B7300C5C2F6051211C511F7051211C54EF705B9
:101B83001211C583F7051211C595F7051211C5A7E3
:101B9300F7051211C5C6F7051211C5CFF7051211C6
:101BA300C58BF8051211C5CEF8051211C50CF90540
:101BB3001211C5A1FF021211C544FE051211C5ABD6
:101BC300AA061211C5E1AA061211C529AB06121104
:101BD300C582AC061211C50080051211C526810508
:101BE3001211C56281051211C52083051211C54E5C
:101BF30083051211C5B885051211C5F885051211A3
:101C0300C59A87051211C53088051211C58A880542
:101C13001211C51A89051211C55E89051211C5A0D5
:101C230089051211C5058B051211C5858C05121185
:101C3300C5C68E051211C5F48E051211C5208F0578
:101C43001211C5298F051211C5868F051211C51FE3
:101C530090051211C53693051211C5BC93051211D7
:101C6300C57D7F001211C5937F001211C59D7F00B2
:101C73001211C59CFB021211C5B2FB021211C5560B
:101C8300FC021211C595FC021211C5B2FC0212111D
:101C9300C5E3FC021211C530FD021211C564FD0239
:101CA3001211C59FFD021211C594FF021211C57FC7
:101CB300B6061211C5DEB6061211C51CB7061211FF
:101CC300C55DB7061211C561B9061211C5CAB906B9
:101CD3001211C5EAB9061211C55EB3061211C51C6D
:101CE300B4061211C50080041211C50C8004121130
:101CF300C56E80041211C57880041211C5078104D2
:101D03001211C54381041211C53582041211C59203
:101D130082041211C52083041211C57183041211A8
:101D2300C5F183041211C5B785041211C5B1870427
:101D33001211C5B388041211C5E589041211C53BFC
:101D43008C041211C57D8D041211C5238E0412114A
:101D5300C5E192041211C5DE93041211C5749404F3
:101D63001211C5A494041211C54195041211C55E44
:101D730095041211C57E95041211C5EC9504121138
:101D8300C50996041211C53796041211C5D19704DB
:101D93001211C5F297041211C59898041211C5E0E7
:101DA30098041211C53E99041211C5DC990412114D
:101DB300C5419A041211C5AA9A041211C5E89A04DE
:101DC3001211C59A9B041211C5059C041211C54139
:101DD3009C041211C5B29C041211C5FD9D0412117D
:101DE300C58D9F041211C526A0041211C577A20444
:101DF3001211C5DCA2041211C50AA3041211C550A5
:101E0300A8041211C514AB041211C514AC041211A9
:101E1300C51B94051211C53B94051211C5EB96051C
:101E23001211C5A599051211C5549C051211C58837
:101E33009C051211C5B19C051211C5D79C05121141
:101E4300C51C9D051211C5B89E051211C5189F0525
:101E53001211C524A0051211C536A0051211C5EA39
:101E6300A0051211C5FBA0051211C5DAA1051211B7
:101E7300C5E6A2051211C56FA3051211C5EFA3058F
:101E83001211C5CEA4051211C504A6051211C5056C
:101E9300BD061211C5E397061211C5A298061211C9
:101EA300C50899061211C5B799061211C5CCCB0402
:101EB3001211C5FBCB041211C57FCC041211C5E26C
:101EC300CD041211C5CCCE041211C588D004121151
:101ED300C5ADD0041211C5FFD0041211C591D104B0
:101EE3001211C5DDD1041211C5F0D1041211C54D73
:101EF300D2041211C51AD3041211C58CD3041211C2
:101F0300C5C3D3041211C50CD4041211C5B4D5042E
:101F13001211C593D6041211C5E1D7041211C5C419
:101F2300D8041211C550D9041211C589D90412114C
:101F3300C5A8D9041211C5F3D9041211C513DA04C3
:101F43001211C5D0DA041211C5F3DB041211C54E08
:101F5300DC041211C594DC041211C59CDD041211BA
:101F6300C537E0041211C55DE0041211C5D8E004C1
:101F73001211C5FDE0041211C571E1041211C54F20
:101F8300E2041211C58DE2041211C517E304121104
:101F9300C530E4041211C533E4041211C53DE40451
:101FA3001211C547E4041211C563E4041211C5D527
:101FB300E4041211C50EE5041211C53AE504121129
:101FC300C561E5041211C585E5041211C5C0E50418
:101FD3001211C533E6041211C567E6041211C57167
:101FE300E6041211C5ADE6041211C5E2E6041211AE
:101FF300C501E7041211C57BBC061211C593BC06CB
:102003001211C5F67F001211C5FDAF041211C520D0
:10201300B0041211C57EB1041211C5C7B104121167
:10202300C533B2041211C591B2041211C594B2049E
:102033001211C5E5B2041211C55AB3041211C5EA4F
:10204300B3041211C5EDB3041211C56EB404121119
:10205300C5AFB4041211C5D4B8041211C57EBA04B5
:102063001211C5D2BA041211C561BE041211C59969
:10207300BF041211C56DC0041211C5D7C0041211DB
:10208300C501C1041211C5BAC2041211C59DC4040D
:102093001211C54CC5041211C5E9C5041211C5D4EA
:1020A300C6041211C53CC9041211C596CA04121103
:1020B300C504CB041211C5F7A6051211C5A1A705C6
:1020C3001211C50CA8051211C527A8051211C5A820
:1020D300A8051211C502A9051211C549A9051211B6
:1020E300C5A8A9051211C5BAAA051211C5E3AD0504
:1020F3001211C513AF051211C59BAF051211C5A46B
:10210300B1051211C556B2051211C522B30512113C
:10211300C5DDB4051211C57BB6051211C508B70597
:102123001211C52EB8051211C504D9021211C567C3
:10213300D9021211C5AFD9021211C5F3D902121176
:10214300C54EDA021211C5ABDA021211C5E6DA0284
:102153001211C568DB021211C5C2DB021211C540A0
:10216300DD021211C5B8DD021211C5D5DE0212114E
:10217300C5FDDE021211C550E0021211C561E00275
:102183001211C579E0021211C582E1021211C55F75
:10219300E2021211C55CE3021211C580E3021211BF
:1021A300C597E3021211C5B8E3021211C5DAE302BF
:1021B3001211C5F9E3021211C5D1E4021211C52BA4
:1021C300E5021211C5C2E7021211C51BE802121182
:1021D300C53AE8021211C52AE9021211C560E902E3
:1021E3001211C593EA021211C512EB021211C54E68
:1021F300EB021211C588EB021211C5F7EB021211A3
:10220300C5ACEC021211C584EE021211C591EF02A6
:102213001211C509F1021211C5FFF2021211C5759F
:10222300F5021211C54FF7021211C510F80212116F
:10223300C588F8021211C59FF8021211C596F9025A
:102243001211C58AFA021211C5F9FA021211C58ACE
:10225300D5031211C54896061211C5079706121128
:10226300C56F97061211C55289061211C5708906EA
:102273001211C5EBE0031211C5DA89061211C5016B
:102283008A061211C5198A061211C5318A0612115E
:10229300C5D38A061211C5158B061211C5388C06D3
:1022A3001211C5418C061211C54A8C061211C55371
:1022B3008C061211C55D8C061211C57E8C06121197
:1022C300C50080061211C53E84061211C54C840652
:1022D3001211C55184061211C586FE041211C50BD5
:1022E300DF031211C5299B061211C540B206121154
:1022F300C584FF051211C5D9CA051211C5E8CF055A
:102303001211C501AF061211C535BD061211C5372D
:102313008D061211C53CBB061211C54CBB0612112A
:10232300C50080021211C53280021211C59E8002BF
:102333001211C53981021211C5D881021211C51DAE
:1023430082021211C53F82021211C5588202121174
:10235300C57E82021211C5A082021211C5DE82025D
:102363001211C52283021211C54483021211C5A69C
:1023730083021211C56D84021211C5248502121144
:10238300C59685021211C56886021211C5B286026E
:102393001211C50587021211C56B87021211C5A55B
:1023A30087021211C5F787021211C5138802121191
:1023B300C53E88021211C5458A021211C5998B02C6
:1023C3001211C5BB8B021211C5EF8B021211C5107E
:1023D3008C021211C51F8C021211C52A8C02121114
:1023E300C5DA8C021211C5438D021211C5F08D029C
:1023F3001211C5288E021211C5EE8E021211C5FBF1
:102403008F021211C54590021211C5D49002121108
:10241300C53891021211C57391021211C5DF9302DF
:102423001211C53395021211C56C98021211C539E8
:1024330099021211C5C799021211C5F0990212111E
:10244300C5629A021211C5F69A021211C5549B0273
:102453001211C5469C021211C5689C021211C5C413
:102463009D021211C5DD9D021211C5F09D021211CC
:10247300C55F9E021211C56B9F021211C5789F02A0
:102483001211C5819F021211C559A1021211C57FF4
:10249300A2021211C58FA2021211C591A302121139
:1024A300C508A4021211C537A4021211C54CA50216
:1024B3001211C518A7021211C5F0AA021211C5FA0A
:1024C300AA021211C50EAB021211C518AB021211EA
:1024D300C522AB021211C52CAB021211C545AB02CA
:1024E3001211C54FAB021211C5C3AB021211C5CEF7
:1024F300AB021211C5F3AB021211C5FEAB021211EE
:10250300C54CAC021211C556AC021211C561AC0226
:102513001211C585AC021211C5A9AC021211C50571
:10252300AD021211C54BAD021211C568AD021211F5
:10253300C5E5AD021211C51CAE021211C55BAE0298
:102543001211C5A8AE021211C52AAF021211C5C3DA
:10255300AF021211C593B1021211C5F1B1021211EA
:10256300C50DB3021211C533B3021211C572B40201
:102573001211C598B7021211C5D9B9021211C5B506
:10258300BB021211C54BBC021211C572BE0212115D
:10259300C51EBF021211C553BF021211C5B8BF0237
:1025A3001211C5C2BF021211C5ECC1021211C5132B
:1025B300C3021211C553C3021211C5F9C30212118A
:1025C300C58AC5021211C513C7021211C533C7024A
:1025D3001211C58CC7021211C58EC8021211C5D8BB
:1025E300C8021211C528C9021211C512CA0212115A
:1025F300C587CA021211C5A1CB021211C51CCC0298
:102603001211C521CD021211C5CCCF021211C5EB97
:10261300CF021211C54CD1021211C50ED3021211F1
:10262300C562D3021211C51AD4021211C5C9D4024C
:102633001211C51FD5021211C5D5D5021211C56AD3
:10264300D6021211C5D6D6021211C510D702121125
:10265300C541D7021211C59DD8021211C5008003CE
:102663001211C53280031211C56980031211C552BC
:1026730082031211C53583031211C58D8303121111
:10268300C5C884031211C51485031211C53C880300
:102693001211C59E8B031211C5EB8C031211C58158
:1026A3008D031211C58D8D031211C5BF8D03121138
:1026B300C5418F031211C5DC90031211C584910328
:1026C3001211C5C791031211C52D92031211C54AE8
:1026D30092031211C57A92031211C5AF920312111C
:1026E300C57F93031211C52894031211C5AC960339
:1026F3001211C5CC97031211C5B598031211C53732
:1027030099031211C5569D031211C5939D0312110E
:10271300C5EB9D031211C51E9E031211C59F9E0397
:102723001211C5EC9E031211C5779F031211C5C97F
:102733009F031211C5A0A0031211C559A1031211C1
:10274300C5F4A1031211C50DA5031211C52DA603CE
:102753001211C5DAA9031211C5F8AA031211C5FB98
:10276300AA031211C52AAB031211C530AD0312110E
:10277300C509AE031211C53EAE031211C546AF0320
:102783001211C5FCAF031211C59DB1031211C5C2CD
:10279300B1031211C501B2031211C573B2031211B1
:1027A300C557B3031211C524B4031211C55AB60396
:1027B3001211C5CBB6031211C50BB7031211C56CA9
:1027C300B7031211C52FBB031211C51EBC0312118F
:1027D300C505BD031211C57DBD031211C53FBE035F
:1027E3001211C53DC0031211C555C0031211C569AD
:1027F300C0031211C5A1C0031211C5CFC00312112A
:10280300C556C2031211C561C3031211C5B3C30375
:102813001211C514C4031211C5C6C4031211C5EDA8
:10282300C4031211C5D1C5031211C582C603121107
:10283300C571C8031211C5A6C8031211C50EC90379
:102843001211C53DCA031211C5EFCA031211C520E7
:10285300CB031211C538CB031211C5C7CB03121119
:10286300C57BCE031211C553D0031211C56FD0031C
:102873001211C58BD0031211C559D1031211C53DD5
:10288300D5031211C51084011211C5488401121118
:10289300C52689011211C56C89011211C5B98A01B6
:1028A3001211C5248B011211C5AD8C011211C5BDC6
:1028B3008F011211C5D890011211C5EA9A011211A4
:1028C300C57D9B011211C5CF9E011211C5CB9F017E
:1028D3001211C526A0011211C570A1011211C55E06
:1028E300A2011211C5FAA4011211C56EA60112119B
:1028F300C5F1A6011211C5F4A6011211C569A701FC
:102903001211C573A7011211C580A7011211C5AB1E
:10291300A7011211C55BA8011211C554A901121117
:10292300C5FFA9011211C51DAA011211C536AA01BD
:102933001211C55FAA011211C581AA011211C5D6D0
:10294300AC011211C59BAD011211C5E0AD0112110D
:10295300C55FAE011211C50BAF011211C53DAF0129
:102963001211C591AF011211C5CCAF011211C513DC
:10297300B0011211C563B0011211C568B001121183
:10298300C5BCB0011211C5E8B0011211C5D1B10126
:102993001211C522B2011211C582B2011211C5DC96
:1029A300B2011211C577B3011211C5B6B6011211E6
:1029B300C5C8B7011211C542B9011211C552BC01F4
:1029C3001211C5F0BC011211C5E6BF011211C5A554
:1029D300C0011211C5E9C0011211C594C20112113F
:1029E300C5A8C2011211C5B2C2011211C5BCC201F0
:1029F3001211C5C8C2011211C5EDC2011211C5C61B
:102A0300C4011211C51BC5011211C525C50112113F
:102A1300C52FC5011211C5A4C5011211C5F3C50106
:102A23001211C504C7011211C551C7011211C55EA8
:102A3300C8011211C5A2C8011211C548C90112115A
:102A4300C53BCA011211C501CB011211C524CC012A
:102A53001211C542CD011211C52ACE011211C54270
:102A6300CE011211C599CE011211C5A3CE011211C7
:102A7300C5AECE011211C5CCCE011211C514CF01C2
:102A83001211C576CF011211C59DCF011211C5AF29
:102A9300CF011211C54AD0011211C57FD001121105
:102AA300C566D1011211C5ABD1011211C591D20175
:102AB3001211C5B8D2011211C53BD3011211C5AC15
:102AC300D3011211C535D5011211C561D6011211F9
:102AD300C524D7011211C5ECD7011211C576D8014F
:102AE3001211C59ED9011211C540DA011211C5BBDD
:102AF300DA011211C577DB011211C5C1DB01121115
:102B0300C51BDC011211C5F3DC011211C516DD0171
:102B13001211C5C9DD011211C5EBDD011211C55436
:102B2300DE011211C56AE0011211C562E101121141
:102B3300C526E2011211C558E4011211C5A2E40130
:102B43001211C5F2E4011211C556E5011211C5B8FF
:102B5300E5011211C5E6E5011211C50AE6011211DC
:102B6300C53FE6011211C570E6011211C5A3E601C6
:102B73001211C5F3E6011211C546E7011211C56B27
:102B8300E8011211C50BEA011211C566EA0112111F
:102B9300C58FEA011211C51CEB011211C58AEB01A5
:102BA3001211C598EB011211C5BCEB011211C5112D
:102BB300EC011211C52CEC011211C5DEEC0112114E
:102BC300C516ED011211C559ED011211C5BCED0178
:102BD3001211C5BEEF011211C5E8EF011211C5DFD5
:102BE300F0011211C5E9F1011211C599F201121197
:102BF300C50473001211C53C73001211C55D730047
:102C03001211C59F73001211C50174001211C50B77
:102C130074001211C51B74001211C55674001211F1
:102C2300C53678001211C5237A001211C5097C003C
:102C33001211C5A07C001211C5427D001211C5F509
:102C430038001211C5A039001211C54E3A001211F5
:102C5300C5543B001211C5743B001211C59D3C00C5
:102C63001211C5583E001211C5CB3E001211C56F9B
:102C73003F001211C57B40001211C5E6400012113E
:102C8300C52241001211C56541001211C5A04100C2
:102C93001211C5E241001211C57742001211C5F3AA
:102CA30042001211C5BD43001211C59A440012110E
:102CB300C53245001211C54C45001211C57C4500B3
:102CC3001211C5AD45001211C57346001211C5831B
:102CD30046001211C5D246001211C5DF460012117B
:102CE300C5E846001211C56647001211C5C2470068
:102CF3001211C50D48001211C52848001211C55301
:102D030048001211C57048001211C57C4800121109
:102D1300C5134A001211C52C4A001211C5B14A004D
:102D23001211C5C44A001211C5E34A001211C58726
:102D33004B001211C5084D001211C5BB4E001211F4
:102D4300C5514F001211C5544F001211C5C44F0095
:102D53001211C5E24F001211C57950001211C5C1FD
:102D630050001211C5C450001211C58A510012112E
:102D7300C5F751001211C51D52001211C5A852000A
:102D83001211C5C652001211C50C53001211C5C051
:102D930053001211C50A54001211C53954001211FF
:102DA300C59654001211C5CB54001211C5F7540037
:102DB3001211C50555001211C55255001211C5C295
:102DC30055001211C50B56001211C55756001211AA
:102DD300C58356001211C58E56001211C5AC56009C
:102DE3001211C59757001211C5A157001211C5DC66
:102DF30057001211C5EC57001211C54058001211AB
:102E0300C55458001211C58359001211C5985900B1
:102E13001211C5265A001211C56B5A001211C5F7BB
:102E23005A001211C5025B001211C5445C00121155
:102E3300C55F5C001211C5AB5C001211C51A5D00C1
:102E43001211C5535D001211C56D5D001211C5CD80
:102E53005D001211C56C5E001211C5B75E00121140
:102E6300C58761001211C53962001211C5A662003F
:102E73001211C5E664001211C5FE64001211C501EA
:102E830065001211C50D65001211C52165001211EF
:102E9300C52965001211C55C65001211C55F660086
:102EA3001211C5EC66001211C55C67001211C5DE74
:102EB30067001211C59F68001211C5BE6800121188
:102EC300C55F69001211C5BC69001211C5BF690055
:102ED3001211C5336A001211C5826B001211C58825
:102EE3006C001211C5136D001211C52E6E00121164
:102EF300C5F66E001211C5276F001211C54A6F0087
:102F03001211C5536F001211C5826F001211C51241
:102F130070001211C5C870001211C53D7100121165
:102F2300C5E471001211C55972001211C5907200E7
:102F33001211C5CE72001211C551E0031211C55F03
:102F4300D5031211C585FD031211C551FD031211DD
:102F5300C5FAFC031211C583FB031211C5D5FA038D
:102F63001211C5CBFA031211C5C1FA031211C55AC6
:102F7300FA031211C53FFA031211C59CF90312118A
:102F8300C59CF8031211C50DE0031211C5B48906DF
:102F93001211C5BAF7031211C5AAF5031211C577A9
:102FA300DE031211C517DE031211C5B8F4031211A3
:102FB300C556F4031211C5F1FD041211C5E7FD0452
:102FC3001211C57CFD041211C5B0FB041211C56EAC
:102FD300FB041211C57AFA041211C54EFA04121138
:102FE300C505FA041211C546F9041211C535F604D4
:102FF3001211C5EDF3041211C59DF3041211C53767
:10300300F3041211C5F6F2041211C528F2041211C9
:10301300C5C2F1041211C561F1041211C501F10415
:103023001211C59FEF041211C533EF041211C587A6
:10303300EE041211C582EE041211C5E7DD0312116D
:10304300C576EE041211C53BDD031211C5D4DA03B4
:103053001211C58BD7031211C5DFD6031211C54D4B
:10306300D6031211C507D6031211C541EE0412117E
:10307300C5D3EA041211C5D0EA041211C583EA04C8
:103083001211C5D2D5031211C571EA041211C56715
:10309300EA041211C536EA041211C531E80412110B
:1030A300C5BCDF031211C5A4E7041211C561BD0637
:1030B3001211C560E7041211C534E7041211C5FDEE
:1030C300FD011211C5D0FD011211C59DFD011211A3
:1030D300C575FD011211C516FD011211C5F6FC01DE
:1030E3001211C5C1FC011211C56DF9011211C555AB
:1030F300F7011211C53FF5011211C5BFF4011211F9
:10310300C56BF4011211C577F3011211C59FD503E5
:103113001211C51FF4011211C59894060000008016
:10312300FB000022E4738F000100211A87000100D5
:103133001F1A35000400E51925000200E9192600CD
:103143000200EB1927000200ED1928000100F7190E
:1031530029000100F819840004009B168600010071
:1031630017192A000100F9192B000100FA192C0084
:103173000100FF192D000800A9162E000100001AF6
:103183002F000100011A30000100021A3100010072
:10319300031A32000100B11633000100B2163400E5
:1031A3000100041A36000100B31638000100051AA5
:1031B30039000100FE19830002001D1A630001009B
:1031C300BE1664000100FB1965000100FC196D00C7
:1031D3000100BF1671000800A116660001001C1A49
:1031E300430001000D1A440002000E1A45000100BD
:1031F300101A46000200111A47000800B6164800CC
:103203000100131A4B000100141A04000100201AD4
:10321300A1000100241A37000100231A88000100CD
:10322300221A3C000100B4163D000100061A4900B1
:103233000200151A67000100C0164D000200171A9C
:103243004E000100191A4F0002001A1A3E00010035
:103253000C1A51000100081A52000100091A530008
:1032630001000B1A54000100B51600000000000015
:103273000000000020010A840000010020010C84EA
:103283000000020020010E840000030020010B84D3
:103293000000040042019682000005004201C38140
:1032A3000000060042017D820000070030010F8408
:1032B300000000404201D8820000FEFF2101088483
:1032C30003000000212382150300FEFF210108846F
:1032D300020400002905A7190204100229239719E3
:1032E300030400002905AD19030410002905AF19D3
:1032F300030414002801B119030410022B239919A4
:10330300050400002105AB190504100229239D19AA
:103313000D0400003905A1190D04020210238A19B6
:103323000D040302102389190D04040221238B19B0
:103333000D04050221238D190D0411F110239F198A
:103343002B0400003905B4192B0410022823A019FB
:103353002B04040221238F192B0405022123911925
:1033630000013636010100010201000103010001E1
:103373000401060605020000070100340801000FDE
:10338300090401010D0100FF0E08000017020000EF
:10339300190100FF1A0100011B0100FE1C010008B6
:1033A3001D0200001F010001200100012102000095
:1033B3002301000F24020000260100012701000859
:1033C300280200FF2A0100072B0102402C01000004
:1033D3002D0100012E0100012F0100FF30010B1D03
:1033E300310800003A0100083B01000F3C010001D5
:1033F3003D0100FF3E0400004204000046040000BB
:103403004A0400004E040000520400005604000069
:103413005A040000010371030103010301030103C3
:10342300010322030203010310030003000300034B
:103433000003000300030003420300032403060305
:1034430000030003040312032503230325032303BB
:103453000403040300030003000344030003000305
:1034630023030003650321003503810300030503E0
:10347300000300030003000325032303030071007B
:1034830030016000110070003102200350048000FD
:1034930010006100000014006300730072006200FA
:1034A30043000000130006000000000004001200A7
:1034B3000000000000000000040004003700370093
:1034C3003C02440000000000000000006500000012
:1034D30035008100000005000000830000000304A4
:1034E3007104020460041104700402040204010460
:1034F30002041004610400041404630473047204DA
:1035030062044304000413040604000400040404D6
:1035130012040004000400040004510464000004C5
:1035230000040004440400040004000400046504CF
:1035330000043504810464000504000483040004CA
:1035430003027102300160021102700201020202E1
:1035530002028002100261023A0041006302730218
:1035630072026202430200021302380000020002E8
:10357300040212020002000200020002040204021A
:10358300370037003C024402000239000002000207
:1035930065020002350281020002050282028302F3
:1035A3000002010171010101010111010101310158
:1035B300010101018001100161013B00140063015D
:1035C30073017201620143010001130106013D0110
:1035D3003500040112010001000100010001040192
:1035E3000401330133013C0144013201360000017F
:1035F300000165010001350081010001050182011F
:103603008301000136000100060000000F000000E6
:103613000000000000000000000003FFFF000004A2
:1036230003FFFF0000FFFF0FF4010005C4040320A4
:10363300000100000B000000000000000003010F68
:103643000000000000000000000000000000000077
:103653000000000000000000000000000000000067
:103663000000CF1DF91DD51D031DDB1DFF1DDB1D37
:103673000B1EE11D031DDB1DFF1DE71D031D0000C8
:103683000000ED1D031D0000000000000000F31DFD
:10369300031D000000000000000000000000000007
:1036A3000000000000000000000000000000000017
:1036B30000000000000000000000000000001300F4
:1036C30081201F0087201F808D200000E72001003C
:1036D300E72002002D20028027200300332004006E
:1036E300392004803F200500452006005120310089
:1036F30063203300692034006F2036007520FFFFFC
:1037030000000A000000020000000400000008009E
:1037130000001000000020000000400000008000B6
:103723000000000100000002000000040000000887
:10373300000000100000002000000040000001C154
:103743002806F12808EB280B0F29100F2602C7289B
:1037530005DF2807CD280CA9280DB528640524FF0B
:10376300000007ECFDFDFDECDCDCCCBCACAC9C9CB0
:103773008C7C7C6C6C5C5C5C4C4C3C3C2C2C1C1C36
:1037830003EAF5E5D5D5C5B5A59595858575756523
:1037930065555545453535252515150500160F0085
:1037A300000B150B020002220F3300000E0FD0D1C5
:1037B300D2D3D4D5D6D7D8D9DADBDCDDDEDF5A696C
:1037C30067426565416C6C69616E63653039000001
:1037D30000000000000000000000000000000003E3
:1037E3004D4C4651181A250502003C40423A3F3FD2
:1037F300392F473000011916181616182303003005
:103803003017181921301B1D1F303030161819209E
:10381300231A1C1E300C0E020B040B0A0708000FA0
:1038230002040201010101090200BE040AE80300C7
:10383300000000000003007F001A000100E80308F5
:103843000A0A051003030A0C091E081E1E0C28FF92
:1038530000040215033C180A10151000E4F0A3F04D
:10386300A3F0A32212385FF022901809124E6B12B4
:103873002CAB2212387A22E0F508E4F509F50AF5B3
:103883000B22E824FBF582E934FFF58322E82411B7
:10389300F582E439F583E022F5831238A122E0F5BD
:1038A30008A3E0F50922122F2774041211F57F08EB
:1038B300020F247401F090057CE0640F2274091256
:1038C30011F57F04020F24EA2413FAE43FFB122EBE
:1038D30055E9227905122E61740622A3A3E024F58B
:1038E300C3941322122F3390059C126E297A147BF2
:1038F3000022C082C0839017E8749FF0A3742CF059
:10390300A374B1F0A3742CF09017EC7487F0A37434
:103913002CF0A37481F0A3742CF0A374BDF0A374F2
:103923002CF0A374C3F0A3742CF0A374B7F0A374A6
:103933002CF0A3746FF0A3742CF09017F87493F029
:10394300A3742CF0A37499F0A3742CF0A3748DF0DA
:10395300A3742CF0A374C9F0A3742CF0901809126B
:10396300583A6009901809124E67121BD190180635
:1039730012518174081264D6A3F09018B2F0901813
:103983000BF07C0BFDF97A0C7B18121B237C0B7D4F
:103993000079007A177B18121B23024FDB74F7128E
:1039A3000C1D74F71212A8EAFEEBFF123A337405EA
:1039B30012529F7403F0123B4A1252812430FCE4EA
:1039C3003FFD8C82123A2B123A3F60081242587420
:1039D300FFF0A3F0EE242EE43F1C1CFD8C82F58344
:1039E300A3E0C0E08A828B83124F33D0E0123A3FC8
:1039F3008882898312576E2403F0EE1242621215F5
:103A03004C7403F0900591120FF374021212881292
:103A13003E2C1211F5E9F5087007EEFAEFFB122DB3
:103A23003BA9087409024271F583E08882898322E5
:103A3300EA123A382212597D3FF583221267561251
:103A4300528DE8F0A3E9126A2DE02274F0120C1DE6
:103A5300EAFEEBFF8C0C8D0D890B123B4AF58312AA
:103A63005295741012154CE0F508A3123A2DF0E8A4
:103A730024FFF582E9123E3EE508F0E824FEF582D4
:103A8300E9123E3EE50BF0900596E0C0E0E824FD28
:103A9300F582E9123E3ED0E0F0900595E0C0E0E803
:103AA30024FCF582E9123E3ED0E0F0741212154C6C
:103AB30012389D123885E509F0E824FAF8E934FF55
:103AC300F98882F583E508F0EE2404FCE43FFD88E1
:103AD300088A828B83E0F50E8C828D83E0250EC3EA
:103AE30095081267561250BB850C82850D83A3A3DC
:103AF300A3A3A3A3A3A3E064037009EE12526FF080
:103B0300A3E48003123E43123E4B7409F075080C84
:103B1300750918750A00780812121412622012111E
:103B2300F57508FF7509FF7808121218AC0CAD0D76
:103B3300123E2C1211F5E9F5087007EEFAEFFB12AD
:103B43002D3BA9080238B1EA2402FAE43FFB8A823A
:103B530022C082C083901828E0C3940840047407ED
:103B63008001E08A828B83F033333354F8F9024FB8
:103B7300DB74F0120C1D8A088B09890A8C0E8D0FD9
:103B8300750C00A2AFE433F50BC2AF901822804549
:103B9300123C76503D123C9064037036E50824F9DC
:103BA300F508E50934FFF5098E828F83A3A3E0248A
:103BB30005FCA3E03400FDAA08AB09121CC1E5080B
:103BC30024FFF508E50934FFF5097410250CF50CFD
:103BD300150A1240651271DEE50A6004EE4F70B0FB
:103BE300E50BA2E092AFA2AFE433F50BC2AF90189E
:103BF30022803E1257478882F5831249BB8508828B
:103C0300850983F08A828983123C87A3A3E0C0E0FD
:103C1300E50824FFF582E509123E3ED0E0F0E50811
:103C230024FEF508E50934FFF509050C150A1240D1
:103C330065123EB96021123C90640270F1123C7629
:103C4300EE40B01253B6A2E550E4850E82850F8391
:103C53007401F0E50A70D7E50BA2E092AF85088204
:103C6300850983E50CF0E50824FFFAE50934FFFB39
:103C73000238B1123C7CA2E622EE2411F582E43F25
:103C8300F583E022123C8B2212578CA3228E828F63
:103C930083A3A3124F37125E632274F0120C1D74B8
:103CA300F31212A8740312154CE9F0740212154CA6
:103CB300EAF08B0B852182852283E4F004121280C3
:103CC300122C51E9F890057BE0292437F508FA7B9B
:103CD30000121B358A0C8B0DAE0CAF0DEA4F70032F
:103CE300023E23EA2402F50EE43FF50FA808EA2872
:103CF300F8E43BF9850E82850F831247B790057B65
:103D0300E0F9FAC3E49AFA95E0FB850E82850F8306
:103D1300E02AF50CA3E03BF50D90057912389D756B
:103D23000A007808121214E9FC7D00AA0CAB0D12EC
:103D330051F11211F5AC21AD22740112154CE0F9C9
:103D4300E50C24FFFAE50D34FFFB122C578A828B16
:103D530083E4F0E50BC454F0F99018B3E0C43333B3
:103D630054C0F8900575E0A2E0E4331313484944C6
:103D73000FC0E0EA24FFF582EB123E3ED0E0F0EA0A
:103D830024FEF50CEB34FFF50D740312154CE0F82B
:103D9300740212154CE0C454F048850C82850D83DF
:103DA300F0A80C850E82850F831264A32AC3988E14
:103DB300828F83A3A3A3A3F0850E82850F83E8F0EC
:103DC300A3E50DF0123E43123E4BE4F0740C1215C2
:103DD3004CE4F0750817750918780812121412626A
:103DE300201211F5852182852283E06009EE240EDD
:103DF3001253B84408F0122E43E9F9E4F508F50923
:103E030078081212187406121288123E2E1211F537
:103E1300E97006EEFAEFFB800BEEFAEFFB121B3BA9
:103E23007A007B00740D0238AE7903EEFAEFFB12D1
:103E33002E5B740222EE24FFF582EF34FFF583221A
:103E4300EE123A38E4F0A322F0123E5022EE126151
:103E5300433FF5832274F2120C1D8A0C8B0DA2AF23
:103E6300E433F50AC2AF7508007509009018228083
:103E73002C1240755024850C82850D83A3A31262F6
:103E8300338E828F83A3A3124E67122E49E9600AF1
:103E9300124070C2E6F08E088F09124065123EB9D7
:103EA30070CFE50845096006123F52D2E6F0E50AF5
:103EB300A2E092AF800DE0FEA3E0FFEE4F2274027A
:103EC3001211F57F06020F2474F0120C1D8A0E8B5B
:103ED3000F8C0C8D0D750A00A2AFE433F50BC2AF46
:103EE3007E007F009018228010AE08AF09123F4A6F
:103EF3001253B6D2E7F0124E45124E596034123FB8
:103F030052A2E750F1850882850983A3A3120FF318
:103F1300AC0CAD0DAA0EAB0F122E4F74021211F59D
:103F2300E960D3EE4F60C21242EC7006123F64D2D6
:103F3300E4F0E50BA2E092AFEE4F6006122D35756B
:103F43000A01A90A0238B1123C7CD2E4F0EE22E560
:103F53000812615D3509F583E022AA82AB83121C46
:103F6300C18E828F83A3A3124F37E02274F2120C07
:103F73001D74FE1212A8750C00750D008521828533
:103F83002283E4F0A3F0A2AF33F50AC2AF90182264
:103F93001271DE802BEE24FBF582EF34FF12389B87
:103FA300780C1212181240531211F5EEFCEFFDAA11
:103FB30021AB22121B59AE08AF09901828E014F068
:103FC300EE4F602B124075501DEE240BF8E43FF9C1
:103FD3008882F583E024FFF0A3E034FFF088828930
:103FE3008312583A60AF8E0C8F0D12406580A1E5A5
:103FF3000AA2E092AF901828E0602C90057CE06460
:104003000F60069018B2E0701E7A007B18122F33EF
:10401300908404120FEF7A007B181250631211F58B
:10402300800574F0124F44AA21AB22121B5F8A0849
:104033008B09AE08AF09EA4F6013122C631240706C
:10404300A2E28E828F83A350D974E980D7023EC146
:10405300EEFCEFFD7A227B18121B6B7402228E0A90
:104063008F0BEE24FBF582EF34FFF58322EE123C37
:104073007D22123C7CA2E72274F7120C1DEAFEEBB0
:10408300FF122C63124F30123127E9640190059817
:10409300700AE02401F8A3E034008003124EB6F95D
:1040A3001255B81250BB901828E0701F90057CE0A1
:1040B300640F70177A007B18122F33908404120F49
:1040C300EF7A007B181250631211F5A8A8C2AF90C3
:1040D3001828E004F0E8A2E78004E508A2E092AF24
:1040E3000254C674F7120C1DEAFEEBFFEA12411CE0
:1040F300F0122C63EEFCEFFD7A227B18121B65A8ED
:10410300A8C2AF901828124A0A90057CE0640F7089
:10411300057908122DFB0254C6123C7DC2E42274B9
:10412300F7120C1D74EA1212A8EAFEEBFF90057554
:10413300E0602A8521828522837401F012154CE404
:104143001241D712154C123F5DC0E0740A12154C90
:10415300D0E01264C3740B12154C12572374160269
:10416300427174F7120C1DEAFEEBFF122C45E9F9BC
:1041730074DC69601E74DD69601974E46960147429
:10418300F369600F74DE69600A74DF69600574DBCC
:10419300697007EEFAEFFB122E010254C674F71290
:1041A3000C1D74EB1212A8EAFEEBFF852182852217
:1041B3008374061241D712154CAA82AB83121CC119
:1041C300EE2408FCE43FFD740A12154C12572374C5
:1041D30015024271F0EA2413FCE43FFD74022274D9
:1041E300F7120C1D74F71212A8EAFEEBFFEA243053
:1041F3001253B8605DEA12426212154C7403F090D8
:104203000591120FF3124258120FF39005A4E0F92F
:104213007404121288EEFAEFFB122C4B7404121181
:10422300F5E9F974DC69602374DD69601E74E4697F
:10423300601974F369601474DE69600F74DF696078
:104243000A74E869600574DB697007EEFAEFFB1224
:104253002E01023A26EE242EF582E43FF583221244
:104263006634AA21AB22121CC174082274031211F2
:10427300F50254C674F2120C1D8A0C8B0D750A00DC
:10428300750B007508E7A2AFE433F509C2AF9018C8
:10429300228003124061123EB9602512407550F32B
:1042A3001242EC70EEEE2432124483E06870E4783C
:1042B3000A1212181240531211F5901828E014F044
:1042C300E509A2E092AFEE4F6013EEFAEFFB122C7A
:1042D3006379F0EEFAEFFB122E01750800A908AA24
:1042E3000CAB0D122E01023EC6123E50E0640122B9
:1042F30074F4120C1D74F71212A8EAFEEBFF8A8203
:10430300F583A3E064F370030243918A828B83A352
:10431300E064DF60798A828B83A3E064E8606F8A5C
:10432300828B83A3E064DB6065122CA5E9F508703A
:1043330055EE240E1253B8604D12439B6048740827
:1043430012154C1243AA120FF37508FF7509FF7873
:10435300081212188E828F83A3A3A3A3A3A3A3A3DC
:10436300E0F97404121288122C4B74041211F5E94B
:10437300F50874F369600F74DF69600A74E86960B3
:104383000574DB69700F8E828F83A3E508F0EEFA64
:10439300EFFB122CB10238C0EE240FFAE43FFB7995
:1043A30009122CE7EA4B227402125C2974FFF0A372
:1043B3001243B722125777A3A32274F1120C1DEAFA
:1043C300FEEBFF7508008A82F583A3A3A3A3A3A32F
:1043D3001238DE40037508E88A828B83A3A3A3A364
:1043E300A3A3A3A3A3A3E0C3941040057508E88087
:1043F300138A828B83A3A3A3A3A3A3A3A3A3A3E04F
:10440300640F600B90188FE0540870037508E8EA96
:10441300240B124483A3A3A3A3A3A3A3A3E0C3983E
:10442300500DEA240B1253B8640F60037508E8902B
:104433000595E0F47003A3E0F470037508EC7A23A8
:104443007B00121BCB8B0BA90B90180912449260B3
:10445300278E828F83A3A3A982AA83890C8A0D75D1
:104463000E00780C1212147C237D00901809E0FAD8
:104473001251F11211F5800375081AA90802621B83
:10448300F582E43FF583E0F88A828B83A3A322EAD3
:10449300F0A3EBF0EA492274F5120C1DEAFEEBFFE0
:1044A3008A82F583A3A3A3A3A3A3A3A3E090057C7C
:1044B30012452AE0900597F0EA240B1253B89005B1
:1044C3007712452AA3E09018B3F0F91219859018D2
:1044D300B3E0600BEE24041253AA24061245209085
:1044E30018B21238B6600474018002740090180B7D
:1044F300126B6E1212147C0B7D007A0C7B18125116
:10450300F11211F5EE2418F508E43FF509780812C5
:1045130012147C0B7D007A177B180251DEFAE43FFC
:10452300FB79E112196D22126B58A3A3A3A3227482
:10453300F7120C1DEAFEEBFF8A82F583A3E07003FA
:1045430012386C1266DF0254C674F7120C1DEAFEB1
:10455300EBFF90180912583A6010901809124E6731
:10456300901809E4F0A3F0121BD18E828F83740894
:10457300124F4B1222C10254C674F6120C1D90182E
:10458300B2E0601090180BE0700A12459AEA4B6093
:1045930003122D3B0267D9900577E0FB900597E066
:1045A300FA90057CE0F9122C5D2274F4120C1D7450
:1045B300E71212A8EAFEEBFF750B018A82F583A3CB
:1045C300A3A3A3A3A3A3E0A2E25069EA242BF58249
:1045D300E43F126231EA2413FAE43FFB122C69E947
:1045E30070529082D6E064017005750B008045120D
:1045F300466C1212147C0B7D00741112128012513E
:10460300F11211F5122E43E9FA740E12127888088A
:10461300890978081212187508307509007808128C
:104623001218EE12648C120FF312662679011238F7
:10463300D81211F58521828522837410F012662623
:10464300740212154CAA82AB83121CB5EE242B12F2
:104653006E1F740B12154C1250BB740D12154CE5E2
:104663000B12689874190238C2EE2408126B762272
:10467300C082C0839018B3E06003122EB5024FDBF3
:10468300C082C0839018AA74E8F0A37417F0A374CF
:10469300ECF0A37417F0A374F8F0A37417F0901A56
:1046A300CF74E1F0A37434F0901894743FF0A374C2
:1046B3002CF090182D7475F0A3742CF090182F74AF
:1046C3007BF0A3742CF090188FE04402024ADFC001
:1046D30082C083EAFCEBFD79030257E6C082C08304
:1046E3007908026959C082C08374FE1212A8901817
:1046F300357423F0A3742DF0901837741DF0A37450
:104703002DF080077A227B18124744901822125802
:104713003A70F190182412583A60097A247B1812DF
:10472300474480EF901822E4F0A3F0901828F0A3F8
:10473300F0A3F0901843745FF0A3742DF07402801B
:104743001C121B5F852182852283EAF0A3EB1247AB
:1047530058122E3122F0AA21AB222274111211F524
:10476300024FDB74F6120C1DE9FF74EC29F582E4A9
:104773003437F583E493FEFA7B00121B35EA4B6072
:1047830007EA2E1247B480267A027B00121B35EA11
:104793004B601774022FF582E43438F583E4938A6F
:1047A300828B83F0A3741A124B7D7A007B0002671D
:1047B300D91250AAE8126753A3A3A3A3E4F022E9F2
:1047C300FC740629F8EAA2E0501EE875F00A84E5B5
:1047D300F0F96014740A28C399F8E9C394054004F6
:1047E300740A28F8740B28F8ECC394134004791462
:1047F30080027906E82979002409F85001097A0A28
:104803007B001209BBE8F90211C2C082C083901871
:104813008FE05402600A1222C7E960047901800222
:104823007900024FDBC082C08390188FE05402608E
:1048330014901828E0700A125837600912484D5036
:1048430004790180027900024FDB123890A2E7223B
:10485300C082C0839082D3E0F890182AE0C39850B6
:1048630005121B3580047A007B00024FDBC082C037
:1048730083122E317900024FDBC082C08374FE1293
:1048830012A8852182852283EAF0A3EB1249E6A3CD
:10489300A3A3A3A3E0600A14605724FE605A02494D
:1048A3005690057CE0640F6012122E07E9700C121B
:1048B3004E61901831124F331231279005A4E0C096
:1048C300E085218285228312575AD0E01249E6748B
:1048D30014126177FCA3E0FD7A247B18121B59A8FC
:1048E300A8C2AF90182A124A0A7920122DFB024758
:1048F30040124CB4741580D9124CB4A3A3A3A3E003
:104903006051124CB4123F68C0E085218285228336
:10491300E02406F582E43BF583D0E01261772402BC
:10492300F8A3E03400F98882F583E02401FAA3E0D8
:104933003400FB88828983EAF0A3EB126177124C7F
:10494300F485218285228360131249BB60051249D5
:10495300CD4048AA21AB22122E3180921249BB606E
:10496300F21249CD50211249DAFA85218285228338
:10497300A3E0C82406124CB0F8742212596F3438DD
:10498300F583E4936A60148521828522831249BBEF
:10499300640870BF1249DA640870B81249DA141255
:1049A30049EE240AC0E0852182852283124F33D049
:1049B300E01249EE040248D41249BF22124EB6C88F
:1049C3002406F582E438F583E0228521828522835B
:1049D3001249BFC3940A22852182852283123C8B0C
:1049E300A3E0221249F8F5838882221249F8C824E9
:1049F30006124CDE22F0852182852283124EB622D6
:104A0300A8A8C2AF901829E004F0E8A2E792AF2269
:104A1300C082C08390183912583A6008124CBB12F6
:104A2300312780027900024FDB74F7120C1DEAFE76
:104A3300EBFFEA123E517401125069F8A3E0F91238
:104A43003A331250BBEA24351253B8C0E0EA2413B8
:104A5300F582E43FF583D0E0F0EA24361253B8C080
:104A6300E0EA2414F582E43FF583D0E0F0EA243849
:104A73001253B8C0E0EA2418F582E43FF583D0E08E
:104A8300F0EA242FF582E43FF583120FF312663325
:104A9300EA24311253B8F9123E321211F5E9F5083E
:104AA3007007EEFAEFFB122D3BA9080254C6C08231
:104AB300C083122E07E96004792080027901024F36
:104AC300DBC082C083EA2411124AD5D2E0800DEA0A
:104AD300240DF582E43BF583E022F0A3F0024FDBE3
:104AE300C082C083124AD264017011124B77400C0A
:104AF3008A828B83A3E0F9122E018066124B68A28F
:104B0300E650128A828B83A3E0F9901833124F3355
:104B1300123127804D124AD26401700D124B775027
:104B2300088A828B83743080368A828B83A3E06405
:104B33001B8A828B83700474228024A3E0700D127D
:104B43004AD2F8740D12596F3438800B124AD2F8D6
:104B5300740212596F3438F583E4938A828B83127B
:104B63004B7D024FDB124B6C22EA2410F582E43BAF
:104B7300F583E022124B6CA2E322F090188AE0F94D
:104B8300121B412274F7120C1DE9FE1258377003F1
:104B9300024CADEE6014741B6E701AE81261433957
:104BA300F583E064057003024C8590182C124CBB0E
:104BB300A3E4024C8C74E96E7068E82412F582E475
:104BC30039F583E0700B1222CDE96005124CFE60CB
:104BD3006179EE1218EF90182B124CD590182B60B8
:104BE3003A124D0190182B700B124CD514F0121A77
:104BF300A5024CAD124CF3C2E7124E9C240D124C8D
:104C0300B064037009124CCE124E52D2E2F079ED29
:104C13001218EF124CE61231278078124CC174E956
:104C2300806774E16E703E1222CDE96055124CFE2E
:104C3300705090059EE0C0E0124CCE2412F582E441
:104C430038F583D0E0F090058DE0C0E090182B128A
:104C53004CCA124CCAD0E0F090058DE004F0790103
:104C6300121A8D8045741C6E701890182B124E67A3
:104C730090183B124F3312312790182BE4F0A3F016
:104C8300802890182B124CC1EEF090182B124E670F
:104C9300122D29124E7DE05480600312694890184A
:104CA3002BE4F0A3F07910122DFB0254C6124CDE54
:104CB30022852182852283A3E0F583888222124CF8
:104CC300C522124F3BA3221257882290182B12574A
:104CD30069221257692412124CDE22F582E438F558
:104CE30083E02290182B124E6B90182F124F37220D
:104CF300E0F8A3E0C82410124CDE2290182B124EC9
:104D030084E054042274F4120C1D750A00750B0020
:104D1300A2AFE433FEC2AF1258376003024DFB1259
:104D23004F30123127E94410F89018228009850882
:104D33000A85090B124E45124E597003024DFB12A0
:104D43003F52586870E8780A121218AC08AD09127D
:104D530040571211F590182BE508F0A3E509124E00
:104D63009C124E52A2E75003024E02901829E014FF
:104D7300F0EEA2E092AF90182BE0240EF8A3E034FB
:104D830000F9E8FEE9FF8882F583124E6790182B3D
:104D93001249E0F9122CEDE99018261264D68E829E
:104DA3008F83E054806018124CCE2413124CB0F958
:104DB3001219A9124CCE2414124CB0F912199D12D7
:104DC3004E7DA3E05401605F90182612583A604567
:104DD300124E936040124E93F87900901826124EAB
:104DE300671209C3E8C0E0124E71D0E0124EA1C3AE
:104DF300941340117402800FEEA2E092AF803790BB
:104E03001828024D717400C0E090182CE0C8124EAF
:104E13003CD0E0800D124E717401124E9C124E3C38
:104E23007401F07903800C90182B124CF3A2E1B3B8
:104E3300E433F9121A8D0238C5241AF582E438F5E1
:104E43008322E50824FBF582E50934FFF58322126A
:104E5300615D124CE1221238A1E508450922852142
:104E630082852283124E6B22E0FAA3E0FB221257C3
:104E7300662419F582E438F5832290182B124E84A8
:104E830022124EB6C8124E8C2212597D38F5832257
:104E93001257662418124CDE22124EAEC822124E4E
:104EA300AEF5838882A3A3A3A3E022F090182B126C
:104EB3004EB622E0F8A3E02274F7120C1DEAFEEBD3
:104EC300FF122E2B1253B5A2E3400A1242EC7005D7
:104ED3009082D180039082D2E0F9EEFCEFFD7A223A
:104EE3007B18121B71E96038EEFAEFFB901835124C
:104EF3004F33123127EE240E1253B854047012129A
:104F03004A03EE123A34A3E05401701E122D358089
:104F130019EEFAEFFB90182D124F33123127800A46
:104F23008E828F83A374F1124F440254C6901837B4
:104F3300124F3722124F3B22E0F8A3E0F583888219
:104F430022124F4B122D2922F0EEFAEFFB22024FD1
:104F5300D474F7120C1DEAFEEBFF790090188FE072
:104F63005402700CEA24331253B85404600279E8F3
:104F730090188FE05460700CEA24331253B8540233
:104F8300600279E88A828B83A3A3A3A3E0F89082CB
:104F9300D7E0C398500279E8EA24311253B8700C71
:104FA300EA242E1253B8700479F5800BE9700512C8
:104FB3002D17E9F9E96007EEFAEFFB122E0102540F
:104FC300C6C082C0838A828B83740DF01222C18093
:104FD30007C082C083122D35D083D0820211C274E0
:104FE300F4120C1DEAFEEBFF8A82F583E4F0A312B0
:104FF300506954049082D17012E0F8901829E0C3EC
:1050030098401279F1122E010238C5E0F890182861
:10501300E0C39850EE12506FA3E054016037EA24C6
:10502300371253B8C394054033EA24331253B854A8
:105033000570297A3D7B18122F33EE2437F582E46D
:105043003FF58312387678081212107A3D7B1812D6
:1050530050631211F5EEFA125A6080AC79E880A51C
:10506300122F27740422F012506FE022EA2433F542
:1050730082E43FF5832274F6120C1DE9FE2451FAF3
:10508300E43400FB121B35EA4B6015EE8A828B83F6
:10509300A3A3A3A3F0EA24511250AA1250BB800485
:1050A3007A007B000267D9F8E43BF98A828B83A3F9
:1050B300A322126E29901907E8F0A3E9F022024F08
:1050C300D4C082C0839018467489F0A3742DF0A3D2
:1050D30074B9F0A3742DF0A3748FF0A3742DF0A30F
:1050E3007495F0A3742DF0A374B3F0A3742DF0A3FF
:1050F30074A7F0A3742DF0A374A1F0A3742DF0A3EF
:1051030074BFF0A3742DF0A374C5F0A3742DF0A3A2
:1051130074CBF0A3742DF0A374D7F0A3742DF0A374
:10512300749BF0A3742DF0A37483F0A3742DF0A3E8
:10513300747DF0A3742DF090186274ADF0A3742DF8
:10514300F0A374D1F0A3742DF0A374EBF0A3742E29
:10515300F0A374DDF0A3742DF0A374E3F0A3742D16
:10516300F0901886E4F0901889F09018721251812B
:105173007402F090187B1251817401024ADF74FBB0
:10518300F0A3742DF0A32274F5120C1D74F1121206
:10519300A88521828522837402F0740112154CE9DB
:1051A300F060047AFF7BFF740212154C125C1E75CB
:1051B300087E750918750A0078081212147C0B7D95
:1051C30000740712154CAA82AB831251F11211F528
:1051D300AA21AB221222C1740F80031251F11211C2
:1051E300F57F03020F247C0B7D007A7E7B18121B54
:1051F3001774032274F7120C1D74FD1212A8852173
:1052030082852283740AF0740112154CE9F074024A
:1052130012154CEA12689802426F74F6120C1D7450
:10522300F71212A8EAFEEBFFEA12526F12529F74B2
:1052330002F0EA2428FCE43FFDAA21AB22121CB5AC
:10524300EE2431125275243312629712121874022B
:1052530012128879831A1A123E301211F5E9F508F1
:105263007007EEFAEFFB122D3B0267D2123A387445
:105273000122F582E43FF5831238A112573FF583EB
:1052830012528DE8F0A3E9F0EE221252958A828B36
:105293008322E024FFF8A3E034FFF922F0A3E4F033
:1052A300EA123E512274F0120C1D126D071214D92A
:1052B3007808790C120AB678081212107A757B18DE
:1052C3000238A974F4120C1D74C61212A890057C3E
:1052D300E0640F600D852182852283742E125C3D6C
:1052E30080227A6C7B181238E71209C3880889096F
:1052F300E4F50AF50B78081212107A6C7B18125039
:10530300631211F5743A0238C274F5120C1DEAFEE9
:10531300EBFF8A82F583A3E0F87078EA2430125316
:10532300B864026007E06403600278E8EA2426F5C3
:1053330082E43FF5831238E0400478E88058E8704F
:1053430052EA2426124520EE24311253AA243012A5
:1053530053B86402700EEE2428126E1F90058B1250
:1053630050BB801790058B74FEF0A304F0EE242845
:10537300FCE43FFD7A827B05121CC1EE241B12461E
:105383006F1212141251E91211F5EEFAEFFB122DFE
:1053930077E9F8E8600EE88E828F83A312663B7488
:1053A300171266E50251E4FAE43FFB795012196DD6
:1053B300EE22EE2410F582E43FF583E02274F61228
:1053C3000C1D74F71212A8901889E070377401F05D
:1053D300F9121A57AA21AB22122E3D75087E7509C0
:1053E3001878081212187508017509007808121246
:1053F30018900591120FF374061212887A0312386B
:10540300D61211F50267D474F7120C1D1255E6700B
:1054130004A374EBF0901889E0A2E25003C2E2F017
:10542300E0A2E150051255F780098E828F83742A1A
:105433001266E50254C674F4120C1D74FE1212A80F
:105443001254EC125732EC85218285228312578144
:10545300E0F50B7015AA21AB22795312196DEE24D6
:1054630013FAE43FFB794A12196D12466C121214B7
:105473001251E91211F5124E61A90B122D6B9018FE
:1054830089E0A2E150031255FE901889E4F07402FA
:105493000238C274F7120C1DEAFEEBFF8A82F58311
:1054A300A374EBF0901889E0A2E150077A0079EB3E
:1054B300122D71EEFAEFFB122DA78007EEFAEFFB28
:1054C300122EA97F01020F2474F7120C1D1254EC43
:1054D300901886E4F0901889F07AFF7BFF8E828F14
:1054E30083A3E0F9122D6B80DA1256377A757B1895
:1054F300122F332274F7120C1DEAFEEBFF122DA1BB
:1055030080BA74F7120C1D125674A3A3A3E06004AF
:105513007400800274EB1255455003C2E2F0E0A21E
:10552300E150051256488011A2E0500D8E828F8300
:10553300742AF0A374EB1266E5EEFAEFFB122D4D1D
:1055430080818E828F83A3F0901889E0A2E2227477
:10555300F6120C1DEAFEEBFF901889E0D2E1F07918
:1055630001121A578E828F83A3E07038122E43E9FB
:10557300FAEE240DF508E43FF509780812121875C0
:10558300080175090078081212181255B8120FF3A2
:10559300EE2402FCE43FFD1238D61211F5E98E82A7
:1055A3008F83A3F08E828F83A3E060067A00F912C3
:1055B3002D710267D9EE240BF582E43FF583227443
:1055C300F7120C1D1255E67004A374EBF0901889C2
:1055D300E0A2E25003C2E2F0E0A2E150031255F769
:1055E3000254C6EAFEEBFF7901121A5D8E828F83A5
:1055F300E0642022C2E1F01255FE227A008E828FEF
:1056030083A3E0F9122D712274F7120C1D12563781
:105613008E828F83A3A3A3A3E0600474008002742B
:10562300EB1255455003C2E2F0E0A2E150031256DB
:105633004802553CEAFEEBFF7901121A5D7A6C7B56
:1056430018122F3322C2E1126B69E0A2E4E433FAA9
:105653001256002274F7120C1D12567474EB125575
:105663004A5003C2E2F0E0A2E150031255F702549C
:10567300C6EAFEEBFF7901121A5D8E828F83A322A5
:1056830074F7120C1D1256990254BF74F7120C1DB5
:105693001256990254C6EAFEEBFF7A6C7B18122F5E
:1056A30033EEFAEFFB122DCB2274F7120C1D74EFBD
:1056B3001212A8EAFEEBFFEA1266277A827B051232
:1056C3001CAFE960568521828522837409F0740139
:1056D30012154C74EFF0125732740212154CEC127F
:1056E3005781A3A3E0C0E0740412154CD0E0125715
:1056F3006E640870158E828F83A3A312575AE0C07D
:10570300E0740512154CD0E08006740512154CE4C4
:105713001264C3740612154C12572374110242719A
:10572300AA82AB83122E73AA21AB221222C12212A8
:10573300573FF583125751FCA3E0F922EE12574766
:10574300FB8882222402F8E43FF9E8FAE922124EA8
:10575300B68882F583E0221257692407F582E4387C
:10576300F5832290182B124EB6C8221257722212BA
:105773005777E022F08E828F83A3A3A3A32212671D
:10578300531257882212578C22E0F8A3E0F583883E
:1057930082A3A322C082C083122EB5024FDBC08234
:1057A300C0839018A67446F0A37418F0A37462F033
:1057B300A37418F0901AC974A5F0A37435F0A374F8
:1057C30043F0A37435F09018927465F0A3742DF030
:1057D30090188FE04401024ADFC082C083EAFCEBE9
:1057E300FD7902122E19024FDB74F6120C1D74FEA2
:1057F3001212A890188B12583A60077A8B7B1812F2
:105803002E31901891E4F0900D0112583A602080E7
:1058130007AA21AB22122E3190188AE0F9121B4DF0
:105823008B09A90985218285228312449270E2742F
:10583300020267D690182B126E29E8492274F712D8
:105843000C1DE9FA7B0090188AE0F9121B770254C9
:10585300C674F7120C1D74F01212A8EAFCEBFDE9F2
:10586300FE8A828B83E0F8741812596F3438F583FB
:10587300E493C0E0740112154CD0E0F0640B700D9A
:10588300E98A828B83A3F0122E9702596AE0700390
:1058930002596A640C600302595B741A6E700B74CC
:1058A3000412154CE4F0A302595A740412154C1255
:1058B3005C1EEA2432126127C0E0740312154CD037
:1058C300E0126B54121511740612154C12151D8C2F
:1058D300828D83A3A3A3A3A3A3A3A3A3126E25745F
:1058E3000A12154CE8F0A3E9125974E05410600948
:1058F300852182852283E48013EC2412126127F828
:1059030090059EE0C398852182852283F0E0C0E064
:10591300740C12154CD0E0F0EC2415126127C0E092
:10592300740D12154CD0E0F0EC2416126127C0E080
:10593300740E12154CD0E0F0EC2417126127C0E06E
:10594300740F12154CD0E0125974A3E0540160088F
:10595300740112154C7411F0740212154CEEF074AC
:10596300011212801222C1741002427128F582E4DE
:1059730022F0EC12597D3DF58322240EF582E422B8
:10598300C082C083901891E064037004790180029F
:105993007900024FDB74F7120C1D901891E0125A34
:1059A3001374C728F582741A39F583125EA5C2E70A
:1059B300F0125A1AA3E493FE25E0FCE433FD74C706
:1059C3002CF582741A3D126231EC4D6005EE90188D
:1059D30091F08A828B83E025E0FCE433FDE82CF52B
:1059E30082E93DF583E493FCC4540F25E0F874A0E9
:1059F30012596F3418F58312583A7005122E8580A8
:105A03000CEC540F125A1A124F331231270254C698
:105A130025E0F8E433F92225E0FCE82CF582E439AB
:105A2300F5832274F2120C1D74FE1212A8890B8ADC
:105A3300088B09125AC5125AB6601A1264D0F50AB5
:105A43007808121214125AD224021262271211F584
:105A5300125A5E8003125AE4023EC1AA0CEFFB9075
:105A6300188AE0F9121B412274F0120C1D74FE1205
:105A730012A8890B8A0E8B0F125AC5F508125AB653
:105A830060271264D0A808EA281247B4850E088557
:105A93000F09F50A7808121214125AD2126225124B
:105AA30011F5125A5E79008005125AE4791A7402CC
:105AB3000238AEFA7B00121B358A0C8B0DAF0DEA50
:105AC3004F2274E129F582E43437F583E49322A865
:105AD3000B74F712596F3437F583E493FC7D00EAB6
:105AE30022852182852283E50BF0791AAA21AB2234
:105AF300122E0122C082C083E990188A024ADF7401
:105B0300F6120C1D74FE1212A8EAFEEBFFEA5420F3
:105B130070308039A8A8C2AF90182AE014124A0C3A
:105B23008A828B83125C0B90188D125C1E122E0DD1
