:020000040000FA
:060000000214390208762B
:030013000209CC13
:03002B000211F5CA
:0300330002107E3A
:03003B00020A2195
:030053000207ABF6
:1000830002080A0100F0FF0700080000FFFF00005C
:100093000504000000030001FF18102700000020E2
:1000A300FD000206FFFFFE0400000004E5C6FE0695
:1000B300001F0000AC03FE06001F00B4AC741E0357
:1000C30000770160176617B41D00000000000000F0
:1000D300000000000000000000000000000000001D
:1000E300000000000000000000000000000000000D
:1000F300000000D21D00000000000000000000000E
:100103000000000101E803D00732006400DC009422
:1001130002000000000000000000000000000000DA
:100123000000000000000000000000FF00000000CD
:1001330000000000000000000000000000000104B7
:10014300010C0002071E8200000001040000861556
:10015300000000E8030000FFFFD71588130000E844
:1001630003000064006400B801A0BB0D00A0BB0D38
:10017300000202020704010A1E02051E020A0A0106
:100183000108080103B80B02803E0102FEFFE803E9
:100193000A050001FFFF020A011401E00100B04259
:1001A3003BAAB83F0000003F8C906339AA0CA33AE6
:1001B30000941E3C8042633DCFFE753E1572313F75
:1001C3000000803FF304353F8096184B000080BF4A
:1001D3002292D43EDD9B2A3F04000040FFFF7F7F35
:1001E300FFFF7FFF010080341872313F05030101D7
:1001F3000F8A30000000005E2F00000000FF0000A7
:1002030000FF001214676046121485603DE96870B0
:1002130008F618F618F618F622748067F712023AF1
:10022300090909748067F722121485601D12146787
:100233007005191919801A121314701F121328C389
:100243007003E667331919194007181818220808AC
:100253000874FFF618F618F618F62212132860171A
:10026300121505702192F01214F37019501720F033
:1002730014080808090909E7F61819E7F61819E731
:10028300F61819E7F6221214F360E6E869701F08FE
:1002930008E62480F608E436F618547FB47F0CE6AB
:1002A30054806007F6E418F618F622181822E9C6F7
:1002B300CC08C6CD08C6CE08C6CFC0E0E8C0E0EA89
:1002C300C0E0EBC0E009E9F809E7FA09E7FBE6F962
:1002D30018E6F8C3EC98ED99EE9AEBC2E7F5F0EF68
:1002E300C2E795F0500E600CEBCFFBEACEFAE9CDF6
:1002F300F9E8CCF8EAA2E7D2E7FAEB33FB13F5F01F
:10030300EEA2E7D2E7FEEF33FFC5F013A2E730E634
:1003130001B313C5F0C3C0E0C0F07F00C39BFB6013
:100323005E9418600F401D14601AD0E023F9D0E0EA
:10033300F802040C8AF0E9486003D2F0E4AFF0FA63
:10034300F9F8803BEB30E40D89F0EA6003D2F0E486
:10035300AFF0F9CAF8EB30E30D88F0EF6002D2F0AA
:10036300AFF0E4CAC9F8EB54076014FBC3EA13FA0D
:10037300E913F9E813F8EF135002D2E0FFDBEDD0F5
:10038300E0C0E030E739C3E49FFFF5F0EC98FC42AE
:10039300F0ED99FD42F0EE9AFE42F0D0E0F9D0E0A4
:1003A300F8E5F0607AE923F9EE20E742D8028067A6
:1003B300C3EF33FFEC33FCED33FDEE33FE80EAECA9
:1003C30028FCED39FDEE3AFED0E023F9D0E0F84009
:1003D30002801BC3EE13FEED13FDEC13FCEF135071
:1003E30002D2E0FF08B800067F7F74FF802EEF3350
:1003F30050178CF020F00260100CBC000C0DBD00F7
:10040300080EBE000408E860DFE933E813FFEE23BB
:1004130013FE4F4D4C8008E95480FFE4FEFDFCEED3
:1004230033EF33F47004FCFD7E80D0E0FBD0E0FAC0
:10043300D0E0F8D0E0CFC618CEC618CDC618CCC6CB
:10044300F922121485700418181822121467700DFB
:1004530074FFF61819F61819F61819F622E75480DE
:1004630066F61214F3700F12150570F014F608F601
:1004730008F608F680D1121505700CF608F6087612
:100483008008E6447F80EC12132B700C1213176064
:10049300BFE65480F6E480BB1213177005191919CF
:1004A30080A5E869700C763F18768018F618F6E890
:1004B300F922E6CDC0E018ECC0E0E633CD33CDD36E
:1004C30013F6E719FCE7191933CC33C3947F400EB5
:1004D300CD9D502408E65480F6E418F6800FF4040A
:1004E3003D14501408E6447FF6187680E418F61895
:1004F300F6D0E0FCD0E0FD22CCD313CCFD18E4C64B
:10050300CBC0E018E4C6CAC0E00808ED08C633E66D
:1005130013F618E433C675F003C3CA97CA09CB9719
:10052300CB199C40047D08802EBD00030205EE1606
:10053300B6FF050606081618C3CA33CACB33CB3336
:10054300CA27CA09CB37CB193CC37D08803E187D27
:100553000820E75CC633C6CA33CACB33CB33DDF1DD
:10056300D5F0EB30E77BCA97CA09CB974ACB199CE6
:10057300406F4B7025E620E0218066187D08C3CAD2
:1005830097CA09CB97CB199CD3C633C6CA33CACBF8
:1005930033CB3350C9DDE7D5F0E1D3E4C636C60823
:1005A300C636C608C636C608C636C61818188031F9
:1005B300C3CA97CA09CB97CB199CB34097C633C616
:1005C300CA33CACB33CB33DD34D5F02EC6A2E0C653
:1005D30040C8CA27CA09CB37194A70BECB3CB4807E
:1005E300B90808E63308E633601F181818D0E0FA94
:1005F300D0E0FBD0E0FCD0E0FD22187D08CA27CA7A
:1006030009CB37CB193CD3808013F618E4B67F119E
:10061300F618B6FF0EF618C60470D2080876808066
:10062300CAF618F618F680C500121485604F121426
:10063300676012E7548066F61213147011121505E1
:10064300703B090909F4F618F618F618F622121386
:100653002870151214F308080860EAE6447FF618B8
:10066300768018E4F618F6221214F36016121505B4
:100673007012E4F608F608F608E65480F60909094C
:1006830018181822EAC0E0EBC0E0ECC0E0EDC0E0CF
:10069300E687F0A4FBACF008E687F0A42CFCE43575
:1006A300F0FA1809E687F0A42C4B60027401CA35EE
:1006B300F0FCE433FB09E687F0D2F7A42CCB35F04A
:1006C300FC1908E687F0A42BCC35F0FBE433FD08D6
:1006D30019E687F0D2E7A42C4ACB35F0CD3400FCE1
:1006E30009E687F0D2E7A42DCC35F0FDE433FA090F
:1006F30018E687F0D2F7A42CCD35F0CA3400FC08F5
:10070300E687F0D2E7D2F7A42ACC35F07A7E20E749
:100713000B0ACB33CBCD33CDCC33CC33CB335014CB
:100723007004ED30E00ED2F1E4CD3DCDCC3CCC3BBA
:100733005005DA05C2F1EB547FC63308E63392F075
:10074300FBE73309E733C39A502D2B70190C0D4C7B
:100753004D70151806E608C333700D20F10AA2F098
:1007630013F6E418800B4024E4F630F00276801888
:10077300F618F618F68024D33B14501074FFA2F039
:1007830013F6187680E418F618F6800FA2F013F625
:1007930018E63303F618ECF618EDF6D0E0FDD0E0DA
:1007A300FCD0E0FBD0E0FA22C0E074F1120C39A2D5
:1007B300AFE433F509D2AF85A708AFA1EF5508FE23
:1007C30074105E600612182C75A1EF74085E600841
:1007D30012183275A1F78024EFA2E092F0E508A287
:1007E300E082F05017906198E0F8900714E0C39806
:1007F300A2D265D0335002E8F075A1FEE509A2E06C
:1008030092AF7F02020C98C0E074F2120C39A2AFCF
:10081300E433FED2AF9061A4E0F8759B00E59158F4
:10082300540860087591F71218808023E591585495
:100833001060087591EF1218868014E591A2E0927A
:10084300F0E8A2E082F05007E0C2E0F01219D09085
:1008530061A3E0F8E5E9585404600E1219A675E99E
:10086300FB906193E0A2E640F2EEA2E092AF7F013B
:10087300020C98C0E074F2120C39A2AFE433FED23A
:10088300AF9061A5E0F8E5BF585404600675BFFB5F
:100893001219E880D4C3E498F8E499F91208D980CE
:1008A30026C3E49AFAE49BFBE920E7E91208D9E4BA
:1008B30098F8E499F922C3E498F8E499F91208D96D
:1008C300E498F8E499F9C3E49AFAE49BFB22EB2059
:1008D300E7CFE920E7E0B90010BB0008E88AF0841D
:1008E300F8AAF022E4FBC8FA22EB70227B10C8338B
:1008F300C8C933C9335007C39AC3DBF280069A5081
:10090300012ADBEAC833F4C8C933F4C9FA2275F003
:1009130008E4C833C8C933C933C99AC99B5004C949
:100923002AC93BD5F0ECFBC833F4C8E4C9FA221258
:10093300097D30F0391209C2803412097D20F01488
:1009430030E72B74FFFCFBFA747F8022E4FCFBFA94
:100953007480801AB48008BC00F2BB00EF800F5093
:10096300EBF9E4C39AFAE49BFBE49CFCE499C6CC60
:1009730018C6CB18C6CA18C6F922E4C9C608CAC61F
:1009830008CBC6D3330308CCC63392F0C3947F405D
:100993002E94184019C9B90704CACBCC225025C3D9
:1009A30009CA33CACB33CBCC33CC33D9F422F4606A
:1009B3000DC9CCC313CB13CBCA13CAD9F6CC22E4CB
:1009C300FCFBFA2214FCFBFA22C0E0C0D0E8C0E032
:1009D300E9C0E0C082C083A8C1E8C0E0900681E01E
:1009E300F8740028F582E43406F583D0E0F090062D
:1009F30080E0F8A3E0687006E595900683F0900622
:100A030081E004F0C394804002E4F0A374C6F0D004
:100A130083D082D0E0F9D0E0F8D0D0D0E032C0E08B
:100A2300C0D0E8C0E0E9C0E0C082C083900704E022
:100A3300F8A3E0687008539AFBA374018022C2E90B
:100A4300900704E0F8740128F0748428F582E434F4
:100A530006F583E0F5C1900704E0C394804002E407
:100A6300F080AC080808EAC0E0EBC0E086F0E7A439
:100A7300FA180986F0E7A42AFA180986F0E7A42AE7
:100A8300FA180986F0E7A42AFA1986F0E7A4FBE529
:100A9300F02AFA190886F0E7A42BFBE5F03AFA19D5
:100AA3000886F0E7A42BFBE5F03AFA18180986F05C
:100AB300E7A4C5F02BFBE43AFA1908E7C5F0C6A48E
:100AC30026F6E5F03BFBE43AFA1886F0E7A4F6E5F0
:100AD300F00826F6E43B08F6E43A08F6D0E0FBD04B
:100AE300E0FA22080808E630E7111212EC120AFEB7
:100AF300080808C64480C618181822181818E97977
:100B03009EC608CAC608CBC608CCC6C37020799651
:100B1300CACBCC7019798ECBCC70137986CC700E7E
:100B2300F9802ACA33CACB33CBCC33CC331930E761
:100B3300F2CCCBCA3350147004EA30E00DE4CA3A65
:100B4300CACB3BCBCC3CCC500209C3E913C6CC186F
:100B53002313C6CB18C6CA18C6F922E4CFC0E0E4F3
:100B6300CEC0E0E4CDC0E0E4CCC0E075F020E626E2
:100B7300F608E633F608E633F608E633F6181818EF
:100B8300EC33FCED33FDEE33FEEF33FFC3EC97099B
:100B9300ED9709EE9709EF97191919400FFFEC9795
:100BA300FC09ED97FD09EE97FE191906D5F0BFEC88
:100BB300F709EDF709EEF709EFF7191919D0E0FC7A
:100BC300D0E0FDD0E0FED0E0FF222521C582C0E0C9
:100BD300E52234FFC583C0E0E521C3958224F810E4
:100BE300AF0885832285822180088583228582211F
:100BF300D2AFCEF0A3E520F0A37808E608F0A3DE99
:100C0300FAEFF0A3E58124FAF8E608F0A3E608F08A
:100C1300A3E608F0A30808E608F0A3E608F0A31586
:100C2300811581D0E0FED0E0F8158115811581E8AA
:100C3300C0E0EEC0E022C0D02521C582C0E0E5229D
:100C430034FFC583C0E0E521C3958224F310AF08C8
:100C53008583228582218008858322858221D2AFE4
:100C6300C8F0A3E9F0A3EAF0A3EBF0A37908E7093E
:100C7300F0A3D8FAECF0A3EDF0A3EEF0A3EFF0A30A
:100C8300D0E0F0A3D0E0F0A3D0E0F0A3E520F0A300
:100C9300E5F0F0A322852283852182E0C0E0A3E072
:100CA300F9A3E0FAA3E0FBA37808E0F608A3DFFAD0
:100CB300E0FCA3E0FDA3E0FEA3E0FFA3E0C0E0A30C
:100CC300E0C0E0A3E0F5D0A3E0F520A3E0A3F5F0B6
:100CD30010AF08858322858221800885832285823F
:100CE30021D2AFD082D083D0E0F8D0E0321212EF1D
:100CF300181818120B5E1213E8191919221213E8A7
:100D0300191919080808E618181820E7E0120B5EED
:100D13001212EF18181822090909E719191920E7FF
:100D2300DC080808E618181820E703020B5E121205
:100D3300EF181818120B5E1212EF1818181213E896
:100D4300191919221214DEB90003020D86E4900565
:100D530001787579148002F0A3D8FCD9FA7A757BEF
:100D630018900086788179028015E493A3AD82AE52
:100D7300838A828B83F0A3AA82AB838D828E83D8EE
:100D8300E9D9E77582A6758386740512116C75829D
:100D93006675832C740012116C75F0108E238F24EA
:100DA300858228858327852182852283E0CEA3E05F
:100DB300CF852882852783EBC9EAC8EDCBECCAC36C
:100DC300E833C8E933C9EA33CAEB33CBC3EA9EF548
:100DD30026EB9FF525B35004AB25AA26EC33CCEDC7
:100DE30033CDD5F0DAAE23AF2422121485601C1262
:100DF300146760171214F370071215057001D322DC
:100E0300C0D01215057006D0D0B322C32233D0D080
:100E1300501430E0F6C3E7960809E7960809E79609
:100E23000809E796B32220E0D5E6970809E6970874
:100E330009E6970809E697B322121485601B12147A
:100E43006760161214F37007121505600CB322C005
:100E5300D01215057005D0D022C32233D0D0501341
:100E630030E0EBC3E7960809E7960809E796080917
:100E7300E7962220E0E4E6970809E6970809E69753
:100E83000809E69722D083D082ECC0E0EDC0E0E40D
:100E930093A3FCE493A3FDED4C600D120F60EC24CF
:100EA300FFFCED34FFFD80EFE493A3FCE493A3FD8B
:100EB300ED4C600D121029EC24FFFCED34FFFD8096
:100EC300EFD0E0FDD0E0FCE493A3C0E0E493C0E006
:100ED30022D083D082E9C0E0E493A3C386F0C5F0B7
:100EE30095F0F908E493A386F0C5F095F0700BE450
:100EF30093A3C3994005E9048002A3E475F002A417
:100F03002582F582E5F03583F583D0E0F9E493A3F8
:100F1300C0E0E493C0E022852283852182E0A3FE22
:100F2300E0A3F5207808E0A3F608DFFAE0A3FFE0EA
:100F3300A3C0E0E0A3C0E0E0A3C0E0E0A3C0E0E022
:100F4300A3C0E010AF0885822185832280088582B3
:100F530021858322D2AFD083D082021172C0E0C335
:100F6300E49396087401939618400FE4936670080F
:100F730008740193661870007019A3A3C3E49396D1
:100F8300087401939618A3A3400DD0E0D0E0D0E0FD
:100F9300020EC4A3A3A3A3A3A3D0E02274048004DA
:100FA30074028000CCC0E0EDC0E0E521C39CCCAD71
:100FB3002250011D10AF068C218D2280068C218DBD
:100FC30022D2AF1210EED0E0FDD0E0FC22740280FA
:100FD30000CCC0E0EDC0E0E521C39CCCAD225001C4
:100FE3001D10AF068C218D2280068C218D22D2AF5D
:100FF3001210CCD0E0FDD0E0FC2212148560251243
:10100300146760201214F37003021505080808E73B
:101013006670101819E766700A1819E766700418E5
:1010230019E76622F422C0E0C0F088F0E49366700A
:10103300080874019366187000A8F0A3A3700BD07E
:10104300F0D0E0D0E0D0E0020EC4A3A3D0F0D0E013
:1010530022D083D082CCC0E0E493A3600612112E89
:101063001470FAE493A3600612126E1470FAD0E0BF
:10107300FCE493A3C0E0E493C0E022C0E074F21266
:101083000C39A2AFE433FED2AFE58BA2E050057971
:101093000412177E758B00C2E8EEA2E092AF7F01C7
:1010A300020C98C008C3E096F50808A3E09642082E
:1010B30008A3E096420808A3E0964208A2D265D0AE
:1010C30033E5087001D3D00822CAC0E0E493A3C576
:1010D30082CCC582C583CDC583F0A3C582CCC5822E
:1010E300C583CDC583DAE5D0E0CA22CAC0E0E0A358
:1010F300C582CCC582C583CDC583F0A3C582CCC5CB
:1011030082C583CDC583DAE6D0E0CA227009080818
:1011130008226016181818C6C333C608C633C60893
:10112300C633C608C633C6D5E0EA22C0E0E493A3BB
:10113300D39C5010E493A3C39C400AD0E0D0E0D0EA
:10114300E0021071A3A3A3D0E022C008C3E096F588
:101153000808A3E096420808A3E096420808A3E023
:101163009645087001D3D00822C09FF59FE473D041
:101173009F22D083D082C09FE493C0E0740193C0C8
:10118300E0740293F59F222521F58210AF08F52123
:10119300400C15228008F52140021522D2AF85228A
:1011A300832200C0D0252110AF08F521500C052261
:1011B3008008F52150020522D2AFD0D022740480DA
:1011C3000A74038006740280027401C0E0F40412FE
:1011D300118AD0E01214A122BB0102E722C082C00F
:1011E3008389828A83BB0003E08002E493D083D0A7
:1011F3008222C0E0C0D0E8C0E0A8A8D2AFC2C7E84E
:10120300A2E792AFD0E0F8D0D0D0E0326016080861
:1012130008C6C313C618C613C618C613C618C61302
:10122300C6D5E0EA222521F8E43522F9222521FA60
:10123300E43522FB222521FCE43522FD22C3E0C64E
:1012430096F608A3E0C696F608A3E0C696F608A3AA
:10125300E0C696F622252110AF08F521400C152291
:101263008008F52140021522D2AF22C0E0E493A307
:101273006C7009D0E0D0E0D0E0021071A3A3D0E0FD
:1012830022C3E7960809E7960809E7960809E7964F
:10129300A2D265D03322E76670100809E766700AA8
:1012A3000809E76670040809E76622C3E09608A305
:1012B300E09608A3E09608A3E096A2D265D0332275
:1012C300E066701008A3E066700A08A3E066700485
:1012D30008A3E06622C3E096F008A3E096F008A313
:1012E300E096F008A3E096F022181818E4C396F6E7
:1012F30008E496F608E496F608E496F622C3E69721
:10130300F60809E697F60809E697F60809E697F658
:1013130022181818E60846087009E626087005E63C
:1013230033F4220822191919E70947097009E72735
:10133300097005E733F4220922C3E4939608740184
:1013430093960874029396087403939622E026F00A
:1013530008A3E036F008A3E036F008A3E036F02255
:10136300700422600D18C6C333C608C633C6D5E061
:10137300F41822E657F60809E657F60809E657F681
:101383000809E657F622E627F60809E637F60809BC
:10139300E637F60809E637F622E026F608A3E03634
:1013A300F608A3E036F608A3E036F622E056F60880
:1013B300A3E056F608A3E056F608A3E056F622E6A5
:1013C30047F60809E647F60809E647F60809E64737
:1013D300F622E056F008A3E056F008A3E056F00822
:1013E300A3E056F022E4C397F709E497F709E497DB
:1013F300F709E497F722600D08C6A2E713C618C6DB
:1014030013C6D5E0F322C6F4C608C6F4C608C6F46C
:10141300C608C6F4C622C3E09608A3E09608A3E074
:101423009608A3E09622C3E7960809E7960809E71A
:10143300960809E7962275D00075813F75210175DD
:10144300220500020D47600C08C6C313C618C61355
:10145300C6D5E0F422E6F008A3E6F008A3E6F00818
:10146300A3E6F022E7094709C3134709336002E7FC
:1014730033F422E0F608A3E0F608A3E0F608A3E0BD
:10148300F622E6084608C3134608336002E633F43F
:1014930022800100E9F874FF28F90470F622CAC01B
:1014A300E0E6F0A308DAFAD0E0FA22E0F8A3E0F9E4
:1014B300A3E0FAA3E0FB22E8F0A3E9F0A3EAF0A398
:1014C300EBF022EAF0A3EBF0A3ECF0A3EDF022E0C3
:1014D300FAA3E0FBA3E0FCA3E0FD22E5C754F84434
:1014E30001F5C77901222521F582E43522F583220E
:1014F300E62618461846184622C2AF75D69F020044
:101503000022E72719471947194722121175E0DC12
:10151300021211757ADD02121175EADD02121175DC
:1015230019DE021211751FDF0212117549DF021253
:1015330011759DDF0212117571E0021211759FE2A0
:10154300021211754DE302121175BAE502121175FB
:101553003FE60212117542E90212117576EB02128F
:101563001175B2EB021211750BED021211751EED1E
:10157300021211755BED0212117524EF021211753F
:10158300ABF00112117527F1011211755AF1011215
:10159300117588F101121175C6F10112117503F469
:1015A3000112117522F40112117567F401121175FC
:1015B300FDF40112117549F501121175DDF50112E2
:1015C3001175B6F60112117512F70112117570F744
:1015D30001121175E3F70112117527F80112117544
:1015E3007FF801121175A1F80112117531F9011279
:1015F3001175C2F9011211750EFA011211753AFA39
:10160300011211757BFA0112117511FC011211758A
:10161300FDFC01121175D8FD01121175DC92041243
:101623001175709304121175D89304121175FD94FA
:10163300041211758795041211751296041211750F
:101643004E9604121175E796041211757C970412D5
:1016530011754F9804121175319A04121175279B55
:1016630004121175C69B041211751B9C041211758B
:10167300899C04121175959F04121175BFA1041260
:101683001175C0A204121175FEA30412117509A4E9
:10169300041211750080051211752C800512117545
:1016A3004780051211756C80051211750C810512A6
:1016B3001175CB8105121175F581051211755597B9
:1016C300051211755A97051211758D97051211752B
:1016D3008084051211753F85051211752486051244
:1016E3001175C09205121175D192051211756F9380
:1016F300051211757A9305121175949305121175DC
:10170300F2FF01121175D89805121175E9940512AB
:101713001175F994051211750E95051211757495CD
:1017230005121175BC8F05121175409005121175C4
:10173300A89005121175B6F604121175D4F60412A9
:10174300117509F7041211752EF70412117551F76B
:10175300041211758CF704121175B9F7041211757F
:1017630000F8041211759FF804121175C191051246
:1017730011754892051211755192051211757892DF
:101783000512117526980512117529F904121175A0
:1017930073F90412117509FA041211758FFA041200
:1017A3001175C1FA04121175D9FA041211754DFBA2
:1017B3000412117563FB0412117576FB0412117583
:1017C30080FB0412117519CE0412117545CE041253
:1017D3001175AFD004121175EFD0041211752BD10E
:1017E300041211753FD10412117558D104121175E9
:1017F3004AD204121175FDD20412117511D30412C9
:1018030011759A8805121175BE8805121175D7884E
:101813000512117515890512117545890512117582
:10182300728905121175D88905121175DB890512A4
:101833001175E58905121175F289051211750FF4F9
:10184300041211752FF4041211756EF4041211753C
:101853008CF404121175A7F4041211750DF504121A
:10186300117519F50412117576F50412117585F5C4
:1018730004121175A9F5041211756AF60412117593
:1018830077F60412117588F6041211759B970512E9
:101893001175B39705121175DF970512117567D38B
:1018A30004121175C1D404121175CFD40412117529
:1018B300E2D404121175F7D4041211750CD5041275
:1018C30011751FD5041211759BD50412117500D61D
:1018D3000412117596D6041211756FD7041211757F
:1018E3007FD7041211758ED7041211755094051207
:1018F30011757494051211759C9405121175C49495
:101903000512117593FB04121175BAFB04121175BC
:10191300D8FB0412117547FC041211752CFD031238
:10192300117545FD0312117551FD0312117565FD06
:101933000312117583FD031211758DFD03121175C9
:1019430097FD03121175AAFD0312117530FE0312E0
:101953001175A5FE03121175D4FE0312117522FF32
:101963000312117571FF031211758CFF03121175A8
:1019730096FF03121175A7FF03121175EAFF0312F5
:101983001175029705121175AABD04121175D6BD02
:1019930004121175F3BD0412117506BE04121175FC
:1019A30021BE041211757BBE04121175A9BE041267
:1019B3001175B9C20412117517C40412117549C403
:1019C30004121175ACC40412117518C604121175F2
:1019D30040C60412117555C60412117565C604126A
:1019E3001175A5C604121175E7C604121175F7C661
:1019F30004121175528B051211756C8B051211753A
:101A0300948B05121175AD8B05121175D18B0512CF
:101A13001175EF8B05121175068C05121175348C37
:101A2300051211754F8C05121175E2970512117588
:101A330049E40412117559E4041211755EE50412A8
:101A4300117590E504121175C0E504121175E3E5F3
:101A530004121175FAE50412117534E604121175B6
:101A630099E604121175DBE60412117522E70412DC
:101A730011754FE7041211757AE704121175FC8989
:101A8300051211750E8A05121175228B0512117537
:101A9300258B05121175B68E05121175EC8E051284
:101AA3001175048F05121175468F05121175568F26
:101AB300051211759A8F05121175A48F05121175F0
:101AC30027C7041211756AC704121175CFC7041210
:101AD3001175EEC70412117590C80412117599C8D7
:101AE30004121175EAC80412117513C90412117591
:101AF30020C90412117592C90412117520CA041267
:101B0300117565CA041211759ECA0412117503CBAF
:101B1300041211752CCB04121175A3CB0412117589
:101B2300F2CB041211752FCC0412117564CC04127C
:101B3300117576CC0412117588CC04121175A7CCDB
:101B430004121175B0CC041211756CCD0412117509
:101B5300AFCD04121175EDCD041211754B9605121C
:101B63001175B2FE01121175428205121175788248
:101B730005121175C08205121175198405121175AC
:101B830025DE031211754BDF0312117587DF031274
:101B9300117545E10312117573E103121175DDE34C
:101BA300031211751DE403121175BFE503121175BC
:101BB30055E603121175AFE6031211753FE70312E1
:101BC300117583E703121175C5E7031211752AE92D
:101BD30003121175AAEA03121175EBEC03121175C6
:101BE30019ED0312117545ED031211754EED031234
:101BF3001175ABED0312117544EE031211755BF110
:101C030003121175E1F1031211757E950512117519
:101C1300949505121175F0FB0212117506FC021260
:101C23001175AAFC02121175E9FC0212117506FD69
:101C33000212117537FD0212117584FD021211751E
:101C4300B8FD02121175F3FD02121175E8FF0212BD
:101C53001175C190051211752091051211755E91D0
:101C6300051211759F9105121175A3930512117534
:101C73000C94051211752C9405121175A08D051283
:101C830011755E8E05121175AEC001121175BAC0C1
:101C9300011211751CC10112117526C101121175B2
:101CA300B5C101121175F1C101121175E3C201121F
:101CB300117540C301121175CEC3011211751FC4F2
:101CC300011211759FC40112117565C601121175B8
:101CD3005FC80112117561C90112117593CA01120E
:101CE3001175E9CC011211752BCE01121175D1CEEC
:101CF300011211758FD3011211758CD40112117554
:101D030022D50112117552D501121175EFD50112A9
:101D130011750CD6011211752CD6011211759AD6B4
:101D230001121175B7D601121175E5D6011211759D
:101D33007FD801121175A0D80112117546D901126D
:101D430011758ED901121175ECD9011211758ADA48
:101D530001121175EFDA0112117558DB01121175B9
:101D630096DB0112117548DC01121175B3DC011207
:101D73001175EFDC0112117560DD01121175ABDE17
:101D8300011211753BE001121175D4E001121175B6
:101D930025E3011211758AE301121175B8E30112EB
:101DA3001175FEE801121175C2EB01121175C2EC37
:101DB300011211750080041211752080041211752F
:101DC300D082041211758A850412117539880412A0
:101DD30011756D8804121175968804121175BC88EB
:101DE300041211750189041211759D8A041211756B
:101DF300FD8A04121175098C041211751B8C0412CF
:101E03001175CF8C04121175E08C04121175BF8DFE
:101E130004121175CB8E04121175548F04121175AF
:101E2300D48F04121175B39004121175E991041241
:101E330011755E9805121175D2E70412117591E8B8
:101E430004121175F7E804121175A6E9041211754D
:101E5300CEC803121175FDC80312117575C903129B
:101E6300117584CA03121175E0CA031211754DCCA2
:101E73000312117569CC03121175BBCC03121175D2
:101E8300F9CC031211750CCD0312117564CD031235
:101E9300117526CE03121175A2CE03121175D9CE78
:101EA3000312117511CF0312117599D00312117515
:101EB30078D103121175C6D203121175A9D3031277
:101EC300117535D40312117575D40312117594D499
:101ED30003121175DFD403121175FFD403121175A8
:101EE30098D5031211751ED60312117579D60312F4
:101EF3001175B9D6031211754FD90312117568DA2A
:101F030003121175AEDA03121175D8DB03121175C2
:101F130000DC0312117503DC031211750DDC0312CF
:101F2300117529DC03121175A3DC03121175DCDCB6
:101F33000312117508DD031211752FDD03121175DC
:101F430053DD03121175C4DD03121175D7DD0312BE
:101F5300117506DE03121175887F00121175947FC7
:101F630000121175C87F00121175FD7F00121175E3
:101F7300B6B203121175D9B2031211751EB403124E
:101F8300117567B403121175D3B40312117531B50A
:101F93000312117534B50312117585B5031211754A
:101FA300FAB5031211757FB60312117582B60312C7
:101FB300117503B70312117544B70312117530BBC2
:101FC3000312117564BD041211752ABD0312117534
:101FD300B9C003121175ECC10312117541C3031289
:101FE3001175DEC3031211759CDC021211752CC727
:101FF3000312117548A404121175F2A40412117589
:102003005DA50412117578A504121175FDA50412BE
:10201300117557A6041211759EA60412117505A712
:102023000412117584A804121175B3A90412117551
:102033003BAA0412117544AC04121175F1AC0412DD
:102043001175C7AD0412117582AF041211751AB15F
:1020530004121175A6DA02121175D3B204121175A6
:10206300008003121175638003121175AB80031294
:102073001175EF80031211754A8103121175A7813F
:1020830003121175E2810312117564820312117533
:10209300BE82031211753C8403121175BC840312B2
:1020A3001175178503121175318503121175528548
:1020B30003121175AC85031211752888031211756B
:1020C3004788031211753789031211756A8A03123F
:1020D3001175E98A03121175258B03121175948BFF
:1020E30003121175498C03121175218E0312117598
:1020F300288F03121175A090031211759692031283
:1021030011750C9503121175E69603121175A797B5
:10211300031211751F980312117536980312117566
:102123002D9903121175219A03121175909A0312B6
:1021330011753DEE0412117594EF0412117553F0ED
:1021430004121175BBF00412117518EB041211750A
:1021530033EB0412117577EB041211759DEB041226
:102163001175C4EB04121175DCEB041211757EECCE
:102173000412117593EC04121175B6ED0412117566
:10218300BFED04121175C8ED04121175D1ED0412DF
:102193001175DBED04121175BFD704121175CBDB7A
:1021A30004121175D0DB04121175D2DB0412117500
:1021B300278705121175BA98051211752FF10412AC
:1021C3001175828C05121175EA9505121175E8FDDA
:1021D300041211758E980512117571E004121175B0
:1021E300A39605121175B3960512117539DC041205
:1021F300117535AC0212117568AC02121175D4ACAD
:10220300021211756FAD021211750CAE0212117527
:1022130051AE0212117573AE021211758CAE021219
:102223001175B2AE02121175D4AE0212117512AF4E
:102233000212117556AF0212117578AF02121175A1
:10224300DAAF02121175A1B00212117558B1021260
:102253001175CAB10212117595B202121175E8B265
:10226300021211754EB30212117588B30212117561
:10227300DAB30212117548B402121175B3B4021223
:102283001175B6B40212117537B502121175CEB5B8
:10229300021211754EB6021211756DB60212117546
:1022A300D1B702121175DEB702121175EAB8021224
:1022B3001175F7B80212117500B902121175D8BA67
:1022C30002121175F2BB021211756BBC0212117569
:1022D300DDBC02121175FFBC0212117593BD02120F
:1022E300117567BF021211753EC30212117552C3F5
:1022F3000212117562C3021211756CC302121175B9
:1023030075C3021211757EC30212117588C30212BE
:102313001175B5C302121175DEC302121175E9C33B
:10232300021211750DC40212117531C40212117516
:102333009BC402121175E1C402121175FEC402128C
:1023430011757BC502121175B2C502121175F1C563
:10235300021211753EC602121175C4C6021211751E
:1023630092C80212117515C902121175F9C9021228
:10237300117560CC02121175B9CC0212117503CD1F
:10238300021211755ECE0212117593CE02121175EF
:10239300E5CE021211759ACF0212117549D00212BD
:1023A300117586D0021211751BD10212117587D1D6
:1023B30002121175CB3200121175FD320012117524
:1023C3002B3300121175013500121175E13500121E
:1023D3001175393600121175743700121175C03733
:1023E30000121175E93A00121175DC3D00121175E6
:1023F3002C3F00121175C23F00121175CE3F00121F
:102403001175004000121175834100121175344398
:1024130000121175C843001211750B440012117597
:10242300894400121175A64400121175D644001296
:1024330011750B4500121175DB45001211758446A9
:10244300001211750A49001211752A4A00121175FA
:10245300154B00121175974B00121175CB4F0012DB
:1024630011750850001211756050001211759350C8
:1024730000121175FD5000121175335100121175C0
:10248300BE5100121175165200121175ED52001251
:102493001175A65300121175415400121175495755
:1024A30000121175655800121175085C0012117540
:1024B300FC5C00121175FF5C001211752E5D001299
:1024C3001175345F001211750D60001211755060A3
:1024D30000121175A66100121175E56100121175E4
:1024E3006E6200121175A262001211756763001209
:1024F30011757F6500121175F06500121175306654
:1025030000121175BE6600121175E0670012117595
:10251300A26800121175A96A00121175C16A00122E
:102523001175D56A001211750D6B001211753B6B95
:1025330000121175BA6C00121175DF6D001211755E
:102543003C6E00121175EE6E00121175156F0012BC
:102553001175DC6F001211757470001211759A7287
:1025630000121175CF7200121175327300121175BA
:102573006174001211750975001211753A75001214
:102583001175527500121175E17500121175957868
:10259300001211756D7A00121175897A0012117586
:1025A300A57A00121175737B00121175667F0012F4
:1025B3001175B78301121175E98301121175D8875B
:1025C300011211752488011211756A88011211759F
:1025D3000C8901121175688901121175AD890112F7
:1025E3001175F48A01121175088C01121175F78F98
:1025F300011211757B9001121175889101121175E9
:10260300E49101121175D4930112117549940112C9
:1026130011755394011211756094011211758B9405
:10262300011211757295011211751C960112117523
:102633009A9601121175BA9601121175E396011259
:1026430011750597011211756599011211752B9A70
:1026530001121175709A01121175ED9A011211751B
:102663009E9B01121175D09B01121175169C0112CC
:102673001175529C01121175A29C01121175F69CE1
:10268300011211754C9D01121175989D011211755E
:10269300059E01121175809E011211754BA0011246
:1026A30011754BA10112117570A201121175AFA51D
:1026B30001121175C2A8011211757FA901121175BA
:1026C300C3A90112117573AB0112117587AB011206
:1026D300117591AB011211759BAB01121175A7AB6B
:1026E30001121175C3AB011211756EAC0112117594
:1026F300ADAC01121175B7AC01121175C1AC011269
:10270300117531AD011211757CAD0112117591AEC8
:1027130001121175EDAE011211756EAF0112117533
:102723002DB00112117536B1011211756AB2011281
:10273300117558B30112117570B301121175CBB332
:1027430001121175E9B30112117531B4011211753A
:1027530058B401121175F3B401121175B9B5011210
:1027630011754BB601121175C5B601121175DFB79C
:10277300011211758CB801121175B4B901121175DA
:1027830004BA0112117568BA01121175CABA01129D
:102793001175F8BA011211751CBB0112117551BBE9
:1027A3000112117582BB01121175B5BB01121175AE
:1027B300D5BB011211753DBC0112117531BD01125A
:1027C30011758CBD01121175B5BD011211753DBE98
:1027D30001121175C0BE01121175EBBE0112117504
:1027E300D0BF01121175DBF00212117513F1021241
:1027F300117534F10212117576F102121175D8F1C7
:1028030002121175E2F102121175F2F10212117541
:102813002DF2021211750DF602121175FAF702125A
:102823001175E0F90212117577FA0212117519FB8D
:1028330002121175248102121175A28102121175FF
:10284300FE8102121175498202121175648202120D
:1028530011758F8202121175AC8202121175B88242
:10286300021211754F8402121175688402121175D8
:10287300ED84021211750085021211751F85021273
:102883001175C38502121175448702121175F788F9
:10289300021211758D890212117590890212117538
:1028A300008A021211751E8A02121175B58A02126C
:1028B3001175FD8A02121175008B02121175C68BF8
:1028C30002121175338C02121175598C0212117593
:1028D300E48C02121175028D02121175488D0212D9
:1028E3001175FC8D02121175468E02121175758ECB
:1028F30002121175D28E02121175078F0212117511
:10290300338F02121175418F021211758E8F0212CD
:102913001175FE8F02121175479002121175939073
:1029230002121175BF9002121175CA90021211752D
:10293300E89002121175D39102121175DD91021202
:1029430011751892021211752892021211753192A3
:102953000212117585920212117599920212117564
:10296300C89302121175DD93021211756B94021252
:102973001175B094021211753C95021211754795A9
:1029830002121175899602121175A496021211751D
:10299300F096021211755F97021211759897021241
:1029A3001175B29702121175F49702121175C49A38
:1029B30002121175719B02121175DE9B02121175C1
:1029C3001E9E02121175369E02121175399E021255
:1029D3001175459E02121175599E02121175619E61
:1029E30002121175949E02121175969F02121175AF
:1029F3001DA0021211758DA0021211750FA10212F2
:102A03001175D0A102121175EFA10212117590A2D6
:102A130002121175EDA202121175F0A202121175C4
:102A230064A302121175B3A402121175B9A502129F
:102A3300117544A6021211755FA70212117527A81A
:102A43000212117558A8021211757BA80212117592
:102A530084A802121175B3A80212117543A90212B8
:102A63001175F9A9021211756EAA0212117515AB2F
:102A7300021211758AAB02121175C1AB02121175E4
:102A8300FFAB021211754BDC0212117530BD04123B
:102A93001175D9BC0412117547BB0412117599BA8B
:102AA300041211758FBA0412117585BA04121175C7
:102AB3001EBA041211750ABA0412117567B9041209
:102AC300117567B80412117580B70412117570B5CA
:102AD300041211759ADB02121175C9C40312117520
:102AE3007EB4041211751CB40412117576DA021245
:102AF3001175CAD902121175A2B20312117598B2D7
:102B0300031211752DB20312117561B00312117501
:102B13001FB00312117523AF03121175F7AE031221
:102B23001175AEAE03121175EFAD03121175F2AA52
:102B330003121175C7A8031211756EA8031211753C
:102B430001A803121175C0A703121175F9A6031288
:102B5300117593A60312117532A603121175D2A52E
:102B630003121175A9A4031211753DA40312117563
:102B730095A30312117590A30312117584A3031275
:102B83001175B79F0312117563D7021211751AD409
:102B9300021211756ED302121175DCD20212117575
:102BA30096D20212117561D2021211752ED202123F
:102BB3001175919F031211752F9F03121175D19EE9
:102BC300031211758F9E0312117519D2021211751A
:102BD3007C9E03121175719E03121175409E0312A0
:102BE3001175309C0312117506DB02121175A39B3C
:102BF30003121175ADB1041211755F9B03121175A8
:102C0300339B03121175C6FC0312117599FC031251
:102C1300117566FC031211753EFC03121175DFFB7F
:102C230003121175BFFB031211758AFB0312117591
:102C330036F8031211751EF60312117508F4031208
:102C4300117588F30312117534F30312117540F2F1
:102C530003121175EED102121175E8F20312117508
:102C6300DABC0300000080FB000022E4738F000144
:102C7300008A1987000100881935000400511925BD
:102C830000020055192600020057192700020059B7
:102C93001928000100631929000100641984000444
:102CA3000063168600010083182A00010065192BB2
:102CB30000010066192C0001006A192D0008006F3D
:102CC300162E0001006B192F0001006C1930000152
:102CD300006D19310001006E1932000100771633BF
:102CE3000001007816340001006F193600010079E5
:102CF30016380001007019390001006919830002B8
:102D030000861963000100851664000100671965D8
:102D130000010068196D0001008616710008006744
:102D2300166600010085194300010076194400026C
:102D3300007719450001007919460002007A194706
:102D43000008007D16480001007C194B0001007D3E
:102D530019040001008919A10001008D1937000130
:102D6300008C19880001008B193C0001007A163D84
:102D73000001007119490002007E196700010087F4
:102D8300164D00020080194E00010082194F000207
:102D93000083193E0001007519510001007B165292
:102DA3000001007319530001007419540001007CE1
:102DB30016000000000000000000002001B18300A5
:102DC3000001002001B383000002002001B583004D
:102DD3000003002001B28300000400420145820089
:102DE300000500420182810000060042012C82009E
:102DF3000007003001B683000000404201878200D3
:102E030000FEFF2101AF83030000002123581503B7
:102E130000FEFF2101AF83020400002905131902FC
:102E230004100229230319030400002905191903B7
:102E330004100029051B190304140028011D19039C
:102E43000410022B23051905040000210517190599
:102E5300041002292309190D04000039050D190D69
:102E63000402021023F6180D0403021023F5180DB3
:102E73000404022123F7180D0405022123F9180D78
:102E83000411F110230B192B040000390520192B11
:102E930004100228230C192B0404022123FB182BF2
:102EA3000405022123FD1800013636010100010249
:102EB30001000103010001040106060502000007E9
:102EC3000100340801000F090401010D0100FF0E88
:102ED30008000017020000190100FF1A0100011B7E
:102EE3000100FE1C0100081D0200001F010001205B
:102EF300010001210200002301000F24020000262B
:102F030001000127010008280200FF2A0100072B06
:102F13000102402C0100002D0100012E0100012FB0
:102F23000100FF30010B1D310800003A0100083B8E
:102F330001000F3C0100013D0100FF3E040000427F
:102F4300040000460400004A0400004E040000523E
:102F5300040000560400005A040000010371030139
:102F6300030103010301030103220302030103100D
:102F730003000300030003000300030003000342F4
:102F830003000324030603000300030403120325C1
:102F930003230325032303040304030003000300A3
:102FA30003440300030003230300036503210035E7
:102FB300038103000305030003000300030003254B
:102FC3000323030302710230016002110270020144
:102FD30002020202028002100261023A004100630F
:102FE30002730272026202430200021302380000FB
:102FF30002000204021202000200020002000204A4
:10300300020402370037003C024402000239000088
:1030130002000265020002350281020002050282FB
:103023000283020002010171010101010111010189
:10303300013101010101018001100161013B001413
:103043000063017301720162014301000113010670
:10305300013D0135000401120100010001000100DE
:103063000104010401330133013C014401320136FF
:103073000000010001650100013500810100010527
:10308300018201830100010300710030016000111E
:103093000070003102200350048000100061000022
:1030A3000014006300730072006200430000001309
:1030B30000060000000000040012000000000000F1
:1030C30000000004000400370037003C0244000005
:1030D30000000000000000650000003500810000D2
:1030E3000005000000830000003600010006000018
:1030F300000F0000000000000000000000000003BB
:10310300FFFF00000403FFFF0000FFFF0FF40100B7
:1031130005C4040320000100000B000000000000B0
:10312300000003010F000000000000000000000089
:10313300000000000000000000000000000000008C
:1031430000000000000000721D9C1D781DA61C7E5F
:103153001DA21D7E1DAE1D841DA61C7E1DA21D8AE3
:103163001DA61C00000000901DA61C00000000000E
:10317300000000961DA61C000000000000000000D7
:10318300000000000000000000000000000000003C
:10319300000000000000000000000000000000002C
:1031A30000000000001E2001001E200200941F02E8
:1031B300808E1F03009A1F0400A01F0480A61F0512
:1031C30000AC1F0600B81F3100CA1F3300D01F34E4
:1031D30000D61FFFFF000007ECFDFDFDECDCDCCC9F
:1031E300BCACAC9C9C8C7C7C6C6C5C5C5C4C4C3C4C
:1031F3003C2C2C1C1C03EAF5E5D5D5C5B5A5959546
:1032030085857575656555554545353525251515EB
:10321300050A2A2602F42505002607FA250CDC25D3
:103223000DE825FF000000160F00000B150B020030
:1032330002220F3300000E0F5A6967426565416C25
:103243006C69616E63653039D0D1D2D3D4D5D6D70A
:10325300D8D9DADBDCDDDEDF303016181920231A8B
:103263001C1E3000034D4C4651181A25050200015F
:1032730019161816161823030030301718192130A1
:103283001B1D1F30003C40423A3F3F392F47300C53
:103293000E020B040B0A0708000F020402010101CE
:1032A300010902E803000000BE040A01001A00033A
:1032B30000E803FF04091E03101E030A0C040A0896
:1032C3002802180A10151E0AC082C08312158090A6
:1032D30016B274CCF0A37423F09016B474D2F0A396
:1032E3007423F09016B674D8F0A37423F09016B834
:1032F30074DEF0A37423F002600674F7120BCD9012
:1033030016A6E4F0E99016A5F07C7D7D167AA77BDE
:1033130016121C6490197CE09016AFF09016B074EE
:1033230067F0A3741602429374F0120BCDEAFEEB1E
:10333300FF5480700302349C9016A5124328700337
:10334300023495EA241B125B93707CEA241F125B00
:103353009364137002A3E0706E8A828B831234EA43
:103363009016C0125125750A00750B00800D12418D
:1033730069127205121B7AAA0EAB0FEA4B60488AD8
:10338300828B83E0650C7004A3E0650D702C8A8248
:103393008B83A3A3A3A3E0F50EA3E0F50FE50A45F2
:1033A3000B8A828B83A3A3A3A360C312446B850AF6
:1033B30082850B83A3A3A3A380B78A0A8B0B8A827C
:1033C3008B8312512180B4E508242A125B93FCE518
:1033D300082402F8E43509F9E8FAE9FB9016C0126B
:1033E30035D1A3A3E06402703C8A828B83125125FA
:1033F300800B88828983A3A3A3A312446BE849604B
:103403001F88828983E06A7003A3E06B70E488827B
:103413008983A3A3E06C70DA901982125EC3806B78
:10342300ECF9122408850882850983E06401704F52
:10343300E50824181234D31211CC1267AD120F9F72
:10344300E50824121234D31211CCE50812431C12DE
:1034530011C8E508240B1267B1120FA3E50824175E
:103463001242B9E5082402FCE43509FDE5082419F4
:10347300FAE43509FB122C3C740A1211A5800CE006
:1034830064027007AA08AB091224E6AA08AB091262
:103493001AE4EEFAEF6480802DEA5402600C90196E
:1034A300E17401F0EA6402FA8023EA5408601A1214
:1034B3002402EA4B700B9016C21266887A08123403
:1034C300E0EE6408FAEFFB80047A007B00026E37BB
:1034D300F582E43509F583E0F50A780A22FB9016B4
:1034E300A5E0F9121C3A22A3A3E0F50CA3E0F50D25
:1034F300227B009016A5E0F9121C2E74042274F4AA
:10350300120BCD8A088B098A828B83A3A3A3124F44
:103513001D1242C438F583E02409FA126DCF7003FB
:103523000235C48A828B837402124F928508828586
:1035330009831235D1E8F0A3E9126A498A828B83A1
:10354300A3A3A3A3A3A3A3A3F0E5082403F8E4354B
:10355300091235C61242C43AF583E08E828B83A3E7
:10356300A3A3A3F0EE2409FAE43FFB8E828F83A387
:10357300A3126175F5838882E0A2E58E828F83A30F
:10358300A3A3A3A3500474018001E4F0E50824037A
:10359300F5828983125125EA1256A63BF583126DF3
:1035A300961211C41242C33B1262678E828F83A3A9
:1035B300A3127F451211A5EEFAEFFB9016A5126E2A
:1035C3001C8016F98882F583E0FAA3E0CA2212521E
:1035D300C2A3A32274021211A57F04020F1A74F26C
:1035E300120BCD8A088B09ECFAEDFB740E1214E969
:1035F300E0FC1215B68A0C8B0DAE0CAF0DEA4F60D2
:1036030030AC08AD091215A4E96026AC08AD09EE8B
:10361300FAEFFB1215AAE970148E828F83124458B5
:10362300FAEFFB12159EAA08AB091215CE7900809A
:103633000279B402521174F0120BCD74F6121258BF
:10364300EAFEEBFF8C088D09750FB3852182852275
:1036530083E4F0750E008002050E9032C1E493F806
:10366300E50EC3984003023760AA0E7B001215F2E1
:103673008A0A8B0BEA4B60E08A828B83A3A31237FF
:103683006728F0F8C3EE98EF940050CC7C157D00CA
:103693007900AA08AB09121ACC850A82850B83A389
:1036A300A3A3A3127242E0F8EEC3982925E0F8E43D
:1036B30033F9E50A28F582E50B39F583A3A3A3A320
:1036C300A3A31242CEA3125CEA8A0C8B0DAC0CAD01
:1036D3000DAA08AB09121C64850A82850B83A3E03B
:1036E3006401700A1267AD74011242E080447401F0
:1036F300121238850A82850B831251231215DAE9D7
:10370300603D74091214E9E0C0E01267ADD0E0F047
:1037130074091214E9E0640370137401121238E59A
:1037230008240BFAE43509FB121C6480127401129D
:1037330014E912446BE508125CD035091272038553
:103743000A82850B831267B91242E0A3A3E0C0E0AB
:10375300E50824141267B1D0E0F0750F00A90F74C7
:103763000A026E34A3A3A3E0F8852182852283E0B5
:103773002274F7120BCDE9FE8A828B83A3A3A3A342
:10378300A3A3E0540860338A828B83A3A3A3A3A3D8
:10379300A3E0540260218A828B83A3A3A3A3A3A3E0
:1037A300A3A3A3E06406600F74E96E600A74CD6E90
:1037B300600574F06E70031223EA024B1074F0126A
:1037C3000BCD74EF121258740F1214E912656C7456
:1037D300081214E9E9F0ECFEEDFF74051214E91286
:1037E30048D8124AFCA3E0F91215C274061214E970
:1037F30012656C74061214E91257377003023A7B90
:10380300124308E0FA74061214E9E0F912232A12AB
:103813003ADBF8A3E0F9E8497003023A7BEE2403AC
:10382300F50AE43FF50BEE2406F508E43FF5097CC1
:1038330000850882F583125125850A82850B83E072
:10384300F91215C874031214E912656C850A82858E
:103853000B83E0C0E0852182852283123AD4D0E035
:1038630012584CF985218285228312417012539E8E
:1038730012376AFAA3E0CA2407F582E43AF583E82B
:10388300F0A3E41265772406F582E438F583E412A5
:10389300720F124F111211C4EE1242C43F1262672B
:1038A30074031214E9124F1D2409127F3F1211A54C
:1038B30074291214E912723C1235CB12585F3A1272
:1038C3007203742B1214E9E0C0E085218285228300
:1038D3001256FED0E0F074021214E9E4F0742512DB
:1038E30014E978081214760239D274031214E91217
:1038F300622F8882F583123AC3A3A3A3125CF5FB5C
:103903001215E0850E82850F83A3EAF0A3EBF07412
:10391300031214E9123AD4A3123AC3125F04A2E6C3
:10392300500F850E82850F83A3A3A3A3A3E0D2E147
:10393300F074051214E9E0706B850E82850F83A382
:1039430012446B901700E0687003A3E0697055851B
:103953000E82850F83A3A3A31242A3750C00780CD8
:103963001211CC78081211C074291214E9E0F50C75
:10397300780C1211CC74271214E9120FA390170DAF
:10398300120FA3790074191214E91250F512252E9F
:10399300740A1211A5850E82850F83A3A3A3A3A383
:1039A300E04405F074021214E9E004FC8E828F8374
:1039B30012511F8E828F83A3A3A3E0F91215C8743B
:1039C300031214E912656C74021214E9E004F07432
:1039D300031214E9125737606774021214E9E0FA0C
:1039E30074061214E912446BC3EA98E499505174B3
:1039F300021214E9123DAD852182852283E028F865
:103A0300A3E039F9E8240FF50EE439F50F850E82AA
:103A1300F583E4F074031214E9123ACE64016003EF
:103A23000238ED74051214E97401126E22F0740366
:103A33001214E9125FF6123DD0E8F0A3E90239113E
:103A43008521828522831251251223308521828587
:103A53002283120FA374261214E9E0FD74251214B5
:103A6300E9E0FC740A1214E9E0F9EEFAEFFB122321
:103A7300E474021211A580438E828F83A3A3A3E073
:103A8300C0E0740C1214E9D0E0F0126C8BE0C0E0DB
:103A9300740D1214E9D0E0F074061214E9125737CA
:103AA3007009740E1214E974B98007740E1214E9C4
:103AB3007410F074091212301225287411026E3436
:103AC300E0850E82850F83A3A3A322E0125824E08E
:103AD30022E0125824A3A322852182852283EAF0BF
:103AE300A3EB1257402274F0120BCD74E11212585B
:103AF30074041214E9E9F074031214E9ECF074028B
:103B03001214E9EDF08A0E8B0F742F1214E912349C
:103B1300ECAA0CFB12231E74011214E9E9F0AA0C9F
:103B2300AB0D12232474011214E9E07003023DA8C3
:103B3300852182852283E480158E828F83A3A3A3AC
:103B4300A3A3E0D2E3F0852182852283E004126DF2
:103B53007AF8852182852283E0C3984003023D9F42
:103B630074011214E9E07003023D9F8521828522CE
:103B730083123DADE50C28F8E50D39F9E8240FFE75
:103B8300E439FF8E82F583A3A3A3A3A3E0A2E040BD
:103B9300B5750800750A08750B0074021214E9E084
:103BA30060037508207C087D0079007405121230CB
:103BB300121ACC8E828F83E0603E901750E064012E
:103BC300701AE508D2E3F508750B10123DBD121407
:103BD300E9E8F0A3E9125BE874FF807643080C750B
:103BE3000A0C8E828F83A3123DC8127205740512CC
:103BF30014E974FFF0A3805A74041214E9E0600915
:103C0300E508D2E6F508750A0A8E828F83A3E0647D
:103C1300FE7003A3E0F4703074121214E9740412FA
:103C230067D7F8741D1214E9E8124F927412121236
:103C33003012224C7D007C00790074151214E9AA1D
:103C430082AB83122006800B123DBD1214E9E8F00B
:103C5300A3E9F074071214E9E508F01242FFC0E08B
:103C630074091214E9D0E0F0740A1214E97401F033
:103C730074051212301224EC74111214E9E060037B
:103C8300023D7D740D1214E91258478E828F83A36F
:103C9300A3A3A3F0740D1214E9124F60E50AF0A375
:103CA300E50BF074031214E9E0C0E0124EF1D0E02A
:103CB300125F046011901750E0C0E0740D1214E914
:103CC300124F3BD0E0F0740D1214E912446B850CD3
:103CD30082850D83A3A3A3A3A3123DB6241C12655F
:103CE3006612721F123DB8125EB639126CAAC0E09A
:103CF300124ED8D0E0126D6FC0E0740D1214E912A9
:103D03004A1ED0E0126A70C0E0740D1214E9124A20
:103D130014D0E0F0740D1214E9123DC8123DB6241C
:103D23002A126566850E82850F83A3A3A3A3A3A38B
:103D3300A3A3E012655F1242EEC0E0124A00D0E096
:103D4300F0740D1214E9125125850E82850F83122A
:103D53006D852428F582E43B1272031242F7126D3B
:103D6300961211C4126260EA1264F83B127F431286
:103D730011A574051212301224F28E828F83A3A32D
:103D8300A3A3A3E0D2E0F074111214E9E0600302EC
:103D93003B3C74011214E9E014023B487900AA0C7D
:103DA300AB0D1223F0741F026E34E075F007A4F814
:103DB300A9F022A3A3125129E8228E828F83A31292
:103DC300446F740522E0123DD0A3A3A322F8A3E01D
:103DD300F9850E82850F83A32274F0120BCD74E84C
:103DE300121258E9852182852283F08A0E8B0F8A6D
:103DF300828B83A3A3A3A3A3A3A3A3E0F9122348C2
:103E03008A088B09EA4B7003023EB9E50E1256BAD3
:103E13001243171242AE852182852283E06003029A
:103E23003EBC7C04850E82850F83A3A3A3A3A3A317
:103E3300A3A3E0F912234EEE4F607B8E828F83A300
:103E4300A3A3A312446B74071214E912669D1244D0
:103E53006B74091214E9124FC2C0E074111214E911
:103E6300D0E0126A4EA3A3A3A3A3A3A312446B742B
:103E73000F1214E912720574121214E9E4126E2A75
:103E8300C8241FF582E438F58312622BC41313543C
:103E930003FC70027C048E828F83E0F97808121190
:103EA300C8742059FD744059F97403121230122357
:103EB300E474021211A5026E327C08850E82850F0E
:103EC30083A3A3A3A3A3A3A3A3E0F912234E8B0B62
:103ED300EA4B7003023E3AEE4F60DB852182852276
:103EE30083E0F50C780C1211CC850882850983A335
:103EF300A3A3A3A3A3A3E0F50C780C1211CC8A828D
:103F03008B83A3A3A3E0FB8A82850B83127A628A45
:103F130082850B83E0FA8E828F83A3A3E0F9122CB0
:103F23004274021211A5023E3E74F7120BCD74FACD
:103F3300121258E9FE780179017F00800379000F9E
:103F43001252A1E0FCEFC39C5026EF75F007A4FCCE
:103F530085F008AD08EA2CFCEB3DFD124890E0A289
:103F6300E050DA540C60D6E0A2E250D3780080CF60
:103F73008A828B83A3A3A3A3A3A3E0703DE9A2E05A
:103F8300400574016E70338A828B83A3A3A3A3A31A
:103F9300A37401124280E0C0E074031214E9D0E07C
:103FA3001248EFE0C0E074041214E9D0E0F07405A5
:103FB3001214E9E81261CA1225287406024B0DC0D7
:103FC30082C08379011223F002600674F4120BCDD0
:103FD300EA4B9019E16019E4F08A088B09F50AF5B8
:103FE3000B78081211C07A021234F41211A5800A58
:103FF3007401F07A027B001234E10235DC74F012B2
:104003000BCD74F312125874031214E9E4F0A3F005
:104013009016C01242AE74011214E9E4F0A3124FD9
:104023009704F09016FAE0A2E350030240F3124221
:104033007474091214E91214BA74091214E9780891
:104043001214769016C2780812124074051214E9FD
:10405300780812145812417774051214E97808127B
:10406300141950077A017B0002416474051214E9A4
:10407300780C121476901981E0F509780C790812FE
:104083000B5EA80CA90D901982E0C398E499500324
:10409300E08001E8852182852283F074091214E906
:1040A3007808121476C008C009C00AC00B74051240
:1040B30014E9780C121476124177780C7908120BF4
:1040C3005EE4F50AF50BD00FD00ED00DD00C780CB2
:1040D30079081213009016C2780C1214588011122A
:1040E3004169127205EEFAEFFB121B7AAE08AF09B3
:1040F300EE4F60658E828F83123767C398502DEE23
:104103002403F8E43FF9E0FA88828983E0C39AF054
:10411300602374031214E91245D174011214E9EEF9
:10412300F0A3EF1266B8FEA3E0FF80C48E828F83F4
:10413300A3A3A3E4F08E828F83127EFC7401121476
:10414300E91257378E828F83A3A3A3A360911266CC
:10415300911214E9124170808974031214E9125107
:1041630025740D026E3412446F9016C022126256EB
:10417300A3A3A322901980127F04E4F50AF50B226E
:1041830074F0120BCD8A088B09890A7800790090A4
:1041930016C01242AEFBEE4B601E088E828F83A3C5
:1041A300A3A3A31250EF601008E87001098E828F59
:1041B300831242AAEA4F70E3901983125125C3E890
:1041C3009AE99B40030242677A0612426AA80CA945
:1041D3000DEA4970030242678A828B83E508F0A3E4
:1041E300E509124289E50AF09019821252A9124296
:1041F30080A3E4F0A3F09016C01250EF600D8E82FE
:104203008F83A3A3A3A312720580179016C0127203
:10421300059016FAE0A2E340091242749016C21206
:1042230014BA9016FAE0A2E3503A7A087B0090168B
:10423300A5E0F9121C40EA4B4C4D7028901980E020
:10424300F508A3E085080CF50DE4F50EF50F780CE1
:104253001211C07A087B009016A5E0F9121C347481
:10426300041211A5026E377B00121B748A0C8B0D8E
:1042730022121C4CEAF8EBF9ECFAEDFB2212428411
:1042830022124289A322F08A828B83A3A322E50808
:10429300F0024B10F08E828F83A3A3A3A3A3A322C8
:1042A300125BA1A3A3F022A3A3A3A3E0FEA3E0FFB9
:1042B300227F05020F1AF582E43509F583E0F9221E
:1042C300EA1242C8222410F582E4221242D6A3A3A2
:1042D300A3A322124473850882850983221242E430
:1042E30022F0850A82850B83A3A322E50E241112F3
:1042F3004314E022E50E240E12431422E50E24108B
:10430300124314E02212430C22EE1242C83FF583FB
:1043130022F582E4350FF58322240FF50AE43509EB
:10432300F50B780A22E0F9121AF68A088B09EA4B90
:104333002274F2120BCD890B8A088B098A828B8334
:10434300125125122414EA4B600479B8806A1224AE
:1043530020E9F89032BBE493F9E8C399400479B2B9
:1043630080567A1512426AAE0CAF0DEA4F7004798B
:104373001080458A828B83E4F0A3124289E50BF017
:10438300750A0078081211C47C127D00EA24031216
:104393006D411211A59016C612573770089016C6B4
:1043A300800C12446B888289831243BE70F4EEF052
:1043B300A3EFF01224327900025211125129EA4B71
:1043C3008882898322C082C0839016C680048C822F
:1043D3008D83127A63EC4D60288C828D83A3A3E0D6
:1043E30069600574FF6970E68C828D83A3A3A3E0E3
:1043F3006A7003A3E06B70D6EC2403FAE43DFB8000
:10440300047A007B0002600674F7120BCDE9FD7499
:10441300FE6D70047C0180027C009016C680096DDD
:1044230070027C0188828983125737601F888289D2
:1044330083A3A3A3E06A7003A3E06B70E7ECA2E09D
:1044430088828983A3A3E050D6F9800279FE024BC8
:1044530010EEF9800CA3A3127F04EE227402121152
:10446300A57F02020F1AF58312446F2212447322AE
:10447300E0F8A3E0F9221244738E828F8322121193
:10448300A57F03020F1AC082C08379009016C680ED
:104493000109E0FAA3E08A82F583E582458370F19E
:1044A30002600674F6120BCDE4F508F509780812DC
:1044B30011C89032BBE49375F013A4A9F01245C65A
:1044C3001272631211A5E9FE74096E700312242C93
:1044D30002445474F6120BCD74FE121258852182D5
:1044E300852283E4F0A3F0A821A92288088909780A
:1044F300081211C875080275090078081211C8124C
:104503006ED41211A502445F74F5120BCD74EB1235
:104513001258852182852283E4F0A3F09016C68089
:10452300748E828F83A3A3E0C0E074021214E9D0D7
:10453300E0125BE8A982AA8389088A09750A0078D0
:10454300081211C47C127D0074061214E912722839
:104553001211A57402121228880889097808121109
:10456300C875081375090078081211C87404121469
:10457300E91256DA75F013A4F8AAF075F013E912EC
:1045830045C2126EDC1211A5852182852283124554
:10459300D18E828F831242AEEE4F7085A821A9225D
:1045A3008808890978081211C87508027509007806
:1045B300081211C8126ED41211A57415024481A4F5
:1045C3002AF9E82402FCE439FD7A427B0022E02444
:1045D30001F0A3E03400F02274F4120BCD74EB125B
:1045E30012587E007F00A821A9228808890978082B
:1045F3001211C87508028E0978081211C87C007D53
:10460300007A4212726F1211A5E9706C8E088056FF
:104613007402121228880A890B780A1211C8750AC3
:1046230013750B00780A1211C8E50875F013A4F886
:10463300AAF075F013E5091245C21272711211A5A1
:10464300E9701B74031214E9AA82AB837402121477
:10465300E9E0F912240EE970050EEE70010F05086A
:10466300E5087002050985218285228312446BC304
:10467300E50898E509994098EEFAEFFB74150235C1
:10468300D974F6120BCD8C828D83A3A31248DDF06F
:10469300EA1264FE3BF583E0C0E012489AD0E0F0F2
:1046A300EA241DF582E43B12446912487E1248D87D
:1046B300F0A3F0EA241FF582E43BF5831242AEEC4B
:1046C3001248713DF583EEF0A3EFF01248773BF506
:1046D300831248A8A3A3A3A3A3A3EEF0A3EF12619D
:1046E30059FE8C828D831248E774035EFEC39403E4
:1046F3004003024864EE600874026E600302478957
:104703008C828D83E0540CFE740C6E70030247C8D8
:10471300E0A2E4400D88828983E08C828D83A3121A
:1047230048FD74086E60030247C81248887401F09C
:104733008A828B83A3A3A3A3A3125BAE70148C8280
:104743008D83E0440C1248EFA3A31248A8EEF0A314
:10475300EFF08C828D83E0A2E4402B88821248B66E
:104763001248CB500109F5821248B6A3A3A3A3A311
:10477300A3F0A3EF1248F78C828D83A3A3A3F0E8E1
:104783002403F850010988828983E0C0E0EC2411F6
:10479300F582E43DF583D0E01248E78C828D83E017
:1047A300A2E7507588828983E0FE8C828D8312484C
:1047B300FD74FC5E700C8C828D83A3E05403640350
:1047C300701E024864124888E4F0740C6E600302A1
:1047D300473388821248BC1248CB5001090247551F
:1047E3008C828D83A3E05403603288828983E0C086
:1047F300E0EC1248A23DF583D0E01248FE8C828D96
:1048030083E054036402701488828983E0C0E01259
:104813004890D0E01248FE8003A3E4F0EC1256A6C1
:104823003D127203EC2410FEE43DFFEA241DF582E1
:10483300E43BF583E0F5088E828F83E0C398250877
:10484300F508F0EA2417F8E43BF98882F583E0C31E
:104853009508C0E012487ED0E0126159C395085014
:104863000A12487EE4F012489AE4F00244642415E4
:10487300F582E422EA240DF582E422EC240DF5828C
:10488300E43DF58322EC12585F3DF58322EC2414BA
:10489300F582E43DF58322EC1242C83DF5832224E0
:1048A30013F582E422E0FEA3E0FF8C828D83A3A3B1
:1048B300A3A3221248BCA3A3228983E0F508A3E0A3
:1048C300FFE5088C828D8322A3A3A3A3F0A3EFF0BB
:1048D300E82402F8221248DDA322E4F08C828D83BF
:1048E300A3A3A322124905A882A98322124284A367
:1048F300A3A3A322124905A3E022A312490508A9F1
:104903008322126162A32274F4120BCD74F3121288
:10491300588A0A8B0BECFEEDFF8C82F583E0540C76
:10492300F508E0A2E75006E508D2E7F508E508D266
:10493300E1F508125BAE7006E508D2E4F508E0A2E3
:10494300E55006E508D2E5F5087C087D007900AA64
:1049530021AB22121ACC74021214E9E5081272096F
:10496300C0E074031214E9D0E0124F97E50AF0A3F4
:10497300E50BF074051214E9126A751214E9E0707C
:104983007774081214E9124F1D12614B38126A90A2
:10499300C0E074081214E9124A1ED0E0126A70C013
:1049A300E074081214E9124A14D0E0F074081214E7
:1049B300E9124A0AE0124F45124FC612655FEE2410
:1049C30011125B7AC0E0124A00D0E0F0EE24141218
:1049D3005B7AC0E074081214E9124F1D2435F58286
:1049E300E438F583D0E0124F6AC0E074081214E98A
:1049F300124F21D0E01267C9740D0235D9E8243271
:104A0300F582E439F58322124479A3A3A3A3A3A3D4
:104A130022124F31126C6F38F58322124F31242644
:104A2300F582E438F5832274F7120BCD7E008A8277
:104A33008B83A3A3A3A3A3A3A3A3A3E064046003FF
:104A4300024AEC125857E06003024AEC1256B93B93
:104A53001257357003024AEC88828983E05403605D
:104A630003024AECE812585F39F583E0FA8C828D31
:104A730083A3A3E0FBA3E0CB2411F582E43BF583FE
:104A8300E06A706588828983A3A3A3A3A3A3A3A3D6
:104A9300A3124AF0E06A7003A3E06B704C8882892A
:104AA30083A3A3124AFCE0FFA3E0CF2406125B7AA0
:104AB3006A7003A3E06B703188828983A3A3E0F853
:104AC3008C828D83A3A3E0F9A3E0F5838982A3A35A
:104AD300E06860138C828D83A3A3A3E0F5838982AE
:104AE300E0540C640470027E01EEF98020124AF453
:104AF3002212512D8C828D8322A3A3124AF4A3A3E5
:104B030022740C1214E9E0F9740D1211A57F01024D
:104B13000F1A74F6120BCD74FC121258EAFEEBFF57
:104B2300ECFAEDFB8C82F583A3E054036016901638
:104B3300BC12573760597900EEFCEFFD1263561231
:104B43002C6E804B852182852283EEF0A3EFF074D7
:104B5300021214E9124F8CAC21AD227A4A7B241243
:104B630026728A088B09A808A909EA4960218A8262
:104B73008B83A3A3A3A3A3A3A3A3A37406F07A0085
:104B830088828B83124F1D12651FE0F91225D074A2
:104B93000402446174F2120BCD74F3121258EAFE4C
:104BA300EBFF8A82F583A3A3A3A3A3A3A3A3A3A336
:104BB300E0F50A9019E1E0700579BA024ED575085F
:104BC30001750900750C00750D007C087D007900E6
:104BD300AA21AB22121ACC74051214E97401124FE4
:104BE3009F5404601274021214E9E0D2E6124F9F3C
:104BF30054087003750803E05410600674404508B8
:104C0300F508E05408602274021214E9E044C0126B
:104C13004F9F5420600A74031214E9E0D2E0800825
:104C230074031214E9E0D2E1F0EE2415125B7A1258
:104C33004F057003740169700674084508F5088E02
:104C4300828F83A3A3A3A3A3A3A3A3E07016122617
:104C5300CC85218285228312656C74021214E9E0EB
:104C6300D2E28030640F701074021214E9124FA75D
:104C730074044508F508807F8E828F83A3A3A3A3C2
:104C8300A3A3A3A3E064028E828F83700A12723CF3
:104C9300E8F0A3E9F08060A3A3A3A3A3A3A3A3E0E5
:104CA3006403700DAC21AD22EEFAEFFB1224808079
:104CB300468E828F83A3A3A3A3A3A3A3A3E064012C
:104CC3007035901750E0601074021214E9124FA768
:104CD300750910750AFF801874021214E9E0440C78
:104CE300124F9774FDF0A374FFF074044508F508A0
:104CF3008E828F831234ECEE2415125B7AA2E0507D
:104D03003F74021214E9E0540C701B8E828F8312DD
:104D130051251220CCE9700579BB024ED5740212DD
:104D230014E9E0D2E5F0EE2415125B7AA2E050100C
:104D330074021214E9E0540C64047004E0D2E5F048
:104D4300EE2411125B7AC0E074041214E9D0E0126D
:104D53006A771214E9E06003024ECE74081214E974
:104D6300124F60E508F0A3E509F0124EFBE0C0E046
:104D7300124EF1D0E0F0124EE2E0C0E074081214DB
:104D8300E9124F1D1248A238F583D0E0124FC664D2
:104D9300017011901750E0C0E074081214E9124F2B
:104DA3003BD0E0F074081214E9124F5B124EECFA98
:104DB300E8241CF582E439F583EA124F92EE2415B8
:104DC300FAE43FFB8A82F583127A63E8125EB6390E
:104DD300F583124F8CEE241C125B7AC0E0124ED87E
:104DE300D0E0125FFC124F057003740169701374F5
:104DF300081214E9125847FAEE241D125B7AF912CD
:104E030023548E828F83A3A3A3A3A3A3A3A3A3E06B
:104E1300C0E074081214E9124A1ED0E0F0740812BC
:104E230014E9124A14E50AF074081214E91256DA66
:104E33002428F582E439F583E50CF0A3E50D124F40
:104E430072124F45125BF312655FEE124EECC0E037
:104E5300E82433F582E439F583D0E0F0EE241B1225
:104E63005B7AC0E074081214E9124F21D0E0F0EE2F
:104E7300241A125B7AC0E074081214E9124F1D243D
:104E830032F582E438F583D0E0124F6A124F1112E3
:104E930011C4126C75127A63740B1214E9124F1D4C
:104EA300242F127F3F1211A5EE2415125B7A544072
:104EB30060129016DC125737600AAA21AB221263E4
:104EC30056122C6EAA21AB221224F2740C1214E98E
:104ED300E0F902520CE82420F582E439F58322EE4E
:104EE3002419F582E43FF58322126C84E022E8243E
:104EF30012F582E439F58322EE2418F582E43FF5B6
:104F030083225480F8A3E05401F974806822F508E1
:104F1300A3E0F509750A00780822124F3122124FD7
:104F2300312434F582E438F58322A3A3A3A3124FDB
:104F33003522E0F8A3E0C822124F3112487138F548
:104F43008322FAA3E0FBE8242AF582E439F583EA15
:104F5300F0A3EB22A3A3A3A312446FEE221256DE07
:104F63001256BE39F58322F0EE2413125BFB22F0B6
:104F7300EE240D125BFB22E0FC8A828B83E02CFC87
:104F8300A3E03400FD8A828B83ECF0A3EDF022F0E2
:104F9300A3E4F022F085218285228322F0EE2415FA
:104FA300125BFB22E0D2E3F0124FAF228E828F839B
:104FB300124473852182852283E8F0A3E9F022E875
:104FC300F0A3E91266B2E02274F7120BCD8A828B4A
:104FD30083A3E0640170047E6380027E648A828B13
:104FE30083E060087905124FFF24F3FE9016F8E082
:104FF3006007F9124FFF24F2FE024AEC12259AE9E8
:10500300F8EEC3982274F6120BCD74FE1212588573
:10501300218285228312656CE9FEECFAEDFB900593
:10502300C21257376032A821A92288088909780853
:105033001211C87D01740E1214E9E0FCEEF990051B
:10504300C2126540122C6E74021211A5EA4B600461
:105053007900800679B2800279B602445F74F71250
:105063000BCDE9FE9016B2125737601F7409121464
:10507300E9E0F50878081211CCEEF99016B2126542
:1050830040122C6E74011211A5800279B6024B10E6
:1050930074F7120BCD8908ECFEEDFF79B5E5082412
:1050A3005E602014600624F86034803D9005C412CD
:1050B30050EF6035127280122C6E8E828F831265D0
:1050C3006C80249016B4127A63EC4D601CEEFCEFF6
:1050D300FD9016B4126540122C6EE9F9800B901600
:1050E300B01250F5121C647900024B10125129EAD8
:1050F3004B22127A67EEFAEFFB2274F7120BCDE91B
:10510300FE79B574AB6E700B9016B0125125121C5C
:10511300647900024B108E828F83A3A3A3A3A3A35E
:10512300A3A31251292212512D22E0FAA3E0FB225C
:1051330074F1120BCDEAFEEBFF8C0A8D0B7508019F
:10514300901700E06E7003A3E06F700C125200AA78
:105153000AAB0B121C64805E1226D2EE6A7002EF59
:105163006B7009AA0AAB0B1226D8804AAC0AAD0BA6
:10517300EEFAEFFB122228E9F508901988E0703661
:10518300122B76E97030E508702C9016D0E06E7023
:1051930003A3E06F7020EE4F601C750CC8750D16ED
:1051A300750E00780C1211C47C087D00AA0AAB0BA3
:1051B30012722C1211A5A908027B5F74F2120BCD97
:1051C300EAFEEBFF8C088D09750A01125200EEFA14
:1051D300EFFB121C5EE96401701190170012446B1F
:1051E300850882850983127205800EAC08AD09EE2D
:1051F300FAEFFB12222EE9F50AA90A80111226C63C
:105203008A0C8B0DAC0CAD0D22740D1211A57F060B
:10521300020F1A74F6120BCDEAFEEBFF7A0D7B0038
:10522300121B74EA4B6062EE2424126F09F0EE2421
:1052330025126F09A31252CE126F0FA3A3126CA2F1
:105243001252A9F0EE12528F1252BEE8F0A3E912E5
:1052530052E51252B6127205EE125298126D65A300
:10526300A3A3A3F0EE2433125B7AC0E01252A1D0C1
:10527300E0126A941252B6A3A3A3E8F0A3E9125270
:10528300DDC0E0125857D0E0F0024464242AF582CE
:10529300E43FF58322242EF582E43FF58322EA12CC
:1052A3005CD03BF583221252AD22E08A828B83A32A
:1052B300A3A322126DC4A3A3A3A3221252C2221238
:1052C30044738A828B83A3A3A3A322F01252D32213
:1052D300EE2426F582E43FF58322F0EE2432125BBE
:1052E300FB22F0EE242C125BFB2274F4120BCD7420
:1052F300FE121258ECFEEDFFEC2416125B7A6405E5
:105303007010EC2406FCE43FFD12247AE9700302DA
:105313005399AC21AD22126FBE1220D28521828512
:105323002283125737606B8E828F83E0640170583B
:10533300E875F009A4F8AAF075F009E9A42AF9744C
:105343002728F8740439F9E8FAE9FB8882F58378A9
:1053530008121476EE12543B121419402785218249
:10536300852283124F5B125B8812539E78081214B6
:10537300769082F7780812139C8A828B83780812BE
:105383001458800A79A28010EE240F1271FF79005D
:10539300800679A1800279C80235D7124FBCEE127C
:1053A3006C902274F2120BCD8A0C8B0DECFEEDFF88
:1053B300EC125B88E4F0A3F09082D37808121476A1
:1053C300EC12543B1212C36067EC240E125B817023
:1053D3003478B39016F7E07028901729E0640170D1
:1053E30020EC2411125B7AF91225828B09A909EEAC
:1053F3001256BA3F12656AEA49600478008002785F
:10540300A18808802EE060046402700A12248CE9EB
:10541300F5087007801DE064037010EEFCEFFDAA31
:105423000CAB0D1220F6E9F50880087508A180037E
:105433007508A3A908025211126C9078082274F01F
:10544300120BCD74F5121258EAFEEBFFEA240AFCA4
:10545300E43F8C82F583127F001256C47403121248
:10546300388A828B83126360E9700302552A7401C0
:1054730012123874031212301220D274011214E97A
:10548300125737700302552AE875F009A4F8AAF0F9
:1054930075F009E9A42AF9742328FC740439FDE59D
:1054A30008240E1267B1E4F0041214E912446BE508
:1054B300081256BA35091272038C828D831214AE08
:1054C300E50824121267B11214BA9082F778081211
:1054D30014768C828D8378081213508C828D837896
:1054E3000C1214769083A37808121476780C79083A
:1054F300120B5EE5084509450A450B702A74011233
:1055030014E91256DA75F009A4F8AAF075F009E95E
:10551300A42AF9742B28F582740439F5837401F0F5
:105523007A007B081256E78E828F83A3A3A3A3A3DB
:10553300A3A3A3A3A3E02406FCA3E03400FD8E826F
:105543008F83126360126A82603EEE240A1256ACA5
:10555300124F607468124F92E81256A639F583749D
:1055630002F09016E21214AE8C828D8312655912EA
:10557300614B3CF5831214BA9082F77808121476C3
:105583009016E27808121350125722705D9016B0ED
:105593001256D2A3A3A3A3A3A3A3A3A3A31261817C
:1055A300121C5EE9701012613F9016B012615170C7
:1055B30005126A8260348E828F83A3A3A3A3A3A35D
:1055C300A3A3A3A31256D21251251220FCE9601102
:1055D3008E828F83A3A3A3A3A3A312570EE4F0A3E6
:1055E300F08E828F831256F4E4F012572260030286
:1055F30056A18E828F83A3A3A3A3A3A3127EFC90A1
:1056030016F7E06003025696901729E064016003E1
:10561300025696750A3A750B00780A1211C874027D
:10562300121228880A890B780A1211C81274FB1205
:1056330011A5E9705BE508240E1267B174011257D6
:105643003CC0E0E50824111267B1D0E0F0E508247E
:105653000F1267B1743A124F929016DE1214AEE530
:105663000824121267B11214BA9082F77808121440
:10567300769016DE78081213509082F77808121489
:10568300769016DE78081212C370081256E3800370
:105693001256C4125722700612604274A1F0740BA2
:1056A300026E34240EF582E422F8E43FF9E8FCE9C3
:1056B300FD8882F58322EA1256BE22240FF582E486
:1056C30022E5081256BE3509F583E4F0A3F0221251
:1056D3007A678E828F83221256DE22124473E82267
:1056E3007A007B02901586E0F9121B20228A828BB6
:1056F30083A3A3A3A3A3A3A3A3A3A3125702221227
:105703004F35240EF582E438F58322A3A3A3A31215
:10571300571622124F35240FF582E438F583228E73
:10572300828F83A3A3A3A3A3A3124F2D240FF582D8
:10573300E438F5831256DE492212574022F08521C0
:1057430082852283E02274F6120BCDEAFEEBFF7A08
:10575300237B00121B74EE240AF508E43FF5098548
:10576300088212656A7C237D007900121ACC8508B1
:1057730082850983125737700302580AEEFAEFFB4A
:1057830012249812572260748E828F8312583D64BC
:10579300018E828F83A3A3A3A3A3A37007125833FD
:1057A300740E80211257377010126A82700B8E822A
:1057B3008F83A3A3E0A2E05007125829740D80053C
:1057C3001258297405126A9454036401700712581D
:1057D300117405800B9016F8E0C0E0125811D0E068
:1057E30012584CF5838882125BA78508828509834A
:1057F300124F1D1264FE38F583E9800E85088285F9
:1058030009831265E38003126526F00244648E82E5
:105813008F83A3A3A3A3A3A3A3A3A3A31258232266
:10582300E0126545A3228E828F83A3A3A3A3A3A320
:10583300124F2D12650438F58322A3A3A3A3A3A3B8
:10584300A3A3A3A3125702E02212585022126FD32C
:10585300F8A3E022EA12585F3BF58322240CF58279
:10586300E42274F1120BCD74E41212588A0C8B0DDE
:105873008C088D097A237B00121B748A0A8B0BAE6A
:105883000AAF0BEA4F7003025B6212650AE5082454
:1058930015125B93687003A3E0698E828F83700493
:1058A300740280027401F0E508240DF8E43509F967
:1058B3008882F583E0FAC3E49AFA95E0FB125B8FE2
:1058C3002AFAA3E03BFB8E828F83A3A3A3A31261D7
:1058D300688E828F83A3A3F0EE2420F582E43FF544
:1058E30083E4F0EE2421F582E43FF583E4F0EEFA5D
:1058F300EFFB12254C850882850983125BAE700984
:105903008E828F83A3740580069016F8125B9CF039
:10591300EE2417F50AE43FF50B8E828F83125BA703
:10592300E9850A82850B83F0EE2416F8E43FF9E556
:1059330008240EFAE43509FB88828983124F7AE53D
:10594300082410FAE43509FB850A82850B83E0FC01
:1059530088828983E0F88A828B83E0C398C39CF8AA
:10596300125BE8F0EEFCEFFDAA0CAB0D122492E9FA
:10597300F50B8E828F83E06402700612613F125B27
:105983006CE50B6003025B59750C00750D009019F3
:1059930088E064016005E06402703F125B7E60088A
:1059A300EE2421125B8170328E828F83A3A3A31214
:1059B300652C125BB4EE2416125B7A125BDDFAE4FB
:1059C30039FB12426CEA4B6011126D8E1211C41234
:1059D3005BC2AA0C12722C1211A5EEFAEFFB122570
:1059E30058E9F50B901988E064016008E0640260EF
:1059F30003025B4CE97003025B4CE50C450D70033D
:105A0300025B598003850E0B125B7E600BEE242133
:105A1300125B816003025B52850B0E850C08850DBA
:105A230009750A0078081211C4125BC28E828F8333
:105A3300A3A3A3A3127F451211A5EE2420125B7A20
:105A4300600D125B877468124F92EE24208015EE6E
:105A53002421125B7A6015125B877403F0A374012F
:105A6300F0EE2421F582E43FF583E4F0EEFAEFFB58
:105A7300122558E9F50B70907C137D0079007409A9
:105A8300121230121ACC741A1214E97401125BF355
:105A930064687002A3E0704F8E828F8312570EE00A
:105AA30064056003025A087C0879FF8E828F83A302
:105AB300A3A3A3E0242A126184121B56E9700302F4
:105AC3005A087C087D0079FF7401121230121ACC37
:105AD30074011212387A007B0079AB1224747419A2
:105AE3001214E974FC8015125B87E064037004A34D
:105AF300E06401700874191214E974FFF0E4F50806
:105B0300F50978081211C8740212123874131214AA
:105B1300E9AA82AB831266691211A58521828522C7
:105B230083E0602B74091212288808890978081207
