:020000040000FA
:0600000002144502088213
:030013000209D807
:03002B00021201BD
:0300330002108A2E
:03003B00020A2D89
:030053000207B7EA
:100083000208160100F0FF0700080000FFFF000050
:100093000504000000030001FF18102700000020E2
:1000A300FD000206FFFFFE0400000004E5C6FE0695
:1000B300001F0000AC03FE06001F00B4AC741E0357
:1000C300007701C617CC171A1E00000000000000BD
:1000D300000000000000000000000000000000001D
:1000E300000000000000000000000000000000000D
:1000F3000000003E1E0000000000000000000000A1
:100103000000000101E803D00732006400DC009422
:1001130002000000000000000000000000000000DA
:100123000000000000000000000000FF00000000CD
:1001330000000000000000000000000000000104B7
:10014300010C00020639820000000204010C0002C7
:10015300029F83000000010400008715000000E8EF
:10016300030000FFFFD81588130000E803000064B4
:10017300006400B801A0BB0D00A0BB0D0002020289
:100183000704010A1E02051E020A0A0101080801EA
:1001930003B80B02803E0102FEFFE8030A050001DB
:1001A300FFFF020A011401E00100B0423BAAB83F7D
:1001B3000000003F8C906339AA0CA33A00941E3CC4
:1001C3008042633DCFFE753E1572313F0000803F94
:1001D300F304353F8096184B000080BF2292D43E33
:1001E300DD9B2A3F04000040FFFF7F7FFFFF7FFF6F
:1001F300010080341872313F050301010F7A30008A
:10020300000000B02F00000000FF000000FF0012FC
:1002130014736046121491603DE9687008F618F68D
:1002230018F618F622748067F71202460909097452
:100233008067F722121491601D1214737005191947
:1002430019801A121320701F121334C37003E66748
:100253003319191940071818182208080874FFF6EB
:1002630018F618F618F622121334601712151170C7
:100273002192F01214FF7019501720F01408080887
:10028300090909E7F61819E7F61819E7F61819E73F
:10029300F6221214FF60E6E869701F0808E624805E
:1002A300F608E436F618547FB47F0CE654806007F2
:1002B300F6E418F618F622181822E9C6CC08C6CDBB
:1002C30008C6CE08C6CFC0E0E8C0E0EAC0E0EBC095
:1002D300E009E9F809E7FA09E7FBE6F918E6F8C3E4
:1002E300EC98ED99EE9AEBC2E7F5F0EFC2E795F0E3
:1002F300500E600CEBCFFBEACEFAE9CDF9E8CCF86F
:10030300EAA2E7D2E7FAEB33FB13F5F0EEA2E7D26A
:10031300E7FEEF33FFC5F013A2E730E601B313C5E1
:10032300F0C3C0E0C0F07F00C39BFB605E94186025
:100333000F401D14601AD0E023F9D0E0F80204182E
:100343008AF0E9486003D2F0E4AFF0FAF9F8803BB1
:10035300EB30E40D89F0EA6003D2F0E4AFF0F9CAC0
:10036300F8EB30E30D88F0EF6002D2F0AFF0E4CAAF
:10037300C9F8EB54076014FBC3EA13FAE913F9E86D
:1003830013F8EF135002D2E0FFDBEDD0E0C0E03012
:10039300E739C3E49FFFF5F0EC98FC42F0ED99FDDB
:1003A30042F0EE9AFE42F0D0E0F9D0E0F8E5F060DA
:1003B3007AE923F9EE20E742D8028067C3EF33FFDF
:1003C300EC33FCED33FDEE33FE80EAEC28FCED3933
:1003D300FDEE3AFED0E023F9D0E0F84002801BC3E3
:1003E300EE13FEED13FDEC13FCEF135002D2E0FF0E
:1003F30008B800067F7F74FF802EEF3350178CF010
:1004030020F00260100CBC000C0DBD00080EBE00F5
:100413000408E860DFE933E813FFEE2313FE4F4DD2
:100423004C8008E95480FFE4FEFDFCEE33EF33F427
:100433007004FCFD7E80D0E0FBD0E0FAD0E0F8D081
:10044300E0CFC618CEC618CDC618CCC6F9221214F2
:1004530091700418181822121473700D74FFF61893
:1004630019F61819F61819F622E7548066F61214CD
:10047300FF700F12151170F014F608F608F608F65F
:1004830080D1121511700CF608F608768008E64440
:100493007F80EC121337700C12132360BFE6548075
:1004A300F6E480BB121323700519191980A5E869B6
:1004B300700C763F18768018F618F6E8F922E6CD28
:1004C300C0E018ECC0E0E633CD33CDD313F6E71923
:1004D300FCE7191933CC33C3947F400ECD9D5024D0
:1004E30008E65480F6E418F6800FF4043D14501423
:1004F30008E6447FF6187680E418F618F6D0E0FC98
:10050300D0E0FD22CCD313CCFD18E4C6CBC0E01859
:10051300E4C6CAC0E00808ED08C633E613F618E4DB
:1005230033C675F003C3CA97CA09CB97CB199C404E
:10053300047D08802EBD00030205FA16B6FF0506EA
:1005430006081618C3CA33CACB33CB33CA27CA0922
:10055300CB37CB193CC37D08803E187D0820E75C70
:10056300C633C6CA33CACB33CB33DDF1D5F0EB3058
:10057300E77BCA97CA09CB974ACB199C406F4B704C
:1005830025E620E0218066187D08C3CA97CA09CBF7
:1005930097CB199CD3C633C6CA33CACB33CB33509C
:1005A300C9DDE7D5F0E1D3E4C636C608C636C608CA
:1005B300C636C608C636C61818188031C3CA97CAC5
:1005C30009CB97CB199CB34097C633C6CA33CACB62
:1005D30033CB33DD34D5F02EC6A2E0C640C8CA27DC
:1005E300CA09CB37194A70BECB3CB480B90808E6B8
:1005F3003308E633601F181818D0E0FAD0E0FBD0B8
:10060300E0FCD0E0FD22187D08CA27CA09CB37CB0E
:10061300193CD3808013F618E4B67F11F618B6FFA1
:100623000EF618C60470D20808768080CAF618F64B
:1006330018F680C500121491604F1214736012E70C
:10064300548066F61213207011121511703B0909BC
:1006530009F4F618F618F618F62212133470151268
:1006630014FF08080860EAE6447FF618768018E469
:10067300F618F6221214FF60161215117012E4F622
:1006830008F608F608E65480F6090909181818222E
:10069300EAC0E0EBC0E0ECC0E0EDC0E0E687F0A428
:1006A300FBACF008E687F0A42CFCE435F0FA18095B
:1006B300E687F0A42C4B60027401CA35F0FCE433E6
:1006C300FB09E687F0D2F7A42CCB35F0FC1908E63A
:1006D30087F0A42BCC35F0FBE433FD0819E687F053
:1006E300D2E7A42C4ACB35F0CD3400FC09E687F0E1
:1006F300D2E7A42DCC35F0FDE433FA0918E687F0F0
:10070300D2F7A42CCD35F0CA3400FC08E687F0D22A
:10071300E7D2F7A42ACC35F07A7E20E70B0ACB3355
:10072300CBCD33CDCC33CC33CB3350147004ED303D
:10073300E00ED2F1E4CD3DCDCC3CCC3B5005DA0507
:10074300C2F1EB547FC63308E63392F0FBE733097B
:10075300E733C39A502D2B70190C0D4C4D7015189F
:1007630006E608C333700D20F10AA2F013F6E4186D
:10077300800B4024E4F630F002768018F618F61861
:10078300F68024D33B14501074FFA2F013F61876AE
:1007930080E418F618F6800FA2F013F618E6330378
:1007A300F618ECF618EDF6D0E0FDD0E0FCD0E0FB57
:1007B300D0E0FA22C0E074F1120C45A2AFE433F5A5
:1007C30009D2AF85A708AFA1EF5508FE74105E608C
:1007D3000612189275A1EF74085E600812189875D6
:1007E300A1F78024EFA2E092F0E508A2E082F050A6
:1007F30017906198E0F8900714E0C398A2D265D0EF
:10080300335002E8F075A1FEE509A2E092AF7F0242
:10081300020CA4C0E074F2120C45A2AFE433FED282
:10082300AF9061A4E0F8759B00E591585408600807
:100833007591F71218E68023E591585410600875F6
:1008430091EF1218EC8014E591A2E092F0E8A2E097
:1008530082F05007E0C2E0F0121A369061A3E0F88C
:10086300E5E9585404600E121A0C75E9FB90619384
:10087300E0A2E640F2EEA2E092AF7F01020CA4C038
:10088300E074F2120C45A2AFE433FED2AF9061A53F
:10089300E0F8E5BF585404600675BFFB121A4E809A
:1008A300D4C3E498F8E499F91208E58026C3E49ADE
:1008B300FAE49BFBE920E7E91208E5E498F8E499F8
:1008C300F922C3E498F8E499F91208E5E498F8E406
:1008D30099F9C3E49AFAE49BFB22EB20E7CFE920E2
:1008E300E7E0B90010BB0008E88AF084F8AAF02218
:1008F300E4FBC8FA22EB70227B10C833C8C933C9A2
:10090300335007C39AC3DBF280069A50012ADBEA0D
:10091300C833F4C8C933F4C9FA2275F008E4C833FC
:10092300C8C933C933C99AC99B5004C92AC93BD51D
:10093300F0ECFBC833F4C8E4C9FA2212098930F099
:10094300391209CE803412098920F01430E72B7450
:10095300FFFCFBFA747F8022E4FCFBFA7480801AAC
:10096300B48008BC00F2BB00EF800F50EBF9E4C386
:100973009AFAE49BFBE49CFCE499C6CC18C6CB181A
:10098300C6CA18C6F922E4C9C608CAC608CBC6D364
:10099300330308CCC63392F0C3947F402E9418409F
:1009A30019C9B90704CACBCC225025C309CA33CA13
:1009B300CB33CBCC33CC33D9F422F4600DC9CCC3C5
:1009C30013CB13CBCA13CAD9F6CC22E4FCFBFA220D
:1009D30014FCFBFA22C0E0C0D0E8C0E0E9C0E0C0EC
:1009E30082C083A8C1E8C0E0900681E0F8740028C3
:1009F300F582E43406F583D0E0F0900680E0F8A3B6
:100A0300E0687006E595900683F0900681E004F0B7
:100A1300C394804002E4F0A374C6F0D083D082D0A4
:100A2300E0F9D0E0F8D0D0D0E032C0E0C0D0E8C0E8
:100A3300E0E9C0E0C082C083900704E0F8A3E06867
:100A43007008539AFBA374018022C2E9900704E063
:100A5300F8740128F0748428F582E43406F583E001
:100A6300F5C1900704E0C394804002E4F080AC0831
:100A73000808EAC0E0EBC0E086F0E7A4FA180986AC
:100A8300F0E7A42AFA180986F0E7A42AFA180986D7
:100A9300F0E7A42AFA1986F0E7A4FBE5F02AFA198D
:100AA3000886F0E7A42BFBE5F03AFA190886F0E78D
:100AB300A42BFBE5F03AFA18180986F0E7A4C5F071
:100AC3002BFBE43AFA1908E7C5F0C6A426F6E5F0CD
:100AD3003BFBE43AFA1886F0E7A4F6E5F00826F6BD
:100AE300E43B08F6E43A08F6D0E0FBD0E0FA22084B
:100AF3000808E630E7111212F8120B0A080808C6B4
:100B03004480C618181822181818E9799EC608CA0E
:100B1300C608CBC608CCC6C370207996CACBCC70A6
:100B230019798ECBCC70137986CC700EF9802ACAD2
:100B330033CACB33CBCC33CC331930E7F2CCCBCA6B
:100B43003350147004EA30E00DE4CA3ACACB3BCB0D
:100B5300CC3CCC500209C3E913C6CC182313C6CB33
:100B630018C6CA18C6F922E4CFC0E0E4CEC0E0E458
:100B7300CDC0E0E4CCC0E075F020E626F608E6330D
:100B8300F608E633F608E633F6181818EC33FCEDEE
:100B930033FDEE33FEEF33FFC3EC9709ED9709EE18
:100BA3009709EF97191919400FFFEC97FC09ED9777
:100BB300FD09EE97FE191906D5F0BFECF709EDF71D
:100BC30009EEF709EFF7191919D0E0FCD0E0FDD0D1
:100BD300E0FED0E0FF222521C582C0E0E52234FFFC
:100BE300C583C0E0E521C3958224F810AF0885834F
:100BF300228582218008858322858221D2AFCEF08F
:100C0300A3E520F0A37808E608F0A3DEFAEFF0A34B
:100C1300E58124FAF8E608F0A3E608F0A3E608F075
:100C2300A30808E608F0A3E608F0A315811581D010
:100C3300E0FED0E0F8158115811581E8C0E0EEC033
:100C4300E022C0D02521C582C0E0E52234FFC58360
:100C5300C0E0E521C3958224F310AF088583228584
:100C630082218008858322858221D2AFC8F0A3E93F
:100C7300F0A3EAF0A3EBF0A37908E709F0A3D8FA0D
:100C8300ECF0A3EDF0A3EEF0A3EFF0A3D0E0F0A31C
:100C9300D0E0F0A3D0E0F0A3E520F0A3E5F0F0A3CB
:100CA30022852283852182E0C0E0A3E0F9A3E0FA54
:100CB300A3E0FBA37808E0F608A3DFFAE0FCA3E0D7
:100CC300FDA3E0FEA3E0FFA3E0C0E0A3E0C0E0A338
:100CD300E0F5D0A3E0F520A3E0A3F5F010AF08857D
:100CE30083228582218008858322858221D2AFD009
:100CF30082D083D0E0F8D0E0321212FB1818181219
:100D03000B6A1213F4191919221213F41919190879
:100D13000808E618181820E7E0120B6A1212FB18ED
:100D2300181822090909E719191920E7DC08080826
:100D3300E618181820E703020B6A1212FB1818189A
:100D4300120B6A1212FB1818181213F4191919222C
:100D53001214EAB90003020D92E490050178767942
:100D6300148002F0A3D8FCD9FA7A767B1890008617
:100D7300788D79028015E493A3AD82AE838A828B4A
:100D830083F0A3AA82AB838D828E83D8E9D9E775DA
:100D9300822F75838E74051211787582D875832C12
:100DA300740012117875F0108E238F2485822885A4
:100DB3008327852182852283E0CEA3E0CF85288205
:100DC300852783EBC9EAC8EDCBECCAC3E833C8E98E
:100DD30033C9EA33CAEB33CBC3EA9EF526EB9FF55F
:100DE30025B35004AB25AA26EC33CCED33CDD5F097
:100DF300DAAE23AF2422121491601C12147360170D
:100E03001214FF70071215117001D322C0D01215EE
:100E1300117006D0D0B322C32233D0D0501430E0A7
:100E2300F6C3E7960809E7960809E7960809E796DF
:100E3300B32220E0D5E6970809E6970809E6970864
:100E430009E697B322121491601B121473601612F1
:100E530014FF7007121511600CB322C0D0121511C4
:100E63007005D0D022C32233D0D0501330E0EBC36F
:100E7300E7960809E7960809E7960809E796222006
:100E8300E0E4E6970809E6970809E6970809E69774
:100E930022D083D082ECC0E0EDC0E0E493A3FCE475
:100EA30093A3FDED4C600D120F6CEC24FFFCED34AD
:100EB300FFFD80EFE493A3FCE493A3FDED4C600DF1
:100EC300121035EC24FFFCED34FFFD80EFD0E0FD84
:100ED300D0E0FCE493A3C0E0E493C0E022D083D04D
:100EE30082E9C0E0E493A3C386F0C5F095F0F90866
:100EF300E493A386F0C5F095F0700BE493A3C39934
:100F03004005E9048002A3E475F002A42582F5827A
:100F1300E5F03583F583D0E0F9E493A3C0E0E493EF
:100F2300C0E022852283852182E0A3FEE0A3F52091
:100F33007808E0A3F608DFFAE0A3FFE0A3C0E0E04F
:100F4300A3C0E0E0A3C0E0E0A3C0E0E0A3C0E010E2
:100F5300AF088582218583228008858221858322AB
:100F6300D2AFD083D08202117EC0E0C3E49396084F
:100F73007401939618400FE4936670080874019304
:100F8300661870007019A3A3C3E4939608740193C1
:100F93009618A3A3400DD0E0D0E0D0E0020ED0A37A
:100FA300A3A3A3A3A3D0E02274048004740280004B
:100FB300CCC0E0EDC0E0E521C39CCCAD2250011DC7
:100FC30010AF068C218D2280068C218D22D2AF1288
:100FD30010FAD0E0FDD0E0FC2274028000CCC0E027
:100FE300EDC0E0E521C39CCCAD2250011D10AF063E
:100FF3008C218D2280068C218D22D2AF1210D8D065
:10100300E0FDD0E0FC2212149160251214736020DD
:101013001214FF7003021511080808E76670101810
:1010230019E766700A1819E76670041819E766224B
:10103300F422C0E0C0F088F0E493667008087401FD
:101043009366187000A8F0A3A3700BD0F0D0E0D083
:10105300E0D0E0020ED0A3A3D0F0D0E022D083D022
:1010630082CCC0E0E493A3600612113A1470FAE450
:1010730093A3600612127A1470FAD0E0FCE493A3EF
:10108300C0E0E493C0E022C0E074F2120C45A2AFCA
:10109300E433FED2AFE58BA2E0500579041217E4E6
:1010A300758B00C2E8EEA2E092AF7F01020CA4C0F0
:1010B30008C3E096F50808A3E096420808A3E09663
:1010C300420808A3E0964208A2D265D033E508702F
:1010D30001D3D00822CAC0E0E493A3C582CCC58261
:1010E300C583CDC583F0A3C582CCC582C583CDC5D9
:1010F30083DAE5D0E0CA22CAC0E0E0A3C582CCC54A
:1011030082C583CDC583F0A3C582CCC582C583CDFB
:10111300C583DAE6D0E0CA227009080808226016FF
:10112300181818C6C333C608C633C608C633C6085C
:10113300C633C6D5E0EA22C0E0E493A3D39C5010A3
:10114300E493A3C39C400AD0E0D0E0D0E002107D3A
:10115300A3A3A3D0E022C008C3E096F50808A3E048
:1011630096420808A3E096420808A3E09645087053
:1011730001D3D00822C09FF59FE473D09F22D08370
:10118300D082C09FE493C0E0740193C0E0740293E3
:10119300F59F222521F58210AF08F521400C152279
:1011A3008008F52140021522D2AF8522832200C098
:1011B300D0252110AF08F521500C05228008F52118
:1011C30050020522D2AFD0D0227404800A74038067
:1011D30006740280027401C0E0F404121196D0E098
:1011E3001214AD22BB0102E722C082C08389828A26
:1011F30083BB0003E08002E493D083D08222C0E06B
:10120300C0D0E8C0E0A8A8D2AFC2C7E8A2E792AFB7
:10121300D0E0F8D0D0D0E0326016080808C6C31377
:10122300C618C613C618C613C618C613C6D5E0EA31
:10123300222521F8E43522F9222521FAE43522FB7F
:10124300222521FCE43522FD22C3E0C696F608A33D
:10125300E0C696F608A3E0C696F608A3E0C696F69F
:1012630022252110AF08F521400C15228008F52115
:1012730040021522D2AF22C0E0E493A36C7009D0E0
:10128300E0D0E0D0E002107DA3A3D0E022C3E79634
:101293000809E7960809E7960809E796A2D265D0F8
:1012A3003322E76670100809E766700A0809E766E3
:1012B30070040809E76622C3E09608A3E09608A332
:1012C300E09608A3E096A2D265D03322E0667010C0
:1012D30008A3E066700A08A3E066700408A3E0664A
:1012E30022C3E096F008A3E096F008A3E096F00886
:1012F300A3E096F022181818E4C396F608E496F6CD
:1013030008E496F608E496F622C3E697F60809E69B
:1013130097F60809E697F60809E697F622181818CB
:10132300E60846087009E626087005E633F4220845
:1013330022191919E70947097009E727097005E711
:1013430033F4220922C3E493960874019396087434
:10135300029396087403939622E026F008A3E036DE
:10136300F008A3E036F008A3E036F0227004226010
:101373000D18C6C333C608C633C6D5E0F41822E633
:1013830057F60809E657F60809E657F60809E65737
:10139300F622E627F60809E637F60809E637F608DF
:1013A30009E637F622E026F608A3E036F608A3E0BE
:1013B30036F608A3E036F622E056F608A3E056F622
:1013C30008A3E056F608A3E056F622E647F6080916
:1013D300E647F60809E647F60809E647F622E05627
:1013E300F008A3E056F008A3E056F008A3E056F097
:1013F30022E4C397F709E497F709E497F709E49719
:10140300F722600D08C6A2E713C618C613C6D5E0B7
:10141300F322C6F4C608C6F4C608C6F4C608C6F462
:10142300C622C3E09608A3E09608A3E09608A3E0CB
:101433009622C3E7960809E7960809E7960809E79D
:10144300962275D00075813F752101752205000232
:101453000D53600C08C6C313C618C613C6D5E0F4F3
:1014630022E6F008A3E6F008A3E6F008A3E6F022DC
:10147300E7094709C3134709336002E733F422E05E
:10148300F608A3E0F608A3E0F608A3E0F622E608D0
:101493004608C3134608336002E633F42280010092
:1014A300E9F874FF28F90470F622CAC0E0E6F0A355
:1014B30008DAFAD0E0FA22E0F8A3E0F9A3E0FAA30D
:1014C300E0FB22E8F0A3E9F0A3EAF0A3EBF022EAC1
:1014D300F0A3EBF0A3ECF0A3EDF022E0FAA3E0FB22
:1014E300A3E0FCA3E0FD22E5C754F84401F5C77966
:1014F30001222521F582E43522F58322E6261846CA
:101503001846184622C2AF75D69F02000022E7276D
:1015130019471947194722121181A8E002121181B4
:1015230042E102121181B2E102121181E1E10212E0
:101533001181E7E20212118111E30212118165E3C5
:101543000212118139E40212118167E6021211813C
:1015530015E70212118182E90212118107EA0212D0
:1015630011810AED021211813EEF021211817AEF0D
:1015730002121181D3F002121181E6F002121181DD
:1015830023F102121181ECF2021211815570001243
:101593001181D17000121181047100121181327115
:1015A30000121181707100121181AD73001211814B
:1015B300CC7300121181117400121181A7740012EF
:1015C3001181F37400121181877500121181607605
:1015D30000121181BC76001211811A770012118159
:1015E3008D7700121181D1770012118129780012B1
:1015F30011814B7800121181DB78001211816C7913
:1016030000121181B87900121181E479001211815D
:10161300257A00121181BB7B00121181A77C001275
:101623001181827D001211811B9404121181AF94E8
:10163300041211811795041211813C960412118131
:10164300C696041211815197041211818D970412C9
:101653001181269804121181BB98041211818E996D
:1016630004121181709B04121181669C0412118172
:10167300059D041211815A9D04121181C89D041203
:101683001181D4A004121181FEA204121181FFA3BF
:10169300041211813DA50412118148A50412118180
:1016A3007A8505121181A68505121181C18505125E
:1016B3001181E68505121181868605121181458700
:1016C300051211816F8705121181B7FF0412118171
:1016D300BCFF04121181EFFF04121181B0E1041267
:1016E30011814CE204121181D5E20412118176E3D7
:1016F30004121181DBE304121181FEE30412118150
:1017030042E4041211815FE404121181A4E404127F
:10171300118102E50412118155E5041211818AE554
:1017230004121181FA8905121181B98A05121181F6
:101733009E8B05121181279A05121181389A051281
:101743001181D69A05121181E19A05121181FB9A32
:1017530005121181F97F00121181E79F0512118192
:10176300509C05121181609C05121181759C051214
:101773001181DB9C05121181239705121181A79713
:10178300051211810F9805121181ADFC011211810F
:10179300C1FC0112118137FD0112118186FD011275
:1017A3001181BBFD01121181E0FD0112118103FEC4
:1017B300011211813EFE011211816BFE0112118192
:1017C300B2FE01121181CCFE011211816BFF0112D5
:1017D3001181289905121181AF9905121181B899C8
:1017E30005121181DF9905121181BE7F001211814B
:1017F3008CFD03121181D6FD031211816CFE0312BD
:101803001181F2FE0312118124FF031211813CFFA7
:1018130003121181B0FF03121181C6FF031211815C
:10182300D9FF03121181E3FF0312118158CF041270
:10183300118184CF04121181EED1041211812ED2B1
:10184300041211816AD2041211817ED20412118111
:1018530097D20412118189D3041211813CD404124A
:10186300118150D4041211815C7E00121181807E9B
:1018730000121181997E00121181D77E001211810D
:10188300077F00121181347F001211819A7F0012A9
:1018930011819D7F00121181A77F00121181B47FF6
:1018A30000121181D38205121181F3820512118175
:1018B3003283051211815083051211816B83051246
:1018C3001181D18305121181DD83051211813A84BF
:1018D300051211814984051211816D84051211814C
:1018E3002E85051211813B85051211814C85051248
:1018F3001181B8FF02121181D0FF02121181FCFF86
:1019030002121181A6D40412118100D6041211818E
:101913000ED60412118121D60412118136D6041277
:1019230011814BD6041211815ED604121181DAD6CD
:10193300041211813FD704121181D5D704121181EA
:10194300AED804121181BED804121181CDD804126D
:101953001181B79B05121181DB9B05121181039C39
:10196300051211812B9C051211815AFD041211815C
:1019730081FD041211819FFD041211810EFE0412D8
:1019830011810080051211811980051211812580B2
:1019930005121181398005121181578005121181B9
:1019A3006180051211816B80051211817E80051201
:1019B3001181048105121181798105121181A88198
:1019C30005121181F68105121181458205121181DB
:1019D3006082051211816A82051211817B820512D0
:1019E3001181BE8205121181DE9E05121181E9BEAD
:1019F3000412118115BF0412118132BF0412118127
:101A030045BF0412118160BF04121181BABF0412D1
:101A13001181E8BF04121181F8C30412118156C564
:101A23000412118188C504121181EBC504121181BE
:101A330057C7041211817FC70412118194C704127E
:101A43001181A4C704121181E4C70412118126C8AD
:101A53000412118136C804121181B9920512118141
:101A6300D39205121181FB92051211811493051271
:101A730011813893051211815693051211816D93CB
:101A8300051211819B9305121181B69305121181E1
:101A9300299F051211819EED04121181AEED0412EE
:101AA3001181B3EE04121181E5EE0412118115EFD9
:101AB3000412118138EF041211814FEF04121181C6
:101AC30089EF04121181EEEF0412118130F0041238
:101AD300118177F004121181A4F004121181CFF067
:101AE3000412118123900512118135900512118181
:101AF3004991051211814C91051211811D96051210
:101B030011815396051211816B9605121181AD96C1
:101B130005121181BD9605121181019705121181DC
:101B23000B970512118166C804121181A9C804120A
:101B330011810EC9041211812DC904121181CFC95B
:101B430004121181D8C90412118129CA0412118106
:101B530052CA041211815FCA04121181D1CA04123C
:101B630011815FCB04121181A4CB04121181DDCB4F
:101B73000412118142CC041211816BCC0412118125
:101B8300E2CC0412118131CD041211816ECD041205
:101B93001181A3CD04121181B5CD04121181C7CDDA
:101BA30004121181E6CD04121181EFCD04121181CB
:101BB300ABCE04121181EECE041211812CCF04128C
:101BC3001181279E05121181799105121181BC871C
:101BD30005121181F287051211813A8805121181CC
:101BE3009389051211810080041211812681041248
:101BF30011816281041211812083041211814E83A9
:101C030004121181B88504121181F885041211811F
:101C13009A87041211813088041211818A88041270
:101C230011811A89041211815E8904121181A0891C
:101C330004121181058B04121181858C0412118108
:101C4300C68E04121181F48E04121181208F0412A6
:101C53001181298F04121181868F041211811F9023
:101C630004121181369304121181BC930412118161
:101C73005A9D05121181709D05121181C1E504124F
:101C83001181D7E5041211817BE604121181BAE6B2
:101C930004121181D7E60412118108E7041211819D
:101CA30055E70412118189E704121181C4E7041274
:101CB3001181B9E9041211812898051211818798BD
:101CC30005121181C598051211810699051211811A
:101CD3000A9B05121181739B05121181939B0512B7
:101CE3001181079505121181C59505121181008097
:101CF300021211810C80021211816E800212118175
:101D0300788002121181078102121181438102122C
:101D13001181358202121181928202121181208374
:101D230002121181718302121181F1830212118156
:101D3300B78502121181B18702121181B388021291
:101D43001181E589021211813B8C021211817D8D73
:101D530002121181238E02121181E192021211816A
:101D6300DE9302121181749402121181A49402125F
:101D730011814195021211815E95021211817E95A6
:101D830002121181EC95021211810996021211813E
:101D9300379602121181D19702121181F297021222
:101DA3001181989802121181E098021211813E99D3
:101DB30002121181DC9902121181419A02121181DE
:101DC300AA9A02121181E89A021211819A9B0212B5
:101DD3001181059C02121181419C02121181B29C56
:101DE30002121181FD9D021211818D9F0212118138
:101DF30026A00212118177A202121181DCA2021223
:101E030011810AA30212118150A80212118114AB8D
:101E13000212118114AC0212118125DE0312118109
:101E230045DE031211817DE1031211817AE303126E
:101E3300118117E60312118159E7031211818BE710
:101E430003121181B4E703121181DAE7031211813E
:101E530026E803121181BFE9031211811FEA03125D
:101E630011812BEB031211813DEB03121181F1EB75
:101E73000312118102EC03121181DDEC03121181B3
:101E8300E6ED031211815FEE03121181F8EE0312E6
:101E93001181C7EF0312118113F103121181E0F1D4
:101EA300031211816D9F0512118127F10412118113
:101EB300E6F1041211814CF204121181FBF20412B7
:101EC3001181CEC803121181FDC80312118175C996
:101ED3000312118184CA03121181E0CA0312118112
:101EE3004DCC0312118169CC03121181BBCC0312B7
:101EF3001181F9CC031211810CCD0312118164CD30
:101F03000312118126CE03121181A2CE0312118175
:101F1300D9CE0312118111CF0312118199D003126B
:101F2300118178D103121181C6D203121181A9D371
:101F33000312118135D40312118175D40312118157
:101F430094D403121181DFD403121181FFD403123D
:101F5300118198D5031211811ED60312118179D6EE
:101F630003121181B9D6031211814FD903121181C2
:101F730068DA03121181AEDA03121181D8DB03127E
:101F8300118100DC0312118103DC031211810DDCCA
:101F93000312118129DC03121181A3DC03121181C5
:101FA300DCDC0312118108DD031211812FDD031222
:101FB300118153DD03121181C4DD03121181D7DDB9
:101FC3000312118106DE03121181E59C05121181B2
:101FD300F19C05121181259D05121181F67F0012D6
:101FE3001181B6B203121181D9B2031211811EB449
:101FF3000312118167B403121181D3B40312118147
:1020030031B503121181A3BE0412118185B50312E8
:102013001181FAB5031211817FB60312118182B6C1
:102023000312118103B70312118164E002121181BB
:1020330030BB03121181DABC031211812ABD0312D2
:102043001181B9C003121181ECC10312118141C383
:1020530003121181DEC303121181C9C4031211815A
:102063002CC70312118187A50412118131A6041212
:1020730011819CA604121181B7A6041211813CA7F9
:102083000412118196A704121181DDA70412118194
:102093006EDE02121181C3A904121181F2AA041285
:1020A30011817AAB0412118183AD0412118130AE18
:1020B3000412118106AF04121181C1B004121181FF
:1020C30059B204121181ECB20412118112B4041238
:1020D3001181008003121181638003121181AB808F
:1020E30003121181EF80031211814A8103121181BE
:1020F300A78103121181E281031211816482031209
:102103001181BE82031211813C8403121181BC84AC
:102113000312118117850312118131850312118175
:10212300528503121181AC85031211812888031291
:1021330011814788031211813789031211816A8A39
:1021430003121181E98A03121181258B0312118174
:10215300948B03121181498C03121181218E031276
:102163001181288F03121181A0900312118196927D
:10217300031211810C9503121181E696031211814A
:10218300A797031211811F98031211813698031226
:1021930011812D9903121181219A03121181909AB1
:1021A3000312118192F704121181E9F804121181CB
:1021B300A8F90412118110FA041211816DF40412AA
:1021C300118188F404121181CCF404121181F2F408
:1021D3000412118119F50412118131F504121181D0
:1021E300D3F504121181E8F5041211810BF70412DF
:1021F300118114F7041211811DF70412118126F7BE
:102203000412118130F704121181FED804121181D6
:102213000ADD041211810FDD0412118111DD041294
:102223001181B08E05121181C99F0512118184FAA3
:1022330004121181E99305121181C69D05121181C2
:10224300208C051211819D9F05121181C6E904128C
:1022530011817F9E051211818F9E0512118178DDF8
:1022630004121181FDAF0212118130B002121181EB
:102273009CB00212118137B102121181D4B1021242
:10228300118119B2021211813BB20212118154B2AF
:10229300021211817AB2021211819CB202121181CF
:1022A300DAB2021211811EB30212118140B302127B
:1022B3001181A2B30212118169B40212118120B5F6
:1022C3000212118192B5021211815DB602121181BF
:1022D300B0B60212118116B70212118150B7021261
:1022E3001181A2B70212118110B8021211817BB8B9
:1022F300021211817EB802121181FFB802121181FC
:1023030096B90212118116BA0212118135BA02125C
:10231300118199BB02121181A6BB02121181B2BCB9
:1023230002121181BFBC02121181C8BC02121181B9
:10233300A0BE02121181BABF0212118133C0021270
:102343001181A5C002121181C7C0021211815BC1A4
:10235300021211812FC30212118106C702121181C9
:102363001AC7021211812AC70212118134C702123D
:1023730011813DC70212118146C70212118150C754
:10238300021211817DC702121181A6C702121181A7
:10239300B1C702121181D5C702121181F9C7021206
:1023A300118163C802121181A9C802121181C6C822
:1023B3000212118143C9021211817AC902121181D9
:1023C300B9C90212118106CA021211818CCA021202
:1023D30011815ACC02121181DDCC02121181C1CDBF
:1023E3000212118128D00212118181D002121181AF
:1023F300CBD00212118126D2021211815BD20212BA
:102403001181ADD20212118162D30212118111D452
:10241300021211814ED402121181E3D402121181EE
:102423004FD502121181BB8301121181ED83011279
:1024330011811B8401121181F18501121181D18651
:1024430001121181298701121181648801121181FE
:10245300B08801121181D98B01121181CC8E011226
:1024630011811C9001121181B29001121181BE9051
:1024730001121181F09001121181739201121181E5
:10248300249401121181B89401121181FB94011259
:102493001181799501121181969501121181C695C9
:1024A30001121181FB9501121181CB960112118149
:1024B300749701121181FA99011211811A9B011269
:1024C3001181059C01121181879C01121181BBA00E
:1024D30001121181F8A00112118150A10112118181
:1024E30083A101121181EDA10112118123A2011215
:1024F3001181AEA20112118106A301121181DDA384
:102503000112118196A40112118131A501121181C9
:1025130039A80112118155A901121181F8AC0112D8
:102523001181ECAD01121181EFAD011211811EAECB
:102533000112118124B001121181FDB00112118128
:1025430040B10112118196B201121181D5B201126B
:1025530011815EB30112118192B30112118157B43B
:10256300011211816FB601121181E0B601121181BE
:1025730020B701121181AEB701121181D0B8011237
:10258300118192B90112118199BB01121181B1BB61
:1025930001121181C5BB01121181FDBB0112118111
:1025A3002BBC01121181AABD01121181CFBE0112F0
:1025B30011812CBF01121181DEBF0112118105C0EF
:1025C30001121181CCC00112118164C10112118168
:1025D3008AC301121181BFC30112118122C40112E6
:1025E300118151C501121181F9C5011211812AC648
:1025F3000112118142C601121181D1C6011211814A
:1026030085C9011211815DCB0112118179CB0112B0
:10261300118195CB0112118163CC0112118156D026
:10262300011211815E330012118190330012118166
:102633007F3700121181CB3700121181113800123C
:102643001181B338001211810F39001211815439ED
:10265300001211819B3A00121181AF3B00121181CC
:102663009E3F001211812240001211812F4100125E
:1026730011818B41001211817B4300121181F043C0
:1026830000121181FA4300121181074400121181D3
:10269300324400121181194500121181C345001201
:1026A30011814146001211816146001211818A464F
:1026B30000121181AC46001211810C4900121181E4
:1026C300D24900121181174A00121181944A001253
:1026D3001181454B00121181774B00121181BD4BC3
:1026E30000121181F94B00121181494C0012118122
:1026F3009D4C00121181F34C001211813F4D0012C9
:102703001181AC4D00121181274E00121181F24F3D
:1027130000121181F250001211811752001211811F
:102723005655001211816958001211812659001261
:1027330011816A59001211811A5B001211812E5BFB
:1027430000121181385B00121181425B001211816A
:102753004E5B001211816A5B00121181155C00123D
:102763001181545C001211815E5C00121181685C5E
:1027730000121181D85C00121181235D00121181B6
:10278300385E00121181945E00121181155F0012F0
:102793001181D45F00121181DD6000121181116279
:1027A30000121181FF62001211811763001211815F
:1027B300726300121181906300121181D8630012B9
:1027C3001181FF63001211819A6400121181606507
:1027D30000121181F265001211816C6600121181E1
:1027E3008667001211813368001211815B69001240
:1027F3001181AB69001211810F6A00121181716A94
:10280300001211819F6A00121181C36A00121181A3
:10281300F86A00121181296B001211815C6B00129E
:1028230011817C6B00121181E46B00121181D86C51
:1028330000121181336D001211815C6D0012118140
:10284300E46D00121181676E00121181926E001205
:102853001181776F00121181A3F402121181DBF44D
:1028630002121181FCF4021211813EF50212118150
:10287300A0F502121181AAF502121181BAF5021212
:102883001181F5F502121181D5F902121181C2FBF2
:1028930002121181A8FD021211813FFE0212118161
:1028A300E1FE021211819CD1011211811AD201128F
:1028B300118176D201121181C1D201121181DCD2B0
:1028C3000112118107D30112118124D30112118145
:1028D30030D301121181C7D401121181E0D4011246
:1028E300118165D50112118178D50112118197D516
:1028F300011211813BD601121181BCD70112118142
:102903006FD90112118105DA0112118108DA01125E
:10291300118178DA0112118196DA011211812DDB0E
:102923000112118175DB0112118178DB0112118112
:102933003EDC01121181ABDC01121181D1DC0112E9
:1029430011815CDD011211817ADD01121181C0DD7B
:102953000112118174DE01121181BEDE0112118197
:10296300EDDE011211814ADF011211817FDF0112B5
:102973001181ABDF01121181B9DF0112118106E070
:102983000112118176E001121181BFE00112118160
:102993000BE10112118137E10112118142E10112B0
:1029A300118160E1011211814BE20112118155E2A3
:1029B3000112118190E201121181A0E20112118131
:1029C300A9E201121181FDE20112118111E3011249
:1029D300118140E40112118155E401121181E3E4F4
:1029E3000112118128E501121181B4E5011211814F
:1029F300BFE50112118101E7011211811CE70112E8
:102A0300118168E701121181D7E70112118110E8E2
:102A1300011211812AE8011211816CE8011211815E
:102A23003CEB01121181E9EB0112118156EC011209
:102A3300118196EE01121181AEEE01121181B1EEF8
:102A430001121181BDEE01121181D1EE011211812A
:102A5300D9EE011211810CEF011211810EF0011256
:102A6300118195F00112118105F10112118187F194
:102A73000112118148F20112118167F201121181D1
:102A830008F30112118165F30112118168F3011238
:102A93001181DCF3011211812BF50112118131F641
:102AA30001121181BCF601121181D7F701121181B4
:102AB3009FF801121181D0F801121181F3F801126C
:102AC3001181FCF8011211812BF901121181BBF95B
:102AD3000112118171FA01121181E6FA01121181B9
:102AE3008DFB0112118102FC0112118139FC0112CB
:102AF300118177FC0112118113E0021211816FBE63
:102B03000412118118BE0412118186BC04121181B2
:102B1300D8BB04121181CEBB04121181C4BB0412B1
:102B230011815DBB0412118149BB04121181A6BA44
:102B330004121181A6B904121181BFB804121181C4
:102B4300AFB60412118162DF0212118144B703127E
:102B53001181BDB5041211815BB5041211813EDEF2
:102B63000212118192DD02121181A2B203121181AC
:102B730098B2031211812DB20312118161B00312B5
:102B830011811FB00312118123AF03121181F7AE1C
:102B930003121181AEAE03121181EFAD0312118145
:102BA300F2AA03121181C7A8031211816EA803129E
:102BB300118101A803121181C0A703121181F9A683
:102BC3000312118193A60312118132A603121181FC
:102BD300D2A503121181A9A4031211813DA40312EA
:102BE300118195A30312118190A30312118184A370
:102BF30003121181B79F031211812BDB0212118182
:102C0300E2D70212118136D702121181A4D6021221
:102C130011815ED60212118129D602121181F6D5D5
:102C230002121181919F031211812F9F03121181AF
:102C3300D19E031211818F9E03121181E1D50212DD
:102C430011817C9E03121181719E03121181409E9A
:102C530003121181309C03121181CEDE0212118105
:102C6300A39B0312118144A8041211815F9B0312D9
:102C73001181339B0312118126FD03121181F9FC8B
:102C830003121181C6FC031211819EFC03121181F0
:102C93003FFC031211811FFC03121181EAFB031293
:102CA300118196F8031211817EF60312118168F4E3
:102CB30003121181E8F30312118194F303121181BA
:102CC300A0F203121181B6D50212118148F3031247
:102CD300118134B50300000080FB000022E4738FF0
:102CE3000001009719870001009519350004005E63
:102CF3001925000200621926000200641927000248
:102D03000066192800010070192900010071198457
:102D130000040064168600010084182A0001007272
:102D2300192B00010073192C00010077192D0008DD
:102D33000070162E00010078192F00010079193058
:102D43000001007A19310001007B1932000100787B
:102D530016330001007916340001007C1936000196
:102D6300007A16380001007D1939000100761983B5
:102D730000020093196300010086166400010074C9
:102D8300196500010075196D0001008716710008AF
:102D9300006816660001009219430001008319447C
:102DA30000020084194500010086194600020087CD
:102DB30019470008007E164800010089194B0001DD
:102DC300008A19040001009619A10001009A19371D
:102DD30000010099198800010098193C0001007B4B
:102DE300163D0001007E19490002008B196700019E
:102DF3000088164D0002008D194E0001008F194FF7
:102E030000020090193E0001008219510001007C6C
:102E1300165200010080195300010081195400016A
:102E2300007D16000000000000000000002001B536
:102E330083000001002001B783000002002001B9D4
:102E430083000003002001B6830000040042014513
:102E53008200000500420168810000060042012053
:102E630082000007003001BA830000004042018D58
:102E7300820000FEFF2101B38303000000212359D8
:102E8300150300FEFF2101B383020400002905148A
:102E93001902041002292304190304000029051A46
:102EA300190304100029051C190304140028011E2A
:102EB30019030410022B2306190504000021051829
:102EC300190504100229230A190D04000039050EFF
:102ED300190D0402021023F7180D0403021023F640
:102EE300180D0404022123F8180D0405022123FA06
:102EF300180D0411F110230C1900013636010100DD
:102F0300010201000103010001040106060502009C
:102F130000070100340801000F090401010D01003D
:102F2300FF0E08000017020000190100FF1A01003C
:102F3300011B0100FE1C0100081D0200001F01000F
:102F43000120010001210200002301000F240200DF
:102F5300002601000127010008280200FF2A0100C2
:102F6300072B0102402C0100002D0100012E01005E
:102F7300012F0100FF30010B1D310800003A010051
:102F8300083B01000F3C0100013D0100FF3E04002E
:102F93000042040000460400004A0400004E0400FE
:102FA3000052040000560400005A0400000103719B
:102FB30003010301030103010301032203020301CC
:102FC30003100300030003000300030003000300D6
:102FD3000342030003240306030003000304031254
:102FE300032503230325032303040304030003002E
:102FF30003000344030003000323030003650321C9
:1030030000350381030003050300030003000300ED
:1030130003250323030302710230016002110270CE
:10302300020102020202028002100261023A00411E
:103033000063027302720262024302000213023847
:103043000000020002040212020002000200020059
:103053000204020402370037003C02440200023932
:10306300000002000265020002350281020002052F
:10307300028202830200020300710030016000112A
:103083000070003102200350048000100061000032
:103093000014006300730072006200430000001319
:1030A3000006000000000004001200000000000001
:1030B30000000004000400370037003C0244000015
:1030C30000000000000000650000003500810000E2
:1030D30000050000008300000001017101010101EE
:1030E300011101010131010101010180011001619F
:1030F300013B00140063017301720162014301008B
:1031030001130106013D0135000401120100010014
:10311300010001000104010401330133013C0144B6
:103123000132013600000100016501000135008113
:10313300010001050182018301000136000100063F
:103143000000000F0000000000000000000000006D
:103153000003FFFF00000403FFFF0000FFFF0FF465
:10316300010005C4040320000100000B000000005F
:103173000000000003010F00000000000000000039
:10318300000000000000000000000000000000003C
:10319300000000000000000000D81D021EDE1D0C10
:1031A3001DE41D081EE41D141EEA1D0C1DE41D086C
:1031B3001EF01D0C1D00000000F61D0C1D0000007C
:1031C3000000000000FC1D0C1D00000000000000BA
:1031D30000000000000000000000000000000000EC
:1031E30000000000000000000000000000000000DC
:1031F30000000000002B040000390521192B0410E6
:103203000228230D192B0404022123FC182B040587
:10321300022123FE180C005500390525190C0085E1
:1032230001390529190C000402212300190C00059A
:1032330002212302190000662C0100662C0200D231
:103243002C0280002003000C2004001220048018AC
:103253002005001E2006004C2B31003C2033004289
:103263002034004820FFFF000007ECFDFDFDECDCEF
:10327300DCCCBCACAC9C9C8C7C7C6C6C5C5C5C4C9B
:103283004C3C3C2C2C1C1C03EAF5E5D5D5C5B5A557
:10329300959585857575656555554545353525255B
:1032A3001515050A9C26026626057226076C260C50
:1032B3004E260D5A26FF000000160F00000B150BBB
:1032C300020002220F3300000E0F5A696742656540
:1032D300416C6C69616E63653039D0D1D2D3D4D57A
:1032E300D6D7D8D9DADBDCDDDEDF30301718192189
:1032F300301B1D1F3000034D4C4651181A25050283
:103303000001191618161618230300303016181961
:1033130020231A1C1E30003C40423A3F3F392F47BE
:10332300300C0E020B040B0A0708000F0204020103
:10333300010101090200BE040AE8030000010003C1
:1033430000E8031A001E04091A0803101E030A0CDE
:10335300040A082802180A10150AFF74F7120BD979
:10336300E990175BF0901710E4F0121AE4901773CA
:10337300E4F0A3F090175CF0A3F01227EC121AEA22
:10338300901698E4F0A3F01221EC024CC474F012EE
:103393000BD974D31212641267205480606690179D
:1033A3005BE0F9121B5C8A088B09AF09EA4F604C9A
:1033B3007C0080010CEC75F003A4F8A9F074A62836
:1033C300F582743239F583E493F46029E493F88A3F
:1033D300828B83E06870DDEC75F003A4F874A72892
:1033E300F582743239F583E493C0E0740193F58375
:1033F300D082122CE0AA08EFFB121B4A126E526411
:103403008002375F852182852283A3E05420601FD9
:103413001227028A088B09AF09EA4F600A12265A5B
:10342300AA08EFFB121B4A126E52642002375F8513
:103433002182852283E0A2E05042901715E0640FB9
:10344300702E9009F0126E5D9009F0C3E094E9A329
:10345300E09403400A7A007B80901587124DA67989
:1034630000122630E9600990195E1214DE12264814
:10347300852182852283E06401023744542070034E
:103483000237497A207B0090175BE0F9121CA6EA09
:103493004B4C4D701A90176F1214BAE8494A4B708F
:1034A3000E750801750900750A00750B00806D75AE
:1034B3000C00750D00750E00750F00121CB28A0802
:1034C3008B098C0A8D0B90176F1214BAE8494A4B7B
:1034D300603190176F7808121159400E750CFF7503
:1034E3000DFF750EFF750F7F801985080C85090D7B
:1034F3008C0E8D0F90176F780C12124C7401780C90
:1035030012121B850C08850D09850E0A850F0BE524
:10351300084509450A450B70030236A37C0079046C
:103523007A007B001226D88A0C8B0DAE0CAF0D02ED
:1035330035E774021214F574FFF074031214F57472
:10354300FFF074041214F574FF124E191265DA7445
:1035530007121244126890E96401706A12376B44CF
:1035630080F8A3E0F974281214F5E8F0A3E9126BCC
:1035730024E0C0E0742A1214F5D0E0124E06540879
:10358300601674281214F5A3E04401123778C0E0E2
:10359300742C1214F5D0E0F01267636011E8240B69
:1035A300123F5EF874161214F5E8F0A3E4F090836A
:1035B30033120FAB7406121244740B12123C122313
:1035C3005474041211B18E828F83A3A3A3A3A3A364
:1035D300A3A3A37406123778F91226BA740512143A
:1035E300F51268E7EE4F70030236A37C007904EE10
:1035F300FAEFFB1226D874051214F5EAF0A3EB12C6
:103603004B30E0F50CA3E0F50DE4F50EF50F78086B
:10361300790C1214354023EE2404F8E43FF98508AD
:103623000C85090D8882F583C3E0950CF0A3E09522
:103633000D126F47E84970A4800C8E828F83A3A379
:10364300A3A3E4F0A3F08E828F83A3A3A3A3A3A3D6
:10365300A3A3A3A3E064018E828F83A3A3A3A3A345
:10366300A37020E0540460030235358E828F83A358
:10367300A3A3A3A3A3A3A3A37406F07AB712389EAC
:103683000235DFA3A3A3A3E060030235358E828F47
:1036930083A3A3A3A3A3A3A3A3A37401F00235DF6E
:1036A3001226A87C0079017A007B001226D8EA4B07
:1036B3006003124D9F7C0079047A007B001226D8A8
:1036C300EA4B701380448A828B83A3A3A3A312685B
:1036D300FFEE98EF99400B8A828B83A3A3A3A312D7
:1036E30068E77C0079041226D88B0BA90BEA497092
:1036F300D5C3E5089EE5099F500DC3EE9508FEEF7F
:103703009509FFEE4F700D124D9F90176F12377191
:10371300A3F08024EE2EFEEF338E08F509E4F50ABC
:10372300F50B78081211CC7A201239471211B11215
:103733001CB290176F1214D2852182852283E06414
:1037430020FAA3E08016A3E054046013125FB712BB
:103753002C307901124125126E526404FB80047AE5
:10376300007B00742D02673FEE12674DE022E4F008
:10377300A3F0A3F022124E0BA3A3E022C082C083C6
:1037830074EA1212647C167D007900AA21AB22121E
:103793001B3274081214F57402F09017041261F3CB
:1037A3001237BF74091214F512620B74131214F555
:1037B300E4125E8A1221E074160250D5E8F0A3E900
:1037C300F090170E1268CF2274F7120BD974DA1225
:1037D3001264EAFEEBFFEA4F602DAC21AD22122703
:1037E3002074061214F5E0601E74171214F5E0FD40
:1037F30074011214F5E0FCEEFAEFFB7900122606D1
:10380300E9600479A4800279007426024CC174F73C
:10381300120BD9EAFEEBFF8A82F583A3A3A3A3A32A
:10382300A3E0544060178A828B83126700124FE42F
:1038330060067AFF7BFF80151266FC8003901704F5
:103843001265DA74FE6A700374FF6B60411266FCE2
:103853001267261227B6E98E828F83600B1262E904
:10386300126F12E4F0A38003126F01F07C367D2601
:103873008E828F8312465AE9F5087015EE4F600960
:103883007901EEFAEFFB1226B4A908024CC47508BD
:10389300CDAA0812389EE960E380EE8E828F8312F0
:1038A30062ED240CF582E438F583E0F91226422216
:1038B30074F6120BD9E9FEEAFF7A0F7B00121B4460
:1038C300EA4B601A8A828B83740CF0EEA3A3F0EFA9
:1038D3008A828B83124A7F125EE87900802BEEF98D
:1038E3001226DE8B09A909EA49601C8A828B83A30D
:1038F300A3A3A3A3A3A3A3A37406124A88E0F91264
:1039030023F6EEF91226BA7910025CD374F4120B83
:10391300D98A088B098C0A8D0B901715E0640F70F8
:103923001EEA4B4C4D6018901710E064086005E0E8
:103933006404700B78081211CC1239451211B102CC
:103943003BAA7A017B0090175BE0F9121C94740484
:103953002274F4120BD974FC121264EAFEEBFF8A90
:1039630082F583A3A3E0F91226DE8A088B09EA4BCA
:103973007003023A8D8E828F83A3A882A983E0C04D
:10398300E0EA125EDED0E01248EE64F160288E8237
:103993008F83A3E064CD601E8E828F83A3E0641ABD
:1039A30060148E828F83A3E064E9600A8E828F8322
:1039B300A3E064E1703379001226B4E9602BE508D3
:1039C3002404F50AE43509F50B850882850983A3E8
:1039D300A3A3A3A3A31249C41248CC121AF6850ABF
:1039E30082850B8312672680708E828F83A3E0C04B
:1039F300E074021214F5D0E01250E312520612439F
:103A030074C0E074031214F5D0E0F0E508126BCF34
:103A130012401DE0AA21AB22700512234E8003122F
:103A2300279E74021214F5E064E9702D85088285DF
:103A33000983124183750A01780A1211D8750AE9BC
:103A4300780A1211D81248A0124341FCA3E0FD8A60
:103A5300828B8312436B1211B1850882850983A37C
:103A6300A3A3A3A3A3A3A3A3E06402701285088264
:103A7300850983A3A3A3A3A3A3A3A3A37406F08E7F
:103A8300828F83A3A3E0F91226BA1226A8901964A1
:103A9300123F8F7404023BA774F4120BD9EAFEEBB6
:103AA300FF7508008A82F583A3A3A3A3A3E060386C
:103AB3007508081265CD79FF122486EA4B601075EC
:103AC300082C8E828F83A3A3A3A3A3E0D2E0F08E5E
:103AD300828F83A3A3A3A3A3E0540364016003021F
:103AE3003B96430811023B96EA24181254CC6036E5
:103AF300EA241A1254CC6003F470131268AF7003F3
:103B0300A3E0696003023B96750822023B96EA2410
:103B13001B123B9A241A1254CCFAEE24191254CCD9
:103B2300F91223E4806D8A828B83A3A3A3A3A3A3A7
:103B3300A3A3A3123F7A70037508018E828F8312A9
:103B430068B37003A3E0697006E508D2E1F508E500
:103B53000860158E828F83A3A3E07006E508D2E583
:103B63008004E508D2E6F508124FD764017006E534
:103B730008D2E0F5088E828F83A3A3E06015EE24BC
:103B83001D1257EBF91227A4E964016006E508C288
:103B9300E0F508A9088010F582E43FF583126F6A07
:103BA300EA2274091211B17F04020F2674F0120B7A
:103BB300D974D7121264EAFEEBFF8A82F583A3A3BA
:103BC300A3A3E0600E90196212676A6006901962FF
:103BD300123F8F74031212448E828F83A3A3A31206
:103BE30060B61265D8122720E97003023D407801C0
:103BF30074051214F5E0C3940240027800740712AE
:103C030014F5E0C3940240027800740C1214F5E03A
:103C130064F87003A3E0F47003023D40740C1214C3
:103C2300F5E064F97003A3E0F47003023D40740C03
:103C33001214F5E064FA7003A3E0F47003023D404C
:103C4300740C1214F5E064FB7003A3E0F470030238
:103C53003D4074061214F5E0F99016FEE069600326
:103C6300023D40E8A2E04003023D4074271214F5F0
:103C7300E06003023D40EE24131268C5742212145F
:103C8300F51260C0241C1268C574101214F5126278
:103C93000B74091214F5E0601D741A1214F5E0FD9B
:103CA30074041214F5E0FC8E828F831265D87901B7
:103CB300122606E9703B740312123C122654E9F5EE
:103CC3000C74091214F5E0702C9016F8E060267459
:103CD30022596422601F7442596442701474201282
:103CE30014F5123F74600E74201214F5123F6D60C8
:103CF300047ACF804AE9A2E6504D74201214F512DB
:103D030057F124FD600F14600C24FD600824FD604E
:103D13000424FE702874201214F5123F66700E748A
:103D2300201214F5125E17A3E0640D601A740312D7
:103D3300123C1227CEE96401700D023F567AD37B01
:103D430000121FDC023F56EE242DF582E43FF5837B
:103D530012417A7003A3E069701D75080078081298
:103D630011D878081211D8EE242F1254CCF9123F2F
:103D73008012436B1211B174091214F5E07003023F
:103D83003E1E123F801265DA12281C8A0E8B0FEA40
:103D93004B7003023EAF74041214F5E0F88E828F69
:103DA30083A3A3E028F8A3E03400F9E8240D123F2D
:103DB3005EF88A828B83A3A3A3E068600EE88A82FD
:103DC3008B83A3A3A3124A781237727904E91214DE
:103DD300F51254EBA3E02AF8A3E034008882F583BC
:103DE300A3AA82AB83121B388A088B098C0A8D0B1A
:103DF300850E82850F83A3A3A3A3780812115940CC
:103E030003023F5690831378081213A8850E828508
:103E13000F83A3A3126F70A312520F901710E064C5
:103E2300046008E064096003023F56E50CA2E54024
:103E330003023EE9EE242F1254D4F0EE2430125440
:103E4300CCC0E074011214F5D0E0F0EE243112542A
:103E5300CCC0E074021214F5D0E0F074141214F51F
:103E6300E064017026740E1214F51248C72413126D
:103E730054CC687003A3E0697011740C1214F5122A
:103E83003F7A700774141214F5E4F0EE2425F582DA
:103E9300E43FF583120FAB74041212447407121239
:103EA3003C12235474041211B1023F56901755E08B
:103EB30064016003023E1E74201214F5123F7470F5
:103EC30009E50CA2E65003023E1E74101214F5E03D
:103ED300F47003A3E0F4607BEEFCEFFD74031212B5
:103EE3003C122660806DA2E6506974201214F5120C
:103EF30062F97016741A1214F5E0640270557403B3
:103F030012123C7900122798804974201214F5127A
:103F13003F6D7014741A1214F5E064047035740361
:103F230012123C12278C802B74201214F5123F6658
:103F3300700C7900740312123C1227DA8015742076
:103F43001214F5125E17E0640C7008740312123C2D
:103F53001227E6742902673FE82406F582E439F55F
:103F630083E022126706E0640322126706E0640717
:103F7300221257F5640622124FE8640222EE242B24
:103F8300F582E43F126F68EE124FBD22E0F508A3FD
:103F9300E0AA08FBE4FCFD1226482274F4120BD9B4
:103FA300EAFEEBFF8C088D09901678E0600F12682B
:103FB300AF7003A3E06970051223D2805379001216
:103FC30065CD1224028A828B83E5824583602CA30C
:103FD300A3A3A3A3A3E054186021E508241C124063
:103FE3001A120FAF124016120FAFEE2418124352DB
:103FF300125AB21268871211B1801579008E828F1E
:1040030083A3A3A31262DF125AB21265DA1223D872
:10401300023BAAE5082413F582E43509F5832274EB
:10402300F7120BD974F7121264EAFEEBFF90171024
:10403300E06403600DE064016008E064096003026A
:1040430041208A828B83A3E060030240EE7C007DE3
:10405300007A027B00121AF012692C8A821268C954
:1040630090170112620B79531221CE901710E0645E
:1040730009600990170E1265DA12281685218285C8
:1040830022837401125E2F9017107404F0740112CE
:10409300123C794A1221C874011212447A067B1722
:1040A300121CCA90158AE0640B70057406F0800533
:1040B30079001241259017011262E57A037B001201
:1040C3001AF09017041262E57A047B00121AF0903A
:1040D30016FBE0A2E35004D2F08002C2F0125E1C91
:1040E30090195E1214DE122648802FFC7D007A039D
:1040F3007B10121AF090158AE0640B7003740AF0B7
:1041030090167CE4F0FA7B40125C0C8E828F83A3C2
:10411300E0F9124125901710E4F012268A7409027F
:104123004CC190170E1265DE12236622C082C08333
:1041330090169812676A7017901710E024FB6005B9
:10414300146007800A90169E801F9016A0801AE8BC
:10415300496007123F5B6401700C8A828B83A3E082
:10416300F912235A800E90178A12676A6006125E4C
:1041730018122CE00259631268CF90170EE06822E0
:104183001268CFE8FAE9FB2274F5120BD974D8123E
:1041930012648A088B098A828B83A3A3A3A3A3A394
:1041A300A3A3E0C3940F500302433C8A828B83A3EF
:1041B300A3A31268E774151212448A828B83A3A304
:1041C300A3A3A3A3A3A3124341FAA3E0FB1226963E
:1041D30074151214F5E0702E850882850983A3A354
:1041E300A3A3A3A3A3A3E0C3940B401A8E828F833C
:1041F300A3A3A3A3A3A3A3A3E064027009EE240BC8
:104203001254CCF4600302433C74171214F5E060BB
:10421300076402600302433C901710E06402601CD1
:10422300E06406601790169812676A700302433CB5
:10423300123F5B6401600302433C80259016981291
:10424300676A701D75080078081211D87808121172
:10425300D8EE24101243528E828F8312436B1211B5
:10426300B18E828F83126F3F1248F71268CB7402AC
:104273001214F51260C012376CC0E074041214F506
:10428300D0E0124374F508A3E0F509740F7808121F
:10429300145574051214F5E508F074191214F5E0B9
:1042A300C0E074061214F5D0E0F0741B1214F5E0AC
:1042B300C0E074071214F5D0E0F074161214F5E0A0
:1042C300C0E074091214F5D0E0F074171214F5E08D
:1042D300C0E074081214F5D0E0F0EE24101254CCB0
:1042E300C0E0740A1214F5D0E0F0741A1214F5E069
:1042F300C0E0740B1214F5D0E0F074271214F5E04B
:10430300C0E0740C1214F5D0E0F0741C1214F5A97B
:1043130082AA8389088A09750A0078081211D07C59
:10432300087D0074101214F5AA82AB831254C312D1
:1043330011B1AA21AB221223607428024E1FE0F9A7
:104343008A828B83A3A3A3A3A3A3A3A3A3E022F59E
:1043530082E43FF583E0F98E828F83A3A3A3A3A313
:10436300A3A3A3A3126F6A221265DE122756740257
:1043730022F0EE125AB7E02274F2120BD974F8123B
:1043830012648A0A8B0B8C0C8D0D8908908258ACB1
:1043930021AD2274081210FAC200AC0AAD0BAA2197
:1043A300AB2212655B7002D20090175C8013AC0ADB
:1043B300AD0BEE240BFAE43FFB12655B701B124F4F
:1043C300AE124C41601EA20040E48E828F83E065F2
:1043D3000C7004A3E0650D70E58E828F83A3A3E0C8
:1043E300650870DAEEFAEFFB7408024904C082C074
:1043F3008390175C025960C082C08390175CE4F01D
:10440300A302465674F7120BD990175C126E5880AC
:104413000FEA2414F582E41268E4121BE0EEFAEFCB
:10442300FBEA4B70EC90175CE4F0A3F0024CC4740D
:10443300F2120BD98A0C8B0DEDFF890B8A828B83C9
:10444300E08C828D83F0A3A882A9838A828B831256
:1044530044FB124A72E0C454F0FA88828983E04A2A
:10446300F0EC2402F8E43FF9850C828B83A3A312BA
:1044730044FB12450EE0333354FC124502E0333360
:104483003354F8124502A3E0A2E0E4331313FA888D
:10449300828983E04AF0EC2403FE50010FE50C24EB
:1044A30007F508E4350DF509750A0078081211D0EF
:1044B3007C087D00EEFAEF1254C21211B1EE24080B
:1044C300FE50010FE50C240FF508E4350DF50978CE
:1044D300081211D07C037D00EEFAEF1254C21211C0
:1044E300B1E50BC3940F400DE50C2412F582E435BE
:1044F3000D125AC6F0024907A3E08882898322FA83
:1045030088828983E04A12450EA322F0850C828BB0
:1045130083A3A3A3A32274F2120BD9EBFF8C0C8DFC
:104523000D8A82F583E08C828D83126F29A3A88282
:10453300A983E012590B1248EDC4125905F0EA128F
:104543006F331259121248EBA2E2E4338C828D834B
:104553001248EA131313541F12590BA31248EAA269
:10456300E7E4338C828D83A3A3A3A3A3A3F0EA245C
:1045730003FE50010FF5088F09750A007808121120
:10458300D07C087D00E50C24071254BE1211B1EE55
:104593002408FE50010FF5088F0978081211D07C0A
:1045A300037D00E50C240F1254BE1211B18E828FCD
:1045B30083A3A3A3E0C0E0126F4FD0E0F00249074A
:1045C30074F6120BD9EAFEEBFF8A82F583A3858288
:1045D30008858309E0F912237E850882850983E033
:1045E30064EB601E8E828F83A3E064E160148E828D
:1045F3008F83A3E064F1600A8E828F83A3E0641A41
:1046030070078E828F83A3E4F090195E1214DE127A
:10461300264875080178081211D88E828F83A3E08B
:10462300F50878081211D8790090170E1262E590F8
:10463300170412436B1211B11226A8025CD3C08275
:10464300C083E990176E7003E4800274018004EA6A
:10465300F0A3EBF00259631265DE1221E62274F631
:10466300120BD990176EE0701B7C0079017A007BE6
:10467300001226D8EA4B600C8A828B8312676A6029
:104683000312263C025CD3C082C083124B2140102C
:1046930079FF1226D2E9F8903358E493C398500473
:1046A30079018002790002596374F2120BD98A0AE4
:1046B3008B0B8909C2008A828B83A3A3A3A3A3A321
:1046C300A3A3E0F91226DE8A0C8B0DAE0CAF0D7599
:1046D3000801EA4F600302478D850A82850B831226
:1046E30062DF850A82850B83A3A3A3A3A3A3A312DB
:1046F30048CC1226C68A0C8B0DAE0CAF0DEA4F7058
:10470300030248998A828B83A3A3A3A3E4F0A3F0B3
:10471300E50A240CFAE4350BFB8A82F583E0C0E05A
:104723001248A0D0E0F0E50A240D1248C0240D126F
:1047330062051227BC124FC6126726E50A2411121E
:1047430048C02411126205E50A24131268F6C0E07A
:10475300124FB8D0E0F0D200EE2406F8E43FF9128D
:1047630048B31248EE540460030247FF901970E007
:10477300F50A750B007407780A12136F8E828F8304
:10478300A3A3A3A3A3A31248AAF08E828F83A3A3F8
:10479300A3A3A3A3E0F50AA3E0F50B7407780A1219
:1047A3001455E50A5407FCE50960618E828F83A3E3
:1047B300A3A3A3A3A3A3A3A37402124E19124BB6DC
:1047C300600B9016FC12554CA3A312620BEC700302
:1047D300024870EE2406F8E43FF9E8FAE91248B318
:1047E300F0EC24FFF50AE434FFF50B7407780A12A2
:1047F300136F8A8289831248AAF080718E828F8315
:10480300A3A3A3A3A3A3E0448002478CEC70057584
:10481300080080598E828F83A3A3A3A3A3A3E0548C
:1048230020600C121B3EEA547F7900245F80198EAE
:10483300828F83A3A3A3A3A3A3E05410601A121B24
:104843003EEA540F7900240A5001098E828F83A314
:10485300A3A3A3F0A3E9800D8E828F83A3A3A3A3B5
:104863007401F0A3E41248F77404124B37A200500A
:10487300288E828F83A3A3A3A31265E4F9EEFAEF34
:10488300FB1226CCE9601212676360031248D9EE6B
:10489300FAEFFB121BE0750800A9088067EE240CF1
:1048A300F582E43FF58322E0450AF0A3E0450B22BD
:1048B3008882F583E0547FF0A3E054FC22F582E480
:1048C300350BF5831268CFEE22A3E0F9850A8285C2
:1048D3000B831265DE221248E0124D3622EE240FBE
:1048E300F582E43FF58322A3A3A3A31248F2221285
:1048F3006912E0221248FB22124E0FA3A3A32274D3
:10490300031211B17F06020F2674F4120BD974F748
:104913001212647E001226DEEA4B70030249BF8A3C
:10492300828B83A3A3A3A3A3A3A3A3A3E06406608F
:10493300030249BF8A828B83A3A3A3A3A3A3A3E0F8
:10494300FF8A828B83126EF1E0C0E074081214F5C3
:10495300D0E0124CE71261F812620B1226F0EF540A
:104963000860578521828522831262E57A007B00E5
:104973001226C0EA4B7043126F5A7C007D007A0006
:104983007B0080228E828F831257F1F47003A3E0A1
:10499300F4602790170E1249C4124CC9601C7C00A6
:1049A3007D00EEFAEFFB1226C08A0A8B0BAE0AAF2C
:1049B3000BEE4F70CF79001221FE7E01EEF9023B20
:1049C300A51249C822E0FCA3E0FD8E828F8322C09A
:1049D30082C0838A828B83E5824583700990177333
:1049E30080068A828B83A3A3124BEA60208A828B80
:1049F30083A3A3A3A3A3A3A3E0540860E5EC4D60A2
:104A030010124BF07003A3E06D70D780047A007B23
:104A13000002596374F2120BD98A088B09890AECD4
:104A2300FEEDFF7A147B00121BDAEA4B60378A82B1
:104A33008B83A3A3A3A3A3A3A3A3A3E4124A88E5FD
:104A43000A124CD3EEF0A3EF124A78124CEE124A3C
:104A53007F8A828B83126F72124A6B126661A31272
:104A63004A72F0A3F0024907EA240FF582E4221206
:104A73006F2DA3A322124CD9E4F0A322A3F0126E4C
:104A8300EA12666122124A8C22124CDDA3A3A3A36D
:104A93002274F5120BD9EAFEEBFF890A8C088D0903
:104AA300EA4F6075740169701279011226D2E9F830
:104AB30090335AE493C3985015800A7404697009BB
:104AC300124B21500979118052740269704B8E8206
:104AD3008F83A3A3A3A3A3A3A3A3A3E50A124B308A
:104AE3001252061267EBA3E4F0A3F0901773126758
:104AF3006A601880031268CB88828983A3A3124B50
:104B0300EA88828983A3A370EC8003901773EEF085
:104B1300A3EF124B377900800279C1024E22790448
:104B23001226D2E9F8903359E493C398221267EF1F
:104B3300A3A3A322F07A207B0090175BE0F9121B5A
:104B43008622C082C083E9F87900901773801D8A9A
:104B5300828B83A3A3A3A3A3A3A3A3A3E06860055A
:104B630074FF687001098A828B83A3A3124BEA70D6
:104B7300DE02596374F7120BD9EA4B700590177371
:104B830080068A828B83A3A3124BEA601F8A828BDF
:104B930083A3A3A3A3A3A3A3A3A3E06970E4EC60EB
:104BA3000F8A828B83124BB670D880047A007B0005
:104BB300024CC4126F0AE0540422C082C0839017CF
:104BC3007380068A828B83A3A3124BEA60128A82C4
:104BD3008B83A3A3A3A3A3A3A3A3E06970E580048A
:104BE3007A007B000259631265DEEA4B228A828BCC
:104BF300831257F56C2274F2120BD98A0A8B0B8C31
:104C03000C8D0D750800750900EA4B602A90177327
:104C130080068E828F83A3A3124C41601AAC0CAD25
:104C23000DEEFAEFFB850A82850B83122CE0E96413
:104C33000170DF8E088F09AA08AB09024907E0FE5D
:104C4300A3E0FFEE4F2274F7120BD990177312688B
:104C5300CB7C007D00800DE8FCE9FD88828983A37D
:104C6300A31268CBE8496030EA687002EB6970E729
:104C73009017731265DAE86A7002E96B8882898398
:104C8300A3A370081268CB90177380091268CB8CAA
:104C9300828D83A3A312620B802774F7120BD9EAC8
:104CA300FEEBFFEA4F60151226EA124D22126763EC
:104CB30060031248D9EEFAEFFB121BE080031211D6
:104CC300B17F01020F261265DE1221F2E9641A2276
:104CD300124CD9A3A322124CDD22F08A828B83A328
:104CE300A3A3A322126F2D1257F522124A8CA322DB
:104CF30074F6120BD99017731268E78014126904C3
:104D0300124D221248D9EEFAEFFB121BE0AE08AFA8
:104D130009EE4F70E8901773E4F0A3F0025CD38EB2
:104D2300828F83126EDEF583124D368E828F83124D
:104D33004D3622E0FAA3E0FB121BE022C082C083BF
:104D4300EAFCEBFDEA4D6017EA24FBF582EB34FF46
:104D53001267687007124D94E0F46007121B4A79DA
:104D630005802B90175BE0C0E0124D94D0E0F090EB
:104D73003351E493F97A757B17121B80E964017050
:104D83000B7A007B20124DA379008002790402592B
:104D930063EA24FFF582EB34FFF583227A207B005C
:104DA30090175BE0F9121B862274F4120BD9A2AFA1
:104DB300E433F508C2AF901775124C416038EE2406
:104DC300FBF582EF34FF1267687A007B2090175B54
:104DD3006005124DA68005E0F9121B8CE4F50AF577
:104DE3000B780A1211D4EEFCEFFD7A757B17121BB8
:104DF3007A74021211B1E508A2E092AFEEFAEFFB6A
:104E0300023BAA124E0BE022124E0F22124E19A39E
:104E1300A3A3A3A3A322F08E828F83221211B17FB7
:104E230003020F2674F2120BD974FA121264EAFE0B
:104E3300EBFF7508FE7509FF1226AEE960057911CF
:104E4300024FA91254C9603C90198AE0C43354E05C
:104E5300F8E0333354FC48C0E0EE125ED83FF583EC
:104E6300D0E0126926FAA3E0FB79FF122486EA4B0D
:104E730060127508FFEE240F1254CC4404F0125450
:104E8300C9D2E0F08E828F83124FE26006EE2412C5
:104E930012693EEE24131254CC700D90334FE493F9
:104EA300C0E0124FB8D0E0F08E828F83E0A2E750CB
:104EB3000454038019EE24141254CC70129016ED8E
:104EC300E0C0E0124FAED0E0F09016EDE004F0EE5B
:104ED30024111254CC64017016901974E0600D9083
:104EE30016F8E0700A8E828F83E0700312693B8E9E
:104EF300828F83E064017013EE240B1257EB64027C
:104F03007009EE240F1254CC4440F0AC21AD22EED4
:104F1300FAEFFB12271A8A0A8B0B74FE65087003DB
:104F230074FFF47003126904EA4B60768E828F83F8
:104F3300E0C0E074011214F5D0E0F074041214F52B
:104F4300EEF0A3EFF0EE241E1268C574021214F5FE
:104F530012620B7401121234880C890D780C121131
:104F6300D4EE2420124FCB1211D8124FC6120FAF1A
:104F7300EE240E124FCB1211D8901701120FAF74FB
:104F8300081214F5E0F9AC08AD09122714740812DD
:104F930011B1E9FE74106E700BAA0AAB0B121BE081
:104FA30080027E10EEF97406024904EE2414F582A1
:104FB300E43FF58322EE124FBD222413F582E43F32
:104FC300F58322EE1248E122F582E43FF583E0F512
:104FD3000C780C228E828F83A3A3A3A3A3A3A3A3E2
:104FE300A3124FE822E0FAA3E0FB1227B6E922C09E
:104FF30082C08374D71212649080E3740312124444
:1050030074261210FA8A828B83A3A3A3A31268CBFC
:10501300740E1214F51267701268CB740C1214F527
:105023001250EB240D1250DBC0E0741A1214F5D0A9
:10503300E0F01266671268C974201214F51250EB7F
:1050430024151250DBC0E074081214F5D0E0F0EA26
:10505300241CF582E43B1268C974121214F5125031
:10506300EB24111250DBC0E074091214F5D0E0F008
:10507300EA24121250DBC0E074071214F5D0E0F0FA
:10508300EA241EF582E43B1268C974241214F51253
:1050930050EB24201250DBC0E074261214F5D0E04C
:1050A3001250E374FFF074011214F574FFF07402EC
:1050B3001214F574FFF0908333120FAB74041212C1
:1050C30044740712123C12235474041211B1790070
:1050D30074291211B1025963F582E43BF583E0228E
:1050E300F085218285228322E8F0A3E9F0EA227485
:1050F300F4120BD974EC1212648A0A8B0B8C088D90
:1051030009E9FF7E107A217B00121BDA8521828553
:105113002283EAF0A3EB12677AE84970030251FF96
:105123007C217D007900852182852283E0FA121B90
:105133003290170E1265DA8521828522831262E985
:105143002409F582E438F58312672674201214F5D6
:105153001268CB74111214F5E812585A12672C38DE
:10516300F583740212585D126EF8740212584712D6
:10517300520612585D126ED5EFF074221214F51216
:105183005808F9A3E0C9126BCF39F583E812551D0E
:10519300A3E0C9241FF582E43912520D74231214BB
:1051A300F51265DA74061214F512672674081214E0
:1051B300F5E8F074261214F5126700C082C08374F8
:1051C3000C1214F5AC82AD83D083D0827405121017
:1051D300FA74251214F5E0C0E074131214F5D0E04C
:1051E300F07900AA21AB221226B4E9640170047E8F
:1051F3000080098521828522831248DCEEF974142C
:10520300023BA7E508F0A3E50922F583E50AF0A32D
:10521300E50BF02274F0120BD974FF121264EAFE4C
:10522300EBFF8C088D098A82F583A37408F0EA24C6
:10523300161254CC60088A828B83A37410F0EA247C
:10524300171254CC60098A828B83A3E02408F0EA06
:105253001254CA60088A828B83A3E004F08A828B8B
:1052630083A3A3A3A3A3A3E060198A828B83A3A32D
:10527300A3A3A3A3A3E0C3332402F88A828B83A34B
:10528300E028F0EA24111254D46004740E8001E47F
:10529300F0901982E0640170168A828B83E06401C6
:1052A300600D90167CE060071254B4740180041200
:1052B30054B4E412551D8A828B83A3E0F8EA1237B3
:1052C3006C28298C828D83F0EA24111254CC60055A
:1052D300125AF529F0850882850983E0C394754045
:1052E30009750C00750D000254ABE0FA7B00121B2C
:1052F300DA8A0C8B0DEA4B70030254AB8E828F83D8
:10530300E0FA9016FE1255167402780812136FEA2B
:105313004508FAAB09EE24121255107406780812E8
:10532300136FA808EA48FCEBFD1254C96004780126
:1053330080027800EE2416FAE43FFBE4C8F9ED4955
:10534300FDEE24111254CCF508880974097808126B
:10535300136FED4509FD8A828B83125516740B7802
:105363000812136FED4509FDEE2417125510740C46
:10537300780812136FED4509FD8E828F83A3A3A3D3
:10538300A3A3A3125516740A780812136FED4509E7
:10539300FDEE2423125510740D780812136FED459A
:1053A30009F9EC850C82850D83F0E9A3F0EE240264
:1053B3001254F3125532F0EE24041254F3A3A31241
:1053C3005532A3A3F0EE2413125503F0EE24141266
:1053D3005503A3F0750B088A828B83E0601512676F
:1053E300DC1262E5E50C2408FAE4350DFB121CCA55
:1053F300750B10EE24171254CC60191263681262F5
:10540300E5A80BE50C28FAE4350DFB121CCA740859
:10541300250BF50B8E828F83A3A3A3A3A3A3E06025
:105423004EEE2407F50EE43FF50F850E82F583E07B
:10543300C0E01254E2D0E0125522E0C0E00812545A
:10544300E4D0E0125522A31267561211D0850E82C2
:10545300850F83E01257BCA80BE50C281254BE122B
:1054630011B1850E82850F83E0C333250BF50B1233
:1054730054C96008C0E01254E2D0E0F0125AB212EC
:1054830067561211D012376BFC7D0074031214F5AA
:105493001254EBE0F8E50C28F8E4350DF9E82AFAA4
:1054A300E4391254C21211B1AA0CAB0D7401026794
:1054B3003FEA2423F582E43FF58322FAE4350DFB2A
:1054C300121B26740322EE2415F582E43FF583E0D4
:1054D30022F582E43FF583E085218285228322A899
:1054E3000BE50C281257CF22E0FA8E828F83A3227A
:1054F300F8E43FF98882F583E0850C82850D8322E9
:10550300F582E43FF58312553CA3A3A322F582E47D
:105513003FF583E0F50875090022126F1BF922F0AD
:10552300050B8E828F83A3A3A3A3A3A3A3A322A369
:10553300A3126912A312553C22E0850C82850D83C8
:10554300A3A3A3227403023BA71268CF8E828F8387
:10555300A3A32274F0120BD974FD121264126720F4
:1055630074021214F5E9F08C0C8D0D750B017C2679
:105573007D007900AA0CAB0D121B3274021214F5D4
:10558300E0C3940850030257451254FBF0AC0CAD32
:105593000D8521828522831257F1FA852182852286
:1055A30083125E17125AEEE96003750B00852182A0
:1055B300852283126700125812E0F9EA850C82856E
:1055C3000D83A3A3A3A3A3A3A3A3A3F0A3E91258A7
:1055D30047A3A3125812A3A3E0F9E50C12677FEACD
:1055E30012585A1262D5C0E0E50C2411126F53D041
:1055F300E012585D2407F582E438F583E0C0E01239
:105603006F4FD0E0126713740812583EA3E0602670
:10561300852182852283E02408F8A3E03400F9E59C
:105623000C2413F582E4350D126209850C82850D75
:1056330083A3E02408F0850C82850D83A3A3A3A391
:10564300A3A3A3A3E0602A850C82850D83A385828F
:105653000E85830F1257FFF8A3E03400F9E50C120F
:105663005ED8350D126209850E82850F83E024080A
:10567300F01257C3E4F01257D7E4F0A3126713A351
:10568300A3A3A3E06011125823850C82850D83A385
:10569300A3A3A3A312584FE50C1257E4E07003022F
:1056A3005731125823FA1257C3EA12584FF885217B
:1056B30082852283E028FBA3E034008B82F583E01C
:1056C300F8E50C241A126F53E812584FE8C39AE511
:1056D3000C50561257DFF8903352E493C39850049A
:1056E3007E0C8006E50C1257DFFE850C82850D8348
:1056F3001257FEF508A3E03400F509750A0078088F
:105703001211D0EE1257BC7A667B0B1254C31211DE
:10571300B11257D77466F0A3740BF0EEC333F88558
:105723000E82850F83E02880041257E4E4F0850C91
:1057330082850D83A3E0F8850C82850D83E0C398F1
:105743005004790080701257FEFAA3E03400FBE5A1
:105753000C126935126F56126726850C82850D83EC
:10576300E0C398C0E0E50C2417126F53D0E0125841
:105773003EE06040E50C2417FEE4350DFF8E82F514
:1057830083E024F2F0E50C241DF8E4350DF988825A
:10579300F583E0240EFAA3E03400FB8882898312A8
:1057A30067269016F9E0F912260CE9F88E828F83AA
:1057B300E0C398F0A90B02673D25E0FCE433FD222A
:1057C300E50C1257C92224191257CF22F582E4356A
:1057D3000DF58322E50C241B1257CF221257C9E083
:1057E3002212670D1257D222F582E43FF583125736
:1057F300F5221268D4F5838882E022A3125803228B
:105803001258082822E0F8852182852283E022A30A
:10581300A3E0FA852182852283126706A3A3A3222C
:10582300850C82850D83A385820E85830F12580311
:10583300FAA3E034008A82F583E022126717A3A358
:10584300A3A3A322125862F583888222F0850E82D5
:10585300850F83E004F022F0A3E9125862C82212F4
:105863006F1FF8A3E02274F4120BD98A088B09EA9C
:10587300125912A3A3F0EA1313543F125905A3F0CC
:10588300EAC4131312591212591C7409780A121418
:10589300551258FCA3A3A3A3A3A3F0EB1258FE1223
:1058A300591B740A780A121455E50A5401C0E0EC36
:1058B30012670D3DF583D0E0125920740B780A125C
:1058C30014551258FC125919740C780A12145512F3
:1058D30058FCA3125919740D780A121455E50A5489
:1058E30001C0E0EC2424F582E43DF583D0E0F074BC
:1058F3000E7808121455023B96E50A54018C828DEA
:10590300832212590BA3A322540F8C828D8322541A
:10591300038C828D8322A3A3A3A3A3A3A3F08A0A48
:105923008B0B22C082C08379008A828B83A3A3A3BB
:10593300A3A3A3E09016F8600EE0701F8A828B8306
:10594300A3A3E070168012E060111265CD901701D9
:10595300E06A7003A3E06B6002790180031265DAE9
:10596300D083D08202117E74F2120BD98A0A8B0B78
:10597300890CECFEEDFF8A828B83E0FA125AEE85E6
:105983000A82850B83A3A3125AE2E0F9EA8E828F7F
:1059930083A3A3A3A3A3A3A3A3A3125B07125AE204
:1059A300A3A3E0F9125AB2EA125B07A3A3E0C0E093
:1059B300EE2411F582E43FF583D0E0125B0EA3A33E
:1059C300A3E0C0E0EE2412F582E43FF583D0E012B9
:1059D30067EB7408124B30A3A3A3E06017E50A2416
:1059E30008F8E4350BF9124FB8E8F0A3E91267EBB6
:1059F300E02408F08E828F83A3A3A3A3A3A3A3A36E
:105A0300E060188E828F83A3125AD1EE241512629E
:105A130005850882850983E02408F08E828F83A39D
:105A2300A3A3A3A3E060248E828F83A3858208852A
:105A33008309E0F8E50A28F582E4350B125AC6A378
:105A4300A3F0850882850983E004F0EEFAEFFB12E8
:105A5300272CE9F50D70498E828F83A3A3A3A3A3FB
:105A6300A3125AC0A37014E0F8E50A28FAE4350B30
:105A7300FB125AA8126726E50C801A125AD1E824A1
:105A83000EF8500109EE241D126205125AF5F9E5CC
:105A93000CC39924F2C398C0E0EE12635FD0E0F028
:105AA300A90D024907EE241DF582E43FF58322EE9A
:105AB300125AB722240BF582E43FF58322E08E824B
:105AC3008F8322F583E08E828F83A3A3A322858213
:105AD30008858309E0F8E50A28F8E4350BF922E0A4
:105AE300FA850A82850B83A3A3A32212694712278F
:105AF30026229016F9E0F912260CE9F8850882852A
:105B03000983E022F0A3E9125B0E22F0850A828565
:105B13000B83A3A3A3A322C082C0837A817B1779BB
:105B2300E21221C87A817B17025963C082C0839035
